{
  "abi": [
    {
      "inputs": [
        {
          "internalType": "address",
          "name": "mercuryBaseAddress",
          "type": "address"
        },
        {
          "internalType": "address",
          "name": "gameboardTraverseVerifierAddress",
          "type": "address"
        },
        {
          "internalType": "address",
          "name": "computeHashPathDataVerifierAddress",
          "type": "address"
        },
        {
          "internalType": "address",
          "name": "mapHashesAddress",
          "type": "address"
        }
      ],
      "stateMutability": "nonpayable",
      "type": "constructor"
    },
    {
      "inputs": [
        {
          "internalType": "address",
          "name": "to",
          "type": "address"
        },
        {
          "internalType": "uint256",
          "name": "tokenId",
          "type": "uint256"
        }
      ],
      "name": "approveForGame",
      "outputs": [],
      "stateMutability": "nonpayable",
      "type": "function"
    },
    {
      "inputs": [
        {
          "internalType": "uint256",
          "name": "tokenId",
          "type": "uint256"
        }
      ],
      "name": "claimTimeoutPenalty",
      "outputs": [],
      "stateMutability": "nonpayable",
      "type": "function"
    },
    {
      "inputs": [
        {
          "internalType": "uint256",
          "name": "tokenId",
          "type": "uint256"
        },
        {
          "internalType": "uint256[2]",
          "name": "a",
          "type": "uint256[2]"
        },
        {
          "internalType": "uint256[2][2]",
          "name": "b",
          "type": "uint256[2][2]"
        },
        {
          "internalType": "uint256[2]",
          "name": "c",
          "type": "uint256[2]"
        },
        {
          "internalType": "uint256[9]",
          "name": "input",
          "type": "uint256[9]"
        }
      ],
      "name": "commitPath",
      "outputs": [],
      "stateMutability": "nonpayable",
      "type": "function"
    },
    {
      "inputs": [
        {
          "internalType": "uint256",
          "name": "",
          "type": "uint256"
        }
      ],
      "name": "committedHash",
      "outputs": [
        {
          "internalType": "bool",
          "name": "first",
          "type": "bool"
        },
        {
          "internalType": "uint256",
          "name": "seed_hash",
          "type": "uint256"
        },
        {
          "internalType": "uint256",
          "name": "time_hash",
          "type": "uint256"
        },
        {
          "internalType": "uint256",
          "name": "path_hash",
          "type": "uint256"
        },
        {
          "internalType": "uint256",
          "name": "used_resources_hash",
          "type": "uint256"
        }
      ],
      "stateMutability": "view",
      "type": "function"
    },
    {
      "inputs": [
        {
          "internalType": "uint256",
          "name": "",
          "type": "uint256"
        }
      ],
      "name": "gameState",
      "outputs": [
        {
          "internalType": "uint256",
          "name": "",
          "type": "uint256"
        }
      ],
      "stateMutability": "view",
      "type": "function"
    },
    {
      "inputs": [
        {
          "internalType": "uint256",
          "name": "",
          "type": "uint256"
        }
      ],
      "name": "gameTank",
      "outputs": [
        {
          "internalType": "uint256",
          "name": "fuel",
          "type": "uint256"
        },
        {
          "internalType": "uint256",
          "name": "battery",
          "type": "uint256"
        }
      ],
      "stateMutability": "view",
      "type": "function"
    },
    {
      "inputs": [
        {
          "internalType": "uint256",
          "name": "tokenId",
          "type": "uint256"
        }
      ],
      "name": "getMap",
      "outputs": [
        {
          "internalType": "uint256",
          "name": "",
          "type": "uint256"
        }
      ],
      "stateMutability": "nonpayable",
      "type": "function"
    },
    {
      "inputs": [
        {
          "internalType": "uint256",
          "name": "tokenId",
          "type": "uint256"
        }
      ],
      "name": "getOpponentFinalTime",
      "outputs": [
        {
          "internalType": "uint256",
          "name": "",
          "type": "uint256"
        }
      ],
      "stateMutability": "view",
      "type": "function"
    },
    {
      "inputs": [
        {
          "internalType": "uint256",
          "name": "tokenId",
          "type": "uint256"
        }
      ],
      "name": "getOpponentPath",
      "outputs": [
        {
          "internalType": "uint256[101]",
          "name": "",
          "type": "uint256[101]"
        }
      ],
      "stateMutability": "view",
      "type": "function"
    },
    {
      "inputs": [
        {
          "internalType": "uint256",
          "name": "tokenId",
          "type": "uint256"
        }
      ],
      "name": "getOpponentUsedResources",
      "outputs": [
        {
          "internalType": "uint256[101]",
          "name": "",
          "type": "uint256[101]"
        }
      ],
      "stateMutability": "view",
      "type": "function"
    },
    {
      "inputs": [
        {
          "internalType": "uint256",
          "name": "tokenId",
          "type": "uint256"
        }
      ],
      "name": "isApprovedForGame",
      "outputs": [
        {
          "internalType": "bool",
          "name": "",
          "type": "bool"
        }
      ],
      "stateMutability": "view",
      "type": "function"
    },
    {
      "inputs": [
        {
          "internalType": "uint256",
          "name": "tokenId",
          "type": "uint256"
        },
        {
          "internalType": "uint256",
          "name": "fuel",
          "type": "uint256"
        },
        {
          "internalType": "uint256",
          "name": "battery",
          "type": "uint256"
        }
      ],
      "name": "loadFuelBatteryToGameTank",
      "outputs": [],
      "stateMutability": "nonpayable",
      "type": "function"
    },
    {
      "inputs": [
        {
          "internalType": "uint256",
          "name": "",
          "type": "uint256"
        }
      ],
      "name": "mapId",
      "outputs": [
        {
          "internalType": "uint256",
          "name": "",
          "type": "uint256"
        }
      ],
      "stateMutability": "view",
      "type": "function"
    },
    {
      "inputs": [
        {
          "internalType": "uint256",
          "name": "",
          "type": "uint256"
        }
      ],
      "name": "matchedAviationIDs",
      "outputs": [
        {
          "internalType": "uint256",
          "name": "",
          "type": "uint256"
        }
      ],
      "stateMutability": "view",
      "type": "function"
    },
    {
      "inputs": [
        {
          "internalType": "address",
          "name": "",
          "type": "address"
        },
        {
          "internalType": "address",
          "name": "",
          "type": "address"
        },
        {
          "internalType": "uint256[]",
          "name": "",
          "type": "uint256[]"
        },
        {
          "internalType": "uint256[]",
          "name": "",
          "type": "uint256[]"
        },
        {
          "internalType": "bytes",
          "name": "",
          "type": "bytes"
        }
      ],
      "name": "onERC1155BatchReceived",
      "outputs": [
        {
          "internalType": "bytes4",
          "name": "",
          "type": "bytes4"
        }
      ],
      "stateMutability": "nonpayable",
      "type": "function"
    },
    {
      "inputs": [
        {
          "internalType": "address",
          "name": "",
          "type": "address"
        },
        {
          "internalType": "address",
          "name": "",
          "type": "address"
        },
        {
          "internalType": "uint256",
          "name": "",
          "type": "uint256"
        },
        {
          "internalType": "uint256",
          "name": "",
          "type": "uint256"
        },
        {
          "internalType": "bytes",
          "name": "",
          "type": "bytes"
        }
      ],
      "name": "onERC1155Received",
      "outputs": [
        {
          "internalType": "bytes4",
          "name": "",
          "type": "bytes4"
        }
      ],
      "stateMutability": "nonpayable",
      "type": "function"
    },
    {
      "inputs": [
        {
          "internalType": "uint256",
          "name": "tokenId",
          "type": "uint256"
        }
      ],
      "name": "postGameCleanUp",
      "outputs": [],
      "stateMutability": "nonpayable",
      "type": "function"
    },
    {
      "inputs": [
        {
          "internalType": "address",
          "name": "gameboardTraverseVerifierAddress",
          "type": "address"
        },
        {
          "internalType": "address",
          "name": "computeHashPathDataVerifierAddress",
          "type": "address"
        },
        {
          "internalType": "address",
          "name": "mapHashesAddress",
          "type": "address"
        }
      ],
      "name": "refreshAddresses",
      "outputs": [],
      "stateMutability": "nonpayable",
      "type": "function"
    },
    {
      "inputs": [
        {
          "internalType": "address",
          "name": "mercuryBaseAddress",
          "type": "address"
        }
      ],
      "name": "registerMercuryBase",
      "outputs": [],
      "stateMutability": "nonpayable",
      "type": "function"
    },
    {
      "inputs": [
        {
          "internalType": "uint256",
          "name": "tokenId",
          "type": "uint256"
        }
      ],
      "name": "retreat",
      "outputs": [],
      "stateMutability": "nonpayable",
      "type": "function"
    },
    {
      "inputs": [
        {
          "internalType": "uint256",
          "name": "tokenId",
          "type": "uint256"
        },
        {
          "internalType": "uint256",
          "name": "seed",
          "type": "uint256"
        },
        {
          "internalType": "uint256",
          "name": "time",
          "type": "uint256"
        },
        {
          "internalType": "uint256[2]",
          "name": "pathA",
          "type": "uint256[2]"
        },
        {
          "internalType": "uint256[2][2]",
          "name": "pathB",
          "type": "uint256[2][2]"
        },
        {
          "internalType": "uint256[2]",
          "name": "pathC",
          "type": "uint256[2]"
        },
        {
          "internalType": "uint256[101]",
          "name": "pathInput",
          "type": "uint256[101]"
        },
        {
          "internalType": "uint256[2]",
          "name": "usedResourcesA",
          "type": "uint256[2]"
        },
        {
          "internalType": "uint256[2][2]",
          "name": "usedResourcesB",
          "type": "uint256[2][2]"
        },
        {
          "internalType": "uint256[2]",
          "name": "usedResourcesC",
          "type": "uint256[2]"
        },
        {
          "internalType": "uint256[101]",
          "name": "usedResourcesInput",
          "type": "uint256[101]"
        }
      ],
      "name": "revealPath",
      "outputs": [],
      "stateMutability": "nonpayable",
      "type": "function"
    },
    {
      "inputs": [
        {
          "internalType": "uint256",
          "name": "tokenId",
          "type": "uint256"
        }
      ],
      "name": "searchOpponent",
      "outputs": [],
      "stateMutability": "nonpayable",
      "type": "function"
    },
    {
      "inputs": [
        {
          "internalType": "bytes4",
          "name": "interfaceId",
          "type": "bytes4"
        }
      ],
      "name": "supportsInterface",
      "outputs": [
        {
          "internalType": "bool",
          "name": "",
          "type": "bool"
        }
      ],
      "stateMutability": "view",
      "type": "function"
    },
    {
      "inputs": [
        {
          "internalType": "uint256",
          "name": "",
          "type": "uint256"
        }
      ],
      "name": "timeout",
      "outputs": [
        {
          "internalType": "uint256",
          "name": "",
          "type": "uint256"
        }
      ],
      "stateMutability": "view",
      "type": "function"
    },
    {
      "inputs": [
        {
          "internalType": "uint256",
          "name": "tokenId",
          "type": "uint256"
        }
      ],
      "name": "unapproveForGame",
      "outputs": [],
      "stateMutability": "nonpayable",
      "type": "function"
    },
    {
      "inputs": [
        {
          "internalType": "uint256",
          "name": "tokenId",
          "type": "uint256"
        }
      ],
      "name": "withdrawFromQueue",
      "outputs": [],
      "stateMutability": "nonpayable",
      "type": "function"
    }
  ],
  "bytecode": {
    "object": "0x608034620000c657601f62002d8138819003918201601f19168301916001600160401b03831184841017620000cb57808492608094604052833981010312620000c6576200004d81620000e1565b906200005c60208201620000e1565b6200007860606200007060408501620000e1565b9301620000e1565b9060018060a01b03928380928160018060a01b03199716876000541617600055168560025416176002551683600354161760035516906004541617600455604051612c8a9081620000f78239f35b600080fd5b634e487b7160e01b600052604160045260246000fd5b51906001600160a01b0382168203620000c65756fe608080604052600436101561001357600080fd5b600090813560e01c90816301ffc9a71461247457508063025799f01461217a57806308148f7a146121505780632336f12d1461212757806338e1359a14612096578063392a4cd814612056578063406c845f14611d645780634d3a27161461199e5780634e0e1a3e14611974578063513858f01461190b57806355a31b05146118d75780636294f2ec1461175057806362cbe43114611726578063653ec4e5146116fc578063785e51991461157a5780637d85924e1461153d57806381c9a96214610dfe578063877ff91714610ac05780638af01e5b14610a965780639842091214610a1e578063b56befe3146109c5578063bc197c8114610937578063bdd8444314610270578063e1a9888e14610214578063e99100b71461019c5763f23a6e611461013f57600080fd5b346101995760a0366003190112610199576101586124c9565b506101616124df565b5060843567ffffffffffffffff811161019557610182903690600401612654565b5060405163f23a6e6160e01b8152602090f35b5080fd5b80fd5b5034610199576060366003190112610199576101b66124c9565b6101be6124df565b6001600160a01b0360443581811693929084900361020f576101de612bb1565b816bffffffffffffffffffffffff60a01b931683600254161760025516816003541617600355600454161760045580f35b600080fd5b503461019957602036600319011261019957604060a0916004358152600b6020522060ff815416906001810154906002810154600460038301549201549260405194151585526020850152604084015260608301526080820152f35b503461019957611ba036600319011261019957366083121561020f576040516102988161256a565b60a48136821161020f576064905b8282106109275750503660c3121561020f57604051916102c58361256a565b826101249236841161020f57905b83821061090d57505036610143121561020f57604051906102f38261256a565b816101649336851161020f57905b8482106108fd57505036610183121561020f57604051936103218561254d565b84610e049436861161020f57905b8582106108ed57505036610e23121561020f576040519061034f8261256a565b81610e449536871161020f57905b8682106108dd57505036610e63121561020f576040519161037d8361256a565b82610ec49636881161020f57905b8782106108c357505036610ee3121561020f57604051946103ab8661256a565b85610f049736891161020f57905b8882106108b357505036610f23121561020f57604051966103d98861254d565b87611ba49136831161020f57905b8282106108a3575050506104046103ff6004356126c3565b6127c1565b6004358952600660205261041e600360408b205414612833565b6004358952600860205261043760408a20541515612968565b60043589526008602052604089205489526006602052600360408a205410610855576004358952600b602052600160408a200154602435906104798280612af6565b03610810576004358a52600b60205261049c600260408c20015491604435612af6565b036107cb576004358952600b602052600360408a20015488510361078657602088916004358b52600b82526104da600460408d2001548a5114612a4c565b60018060a01b036003541694610506604051948593849363abc84df560e01b9b8c865260048601612aa2565b0381865afa90811561077b57899161075c575b50156107165760209361053b8760405197889687958695865260048601612aa2565b03915afa801561070b576105569185916106dc575b50612a4c565b604051916105638361251d565b604435835260208301908152604083019182526004358452600860205260408420548452600c602052604084209251835551835b606581106106c657505051825b606581106106af578360043581526006602052600460408220556009602052806040812055600860205260408120548152600660205260046040822054146105ea575b80f35b6004358152600c60205260408120548060443510600014610640575061061e60043560005260066020526005604060002055565b6004358152600860205260408120546000526006602052600660406000205580f35b604435148061069c575b156106675761061e60043560005260066020526005604060002055565b6008602052610686604082205460005260066020526005604060002055565b6004356000526006602052600660406000205580f35b50600b60205260ff60408220541661064a565b6001906020835193019260668286010155016105a4565b6001906020835193019282828701015501610597565b6106fe915060203d602011610704575b6106f68183612586565b8101906126ab565b38610550565b503d6106ec565b6040513d86823e3d90fd5b60405162461bcd60e51b815260206004820152602a6024820152600080516020612c358339815191526044820152693830ba3410383937b7b360b11b6064820152608490fd5b610775915060203d602011610704576106f68183612586565b38610519565b6040513d8b823e3d90fd5b60405162461bcd60e51b81526020600482015260296024820152600080516020612c358339815191526044820152680e0c2e8d040d0c2e6d60bb1b6064820152608490fd5b60405162461bcd60e51b81526020600482015260296024820152600080516020612c358339815191526044820152680e8d2daca40d0c2e6d60bb1b6064820152608490fd5b60405162461bcd60e51b81526020600482015260296024820152600080516020612c358339815191526044820152680e6cacac840d0c2e6d60bb1b6064820152608490fd5b60405162461bcd60e51b81526020600482015260326024820152600080516020612c358339815191526044820152716f70706f6e656e742067616d65537461746560701b6064820152608490fd5b81358152602091820191016103e7565b81358152602091820191016103b9565b60206040916108d236856125a8565b81520191019061038b565b813581526020918201910161035d565b813581526020918201910161032f565b8135815260209182019101610301565b602060409161091c36856125a8565b8152019101906102d3565b81358152602091820191016102a6565b50346101995760a0366003190112610199576109516124c9565b5061095a6124df565b5067ffffffffffffffff6044358181116109c15761097c9036906004016125ed565b506064358181116109c1576109959036906004016125ed565b50608435908111610195576109ae903690600401612654565b5060405163bc197c8160e01b8152602090f35b8280fd5b5034610199576040366003190112610199576109df6124c9565b6024356109f36109ee826126c3565b612757565b825260016020526040822080546001600160a01b0319166001600160a01b0390921691909117905580f35b5034610199576020806003193601126101955760405191610a3e8361254d565b610ca080933690376004358152600c825260019081604082200160405193849192915b60658310610a83578686610a748161254d565b610a8160405180926124f5565bf35b8354815292840192918401918101610a61565b50346101995760203660031901126101995760406020916004358152600c83522054604051908152f35b5034610199576020908160031936011261019957600435610ae36103ff826126c3565b80825260068352600192610afc84604085205414612833565b818352600881526040832054610d9f5782546040516324d6b3c160e11b8152600481018490526001600160a01b0395918390829060249082908a165afa908115610d14578591610d72575b5084526005825283604081205560009285845416803b15610d6e57848091602460405180948193632d778c2d60e21b83528760048401525af18015610d1457610d5b575b508084526008835283604081205560098352836040812055600a8352836040812055600b83528360046040822082815582858201558260028201558260038201550155600c8352610bf66040852085815560cb6066820191610bef83878301612adf565b0190612adf565b604051610c028161251d565b600281526040368583013784610c178261287f565b5282610c22826128a2565b5260405196610c308861251d565b60028852604036868a0137828652600785526040862054610c508961287f565b528286526007855283604087200154610c68896128a2565b52855416906040516331a9108f60e11b81528360048201528581602481865afa908115610d50578791610d23575b50823b15610d1f57918697989187610cc79894604051998a958694859363fdffdd3b60e01b85523060048601612905565b03925af18015610d145790859291610cf6575b6006945082526007835260408220828155015552604081205580f35b91909293610d0390612539565b610d105782918491610cda565b8380fd5b6040513d87823e3d90fd5b8680fd5b610d439150863d8811610d49575b610d3b8183612586565b8101906128b2565b38610c96565b503d610d31565b6040513d89823e3d90fd5b610d6790949194612539565b9238610b8b565b8480fd5b90508281813d8311610d98575b610d898183612586565b8101031261020f575138610b47565b503d610d7f565b6084906040519062461bcd60e51b82526004820152603260248201527f536b796c616247616d65466c69676874526163653a20616c72656164792068616044820152711cc81b585d18da1959081bdc1c1bdb995b9d60721b6064820152fd5b50346101995761024036600319011261019957600435366043121561020f57604051610e298161256a565b60648136821161020f576024905b82821061152d575050366083121561020f5760405190610e568261256a565b60e4908236831161020f5781905b83821061151357505036610103121561020f5760405192610e848461256a565b836101249336851161020f57905b848210611503575050366101431215610d1f576040519367ffffffffffffffff9361012086018581118782101761120057604052856102449136831161020f57905b8282106114f357505050610eea6103ff886126c3565b868852610f4f6020809760068252610f08600260408d205414612833565b898b5260088252610f1e60408c20541515612968565b60025460405163c542c93b60e01b81526001600160a01b03959094859392871692610f6892919060048601906129f4565b610f5e60449889860190612a1c565b60c48401906129f4565b888c61010484015b600982106114da5750505081610224915afa90811561077b5789916114bd575b501561147e57806004541690878952600a875260408920549089541690604051906324d6b3c160e11b918281528a60048201528981602481875afa908115611473578c91611446575b508989015190604051926318afaf0760e11b8452600484015260248301528582015288818781875afa90811561132f578b91611429575b50156113cb57888a526007885260408a205460408801510361138457888a5260078852600160408b20015460608801510361133a576040518181528960048201528881602481865afa90811561132f578b91611302575b5060001981019081116112ee5760ff81116112ee57600160e0890151911b036112a857879060246040518094819382528c60048301525afa801561077b5787918a91611279575b508361010088015191604051948593849263058f77d160e31b8452600484015260248301525afa90811561126e578891611251575b501561121657505083855260088352604085205485526006835260036040862054141591805190608081015160c060a0830151920151926040519560a087019587871090871117611200576004956040528652868601908152604086019182526060860192835260808601938452878952600b8752604089209551151560ff801988541691161786555160018601555160028501555160038401555191015560068152600360408420556009815282604081205560088152604083205483526006815260036040842054146111b6578280f35b61012c4201918242116111ec57908160099285528282528360408620558452600881526040842054845252604082205538808280f35b634e487b7160e01b84526011600452602484fd5b634e487b7160e01b600052604160045260246000fd5b61633160f01b608492600080516020612c3583398151915287936040519462461bcd60e51b8652600486015260226024860152840152820152fd5b6112689150863d8811610704576106f68183612586565b386110e3565b6040513d8a823e3d90fd5b82819392503d83116112a1575b6112908183612586565b8101031261020f57869051386110ae565b503d611286565b60405162461bcd60e51b815260048101899052602c6024820152600080516020612c35833981519152818601526b3632bb32b61039b1b0b632b960a11b81870152608490fd5b634e487b7160e01b8b52601160045260248bfd5b90508881813d8311611328575b6113198183612586565b8101031261020f575138611067565b503d61130f565b6040513d8d823e3d90fd5b60405162461bcd60e51b81526004810189905260306024820152600080516020612c35833981519152818601526f7374617274696e67206261747465727960801b81870152608490fd5b60405162461bcd60e51b815260048101899052602d6024820152600080516020612c35833981519152818601526c1cdd185c9d1a5b99c8199d595b609a1b81870152608490fd5b60405162461bcd60e51b815260048101899052603260248201527f536b796c616247616d65466c69676874526163653a206d6170206861736820768186015271195c9a599a58d85d1a5bdb8819985a5b195960721b81870152608490fd5b6114409150893d8b11610704576106f68183612586565b38611010565b90508981813d831161146c575b61145d8183612586565b8101031261020f575138610fd9565b503d611453565b6040513d8e823e3d90fd5b60405162461bcd60e51b81526004810187905260256024820152600080516020612c358339815191528184015264383937b7b360d91b81850152608490fd5b6114d49150873d8911610704576106f68183612586565b38610f90565b825181528c958795509283019260019092019101610f70565b8135815260209182019101610ed4565b8135815260209182019101610e92565b602060409161152236856125a8565b815201910190610e64565b8135815260209182019101610e37565b50346101995760203660031901126101995760043561155e6109ee826126c3565b815260016020526040812080546001600160a01b031916905580f35b5034610199576060366003190112610199576044356024356004356115a16103ff826126c3565b808452602090600682526115b9604086205415612833565b846040516115c68161251d565b6002815260403685830137816115db8261287f565b5260016115e7826128a2565b526040516115f48161251d565b6002815260403686830137856116098261287f565b5286611614826128a2565b5282546040516331a9108f60e11b81526004810186905291906001600160a01b03168683602481845afa928315610d145785936116dd575b50803b15610d6e5761167a938580946040519687958694859363f6573d7b60e01b8552309060048601612905565b03925af180156116d2576116be575b509281600794528383526116a260408720918254612945565b90558452526116b960016040842001918254612945565b905580f35b6116c790612539565b610d6e578438611689565b6040513d84823e3d90fd5b6116f5919350873d8911610d4957610d3b8183612586565b913861164c565b50346101995760203660031901126101995760406020916004358152600a83522054604051908152f35b50346101995760203660031901126101995760406020916004358152600883522054604051908152f35b503461019957602080600319360112610195576004356117726103ff826126c3565b8083526006825261178860408420541515612833565b8083526006825261179f6005604085205410612833565b808352600882526117b560408420541515612968565b80835260088252604083205483526009825260408320541561187e57808352600882526040832054835260098252604083205442111561182357908161180960069360005260066020526005604060002055565b835260088152604083205460005252600660406000205580f35b60405162461bcd60e51b815260048101839052602d60248201527f536b796c616247616d65466c69676874526163653a2074696d656f757420646960448201526c191b89dd081c185cdcc81e595d609a1b6064820152608490fd5b60405162461bcd60e51b815260048101839052602b60248201527f536b796c616247616d65466c69676874526163653a2074696d656f757420697360448201526a1b89dd081919599a5b995960aa1b6064820152608490fd5b5034610199576020366003190112610199576040809160043581526007602052206001815491015482519182526020820152f35b503461019957602080600319360112610195576040519161192b8361254d565b610ca080933690376004358152600c82526066604082200160405192839192915b6065831061195f578585610a748161254d565b6001828192865481520194019201919261194c565b50346101995760203660031901126101995760406020916004358152600683522054604051908152f35b50346101995760208060031936011261019557600435906119c16103ff836126c3565b818352600681526119d6604084205415612833565b82546040516317886fed60e11b815260048101849052602493916001600160a01b03919082169084818781855afa908115610d50578791611d47575b50611cf5578086913b1561019557819086604051809481936306c1d0cf60e51b83528860048401525af18015611cea57611cd7575b5080855416604051916324d6b3c160e11b9182845284600485015285848881845afa801561126e5786948991611ca8575b5088526005845260408820549081611afa575050865416946040518096819382528560048301525afa801561070b578490611acc575b600693508452600582528060408520555b8352526001604082205580f35b508183813d8311611af3575b611ae28183612586565b8101031261020f5760069251611aae565b503d611ad8565b6040516331a9108f60e11b808252600482018890529495509293919287818a81855afa928315611c9d5788918b94611c7e575b50896040518094819382528760048301525afa90811561077b57849182918b91611c61575b5016911614611c13578387526008855280604088205580875283604088205561012c420190814211611c00579085939291858952600985528160408a20558852600984526040882055865416946040518096819382528560048301525afa801561070b578490611bd2575b60069350845260058252836040812055611abf565b508183813d8311611bf9575b611be88183612586565b8101031261020f5760069251611bbd565b503d611bde565b634e487b7160e01b885260116004528688fd5b60405162461bcd60e51b8152600481018690526021818801527f536b796c616247616d65466c69676874526163653a206e6f20696e2d666967686044820152601d60fa1b6064820152608490fd5b611c789150893d8b11610d4957610d3b8183612586565b38611b52565b611c96919450823d8411610d4957610d3b8183612586565b9238611b2d565b6040513d8c823e3d90fd5b85819692503d8311611cd0575b611cbf8183612586565b8101031261020f5785935138611a78565b503d611cb5565b611ce390959195612539565b9338611a47565b6040513d88823e3d90fd5b60405162461bcd60e51b8152600481018590526025818701527f536b796c616247616d65466c69676874526163653a20746f6b656e206973206c6044820152641bd8dad95960da1b6064820152608490fd5b611d5e9150853d8711610704576106f68183612586565b38611a12565b5034610199576020806003193601126101955760043590611d84826126c3565b8015611ff0575b611d94906127c1565b81835260068152611dbc604084205460058114908115611fe5575b8115611fda575b50612833565b8183526006815260408320549160058314928315611fcf575b50835484936001600160a01b039185908316803b15610195578190602460405180948193632d778c2d60e21b83528960048401525af18015610d5057611fbc575b508285526008845284604081205560098452846040812055600a8452846040812055600b8452846004604082208281558260018201558260028201558260038201550155600c8452611e7c6040862086815560cb6066820191610bef8360018301612adf565b15611ea2575b509060069183526007815282600160408220828155015552604081205580f35b604051611eae8161251d565b600281526040368583013784611ec38261287f565b526001611ecf826128a2565b5260405191611edd8361251d565b6002835260403686850137838652600785526040862054611efd8461287f565b52838652600785526001604087200154611f16846128a2565b52855416906040516331a9108f60e11b81528460048201528581602481865afa908115610d50578791611f9f575b50823b15610d1f5791611f7393918780946040519687958694859363fdffdd3b60e01b85523060048601612905565b03925af1801561070b57908491611f8b575b50611e82565b611f9490612539565b6109c1578238611f85565b611fb69150863d8811610d4957610d3b8183612586565b38611f44565b611fc7919550612539565b849338611e16565b600614925038611dd5565b600791501438611db6565b600681149150611daf565b5082546040516331a9108f60e11b815260048101849052906001600160a01b039083908390602490829085165afa8015610d1457611d94928691612039575b5016159050611d8b565b6120509150843d8611610d4957610d3b8183612586565b3861202f565b5034610199576020366003190112610199576120706124c9565b612078612bb1565b81546001600160a01b0319166001600160a01b039190911617815580f35b5034610199576020366003190112610199576004356120b76103ff826126c3565b80825260066020526120d860408320546001811490811561211c5750612833565b80825260086020526120ef60408320541515612968565b815260066020526007604082205560086020526105e7604082205460005260066020526005604060002055565b600291501438611db6565b50346101995760203660031901126101995760206121466004356126c3565b6040519015158152f35b50346101995760203660031901126101995760406020916004358152600983522054604051908152f35b50346101995760209081600319360112610199576004359061219e6103ff836126c3565b818152600683526121b56001604083205414612833565b81815260088084526121cc60408320541515612968565b8282528084526040808320548352600a85528220541561224657828252835260408120548152600a83526040812054915b610384420190814211612232579160409160029382526009865282822055600a85528382822055600685522055604051908152f35b634e487b7160e01b83526011600452602483fd5b82825280845260408220548310156123c65760018060a01b0390602485836004541693855416604051928380926324d6b3c160e11b82528960048301525afa90811561070b5786908592612397575b506040516122d7936122a68261251d565b428252878383015287875282526040862054604082015260405180948192635a53025d60e01b8352600483016129c6565b038173__$7e0422bcb522121eb2d283265a255f73b6$__5af491821561070b57908692918592612366575b506044906040519485938492635ca0819760e11b8452600484015260248301525afa9081156116d2578291612339575b50916121fd565b90508381813d831161235f575b6123508183612586565b81010312610195575138612332565b503d612346565b8092508391933d8311612390575b61237e8183612586565b81010312610d10575185916044612302565b503d612374565b809250813d83116123bf575b6123ad8183612586565b81010312610d105751856122d7612295565b503d6123a3565b60018060a01b0390602485836004541693855416604051928380926324d6b3c160e11b82528960048301525afa90811561070b5786908592612445575b506040516122d7936124148261251d565b428252878752825260408620548282015286604082015260405180948192635a53025d60e01b8352600483016129c6565b809250813d831161246d575b61245b8183612586565b81010312610d105751856122d7612403565b503d612451565b9050346101955760203660031901126101955760043563ffffffff60e01b81168091036109c15760209250630271189760e51b81149081156124b8575b5015158152f35b6301ffc9a760e01b149050386124b1565b600435906001600160a01b038216820361020f57565b602435906001600160a01b038216820361020f57565b6000915b6065831061250657505050565b6001908251815260208091019201920191906124f9565b6060810190811067ffffffffffffffff82111761120057604052565b67ffffffffffffffff811161120057604052565b610ca0810190811067ffffffffffffffff82111761120057604052565b6040810190811067ffffffffffffffff82111761120057604052565b90601f8019910116810190811067ffffffffffffffff82111761120057604052565b9080601f8301121561020f57604051916125c18361256a565b82906040810192831161020f57905b8282106125dd5750505090565b81358152602091820191016125d0565b9080601f8301121561020f5781359067ffffffffffffffff8211611200578160051b6040519360209361262285840187612586565b8552838086019282010192831161020f578301905b828210612645575050505090565b81358152908301908301612637565b81601f8201121561020f5780359067ffffffffffffffff82116112005760405192612689601f8401601f191660200185612586565b8284526020838301011161020f57816000926020809301838601378301015290565b9081602091031261020f5751801515810361020f5790565b60005460405163430c208160e01b815233600482015260248101839052916001600160a01b03916020908490604490829086165afa92831561274b5760009361272b575b50821561271357505090565b90915060005260016020523390604060002054161490565b61274491935060203d8111610704576106f68183612586565b9138612707565b6040513d6000823e3d90fd5b1561275e57565b60405162461bcd60e51b815260206004820152603560248201527f536b796c616247616d65426173653a2063616c6c6572206973206e6f7420746f6044820152741ad95b881bdddb995c881bdc88185c1c1c9bdd9959605a1b6064820152608490fd5b156127c857565b60405162461bcd60e51b815260206004820152603b60248201527f536b796c616247616d65466c69676874526163653a2063616c6c65722069732060448201527f6e6f7420746f6b656e206f776e6572206f7220617070726f76656400000000006064820152608490fd5b1561283a57565b60405162461bcd60e51b81526020600482015260296024820152600080516020612c3583398151915260448201526867616d65537461746560b81b6064820152608490fd5b80511561288c5760200190565b634e487b7160e01b600052603260045260246000fd5b80516001101561288c5760400190565b9081602091031261020f57516001600160a01b038116810361020f5790565b90815180825260208080930193019160005b8281106128f1575050505090565b8351855293810193928101926001016128e3565b6001600160a01b03918216815291166020820152608060408201819052612942939192612934918401906128d1565b9160608184039101526128d1565b90565b9190820180921161295257565b634e487b7160e01b600052601160045260246000fd5b1561296f57565b60405162461bcd60e51b815260206004820152602960248201527f536b796c616247616d65466c69676874526163653a206e6f206d617463686564604482015268081bdc1c1bdb995b9d60ba1b6064820152608490fd5b6060810192916000915b600383106129dd57505050565b6001908251815260208091019201920191906129d0565b6000915b60028310612a0557505050565b6001908251815260208091019201920191906129f8565b906000905b60028210612a2e57505050565b6020604082612a4060019487516129f4565b01930191019091612a21565b15612a5357565b60405162461bcd60e51b81526020600482015260336024820152600080516020612c358339815191526044820152720eae6cac840e4cae6deeae4c6cae640d0c2e6d606b1b6064820152608490fd5b612ad6612add94612acc61010094989795612ac285610da081019b6129f4565b6040850190612a1c565b60c08301906129f4565b01906124f5565b565b818110612aea575050565b60008155600101612adf565b90604051916040830183811067ffffffffffffffff821117611200576040528252602090818301526040519163014cf2b360e51b8352600483016000905b8360028310612b9d57925050508260448173__$bbc8db8f00746e1281b1f7cb2b3b69d744$__5af490811561274b57600091612b71575b50905090565b82813d8311612b96575b612b858183612586565b810103126101995750518038612b6b565b503d612b7b565b806001928551815201930191019091612b34565b7fc8fcad8db84d3cc18b4c41d551ea0ee66dd599cde068d998e57d5e09332c1320546001600160a01b03163303612be457565b60405162461bcd60e51b815260206004820152602260248201527f4c69624469616d6f6e643a204d75737420626520636f6e7472616374206f776e60448201526132b960f11b6064820152608490fdfe536b796c616247616d65466c69676874526163653a20696e636f727265637420a2646970667358221220890d2f7ef04dc9a8e859afc93ed7db6750396e029260306be3496ad4fa63191e64736f6c63430008130033",
    "linkReferences": {
      "contracts/libraries/poseidon.sol": {
        "PoseidonT3": [
          {
            "start": 11326,
            "length": 20
          }
        ],
        "PoseidonT4": [
          {
            "start": 9170,
            "length": 20
          }
        ]
      }
    }
  },
  "methodIdentifiers": {
    "approveForGame(address,uint256)": "b56befe3",
    "claimTimeoutPenalty(uint256)": "6294f2ec",
    "commitPath(uint256,uint256[2],uint256[2][2],uint256[2],uint256[9])": "81c9a962",
    "committedHash(uint256)": "e1a9888e",
    "gameState(uint256)": "4e0e1a3e",
    "gameTank(uint256)": "55a31b05",
    "getMap(uint256)": "025799f0",
    "getOpponentFinalTime(uint256)": "8af01e5b",
    "getOpponentPath(uint256)": "98420912",
    "getOpponentUsedResources(uint256)": "513858f0",
    "isApprovedForGame(uint256)": "2336f12d",
    "loadFuelBatteryToGameTank(uint256,uint256,uint256)": "785e5199",
    "mapId(uint256)": "653ec4e5",
    "matchedAviationIDs(uint256)": "62cbe431",
    "onERC1155BatchReceived(address,address,uint256[],uint256[],bytes)": "bc197c81",
    "onERC1155Received(address,address,uint256,uint256,bytes)": "f23a6e61",
    "postGameCleanUp(uint256)": "406c845f",
    "refreshAddresses(address,address,address)": "e99100b7",
    "registerMercuryBase(address)": "392a4cd8",
    "retreat(uint256)": "38e1359a",
    "revealPath(uint256,uint256,uint256,uint256[2],uint256[2][2],uint256[2],uint256[101],uint256[2],uint256[2][2],uint256[2],uint256[101])": "bdd84443",
    "searchOpponent(uint256)": "4d3a2716",
    "supportsInterface(bytes4)": "01ffc9a7",
    "timeout(uint256)": "08148f7a",
    "unapproveForGame(uint256)": "7d85924e",
    "withdrawFromQueue(uint256)": "877ff917"
  },
  "id": 13
}