{
  "abi": [
    {
      "inputs": [
        {
          "internalType": "address[]",
          "name": "approvedAccounts",
          "type": "address[]"
        }
      ],
      "stateMutability": "nonpayable",
      "type": "constructor"
    },
    {
      "inputs": [],
      "name": "ERC20Base__ApproveFromZeroAddress",
      "type": "error"
    },
    {
      "inputs": [],
      "name": "ERC20Base__ApproveToZeroAddress",
      "type": "error"
    },
    {
      "inputs": [],
      "name": "ERC20Base__BurnExceedsBalance",
      "type": "error"
    },
    {
      "inputs": [],
      "name": "ERC20Base__BurnFromZeroAddress",
      "type": "error"
    },
    {
      "inputs": [],
      "name": "ERC20Base__InsufficientAllowance",
      "type": "error"
    },
    {
      "inputs": [],
      "name": "ERC20Base__MintToZeroAddress",
      "type": "error"
    },
    {
      "inputs": [],
      "name": "ERC20Base__TransferExceedsBalance",
      "type": "error"
    },
    {
      "inputs": [],
      "name": "ERC20Base__TransferFromZeroAddress",
      "type": "error"
    },
    {
      "inputs": [],
      "name": "ERC20Base__TransferToZeroAddress",
      "type": "error"
    },
    {
      "anonymous": false,
      "inputs": [
        {
          "indexed": true,
          "internalType": "address",
          "name": "owner",
          "type": "address"
        },
        {
          "indexed": true,
          "internalType": "address",
          "name": "spender",
          "type": "address"
        },
        {
          "indexed": false,
          "internalType": "uint256",
          "name": "value",
          "type": "uint256"
        }
      ],
      "name": "Approval",
      "type": "event"
    },
    {
      "anonymous": false,
      "inputs": [
        {
          "indexed": true,
          "internalType": "address",
          "name": "from",
          "type": "address"
        },
        {
          "indexed": true,
          "internalType": "address",
          "name": "to",
          "type": "address"
        },
        {
          "indexed": false,
          "internalType": "uint256",
          "name": "value",
          "type": "uint256"
        }
      ],
      "name": "Transfer",
      "type": "event"
    },
    {
      "inputs": [
        {
          "internalType": "address",
          "name": "account",
          "type": "address"
        },
        {
          "internalType": "uint256",
          "name": "amount",
          "type": "uint256"
        }
      ],
      "name": "__burn",
      "outputs": [],
      "stateMutability": "nonpayable",
      "type": "function"
    },
    {
      "inputs": [
        {
          "internalType": "address",
          "name": "account",
          "type": "address"
        }
      ],
      "name": "__isImplicitlyApproved",
      "outputs": [
        {
          "internalType": "bool",
          "name": "",
          "type": "bool"
        }
      ],
      "stateMutability": "view",
      "type": "function"
    },
    {
      "inputs": [
        {
          "internalType": "address",
          "name": "account",
          "type": "address"
        },
        {
          "internalType": "uint256",
          "name": "amount",
          "type": "uint256"
        }
      ],
      "name": "__mint",
      "outputs": [],
      "stateMutability": "nonpayable",
      "type": "function"
    },
    {
      "inputs": [
        {
          "internalType": "address",
          "name": "holder",
          "type": "address"
        },
        {
          "internalType": "address",
          "name": "spender",
          "type": "address"
        }
      ],
      "name": "allowance",
      "outputs": [
        {
          "internalType": "uint256",
          "name": "",
          "type": "uint256"
        }
      ],
      "stateMutability": "view",
      "type": "function"
    },
    {
      "inputs": [
        {
          "internalType": "address",
          "name": "spender",
          "type": "address"
        },
        {
          "internalType": "uint256",
          "name": "amount",
          "type": "uint256"
        }
      ],
      "name": "approve",
      "outputs": [
        {
          "internalType": "bool",
          "name": "",
          "type": "bool"
        }
      ],
      "stateMutability": "nonpayable",
      "type": "function"
    },
    {
      "inputs": [
        {
          "internalType": "address",
          "name": "account",
          "type": "address"
        }
      ],
      "name": "balanceOf",
      "outputs": [
        {
          "internalType": "uint256",
          "name": "",
          "type": "uint256"
        }
      ],
      "stateMutability": "view",
      "type": "function"
    },
    {
      "inputs": [],
      "name": "totalSupply",
      "outputs": [
        {
          "internalType": "uint256",
          "name": "",
          "type": "uint256"
        }
      ],
      "stateMutability": "view",
      "type": "function"
    },
    {
      "inputs": [
        {
          "internalType": "address",
          "name": "recipient",
          "type": "address"
        },
        {
          "internalType": "uint256",
          "name": "amount",
          "type": "uint256"
        }
      ],
      "name": "transfer",
      "outputs": [
        {
          "internalType": "bool",
          "name": "",
          "type": "bool"
        }
      ],
      "stateMutability": "nonpayable",
      "type": "function"
    },
    {
      "inputs": [
        {
          "internalType": "address",
          "name": "holder",
          "type": "address"
        },
        {
          "internalType": "address",
          "name": "recipient",
          "type": "address"
        },
        {
          "internalType": "uint256",
          "name": "amount",
          "type": "uint256"
        }
      ],
      "name": "transferFrom",
      "outputs": [
        {
          "internalType": "bool",
          "name": "",
          "type": "bool"
        }
      ],
      "stateMutability": "nonpayable",
      "type": "function"
    }
  ],
  "bytecode": {
    "object": "0x6040608081523461012d57610851908138038061001b81610148565b9384398201602090818482031261012d5783516001600160401b039485821161012d57019080601f8301121561012d5781519485116101325760059185831b908480610068818501610148565b80998152019282010192831161012d578401905b82821061010e5750505060005b84518110156101005780821b85018301516001600160a01b031660009081527fe076a236189d11087e6f258f7a69f2a5a83c9b57f620c90fb346111bfd9ecf7e8452849020805460ff1916600117905560001981146100ea57600101610089565b634e487b7160e01b600052601160045260246000fd5b83516106e3908161016e8239f35b81516001600160a01b038116810361012d57815290840190840161007c565b600080fd5b634e487b7160e01b600052604160045260246000fd5b6040519190601f01601f191682016001600160401b038111838210176101325760405256fe604060808152600436101561001357600080fd5b600090813560e01c8063095ea7b31461039057806318160ddd1461035357806323b872dd146103225780633dc8ded71461025357806370a0823114610226578063a9059cbb146101f4578063aa82e017146100eb578063d592f3a7146100b95763dd62ed3e1461008257600080fd5b346100b557806003193601126100b5576020906100ae6100a06103b9565b6100a86103d4565b906105e9565b9051908152f35b5080fd5b50346100b55760203660031901126100b55760209060ff6100e06100db6103b9565b610423565b541690519015158152f35b5090346101f157816003193601126101f1576101056103b9565b602435926001600160a01b039091169081156101e1578183527fc991b2e918acaba8e5721668ed0b1982684e5a8692a621bcd2d7ef326bb015b48060205281842054908186116101d05790859184865260205203818420557fc991b2e918acaba8e5721668ed0b1982684e5a8692a621bcd2d7ef326bb015b68054908582039182116101bc57947fddf252ad1be2c89b69c2b068fc378daa952ba7f163c4a11628f55a4df523b3ef9260209286975551908152a380f35b634e487b7160e01b85526011600452602485fd5b825163b1d35b2360e01b8152600490fd5b516378f1627760e11b8152600490fd5b80fd5b50346100b557806003193601126100b55760209061021d6102136103b9565b6024359033610532565b90519015158152f35b50346100b55760203660031901126100b55760209061024b6102466103b9565b6103ea565b549051908152f35b50346100b557806003193601126100b55761026c6103b9565b6001600160a01b03169060243590821561031257602084927fddf252ad1be2c89b69c2b068fc378daa952ba7f163c4a11628f55a4df523b3ef927fc991b2e918acaba8e5721668ed0b1982684e5a8692a621bcd2d7ef326bb015b66102d283825461050f565b90558585527fc991b2e918acaba8e5721668ed0b1982684e5a8692a621bcd2d7ef326bb015b4835280852061030883825461050f565b905551908152a380f35b5163da007acd60e01b8152600490fd5b50346100b55760603660031901126100b55760209061021d6103426103b9565b61034a6103d4565b60443591610651565b50346100b557816003193601126100b5576020907fc991b2e918acaba8e5721668ed0b1982684e5a8692a621bcd2d7ef326bb015b6549051908152f35b50346100b557806003193601126100b55760209061021d6103af6103b9565b602435903361045c565b600435906001600160a01b03821682036103cf57565b600080fd5b602435906001600160a01b03821682036103cf57565b6001600160a01b031660009081527fc991b2e918acaba8e5721668ed0b1982684e5a8692a621bcd2d7ef326bb015b46020526040902090565b6001600160a01b031660009081527fe076a236189d11087e6f258f7a69f2a5a83c9b57f620c90fb346111bfd9ecf7e6020526040902090565b916001600160a01b038084169283156104fd57169283156104ec576001600160a01b031660009081527fc991b2e918acaba8e5721668ed0b1982684e5a8692a621bcd2d7ef326bb015b5602090815260409091207f8c5be1e5ebec7d5bd14f71427d1e84f3dd0314c0f7b2291e5b200ac8c7c3b925929085600052825280604060002055604051908152a3600190565b6040516262920b60e91b8152600490fd5b604051635a68b7ab60e01b8152600490fd5b9190820180921161051c57565b634e487b7160e01b600052601160045260246000fd5b6001600160a01b0380821692919083156105d75782169384156105c557610558826103ea565b548082116105b3577fddf252ad1be2c89b69c2b068fc378daa952ba7f163c4a11628f55a4df523b3ef936020936105948461059a9403916103ea565b556103ea565b6105a582825461050f565b9055604051908152a3600190565b604051637183160b60e01b8152600490fd5b6040516320a2645160e21b8152600490fd5b6040516368551d5f60e01b8152600490fd5b60ff6105f483610423565b54161561060357505060001990565b6001600160a01b031660009081527fc991b2e918acaba8e5721668ed0b1982684e5a8692a621bcd2d7ef326bb015b5602052604090209060018060a01b031660005260205260406000205490565b919060ff61065e33610423565b5416156106745761066e92610532565b50600190565b61067e33846105e9565b9283831161069c576106968361066e9503338361045c565b50610532565b60405162e14ccf60e11b8152600490fdfea2646970667358221220ecb719bde29ab09b90ea07860eba61a95ba55a6506c28a2b050d353430acccfd64736f6c63430008130033",
    "linkReferences": {}
  },
  "methodIdentifiers": {
    "__burn(address,uint256)": "aa82e017",
    "__isImplicitlyApproved(address)": "d592f3a7",
    "__mint(address,uint256)": "3dc8ded7",
    "allowance(address,address)": "dd62ed3e",
    "approve(address,uint256)": "095ea7b3",
    "balanceOf(address)": "70a08231",
    "totalSupply()": "18160ddd",
    "transfer(address,uint256)": "a9059cbb",
    "transferFrom(address,address,uint256)": "23b872dd"
  },
  "id": 459
}