{
  "abi": [
    {
      "inputs": [
        {
          "internalType": "contract IVotes",
          "name": "_token",
          "type": "address"
        },
        {
          "internalType": "contract TimelockController",
          "name": "_timelock",
          "type": "address"
        }
      ],
      "stateMutability": "nonpayable",
      "type": "constructor"
    },
    {
      "inputs": [],
      "name": "Empty",
      "type": "error"
    },
    {
      "inputs": [],
      "name": "InvalidShortString",
      "type": "error"
    },
    {
      "inputs": [
        {
          "internalType": "string",
          "name": "str",
          "type": "string"
        }
      ],
      "name": "StringTooLong",
      "type": "error"
    },
    {
      "anonymous": false,
      "inputs": [],
      "name": "EIP712DomainChanged",
      "type": "event"
    },
    {
      "anonymous": false,
      "inputs": [
        {
          "indexed": false,
          "internalType": "uint256",
          "name": "proposalId",
          "type": "uint256"
        }
      ],
      "name": "ProposalCanceled",
      "type": "event"
    },
    {
      "anonymous": false,
      "inputs": [
        {
          "indexed": false,
          "internalType": "uint256",
          "name": "proposalId",
          "type": "uint256"
        },
        {
          "indexed": false,
          "internalType": "address",
          "name": "proposer",
          "type": "address"
        },
        {
          "indexed": false,
          "internalType": "address[]",
          "name": "targets",
          "type": "address[]"
        },
        {
          "indexed": false,
          "internalType": "uint256[]",
          "name": "values",
          "type": "uint256[]"
        },
        {
          "indexed": false,
          "internalType": "string[]",
          "name": "signatures",
          "type": "string[]"
        },
        {
          "indexed": false,
          "internalType": "bytes[]",
          "name": "calldatas",
          "type": "bytes[]"
        },
        {
          "indexed": false,
          "internalType": "uint256",
          "name": "voteStart",
          "type": "uint256"
        },
        {
          "indexed": false,
          "internalType": "uint256",
          "name": "voteEnd",
          "type": "uint256"
        },
        {
          "indexed": false,
          "internalType": "string",
          "name": "description",
          "type": "string"
        }
      ],
      "name": "ProposalCreated",
      "type": "event"
    },
    {
      "anonymous": false,
      "inputs": [
        {
          "indexed": false,
          "internalType": "uint256",
          "name": "proposalId",
          "type": "uint256"
        }
      ],
      "name": "ProposalExecuted",
      "type": "event"
    },
    {
      "anonymous": false,
      "inputs": [
        {
          "indexed": false,
          "internalType": "uint256",
          "name": "proposalId",
          "type": "uint256"
        },
        {
          "indexed": false,
          "internalType": "uint256",
          "name": "eta",
          "type": "uint256"
        }
      ],
      "name": "ProposalQueued",
      "type": "event"
    },
    {
      "anonymous": false,
      "inputs": [
        {
          "indexed": false,
          "internalType": "uint256",
          "name": "oldQuorumNumerator",
          "type": "uint256"
        },
        {
          "indexed": false,
          "internalType": "uint256",
          "name": "newQuorumNumerator",
          "type": "uint256"
        }
      ],
      "name": "QuorumNumeratorUpdated",
      "type": "event"
    },
    {
      "anonymous": false,
      "inputs": [
        {
          "indexed": false,
          "internalType": "address",
          "name": "oldTimelock",
          "type": "address"
        },
        {
          "indexed": false,
          "internalType": "address",
          "name": "newTimelock",
          "type": "address"
        }
      ],
      "name": "TimelockChange",
      "type": "event"
    },
    {
      "anonymous": false,
      "inputs": [
        {
          "indexed": true,
          "internalType": "address",
          "name": "voter",
          "type": "address"
        },
        {
          "indexed": false,
          "internalType": "uint256",
          "name": "proposalId",
          "type": "uint256"
        },
        {
          "indexed": false,
          "internalType": "uint8",
          "name": "support",
          "type": "uint8"
        },
        {
          "indexed": false,
          "internalType": "uint256",
          "name": "weight",
          "type": "uint256"
        },
        {
          "indexed": false,
          "internalType": "string",
          "name": "reason",
          "type": "string"
        }
      ],
      "name": "VoteCast",
      "type": "event"
    },
    {
      "anonymous": false,
      "inputs": [
        {
          "indexed": true,
          "internalType": "address",
          "name": "voter",
          "type": "address"
        },
        {
          "indexed": false,
          "internalType": "uint256",
          "name": "proposalId",
          "type": "uint256"
        },
        {
          "indexed": false,
          "internalType": "uint8",
          "name": "support",
          "type": "uint8"
        },
        {
          "indexed": false,
          "internalType": "uint256",
          "name": "weight",
          "type": "uint256"
        },
        {
          "indexed": false,
          "internalType": "string",
          "name": "reason",
          "type": "string"
        },
        {
          "indexed": false,
          "internalType": "bytes",
          "name": "params",
          "type": "bytes"
        }
      ],
      "name": "VoteCastWithParams",
      "type": "event"
    },
    {
      "inputs": [],
      "name": "BALLOT_TYPEHASH",
      "outputs": [
        {
          "internalType": "bytes32",
          "name": "",
          "type": "bytes32"
        }
      ],
      "stateMutability": "view",
      "type": "function"
    },
    {
      "inputs": [],
      "name": "CLOCK_MODE",
      "outputs": [
        {
          "internalType": "string",
          "name": "",
          "type": "string"
        }
      ],
      "stateMutability": "view",
      "type": "function"
    },
    {
      "inputs": [],
      "name": "COUNTING_MODE",
      "outputs": [
        {
          "internalType": "string",
          "name": "",
          "type": "string"
        }
      ],
      "stateMutability": "pure",
      "type": "function"
    },
    {
      "inputs": [],
      "name": "EXTENDED_BALLOT_TYPEHASH",
      "outputs": [
        {
          "internalType": "bytes32",
          "name": "",
          "type": "bytes32"
        }
      ],
      "stateMutability": "view",
      "type": "function"
    },
    {
      "inputs": [
        {
          "internalType": "address[]",
          "name": "targets",
          "type": "address[]"
        },
        {
          "internalType": "uint256[]",
          "name": "values",
          "type": "uint256[]"
        },
        {
          "internalType": "bytes[]",
          "name": "calldatas",
          "type": "bytes[]"
        },
        {
          "internalType": "bytes32",
          "name": "descriptionHash",
          "type": "bytes32"
        }
      ],
      "name": "cancel",
      "outputs": [
        {
          "internalType": "uint256",
          "name": "",
          "type": "uint256"
        }
      ],
      "stateMutability": "nonpayable",
      "type": "function"
    },
    {
      "inputs": [
        {
          "internalType": "uint256",
          "name": "proposalId",
          "type": "uint256"
        },
        {
          "internalType": "uint8",
          "name": "support",
          "type": "uint8"
        }
      ],
      "name": "castVote",
      "outputs": [
        {
          "internalType": "uint256",
          "name": "",
          "type": "uint256"
        }
      ],
      "stateMutability": "nonpayable",
      "type": "function"
    },
    {
      "inputs": [
        {
          "internalType": "uint256",
          "name": "proposalId",
          "type": "uint256"
        },
        {
          "internalType": "uint8",
          "name": "support",
          "type": "uint8"
        },
        {
          "internalType": "uint8",
          "name": "v",
          "type": "uint8"
        },
        {
          "internalType": "bytes32",
          "name": "r",
          "type": "bytes32"
        },
        {
          "internalType": "bytes32",
          "name": "s",
          "type": "bytes32"
        }
      ],
      "name": "castVoteBySig",
      "outputs": [
        {
          "internalType": "uint256",
          "name": "",
          "type": "uint256"
        }
      ],
      "stateMutability": "nonpayable",
      "type": "function"
    },
    {
      "inputs": [
        {
          "internalType": "uint256",
          "name": "proposalId",
          "type": "uint256"
        },
        {
          "internalType": "uint8",
          "name": "support",
          "type": "uint8"
        },
        {
          "internalType": "string",
          "name": "reason",
          "type": "string"
        }
      ],
      "name": "castVoteWithReason",
      "outputs": [
        {
          "internalType": "uint256",
          "name": "",
          "type": "uint256"
        }
      ],
      "stateMutability": "nonpayable",
      "type": "function"
    },
    {
      "inputs": [
        {
          "internalType": "uint256",
          "name": "proposalId",
          "type": "uint256"
        },
        {
          "internalType": "uint8",
          "name": "support",
          "type": "uint8"
        },
        {
          "internalType": "string",
          "name": "reason",
          "type": "string"
        },
        {
          "internalType": "bytes",
          "name": "params",
          "type": "bytes"
        }
      ],
      "name": "castVoteWithReasonAndParams",
      "outputs": [
        {
          "internalType": "uint256",
          "name": "",
          "type": "uint256"
        }
      ],
      "stateMutability": "nonpayable",
      "type": "function"
    },
    {
      "inputs": [
        {
          "internalType": "uint256",
          "name": "proposalId",
          "type": "uint256"
        },
        {
          "internalType": "uint8",
          "name": "support",
          "type": "uint8"
        },
        {
          "internalType": "string",
          "name": "reason",
          "type": "string"
        },
        {
          "internalType": "bytes",
          "name": "params",
          "type": "bytes"
        },
        {
          "internalType": "uint8",
          "name": "v",
          "type": "uint8"
        },
        {
          "internalType": "bytes32",
          "name": "r",
          "type": "bytes32"
        },
        {
          "internalType": "bytes32",
          "name": "s",
          "type": "bytes32"
        }
      ],
      "name": "castVoteWithReasonAndParamsBySig",
      "outputs": [
        {
          "internalType": "uint256",
          "name": "",
          "type": "uint256"
        }
      ],
      "stateMutability": "nonpayable",
      "type": "function"
    },
    {
      "inputs": [],
      "name": "clock",
      "outputs": [
        {
          "internalType": "uint48",
          "name": "",
          "type": "uint48"
        }
      ],
      "stateMutability": "view",
      "type": "function"
    },
    {
      "inputs": [],
      "name": "eip712Domain",
      "outputs": [
        {
          "internalType": "bytes1",
          "name": "fields",
          "type": "bytes1"
        },
        {
          "internalType": "string",
          "name": "name",
          "type": "string"
        },
        {
          "internalType": "string",
          "name": "version",
          "type": "string"
        },
        {
          "internalType": "uint256",
          "name": "chainId",
          "type": "uint256"
        },
        {
          "internalType": "address",
          "name": "verifyingContract",
          "type": "address"
        },
        {
          "internalType": "bytes32",
          "name": "salt",
          "type": "bytes32"
        },
        {
          "internalType": "uint256[]",
          "name": "extensions",
          "type": "uint256[]"
        }
      ],
      "stateMutability": "view",
      "type": "function"
    },
    {
      "inputs": [
        {
          "internalType": "address[]",
          "name": "targets",
          "type": "address[]"
        },
        {
          "internalType": "uint256[]",
          "name": "values",
          "type": "uint256[]"
        },
        {
          "internalType": "bytes[]",
          "name": "calldatas",
          "type": "bytes[]"
        },
        {
          "internalType": "bytes32",
          "name": "descriptionHash",
          "type": "bytes32"
        }
      ],
      "name": "execute",
      "outputs": [
        {
          "internalType": "uint256",
          "name": "",
          "type": "uint256"
        }
      ],
      "stateMutability": "payable",
      "type": "function"
    },
    {
      "inputs": [
        {
          "internalType": "address",
          "name": "account",
          "type": "address"
        },
        {
          "internalType": "uint256",
          "name": "timepoint",
          "type": "uint256"
        }
      ],
      "name": "getVotes",
      "outputs": [
        {
          "internalType": "uint256",
          "name": "",
          "type": "uint256"
        }
      ],
      "stateMutability": "view",
      "type": "function"
    },
    {
      "inputs": [
        {
          "internalType": "address",
          "name": "account",
          "type": "address"
        },
        {
          "internalType": "uint256",
          "name": "timepoint",
          "type": "uint256"
        },
        {
          "internalType": "bytes",
          "name": "params",
          "type": "bytes"
        }
      ],
      "name": "getVotesWithParams",
      "outputs": [
        {
          "internalType": "uint256",
          "name": "",
          "type": "uint256"
        }
      ],
      "stateMutability": "view",
      "type": "function"
    },
    {
      "inputs": [
        {
          "internalType": "uint256",
          "name": "proposalId",
          "type": "uint256"
        },
        {
          "internalType": "address",
          "name": "account",
          "type": "address"
        }
      ],
      "name": "hasVoted",
      "outputs": [
        {
          "internalType": "bool",
          "name": "",
          "type": "bool"
        }
      ],
      "stateMutability": "view",
      "type": "function"
    },
    {
      "inputs": [
        {
          "internalType": "address[]",
          "name": "targets",
          "type": "address[]"
        },
        {
          "internalType": "uint256[]",
          "name": "values",
          "type": "uint256[]"
        },
        {
          "internalType": "bytes[]",
          "name": "calldatas",
          "type": "bytes[]"
        },
        {
          "internalType": "bytes32",
          "name": "descriptionHash",
          "type": "bytes32"
        }
      ],
      "name": "hashProposal",
      "outputs": [
        {
          "internalType": "uint256",
          "name": "",
          "type": "uint256"
        }
      ],
      "stateMutability": "pure",
      "type": "function"
    },
    {
      "inputs": [],
      "name": "name",
      "outputs": [
        {
          "internalType": "string",
          "name": "",
          "type": "string"
        }
      ],
      "stateMutability": "view",
      "type": "function"
    },
    {
      "inputs": [
        {
          "internalType": "address",
          "name": "",
          "type": "address"
        },
        {
          "internalType": "address",
          "name": "",
          "type": "address"
        },
        {
          "internalType": "uint256[]",
          "name": "",
          "type": "uint256[]"
        },
        {
          "internalType": "uint256[]",
          "name": "",
          "type": "uint256[]"
        },
        {
          "internalType": "bytes",
          "name": "",
          "type": "bytes"
        }
      ],
      "name": "onERC1155BatchReceived",
      "outputs": [
        {
          "internalType": "bytes4",
          "name": "",
          "type": "bytes4"
        }
      ],
      "stateMutability": "nonpayable",
      "type": "function"
    },
    {
      "inputs": [
        {
          "internalType": "address",
          "name": "",
          "type": "address"
        },
        {
          "internalType": "address",
          "name": "",
          "type": "address"
        },
        {
          "internalType": "uint256",
          "name": "",
          "type": "uint256"
        },
        {
          "internalType": "uint256",
          "name": "",
          "type": "uint256"
        },
        {
          "internalType": "bytes",
          "name": "",
          "type": "bytes"
        }
      ],
      "name": "onERC1155Received",
      "outputs": [
        {
          "internalType": "bytes4",
          "name": "",
          "type": "bytes4"
        }
      ],
      "stateMutability": "nonpayable",
      "type": "function"
    },
    {
      "inputs": [
        {
          "internalType": "address",
          "name": "",
          "type": "address"
        },
        {
          "internalType": "address",
          "name": "",
          "type": "address"
        },
        {
          "internalType": "uint256",
          "name": "",
          "type": "uint256"
        },
        {
          "internalType": "bytes",
          "name": "",
          "type": "bytes"
        }
      ],
      "name": "onERC721Received",
      "outputs": [
        {
          "internalType": "bytes4",
          "name": "",
          "type": "bytes4"
        }
      ],
      "stateMutability": "nonpayable",
      "type": "function"
    },
    {
      "inputs": [
        {
          "internalType": "uint256",
          "name": "proposalId",
          "type": "uint256"
        }
      ],
      "name": "proposalDeadline",
      "outputs": [
        {
          "internalType": "uint256",
          "name": "",
          "type": "uint256"
        }
      ],
      "stateMutability": "view",
      "type": "function"
    },
    {
      "inputs": [
        {
          "internalType": "uint256",
          "name": "proposalId",
          "type": "uint256"
        }
      ],
      "name": "proposalEta",
      "outputs": [
        {
          "internalType": "uint256",
          "name": "",
          "type": "uint256"
        }
      ],
      "stateMutability": "view",
      "type": "function"
    },
    {
      "inputs": [
        {
          "internalType": "uint256",
          "name": "proposalId",
          "type": "uint256"
        }
      ],
      "name": "proposalProposer",
      "outputs": [
        {
          "internalType": "address",
          "name": "",
          "type": "address"
        }
      ],
      "stateMutability": "view",
      "type": "function"
    },
    {
      "inputs": [
        {
          "internalType": "uint256",
          "name": "proposalId",
          "type": "uint256"
        }
      ],
      "name": "proposalSnapshot",
      "outputs": [
        {
          "internalType": "uint256",
          "name": "",
          "type": "uint256"
        }
      ],
      "stateMutability": "view",
      "type": "function"
    },
    {
      "inputs": [],
      "name": "proposalThreshold",
      "outputs": [
        {
          "internalType": "uint256",
          "name": "",
          "type": "uint256"
        }
      ],
      "stateMutability": "pure",
      "type": "function"
    },
    {
      "inputs": [
        {
          "internalType": "uint256",
          "name": "proposalId",
          "type": "uint256"
        }
      ],
      "name": "proposalVotes",
      "outputs": [
        {
          "internalType": "uint256",
          "name": "againstVotes",
          "type": "uint256"
        },
        {
          "internalType": "uint256",
          "name": "forVotes",
          "type": "uint256"
        },
        {
          "internalType": "uint256",
          "name": "abstainVotes",
          "type": "uint256"
        }
      ],
      "stateMutability": "view",
      "type": "function"
    },
    {
      "inputs": [
        {
          "internalType": "address[]",
          "name": "targets",
          "type": "address[]"
        },
        {
          "internalType": "uint256[]",
          "name": "values",
          "type": "uint256[]"
        },
        {
          "internalType": "bytes[]",
          "name": "calldatas",
          "type": "bytes[]"
        },
        {
          "internalType": "string",
          "name": "description",
          "type": "string"
        }
      ],
      "name": "propose",
      "outputs": [
        {
          "internalType": "uint256",
          "name": "",
          "type": "uint256"
        }
      ],
      "stateMutability": "nonpayable",
      "type": "function"
    },
    {
      "inputs": [
        {
          "internalType": "address[]",
          "name": "targets",
          "type": "address[]"
        },
        {
          "internalType": "uint256[]",
          "name": "values",
          "type": "uint256[]"
        },
        {
          "internalType": "bytes[]",
          "name": "calldatas",
          "type": "bytes[]"
        },
        {
          "internalType": "bytes32",
          "name": "descriptionHash",
          "type": "bytes32"
        }
      ],
      "name": "queue",
      "outputs": [
        {
          "internalType": "uint256",
          "name": "",
          "type": "uint256"
        }
      ],
      "stateMutability": "nonpayable",
      "type": "function"
    },
    {
      "inputs": [
        {
          "internalType": "uint256",
          "name": "blockNumber",
          "type": "uint256"
        }
      ],
      "name": "quorum",
      "outputs": [
        {
          "internalType": "uint256",
          "name": "",
          "type": "uint256"
        }
      ],
      "stateMutability": "view",
      "type": "function"
    },
    {
      "inputs": [],
      "name": "quorumDenominator",
      "outputs": [
        {
          "internalType": "uint256",
          "name": "",
          "type": "uint256"
        }
      ],
      "stateMutability": "view",
      "type": "function"
    },
    {
      "inputs": [
        {
          "internalType": "uint256",
          "name": "timepoint",
          "type": "uint256"
        }
      ],
      "name": "quorumNumerator",
      "outputs": [
        {
          "internalType": "uint256",
          "name": "",
          "type": "uint256"
        }
      ],
      "stateMutability": "view",
      "type": "function"
    },
    {
      "inputs": [],
      "name": "quorumNumerator",
      "outputs": [
        {
          "internalType": "uint256",
          "name": "",
          "type": "uint256"
        }
      ],
      "stateMutability": "view",
      "type": "function"
    },
    {
      "inputs": [
        {
          "internalType": "address",
          "name": "target",
          "type": "address"
        },
        {
          "internalType": "uint256",
          "name": "value",
          "type": "uint256"
        },
        {
          "internalType": "bytes",
          "name": "data",
          "type": "bytes"
        }
      ],
      "name": "relay",
      "outputs": [],
      "stateMutability": "payable",
      "type": "function"
    },
    {
      "inputs": [
        {
          "internalType": "uint256",
          "name": "proposalId",
          "type": "uint256"
        }
      ],
      "name": "state",
      "outputs": [
        {
          "internalType": "enum IGovernor.ProposalState",
          "name": "",
          "type": "uint8"
        }
      ],
      "stateMutability": "view",
      "type": "function"
    },
    {
      "inputs": [
        {
          "internalType": "bytes4",
          "name": "interfaceId",
          "type": "bytes4"
        }
      ],
      "name": "supportsInterface",
      "outputs": [
        {
          "internalType": "bool",
          "name": "",
          "type": "bool"
        }
      ],
      "stateMutability": "view",
      "type": "function"
    },
    {
      "inputs": [],
      "name": "timelock",
      "outputs": [
        {
          "internalType": "address",
          "name": "",
          "type": "address"
        }
      ],
      "stateMutability": "view",
      "type": "function"
    },
    {
      "inputs": [],
      "name": "token",
      "outputs": [
        {
          "internalType": "contract IERC5805",
          "name": "",
          "type": "address"
        }
      ],
      "stateMutability": "view",
      "type": "function"
    },
    {
      "inputs": [
        {
          "internalType": "uint256",
          "name": "newQuorumNumerator",
          "type": "uint256"
        }
      ],
      "name": "updateQuorumNumerator",
      "outputs": [],
      "stateMutability": "nonpayable",
      "type": "function"
    },
    {
      "inputs": [
        {
          "internalType": "contract TimelockController",
          "name": "newTimelock",
          "type": "address"
        }
      ],
      "name": "updateTimelock",
      "outputs": [],
      "stateMutability": "nonpayable",
      "type": "function"
    },
    {
      "inputs": [],
      "name": "version",
      "outputs": [
        {
          "internalType": "string",
          "name": "",
          "type": "string"
        }
      ],
      "stateMutability": "view",
      "type": "function"
    },
    {
      "inputs": [],
      "name": "votingDelay",
      "outputs": [
        {
          "internalType": "uint256",
          "name": "",
          "type": "uint256"
        }
      ],
      "stateMutability": "pure",
      "type": "function"
    },
    {
      "inputs": [],
      "name": "votingPeriod",
      "outputs": [
        {
          "internalType": "uint256",
          "name": "",
          "type": "uint256"
        }
      ],
      "stateMutability": "pure",
      "type": "function"
    },
    {
      "stateMutability": "payable",
      "type": "receive"
    }
  ],
  "bytecode": {
    "object": "0x61018060405234620000b457620000206200001962000154565b90620001c8565b604051613eb9908162000d1182396080518161388d015260a05181613942015260c05181613857015260e051816138dc015261010051816139020152610120518161145e0152610140518161148a0152610160518181816115c401528181611ada01528181611ba701528181611c4901528181611f7b015281816124d1015281816125a80152818161269e0152612c380152f35b600080fd5b634e487b7160e01b600052604160045260246000fd5b604081019081106001600160401b03821117620000eb57604052565b620000b9565b60c081019081106001600160401b03821117620000eb57604052565b601f909101601f19168101906001600160401b03821190821017620000eb57604052565b604051906200014082620000cf565b565b6001600160a01b03811603620000b457565b62004c0a906040823803928382519485926200017182856200010d565b833981010312620000b45760208251926200018c8462000142565b0151916200019a8362000142565b9190565b60405190620001ad82620000cf565b600a8252565b60405190620001c282620000cf565b60018252565b90620002a1906200029b620001dc6200019e565b602081016926bca3b7bb32b93737b960b11b8152620001fa620001b3565b906020820190603160f81b8252620002128462000935565b61012052620002218362000a43565b6101405283519020918260e05251902080610100524660a0526040519060208201927f8b73c3c69bb8fe3d512ecc4cf759cc79239f7b179b0ffacaa9a75d522b39400f8452604083015260608201524660808201523060a082015260a081526200028b81620000f1565b5190206080523060c05262000402565b620004f5565b6001600160a01b03166101605262000140620005a8565b90600182811c92168015620002ea575b6020831014620002d457565b634e487b7160e01b600052602260045260246000fd5b91607f1691620002c8565b601f811162000302575050565b6000906002825260208220906020601f850160051c8301941062000343575b601f0160051c01915b8281106200033757505050565b8181556001016200032a565b909250829062000321565b601f81116200035b575050565b60009081805260208220906020601f850160051c830194106200039b575b601f0160051c01915b8281106200038f57505050565b81815560010162000382565b909250829062000379565b90601f8211620003b4575050565b60019160009083825260208220906020601f850160051c83019410620003f7575b601f0160051c01915b828110620003ec5750505050565b8181558301620003de565b9092508290620003d5565b80519091906001600160401b038111620000eb576200042e8162000428600254620002b8565b620002f5565b602080601f83116001146200046d575081929360009262000461575b50508160011b916000199060031b1c191617600255565b0151905038806200044a565b6002600052601f198316949091907f405787fa12a823e0f2b7631cc41b3ba8828b3321ca811111fa75cd3aa3bb5ace926000905b878210620004dc575050836001959610620004c2575b505050811b01600255565b015160001960f88460031b161c19169055388080620004b7565b80600185968294968601518155019501930190620004a1565b6006547f08f74ea46ef7894f65eabfb5e6e695de773a000b47c529ab559178069b226401604060018060a01b038094169381519084168152846020820152a16001600160a01b03191617600655565b60095468010000000000000000811015620000eb576001810180600955811015620005925760096000526020600020019063ffffffff81511690602063ffffffff1991015160201b16179055565b634e487b7160e01b600052603260045260246000fd5b6009548015906000908215620006795750506200062c60008051602062004bea83398151915291600854905b811515908162000670575b5062000631575b620006136200060d62000607620005fc620006d2565b65ffffffffffff1690565b62000caa565b62000810565b5050604080519182526004602083015290918291820190565b0390a1565b6200066a620006408262000bd8565b620006646200064e62000131565b600081526001600160e01b039092166020830152565b62000544565b620005e6565b905038620005df565b600019918183810111620006be57600990520160008051602062004bca833981519152015460008051602062004bea833981519152916200062c9160201c90620005d4565b634e487b7160e01b81526011600452602490fd5b610160516040516324776b7d60e21b815290602090829060049082906001600160a01b03165afa80916000916200071a575b5090620007175750620007174362000c42565b90565b6020813d82116200075f575b8162000735602093836200010d565b810103126200075b57519065ffffffffffff821682036200075857503862000704565b80fd5b5080fd5b3d915062000726565b6000198101919082116200077857565b634e487b7160e01b600052601160045260246000fd5b604080519192919081016001600160401b03811182821017620000eb57604052602081935463ffffffff81168352811c910152565b15620007cb57565b60405162461bcd60e51b815260206004820152601b60248201527f436865636b706f696e743a2064656372656173696e67206b65797300000000006044820152606490fd5b60095480156200090c57620008d49181620008546200084e6200083560209562000768565b600960005260008051602062004bca8339815191520190565b6200078e565b9162000864835163ffffffff1690565b6200087d63ffffffff91828416928391161115620007c3565b6200089962000890855163ffffffff1690565b63ffffffff1690565b03620008da5750620008b362000835620008c69262000768565b64040000000063ffffffff825416179055565b01516001600160e01b031690565b90600490565b620009069150620008fa620008ee62000131565b63ffffffff9092168252565b60048185015262000544565b620008c6565b506200092d9062000920620008ee62000131565b6004602082015262000544565b600090600490565b9081516020908181106000146200095457505090620007179062000b5b565b6001600160401b038111620000eb576000916200097d82620009778554620002b8565b6200034e565b80601f8311600114620009bc5750829394829392620009b0575b50508160011b916000199060031b1c191617905560ff90565b01519050388062000997565b60008052601f198316957f290decd9548b62a8d60345a988386fc84ba6bc95484008f6362f93160ef3e563929185905b88821062000a2a5750508360019596971062000a10575b505050811b01905560ff90565b015160001960f88460031b161c1916905538808062000a03565b80600185968294968601518155019501930190620009ec565b90815160209081811060001462000a6257505090620007179062000b5b565b6001600160401b038111620000eb5760019162000a8b8262000a858554620002b8565b620003a6565b80601f831160011462000aca57508192939460009262000abe575b5050600019600383901b1c191690821b17905560ff90565b01519050388062000aa6565b6001600052601f198316959091907fb10e2d527612073b26eecdfd717e6a320cf44b4afac2b0732d9fcbe2b7fa0cf6926000905b88821062000b1f575050838596971062000a1057505050811b01905560ff90565b80878596829496860151815501950193019062000afe565b60208151910151906020811062000b4c575090565b6000199060200360031b1b1690565b601f81511162000b765762000b708162000b37565b90511790565b6040519063305a27a960e01b82528160208060048301528251908160248401526000935b82851062000bbe575050604492506000838284010152601f80199101168101030190fd5b848101820151868601604401529381019385935062000b9a565b6001600160e01b039081811162000bed571690565b60405162461bcd60e51b815260206004820152602760248201527f53616665436173743a2076616c756520646f65736e27742066697420696e20326044820152663234206269747360c81b6064820152608490fd5b65ffffffffffff9081811162000c56571690565b60405162461bcd60e51b815260206004820152602660248201527f53616665436173743a2076616c756520646f65736e27742066697420696e203460448201526538206269747360d01b6064820152608490fd5b63ffffffff9081811162000cbc571690565b60405162461bcd60e51b815260206004820152602660248201527f53616665436173743a2076616c756520646f65736e27742066697420696e203360448201526532206269747360d01b6064820152608490fdfe60806040526004361015610023575b361561001957600080fd5b610021611c78565b005b60003560e01c806301ffc9a7146102d357806302a251a3146102ce57806303420181146102c957806306f3f9e6146102c457806306fdde03146102bf578063143489d0146102ba578063150b7a02146102b5578063160cbed7146102b05780632656227d146102ab5780632d63f693146102a65780632fe3e261146102a15780633932abb11461029c5780633bccf4fd146102975780633e4f49e614610292578063438596321461028d578063452115d6146102885780634bf5d7e914610283578063544ffc9c1461027e57806354fd4d501461027957806356781388146102745780635f398a141461026f57806360c4247f1461026a5780637b3c71d3146102655780637d5e81e21461026057806384b0196e1461025b57806391ddadf41461025657806397c3d334146102515780639a802a6d1461024c578063a7713a7014610247578063a890c91014610242578063ab58fb8e1461023d578063b58131b014610238578063bc197c8114610233578063c01f9e371461022e578063c28bc2fa14610229578063c59057e414610224578063d33219b41461021f578063dd4e2ba51461021a578063deaaa7cc14610215578063eb9019d414610210578063f23a6e611461020b578063f8ce560a146102065763fc0c546a0361000e57611c33565b611b77565b611b1e565b611a7e565b611a43565b6119e5565b6119bc565b6119a0565b61187f565b611847565b6117bb565b611797565b6116ee565b611642565b611627565b611556565b61153a565b61150f565b611445565b611378565b611323565b611305565b611296565b611246565b611204565b6111c1565b611191565b6110da565b611081565b611052565b610f85565b610f69565b610f2e565b610ef9565b610d5c565b610b72565b61095a565b610912565b610831565b610643565b6105bb565b6103a8565b346103985760203660031901126103985760043563ffffffff60e01b81168091036103985761032190636e665ced60e01b8114908115610325575b5060405190151581529081906020820190565b0390f35b63bf26d89760e01b811491508115610387575b8115610376575b8115610365575b8115610354575b503861030e565b6301ffc9a760e01b1490503861034d565b630271189760e51b81149150610346565b63288ace0360e11b8114915061033f565b6379dd796f60e01b81149150610338565b600080fd5b600091031261039857565b3461039857600036600319011261039857602060405161b2fa8152f35b6024359060ff8216820361039857565b6044359060ff8216820361039857565b9181601f84011215610398578235916001600160401b038311610398576020838186019501011161039857565b634e487b7160e01b600052604160045260246000fd5b6001600160401b03811161043b57604052565b610412565b604081019081106001600160401b0382111761043b57604052565b608081019081106001600160401b0382111761043b57604052565b602081019081106001600160401b0382111761043b57604052565b606081019081106001600160401b0382111761043b57604052565b60c081019081106001600160401b0382111761043b57604052565b90601f801991011681019081106001600160401b0382111761043b57604052565b604051906104f582610440565b565b6040519060e082018281106001600160401b0382111761043b57604052565b6001600160401b03811161043b57601f01601f191660200190565b91909161053d81610516565b61054a60405191826104c7565b8093828252821161039857818160009384602080950137010152565b92919261057282610516565b9161058060405193846104c7565b829481845281830111610398578281602093846000960137010152565b9080601f83011215610398578160206105b893359101610566565b90565b346103985760e0366003190112610398576105d46103c5565b6001600160401b03604435818111610398576105f49036906004016103e5565b916064359081116103985761060d90369060040161059d565b9260843560ff8116810361039857610321946106339460c4359460a43594600435611fc7565b6040519081529081906020820190565b3461039857602036600319011261039857600654600435906001600160a01b031661066f338214612213565b30036107b2575b6064811161073b577f0553476bf02ef2726e8ce5ced78d63e26e602e4a2257b1f559418e24b4633997906106a86126d2565b80151580610731575b6106fa575b6106e66106d76106d26106c76124bc565b65ffffffffffff1690565b613da1565b6106e084613c69565b90613582565b5050604080519182526020820192909252a1005b61072c61070682613c69565b6107276107116104e8565b600081526001600160e01b039092166020830152565b612908565b6106b6565b50600954156106b1565b60405162461bcd60e51b815260206004820152604360248201527f476f7665726e6f72566f74657351756f72756d4672616374696f6e3a2071756f60448201527f72756d4e756d657261746f72206f7665722071756f72756d44656e6f6d696e616064820152623a37b960e91b608482015260a490fd5b6107bc3636610531565b602081519101205b806107cd613e06565b036107c45750610676565b60005b8381106107eb5750506000910152565b81810151838201526020016107db565b90602091610814815180928185528580860191016107d8565b601f01601f1916010190565b9060206105b89281815201906107fb565b346103985760008060031936011261090f57604051908060025461085481611cd1565b808552916001918083169081156108e5575060011461088a575b6103218561087e818703826104c7565b60405191829182610820565b9250600283527f405787fa12a823e0f2b7631cc41b3ba8828b3321ca811111fa75cd3aa3bb5ace5b8284106108cd57505050810160200161087e8261032161086e565b805460208587018101919091529093019281016108b2565b8695506103219693506020925061087e94915060ff191682840152151560051b820101929361086e565b80fd5b34610398576020366003190112610398576004356000526003602052602060018060a01b0360406000205460401c16604051908152f35b6001600160a01b0381160361039857565b3461039857608036600319011261039857610976600435610949565b610981602435610949565b6064356001600160401b038111610398576109a090369060040161059d565b50604051630a85bd0160e11b8152602090f35b6001600160401b03811161043b5760051b60200190565b81601f82011215610398578035916109e1836109b3565b926109ef60405194856104c7565b808452602092838086019260051b820101928311610398578301905b828210610a19575050505090565b8380918335610a2781610949565b815201910190610a0b565b81601f8201121561039857803591610a49836109b3565b92610a5760405194856104c7565b808452602092838086019260051b820101928311610398578301905b828210610a81575050505090565b81358152908301908301610a73565b9080601f8301121561039857813590610aa8826109b3565b92610ab660405194856104c7565b828452602092838086019160051b8301019280841161039857848301915b848310610ae45750505050505090565b82356001600160401b038111610398578691610b058484809489010161059d565b815201920191610ad4565b6080600319820112610398576001600160401b03916004358381116103985782610b3c916004016109ca565b926024358181116103985783610b5491600401610a32565b9260443591821161039857610b6b91600401610a90565b9060643590565b3461039857610b8036610b10565b92610b9084838584969596611da4565b92610bae6004610b9f8661299a565b610ba881611048565b14611e08565b600654610bcb906001600160a01b03165b6001600160a01b031690565b60405163793d064960e11b815293906020908186600481845afa958615610d0b57600096610d3d575b5081604051809263b1c5f42760e01b82528180610c178d8a8a8d60048601612428565b03915afa918215610d0b57600092610d10575b5050610c40866000526007602052604060002090565b55600654610c56906001600160a01b0316610bbf565b90813b156103985760008094610c83876040519a8b97889687956308f2a0bb60e41b87526004870161246e565b03925af1928315610d0b57610cc77f9a2e42fd6722813d69113e7d0079d3d940171428df7373df9c7f7617cfda289292610cdf9261032196610cf2575b50426122d8565b60408051858152602081019290925290918291820190565b0390a16040519081529081906020820190565b80610cff610d0592610428565b8061039d565b38610cc0565b61241c565b610d2f9250803d10610d36575b610d2781836104c7565b81019061240d565b3880610c2a565b503d610d1d565b610d55919650823d8411610d3657610d2781836104c7565b9438610bf4565b610d6536610b10565b610d73818385879597611da4565b92610d7d8461299a565b926008841015610ef457610d9e600494858114908115610ee0575b50611e08565b610dc56002610db7876000526003602052604060002090565b01805460ff19166001179055565b6040938451908682527f712ae1383f79ac853f8d882153778e0260ef8f03b504e2866e0593e04d2b291f60208093a16006546001600160a01b039081163003610e31575b50505094610e1b9291610321966132fa565b610e23611f09565b519081529081906020820190565b9092979591949396600094855b8a51811015610ec457808988828b8f89610e5c610e6d983093611ef0565b511614610e72575b50505050611ecb565b610e3e565b610e81600192610ebb95611ef0565b5181815191012060058c5460801d92600f9584870b9052528a8d205501900b6001600160801b036004549181199060801b16911617600455565b8988828b610e64565b509450969195925050610e1b9350610321969196819394610e09565b60059150610eed81611048565b1438610d98565b611032565b3461039857602036600319011261039857600435600052600360205260206001600160401b0360406000205416604051908152f35b346103985760003660031901126103985760206040517fb3b3f3b703cd84ce352197dcff232b1b5d3cfb2025ce47cf04742d0651f1af888152f35b3461039857600036600319011261039857602060405160018152f35b346103985760a036600319011261039857610321610633600435610fa76103c5565b61101c611014610fb56103d5565b60405160208101917f150214d74d59b7d1e90c73fc22ef3d991dd0a76b046543d4d80ab92d2a50328f835286604083015260ff8616606083015260608252610ffc8261045b565b61100f608435936064359351902061382e565b6137b2565b919091613692565b6040519261102984610476565b60008452612062565b634e487b7160e01b600052602160045260246000fd5b60081115610ef457565b346103985760203660031901126103985761106e60043561299a565b6040516008821015610ef4576020918152f35b3461039857604036600319011261039857602060ff6110ce6024356110a581610949565b600435600052600a845260036040600020019060018060a01b0316600052602052604060002090565b54166040519015158152f35b34610398576110e836610b10565b906110f582828587611da4565b926110ff8461299a565b6008811015610ef45761114c5761032194611147611140610bbf611130610633986000526003602052604060002090565b5460401c6001600160a01b031690565b3314611e5e565b61334e565b60405162461bcd60e51b815260206004820152601c60248201527f476f7665726e6f723a20746f6f206c61746520746f2063616e63656c000000006044820152606490fd5b34610398576000366003190112610398576103216111ad612592565b6040519182916020835260208301906107fb565b3461039857602036600319011261039857600435600052600a60205260606040600020805490600260018201549101549060405192835260208301526040820152f35b346103985760003660031901126103985761032160405161122481610440565b60018152603160f81b60208201526040519182916020835260208301906107fb565b3461039857604036600319011261039857602061128e6112646103c5565b60405161127081610476565b600081526040519161128183610476565b60008352336004356120de565b604051908152f35b34610398576080366003190112610398576112af6103c5565b6001600160401b0390604435828111610398576112d09036906004016103e5565b9091606435938411610398576112fb61128e936112f3602096369060040161059d565b933691610566565b90336004356120de565b3461039857602036600319011261039857602061128e60043561276d565b346103985760603660031901126103985761133c6103c5565b6044356001600160401b0381116103985760209161136b61136461128e9336906004016103e5565b3691610566565b6040519161128183610476565b34610398576080366003190112610398576001600160401b03600435818111610398576113a99036906004016109ca565b90602435818111610398576113c2903690600401610a32565b91604435828111610398576113db903690600401610a90565b6064359283116103985736602384011215610398576103219361140b610633943690602481600401359101610566565b92613033565b90815180825260208080930193019160005b828110611431575050505090565b835185529381019392810192600101611423565b34610398576000366003190112610398576114e06114827f0000000000000000000000000000000000000000000000000000000000000000613968565b6103216114ae7f0000000000000000000000000000000000000000000000000000000000000000613a5f565b6114ee604051916114be83610476565b60008352604051958695600f60f81b875260e0602088015260e08701906107fb565b9085820360408701526107fb565b90466060850152306080850152600060a085015283820360c0850152611411565b3461039857600036600319011261039857602061152a6124bc565b65ffffffffffff60405191168152f35b3461039857600036600319011261039857602060405160648152f35b346103985760603660031901126103985760043561157381610949565b6044356001600160401b03811161039857604491611597602092369060040161059d565b50604051630748d63560e31b81526001600160a01b039182166004820152602480359082015292839182907f0000000000000000000000000000000000000000000000000000000000000000165afa8015610d0b5761032191600091611609575b506040519081529081906020820190565b611621915060203d8111610d3657610d2781836104c7565b386115f8565b3461039857600036600319011261039857602061128e6126d2565b346103985760203660031901126103985760043561165f81610949565b6006546001600160a01b0391908216611679338214612213565b30036116c8575b7f08f74ea46ef7894f65eabfb5e6e695de773a000b47c529ab559178069b22640160408360065493169381519084168152846020820152a16001600160a01b03191617600655005b6116d23636610531565b602081519101205b806116e3613e06565b036116da5750611680565b3461039857602036600319011261039857611747602060018060a01b03600654166117256004356000526007602052604060002090565b5490604051808095819463d45c443560e01b8352600483019190602083019252565b03915afa908115610d0b57600091611779575b5060018103611770575060405160008152602090f35b61032190610633565b611791915060203d8111610d3657610d2781836104c7565b3861175a565b34610398576000366003190112610398576020604051683635c9adc5dea000008152f35b346103985760a0366003190112610398576117d7600435610949565b6117e2602435610949565b6001600160401b0360443581811161039857611802903690600401610a32565b506064358181116103985761181b903690600401610a32565b506084359081116103985761183490369060040161059d565b5060405163bc197c8160e01b8152602090f35b3461039857602036600319011261039857600435600052600360205260206001600160401b0360016040600020015416604051908152f35b60603660031901126103985760043561189781610949565b6044356001600160401b038111610398576118b69036906004016103e5565b600654909291906001600160a01b03166118d1338214612213565b300361197a575b61196f91836040519485938437820190600094859383858095520391602435905af13d15611973573d61190a81610516565b9061191860405192836104c7565b81523d84602083013e5b6040519161192f83610491565b602883527f476f7665726e6f723a2072656c617920726576657274656420776974686f7574602084015267206d65737361676560c01b60408401526134f6565b5080f35b6060611922565b6119843636610531565b602081519101205b80611995613e06565b0361198c57506118d8565b3461039857602061128e6119b336610b10565b92919091611da4565b34610398576000366003190112610398576006546040516001600160a01b039091168152602090f35b3461039857600036600319011261039857610321604051611a0581610440565b602081527f737570706f72743d627261766f2671756f72756d3d666f722c6162737461696e60208201526040519182916020835260208301906107fb565b346103985760003660031901126103985760206040517f150214d74d59b7d1e90c73fc22ef3d991dd0a76b046543d4d80ab92d2a50328f8152f35b346103985760403660031901126103985760446020600435611a9f81610949565b6000604051611aad81610476565b52604051630748d63560e31b81526001600160a01b039182166004820152602480359082015292839182907f0000000000000000000000000000000000000000000000000000000000000000165afa8015610d0b576103219160009161160957506040519081529081906020820190565b346103985760a036600319011261039857611b3a600435610949565b611b45602435610949565b6084356001600160401b03811161039857611b6490369060040161059d565b5060405163f23a6e6160e01b8152602090f35b3461039857602036600319011261039857604051632394e7a360e21b8152600480359082018190526020826024817f00000000000000000000000000000000000000000000000000000000000000006001600160a01b03165afa918215610d0b57600092611c0f575b50611bea9061276d565b90818102918183041490151715611c0a5760405160649091048152602090f35b611eb5565b611bea919250611c2c9060203d8111610d3657610d2781836104c7565b9190611be0565b34610398576000366003190112610398576040517f00000000000000000000000000000000000000000000000000000000000000006001600160a01b03168152602090f35b6006546001600160a01b03163003611c8c57565b60405162461bcd60e51b815260206004820152601f60248201527f476f7665726e6f723a206d7573742073656e6420746f206578656375746f72006044820152606490fd5b90600182811c92168015611d01575b6020831014611ceb57565b634e487b7160e01b600052602260045260246000fd5b91607f1691611ce0565b90815180825260208080930193019160005b828110611d2b575050505090565b83516001600160a01b031685529381019392810192600101611d1d565b908082519081815260208091019281808460051b8301019501936000915b848310611d765750505050505090565b9091929394958480611d94600193601f198682030187528a516107fb565b9801930193019194939290611d66565b9290611df092611e0292604051948592611de0611dcd602086019960808b5260a0870190611d0b565b601f199687878303016040880152611411565b9085858303016060860152611d48565b906080830152039081018352826104c7565b51902090565b15611e0f57565b60405162461bcd60e51b815260206004820152602160248201527f476f7665726e6f723a2070726f706f73616c206e6f74207375636365737366756044820152601b60fa1b6064820152608490fd5b15611e6557565b60405162461bcd60e51b815260206004820152602260248201527f476f7665726e6f723a206f6e6c792070726f706f7365722063616e2063616e63604482015261195b60f21b6064820152608490fd5b634e487b7160e01b600052601160045260246000fd5b6000198114611c0a5760010190565b634e487b7160e01b600052603260045260246000fd5b8051821015611f045760209160051b010190565b611eda565b6006546001600160a01b03163003611f1d57565b60045480600f0b9060801d600f0b13611f3257565b6000600455565b906020906000604051611f4b81610476565b52604051630748d63560e31b81526001600160a01b039384166004820152602481019190915291829060449082907f0000000000000000000000000000000000000000000000000000000000000000165afa908115610d0b57600091611faf575090565b6105b8915060203d8111610d3657610d2781836104c7565b94926120546105b89861205c949396986113649661100f8a8a8d611fec368a8c610566565b6020815191012090602081519101209060ff6040519360208501957fb3b3f3b703cd84ce352197dcff232b1b5d3cfb2025ce47cf04742d0651f1af8887526040860152166060840152608083015260a082015260a0815261204c816104ac565b51902061382e565b949094613692565b926120de565b916105b893916040519361207585610476565b600085526120de565b93909260ff6120aa936105b897958752166020860152604085015260a0606085015260a08401906107fb565b9160808184039101526107fb565b909260ff6080936105b896958452166020830152604082015281606082015201906107fb565b929190836000526003602052604060002060016120fa8661299a565b61210381611048565b036121c25761212b61211f61213192546001600160401b031690565b6001600160401b031690565b8261266d565b9461213e868484886122e5565b805161218657506121807fb8e138887d0aa13bab447e82de9d5c1777041ecd21ca36ba824ff1e6c07ddda4938660405194859460018060a01b031697856120b8565b0390a290565b612180907fe2babfbac5889a709b63bb7f598b324e08bc5a4fb9ec647fb3cbc9ec07eb8712948760405195869560018060a01b0316988661207e565b60405162461bcd60e51b815260206004820152602360248201527f476f7665726e6f723a20766f7465206e6f742063757272656e746c792061637460448201526269766560e81b6064820152608490fd5b1561221a57565b60405162461bcd60e51b815260206004820152601860248201527f476f7665726e6f723a206f6e6c79476f7665726e616e636500000000000000006044820152606490fd5b1561226657565b60405162461bcd60e51b815260206004820152602760248201527f476f7665726e6f72566f74696e6753696d706c653a20766f746520616c726561604482015266191e4818d85cdd60ca1b6064820152608490fd5b9060018201809211611c0a57565b9061b2fa8201809211611c0a57565b91908201809211611c0a57565b9161236161235461230360ff9495600052600a602052604060002090565b946003860161233d61233861233461232d85859060018060a01b0316600052602052604060002090565b5460ff1690565b1590565b61225f565b9060018060a01b0316600052602052604060002090565b805460ff19166001179055565b16806123785750906123749082546122d8565b9055565b600181036123905750600161237491019182546122d8565b6002036123a657600261237491019182546122d8565b60405162461bcd60e51b815260206004820152603560248201527f476f7665726e6f72566f74696e6753696d706c653a20696e76616c69642076616044820152746c756520666f7220656e756d20566f74655479706560581b6064820152608490fd5b0390fd5b90816020910312610398575190565b6040513d6000823e3d90fd5b9493926124546080936124466124629460a08a5260a08a0190611d0b565b9088820360208a0152611411565b908682036040880152611d48565b93600060608201520152565b919261249d60a09461248f6124ab949998979960c0875260c0870190611d0b565b908582036020870152611411565b908382036040850152611d48565b946000606083015260808201520152565b6040516324776b7d60e21b81526020816004817f00000000000000000000000000000000000000000000000000000000000000006001600160a01b03165afa8091600091612515575b50906105b857506105b843613d3a565b6020813d8211612551575b8161252d602093836104c7565b8101031261254d57519065ffffffffffff8216820361090f575038612505565b5080fd5b3d9150612520565b6040519061256682610440565b601d82527f6d6f64653d626c6f636b6e756d6265722666726f6d3d64656661756c740000006020830152565b604051634bf5d7e960e01b8152600080826004817f00000000000000000000000000000000000000000000000000000000000000006001600160a01b03165afa909182826125ea575b50506105b857506105b8612559565b909192503d8082843e6125fd81846104c7565b82019160208184031261254d578051906001600160401b038211612669570182601f8201121561254d5780519161263383610516565b9361264160405195866104c7565b8385526020848401011161090f57509061266191602080850191016107d8565b9038806125db565b8280fd5b604051630748d63560e31b81526001600160a01b0391821660048201526024810192909252602090829060449082907f0000000000000000000000000000000000000000000000000000000000000000165afa908115610d0b57600091611faf575090565b600954600090806126e557505060085490565b80600019810111611c0a5760097f6e1540171b6c0c960b71a7020d9f60077f6af931a8bbf590da0223dacf75c7ae9252015460201c90565b600019810191908211611c0a57565b602719810191908211611c0a57565b90604051604081018181106001600160401b0382111761043b57604052602081935463ffffffff81168352811c910152565b600990815480156128ff576000198101818111611c0a57811115611f04576000928084526127bc7f6e1540171b6c0c960b71a7020d9f60077f6af931a8bbf590da0223dacf75c7ae830161273b565b9263ffffffff93818582511611156128e957506127d890613da1565b92848360058111612899575b5092939192918116905b8483106128455750505050801560001461281057505b6001600160e01b031690565b61284091506128216128399161271d565b6009600052600080516020613e648339815191520190565b5460201c90565b612804565b909192938084169080851860011c8201809211611c0a57858752838383600080516020613e64833981519152015416116000146128875750935b9291906127ee565b949350612893906122bb565b9261287f565b90936128a482613b17565b8203918211611c0a57838752600080516020613e64833981519152820154831686841610156128d857508190935b906127e4565b93506128e482916122bb565b6128d2565b602001516001600160e01b031695945050505050565b50505060085490565b600954906801000000000000000082101561043b576001820180600955821015611f04576009600052805160209182015190911b63ffffffff191663ffffffff9190911617600080516020613e6483398151915290910155565b811561296c570490565b634e487b7160e01b600052601260045260246000fd5b90816020910312610398575180151581036103985790565b6129a381612ab7565b906129ad82611048565b60048203612ab3576129c9906000526007602052604060002090565b54806129d3575090565b6006549091506129eb906001600160a01b0316610bbf565b604051632ab0f52960e01b81526004810183905260209291908381602481855afa908115610d0b57600091612a96575b5015612a2957505050600790565b604051632c258a9f60e11b815260048101929092528290829060249082905afa918215610d0b57600092612a69575b505015612a6457600590565b600290565b612a889250803d10612a8f575b612a8081836104c7565b810190612982565b3880612a58565b503d612a76565b612aad9150843d8611612a8f57612a8081836104c7565b38612a1b565b5090565b6002612acd826000526003602052604060002090565b015460ff8116612bec5760081c60ff16612be657612b0861211f612afb836000526003602052604060002090565b546001600160401b031690565b8015612ba157612b196106c76124bc565b80911015612b9a57612b4b61211f6001612b3d856000526003602052604060002090565b01546001600160401b031690565b1015612b9457612b5a81612bf3565b9081612b71575b5015612b6c57600490565b600390565b612b8e9150600052600a6020526040600020600181015490541090565b38612b61565b50600190565b5050600090565b60405162461bcd60e51b815260206004820152601d60248201527f476f7665726e6f723a20756e6b6e6f776e2070726f706f73616c2069640000006044820152606490fd5b50600290565b5050600790565b600052600a602052604060002060036020526001600160401b03604060002054169060405191632394e7a360e21b835280600484015260208360248160018060a01b037f0000000000000000000000000000000000000000000000000000000000000000165afa928315610d0b57600093612ca1575b50612c739061276d565b91828102928184041490151715611c0a57612c9a81600260016064940154910154906122d8565b9104111590565b612c73919350612cbe9060203d8111610d3657610d2781836104c7565b9290612c69565b15612ccc57565b60405162461bcd60e51b815260206004820152601d60248201527f476f7665726e6f723a2070726f706f73657220726573747269637465640000006044820152606490fd5b15612d1857565b60405162461bcd60e51b815260206004820152603160248201527f476f7665726e6f723a2070726f706f73657220766f7465732062656c6f7720706044820152701c9bdc1bdcd85b081d1a1c995cda1bdb19607a1b6064820152608490fd5b15612d7e57565b60405162461bcd60e51b815260206004820152602160248201527f476f7665726e6f723a20696e76616c69642070726f706f73616c206c656e67746044820152600d60fb1b6064820152608490fd5b15612dd457565b60405162461bcd60e51b815260206004820152601860248201527f476f7665726e6f723a20656d7074792070726f706f73616c00000000000000006044820152606490fd5b15612e2057565b60405162461bcd60e51b815260206004820152602160248201527f476f7665726e6f723a2070726f706f73616c20616c72656164792065786973746044820152607360f81b6064820152608490fd5b815160208301516040808501516001600160401b039384169290911b68010000000000000000600160e01b0316919091176001600160e01b03199091161782556060830151608084015167ffffffffffffffff191691161760018201556104f59190612f059060c09060020192612efe612eec60a0830151151590565b859060ff801983541691151516179055565b0151151590565b815461ff00191690151560081b61ff0016179055565b90612f25826109b3565b612f3260405191826104c7565b8281528092612f43601f19916109b3565b019060005b828110612f5457505050565b806060602080938501015201612f48565b9592612f9890612fa6939b9a9899969592885260209b60018060a01b03168c8901526101208060408a0152880190611d0b565b908682036060880152611411565b9784890360808601528251808a52818a019180808360051b8d01019501926000905b8382106130055750505050506105b896975090612fec9184820360a0860152611d48565b9360c083015260e08201526101008184039101526107fb565b909192939583806130248f93600194601f199082030186528a516107fb565b98019201920190939291612fc8565b6131a67f7d84a6263ae0d98d3329bd7b46bb4e8d6f98cd35a7adb45c274c8b7fd5ebd5e0939461306b61306682336131bd565b612cc5565b6130766106c76124bc565b9561309d683635c9adc5dea000006130966130908a61271d565b33611f39565b1015612d11565b6131076130b283516020850120838888611da4565b976130c08651885114612d77565b6130cd8651845114612d77565b6130d986511515612dcd565b6131026001600160401b036130fb612afb8c6000526003602052604060002090565b1615612e19565b6122bb565b613110816122c9565b9161318e61311d83613cd2565b61316061312986613cd2565b6131436131346104f7565b6001600160401b039094168452565b336020840152600060408401526001600160401b03166060830152565b60006080820152600060a0820152600060c08201526131898b6000526003602052604060002090565b612e6f565b6131988651612f1b565b604051978897338c8a612f65565b0390a190565b908151811015611f04570160200190565b8151603481106132745760131981840101516001600160a01b0319166b1b91f1b211f2119351b859f160a31b0161327457916000926131fb8161272c565b915b818310613218575050506001600160a01b0391821691161490565b90919361323e61323961322b87856131ac565b516001600160f81b03191690565b61327c565b9190156132695760041b6010600160a01b031660ff91909116179361326290611ecb565b91906131fd565b505050505050600190565b505050600190565b60f81c9081602f10806132f0575b1561329c57600191602f190160ff1690565b81604010806132e6575b156132b8576001916036190160ff1690565b81606010806132dc575b156132d4576001916056190160ff1690565b600091508190565b50606782106132c2565b50604782106132a6565b50603a821061328a565b919060018060a01b036006541690813b15610398576000936133326040519687958694859463e38335e560e01b865260048601612428565b039134905af18015610d0b576133455750565b6104f590610428565b9061335a939291611da4565b6133638161299a565b6008811015610ef4578060026133889214159081613494575b8161347f575b506134aa565b6133b160026133a1836000526003602052604060002090565b01805461ff001916610100179055565b6040518181527f789cf55be980739dad1d0699b93b58e806b51c9d96619bfa8fe0a28abaa7b30c90602090a16133f1816000526007602052604060002090565b546133f95790565b60065461340e906001600160a01b0316610bbf565b613422826000526007602052604060002090565b5490803b156103985760405163c4d252f560e01b815260048101929092526000908290602490829084905af18015610d0b5761346c575b5060008181526007602052604081205590565b80610cff61347992610428565b38613459565b6007915061348c81611048565b141538613382565b905061349f81611048565b60068114159061337c565b156134b157565b60405162461bcd60e51b815260206004820152601d60248201527f476f7665726e6f723a2070726f706f73616c206e6f74206163746976650000006044820152606490fd5b90919015613502575090565b8151156135125750805190602001fd5b60405162461bcd60e51b8152602060048201529081906124099060248301906107fb565b1561353d57565b60405162461bcd60e51b815260206004820152601b60248201527f436865636b706f696e743a2064656372656173696e67206b65797300000000006044820152606490fd5b600954919291801561365e576136249181856135aa6135a561282160209661271d565b61273b565b926135b9845163ffffffff1690565b6135d063ffffffff91828416928391161115613536565b6135ea6135e1865163ffffffff1690565b63ffffffff1690565b0361362857506135ff6128216136169361271d565b9063ffffffff82549181199060201b169116179055565b01516001600160e01b031690565b9190565b9050613659915061364661363a6104e8565b63ffffffff9092168252565b6001600160e01b03871681850152612908565b613616565b506136829061366e61363a6104e8565b6001600160e01b0384166020820152612908565b60009190565b60051115610ef457565b61369b81613688565b806136a35750565b6136ac81613688565b600181036136f95760405162461bcd60e51b815260206004820152601860248201527f45434453413a20696e76616c6964207369676e617475726500000000000000006044820152606490fd5b61370281613688565b6002810361374f5760405162461bcd60e51b815260206004820152601f60248201527f45434453413a20696e76616c6964207369676e6174757265206c656e677468006044820152606490fd5b8061375b600392613688565b1461376257565b60405162461bcd60e51b815260206004820152602260248201527f45434453413a20696e76616c6964207369676e6174757265202773272076616c604482015261756560f01b6064820152608490fd5b9291907f7fffffffffffffffffffffffffffffff5d576e7357a4501ddfe92f46681b20a083116138225791608094939160ff602094604051948552168484015260408301526060820152600093849182805260015afa15610d0b5781516001600160a01b03811615612b94579190565b50505050600090600390565b604290613839613854565b906040519161190160f01b8352600283015260228201522090565b307f00000000000000000000000000000000000000000000000000000000000000006001600160a01b0316148061393f575b156138af577f000000000000000000000000000000000000000000000000000000000000000090565b60405160208101907f8b73c3c69bb8fe3d512ecc4cf759cc79239f7b179b0ffacaa9a75d522b39400f82527f000000000000000000000000000000000000000000000000000000000000000060408201527f000000000000000000000000000000000000000000000000000000000000000060608201524660808201523060a082015260a08152611e02816104ac565b507f00000000000000000000000000000000000000000000000000000000000000004614613886565b60ff81146139a65760ff811690601f8211613994576040519161398a83610440565b8252602082015290565b604051632cd44ac360e21b8152600490fd5b506040516000818154916139b983611cd1565b80835292600190818116908115613a3d57506001146139e0575b506105b8925003826104c7565b600080805291507f290decd9548b62a8d60345a988386fc84ba6bc95484008f6362f93160ef3e5635b848310613a2257506105b89350508101602001386139d3565b81935090816020925483858901015201910190918492613a09565b9050602092506105b894915060ff191682840152151560051b820101386139d3565b60ff8114613a815760ff811690601f8211613994576040519161398a83610440565b50604051600081600191825492613a9784611cd1565b80845293818116908115613a3d5750600114613aba57506105b8925003826104c7565b600081815291507fb10e2d527612073b26eecdfd717e6a320cf44b4afac2b0732d9fcbe2b7fa0cf65b848310613afc57506105b89350508101602001386139d3565b81935090816020925483858901015201910190918492613ae3565b8015613c515780613bea613be3613bd9613bcf613bc5613bbb613bb1613ba760016105b89a6000908b60801c80613c45575b508060401c80613c38575b508060201c80613c2b575b508060101c80613c1e575b508060081c80613c11575b508060041c80613c04575b508060021c80613bf7575b50821c613bf0575b811c1b613ba0818b612962565b0160011c90565b613ba0818a612962565b613ba08189612962565b613ba08188612962565b613ba08187612962565b613ba08186612962565b613ba08185612962565b8092612962565b90613c57565b8101613b93565b6002915091019038613b8b565b6004915091019038613b80565b6008915091019038613b75565b6010915091019038613b6a565b6020915091019038613b5f565b6040915091019038613b54565b91505060809038613b49565b50600090565b9080821015613c64575090565b905090565b6001600160e01b0390818111613c7d571690565b60405162461bcd60e51b815260206004820152602760248201527f53616665436173743a2076616c756520646f65736e27742066697420696e20326044820152663234206269747360c81b6064820152608490fd5b6001600160401b0390818111613ce6571690565b60405162461bcd60e51b815260206004820152602660248201527f53616665436173743a2076616c756520646f65736e27742066697420696e203660448201526534206269747360d01b6064820152608490fd5b65ffffffffffff90818111613d4d571690565b60405162461bcd60e51b815260206004820152602660248201527f53616665436173743a2076616c756520646f65736e27742066697420696e203460448201526538206269747360d01b6064820152608490fd5b63ffffffff90818111613db2571690565b60405162461bcd60e51b815260206004820152602660248201527f53616665436173743a2076616c756520646f65736e27742066697420696e203360448201526532206269747360d01b6064820152608490fd5b6004549081600f0b809260801d600f0b1315613e515781600052600560205260406000209160008354935560016001600160801b03196004541691016001600160801b031617600455565b604051631ed9509560e11b8152600490fdfe6e1540171b6c0c960b71a7020d9f60077f6af931a8bbf590da0223dacf75c7afa2646970667358221220d8f78538c5aa02736d19e39019b664b12bfeb876cea6f6e7c7ce9e8287f0144e64736f6c634300081300336e1540171b6c0c960b71a7020d9f60077f6af931a8bbf590da0223dacf75c7af0553476bf02ef2726e8ce5ced78d63e26e602e4a2257b1f559418e24b4633997",
    "linkReferences": {}
  },
  "methodIdentifiers": {
    "BALLOT_TYPEHASH()": "deaaa7cc",
    "CLOCK_MODE()": "4bf5d7e9",
    "COUNTING_MODE()": "dd4e2ba5",
    "EXTENDED_BALLOT_TYPEHASH()": "2fe3e261",
    "cancel(address[],uint256[],bytes[],bytes32)": "452115d6",
    "castVote(uint256,uint8)": "56781388",
    "castVoteBySig(uint256,uint8,uint8,bytes32,bytes32)": "3bccf4fd",
    "castVoteWithReason(uint256,uint8,string)": "7b3c71d3",
    "castVoteWithReasonAndParams(uint256,uint8,string,bytes)": "5f398a14",
    "castVoteWithReasonAndParamsBySig(uint256,uint8,string,bytes,uint8,bytes32,bytes32)": "03420181",
    "clock()": "91ddadf4",
    "eip712Domain()": "84b0196e",
    "execute(address[],uint256[],bytes[],bytes32)": "2656227d",
    "getVotes(address,uint256)": "eb9019d4",
    "getVotesWithParams(address,uint256,bytes)": "9a802a6d",
    "hasVoted(uint256,address)": "43859632",
    "hashProposal(address[],uint256[],bytes[],bytes32)": "c59057e4",
    "name()": "06fdde03",
    "onERC1155BatchReceived(address,address,uint256[],uint256[],bytes)": "bc197c81",
    "onERC1155Received(address,address,uint256,uint256,bytes)": "f23a6e61",
    "onERC721Received(address,address,uint256,bytes)": "150b7a02",
    "proposalDeadline(uint256)": "c01f9e37",
    "proposalEta(uint256)": "ab58fb8e",
    "proposalProposer(uint256)": "143489d0",
    "proposalSnapshot(uint256)": "2d63f693",
    "proposalThreshold()": "b58131b0",
    "proposalVotes(uint256)": "544ffc9c",
    "propose(address[],uint256[],bytes[],string)": "7d5e81e2",
    "queue(address[],uint256[],bytes[],bytes32)": "160cbed7",
    "quorum(uint256)": "f8ce560a",
    "quorumDenominator()": "97c3d334",
    "quorumNumerator()": "a7713a70",
    "quorumNumerator(uint256)": "60c4247f",
    "relay(address,uint256,bytes)": "c28bc2fa",
    "state(uint256)": "3e4f49e6",
    "supportsInterface(bytes4)": "01ffc9a7",
    "timelock()": "d33219b4",
    "token()": "fc0c546a",
    "updateQuorumNumerator(uint256)": "06f3f9e6",
    "updateTimelock(address)": "a890c910",
    "version()": "54fd4d50",
    "votingDelay()": "3932abb1",
    "votingPeriod()": "02a251a3"
  },
  "id": 148
}