{
  "abi": [
    {
      "inputs": [],
      "name": "Factory__FailedDeployment",
      "type": "error"
    },
    {
      "inputs": [
        {
          "internalType": "bytes32",
          "name": "salt",
          "type": "bytes32"
        }
      ],
      "name": "__calculateMetamorphicDeploymentAddress",
      "outputs": [
        {
          "internalType": "address",
          "name": "",
          "type": "address"
        }
      ],
      "stateMutability": "view",
      "type": "function"
    },
    {
      "inputs": [
        {
          "internalType": "address",
          "name": "target",
          "type": "address"
        },
        {
          "internalType": "bytes32",
          "name": "salt",
          "type": "bytes32"
        }
      ],
      "name": "__deployMetamorphicContract",
      "outputs": [
        {
          "internalType": "address",
          "name": "metamorphicContract",
          "type": "address"
        }
      ],
      "stateMutability": "nonpayable",
      "type": "function"
    },
    {
      "inputs": [],
      "name": "getMetamorphicImplementation",
      "outputs": [
        {
          "internalType": "address",
          "name": "implementation",
          "type": "address"
        }
      ],
      "stateMutability": "view",
      "type": "function"
    }
  ],
  "bytecode": {
    "object": "0x608080604052346100165761028c908161001c8239f35b600080fdfe6080604052600436101561001257600080fd5b6000803560e01c90816325a9d24c1461004a575080639c223603146100455763c036ed621461004057600080fd5b610176565b610129565b34610126576040366003190112610126576001600160a01b03906004358281168103610122577f6f7addb7ed33563b250186fff0861b4581d299b08ae728e7c478a8a8430a4fd680546001600160a01b0319166001600160a01b039092169190911790556100b661020c565b908151906024359260200190f590811615610110577f6f7addb7ed33563b250186fff0861b4581d299b08ae728e7c478a8a8430a4fd680546001600160a01b03191690556040516001600160a01b03919091168152602090f35b60405163ef35ca1960e01b8152600490fd5b5080fd5b80fd5b34610171576000366003190112610171577f6f7addb7ed33563b250186fff0861b4581d299b08ae728e7c478a8a8430a4fd6546040516001600160a01b039091168152602090f35b600080fd5b346101715760203660031901126101715761018f61020c565b6020815191012060405190602082019060ff60f81b82523060601b60218401526004356035840152605583015260558252608082019180831067ffffffffffffffff8411176101f657604083905280519091206001600160a01b031682528103605f190190f35b634e487b7160e01b600052604160045260246000fd5b604051906040820182811067ffffffffffffffff8211176101f657604052601d82527f5860208158601c335a639c2236038752fa158151803b80938091923cf3000000602083015256fea2646970667358221220975d22dcc9e9e80fc8636ca36541a923cca84fad593a9bb921d7643431fa177964736f6c63430008130033",
    "linkReferences": {}
  },
  "methodIdentifiers": {
    "__calculateMetamorphicDeploymentAddress(bytes32)": "c036ed62",
    "__deployMetamorphicContract(address,bytes32)": "25a9d24c",
    "getMetamorphicImplementation()": "9c223603"
  },
  "id": 258
}