{
  "abi": [
    {
      "inputs": [
        {
          "internalType": "address[]",
          "name": "signers",
          "type": "address[]"
        },
        {
          "internalType": "uint256",
          "name": "quorum",
          "type": "uint256"
        }
      ],
      "stateMutability": "nonpayable",
      "type": "constructor"
    },
    {
      "inputs": [],
      "name": "ECDSAMultisigWallet__AddSignerFailed",
      "type": "error"
    },
    {
      "inputs": [],
      "name": "ECDSAMultisigWallet__InsufficientSigners",
      "type": "error"
    },
    {
      "inputs": [],
      "name": "ECDSAMultisigWallet__InvalidNonce",
      "type": "error"
    },
    {
      "inputs": [],
      "name": "ECDSAMultisigWallet__MessageValueMismatch",
      "type": "error"
    },
    {
      "inputs": [],
      "name": "ECDSAMultisigWallet__QuorumNotReached",
      "type": "error"
    },
    {
      "inputs": [],
      "name": "ECDSAMultisigWallet__RecoveredSignerNotAuthorized",
      "type": "error"
    },
    {
      "inputs": [],
      "name": "ECDSAMultisigWallet__RemoveSignerFailed",
      "type": "error"
    },
    {
      "inputs": [],
      "name": "ECDSAMultisigWallet__SignerAlreadySigned",
      "type": "error"
    },
    {
      "inputs": [],
      "name": "ECDSAMultisigWallet__SignerLimitReached",
      "type": "error"
    },
    {
      "inputs": [],
      "name": "ECDSA__InvalidS",
      "type": "error"
    },
    {
      "inputs": [],
      "name": "ECDSA__InvalidSignature",
      "type": "error"
    },
    {
      "inputs": [],
      "name": "ECDSA__InvalidSignatureLength",
      "type": "error"
    },
    {
      "inputs": [],
      "name": "ECDSA__InvalidV",
      "type": "error"
    },
    {
      "inputs": [
        {
          "components": [
            {
              "internalType": "address payable",
              "name": "target",
              "type": "address"
            },
            {
              "internalType": "bytes",
              "name": "data",
              "type": "bytes"
            },
            {
              "internalType": "uint256",
              "name": "value",
              "type": "uint256"
            },
            {
              "internalType": "bool",
              "name": "delegate",
              "type": "bool"
            }
          ],
          "internalType": "struct IECDSAMultisigWalletInternal.Parameters",
          "name": "parameters",
          "type": "tuple"
        },
        {
          "components": [
            {
              "internalType": "bytes",
              "name": "data",
              "type": "bytes"
            },
            {
              "internalType": "uint256",
              "name": "nonce",
              "type": "uint256"
            }
          ],
          "internalType": "struct IECDSAMultisigWalletInternal.Signature[]",
          "name": "signatures",
          "type": "tuple[]"
        }
      ],
      "name": "verifyAndExecute",
      "outputs": [
        {
          "internalType": "bytes",
          "name": "",
          "type": "bytes"
        }
      ],
      "stateMutability": "payable",
      "type": "function"
    },
    {
      "stateMutability": "payable",
      "type": "receive"
    }
  ],
  "bytecode": {
    "object": "0x6040608081523461023c57610a78908138038061001b81610257565b938439820191818184031261023c5780516001600160401b03939084811161023c5782019181601f8401121561023c5782519485116102415760059185831b602094858061006a818501610257565b809a8152019282010192831161023c5790858094939201905b8282106102125750505001519360005b81518110156101ba5780831b8201840151600080516020610a58833981519152805490916001600160a01b03166101008210156101a9576000928184527fefbeb23122815a77e8a934c80d6f169b772e3a6471b982e51a98ff0d8fa5c7b9908189528985205415610140575b505050501561012f57600019811461011957600101610093565b634e487b7160e01b600052601160045260246000fd5b84516302f250a760e41b8152600490fd5b6801000000000000000084959394101561019557600194858101808355811015610181578184528984200184905554928252875287902055388080806100ff565b634e487b7160e01b84526032600452602484fd5b634e487b7160e01b83526041600452602483fd5b875163ecfc22f760e01b8152600490fd5b8486600080516020610a58833981519152548111610201577fefbeb23122815a77e8a934c80d6f169b772e3a6471b982e51a98ff0d8fa5c7b755516107db908161027d8239f35b8151632760d1e360e01b8152600490fd5b815193945091929091906001600160a01b038116810361023c578152859392918401908401610083565b600080fd5b634e487b7160e01b600052604160045260246000fd5b6040519190601f01601f191682016001600160401b038111838210176102415760405256fe6080604052600436101561001b575b361561001957600080fd5b005b6000803560e01c6304887cf514610032575061000e565b600319906040368301126100ed5760043567ffffffffffffffff928382116100f45760809082360301126100f05761006b610100604052565b60048101356001600160a01b03811681036100f45760805260248101358381116100f457906100a26064926004369184010161016d565b60a052604481013560c052013580151581036100f05760e0526024359182116100ed576100e96100dd6100d836600486016101b9565b6102be565b60405191829182610292565b0390f35b80fd5b5080fd5b8280fd5b634e487b7160e01b600052604160045260246000fd5b6040810190811067ffffffffffffffff82111761012a57604052565b6100f8565b90601f8019910116810190811067ffffffffffffffff82111761012a57604052565b67ffffffffffffffff811161012a57601f01601f191660200190565b81601f820112156101b45780359061018482610151565b92610192604051948561012f565b828452602083830101116101b457816000926020809301838601378301015290565b600080fd5b81601f820112156101b45780359067ffffffffffffffff9283831161012a578260051b6040948551956020956101f18785018961012f565b87528580880193860101948486116101b457868101935b86851061021a57505050505050505090565b84358481116101b457820183601f1982890301126101b45783519161023e8361010e565b89820135928684116101b457858361025c8b8e80988198010161016d565b8352013583820152815201940193610208565b60005b8381106102825750506000910152565b8181015183820152602001610272565b604091602082526102b2815180928160208601526020868601910161026f565b601f01601f1916010190565b906080519160a05160c05193610328605560e05115159360409788519586926020966bffffffffffffffffffffffff199060601b168785015261030a815180928960348801910161026f565b830191603483015260f81b605482015203603581018552018361012f565b7fefbeb23122815a77e8a934c80d6f169b772e3a6471b982e51a98ff0d8fa5c7b7548351106104f857600092835b81518510156104e65761036985836105e8565b516103aa848201916103a283518b5161039a8161038c8c8c830195309187610612565b03601f19810183528261012f565b519020610751565b905190610647565b6001600160a01b03811660009081527fefbeb23122815a77e8a934c80d6f169b772e3a6471b982e51a98ff0d8fa5c7b9602052604090205460001901916101008310156104d5576104408151836001600160a01b031660009081527fefbeb23122815a77e8a934c80d6f169b772e3a6471b982e51a98ff0d8fa5c7ba602052604090209060005260205260ff6040600020541690565b6104c4576001929161049d9151906001600160a01b031660009081527fefbeb23122815a77e8a934c80d6f169b772e3a6471b982e51a98ff0d8fa5c7ba60205260409020906000526020526040600020600160ff19825416179055565b1b908181166104b3579060019117940193610356565b875163d151bb0160e01b8152600490fd5b8951631417062960e31b8152600490fd5b895163bb5e19b160e01b8152600490fd5b505050505090506104f5610539565b90565b845163809ef32160e01b8152600490fd5b3d15610534573d9061051a82610151565b91610528604051938461012f565b82523d6000602084013e565b606090565b600061054660e051151590565b156105b2575060c05134036105a0576080516000908190610577906001600160a01b03165b6001600160a01b031690565b60a05190602082519201905af461058c610509565b905b156105965790565b3d6000803e3d6000fd5b60405163703d65cf60e11b8152600490fd5b60805181906105c9906001600160a01b031661056b565b60c0519060a05191602083519301915af16105e2610509565b9061058e565b80518210156105fc5760209160051b010190565b634e487b7160e01b600052603260045260246000fd5b602090610628603495938281519485920161026f565b0191825260601b6bffffffffffffffffffffffff191660208201520190565b906041815103610733576020810151916060604083015192015160001a907f7fffffffffffffffffffffffffffffff5d576e7357a4501ddfe92f46681b20a0831161072157601b82141580610716575b610704576106ca600093602095604051948594859094939260ff6060936080840197845216602083015260408201520152565b838052039060015afa156106ff576000516001600160a01b038116156106ed5790565b6040516347f3b32760e11b8152600490fd5b610745565b604051630acd54a960e41b8152600490fd5b50601c821415610697565b60405163e4a61add60e01b8152600490fd5b6040516309f846f760e31b8152600490fd5b6040513d6000823e3d90fd5b60405160208101917f19457468657265756d205369676e6564204d6573736167653a0a3332000000008352603c820152603c81526060810181811067ffffffffffffffff82111761012a576040525190209056fea26469706673582212200e321f62635006b25b695a7d51d28102139215f62c56359335bf70511df1add564736f6c63430008130033efbeb23122815a77e8a934c80d6f169b772e3a6471b982e51a98ff0d8fa5c7b8",
    "linkReferences": {}
  },
  "methodIdentifiers": {
    "verifyAndExecute((address,bytes,uint256,bool),(bytes,uint256)[])": "04887cf5"
  },
  "id": 292
}