{
  "abi": [
    {
      "inputs": [
        {
          "internalType": "contract IERC20",
          "name": "wrappedToken",
          "type": "address"
        }
      ],
      "stateMutability": "nonpayable",
      "type": "constructor"
    },
    {
      "inputs": [],
      "name": "InvalidShortString",
      "type": "error"
    },
    {
      "inputs": [
        {
          "internalType": "string",
          "name": "str",
          "type": "string"
        }
      ],
      "name": "StringTooLong",
      "type": "error"
    },
    {
      "anonymous": false,
      "inputs": [
        {
          "indexed": true,
          "internalType": "address",
          "name": "owner",
          "type": "address"
        },
        {
          "indexed": true,
          "internalType": "address",
          "name": "spender",
          "type": "address"
        },
        {
          "indexed": false,
          "internalType": "uint256",
          "name": "value",
          "type": "uint256"
        }
      ],
      "name": "Approval",
      "type": "event"
    },
    {
      "anonymous": false,
      "inputs": [
        {
          "indexed": true,
          "internalType": "address",
          "name": "delegator",
          "type": "address"
        },
        {
          "indexed": true,
          "internalType": "address",
          "name": "fromDelegate",
          "type": "address"
        },
        {
          "indexed": true,
          "internalType": "address",
          "name": "toDelegate",
          "type": "address"
        }
      ],
      "name": "DelegateChanged",
      "type": "event"
    },
    {
      "anonymous": false,
      "inputs": [
        {
          "indexed": true,
          "internalType": "address",
          "name": "delegate",
          "type": "address"
        },
        {
          "indexed": false,
          "internalType": "uint256",
          "name": "previousBalance",
          "type": "uint256"
        },
        {
          "indexed": false,
          "internalType": "uint256",
          "name": "newBalance",
          "type": "uint256"
        }
      ],
      "name": "DelegateVotesChanged",
      "type": "event"
    },
    {
      "anonymous": false,
      "inputs": [],
      "name": "EIP712DomainChanged",
      "type": "event"
    },
    {
      "anonymous": false,
      "inputs": [
        {
          "indexed": true,
          "internalType": "address",
          "name": "from",
          "type": "address"
        },
        {
          "indexed": true,
          "internalType": "address",
          "name": "to",
          "type": "address"
        },
        {
          "indexed": false,
          "internalType": "uint256",
          "name": "value",
          "type": "uint256"
        }
      ],
      "name": "Transfer",
      "type": "event"
    },
    {
      "inputs": [],
      "name": "CLOCK_MODE",
      "outputs": [
        {
          "internalType": "string",
          "name": "",
          "type": "string"
        }
      ],
      "stateMutability": "view",
      "type": "function"
    },
    {
      "inputs": [],
      "name": "DOMAIN_SEPARATOR",
      "outputs": [
        {
          "internalType": "bytes32",
          "name": "",
          "type": "bytes32"
        }
      ],
      "stateMutability": "view",
      "type": "function"
    },
    {
      "inputs": [
        {
          "internalType": "address",
          "name": "owner",
          "type": "address"
        },
        {
          "internalType": "address",
          "name": "spender",
          "type": "address"
        }
      ],
      "name": "allowance",
      "outputs": [
        {
          "internalType": "uint256",
          "name": "",
          "type": "uint256"
        }
      ],
      "stateMutability": "view",
      "type": "function"
    },
    {
      "inputs": [
        {
          "internalType": "address",
          "name": "spender",
          "type": "address"
        },
        {
          "internalType": "uint256",
          "name": "amount",
          "type": "uint256"
        }
      ],
      "name": "approve",
      "outputs": [
        {
          "internalType": "bool",
          "name": "",
          "type": "bool"
        }
      ],
      "stateMutability": "nonpayable",
      "type": "function"
    },
    {
      "inputs": [
        {
          "internalType": "address",
          "name": "account",
          "type": "address"
        }
      ],
      "name": "balanceOf",
      "outputs": [
        {
          "internalType": "uint256",
          "name": "",
          "type": "uint256"
        }
      ],
      "stateMutability": "view",
      "type": "function"
    },
    {
      "inputs": [
        {
          "internalType": "address",
          "name": "account",
          "type": "address"
        },
        {
          "internalType": "uint32",
          "name": "pos",
          "type": "uint32"
        }
      ],
      "name": "checkpoints",
      "outputs": [
        {
          "components": [
            {
              "internalType": "uint32",
              "name": "fromBlock",
              "type": "uint32"
            },
            {
              "internalType": "uint224",
              "name": "votes",
              "type": "uint224"
            }
          ],
          "internalType": "struct ERC20Votes.Checkpoint",
          "name": "",
          "type": "tuple"
        }
      ],
      "stateMutability": "view",
      "type": "function"
    },
    {
      "inputs": [],
      "name": "clock",
      "outputs": [
        {
          "internalType": "uint48",
          "name": "",
          "type": "uint48"
        }
      ],
      "stateMutability": "view",
      "type": "function"
    },
    {
      "inputs": [],
      "name": "decimals",
      "outputs": [
        {
          "internalType": "uint8",
          "name": "",
          "type": "uint8"
        }
      ],
      "stateMutability": "pure",
      "type": "function"
    },
    {
      "inputs": [
        {
          "internalType": "address",
          "name": "spender",
          "type": "address"
        },
        {
          "internalType": "uint256",
          "name": "subtractedValue",
          "type": "uint256"
        }
      ],
      "name": "decreaseAllowance",
      "outputs": [
        {
          "internalType": "bool",
          "name": "",
          "type": "bool"
        }
      ],
      "stateMutability": "nonpayable",
      "type": "function"
    },
    {
      "inputs": [
        {
          "internalType": "address",
          "name": "delegatee",
          "type": "address"
        }
      ],
      "name": "delegate",
      "outputs": [],
      "stateMutability": "nonpayable",
      "type": "function"
    },
    {
      "inputs": [
        {
          "internalType": "address",
          "name": "delegatee",
          "type": "address"
        },
        {
          "internalType": "uint256",
          "name": "nonce",
          "type": "uint256"
        },
        {
          "internalType": "uint256",
          "name": "expiry",
          "type": "uint256"
        },
        {
          "internalType": "uint8",
          "name": "v",
          "type": "uint8"
        },
        {
          "internalType": "bytes32",
          "name": "r",
          "type": "bytes32"
        },
        {
          "internalType": "bytes32",
          "name": "s",
          "type": "bytes32"
        }
      ],
      "name": "delegateBySig",
      "outputs": [],
      "stateMutability": "nonpayable",
      "type": "function"
    },
    {
      "inputs": [
        {
          "internalType": "address",
          "name": "account",
          "type": "address"
        }
      ],
      "name": "delegates",
      "outputs": [
        {
          "internalType": "address",
          "name": "",
          "type": "address"
        }
      ],
      "stateMutability": "view",
      "type": "function"
    },
    {
      "inputs": [
        {
          "internalType": "address",
          "name": "account",
          "type": "address"
        },
        {
          "internalType": "uint256",
          "name": "amount",
          "type": "uint256"
        }
      ],
      "name": "depositFor",
      "outputs": [
        {
          "internalType": "bool",
          "name": "",
          "type": "bool"
        }
      ],
      "stateMutability": "nonpayable",
      "type": "function"
    },
    {
      "inputs": [],
      "name": "eip712Domain",
      "outputs": [
        {
          "internalType": "bytes1",
          "name": "fields",
          "type": "bytes1"
        },
        {
          "internalType": "string",
          "name": "name",
          "type": "string"
        },
        {
          "internalType": "string",
          "name": "version",
          "type": "string"
        },
        {
          "internalType": "uint256",
          "name": "chainId",
          "type": "uint256"
        },
        {
          "internalType": "address",
          "name": "verifyingContract",
          "type": "address"
        },
        {
          "internalType": "bytes32",
          "name": "salt",
          "type": "bytes32"
        },
        {
          "internalType": "uint256[]",
          "name": "extensions",
          "type": "uint256[]"
        }
      ],
      "stateMutability": "view",
      "type": "function"
    },
    {
      "inputs": [
        {
          "internalType": "uint256",
          "name": "timepoint",
          "type": "uint256"
        }
      ],
      "name": "getPastTotalSupply",
      "outputs": [
        {
          "internalType": "uint256",
          "name": "",
          "type": "uint256"
        }
      ],
      "stateMutability": "view",
      "type": "function"
    },
    {
      "inputs": [
        {
          "internalType": "address",
          "name": "account",
          "type": "address"
        },
        {
          "internalType": "uint256",
          "name": "timepoint",
          "type": "uint256"
        }
      ],
      "name": "getPastVotes",
      "outputs": [
        {
          "internalType": "uint256",
          "name": "",
          "type": "uint256"
        }
      ],
      "stateMutability": "view",
      "type": "function"
    },
    {
      "inputs": [
        {
          "internalType": "address",
          "name": "account",
          "type": "address"
        }
      ],
      "name": "getVotes",
      "outputs": [
        {
          "internalType": "uint256",
          "name": "",
          "type": "uint256"
        }
      ],
      "stateMutability": "view",
      "type": "function"
    },
    {
      "inputs": [
        {
          "internalType": "address",
          "name": "spender",
          "type": "address"
        },
        {
          "internalType": "uint256",
          "name": "addedValue",
          "type": "uint256"
        }
      ],
      "name": "increaseAllowance",
      "outputs": [
        {
          "internalType": "bool",
          "name": "",
          "type": "bool"
        }
      ],
      "stateMutability": "nonpayable",
      "type": "function"
    },
    {
      "inputs": [],
      "name": "name",
      "outputs": [
        {
          "internalType": "string",
          "name": "",
          "type": "string"
        }
      ],
      "stateMutability": "view",
      "type": "function"
    },
    {
      "inputs": [
        {
          "internalType": "address",
          "name": "owner",
          "type": "address"
        }
      ],
      "name": "nonces",
      "outputs": [
        {
          "internalType": "uint256",
          "name": "",
          "type": "uint256"
        }
      ],
      "stateMutability": "view",
      "type": "function"
    },
    {
      "inputs": [
        {
          "internalType": "address",
          "name": "account",
          "type": "address"
        }
      ],
      "name": "numCheckpoints",
      "outputs": [
        {
          "internalType": "uint32",
          "name": "",
          "type": "uint32"
        }
      ],
      "stateMutability": "view",
      "type": "function"
    },
    {
      "inputs": [
        {
          "internalType": "address",
          "name": "owner",
          "type": "address"
        },
        {
          "internalType": "address",
          "name": "spender",
          "type": "address"
        },
        {
          "internalType": "uint256",
          "name": "value",
          "type": "uint256"
        },
        {
          "internalType": "uint256",
          "name": "deadline",
          "type": "uint256"
        },
        {
          "internalType": "uint8",
          "name": "v",
          "type": "uint8"
        },
        {
          "internalType": "bytes32",
          "name": "r",
          "type": "bytes32"
        },
        {
          "internalType": "bytes32",
          "name": "s",
          "type": "bytes32"
        }
      ],
      "name": "permit",
      "outputs": [],
      "stateMutability": "nonpayable",
      "type": "function"
    },
    {
      "inputs": [],
      "name": "symbol",
      "outputs": [
        {
          "internalType": "string",
          "name": "",
          "type": "string"
        }
      ],
      "stateMutability": "view",
      "type": "function"
    },
    {
      "inputs": [],
      "name": "totalSupply",
      "outputs": [
        {
          "internalType": "uint256",
          "name": "",
          "type": "uint256"
        }
      ],
      "stateMutability": "view",
      "type": "function"
    },
    {
      "inputs": [
        {
          "internalType": "address",
          "name": "to",
          "type": "address"
        },
        {
          "internalType": "uint256",
          "name": "amount",
          "type": "uint256"
        }
      ],
      "name": "transfer",
      "outputs": [
        {
          "internalType": "bool",
          "name": "",
          "type": "bool"
        }
      ],
      "stateMutability": "nonpayable",
      "type": "function"
    },
    {
      "inputs": [
        {
          "internalType": "address",
          "name": "from",
          "type": "address"
        },
        {
          "internalType": "address",
          "name": "to",
          "type": "address"
        },
        {
          "internalType": "uint256",
          "name": "amount",
          "type": "uint256"
        }
      ],
      "name": "transferFrom",
      "outputs": [
        {
          "internalType": "bool",
          "name": "",
          "type": "bool"
        }
      ],
      "stateMutability": "nonpayable",
      "type": "function"
    },
    {
      "inputs": [],
      "name": "underlying",
      "outputs": [
        {
          "internalType": "contract IERC20",
          "name": "",
          "type": "address"
        }
      ],
      "stateMutability": "view",
      "type": "function"
    },
    {
      "inputs": [
        {
          "internalType": "address",
          "name": "account",
          "type": "address"
        },
        {
          "internalType": "uint256",
          "name": "amount",
          "type": "uint256"
        }
      ],
      "name": "withdrawTo",
      "outputs": [
        {
          "internalType": "bool",
          "name": "",
          "type": "bool"
        }
      ],
      "stateMutability": "nonpayable",
      "type": "function"
    }
  ],
  "bytecode": {
    "object": "0x610180346200054457601f620031d138819003918201601f19168301916001600160401b0383118484101762000317578084926020946040528339810103126200054457516001600160a01b03811681036200054457604051620000638162000549565b600e81526d135e551bdad95b95dc985c1c195960921b90816020820152604051916200008f8362000549565b600e8352602083015260405192620000a78462000549565b60038452624d544b60e81b602085015260405192620000c68462000549565b60018452603160f81b60208501528051906001600160401b038211620003175760035490600182811c9216801562000539575b60208310146200040c5781601f849311620004c4575b50602090601f831160011462000439576000926200042d575b50508160011b916000199060031b1c1916176003555b83516001600160401b0381116200031757600454600181811c9116801562000422575b60208210146200040c57601f8111620003a6575b50602094601f821160011462000339579481929394956000926200032d575b50508160011b916000199060031b1c1916176004555b620001b58262000565565b91610120928352620001c78462000729565b9061014091825260208151910120938460e0526020815191012093610100948086524660a0526040519060208201927f8b73c3c69bb8fe3d512ecc4cf759cc79239f7b179b0ffacaa9a75d522b39400f8452604083015260608201524660808201523060a082015260a0815260c081019181831060018060401b0384111762000317576040839052815190206080523060c08190526001600160a01b03851614620002d3575050610160918252604051926128ef9485620008e2863960805185612329015260a051856123e4015260c051856122f3015260e051856123780152518461239e01525183610a6f01525182610a98015251818181610443015281816105dc01526109690152f35b62461bcd60e51b8252602060c4820152601e60e48201527f4552433230577261707065723a2063616e6e6f742073656c662077726170000061010490910152606490fd5b634e487b7160e01b600052604160045260246000fd5b01519050388062000194565b601f19821695600460005260206000209160005b8881106200038d5750836001959697981062000373575b505050811b01600455620001aa565b015160001960f88460031b161c1916905538808062000364565b919260206001819286850151815501940192016200034d565b60046000527f8a35acfbc15ff81a39ae7d344fd709f28e8600b4aa8c65c6b64bfe7fe36bd19b601f830160051c81016020841062000404575b601f830160051c82018110620003f757505062000175565b60008155600101620003df565b5080620003df565b634e487b7160e01b600052602260045260246000fd5b90607f169062000161565b01519050388062000128565b600360009081527fc2575a0e9e593c00f959f8c92f12db2869c3395a3b0502d05e2516446f71f85b9350601f198516905b818110620004ab575090846001959493921062000491575b505050811b016003556200013e565b015160001960f88460031b161c1916905538808062000482565b929360206001819287860151815501950193016200046a565b60036000529091507fc2575a0e9e593c00f959f8c92f12db2869c3395a3b0502d05e2516446f71f85b601f840160051c810191602085106200052e575b90601f859493920160051c01905b8181106200051e57506200010f565b600081558493506001016200050f565b909150819062000501565b91607f1691620000f9565b600080fd5b604081019081106001600160401b038211176200031757604052565b8051602091908281101562000604575090601f825111620005a357808251920151908083106200059457501790565b82600019910360031b1b161790565b90604051809263305a27a960e01b82528060048301528251908160248401526000935b828510620005ea575050604492506000838284010152601f80199101168101030190fd5b8481018201518686016044015293810193859350620005c6565b6001600160401b03811162000317576005928354926001938481811c911680156200071e575b838210146200040c57601f8111620006e7575b5081601f84116001146200067d575092829391839260009462000671575b50501b916000199060031b1c191617905560ff90565b0151925038806200065b565b919083601f1981168760005284600020946000905b88838310620006cc5750505010620006b2575b505050811b01905560ff90565b015160001960f88460031b161c19169055388080620006a5565b85870151885590960195948501948793509081019062000692565b8560005284601f846000209201871c820191601f8601881c015b828110620007115750506200063d565b6000815501859062000701565b90607f16906200062a565b805160209081811015620007b75750601f8251116200075657808251920151908083106200059457501790565b90604051809263305a27a960e01b82528060048301528251908160248401526000935b8285106200079d575050604492506000838284010152601f80199101168101030190fd5b848101820151868601604401529381019385935062000779565b906001600160401b0382116200031757600654926001938481811c91168015620008d6575b838210146200040c57601f81116200089c575b5081601f841160011462000830575092829391839260009462000824575b50501b916000199060031b1c19161760065560ff90565b0151925038806200080d565b919083601f198116600660005284600020946000905b8883831062000881575050501062000867575b505050811b0160065560ff90565b015160001960f88460031b161c1916905538808062000859565b85870151885590960195948501948793509081019062000846565b600660005284601f84600020920160051c820191601f860160051c015b828110620008c9575050620007ef565b60008155018590620008b9565b90607f1690620007dc56fe6080604052600436101561001257600080fd5b60003560e01c806306fdde03146101d7578063095ea7b3146101d257806318160ddd146101cd578063205c2878146101c857806323b872dd146101c35780632f4f21e2146101be578063313ce567146101b95780633644e515146101b457806339509351146101af5780633a46b1a8146101aa5780634bf5d7e9146101a5578063587cde1e146101a05780635c19a95c1461019b5780636f307dc3146101965780636fcfff451461019157806370a082311461018c5780637ecebe001461018757806384b0196e146101825780638e539e8c1461017d57806391ddadf41461017857806395d89b41146101735780639ab24eb01461016e578063a457c2d714610169578063a9059cbb14610164578063c3cda5201461015f578063d505accf1461015a578063dd62ed3e146101555763f1127ed81461015057600080fd5b61112e565b6110d6565b610f90565b610e65565b610e1f565b610d71565b610d0f565b610c68565b610c3c565b610b4c565b610a54565b610a1a565b6109e0565b610998565b610953565b61092f565b6108f4565b610842565b6106ed565b610695565b610672565b610656565b610581565b6104c2565b610395565b610377565b610346565b610230565b919082519283825260005b848110610208575050826000602080949584010152601f8019910116010190565b6020818301810151848301820152016101e7565b90602061022d9281815201906101dc565b90565b3461031557600080600319360112610312576040519080600354610253816111b5565b808552916001918083169081156102e8575060011461028d575b6102898561027d8187038261127a565b6040519182918261021c565b0390f35b9250600383527fc2575a0e9e593c00f959f8c92f12db2869c3395a3b0502d05e2516446f71f85b5b8284106102d057505050810160200161027d8261028961026d565b805460208587018101919091529093019281016102b5565b8695506102899693506020925061027d94915060ff191682840152151560051b820101929361026d565b80fd5b600080fd5b600435906001600160a01b038216820361031557565b602435906001600160a01b038216820361031557565b346103155760403660031901126103155761036c61036261031a565b6024359033611481565b602060405160018152f35b34610315576000366003190112610315576020600254604051908152f35b34610315576040366003190112610315576103ae61031a565b60243533156104735733600090815260208190526040902061046792908290546103da82821015611e8c565b33600090815260208190526040902091900390556103fb8260025403600255565b60405182815260009033907fddf252ad1be2c89b69c2b068fc378daa952ba7f163c4a11628f55a4df523b3ef90602090a361043682336116ff565b61043f82611b1b565b50507f0000000000000000000000000000000000000000000000000000000000000000611ee3565b60405160018152602090f35b60405162461bcd60e51b815260206004820152602160248201527f45524332303a206275726e2066726f6d20746865207a65726f206164647265736044820152607360f81b6064820152608490fd5b34610315576060366003190112610315576104db61031a565b6104e3610330565b6001600160a01b038216600090815260016020908152604080832033845290915290206044359190549260018401610520575b6104679350611373565b82841061053c576105378361046795033383611481565b610516565b60405162461bcd60e51b815260206004820152601d60248201527f45524332303a20696e73756666696369656e7420616c6c6f77616e63650000006044820152606490fd5b346103155760403660031901126103155761059a61031a565b60243530331461060557610467916106006040516323b872dd60e01b6020820152336024820152306044820152836064820152606481526105da81611226565b7f0000000000000000000000000000000000000000000000000000000000000000611faa565b611dac565b60405162461bcd60e51b815260206004820152602360248201527f4552433230577261707065723a20777261707065722063616e2774206465706f6044820152621cda5d60ea1b6064820152608490fd5b3461031557600036600319011261031557602060405160128152f35b3461031557600036600319011261031557602061068d6122f0565b604051908152f35b34610315576040366003190112610315576106ae61031a565b3360009081526001602090815260408083206001600160a01b038516845290915290205460243581018091116106e85761036c9133611481565b61129c565b346103155760403660031901126103155761070661031a565b6024359061072565ffffffffffff61071d436127d3565b16831061165a565b6001600160a01b03166000908152600a60205260408120805492909183600581116107f1575b50905b83821061079c57505081610775575050602060005b6040516001600160e01b039091168152f35b61079061079791602093600019019060005260206000200190565b5460201c90565b610763565b90926107a88185612603565b90818363ffffffff6107ce6107c4848960005260206000200190565b5463ffffffff1690565b1611156107df575050925b9061074e565b9094506107ec91506112b2565b6107d9565b8061080161080792969396612618565b906116a6565b908263ffffffff6108226107c4858860005260206000200190565b1611156108325750925b3861074b565b935061083d906112b2565b61082c565b34610315576000366003190112610315574365ffffffffffff610864436127d3565b16036108af5761028960405161087981611205565b601d81527f6d6f64653d626c6f636b6e756d6265722666726f6d3d64656661756c7400000060208201526040519182918261021c565b60405162461bcd60e51b815260206004820152601d60248201527f4552433230566f7465733a2062726f6b656e20636c6f636b206d6f64650000006044820152606490fd5b346103155760203660031901126103155760206001600160a01b038061091861031a565b166000526009825260406000205416604051908152f35b346103155760203660031901126103155761095161094b61031a565b336117ca565b005b34610315576000366003190112610315576040517f00000000000000000000000000000000000000000000000000000000000000006001600160a01b03168152602090f35b34610315576020366003190112610315576001600160a01b036109b961031a565b16600052600a60205260206109d260406000205461283a565b63ffffffff60405191168152f35b34610315576020366003190112610315576001600160a01b03610a0161031a565b1660005260006020526020604060002054604051908152f35b34610315576020366003190112610315576001600160a01b03610a3b61031a565b1660005260076020526020604060002054604051908152f35b346103155760008060031936011261031257610afe90610a937f0000000000000000000000000000000000000000000000000000000000000000612430565b610abc7f0000000000000000000000000000000000000000000000000000000000000000612529565b9160405191610aca83611242565b818352604051948594600f60f81b8652610af060209360e08589015260e08801906101dc565b9086820360408801526101dc565b904660608601523060808601528260a086015284820360c08601528080855193848152019401925b828110610b3557505050500390f35b835185528695509381019392810192600101610b26565b3461031557602036600319011261031557600435610b7b65ffffffffffff610b73436127d3565b16821061165a565b600b549060008260058111610bf9575b50905b828210610bba578280610ba8575060405160008152602090f35b61079761079060209260001901611d1d565b9091610bc68184612603565b908263ffffffff610bd96107c485611d1d565b161115610be95750915b90610b8e565b9250610bf4906112b2565b610be3565b80610801610c0992959395612618565b908263ffffffff610c1c6107c485611d1d565b161115610c2c5750915b38610b8b565b9250610c37906112b2565b610c26565b34610315576000366003190112610315576020610c58436127d3565b65ffffffffffff60405191168152f35b3461031557600080600319360112610312576040519080600454610c8b816111b5565b808552916001918083169081156102e85750600114610cb4576102898561027d8187038261127a565b9250600483527f8a35acfbc15ff81a39ae7d344fd709f28e8600b4aa8c65c6b64bfe7fe36bd19b5b828410610cf757505050810160200161027d8261028961026d565b80546020858701810191909152909301928101610cdc565b34610315576020366003190112610315576001600160a01b03610d3061031a565b16600052600a602052604060002080548015600014610d5757505060405160008152602090f35b602091610d6891600019019061160a565b5054811c610763565b3461031557604036600319011261031557610d8a61031a565b60243590336000526001602052610db78160406000209060018060a01b0316600052602052604060002090565b5491808310610dcc5761046792039033611481565b60405162461bcd60e51b815260206004820152602560248201527f45524332303a2064656372656173656420616c6c6f77616e63652062656c6f77604482015264207a65726f60d81b6064820152608490fd5b346103155760403660031901126103155761036c610e3b61031a565b6024359033611373565b6064359060ff8216820361031557565b6084359060ff8216820361031557565b346103155760c036600319011261031557610e7e61031a565b60443590602435610e8d610e45565b92804211610f4b57610f1d610f46916109519560405190610f0582610ef76020820195898b8860609194939260808201957fe48329057bfd03d55e49b547132e39cffd9c1820ad7b9d4c5307691425d15adf835260018060a01b0316602083015260408201520152565b03601f19810184528361127a565b610f1860a435936084359351902061240a565b61210a565b6001600160a01b03811660009081526007602052604090208054600181019091559092146116b3565b6117ca565b60405162461bcd60e51b815260206004820152601d60248201527f4552433230566f7465733a207369676e617475726520657870697265640000006044820152606490fd5b346103155760e036600319011261031557610fa961031a565b610fb1610330565b6044359060643592610fc1610e55565b938042116110915761107961108c91610ef761095197611066610fff8760018060a01b03166000526007602052604060002090815491600183019055565b604080517f6e71edae12b1b97f4d1f60370fef10105fa2faae0126114a169c64845d6126c9602082019081526001600160a01b03808c1693830193909352918b166060820152608081018c905260a081019290925260c082019590955292839060e0820190565b610f1860c4359360a4359351902061240a565b6001600160a01b038381169116146115b1565b611481565b60405162461bcd60e51b815260206004820152601d60248201527f45524332305065726d69743a206578706972656420646561646c696e650000006044820152606490fd5b346103155760403660031901126103155760206111256110f461031a565b6110fc610330565b6001600160a01b0391821660009081526001855260408082209290931681526020919091522090565b54604051908152f35b346103155760403660031901126103155761114761031a565b63ffffffff6024358181168103610315576111916111979160409460006020875161117181611205565b82815201526001600160a01b03166000908152600a60205285902061160a565b50611638565b8251815190921682526020908101516001600160e01b031690820152f35b90600182811c921680156111e5575b60208310146111cf57565b634e487b7160e01b600052602260045260246000fd5b91607f16916111c4565b634e487b7160e01b600052604160045260246000fd5b6040810190811067ffffffffffffffff82111761122157604052565b6111ef565b60a0810190811067ffffffffffffffff82111761122157604052565b6020810190811067ffffffffffffffff82111761122157604052565b60c0810190811067ffffffffffffffff82111761122157604052565b90601f8019910116810190811067ffffffffffffffff82111761122157604052565b634e487b7160e01b600052601160045260246000fd5b90600182018092116106e857565b156112c757565b60405162461bcd60e51b815260206004820152602360248201527f45524332303a207472616e7366657220746f20746865207a65726f206164647260448201526265737360e81b6064820152608490fd5b1561131f57565b60405162461bcd60e51b815260206004820152602660248201527f45524332303a207472616e7366657220616d6f756e7420657863656564732062604482015265616c616e636560d01b6064820152608490fd5b6001600160a01b03929190838116801561142e5761142c948316906113998215156112c0565b6001600160a01b03831660009081526020819052604090208590546113c082821015611318565b036113dd8460018060a01b03166000526000602052604060002090565b556001600160a01b0384166000908152602081815260409182902080548801905590518681527fddf252ad1be2c89b69c2b068fc378daa952ba7f163c4a11628f55a4df523b3ef9190a3611798565b565b60405162461bcd60e51b815260206004820152602560248201527f45524332303a207472616e736665722066726f6d20746865207a65726f206164604482015264647265737360d81b6064820152608490fd5b6001600160a01b03808216929190831561156057821693841561151057806114fa7f8c5be1e5ebec7d5bd14f71427d1e84f3dd0314c0f7b2291e5b200ac8c7c3b925946114e361150b9560018060a01b03166000526001602052604060002090565b9060018060a01b0316600052602052604060002090565b556040519081529081906020820190565b0390a3565b60405162461bcd60e51b815260206004820152602260248201527f45524332303a20617070726f766520746f20746865207a65726f206164647265604482015261737360f01b6064820152608490fd5b60405162461bcd60e51b8152602060048201526024808201527f45524332303a20617070726f76652066726f6d20746865207a65726f206164646044820152637265737360e01b6064820152608490fd5b156115b857565b60405162461bcd60e51b815260206004820152601e60248201527f45524332305065726d69743a20696e76616c6964207369676e617475726500006044820152606490fd5b6040519061142c82611205565b80548210156116225760005260206000200190600090565b634e487b7160e01b600052603260045260246000fd5b9060405161164581611205565b602081935463ffffffff81168352811c910152565b1561166157565b60405162461bcd60e51b815260206004820152601960248201527f4552433230566f7465733a20667574757265206c6f6f6b7570000000000000006044820152606490fd5b919082039182116106e857565b156116ba57565b60405162461bcd60e51b815260206004820152601960248201527f4552433230566f7465733a20696e76616c6964206e6f6e6365000000000000006044820152606490fd5b6001600160a01b039081166000908152600960205260408120549080527fec8156718a8372b1db44bb411437d0870f3e3790d4a08526d024ce1b0b668f6b5461142c9392908116911661183e565b60096020527fec8156718a8372b1db44bb411437d0870f3e3790d4a08526d024ce1b0b668f6b546001600160a01b039182166000908152604090205461142c9392908116911661183e565b6001600160a01b0390811660009081526009602052604080822054938316825290205461142c9392908216911661183e565b61142c9160018060a01b038092166000928184526009602052806040852054168092856020527f3134e8a2e6d97e929a7e54011ea5485d7d196dd5f0ba4d4ef95803e8e3fc257f60408720549660096020526040812094871694856bffffffffffffffffffffffff60a01b82541617905580a45b6001600160a01b03808316939291168084141580611a51575b611862575b50505050565b806118d0575b5082611875575b8061185c565b6001600160a01b03166000908152600a602052604090207fdec2bacdd2f05b59de34da9b523dff8be42e5e38e818c82fdb0bae774387a724916118b791611c0b565b60408051928352602083019190915290a238808061186f565b80600052600a6020527fdec2bacdd2f05b59de34da9b523dff8be42e5e38e818c82fdb0bae774387a7246040600020805480159182600014611a2e576119146115fd565b6000815260006020820152915b6020830151611940906001600160e01b03165b6001600160e01b031690565b9261194b898561289f565b94159081611a0b575b50156119a95761197c6119939261196a8661276a565b92600019019060005260206000200190565b9063ffffffff82549181199060201b169116179055565b604080519182526020820192909252a238611868565b50611a06906119cd6119c86119bd436127d3565b65ffffffffffff1690565b61283a565b90611a016119da8661276a565b6119f16119e56115fd565b63ffffffff9095168552565b6001600160e01b03166020840152565b611ac1565b611993565b5163ffffffff16905063ffffffff611a256119bd436127d3565b91161438611954565b611a4b611a4660001984018360005260206000200190565b611638565b91611921565b50821515611857565b600b5490600160401b821015611221576001820180600b5582101561162257600b600052805160209182015190911b63ffffffff191663ffffffff91909116177f0175b7a638427703f0dbe7bb9bbf987a2551717b34e79f33b5b1008d1fa01db990910155565b8054600160401b81101561122157611ade9160018201815561160a565b611b0557815160209283015190921b63ffffffff191663ffffffff92909216919091179055565b634e487b7160e01b600052600060045260246000fd5b600b5490918115918215611bf657611b316115fd565b60008152600060208201525b6020810151611b5f90611b58906001600160e01b0316611934565b958661289f565b93159081611bd3575b5015611b885761142c9061197c611b7e8561276a565b9160001901611d1d565b5061142c611b9b6119c86119bd436127d3565b611bce611ba78561276a565b611bbe611bb26115fd565b63ffffffff9094168452565b6001600160e01b03166020830152565b611a5a565b5163ffffffff16905063ffffffff611bed6119bd436127d3565b91161438611b68565b611c06611a466000198301611d1d565b611b3d565b909181549182159283600014611ca757611c236115fd565b60008152600060208201525b6020810151611c5190611c4a906001600160e01b0316611934565b96876128ac565b94159081611c84575b5015611c705761197c61142c9261196a8661276a565b5061142c906119cd6119c86119bd436127d3565b5163ffffffff16905063ffffffff611c9e6119bd436127d3565b91161438611c5a565b611cbf611a4660001983018460005260206000200190565b611c2f565b600b5490918115918215611d0857611cda6115fd565b60008152600060208201525b6020810151611b5f90611d01906001600160e01b0316611934565b95866128ac565b611d18611a466000198301611d1d565b611ce6565b600b6000527f0175b7a638427703f0dbe7bb9bbf987a2551717b34e79f33b5b1008d1fa01db90190565b15611d4e57565b60405162461bcd60e51b815260206004820152603060248201527f4552433230566f7465733a20746f74616c20737570706c79207269736b73206f60448201526f766572666c6f77696e6720766f74657360801b6064820152608490fd5b906001600160a01b0382168015611e47576002548281018091116106e857611e4393611e2892611ddc8593600255565b6001600160a01b038216600090815260208181526040808320805487019055518581527fddf252ad1be2c89b69c2b068fc378daa952ba7f163c4a11628f55a4df523b3ef9190a361174d565b600254611e3e906001600160e01b031015611d47565b611cc4565b5050565b60405162461bcd60e51b815260206004820152601f60248201527f45524332303a206d696e7420746f20746865207a65726f2061646472657373006044820152606490fd5b15611e9357565b60405162461bcd60e51b815260206004820152602260248201527f45524332303a206275726e20616d6f756e7420657863656564732062616c616e604482015261636560f01b6064820152608490fd5b60405163a9059cbb60e01b60208201526001600160a01b039092166024830152604480830193909352918152608081019167ffffffffffffffff8311828410176112215761142c92604052611faa565b90816020910312610315575180151581036103155790565b15611f5257565b60405162461bcd60e51b815260206004820152602a60248201527f5361666545524332303a204552433230206f7065726174696f6e20646964206e6044820152691bdd081cdd58d8d9595960b21b6064820152608490fd5b60405191906001600160a01b0316611fc183611205565b6000806020938486527f5361666545524332303a206c6f772d6c6576656c2063616c6c206661696c656485870152848151910182855af1923d15612069573d67ffffffffffffffff81116112215761142c9461203c936040519261202e87601f19601f840116018561127a565b83523d60008785013e612075565b8051918215928315612051575b505050611f4b565b6120619350820181019101611f33565b388080612049565b61203c9161142c946060915b919290156120d75750815115612089575090565b3b156120925790565b60405162461bcd60e51b815260206004820152601d60248201527f416464726573733a2063616c6c20746f206e6f6e2d636f6e74726163740000006044820152606490fd5b8251909150156120ea5750805190602001fd5b60405162461bcd60e51b8152908190612106906004830161021c565b0390fd5b9161022d939161211993612261565b919091612141565b6005111561212b57565b634e487b7160e01b600052602160045260246000fd5b61214a81612121565b806121525750565b61215b81612121565b600181036121a85760405162461bcd60e51b815260206004820152601860248201527f45434453413a20696e76616c6964207369676e617475726500000000000000006044820152606490fd5b6121b181612121565b600281036121fe5760405162461bcd60e51b815260206004820152601f60248201527f45434453413a20696e76616c6964207369676e6174757265206c656e677468006044820152606490fd5b8061220a600392612121565b1461221157565b60405162461bcd60e51b815260206004820152602260248201527f45434453413a20696e76616c6964207369676e6174757265202773272076616c604482015261756560f01b6064820152608490fd5b9291907f7fffffffffffffffffffffffffffffff5d576e7357a4501ddfe92f46681b20a083116122e45791608094939160ff602094604051948552168484015260408301526060820152600093849182805260015afa156122d75781516001600160a01b038116156122d1579190565b50600190565b50604051903d90823e3d90fd5b50505050600090600390565b307f00000000000000000000000000000000000000000000000000000000000000006001600160a01b031614806123e1575b1561234b577f000000000000000000000000000000000000000000000000000000000000000090565b60405160208101907f8b73c3c69bb8fe3d512ecc4cf759cc79239f7b179b0ffacaa9a75d522b39400f82527f000000000000000000000000000000000000000000000000000000000000000060408201527f000000000000000000000000000000000000000000000000000000000000000060608201524660808201523060a082015260a081526123db8161125e565b51902090565b507f00000000000000000000000000000000000000000000000000000000000000004614612322565b6042906124156122f0565b906040519161190160f01b8352600283015260228201522090565b60ff811461246e5760ff811690601f821161245c576040519161245283611205565b8252602082015290565b604051632cd44ac360e21b8152600490fd5b50604051600554816000612481836111b5565b8083529260019081811690811561250757506001146124a8575b5061022d9250038261127a565b6005600090815291507f036b6384b5eca791c62761152d0c79bb0604c104a5fb6f4eb0703f3154bb3db05b8483106124ec575061022d93505081016020013861249b565b819350908160209254838589010152019101909184926124d3565b90506020925061022d94915060ff191682840152151560051b8201013861249b565b60ff811461254b5760ff811690601f821161245c576040519161245283611205565b5060405160065481600061255e836111b5565b808352926001908181169081156125075750600114612584575061022d9250038261127a565b6006600090815291507ff652222313e28459528d920b65115c16c04f3efc82aaedc97be59f3f377c0d3f5b8483106125c8575061022d93505081016020013861249b565b819350908160209254838589010152019101909184926125af565b81156125ed570490565b634e487b7160e01b600052601260045260246000fd5b90808216911860011c81018091116106e85790565b801561275257806126eb6126e46126da6126d06126c66126bc6126b26126a8600161022d9a6000908b60801c80612746575b508060401c80612739575b508060201c8061272c575b508060101c8061271f575b508060081c80612712575b508060041c80612705575b508060021c806126f8575b50821c6126f1575b811c1b6126a1818b6125e3565b0160011c90565b6126a1818a6125e3565b6126a181896125e3565b6126a181886125e3565b6126a181876125e3565b6126a181866125e3565b6126a181856125e3565b80926125e3565b90612758565b8101612694565b600291509101903861268c565b6004915091019038612681565b6008915091019038612676565b601091509101903861266b565b6020915091019038612660565b6040915091019038612655565b9150506080903861264a565b50600090565b9080821015612765575090565b905090565b6001600160e01b039081811161277e571690565b60405162461bcd60e51b815260206004820152602760248201527f53616665436173743a2076616c756520646f65736e27742066697420696e20326044820152663234206269747360c81b6064820152608490fd5b65ffffffffffff908181116127e6571690565b60405162461bcd60e51b815260206004820152602660248201527f53616665436173743a2076616c756520646f65736e27742066697420696e203460448201526538206269747360d01b6064820152608490fd5b63ffffffff9081811161284b571690565b60405162461bcd60e51b815260206004820152602660248201527f53616665436173743a2076616c756520646f65736e27742066697420696e203360448201526532206269747360d01b6064820152608490fd5b9081039081116106e85790565b9081018091116106e8579056fea26469706673582212207803230db934bdd08fda8d173aff41c0ff743bd9a1f1fd61bf98239e7377474664736f6c63430008130033",
    "linkReferences": {}
  },
  "methodIdentifiers": {
    "CLOCK_MODE()": "4bf5d7e9",
    "DOMAIN_SEPARATOR()": "3644e515",
    "allowance(address,address)": "dd62ed3e",
    "approve(address,uint256)": "095ea7b3",
    "balanceOf(address)": "70a08231",
    "checkpoints(address,uint32)": "f1127ed8",
    "clock()": "91ddadf4",
    "decimals()": "313ce567",
    "decreaseAllowance(address,uint256)": "a457c2d7",
    "delegate(address)": "5c19a95c",
    "delegateBySig(address,uint256,uint256,uint8,bytes32,bytes32)": "c3cda520",
    "delegates(address)": "587cde1e",
    "depositFor(address,uint256)": "2f4f21e2",
    "eip712Domain()": "84b0196e",
    "getPastTotalSupply(uint256)": "8e539e8c",
    "getPastVotes(address,uint256)": "3a46b1a8",
    "getVotes(address)": "9ab24eb0",
    "increaseAllowance(address,uint256)": "39509351",
    "name()": "06fdde03",
    "nonces(address)": "7ecebe00",
    "numCheckpoints(address)": "6fcfff45",
    "permit(address,address,uint256,uint256,uint8,bytes32,bytes32)": "d505accf",
    "symbol()": "95d89b41",
    "totalSupply()": "18160ddd",
    "transfer(address,uint256)": "a9059cbb",
    "transferFrom(address,address,uint256)": "23b872dd",
    "underlying()": "6f307dc3",
    "withdrawTo(address,uint256)": "205c2878"
  },
  "id": 79
}