{
  "abi": [
    {
      "inputs": [],
      "stateMutability": "nonpayable",
      "type": "constructor"
    },
    {
      "inputs": [],
      "name": "ERC1155Base__ArrayLengthMismatch",
      "type": "error"
    },
    {
      "inputs": [],
      "name": "ERC1155Base__BalanceQueryZeroAddress",
      "type": "error"
    },
    {
      "inputs": [],
      "name": "ERC1155Base__BurnExceedsBalance",
      "type": "error"
    },
    {
      "inputs": [],
      "name": "ERC1155Base__BurnFromZeroAddress",
      "type": "error"
    },
    {
      "inputs": [],
      "name": "ERC1155Base__ERC1155ReceiverNotImplemented",
      "type": "error"
    },
    {
      "inputs": [],
      "name": "ERC1155Base__ERC1155ReceiverRejected",
      "type": "error"
    },
    {
      "inputs": [],
      "name": "ERC1155Base__MintToZeroAddress",
      "type": "error"
    },
    {
      "inputs": [],
      "name": "ERC1155Base__NotOwnerOrApproved",
      "type": "error"
    },
    {
      "inputs": [],
      "name": "ERC1155Base__SelfApproval",
      "type": "error"
    },
    {
      "inputs": [],
      "name": "ERC1155Base__TransferExceedsBalance",
      "type": "error"
    },
    {
      "inputs": [],
      "name": "ERC1155Base__TransferToZeroAddress",
      "type": "error"
    },
    {
      "inputs": [],
      "name": "ERC165Base__InvalidInterfaceId",
      "type": "error"
    },
    {
      "anonymous": false,
      "inputs": [
        {
          "indexed": true,
          "internalType": "address",
          "name": "account",
          "type": "address"
        },
        {
          "indexed": true,
          "internalType": "address",
          "name": "operator",
          "type": "address"
        },
        {
          "indexed": false,
          "internalType": "bool",
          "name": "approved",
          "type": "bool"
        }
      ],
      "name": "ApprovalForAll",
      "type": "event"
    },
    {
      "anonymous": false,
      "inputs": [
        {
          "indexed": true,
          "internalType": "address",
          "name": "operator",
          "type": "address"
        },
        {
          "indexed": true,
          "internalType": "address",
          "name": "from",
          "type": "address"
        },
        {
          "indexed": true,
          "internalType": "address",
          "name": "to",
          "type": "address"
        },
        {
          "indexed": false,
          "internalType": "uint256[]",
          "name": "ids",
          "type": "uint256[]"
        },
        {
          "indexed": false,
          "internalType": "uint256[]",
          "name": "values",
          "type": "uint256[]"
        }
      ],
      "name": "TransferBatch",
      "type": "event"
    },
    {
      "anonymous": false,
      "inputs": [
        {
          "indexed": true,
          "internalType": "address",
          "name": "operator",
          "type": "address"
        },
        {
          "indexed": true,
          "internalType": "address",
          "name": "from",
          "type": "address"
        },
        {
          "indexed": true,
          "internalType": "address",
          "name": "to",
          "type": "address"
        },
        {
          "indexed": false,
          "internalType": "uint256",
          "name": "id",
          "type": "uint256"
        },
        {
          "indexed": false,
          "internalType": "uint256",
          "name": "value",
          "type": "uint256"
        }
      ],
      "name": "TransferSingle",
      "type": "event"
    },
    {
      "inputs": [
        {
          "internalType": "address",
          "name": "account",
          "type": "address"
        },
        {
          "internalType": "uint256",
          "name": "id",
          "type": "uint256"
        },
        {
          "internalType": "uint256",
          "name": "amount",
          "type": "uint256"
        }
      ],
      "name": "__burn",
      "outputs": [],
      "stateMutability": "nonpayable",
      "type": "function"
    },
    {
      "inputs": [
        {
          "internalType": "address",
          "name": "account",
          "type": "address"
        },
        {
          "internalType": "uint256[]",
          "name": "ids",
          "type": "uint256[]"
        },
        {
          "internalType": "uint256[]",
          "name": "amounts",
          "type": "uint256[]"
        }
      ],
      "name": "__burnBatch",
      "outputs": [],
      "stateMutability": "nonpayable",
      "type": "function"
    },
    {
      "inputs": [
        {
          "internalType": "address",
          "name": "account",
          "type": "address"
        },
        {
          "internalType": "uint256",
          "name": "id",
          "type": "uint256"
        },
        {
          "internalType": "uint256",
          "name": "amount",
          "type": "uint256"
        }
      ],
      "name": "__mint",
      "outputs": [],
      "stateMutability": "nonpayable",
      "type": "function"
    },
    {
      "inputs": [
        {
          "internalType": "address",
          "name": "account",
          "type": "address"
        },
        {
          "internalType": "uint256[]",
          "name": "ids",
          "type": "uint256[]"
        },
        {
          "internalType": "uint256[]",
          "name": "amounts",
          "type": "uint256[]"
        }
      ],
      "name": "__mintBatch",
      "outputs": [],
      "stateMutability": "nonpayable",
      "type": "function"
    },
    {
      "inputs": [
        {
          "internalType": "address",
          "name": "account",
          "type": "address"
        },
        {
          "internalType": "uint256",
          "name": "id",
          "type": "uint256"
        },
        {
          "internalType": "uint256",
          "name": "amount",
          "type": "uint256"
        }
      ],
      "name": "__safeMint",
      "outputs": [],
      "stateMutability": "nonpayable",
      "type": "function"
    },
    {
      "inputs": [
        {
          "internalType": "address",
          "name": "account",
          "type": "address"
        },
        {
          "internalType": "uint256[]",
          "name": "ids",
          "type": "uint256[]"
        },
        {
          "internalType": "uint256[]",
          "name": "amounts",
          "type": "uint256[]"
        }
      ],
      "name": "__safeMintBatch",
      "outputs": [],
      "stateMutability": "nonpayable",
      "type": "function"
    },
    {
      "inputs": [
        {
          "internalType": "address",
          "name": "operator",
          "type": "address"
        },
        {
          "internalType": "address",
          "name": "sender",
          "type": "address"
        },
        {
          "internalType": "address",
          "name": "recipient",
          "type": "address"
        },
        {
          "internalType": "uint256",
          "name": "id",
          "type": "uint256"
        },
        {
          "internalType": "uint256",
          "name": "amount",
          "type": "uint256"
        },
        {
          "internalType": "bytes",
          "name": "data",
          "type": "bytes"
        }
      ],
      "name": "__safeTransfer",
      "outputs": [],
      "stateMutability": "nonpayable",
      "type": "function"
    },
    {
      "inputs": [
        {
          "internalType": "address",
          "name": "operator",
          "type": "address"
        },
        {
          "internalType": "address",
          "name": "sender",
          "type": "address"
        },
        {
          "internalType": "address",
          "name": "recipient",
          "type": "address"
        },
        {
          "internalType": "uint256[]",
          "name": "ids",
          "type": "uint256[]"
        },
        {
          "internalType": "uint256[]",
          "name": "amounts",
          "type": "uint256[]"
        },
        {
          "internalType": "bytes",
          "name": "data",
          "type": "bytes"
        }
      ],
      "name": "__safeTransferBatch",
      "outputs": [],
      "stateMutability": "nonpayable",
      "type": "function"
    },
    {
      "inputs": [
        {
          "internalType": "address",
          "name": "operator",
          "type": "address"
        },
        {
          "internalType": "address",
          "name": "sender",
          "type": "address"
        },
        {
          "internalType": "address",
          "name": "recipient",
          "type": "address"
        },
        {
          "internalType": "uint256",
          "name": "id",
          "type": "uint256"
        },
        {
          "internalType": "uint256",
          "name": "amount",
          "type": "uint256"
        },
        {
          "internalType": "bytes",
          "name": "data",
          "type": "bytes"
        }
      ],
      "name": "__transfer",
      "outputs": [],
      "stateMutability": "nonpayable",
      "type": "function"
    },
    {
      "inputs": [
        {
          "internalType": "address",
          "name": "operator",
          "type": "address"
        },
        {
          "internalType": "address",
          "name": "sender",
          "type": "address"
        },
        {
          "internalType": "address",
          "name": "recipient",
          "type": "address"
        },
        {
          "internalType": "uint256[]",
          "name": "ids",
          "type": "uint256[]"
        },
        {
          "internalType": "uint256[]",
          "name": "amounts",
          "type": "uint256[]"
        },
        {
          "internalType": "bytes",
          "name": "data",
          "type": "bytes"
        }
      ],
      "name": "__transferBatch",
      "outputs": [],
      "stateMutability": "nonpayable",
      "type": "function"
    },
    {
      "inputs": [
        {
          "internalType": "address",
          "name": "account",
          "type": "address"
        },
        {
          "internalType": "uint256",
          "name": "id",
          "type": "uint256"
        }
      ],
      "name": "balanceOf",
      "outputs": [
        {
          "internalType": "uint256",
          "name": "",
          "type": "uint256"
        }
      ],
      "stateMutability": "view",
      "type": "function"
    },
    {
      "inputs": [
        {
          "internalType": "address[]",
          "name": "accounts",
          "type": "address[]"
        },
        {
          "internalType": "uint256[]",
          "name": "ids",
          "type": "uint256[]"
        }
      ],
      "name": "balanceOfBatch",
      "outputs": [
        {
          "internalType": "uint256[]",
          "name": "",
          "type": "uint256[]"
        }
      ],
      "stateMutability": "view",
      "type": "function"
    },
    {
      "inputs": [
        {
          "internalType": "address",
          "name": "account",
          "type": "address"
        },
        {
          "internalType": "address",
          "name": "operator",
          "type": "address"
        }
      ],
      "name": "isApprovedForAll",
      "outputs": [
        {
          "internalType": "bool",
          "name": "",
          "type": "bool"
        }
      ],
      "stateMutability": "view",
      "type": "function"
    },
    {
      "inputs": [
        {
          "internalType": "address",
          "name": "from",
          "type": "address"
        },
        {
          "internalType": "address",
          "name": "to",
          "type": "address"
        },
        {
          "internalType": "uint256[]",
          "name": "ids",
          "type": "uint256[]"
        },
        {
          "internalType": "uint256[]",
          "name": "amounts",
          "type": "uint256[]"
        },
        {
          "internalType": "bytes",
          "name": "data",
          "type": "bytes"
        }
      ],
      "name": "safeBatchTransferFrom",
      "outputs": [],
      "stateMutability": "nonpayable",
      "type": "function"
    },
    {
      "inputs": [
        {
          "internalType": "address",
          "name": "from",
          "type": "address"
        },
        {
          "internalType": "address",
          "name": "to",
          "type": "address"
        },
        {
          "internalType": "uint256",
          "name": "id",
          "type": "uint256"
        },
        {
          "internalType": "uint256",
          "name": "amount",
          "type": "uint256"
        },
        {
          "internalType": "bytes",
          "name": "data",
          "type": "bytes"
        }
      ],
      "name": "safeTransferFrom",
      "outputs": [],
      "stateMutability": "nonpayable",
      "type": "function"
    },
    {
      "inputs": [
        {
          "internalType": "address",
          "name": "operator",
          "type": "address"
        },
        {
          "internalType": "bool",
          "name": "status",
          "type": "bool"
        }
      ],
      "name": "setApprovalForAll",
      "outputs": [],
      "stateMutability": "nonpayable",
      "type": "function"
    },
    {
      "inputs": [
        {
          "internalType": "bytes4",
          "name": "interfaceId",
          "type": "bytes4"
        }
      ],
      "name": "supportsInterface",
      "outputs": [
        {
          "internalType": "bool",
          "name": "",
          "type": "bool"
        }
      ],
      "stateMutability": "view",
      "type": "function"
    }
  ],
  "bytecode": {
    "object": "0x608080604052346100a0577ffc606c433378e3a7e0a6a531deac289b66caa1b4aa8554fd4ab2c6f1570f92d86020527f3df35b507c5de77f483b4e9b5c258409299a2e6dc816fa76a389e598628b08a58054600160ff199182168117909255636cdb3d1360e11b6000527fc4fa7de3a4df0d92e714265b62d48380cee39dd7653eba0d3265c599c330a3aa8054909116909117905561182790816100a68239f35b600080fdfe60806040908082526004918236101561001757600080fd5b600091823560e01c908162fdd58e14610e3d5750806301ffc9a714610de05780630ee5d3dd14610cde57806310b7150314610cc05780632380a90814610c9f5780632eb2c2d614610bdb5780634e1273f414610a4b57806368a3bd7c1461096b57806372b0589c146108d457806390080b141461073b578063a22cb465146106a5578063aae8e78714610484578063c0443c31146103b0578063c12e5c68146102f1578063c4f793e3146101ce578063e985e9c5146101835763f242432a146100df57600080fd5b3461017f5760a036600319011261017f576100f8610ea4565b610100610ebf565b9060843567ffffffffffffffff811161017b576101209036908701610ff9565b926001600160a01b0382163314158061015e575b610150575061014d939450606435916044359133611200565b80f35b516212efed60e91b81528590fd5b50610168826111c7565b33865260205260ff818620541615610134565b8480fd5b5080fd5b503461017f578060031936011261017f5760ff816020936101a2610ea4565b6101b36101ad610ebf565b916111c7565b6001600160a01b039091168252855220549151911615158152f35b508290346102ed576101df36611050565b509396936001600160a01b03928316939184156102dd5780518251036102cd5785985b81518a10156102a1576102158a8361119d565b5199610221818561119d565b51908b89526000805160206117d28339815191526020918183528b8b2089891690818d5284528c8c205490818611610291578f918d8f928893600196958352878952822091528652038d8d2055019c8a52815289892090888a525261028a8989209182546113f5565b9055610202565b8d5163119ac6bb60e31b81528f90fd5b9390926102c760008051602061179283398151915293838a519485941697169583611649565b0390a480f35b8651633e7e0b6d60e11b81528890fd5b865163f5cadad560e01b81528890fd5b8280fd5b50913461017f5761030136611173565b6001600160a01b039092169290919083156103a25761031f8361166e565b506103298261166e565b5084865161033681610ed5565b528285526000805160206117d283398151915260205285852090848652816020528686205483116103945750946000805160206117b2833981519152918596858752602052818620818154039055815193845260208401523392a480f35b8651634190713d60e01b8152fd5b855163baa75df760e01b8152fd5b5082346102ed576103c036610f9f565b93918583949294516103d181610ed5565b526001600160a01b03169081156104765783518551036104685750845b8584518210156104455750806104066001928761119d565b51610411828761119d565b51885260206000805160206117d2833981519152815285892090858a525261043d8589209182546113f5565b9055016103ee565b8281866000805160206117928339815191526102c78a8951918291339583611649565b8251633e7e0b6d60e11b8152fd5b82516301c8efbf60e11b8152fd5b5082346102ed5761049436610f9f565b84929493919351916104a583610ed5565b8683526001600160a01b03861692831561069657855183510361068757875b88875182101561051b5750806104dc6001928661119d565b516104e7828a61119d565b518b5260206000805160206117d28339815191528152888c2090888d5252610513888c209182546113f5565b9055016104c4565b83878685848c8b8f818488516000805160206117928339815191523391806105448c8a83611649565b0390a43b610550578280f35b6105906020936105a3936105b28a988a519889978896879563bc197c8160e01b9d8e8852339088015287602488015260a0604488015260a487019061113f565b600319938487830301606488015261113f565b918483030160848501526116c4565b03925af1859181610657575b5061063457505060016105cf611704565b6308c379a0146105f9575b6105ec5750505b818080808481808280f35b5163380147a960e01b8152fd5b610601611722565b8061060c57506105da565b905061063091602094505193849362461bcd60e51b855284015260248301906116c4565b0390fd5b6001600160e01b0319160361064a5750506105e1565b51633744db2960e01b8152fd5b61067991925060203d8111610680575b6106718183610f07565b8101906116a4565b90866105be565b503d610667565b508351633e7e0b6d60e11b8152fd5b5083516301c8efbf60e11b8152fd5b508290346102ed57806003193601126102ed576106c0610ea4565b906024359182151580930361017b576001600160a01b03169233841461072d57506106ea336111c7565b83855260205280842060ff1981541660ff8416179055519081527f17307eab39ab6107e8899845ad3d59bd9653f200f220920489ca2b5937696c3160203392a380f35b9051637b30a93360e11b8152fd5b508290346102ed5761074c36611173565b90835161075881610ed5565b8681526001600160a01b03841680156108c457908291610778899461166e565b506107828561166e565b508284526020956000805160206117d2833981519152875287852082865287528785206107b08782546113f5565b905581858951868152888a8201526000805160206117b28339815191528b3392a43b6107da578380f35b879461081d94879489519687958694859363f23a6e6160e01b9b8c865233908601528560248601526044850152606484015260a0608484015260a48301906116c4565b03925af18691816108a5575b5061088d57505060019061083b611704565b6308c379a01461085a575b506105ec5750505b81808080848180808380f35b610862611722565b8061086d5750610846565b6106308591855193849362461bcd60e51b855284015260248301906116c4565b6001600160e01b03191603905061064a57505061084e565b6108bd919250843d8611610680576106718183610f07565b9087610829565b85516301c8efbf60e11b81528790fd5b508290346102ed576108e536611173565b9092918583516108f481610ed5565b526001600160a01b0316938415610476575082916000805160206117b283398151915291610922879561166e565b5061092c8161166e565b508385526000805160206117d28339815191526020528185208686526020528185206109598282546113f5565b9055815193845260208401523392a480f35b503461017f5761097a366110dc565b506001600160a01b0392831695939491939291908615610a3b5761099d8561166e565b506109a78161166e565b508488526000805160206117d283398151915260209080825284868b20981697888b528252858a20549a8b8411610a2d5750828a9b886000805160206117b2833981519152999a9b9c528284528c8b8982209152845203868c2055878b528152848a20898b528152848a20610a1d8382546113f5565b905584519687528601521692a480f35b865163119ac6bb60e31b8152fd5b835163f5cadad560e01b81528990fd5b50913461017f578260031936011261017f5767ffffffffffffffff91813583811161017f573660238201121561017f578083013593610a8985610f29565b91610a9687519384610f07565b85835260209560248785019160051b83010191368311610bd757602401905b828210610bb4575050506024359081116102ed57610ad69036908501610f41565b938151855103610ba457815193610aec85610f29565b94610af988519687610f07565b808652610b08601f1991610f29565b013683870137835b8351811015610b8e576001600160a01b0380610b2c838761119d565b511615610b7e5790600191610b41828a61119d565b5187526000805160206117d2833981519152855289872090610b63838861119d565b51168752845288862054610b77828961119d565b5201610b10565b885163db5d879760e01b81528390fd5b875183815280610ba08186018961113f565b0390f35b8551633e7e0b6d60e11b81528490fd5b81356001600160a01b0381168103610bd3578152908701908701610ab5565b8680fd5b8580fd5b503461017f5760a036600319011261017f57610bf5610ea4565b610bfd610ebf565b67ffffffffffffffff9190604435838111610bd757610c1f9036908801610f41565b91606435848111610bd357610c379036908901610f41565b93608435908111610bd357610c4f9036908901610ff9565b946001600160a01b03821633141580610c82575b610c74575061014d95965033611418565b516212efed60e91b81528790fd5b50610c8c826111c7565b33885260205260ff818820541615610c63565b8234610cbd5761014d610cb1366110dc565b94939093929192611200565b80fd5b8234610cbd5761014d610cd236611050565b94939093929192611418565b50913461017f57610cee36610f9f565b94909390916001600160a01b03168015610dd1578451865103610dc257818351610d1781610ed5565b52815b8551811015610d9f57610d2d818761119d565b51610d38828961119d565b518185526000805160206117d283398151915260209181835287872086885283528787205410610d8f5790839291610d726001958c61119d565b519287528152868620908587525285852090815403905501610d1a565b8651634190713d60e01b81528890fd5b50846000805160206117928339815191526102c788859651918291339583611649565b505051633e7e0b6d60e11b8152fd5b50505163baa75df760e01b8152fd5b5082346102ed5760203660031901126102ed573563ffffffff60e01b81168091036102ed57818360ff92602095527ffc606c433378e3a7e0a6a531deac289b66caa1b4aa8554fd4ab2c6f1570f92d8855220541690519015158152f35b90508334610ea05782600319360112610ea0576001600160a01b03610e60610ea4565b16918215610e945760243585526000805160206117d283398151915260209081528486208487528152848620548551908152f35b63db5d879760e01b8152fd5b8380fd5b600435906001600160a01b0382168203610eba57565b600080fd5b602435906001600160a01b0382168203610eba57565b6020810190811067ffffffffffffffff821117610ef157604052565b634e487b7160e01b600052604160045260246000fd5b90601f8019910116810190811067ffffffffffffffff821117610ef157604052565b67ffffffffffffffff8111610ef15760051b60200190565b81601f82011215610eba57803591610f5883610f29565b92610f666040519485610f07565b808452602092838086019260051b820101928311610eba578301905b828210610f90575050505090565b81358152908301908301610f82565b6060600319820112610eba576004356001600160a01b0381168103610eba579167ffffffffffffffff602435818111610eba5783610fdf91600401610f41565b92604435918211610eba57610ff691600401610f41565b90565b81601f82011215610eba5780359067ffffffffffffffff8211610ef1576040519261102e601f8401601f191660200185610f07565b82845260208383010111610eba57816000926020809301838601378301015290565b60c0600319820112610eba576001600160a01b03906004358281168103610eba57926024358381168103610eba57926044359081168103610eba579167ffffffffffffffff91606435838111610eba57826110ad91600401610f41565b92608435818111610eba57836110c591600401610f41565b9260a435918211610eba57610ff691600401610ff9565b60c0600319820112610eba576001600160a01b03906004358281168103610eba57926024358381168103610eba57926044359081168103610eba5791606435916084359160a4359067ffffffffffffffff8211610eba57610ff691600401610ff9565b90815180825260208080930193019160005b82811061115f575050505090565b835185529381019392810192600101611151565b6060906003190112610eba576004356001600160a01b0381168103610eba57906024359060443590565b80518210156111b15760209160051b010190565b634e487b7160e01b600052603260045260246000fd5b6001600160a01b031660009081527f1799cf914cb0cb442ca7c7ac709ee40d0cb89e87351dc08d517fbda27d50c68c6020526040902090565b6001600160a01b0395909490919083871680156113e3576112208661166e565b5061122a8261166e565b506000958087526000805160206117d2833981519152986020988a8a5260409a828c8b20971696878b528b528b8a20548087116113d2578690858c52828d528d8c20898d528d52038c8b2055838a528a528a8920848a528a528a89206112918682546113f5565b905516958285886000805160206117b28339815191528d8d89825191898352820152a43b6112c5575b505050505050505050565b8688946113058b519788968795869463f23a6e6160e01b9c8d8752600487015260248601526044850152606484015260a0608484015260a48301906116c4565b03925af18391816113b3575b5061138a575050600191611323611704565b6308c379a014611354575b505061134457505b3880808080808080806112ba565b5163380147a960e01b8152600490fd5b61135c611722565b9182611368575061132e565b8461063091505192839262461bcd60e51b8452600484015260248301906116c4565b6001600160e01b0319160391506113a390505750611336565b51633744db2960e01b8152600490fd5b6113cb919250853d8711610680576106718183610f07565b9038611311565b8c5163119ac6bb60e31b8152600490fd5b60405163f5cadad560e01b8152600490fd5b9190820180921161140257565b634e487b7160e01b600052601160045260246000fd5b9593946001600160a01b0394858416949293909185156113e3578351885103611637576000985b84518a10156114f1576114528a8661119d565b519961145e818b61119d565b51908b6000526000805160206117d283398151915280602052604091826000208c8b1690816000526020528360002054908186116114e057918f6001926114d99695948892600052856020528660002090600052602052038460002055019d600052602052806000208a6000526020526000209182546113f5565b905561143f565b845163119ac6bb60e31b8152600490fd5b87929694939950979690949716961693828588600080516020611792833981519152604051806115228c8983611649565b0390a43b611533575b505050505050565b60006020946115746105a39761059096604051998a988997889663bc197c8160e01b9e8f89526004890152602488015260a0604488015260a487019061113f565b03925af160009181611617575b506115f65750506001611592611704565b6308c379a0146115bf575b6115ad575b38808080808061152b565b60405163380147a960e01b8152600490fd5b6115c7611722565b806115d2575061159d565b60405162461bcd60e51b8152602060048201529081906106309060248301906116c4565b6001600160e01b031916146115a257604051633744db2960e01b8152600490fd5b61163091925060203d8111610680576106718183610f07565b9038611581565b604051633e7e0b6d60e11b8152600490fd5b9091611660610ff69360408452604084019061113f565b91602081840391015261113f565b604051906040820182811067ffffffffffffffff821117610ef157604052600182526020820160203682378251156111b1575290565b90816020910312610eba57516001600160e01b031981168103610eba5790565b919082519283825260005b8481106116f0575050826000602080949584010152601f8019910116010190565b6020818301810151848301820152016116cf565b60009060033d1161171157565b905060046000803e60005160e01c90565b600060443d10610ff657604051600319913d83016004833e815167ffffffffffffffff918282113d60248401111761178057818401948551938411611788573d850101602084870101116117805750610ff692910160200190610f07565b949350505050565b5094935050505056fe4a39dc06d4c0dbc64b70af90fd698a233a518aa5d07e595d983b8c0526c8f7fbc3d58168c5ae7397731d063d5bbf3d657854427343f4c083240f7aacaa2d0f621799cf914cb0cb442ca7c7ac709ee40d0cb89e87351dc08d517fbda27d50c68ba26469706673582212202b0de91420df6e0313047f1ce9606b52bc66f22c1726a70add222b8dde84b5ab64736f6c63430008130033",
    "linkReferences": {}
  },
  "methodIdentifiers": {
    "__burn(address,uint256,uint256)": "c12e5c68",
    "__burnBatch(address,uint256[],uint256[])": "0ee5d3dd",
    "__mint(address,uint256,uint256)": "72b0589c",
    "__mintBatch(address,uint256[],uint256[])": "c0443c31",
    "__safeMint(address,uint256,uint256)": "90080b14",
    "__safeMintBatch(address,uint256[],uint256[])": "aae8e787",
    "__safeTransfer(address,address,address,uint256,uint256,bytes)": "2380a908",
    "__safeTransferBatch(address,address,address,uint256[],uint256[],bytes)": "10b71503",
    "__transfer(address,address,address,uint256,uint256,bytes)": "68a3bd7c",
    "__transferBatch(address,address,address,uint256[],uint256[],bytes)": "c4f793e3",
    "balanceOf(address,uint256)": "00fdd58e",
    "balanceOfBatch(address[],uint256[])": "4e1273f4",
    "isApprovedForAll(address,address)": "e985e9c5",
    "safeBatchTransferFrom(address,address,uint256[],uint256[],bytes)": "2eb2c2d6",
    "safeTransferFrom(address,address,uint256,uint256,bytes)": "f242432a",
    "setApprovalForAll(address,bool)": "a22cb465",
    "supportsInterface(bytes4)": "01ffc9a7"
  },
  "id": 419
}