{
  "abi": [
    {
      "inputs": [
        {
          "components": [
            {
              "internalType": "address",
              "name": "target",
              "type": "address"
            },
            {
              "internalType": "enum IDiamondWritableInternal.FacetCutAction",
              "name": "action",
              "type": "uint8"
            },
            {
              "internalType": "bytes4[]",
              "name": "selectors",
              "type": "bytes4[]"
            }
          ],
          "internalType": "struct IDiamondWritableInternal.FacetCut[]",
          "name": "cuts",
          "type": "tuple[]"
        }
      ],
      "stateMutability": "nonpayable",
      "type": "constructor"
    },
    {
      "inputs": [],
      "name": "DiamondWritable__InvalidInitializationParameters",
      "type": "error"
    },
    {
      "inputs": [],
      "name": "DiamondWritable__RemoveTargetNotZeroAddress",
      "type": "error"
    },
    {
      "inputs": [],
      "name": "DiamondWritable__ReplaceTargetIsIdentical",
      "type": "error"
    },
    {
      "inputs": [],
      "name": "DiamondWritable__SelectorAlreadyAdded",
      "type": "error"
    },
    {
      "inputs": [],
      "name": "DiamondWritable__SelectorIsImmutable",
      "type": "error"
    },
    {
      "inputs": [],
      "name": "DiamondWritable__SelectorNotFound",
      "type": "error"
    },
    {
      "inputs": [],
      "name": "DiamondWritable__SelectorNotSpecified",
      "type": "error"
    },
    {
      "inputs": [],
      "name": "DiamondWritable__TargetHasNoCode",
      "type": "error"
    },
    {
      "inputs": [],
      "name": "Ownable__NotOwner",
      "type": "error"
    },
    {
      "inputs": [],
      "name": "Ownable__NotTransitiveOwner",
      "type": "error"
    },
    {
      "inputs": [],
      "name": "Proxy__ImplementationIsNotContract",
      "type": "error"
    },
    {
      "anonymous": false,
      "inputs": [
        {
          "components": [
            {
              "internalType": "address",
              "name": "target",
              "type": "address"
            },
            {
              "internalType": "enum IDiamondWritableInternal.FacetCutAction",
              "name": "action",
              "type": "uint8"
            },
            {
              "internalType": "bytes4[]",
              "name": "selectors",
              "type": "bytes4[]"
            }
          ],
          "indexed": false,
          "internalType": "struct IDiamondWritableInternal.FacetCut[]",
          "name": "facetCuts",
          "type": "tuple[]"
        },
        {
          "indexed": false,
          "internalType": "address",
          "name": "target",
          "type": "address"
        },
        {
          "indexed": false,
          "internalType": "bytes",
          "name": "data",
          "type": "bytes"
        }
      ],
      "name": "DiamondCut",
      "type": "event"
    },
    {
      "anonymous": false,
      "inputs": [
        {
          "indexed": true,
          "internalType": "address",
          "name": "previousOwner",
          "type": "address"
        },
        {
          "indexed": true,
          "internalType": "address",
          "name": "newOwner",
          "type": "address"
        }
      ],
      "name": "OwnershipTransferred",
      "type": "event"
    },
    {
      "stateMutability": "payable",
      "type": "fallback"
    },
    {
      "inputs": [],
      "name": "getFallbackAddress",
      "outputs": [
        {
          "internalType": "address",
          "name": "fallbackAddress",
          "type": "address"
        }
      ],
      "stateMutability": "view",
      "type": "function"
    },
    {
      "inputs": [
        {
          "internalType": "address",
          "name": "fallbackAddress",
          "type": "address"
        }
      ],
      "name": "setFallbackAddress",
      "outputs": [],
      "stateMutability": "nonpayable",
      "type": "function"
    }
  ],
  "bytecode": {
    "object": "0x604060808152346200018d5762000df990813803806200001f81620001ee565b93843982019160209283828203126200018d5781516001600160401b03928382116200018d57019080601f830112156200018d5781516200006a620000648262000214565b620001ee565b938685838152019187600591821b860101948486116200018d57888101935b868510620000ab57886200009d896200022c565b516101f6908162000ba38239f35b84518481116200018d5782019060609182601f19828a0301126200018d57620000d3620001a8565b818d01519093906001600160a01b03811681036200018d5784528b82015160038110156200018d578d850152810151908682116200018d57019187603f840112156200018d578b808401518c6200012e620000648362000214565b92838381520191881b8601018a81116200018d578d8f9601905b80821062000164575050508b8201528152948101940162000089565b8151965090916001600160e01b0319871687036200018d578f8181988293520192019062000148565b600080fd5b634e487b7160e01b600052604160045260246000fd5b60405190606082016001600160401b03811183821017620001c857604052565b62000192565b60405190602082016001600160401b03811183821017620001c857604052565b6040519190601f01601f191682016001600160401b03811183821017620001c857604052565b6001600160401b038111620001c85760051b60200190565b7f8a22373512790c48b83a1fe2efdd2888d4a917bcdc24d0adf63e60f6716804608054919291336001600160a01b0382167f8be0079c531659141344cd1fd0a4f28419497f9722a3daafe3b4186f6b6457e0600080a36001600160a01b031916331790556200029a620001ce565b9160008352620002c6620002bf60008051602062000d998339815191525461ffff1690565b61ffff1690565b9081926000946007841662000464575b6000935b8351851015620003b257620002f0858562000494565b519060208201516200030281620004bf565b6040808401515115620003a257506200031b81620004bf565b806200033d575090600197620003319262000613565b9690945b0193620002da565b6200034c8197939297620004bf565b600181036200036a5750906200036460019262000a6b565b62000335565b8062000378600292620004bf565b1462000389575b5060019062000335565b600197620003989296620007c6565b969094906200037f565b5163eb6c3aeb60e01b8152600490fd5b819450957f8faa70878671ccd212d20771b795c50af8fd3ff6cf27f4bde57e5d4de0aeb673939192966200040e9681036200043f575b6007811662000410575b5050620004056040519283928362000522565b0390a162000b84565b565b620004369060031c60005260008051602062000dd9833981519152602052604060002090565b553880620003f2565b60008051602062000d99833981519152805461ffff191661ffff8316179055620003e8565b94506200048c8360031c60005260008051602062000dd9833981519152602052604060002090565b5494620002d6565b8051821015620004a95760209160051b010190565b634e487b7160e01b600052603260045260246000fd5b60031115620004ca57565b634e487b7160e01b600052602160045260246000fd5b919082519283825260005b8481106200050d575050826000602080949584010152601f8019910116010190565b602081830181015184830182015201620004eb565b919091606092838201848352815180915260809485840191868160051b860101966020809501936000915b8383106200057957505050505050906000620005769493928201526040818403910152620004e0565b90565b909192939498607f198882030183528951908681019060018060a01b038351168152888301516003811015620004ca5784828b9594939286809401528a604080960151958201528451809452019201906000905b808210620005ee5750505090806001929b019301930191949392906200054d565b82516001600160e01b03191684528a94938401939092019160019190910190620005cd565b82519091906001600160a01b03166001600160a01b0381163014159081620007bb575b50620007a95760009384925b60408086015180518610156200079d576200066286620006709262000494565b516001600160e01b03191690565b90620006c9620006bd620006b7620006a98563ffffffff60e01b1660005260008051602062000db9833981519152602052604060002090565b546001600160601b03191690565b60601c90565b6001600160a01b031690565b6200078d5750855182906001600160601b031990620006fc906001600160a01b03165b60601b6001600160601b03191690565b16176200072a8263ffffffff60e01b1660005260008051602062000db9833981519152602052604060002090565b5560e090818360051b169463ffffffff60e01b809216861c91861c19161793146200075d575b6001938401930162000642565b91620007848360031c60005260008051602062000dd9833981519152602052604060002090565b55849162000750565b51634923a77160e11b8152600490fd5b50509250925092509190565b604051633ddc5cab60e21b8152600490fd5b3b1590503862000636565b82519293929091906001600160a01b031662000a595790600780821691600390600090821c5b60409586890151805184101562000a4a5762000662846200080d9262000494565b956200083a8763ffffffff60e01b1660005260008051602062000db9833981519152602052604060002090565b54978860601c801562000a3957301462000a2957508162000a1657505060001901906200087f8260005260008051602062000dd9833981519152602052604060002090565b5494849687915b60e063ffffffff811b926000620008d1858c600598891b1b16948681168603620009925763ffffffff60e01b1660005260008051602062000db9833981519152602052604060002090565b5580881c611fff16941b16918584146200097f57906200093792916200090f8560005260008051602062000dd9833981519152602052604060002090565b5491831c921c1916179160005260008051602062000dd9833981519152602052604060002090565b555b85156200094e575b60010190949394620007ec565b93506000620009758260005260008051602062000dd9833981519152602052604060002090565b5560009362000941565b9180949893501c921c1916179362000939565b620009d3620009c6620006a98863ffffffff60e01b1660005260008051602062000db9833981519152602052604060002090565b6001600160601b03191690565b6001600160e01b0319878116600090815260008051602062000db983398151915260205260408082206001600160601b0389169490941790935592168252902090565b6000190196909591929187919062000886565b5163e983573160e01b8152600490fd5b81516337e25a9760e11b8152600490fd5b5097509394505090501b179190565b604051633ab3490960e21b8152600490fd5b80516001600160a01b03163b15620007a95760005b604080830151805183101562000b7e57620006628362000aa09262000494565b9062000acd8263ffffffff60e01b1660005260008051602062000db9833981519152602052604060002090565b54908160601c801562000a395730811462000b6d57855162000af8906001600160a01b0316620006bd565b1462000b5d57508351600193929162000b559162000b2490620009c6906001600160a01b0316620006ec565b90858060601b0316179163ffffffff60e01b1660005260008051602062000db9833981519152602052604060002090565b550162000a80565b516330baabf360e11b8152600490fd5b815163e983573160e01b8152600490fd5b50505050565b511560010362000b9057565b6040516326df4ccd60e01b8152600490fdfe608060405260043610610112576000803560e01c80632c408059146100cc5763914237651461002e5750610112565b346100c95760203660031901126100c9576004356001600160a01b03818116918290036100c5577f8a22373512790c48b83a1fe2efdd2888d4a917bcdc24d0adf63e60f671680460541633036100b3577f177481ac65e4292921c69f62d1cc7f57541261e5d61c8175cf4e36a01c9bfc9680546001600160a01b031916909117905580f35b604051632f7a8ee160e01b8152600490fd5b8280fd5b80fd5b50346100c957806003193601126100c9577f177481ac65e4292921c69f62d1cc7f57541261e5d61c8175cf4e36a01c9bfc96546001600160a01b03166080908152602090f35b600080356001600160e01b03191681527f177481ac65e4292921c69f62d1cc7f57541261e5d61c8175cf4e36a01c9bfc93602052604090205460601c801561018f575b803b1561017d5760008091368280378136915af43d6000803e15610178573d6000f35b3d6000fd5b6040516321f27f0d60e21b8152600490fd5b507f177481ac65e4292921c69f62d1cc7f57541261e5d61c8175cf4e36a01c9bfc96546001600160a01b031661015556fea2646970667358221220d5aeccd3f8d31b2184f8b87057bf56b18f9ca2b37d8cfdb2abbd0d8525e004c164736f6c63430008130033177481ac65e4292921c69f62d1cc7f57541261e5d61c8175cf4e36a01c9bfc94177481ac65e4292921c69f62d1cc7f57541261e5d61c8175cf4e36a01c9bfc93177481ac65e4292921c69f62d1cc7f57541261e5d61c8175cf4e36a01c9bfc95",
    "linkReferences": {}
  },
  "methodIdentifiers": {
    "getFallbackAddress()": "2c408059",
    "setFallbackAddress(address)": "91423765"
  },
  "id": 307
}