{
  "abi": [
    {
      "inputs": [
        {
          "internalType": "string",
          "name": "name",
          "type": "string"
        },
        {
          "internalType": "string",
          "name": "symbol",
          "type": "string"
        },
        {
          "internalType": "string",
          "name": "baseURI",
          "type": "string"
        }
      ],
      "stateMutability": "nonpayable",
      "type": "constructor"
    },
    {
      "inputs": [],
      "name": "ERC165Base__InvalidInterfaceId",
      "type": "error"
    },
    {
      "inputs": [],
      "name": "ERC721Base__BalanceQueryZeroAddress",
      "type": "error"
    },
    {
      "inputs": [],
      "name": "ERC721Base__ERC721ReceiverNotImplemented",
      "type": "error"
    },
    {
      "inputs": [],
      "name": "ERC721Base__InvalidOwner",
      "type": "error"
    },
    {
      "inputs": [],
      "name": "ERC721Base__MintToZeroAddress",
      "type": "error"
    },
    {
      "inputs": [],
      "name": "ERC721Base__NonExistentToken",
      "type": "error"
    },
    {
      "inputs": [],
      "name": "ERC721Base__NotOwnerOrApproved",
      "type": "error"
    },
    {
      "inputs": [],
      "name": "ERC721Base__NotTokenOwner",
      "type": "error"
    },
    {
      "inputs": [],
      "name": "ERC721Base__SelfApproval",
      "type": "error"
    },
    {
      "inputs": [],
      "name": "ERC721Base__TokenAlreadyMinted",
      "type": "error"
    },
    {
      "inputs": [],
      "name": "ERC721Base__TransferToZeroAddress",
      "type": "error"
    },
    {
      "inputs": [],
      "name": "ERC721Metadata__NonExistentToken",
      "type": "error"
    },
    {
      "anonymous": false,
      "inputs": [
        {
          "indexed": true,
          "internalType": "address",
          "name": "owner",
          "type": "address"
        },
        {
          "indexed": true,
          "internalType": "address",
          "name": "operator",
          "type": "address"
        },
        {
          "indexed": true,
          "internalType": "uint256",
          "name": "tokenId",
          "type": "uint256"
        }
      ],
      "name": "Approval",
      "type": "event"
    },
    {
      "anonymous": false,
      "inputs": [
        {
          "indexed": true,
          "internalType": "address",
          "name": "owner",
          "type": "address"
        },
        {
          "indexed": true,
          "internalType": "address",
          "name": "operator",
          "type": "address"
        },
        {
          "indexed": false,
          "internalType": "bool",
          "name": "approved",
          "type": "bool"
        }
      ],
      "name": "ApprovalForAll",
      "type": "event"
    },
    {
      "anonymous": false,
      "inputs": [
        {
          "indexed": true,
          "internalType": "address",
          "name": "from",
          "type": "address"
        },
        {
          "indexed": true,
          "internalType": "address",
          "name": "to",
          "type": "address"
        },
        {
          "indexed": true,
          "internalType": "uint256",
          "name": "tokenId",
          "type": "uint256"
        }
      ],
      "name": "Transfer",
      "type": "event"
    },
    {
      "inputs": [],
      "name": "name",
      "outputs": [
        {
          "internalType": "string",
          "name": "",
          "type": "string"
        }
      ],
      "stateMutability": "view",
      "type": "function"
    },
    {
      "inputs": [
        {
          "internalType": "bytes4",
          "name": "interfaceId",
          "type": "bytes4"
        }
      ],
      "name": "supportsInterface",
      "outputs": [
        {
          "internalType": "bool",
          "name": "",
          "type": "bool"
        }
      ],
      "stateMutability": "view",
      "type": "function"
    },
    {
      "inputs": [],
      "name": "symbol",
      "outputs": [
        {
          "internalType": "string",
          "name": "",
          "type": "string"
        }
      ],
      "stateMutability": "view",
      "type": "function"
    },
    {
      "inputs": [
        {
          "internalType": "uint256",
          "name": "tokenId",
          "type": "uint256"
        }
      ],
      "name": "tokenURI",
      "outputs": [
        {
          "internalType": "string",
          "name": "",
          "type": "string"
        }
      ],
      "stateMutability": "view",
      "type": "function"
    }
  ],
  "bytecode": {
    "object": "0x608060405234620004b45762000ce8803803806200001d81620004b9565b9283398101606082820312620004b45781516001600160401b0390818111620004b457826200004e918501620004df565b9160209384810151838111620004b457826200006c918301620004df565b916040820151848111620004b457620000869201620004df565b835191838311620002f4577f99574a7094154bb123ae6ae102096f0bf9679b85a5cd1e727aaa0ae5f132e6b18054936001968786811c96168015620004a9575b89871014620002d3578190601f9687811162000453575b508990878311600114620003eb57600092620003df575b5050600019600383901b1c191690871b1790555b8051848111620002f4577f99574a7094154bb123ae6ae102096f0bf9679b85a5cd1e727aaa0ae5f132e6b2918254908782811c92168015620003d4575b89831014620002d35781868493116200037e575b50889086831160011462000316576000926200030a575b5050600019600383901b1c191690861b1790555b8051928311620002f4577f99574a7094154bb123ae6ae102096f0bf9679b85a5cd1e727aaa0ae5f132e6b39485548581811c91168015620002e9575b82821014620002d35783811162000288575b50809284116001146200021d575092829391839260009462000211575b50501b916000199060031b1c19161790555b6040516107969081620005528239f35b015192503880620001ef565b919083601f1981168760005284600020946000905b888383106200026d575050501062000253575b505050811b01905562000201565b015160001960f88460031b161c1916905538808062000245565b85870151885590960195948501948793509081019062000232565b86600052816000208480870160051c820192848810620002c9575b0160051c019086905b828110620002bc575050620001d2565b60008155018690620002ac565b92508192620002a3565b634e487b7160e01b600052602260045260246000fd5b90607f1690620001c0565b634e487b7160e01b600052604160045260246000fd5b01519050388062000170565b90889350601f19831691856000528a6000209260005b8c8282106200036757505084116200034d575b505050811b01905562000184565b015160001960f88460031b161c191690553880806200033f565b8385015186558c979095019493840193016200032c565b90915083600052886000208680850160051c8201928b8610620003ca575b918a91869594930160051c01915b828110620003ba57505062000159565b600081558594508a9101620003aa565b925081926200039c565b91607f169162000145565b015190503880620000f4565b90899350601f19831691856000528b6000209260005b8d8282106200043c575050841162000422575b505050811b01905562000108565b015160001960f88460031b161c1916905538808062000414565b8385015186558d9790950194938401930162000401565b90915083600052896000208780850160051c8201928c86106200049f575b918b91869594930160051c01915b8281106200048f575050620000dd565b600081558594508b91016200047f565b9250819262000471565b95607f1695620000c6565b600080fd5b6040519190601f01601f191682016001600160401b03811183821017620002f457604052565b919080601f84011215620004b45782516001600160401b038111620002f45760209062000515601f8201601f19168301620004b9565b92818452828287010111620004b45760005b8181106200053d57508260009394955001015290565b85810183015184820184015282016200052756fe60806040818152600436101561001457600080fd5b600091823560e01c90816301ffc9a71461027c5750806306fdde03146101a057806395d89b41146100815763c87b56dd1461004e57600080fd5b3461007d57602036600319011261007d576100799061006e600435610367565b905191829182610303565b0390f35b5080fd5b503461007d578160031936011261007d57805190827f99574a7094154bb123ae6ae102096f0bf9679b85a5cd1e727aaa0ae5f132e6b280549160019083821c92828516948515610196575b60209586861081146101825785895290811561015e5750600114610106575b61007987876100fc828c038361032f565b5191829182610303565b81529295507f4d5a81d91ab5d0eb928391f3fb432d708f1a8a13471720d8e842441f4faa79d65b82841061014b5750505082610079946100fc928201019438806100eb565b805486850188015292860192810161012d565b60ff19168887015250505050151560051b83010192506100fc8261007938806100eb565b634e487b7160e01b84526022600452602484fd5b93607f16936100cc565b503461007d578160031936011261007d57805190827f99574a7094154bb123ae6ae102096f0bf9679b85a5cd1e727aaa0ae5f132e6b180549160019083821c92828516948515610272575b60209586861081146101825785895290811561015e575060011461021a5761007987876100fc828c038361032f565b81529295507f9da0b376ea5eac987e00ddf645ea1acba63ab64b37f9d745b363c22385ad39cb5b82841061025f5750505082610079946100fc928201019438806100eb565b8054868501880152928601928101610241565b93607f16936101eb565b919050346102dc5760203660031901126102dc5760043563ffffffff60e01b81168091036102d85783527ffc606c433378e3a7e0a6a531deac289b66caa1b4aa8554fd4ab2c6f1570f92d8602090815292205460ff1615158152f35b8380fd5b8280fd5b60005b8381106102f35750506000910152565b81810151838201526020016102e3565b6040916020825261032381518092816020860152602086860191016102e0565b601f01601f1916010190565b90601f8019910116810190811067ffffffffffffffff82111761035157604052565b634e487b7160e01b600052604160045260246000fd5b60009080825260207f3c7bf052874fa81625121783266a03507bd2cd48b16e571c01a04e8dd3fb07a78152604091828420541561062d578084527f99574a7094154bb123ae6ae102096f0bf9679b85a5cd1e727aaa0ae5f132e6b48252828420835194809282549260019484861c91868616958615610623575b888410871461060f57838b52888b01968b9392918a9082156105f15750506001146105b4575b506104149250038861032f565b855193827f99574a7094154bb123ae6ae102096f0bf9679b85a5cd1e727aaa0ae5f132e6b39182549485821c938287169687156105aa575b8a8610881461059657858a528a8a01978a95949392918c90821561057457505060011461051b575b5050506104839250038561032f565b83516104925750505050505090565b8692939495965115156000146104e05750906104d16104dd959493926104c29751978895518092888801906102e0565b840191518093868401906102e0565b0103808452018261032f565b90565b6104dd959493506105079692506104f690610659565b9151958693518092868601906102e0565b82016104d1825180938680850191016102e0565b8152899250907f67cc5f5749495f491c1f67fb661125e4e485874b321951d3c0fa07bc42f111ec5b85831061055c5750506104839350820101388080610474565b8054838b018501528994508a93909201918101610543565b93509450505061048394915060ff19168652151560051b820101388080610474565b634e487b7160e01b83526022600452602483fd5b94607f169461044c565b915050835287868085208786915b8583106105d9575050610414935082010138610407565b90919383858354920101520191018790878b936105c2565b60ff1916895261041495151560051b85010192503891506104079050565b634e487b7160e01b86526022600452602486fd5b92607f16926103e1565b8251624705a760e71b8152600490fd5b67ffffffffffffffff811161035157601f01601f191660200190565b80156107315780816000925b61071757506106738261063d565b91610681604051938461032f565b80835281601f196106918361063d565b013660208601375b6106a257505090565b90600019820190828211610701578192600a92603090848406820180921161070157865111156106eb5760f81b6001600160f81b03191660001a908501601f0153049081610699565b634e487b7160e01b600052603260045260246000fd5b634e487b7160e01b600052601160045260246000fd5b90916000198114610701576001019190600a900480610665565b506040516040810181811067ffffffffffffffff8211176103515760405260018152600360fc1b60208201529056fea2646970667358221220c1c82d0a93546cc8fd5b339e8099acbf9c909fc7db1d02ada4a07c522838bbc964736f6c63430008130033",
    "linkReferences": {}
  },
  "methodIdentifiers": {
    "name()": "06fdde03",
    "supportsInterface(bytes4)": "01ffc9a7",
    "symbol()": "95d89b41",
    "tokenURI(uint256)": "c87b56dd"
  },
  "id": 503
}