{
  "abi": [
    {
      "inputs": [],
      "name": "decimals",
      "outputs": [
        {
          "internalType": "uint256",
          "name": "",
          "type": "uint256"
        }
      ],
      "stateMutability": "pure",
      "type": "function"
    }
  ],
  "bytecode": {
    "object": "0x60808060405234601457607a908161001a8239f35b600080fdfe6080806040526004361015601257600080fd5b600090813560e01c63313ce56714602857600080fd5b34604057816003193601126040576000198152602090f35b5080fdfea26469706673582212207bf1acaa52027a9a2f61f864f9b3f693b8317ea5ea4312aa32ed9e23c0ac7d8564736f6c63430008130033",
    "linkReferences": {}
  },
  "methodIdentifiers": {
    "decimals()": "313ce567"
  },
  "id": 130
}