{
  "abi": [
    {
      "inputs": [
        {
          "internalType": "string",
          "name": "baseURI",
          "type": "string"
        },
        {
          "internalType": "string",
          "name": "name",
          "type": "string"
        },
        {
          "internalType": "string",
          "name": "symbol",
          "type": "string"
        }
      ],
      "stateMutability": "nonpayable",
      "type": "constructor"
    },
    {
      "anonymous": false,
      "inputs": [
        {
          "indexed": true,
          "internalType": "address",
          "name": "owner",
          "type": "address"
        },
        {
          "indexed": true,
          "internalType": "address",
          "name": "approved",
          "type": "address"
        },
        {
          "indexed": true,
          "internalType": "uint256",
          "name": "tokenId",
          "type": "uint256"
        }
      ],
      "name": "Approval",
      "type": "event"
    },
    {
      "anonymous": false,
      "inputs": [
        {
          "indexed": true,
          "internalType": "address",
          "name": "owner",
          "type": "address"
        },
        {
          "indexed": true,
          "internalType": "address",
          "name": "operator",
          "type": "address"
        },
        {
          "indexed": false,
          "internalType": "bool",
          "name": "approved",
          "type": "bool"
        }
      ],
      "name": "ApprovalForAll",
      "type": "event"
    },
    {
      "anonymous": false,
      "inputs": [
        {
          "indexed": true,
          "internalType": "address",
          "name": "from",
          "type": "address"
        },
        {
          "indexed": true,
          "internalType": "address",
          "name": "to",
          "type": "address"
        },
        {
          "indexed": true,
          "internalType": "uint256",
          "name": "tokenId",
          "type": "uint256"
        }
      ],
      "name": "Transfer",
      "type": "event"
    },
    {
      "anonymous": false,
      "inputs": [
        {
          "indexed": false,
          "internalType": "uint256",
          "name": "tokenID",
          "type": "uint256"
        }
      ],
      "name": "UpdateLevels",
      "type": "event"
    },
    {
      "inputs": [
        {
          "internalType": "address",
          "name": "to",
          "type": "address"
        },
        {
          "internalType": "uint256",
          "name": "tokenId",
          "type": "uint256"
        }
      ],
      "name": "approve",
      "outputs": [],
      "stateMutability": "nonpayable",
      "type": "function"
    },
    {
      "inputs": [
        {
          "internalType": "uint256",
          "name": "_tokenId",
          "type": "uint256"
        }
      ],
      "name": "aviationLevels",
      "outputs": [
        {
          "internalType": "uint256",
          "name": "",
          "type": "uint256"
        }
      ],
      "stateMutability": "view",
      "type": "function"
    },
    {
      "inputs": [
        {
          "internalType": "uint256",
          "name": "tokenId",
          "type": "uint256"
        }
      ],
      "name": "aviationLock",
      "outputs": [],
      "stateMutability": "nonpayable",
      "type": "function"
    },
    {
      "inputs": [
        {
          "internalType": "uint256",
          "name": "winnerTokenId",
          "type": "uint256"
        },
        {
          "internalType": "uint256",
          "name": "loserTokenId",
          "type": "uint256"
        }
      ],
      "name": "aviationMovePoints",
      "outputs": [],
      "stateMutability": "nonpayable",
      "type": "function"
    },
    {
      "inputs": [
        {
          "internalType": "uint256",
          "name": "_tokenId",
          "type": "uint256"
        }
      ],
      "name": "aviationPilotAddresses",
      "outputs": [
        {
          "internalType": "address",
          "name": "",
          "type": "address"
        }
      ],
      "stateMutability": "view",
      "type": "function"
    },
    {
      "inputs": [
        {
          "internalType": "uint256",
          "name": "_tokenId",
          "type": "uint256"
        }
      ],
      "name": "aviationPilotIds",
      "outputs": [
        {
          "internalType": "uint256",
          "name": "",
          "type": "uint256"
        }
      ],
      "stateMutability": "view",
      "type": "function"
    },
    {
      "inputs": [
        {
          "internalType": "uint256",
          "name": "_tokenId",
          "type": "uint256"
        }
      ],
      "name": "aviationPoints",
      "outputs": [
        {
          "internalType": "uint256",
          "name": "",
          "type": "uint256"
        }
      ],
      "stateMutability": "view",
      "type": "function"
    },
    {
      "inputs": [
        {
          "internalType": "uint256",
          "name": "_tokenId",
          "type": "uint256"
        }
      ],
      "name": "aviationTradeLock",
      "outputs": [
        {
          "internalType": "bool",
          "name": "",
          "type": "bool"
        }
      ],
      "stateMutability": "view",
      "type": "function"
    },
    {
      "inputs": [
        {
          "internalType": "uint256",
          "name": "tokenId",
          "type": "uint256"
        }
      ],
      "name": "aviationUnlock",
      "outputs": [],
      "stateMutability": "nonpayable",
      "type": "function"
    },
    {
      "inputs": [
        {
          "internalType": "address",
          "name": "owner",
          "type": "address"
        }
      ],
      "name": "balanceOf",
      "outputs": [
        {
          "internalType": "uint256",
          "name": "",
          "type": "uint256"
        }
      ],
      "stateMutability": "view",
      "type": "function"
    },
    {
      "inputs": [
        {
          "internalType": "address",
          "name": "_gameAddress",
          "type": "address"
        }
      ],
      "name": "gameAddresses",
      "outputs": [
        {
          "internalType": "bool",
          "name": "",
          "type": "bool"
        }
      ],
      "stateMutability": "view",
      "type": "function"
    },
    {
      "inputs": [
        {
          "internalType": "uint256",
          "name": "tokenId",
          "type": "uint256"
        }
      ],
      "name": "getApproved",
      "outputs": [
        {
          "internalType": "address",
          "name": "",
          "type": "address"
        }
      ],
      "stateMutability": "view",
      "type": "function"
    },
    {
      "inputs": [
        {
          "internalType": "address",
          "name": "owner",
          "type": "address"
        },
        {
          "internalType": "address",
          "name": "operator",
          "type": "address"
        }
      ],
      "name": "isApprovedForAll",
      "outputs": [
        {
          "internalType": "bool",
          "name": "",
          "type": "bool"
        }
      ],
      "stateMutability": "view",
      "type": "function"
    },
    {
      "inputs": [
        {
          "internalType": "address",
          "name": "spender",
          "type": "address"
        },
        {
          "internalType": "uint256",
          "name": "tokenId",
          "type": "uint256"
        }
      ],
      "name": "isApprovedOrOwner",
      "outputs": [
        {
          "internalType": "bool",
          "name": "",
          "type": "bool"
        }
      ],
      "stateMutability": "view",
      "type": "function"
    },
    {
      "inputs": [
        {
          "internalType": "uint256",
          "name": "tokenId",
          "type": "uint256"
        }
      ],
      "name": "isAviationLocked",
      "outputs": [
        {
          "internalType": "bool",
          "name": "",
          "type": "bool"
        }
      ],
      "stateMutability": "view",
      "type": "function"
    },
    {
      "inputs": [],
      "name": "metadataBaseURI",
      "outputs": [
        {
          "internalType": "string",
          "name": "",
          "type": "string"
        }
      ],
      "stateMutability": "view",
      "type": "function"
    },
    {
      "inputs": [
        {
          "internalType": "address",
          "name": "to",
          "type": "address"
        }
      ],
      "name": "mint",
      "outputs": [],
      "stateMutability": "nonpayable",
      "type": "function"
    },
    {
      "inputs": [],
      "name": "mintable",
      "outputs": [
        {
          "internalType": "bool",
          "name": "",
          "type": "bool"
        }
      ],
      "stateMutability": "view",
      "type": "function"
    },
    {
      "inputs": [],
      "name": "name",
      "outputs": [
        {
          "internalType": "string",
          "name": "",
          "type": "string"
        }
      ],
      "stateMutability": "view",
      "type": "function"
    },
    {
      "inputs": [
        {
          "internalType": "uint256",
          "name": "tokenId",
          "type": "uint256"
        }
      ],
      "name": "ownerOf",
      "outputs": [
        {
          "internalType": "address",
          "name": "",
          "type": "address"
        }
      ],
      "stateMutability": "view",
      "type": "function"
    },
    {
      "inputs": [
        {
          "internalType": "address",
          "name": "_pilotAddress",
          "type": "address"
        }
      ],
      "name": "pilotAddressesToNames",
      "outputs": [
        {
          "internalType": "string",
          "name": "",
          "type": "string"
        }
      ],
      "stateMutability": "view",
      "type": "function"
    },
    {
      "inputs": [
        {
          "internalType": "address",
          "name": "_pilotAddress",
          "type": "address"
        }
      ],
      "name": "pilotAddressesToUrls",
      "outputs": [
        {
          "internalType": "string",
          "name": "",
          "type": "string"
        }
      ],
      "stateMutability": "view",
      "type": "function"
    },
    {
      "inputs": [
        {
          "internalType": "address",
          "name": "_pilotAddress",
          "type": "address"
        },
        {
          "internalType": "uint256",
          "name": "_pilotId",
          "type": "uint256"
        }
      ],
      "name": "pilotToToken",
      "outputs": [
        {
          "internalType": "uint256",
          "name": "",
          "type": "uint256"
        }
      ],
      "stateMutability": "view",
      "type": "function"
    },
    {
      "inputs": [
        {
          "internalType": "address",
          "name": "game",
          "type": "address"
        },
        {
          "internalType": "address",
          "name": "to",
          "type": "address"
        },
        {
          "internalType": "uint256[]",
          "name": "ids",
          "type": "uint256[]"
        },
        {
          "internalType": "uint256[]",
          "name": "amounts",
          "type": "uint256[]"
        }
      ],
      "name": "refundResourcesFromGame",
      "outputs": [],
      "stateMutability": "nonpayable",
      "type": "function"
    },
    {
      "inputs": [
        {
          "internalType": "address",
          "name": "gameAddress",
          "type": "address"
        },
        {
          "internalType": "bool",
          "name": "enable",
          "type": "bool"
        }
      ],
      "name": "registerGameAddress",
      "outputs": [],
      "stateMutability": "nonpayable",
      "type": "function"
    },
    {
      "inputs": [
        {
          "internalType": "address",
          "name": "metadataAddress",
          "type": "address"
        }
      ],
      "name": "registerMetadataAddress",
      "outputs": [],
      "stateMutability": "nonpayable",
      "type": "function"
    },
    {
      "inputs": [
        {
          "internalType": "string",
          "name": "metadataURI",
          "type": "string"
        }
      ],
      "name": "registerMetadataURI",
      "outputs": [],
      "stateMutability": "nonpayable",
      "type": "function"
    },
    {
      "inputs": [
        {
          "internalType": "address",
          "name": "pilotAddress",
          "type": "address"
        },
        {
          "internalType": "string",
          "name": "pilotCollectionName",
          "type": "string"
        },
        {
          "internalType": "string",
          "name": "baseUrl",
          "type": "string"
        }
      ],
      "name": "registerPilotAddress",
      "outputs": [],
      "stateMutability": "nonpayable",
      "type": "function"
    },
    {
      "inputs": [
        {
          "internalType": "address",
          "name": "resourcesAddress",
          "type": "address"
        }
      ],
      "name": "registerResourcesAddress",
      "outputs": [],
      "stateMutability": "nonpayable",
      "type": "function"
    },
    {
      "inputs": [
        {
          "internalType": "address",
          "name": "from",
          "type": "address"
        },
        {
          "internalType": "address",
          "name": "game",
          "type": "address"
        },
        {
          "internalType": "uint256[]",
          "name": "ids",
          "type": "uint256[]"
        },
        {
          "internalType": "uint256[]",
          "name": "amounts",
          "type": "uint256[]"
        }
      ],
      "name": "requestResourcesForGame",
      "outputs": [],
      "stateMutability": "nonpayable",
      "type": "function"
    },
    {
      "inputs": [
        {
          "internalType": "address",
          "name": "from",
          "type": "address"
        },
        {
          "internalType": "address",
          "name": "to",
          "type": "address"
        },
        {
          "internalType": "uint256",
          "name": "tokenId",
          "type": "uint256"
        }
      ],
      "name": "safeTransferFrom",
      "outputs": [],
      "stateMutability": "nonpayable",
      "type": "function"
    },
    {
      "inputs": [
        {
          "internalType": "address",
          "name": "from",
          "type": "address"
        },
        {
          "internalType": "address",
          "name": "to",
          "type": "address"
        },
        {
          "internalType": "uint256",
          "name": "tokenId",
          "type": "uint256"
        },
        {
          "internalType": "bytes",
          "name": "data",
          "type": "bytes"
        }
      ],
      "name": "safeTransferFrom",
      "outputs": [],
      "stateMutability": "nonpayable",
      "type": "function"
    },
    {
      "inputs": [
        {
          "internalType": "address",
          "name": "operator",
          "type": "address"
        },
        {
          "internalType": "bool",
          "name": "approved",
          "type": "bool"
        }
      ],
      "name": "setApprovalForAll",
      "outputs": [],
      "stateMutability": "nonpayable",
      "type": "function"
    },
    {
      "inputs": [
        {
          "internalType": "bool",
          "name": "_mintable",
          "type": "bool"
        }
      ],
      "name": "setMintable",
      "outputs": [],
      "stateMutability": "nonpayable",
      "type": "function"
    },
    {
      "inputs": [],
      "name": "mercuryMetadata",
      "outputs": [
        {
          "internalType": "contract MercuryMetadata",
          "name": "",
          "type": "address"
        }
      ],
      "stateMutability": "view",
      "type": "function"
    },
    {
      "inputs": [],
      "name": "mercuryResources",
      "outputs": [
        {
          "internalType": "contract MercuryResources",
          "name": "",
          "type": "address"
        }
      ],
      "stateMutability": "view",
      "type": "function"
    },
    {
      "inputs": [
        {
          "internalType": "bytes4",
          "name": "interfaceId",
          "type": "bytes4"
        }
      ],
      "name": "supportsInterface",
      "outputs": [
        {
          "internalType": "bool",
          "name": "",
          "type": "bool"
        }
      ],
      "stateMutability": "view",
      "type": "function"
    },
    {
      "inputs": [],
      "name": "symbol",
      "outputs": [
        {
          "internalType": "string",
          "name": "",
          "type": "string"
        }
      ],
      "stateMutability": "view",
      "type": "function"
    },
    {
      "inputs": [
        {
          "internalType": "uint256",
          "name": "index",
          "type": "uint256"
        }
      ],
      "name": "tokenByIndex",
      "outputs": [
        {
          "internalType": "uint256",
          "name": "",
          "type": "uint256"
        }
      ],
      "stateMutability": "view",
      "type": "function"
    },
    {
      "inputs": [
        {
          "internalType": "address",
          "name": "owner",
          "type": "address"
        },
        {
          "internalType": "uint256",
          "name": "index",
          "type": "uint256"
        }
      ],
      "name": "tokenOfOwnerByIndex",
      "outputs": [
        {
          "internalType": "uint256",
          "name": "",
          "type": "uint256"
        }
      ],
      "stateMutability": "view",
      "type": "function"
    },
    {
      "inputs": [
        {
          "internalType": "uint256",
          "name": "tokenId",
          "type": "uint256"
        }
      ],
      "name": "tokenURI",
      "outputs": [
        {
          "internalType": "string",
          "name": "",
          "type": "string"
        }
      ],
      "stateMutability": "view",
      "type": "function"
    },
    {
      "inputs": [],
      "name": "totalSupply",
      "outputs": [
        {
          "internalType": "uint256",
          "name": "",
          "type": "uint256"
        }
      ],
      "stateMutability": "view",
      "type": "function"
    },
    {
      "inputs": [
        {
          "internalType": "address",
          "name": "from",
          "type": "address"
        },
        {
          "internalType": "address",
          "name": "to",
          "type": "address"
        },
        {
          "internalType": "uint256",
          "name": "tokenId",
          "type": "uint256"
        }
      ],
      "name": "transferFrom",
      "outputs": [],
      "stateMutability": "nonpayable",
      "type": "function"
    }
  ],
  "bytecode": {
    "object": "0x6080604052346200049857620036c9803803806200001d816200049d565b928339810190606081830312620004985780516001600160401b03908181116200049857836200004f918401620004c3565b92602092838101518381116200049857826200006d918301620004c3565b9160408201518481116200049857620000879201620004c3565b9381519083821162000482576000958654926001948585811c9516801562000477575b8886101462000381578190601f9586811162000424575b508890868311600114620003c0578a92620003b4575b5050600019600383901b1c191690851b1787555b805190858211620003a05784548581811c9116801562000395575b8882101462000381579081858493116200032e575b508790858311600114620002ca578992620002be575b5050600019600383901b1c191690841b1783555b8051938411620002aa577f2166b5abc949f9868bd3012b1ae70950eaf949eee881bcf895261001523f283b9586548481811c911680156200029f575b878210146200028b5783811162000243575b5085928511600114620001dc579394508492919083620001d0575b50501b916000199060031b1c19161790555b6040516131939081620005368239f35b015192503880620001ae565b86815285812093958591601f198316915b888383106200022857505050106200020e575b505050811b019055620001c0565b015160001960f88460031b161c1916905538808062000200565b858701518855909601959485019487935090810190620001ed565b8782528682208480880160051c82019289891062000281575b0160051c019085905b8281106200027557505062000193565b83815501859062000265565b925081926200025c565b634e487b7160e01b82526022600452602482fd5b90607f169062000181565b634e487b7160e01b86526041600452602486fd5b01519050388062000131565b868a52888a208794509190601f1984168b5b8b828210620003175750508411620002fd575b505050811b01835562000145565b015160001960f88460031b161c19169055388080620002ef565b8385015186558a97909501949384019301620002dc565b9091508589528789208580850160051c8201928a861062000377575b918891869594930160051c01915b828110620003685750506200011b565b8b815585945088910162000358565b925081926200034a565b634e487b7160e01b89526022600452602489fd5b90607f169062000106565b634e487b7160e01b88526041600452602488fd5b015190503880620000d7565b8a8052898b208894509190601f1984168c5b8c8282106200040d5750508411620003f3575b505050811b018755620000eb565b015160001960f88460031b161c19169055388080620003e5565b8385015186558b97909501949384019301620003d2565b909150898052888a208680850160051c8201928b86106200046d575b918991869594930160051c01915b8281106200045e575050620000c1565b8c81558594508991016200044e565b9250819262000440565b94607f1694620000aa565b634e487b7160e01b600052604160045260246000fd5b600080fd5b6040519190601f01601f191682016001600160401b038111838210176200048257604052565b919080601f84011215620004985782516001600160401b0381116200048257602090620004f9601f8201601f191683016200049d565b92818452828287010111620004985760005b8181106200052157508260009394955001015290565b85810183015184820184015282016200050b56fe60806040908082526004918236101561001757600080fd5b600092833560e01c92836301ffc9a714611e11575082630204be8814611dc957826306fdde0314611d21578263081812fc14611d01578263095ea7b314611b925782630b94010614611b2f57826310ee3d3c14611ac557826318160ddd14611aa65782631dc3c67a14611a5e57826323b872dd14611a395782632633240214611a03578263285d70d4146119ac5782632f10dfda146119415782632f745c59146118955782633f1ba5471461185a57826342842e0e14611826578263430c2081146117f457826349ad6782146117be5782634bf365df1461177b5782634f6ccce7146116e95782636075e457146116865782636352211e146116555782636a6278421461144157826370a0823114611414578263890d086d146113cc57826395d89b41146112e95782639f262bff146112bf5782639f3d1a2a146112a1578263a22cb465146111d0578263aa76a0cb1461118e578263ae8083061461114d578263b5de30b41461108d578263b88d4fde14611002578263bf07b68f14610d98578263c87b56dd14610997578263ce9e3cd8146107ea578263d768e121146107b7578263d83a19e0146106f5578263dd7a2e85146102db578263e359503e1461028457508163e985e9c51461023257508063f6573d7b146102205763fdffdd3b1461020057600080fd5b3461021d5761021a61021136612093565b92919091612348565b80f35b80fd5b503461021d5761021a61021136612093565b90503461028057806003193601126102805760ff81602093610252611ede565b61025a611ef9565b6001600160a01b0391821683526005875283832091168252855220549151911615158152f35b5080fd5b909150346102d75760203660031901126102d7573582527f2166b5abc949f9868bd3012b1ae70950eaf949eee881bcf895261001523f28396020908152918190205490516001600160a01b039091168152f35b8280fd5b838234610280578060031936011261028057823560249081359161030a60ff610303336120fa565b54166121a5565b60008281526002602052604090205461032d906001600160a01b0316151561220c565b600083815260026020526040902054610350906001600160a01b0316151561220c565b8185526000805160206130fe8339815191526020928184528587205485885286882054600181018091116106b05760011c116106e65784875281845285872054600181018091116106d45760011c5b8188528285528688208054908282018092116106c2575585885282855286882080549182811061069d575050506103e0908588528285528787812055612258565b6103e984612258565b838652825283852054156103fb578480f35b61040483612859565b6001600160a01b039690878116908161060a575050600854848752600984528086882055600160401b8110156105f857846104488260016104619401600855612f28565b90919082549060031b91821b91600019901b1916179055565b60085460001992908381019081116105e657858852600985526104878789205491612f28565b90549060031b1c61049b8161044884612f28565b8852600985528688205584875286868120556008549081156105d55750868381999361059c958894016104cd81612f28565b8482549160031b1b191690556008556104e584612859565b90848452875284898420916bffffffffffffffffffffffff60a01b928381541690551691828452600388528984209081540190558383526002875288832090815416905560008051602061311e8339815191528280a47f2166b5abc949f9868bd3012b1ae70950eaf949eee881bcf895261001523f2839835284862054166001600160a01b031660009081527f2166b5abc949f9868bd3012b1ae70950eaf949eee881bcf895261001523f283c6020526040902090565b9184527f2166b5abc949f9868bd3012b1ae70950eaf949eee881bcf895261001523f283881528284205484525281205580828080808480f35b634e487b7160e01b88526031835287fd5b50634e487b7160e01b87526011825286fd5b50634e487b7160e01b86526041905284fd5b61061390612796565b60001981019190821161068b578588526007855286882054828103610654575b50858852878781205587526006845285872090875283528585812055610461565b81895260068652878920838a52865287892054828a5260068752888a20828b52875280898b20558952600786528789205589610633565b634e487b7160e01b8852601183528388fd5b82039182116106b057556103e090612258565b634e487b7160e01b895260118a528489fd5b634e487b7160e01b8a5260118b52858afd5b634e487b7160e01b8852601189528388fd5b8087528184528587205461039f565b909150346102d75760203660031901126102d757803561071960ff610303336120fa565b60008181526002602052604090205461073c906001600160a01b0316151561220c565b8084526000805160206130de833981519152918260205260ff8486205416610774575083526020528120805460ff1916600117905580f35b606490602085519162461bcd60e51b8352820152601b60248201527f536b796c6162426173653a206176696174696f6e206c6f636b656400000000006044820152fd5b8382346102805760203660031901126102805760209060ff6107df6107da611ede565b6120fa565b541690519015158152f35b833461021d576020806003193601126102805767ffffffffffffffff83358181116109935761081c903690860161200e565b93610825612713565b845191821161098057507f2166b5abc949f9868bd3012b1ae70950eaf949eee881bcf895261001523f283b9161085b83546124d3565b601f811161091f575b5080601f831160011461089f5750839482939492610894575b50508160011b916000199060031b1c191617905580f35b01519050848061087d565b838552601f198316957f85f4f2c1518014c45e0712eed7aa8c45c933ce947d86250e662ee3d53d4796cd929186905b888210610907575050836001959697106108ee575b505050811b01905580f35b015160001960f88460031b161c191690558480806108e3565b806001859682949686015181550195019301906108ce565b8385527f85f4f2c1518014c45e0712eed7aa8c45c933ce947d86250e662ee3d53d4796cd601f840160051c810191838510610976575b601f0160051c01905b81811061096b5750610864565b85815560010161095e565b9091508190610955565b634e487b7160e01b845260419052602483fd5b8380fd5b9150346102d75760209160031993838536011261021d5781356000818152600260205260409020549092906001600160a01b031615610d4557835167ffffffffffffffff969080860188811182821017610d32578652828152634e6f6e6560e01b87820152839291610a0761250d565b8685527f2166b5abc949f9868bd3012b1ae70950eaf949eee881bcf895261001523f28398952878520549093906001600160a01b0390811686898b8d84610c46575b50505050507f2166b5abc949f9868bd3012b1ae70950eaf949eee881bcf895261001523f283e541692610a7b88612f75565b9288875260008051602061313e833981519152808c528a882054610a9e90612f75565b968c8c5198828a9351908184808701920191610ab992611e96565b83019080518381948401920191610acf92611e96565b018d8101632e706e6760e01b9052038481018852602401610af09088611f99565b8988528b5289872054610b0290612f75565b9887526000805160206130fe8339815191528b5289872054610b2390612f75565b8a51998a978896879663840fba6760e01b8852870160a0905260a48701610b4991611eb9565b84878203016024880152610b5c91611eb9565b83868203016044870152610b6f91611eb9565b82858203016064860152610b8291611eb9565b90838203016084840152610b9591611eb9565b03915afa948515610c3a578195610bc1575b505050610bbd9051928284938452830190611eb9565b0390f35b90919294503d8083853e610bd58185611f99565b83019284818503126102d75780519182116102d7570182601f8201121561028057805191610c0283611fbb565b93610c0f87519586611f99565b83855285848401011161021d57508291610c31918580610bbd96019101611e96565b92903880610ba7565b508251903d90823e3d90fd5b610d03959950849850610cd8600260019594610cde94610cb094610c6c610d279a612133565b928852610cc8610ca2837f2166b5abc949f9868bd3012b1ae70950eaf949eee881bcf895261001523f28389a8b85522054612f75565b925196879483860190612690565b9161202360f01b835283519384918785019101611e96565b0103601d19810184520182611f99565b9761216c565b908b8a528d528c8c610d10610cf5828d2054612f75565b915196879484860190612690565b9182815194859201611e96565b01602f60f81b815203601e19810184520182611f99565b933886898b8d610a49565b634e487b7160e01b855260418452602485fd5b835162461bcd60e51b8152908101859052602760248201527f4552433732313a2055524920717565727920666f72206e6f6e6578697374656e6044820152663a103a37b5b2b760c91b6064820152608490fd5b833461021d57606036600319011261021d57610db2611ede565b9167ffffffffffffffff60243581811161099357610dd3903690840161200e565b604435828111610ffe57610dea903690850161200e565b94610df3612713565b610dfc81612133565b8251848111610feb57610e0f82546124d3565b93601f94858111610fa9575b50602090858311600114610f4157610e5194939291899183610f36575b50508160011b916000199060031b1c191617905561216c565b928551928311610f235750610e6683546124d3565b818111610ee1575b506020908211600114610e9c578394829394926108945750508160011b916000199060031b1c191617905580f35b82845280842090601f198316855b818110610ec9575095836001959697106108ee57505050811b01905580f35b9192602060018192868b015181550194019201610eaa565b838552602085208280850160051c82019260208610610f1a575b0160051c01905b818110610f0f5750610e6e565b858155600101610f02565b92508192610efb565b634e487b7160e01b855260419052602484fd5b015190508a80610e38565b8389528189209190601f1984168a5b818110610f915750916001939185610e519897969410610f78575b505050811b01905561216c565b015160001960f88460031b161c191690558a8080610f6b565b92936020600181928786015181550195019301610f50565b838952602089208680850160051c82019260208610610fe2575b0160051c01905b818110610fd75750610e1b565b898155600101610fca565b92508192610fc3565b634e487b7160e01b875260418652602487fd5b8480fd5b8390346102805760803660031901126102805761101d611ede565b90611026611ef9565b916044356064359367ffffffffffffffff85116110895736602386011215611089576110616110849486602461021a98369301359101611fd7565b9261107461106f8433612c6d565b6128ba565b61107f83838361291c565b612e9d565b612c49565b8580fd5b909150346102d75760203660031901126102d75780356110b160ff610303336120fa565b6000818152600260205260409020546110d4906001600160a01b0316151561220c565b8084526000805160206130de833981519152918260205260ff84862054161561110a575083526020528120805460ff1916905580f35b606490602085519162461bcd60e51b8352820152601f60248201527f536b796c6162426173653a206176696174696f6e206e6f74206c6f636b6564006044820152fd5b8382346102805736600319011261021d5761021a611169611ede565b61117d611174611f44565b916107da612713565b9060ff801983541691151516179055565b83823461028057602036600319011261028057610bbd906111bd6111b86111b3611ede565b61216c565b6125ed565b9051918291602083526020830190611eb9565b9150346102d757806003193601126102d7576111ea611ede565b906111f3611f44565b6001600160a01b039092169233841461125f57503384526005602052808420838552602052611230828286209060ff801983541691151516179055565b5190151581527f17307eab39ab6107e8899845ad3d59bd9653f200f220920489ca2b5937696c3160203392a380f35b6020606492519162461bcd60e51b8352820152601960248201527f4552433732313a20617070726f766520746f2063616c6c6572000000000000006044820152fd5b838234610280578160031936011261028057610bbd906111bd61250d565b83823461028057602036600319011261028057610bbd906111bd6111b86112e4611ede565b612133565b83823461028057816003193601126102805780519082600180549161130d836124d3565b808652928281169081156113a45750600114611348575b50505061133682610bbd940383611f99565b51918291602083526020830190611eb9565b94508085527fb10e2d527612073b26eecdfd717e6a320cf44b4afac2b0732d9fcbe2b7fa0cf65b82861061138c57505050611336826020610bbd9582010194611324565b8054602087870181019190915290950194810161136f565b610bbd97508693506020925061133694915060ff191682840152151560051b82010194611324565b909150346102d75760203660031901126102d75760209282913581527f2166b5abc949f9868bd3012b1ae70950eaf949eee881bcf895261001523f2838845220549051908152f35b8382346102805760203660031901126102805760209061143a611435611ede565b612796565b9051908152f35b838234610280576020806003193601126102d75761145d611ede565b60ff7f2166b5abc949f9868bd3012b1ae70950eaf949eee881bcf895261001523f283a54161561162257600854600181019182821161160f578451916114a283611f7d565b8683526001600160a01b0382169081156115ce576000858152600260205260409020546114db906001600160a01b031615155b15612cdb565b848852600986528087892055600160401b8110156115bb576001969593858094816115b295611523826104486110849860008051602061313e8339815191529d600855612f28565b8c8b61152e85612796565b83835260068c528183208184528c5281832085905584835260078c52912055600082815260026020526040902054611570906001600160a01b031615156114d5565b808d52600389528a8d2080548d019055818d52600289528a8d2080546001600160a01b031916821790558c60008051602061311e8339815191528180a4612d81565b85525282205580f35b634e487b7160e01b885260418952602488fd5b60648987808a519262461bcd60e51b845283015260248201527f4552433732313a206d696e7420746f20746865207a65726f20616464726573736044820152fd5b634e487b7160e01b865260118752602486fd5b825162461bcd60e51b8152808601839052600d60248201526c26b4b73a103737ba1037b832b760991b6044820152606490fd5b90833461021d57602036600319011261021d575061167560209235612859565b90516001600160a01b039091168152f35b833461021d57602036600319011261021d576116a0611ede565b6116a8612713565b7f2166b5abc949f9868bd3012b1ae70950eaf949eee881bcf895261001523f283d80546001600160a01b0319166001600160a01b0390921691909117905580f35b833461021d57602036600319011261021d57508035906008548210156117235760208361171584612f28565b91905490519160031b1c8152f35b608490602084519162461bcd60e51b8352820152602c60248201527f455243373231456e756d657261626c653a20676c6f62616c20696e646578206f60448201526b7574206f6620626f756e647360a01b6064820152fd5b83823461028057816003193601126102805760209060ff7f2166b5abc949f9868bd3012b1ae70950eaf949eee881bcf895261001523f283a541690519015158152f35b909150346102d75760203660031901126102d757602092829135815260008051602061313e833981519152845220549051908152f35b83823461028057806003193601126102805760209061181d611814611ede565b60243590612c6d565b90519015158152f35b8382346102805761108461021a9161183d36611f0f565b9192519261184a84611f7d565b86845261107461106f8433612c6d565b909150346102d75760203660031901126102d7578160209360ff923581526000805160206130de833981519152855220541690519015158152f35b90833461021d578160031936011261021d576118af611ede565b602435906118bc81612796565b8210156118ea576001600160a01b031682526006602090815283832091835290815290829020548251908152f35b835162461bcd60e51b8152602081870152602b60248201527f455243373231456e756d657261626c653a206f776e657220696e646578206f7560448201526a74206f6620626f756e647360a81b6064820152608490fd5b909150346102d75760203660031901126102d7578160209360ff923561196a84610303336120fa565b60008181526002602052604090205461198d906001600160a01b0316151561220c565b81526000805160206130de833981519152855220541690519015158152f35b8390346102805760203660031901126102805735801515809103610280576119d2612713565b7f2166b5abc949f9868bd3012b1ae70950eaf949eee881bcf895261001523f283a9060ff8019835416911617905580f35b909150346102d75760203660031901126102d75760209282913581526000805160206130fe833981519152845220549051908152f35b833461021d5761021a611a4b36611f0f565b91611a5961106f8433612c6d565b61291c565b8382346102805781600319360112610280577f2166b5abc949f9868bd3012b1ae70950eaf949eee881bcf895261001523f283d5490516001600160a01b039091168152602090f35b8382346102805781600319360112610280576020906008549051908152f35b83823461028057806003193601126102805780602092611b1f611ae6611ede565b6001600160a01b031660009081527f2166b5abc949f9868bd3012b1ae70950eaf949eee881bcf895261001523f283c6020526040902090565b6024358252845220549051908152f35b833461021d57602036600319011261021d57611b49611ede565b611b51612713565b7f2166b5abc949f9868bd3012b1ae70950eaf949eee881bcf895261001523f283e80546001600160a01b0319166001600160a01b0390921691909117905580f35b909150346102d757816003193601126102d757611bad611ede565b6024359290916001600160a01b0391908280611bc887612859565b16941693808514611cb457803314908115611c95575b5015611c2d57848652602052842080546001600160a01b03191683179055611c0583612859565b167f8c5be1e5ebec7d5bd14f71427d1e84f3dd0314c0f7b2291e5b200ac8c7c3b9258480a480f35b6020608492519162461bcd60e51b8352820152603d60248201527f4552433732313a20617070726f76652063616c6c6572206973206e6f7420746f60448201527f6b656e206f776e6572206f7220617070726f76656420666f7220616c6c0000006064820152fd5b90508652600560205281862033875260205260ff828720541638611bde565b506020608492519162461bcd60e51b8352820152602160248201527f4552433732313a20617070726f76616c20746f2063757272656e74206f776e656044820152603960f91b6064820152fd5b90833461021d57602036600319011261021d57506116756020923561287c565b838234610280578160031936011261028057805190828054611d42816124d3565b808552916001918083169081156113a45750600114611d6d5750505061133682610bbd940383611f99565b80809650527f290decd9548b62a8d60345a988386fc84ba6bc95484008f6362f93160ef3e5635b828610611db157505050611336826020610bbd9582010194611324565b80546020878701810191909152909501948101611d94565b8382346102805781600319360112610280577f2166b5abc949f9868bd3012b1ae70950eaf949eee881bcf895261001523f283e5490516001600160a01b039091168152602090f35b8491346102d75760203660031901126102d7573563ffffffff60e01b81168091036102d7576020925063780e9d6360e01b8114908115611e53575b5015158152f35b6380ac58cd60e01b811491508115611e85575b8115611e74575b5083611e4c565b6301ffc9a760e01b14905083611e6d565b635b5e139f60e01b81149150611e66565b60005b838110611ea95750506000910152565b8181015183820152602001611e99565b90602091611ed281518092818552858086019101611e96565b601f01601f1916010190565b600435906001600160a01b0382168203611ef457565b600080fd5b602435906001600160a01b0382168203611ef457565b6060906003190112611ef4576001600160a01b03906004358281168103611ef457916024359081168103611ef4579060443590565b602435908115158203611ef457565b67ffffffffffffffff8111611f6757604052565b634e487b7160e01b600052604160045260246000fd5b6020810190811067ffffffffffffffff821117611f6757604052565b90601f8019910116810190811067ffffffffffffffff821117611f6757604052565b67ffffffffffffffff8111611f6757601f01601f191660200190565b929192611fe382611fbb565b91611ff16040519384611f99565b829481845281830111611ef4578281602093846000960137010152565b9080601f83011215611ef45781602061202993359101611fd7565b90565b9080601f83011215611ef45781359067ffffffffffffffff8211611f67578160051b6040519360209361206185840187611f99565b85528380860192820101928311611ef4578301905b828210612084575050505090565b81358152908301908301612076565b906080600319830112611ef4576001600160a01b03916004358381168103611ef457926024359081168103611ef4579167ffffffffffffffff604435818111611ef457836120e39160040161202c565b92606435918211611ef4576120299160040161202c565b6001600160a01b031660009081527f2166b5abc949f9868bd3012b1ae70950eaf949eee881bcf895261001523f283f6020526040902090565b6001600160a01b031660009081527f2166b5abc949f9868bd3012b1ae70950eaf949eee881bcf895261001523f28406020526040902090565b6001600160a01b031660009081527f2166b5abc949f9868bd3012b1ae70950eaf949eee881bcf895261001523f28416020526040902090565b156121ac57565b60405162461bcd60e51b815260206004820152603260248201527f536b796c6162426173653a206d73672e73656e646572206973206e6f7420612060448201527176616c69642067616d65206164647265737360701b6064820152608490fd5b1561221357565b60405162461bcd60e51b815260206004820152601d60248201527f536b796c6162426173653a206e6f6e6578697374656e7420746f6b656e0000006044820152606490fd5b60005b60108111156122af57506020817f1b9c4b6f325882062024aaca6e75c86d61b0a66ea22e1e4ae0803c5005aa40979260005260008051602061313e83398151915282526010604060002055604051908152a1565b60ff81116122f1578160005260206000805160206130fe8339815191528152604080600020546001841b1161230757505060001981146122f15760010161225b565b634e487b7160e01b600052601160045260246000fd5b819260008051602061313e8339815191527f1b9c4b6f325882062024aaca6e75c86d61b0a66ea22e1e4ae0803c5005aa4097959352816000205551908152a1565b909261235860ff610303336120fa565b7f2166b5abc949f9868bd3012b1ae70950eaf949eee881bcf895261001523f283d80546000956001600160a01b039490929185169190823b1561249b57604051633db0f8ab60e01b815290861660048201526060602482015287816123c0606482018a61249f565b948183816123db600319998a8382030160448401528c61249f565b03925af180156124905761247d575b5054841692833b1561247957602087959493928661243f819461242f6040519b8c9a8b99630fbfeffd60e11b8b521660048a0152608060248a0152608489019061249f565b908488830301604489015261249f565b85810392830160648701525201925af1801561246e5761245d575050565b6124678291611f53565b61021d5750565b6040513d84823e3d90fd5b8680fd5b96612489869298611f53565b96906123ea565b6040513d8a823e3d90fd5b8780fd5b90815180825260208080930193019160005b8281106124bf575050505090565b8351855293810193928101926001016124b1565b90600182811c92168015612503575b60208310146124ed57565b634e487b7160e01b600052602260045260246000fd5b91607f16916124e2565b604051906000827f2166b5abc949f9868bd3012b1ae70950eaf949eee881bcf895261001523f283b918254612541816124d3565b808452936001918083169081156125c9575060011461256b575b505061256992500383611f99565b565b600090815291507f85f4f2c1518014c45e0712eed7aa8c45c933ce947d86250e662ee3d53d4796cd5b8483106125ae57506125699350508101602001388061255b565b81935090816020925483858a01015201910190918592612594565b9150506020925061256994915060ff191682840152151560051b820101388061255b565b9060405191826000825492612601846124d3565b90818452600194858116908160001461266d575060011461262a57505061256992500383611f99565b9093915060005260209081600020936000915b8183106126555750506125699350820101388061255b565b8554888401850152948501948794509183019161263d565b91505061256994506020925060ff191682840152151560051b820101388061255b565b60009291815461269f816124d3565b926001918083169081156126f857506001146126bc575b50505050565b90919293945060005260209081600020906000915b8583106126e757505050500190388080806126b6565b8054858401529183019181016126d1565b60ff19168452505050811515909102019150388080806126b6565b7fc8fcad8db84d3cc18b4c41d551ea0ee66dd599cde068d998e57d5e09332c1320546001600160a01b0316330361274657565b60405162461bcd60e51b815260206004820152602260248201527f4c69624469616d6f6e643a204d75737420626520636f6e7472616374206f776e60448201526132b960f11b6064820152608490fd5b6001600160a01b031680156127b657600052600360205260406000205490565b60405162461bcd60e51b815260206004820152602960248201527f4552433732313a2061646472657373207a65726f206973206e6f7420612076616044820152683634b21037bbb732b960b91b6064820152608490fd5b1561281457565b60405162461bcd60e51b815260206004820152601860248201527f4552433732313a20696e76616c696420746f6b656e20494400000000000000006044820152606490fd5b6000908152600260205260409020546001600160a01b031661202981151561280d565b60008181526002602052604090205461289f906001600160a01b0316151561280d565b6000908152600460205260409020546001600160a01b031690565b156128c157565b60405162461bcd60e51b815260206004820152602d60248201527f4552433732313a2063616c6c6572206973206e6f7420746f6b656e206f776e6560448201526c1c881bdc88185c1c1c9bdd9959609a1b6064820152608490fd5b906000908382526020906000805160206130de833981519152825260409060ff8285205416612bb2579061296d93929161295587612859565b6001600160a01b038781169690929183168714612d27565b818116968715612b62578787918215600014612a7d57505050600854888652600985528084872055600160401b811015612a695786889360008051602061311e833981519152979695936129ce8c6104488660016129e79801600855612f28565b828603612a3b575b506129e08b612859565b1614612d27565b878452600483526002818520936bffffffffffffffffffffffff60a01b94858154169055878652600381528286206000198154019055838652828620600181540190558986525283209182541617905580a4565b612a4490612796565b8588526006875284882081895287528b858920558b88526007875284882055386129d6565b634e487b7160e01b86526041600452602486fd5b81839897969492959303612aa7575b50956129e79160008051602061311e833981519152976129ce565b909294959650612ab8919350612796565b6000198101908111612b4e57868893879695936129e7938c60008051602061311e8339815191529a526007885285892054818103612b17575b508c89528886812055838952600688528589209089528752878581205591975091612a8c565b848a5260068952868a20828b528952868a2054858b5260068a52878b20828c528a5280888c20558a5260078952868a205538612af1565b634e487b7160e01b86526011600452602486fd5b835162461bcd60e51b8152600481018690526024808201527f4552433732313a207472616e7366657220746f20746865207a65726f206164646044820152637265737360e01b6064820152608490fd5b815162461bcd60e51b815260048101849052601b60248201527f536b796c6162426173653a20746f6b656e206973206c6f636b656400000000006044820152606490fd5b60809060208152603260208201527f4552433732313a207472616e7366657220746f206e6f6e20455243373231526560408201527131b2b4bb32b91034b6b83632b6b2b73a32b960711b60608201520190565b15612c5057565b60405162461bcd60e51b815280612c6960048201612bf6565b0390fd5b906001600160a01b038080612c8184612859565b16931691838314938415612cb4575b508315612c9e575b50505090565b612caa9192935061287c565b1614388080612c98565b909350600052600560205260406000208260005260205260ff604060002054169238612c90565b15612ce257565b60405162461bcd60e51b815260206004820152601c60248201527f4552433732313a20746f6b656e20616c7265616479206d696e746564000000006044820152606490fd5b15612d2e57565b60405162461bcd60e51b815260206004820152602560248201527f4552433732313a207472616e736665722066726f6d20696e636f72726563742060448201526437bbb732b960d91b6064820152608490fd5b9192600092909190803b15612e9357612dcf946040518092630a85bd0160e11b9485835233600484015287602484015260448301526080606483015281878160209a8b966084830190611eb9565b03926001600160a01b03165af1849181612e53575b50612e42575050503d600014612e3a573d612dfe81611fbb565b90612e0c6040519283611f99565b81528091833d92013e5b80519182612e375760405162461bcd60e51b815280612c6960048201612bf6565b01fd5b506060612e16565b6001600160e01b0319161492509050565b9091508581813d8311612e8c575b612e6b8183611f99565b81010312610ffe57516001600160e01b031981168103610ffe579038612de4565b503d612e61565b5050915050600190565b9293600093909291803b15612f1d57948491612ef79660405180948193630a85bd0160e11b9788845233600485015260018060a01b0380921660248501526044840152608060648401528260209b8c976084830190611eb9565b0393165af1849181612e535750612e42575050503d600014612e3a573d612dfe81611fbb565b505050915050600190565b600854811015612f5f5760086000527ff3f7a9fe364faab93b216da50a3214154f22a0a2b415b23a84c8169e8b636ee30190600090565b634e487b7160e01b600052603260045260246000fd5b806000917a184f03e93ff9f4daa797ed6e38ed64bf6a1f010000000000000000808210156130cf575b506d04ee2d6d415b85acef8100000000808310156130c0575b50662386f26fc10000808310156130b1575b506305f5e100808310156130a2575b5061271080831015613093575b506064821015613083575b600a80921015613079575b6001908160218186019561300e87611fbb565b9661301c6040519889611f99565b80885261302b601f1991611fbb565b01366020890137860101905b613043575b5050505090565b600019019083906f181899199a1a9b1b9c1cb0b131b232b360811b8282061a83530491821561307457919082613037565b61303c565b9160010191612ffb565b9190606460029104910191612ff0565b60049193920491019138612fe5565b60089193920491019138612fd8565b60109193920491019138612fc9565b60209193920491019138612fb7565b604093508104915038612f9e56fe2166b5abc949f9868bd3012b1ae70950eaf949eee881bcf895261001523f28372166b5abc949f9868bd3012b1ae70950eaf949eee881bcf895261001523f2836ddf252ad1be2c89b69c2b068fc378daa952ba7f163c4a11628f55a4df523b3ef2166b5abc949f9868bd3012b1ae70950eaf949eee881bcf895261001523f2835a2646970667358221220c5d008a251e0810d0591b5353464ec1d687d35a8ba2f42f6be4d9975fd6087ea64736f6c63430008130033",
    "linkReferences": {}
  },
  "methodIdentifiers": {
    "approve(address,uint256)": "095ea7b3",
    "aviationLevels(uint256)": "49ad6782",
    "aviationLock(uint256)": "d83a19e0",
    "aviationMovePoints(uint256,uint256)": "dd7a2e85",
    "aviationPilotAddresses(uint256)": "e359503e",
    "aviationPilotIds(uint256)": "890d086d",
    "aviationPoints(uint256)": "26332402",
    "aviationTradeLock(uint256)": "3f1ba547",
    "aviationUnlock(uint256)": "b5de30b4",
    "balanceOf(address)": "70a08231",
    "gameAddresses(address)": "d768e121",
    "getApproved(uint256)": "081812fc",
    "isApprovedForAll(address,address)": "e985e9c5",
    "isApprovedOrOwner(address,uint256)": "430c2081",
    "isAviationLocked(uint256)": "2f10dfda",
    "metadataBaseURI()": "9f3d1a2a",
    "mint(address)": "6a627842",
    "mintable()": "4bf365df",
    "name()": "06fdde03",
    "ownerOf(uint256)": "6352211e",
    "pilotAddressesToNames(address)": "9f262bff",
    "pilotAddressesToUrls(address)": "aa76a0cb",
    "pilotToToken(address,uint256)": "10ee3d3c",
    "refundResourcesFromGame(address,address,uint256[],uint256[])": "fdffdd3b",
    "registerGameAddress(address,bool)": "ae808306",
    "registerMetadataAddress(address)": "0b940106",
    "registerMetadataURI(string)": "ce9e3cd8",
    "registerPilotAddress(address,string,string)": "bf07b68f",
    "registerResourcesAddress(address)": "6075e457",
    "requestResourcesForGame(address,address,uint256[],uint256[])": "f6573d7b",
    "safeTransferFrom(address,address,uint256)": "42842e0e",
    "safeTransferFrom(address,address,uint256,bytes)": "b88d4fde",
    "setApprovalForAll(address,bool)": "a22cb465",
    "setMintable(bool)": "285d70d4",
    "mercuryMetadata()": "0204be88",
    "mercuryResources()": "1dc3c67a",
    "supportsInterface(bytes4)": "01ffc9a7",
    "symbol()": "95d89b41",
    "tokenByIndex(uint256)": "4f6ccce7",
    "tokenOfOwnerByIndex(address,uint256)": "2f745c59",
    "tokenURI(uint256)": "c87b56dd",
    "totalSupply()": "18160ddd",
    "transferFrom(address,address,uint256)": "23b872dd"
  },
  "id": 0
}