{
  "abi": [
    {
      "anonymous": false,
      "inputs": [
        {
          "indexed": false,
          "internalType": "uint8",
          "name": "version",
          "type": "uint8"
        }
      ],
      "name": "Initialized",
      "type": "event"
    },
    {
      "inputs": [],
      "name": "fail",
      "outputs": [],
      "stateMutability": "pure",
      "type": "function"
    },
    {
      "inputs": [],
      "name": "initialize",
      "outputs": [],
      "stateMutability": "nonpayable",
      "type": "function"
    },
    {
      "inputs": [],
      "name": "initializeOnlyInitializing",
      "outputs": [],
      "stateMutability": "nonpayable",
      "type": "function"
    },
    {
      "inputs": [
        {
          "internalType": "uint256",
          "name": "_x",
          "type": "uint256"
        }
      ],
      "name": "initializeWithX",
      "outputs": [],
      "stateMutability": "payable",
      "type": "function"
    },
    {
      "inputs": [],
      "name": "initializerNested",
      "outputs": [],
      "stateMutability": "nonpayable",
      "type": "function"
    },
    {
      "inputs": [],
      "name": "initializerRan",
      "outputs": [
        {
          "internalType": "bool",
          "name": "",
          "type": "bool"
        }
      ],
      "stateMutability": "view",
      "type": "function"
    },
    {
      "inputs": [],
      "name": "isInitializing",
      "outputs": [
        {
          "internalType": "bool",
          "name": "",
          "type": "bool"
        }
      ],
      "stateMutability": "view",
      "type": "function"
    },
    {
      "inputs": [
        {
          "internalType": "uint256",
          "name": "_x",
          "type": "uint256"
        }
      ],
      "name": "nonInitializable",
      "outputs": [],
      "stateMutability": "payable",
      "type": "function"
    },
    {
      "inputs": [],
      "name": "onlyInitializingNested",
      "outputs": [],
      "stateMutability": "nonpayable",
      "type": "function"
    },
    {
      "inputs": [],
      "name": "onlyInitializingRan",
      "outputs": [
        {
          "internalType": "bool",
          "name": "",
          "type": "bool"
        }
      ],
      "stateMutability": "view",
      "type": "function"
    },
    {
      "inputs": [],
      "name": "x",
      "outputs": [
        {
          "internalType": "uint256",
          "name": "",
          "type": "uint256"
        }
      ],
      "stateMutability": "view",
      "type": "function"
    }
  ],
  "bytecode": {
    "object": "0x60808060405234610016576106cf908161001c8239f35b600080fdfe60406080815260048036101561001457600080fd5b600091823560e01c90816218eaa81461056d5781630c55699c1461054e57816310065ed2146104c15781633ec91f051461049c57816368449d1b1461037157816376268ae8146102135781637cffe97a146101ee5781638129fc1c1461012e578163a9cc4718146100d6578163c3b8ef2a146100b1575063e955c9ec1461009a57600080fd5b60203660031901126100ad573560015580f35b5080fd5b8390346100ad57816003193601126100ad5760ff6020925460101c1690519015158152f35b82843461012b578060031936011261012b57506020606492519162461bcd60e51b8352820152602060248201527f496e697469616c697a61626c654d6f636b20666f72636564206661696c7572656044820152fd5b80fd5b8390346100ad57816003193601126100ad5781549060ff8260081c1615918280936101e1575b80156101ca575b61016490610616565b60ff1981166001178455826101b9575b5082549062010000928362ff0000198416178555610190578380f35b60008051602061067a8339815191529260209262ffff0019161784555160018152a18180808380f35b61ffff191661010117835583610174565b50303b15801561015b575060ff811660011461015b565b50600160ff821610610154565b8390346100ad57816003193601126100ad5760ff6020925460181c1690519015158152f35b8390346100ad57816003193601126100ad5781549060ff808360081c161590818092610365575b801561034f575b61024a90610616565b60ff1980851660019081178755948361033e575b5085549085838360081c1615916102858380968795610331575b8115610310575b50610616565b83161787556102ff575b50845462010000918262ff00001983161787556102d8575b50506102b1578280f35b825461ff00191683555190815260008051602061067a83398151915290602090a181808280f35b62ffff00191617845560008051602061067a83398151915260208351858152a184806102a7565b61ffff19166101011785558561028f565b905083303b159182610325575b50508b61027f565b8716149050838c61031d565b9050838187161090610278565b61ffff19166101011786558661025e565b50303b1580156102415750838116600114610241565b5060018185161061023a565b9190503461049857826003193601126104985782549160ff8360081c16159283809461048b575b8015610474575b6103a890610616565b60ff198116600117855583610463575b5083549160ff8360081c161561040d57506301000000928363ff0000001984161785556103e3578380f35b60008051602061067a8339815191529260209263ff00ff0019161784555160018152a13880808380f35b6020608492519162461bcd60e51b8352820152602b60248201527f496e697469616c697a61626c653a20636f6e7472616374206973206e6f74206960448201526a6e697469616c697a696e6760a81b6064820152fd5b61ffff1916610101178455386103b8565b50303b15801561039f575060ff811660011461039f565b50600160ff821610610398565b8280fd5b8390346100ad57816003193601126100ad5760ff6020925460081c1690519015158152f35b9190503461049857826003193601126104985782549160ff8360081c16156104f75763ff00000019831663010000001784558380f35b906020608492519162461bcd60e51b8352820152602b60248201527f496e697469616c697a61626c653a20636f6e7472616374206973206e6f74206960448201526a6e697469616c697a696e6760a81b6064820152fd5b8390346100ad57816003193601126100ad576020906001549051908152f35b91905060203660031901126104985782549060ff8260081c161591828093610609575b80156105f2575b6105a090610616565b60ff1981166001178555826105e1575b50356001556105bd575080f35b602060008051602061067a8339815191529161ff001984541684555160018152a180f35b61ffff1916610101178455386105b0565b50303b158015610597575060ff8116600114610597565b50600160ff821610610590565b1561061d57565b60405162461bcd60e51b815260206004820152602e60248201527f496e697469616c697a61626c653a20636f6e747261637420697320616c72656160448201526d191e481a5b9a5d1a585b1a5e995960921b6064820152608490fdfe7f26b83ff96e1f2b6a682f133852f6798a09c465da95921460cefb3847402498a264697066735822122072a2bb01d890cad979d6d5b28ba9c821dba4a6b9e65182fe52acd87b10bfe97b64736f6c63430008130033",
    "linkReferences": {}
  },
  "methodIdentifiers": {
    "fail()": "a9cc4718",
    "initialize()": "8129fc1c",
    "initializeOnlyInitializing()": "10065ed2",
    "initializeWithX(uint256)": "0018eaa8",
    "initializerNested()": "76268ae8",
    "initializerRan()": "c3b8ef2a",
    "isInitializing()": "3ec91f05",
    "nonInitializable(uint256)": "e955c9ec",
    "onlyInitializingNested()": "68449d1b",
    "onlyInitializingRan()": "7cffe97a",
    "x()": "0c55699c"
  },
  "id": 63
}