{
  "abi": [
    {
      "anonymous": false,
      "inputs": [
        {
          "indexed": false,
          "internalType": "uint8",
          "name": "version",
          "type": "uint8"
        }
      ],
      "name": "Initialized",
      "type": "event"
    },
    {
      "inputs": [
        {
          "internalType": "uint8",
          "name": "i",
          "type": "uint8"
        },
        {
          "internalType": "uint8",
          "name": "j",
          "type": "uint8"
        }
      ],
      "name": "chainReinitialize",
      "outputs": [],
      "stateMutability": "nonpayable",
      "type": "function"
    },
    {
      "inputs": [],
      "name": "counter",
      "outputs": [
        {
          "internalType": "uint256",
          "name": "",
          "type": "uint256"
        }
      ],
      "stateMutability": "view",
      "type": "function"
    },
    {
      "inputs": [],
      "name": "disableInitializers",
      "outputs": [],
      "stateMutability": "nonpayable",
      "type": "function"
    },
    {
      "inputs": [],
      "name": "doStuff",
      "outputs": [],
      "stateMutability": "nonpayable",
      "type": "function"
    },
    {
      "inputs": [],
      "name": "getInitializedVersion",
      "outputs": [
        {
          "internalType": "uint8",
          "name": "",
          "type": "uint8"
        }
      ],
      "stateMutability": "view",
      "type": "function"
    },
    {
      "inputs": [],
      "name": "initialize",
      "outputs": [],
      "stateMutability": "nonpayable",
      "type": "function"
    },
    {
      "inputs": [
        {
          "internalType": "uint8",
          "name": "i",
          "type": "uint8"
        },
        {
          "internalType": "uint8",
          "name": "j",
          "type": "uint8"
        }
      ],
      "name": "nestedReinitialize",
      "outputs": [],
      "stateMutability": "nonpayable",
      "type": "function"
    },
    {
      "inputs": [
        {
          "internalType": "uint8",
          "name": "i",
          "type": "uint8"
        }
      ],
      "name": "reinitialize",
      "outputs": [],
      "stateMutability": "nonpayable",
      "type": "function"
    }
  ],
  "bytecode": {
    "object": "0x60808060405234610016576107a2908161001c8239f35b600080fdfe6040608081526004908136101561001557600080fd5b600090813560e01c8063073de42e146105bb57806331f449001461051257806361bc221a146104f45780636b2d8f8f1461037c5780638129fc1c14610254578063874f33a1146101c9578063b3c65015146101aa5763f8d6cdba1461007957600080fd5b346101a657806003193601126101a6576100916106a4565b9061009a6106b9565b91835460ff8092818360081c161580610199575b6100b7906106c9565b16936101009083828761ffff19809616171791818360081c16158061018c575b6100e0906106c9565b16928391161717918260081c161561014757600154600019811461013457916020949291600186959301600155825190815260008051602061074d833981519152958691a161ff001916855551908152a180f35b634e487b7160e01b865260118752602486fd5b825162461bcd60e51b8152602081880152602b602482015260008051602061072d83398151915260448201526a6e697469616c697a696e6760a81b6064820152608490fd5b50808216838316106100d7565b50808216838316106100ae565b5080fd5b50346101a657816003193601126101a65760ff60209254169051908152f35b50346101a657816003193601126101a65760ff825460081c1615610210575060015460001981146101fd5760010160015580f35b506011602492634e487b7160e01b835252fd5b5162461bcd60e51b8152602081840152602b602482015260008051602061072d83398151915260448201526a6e697469616c697a696e6760a81b6064820152608490fd5b508234610378578260031936011261037857825460ff8160081c16159081809261036b575b8015610354575b610289906106c9565b60ff198116600117855581610343575b5083549160ff8360081c16156102fe576001549060001982146102eb57506001016001556102c5578280f35b61ff0019168255516001815260008051602061074d83398151915290602090a181808280f35b634e487b7160e01b865260119052602485fd5b608490602085519162461bcd60e51b8352820152602b602482015260008051602061072d83398151915260448201526a6e697469616c697a696e6760a81b6064820152fd5b61ffff191661010117845584610299565b50303b158015610280575060ff8116600114610280565b50600160ff821610610279565b8280fd5b509190346104f157826003193601126104f1576103976106a4565b61039f6106b9565b9382549160ff8091818560081c1615806104e4575b6103bd906106c9565b1661010090818161ffff19809716171791838360081c161561049f57600154926000199283851461048c57602098999a8691885190815260008051602061074d8339815191529a8b91a11696816104188988819516106106c9565b161717928360081c16156104475760018201146101345760020160015561ff001916845551908152602090a180f35b835162461bcd60e51b81526020818a0152602b602482015260008051602061072d83398151915260448201526a6e697469616c697a696e6760a81b6064820152608490fd5b634e487b7160e01b895260118a52602489fd5b845162461bcd60e51b81526020818a0152602b602482015260008051602061072d83398151915260448201526a6e697469616c697a696e6760a81b6064820152608490fd5b50808216858316106103b4565b80fd5b50346101a657816003193601126101a6576020906001549051908152f35b50823461037857826003193601126103785782549060ff8260081c16610568575060ff80821603610541578280f35b60008051602061074d8339815191529160ff6020928119161784555160ff8152a181808280f35b608490602084519162461bcd60e51b8352820152602760248201527f496e697469616c697a61626c653a20636f6e747261637420697320696e697469604482015266616c697a696e6760c81b6064820152fd5b50346101a65760203660031901126101a6576105d56106a4565b9061010060ff845493818560081c161580610697575b6105f4906106c9565b16809361ffff1916171760ff8160081c161561065257600154600019811461063f576001908101905561ff00191683555190815260008051602061074d83398151915290602090a180f35b634e487b7160e01b855260118652602485fd5b815162461bcd60e51b8152602081870152602b602482015260008051602061072d83398151915260448201526a6e697469616c697a696e6760a81b6064820152608490fd5b50808216858316106105eb565b6004359060ff821682036106b457565b600080fd5b6024359060ff821682036106b457565b156106d057565b60405162461bcd60e51b815260206004820152602e60248201527f496e697469616c697a61626c653a20636f6e747261637420697320616c72656160448201526d191e481a5b9a5d1a585b1a5e995960921b6064820152608490fdfe496e697469616c697a61626c653a20636f6e7472616374206973206e6f7420697f26b83ff96e1f2b6a682f133852f6798a09c465da95921460cefb3847402498a2646970667358221220b1dee719e49104a79ffad9bd97a82a540d74d8b1b12e16654d984aea36f8434664736f6c63430008130033",
    "linkReferences": {}
  },
  "methodIdentifiers": {
    "chainReinitialize(uint8,uint8)": "6b2d8f8f",
    "counter()": "61bc221a",
    "disableInitializers()": "31f44900",
    "doStuff()": "874f33a1",
    "getInitializedVersion()": "b3c65015",
    "initialize()": "8129fc1c",
    "nestedReinitialize(uint8,uint8)": "f8d6cdba",
    "reinitialize(uint8)": "073de42e"
  },
  "id": 93
}