{
  "abi": [
    {
      "inputs": [],
      "stateMutability": "payable",
      "type": "constructor"
    },
    {
      "inputs": [
        {
          "internalType": "address",
          "name": "_initializationContractAddress",
          "type": "address"
        },
        {
          "internalType": "bytes",
          "name": "_calldata",
          "type": "bytes"
        }
      ],
      "name": "InitializationFunctionReverted",
      "type": "error"
    },
    {
      "anonymous": false,
      "inputs": [
        {
          "components": [
            {
              "internalType": "address",
              "name": "facetAddress",
              "type": "address"
            },
            {
              "internalType": "enum IDiamondCut.FacetCutAction",
              "name": "action",
              "type": "uint8"
            },
            {
              "internalType": "bytes4[]",
              "name": "functionSelectors",
              "type": "bytes4[]"
            }
          ],
          "indexed": false,
          "internalType": "struct IDiamondCut.FacetCut[]",
          "name": "_diamondCut",
          "type": "tuple[]"
        },
        {
          "indexed": false,
          "internalType": "address",
          "name": "_init",
          "type": "address"
        },
        {
          "indexed": false,
          "internalType": "bytes",
          "name": "_calldata",
          "type": "bytes"
        }
      ],
      "name": "DiamondCut",
      "type": "event"
    },
    {
      "anonymous": false,
      "inputs": [
        {
          "indexed": true,
          "internalType": "address",
          "name": "previousOwner",
          "type": "address"
        },
        {
          "indexed": true,
          "internalType": "address",
          "name": "newOwner",
          "type": "address"
        }
      ],
      "name": "OwnershipTransferred",
      "type": "event"
    },
    {
      "stateMutability": "payable",
      "type": "fallback"
    },
    {
      "inputs": [
        {
          "components": [
            {
              "internalType": "address",
              "name": "facetAddress",
              "type": "address"
            },
            {
              "internalType": "enum IDiamondCut.FacetCutAction",
              "name": "action",
              "type": "uint8"
            },
            {
              "internalType": "bytes4[]",
              "name": "functionSelectors",
              "type": "bytes4[]"
            }
          ],
          "internalType": "struct IDiamondCut.FacetCut[]",
          "name": "_diamondCut",
          "type": "tuple[]"
        },
        {
          "internalType": "address",
          "name": "_init",
          "type": "address"
        },
        {
          "internalType": "bytes",
          "name": "_calldata",
          "type": "bytes"
        }
      ],
      "name": "diamondCut",
      "outputs": [],
      "stateMutability": "nonpayable",
      "type": "function"
    },
    {
      "inputs": [
        {
          "internalType": "bytes4",
          "name": "_functionSelector",
          "type": "bytes4"
        }
      ],
      "name": "facetAddress",
      "outputs": [
        {
          "internalType": "address",
          "name": "facetAddress_",
          "type": "address"
        }
      ],
      "stateMutability": "view",
      "type": "function"
    },
    {
      "inputs": [],
      "name": "facetAddresses",
      "outputs": [
        {
          "internalType": "address[]",
          "name": "facetAddresses_",
          "type": "address[]"
        }
      ],
      "stateMutability": "view",
      "type": "function"
    },
    {
      "inputs": [
        {
          "internalType": "address",
          "name": "_facet",
          "type": "address"
        }
      ],
      "name": "facetFunctionSelectors",
      "outputs": [
        {
          "internalType": "bytes4[]",
          "name": "facetFunctionSelectors_",
          "type": "bytes4[]"
        }
      ],
      "stateMutability": "view",
      "type": "function"
    },
    {
      "inputs": [],
      "name": "facets",
      "outputs": [
        {
          "components": [
            {
              "internalType": "address",
              "name": "facetAddress",
              "type": "address"
            },
            {
              "internalType": "bytes4[]",
              "name": "functionSelectors",
              "type": "bytes4[]"
            }
          ],
          "internalType": "struct IDiamondLoupe.Facet[]",
          "name": "facets_",
          "type": "tuple[]"
        }
      ],
      "stateMutability": "view",
      "type": "function"
    },
    {
      "inputs": [],
      "name": "owner",
      "outputs": [
        {
          "internalType": "address",
          "name": "owner_",
          "type": "address"
        }
      ],
      "stateMutability": "view",
      "type": "function"
    },
    {
      "inputs": [
        {
          "internalType": "bytes4",
          "name": "_interfaceId",
          "type": "bytes4"
        }
      ],
      "name": "supportsInterface",
      "outputs": [
        {
          "internalType": "bool",
          "name": "",
          "type": "bool"
        }
      ],
      "stateMutability": "view",
      "type": "function"
    },
    {
      "inputs": [
        {
          "internalType": "address",
          "name": "_newOwner",
          "type": "address"
        }
      ],
      "name": "transferOwnership",
      "outputs": [],
      "stateMutability": "nonpayable",
      "type": "function"
    },
    {
      "stateMutability": "payable",
      "type": "receive"
    }
  ],
  "bytecode": {
    "object": "0x608060408190527fc8fcad8db84d3cc18b4c41d551ea0ee66dd599cde068d998e57d5e09332c13208054336001600160a01b031982168117909255600091906001600160a01b03167f8be0079c531659141344cd1fd0a4f28419497f9722a3daafe3b4186f6b6457e08380a36301ffc9a760e01b81527fc8fcad8db84d3cc18b4c41d551ea0ee66dd599cde068d998e57d5e09332c131f60205260408082208054600160ff1991821681179092556307e4c70760e21b845282842080548216831790556348e2b09360e01b845282842080548216831790556307f5828d60e41b84529190922080549091169091179055611a1b90816100fc8239f3fe60806040526004361015610015575b36610ba857005b60003560e01c806301ffc9a7146100955780631f931c1c1461009057806352ef6b2c1461008b5780637a0ed627146100865780638da5cb5b14610081578063adfca15e1461007c578063cdffacc6146100775763f2fde38b0361000e57610594565b61055f565b6104ed565b6104a5565b6103a5565b610214565b610198565b346100f95760203660031901126100f957602060ff6100ed6100b56100fe565b63ffffffff60e01b166000527fc8fcad8db84d3cc18b4c41d551ea0ee66dd599cde068d998e57d5e09332c131f602052604060002090565b54166040519015158152f35b600080fd5b600435906001600160e01b0319821682036100f957565b35906001600160e01b0319821682036100f957565b602435906001600160a01b03821682036100f957565b600435906001600160a01b03821682036100f957565b35906001600160a01b03821682036100f957565b9181601f840112156100f95782359167ffffffffffffffff83116100f957602083818601950101116100f957565b346100f95760603660031901126100f95760043567ffffffffffffffff8082116100f957366023830112156100f9578160040135918183116100f9573660248460051b830101116100f9576101eb61012a565b6044359283116100f95761021293610209602494369060040161016a565b949093016106fd565b005b346100f9576000806003193601126102e85760405180916000805160206119c6833981519152908154808452602080940190819383527fb5c239a29faf02594141bbc5e6982a9b85ba2b4d59c3ed3baaf4cb8e5e11cbef90835b8181106102cb5750505084610284910385610670565b60405193838594850191818652518092526040850193925b8281106102ab57505050500390f35b83516001600160a01b03168552869550938101939281019260010161029c565b82546001600160a01b03168452928601926001928301920161026e565b80fd5b90815180825260208080930193019160005b82811061030b575050505090565b83516001600160e01b031916855293810193928101926001016102fd565b602080820190808352835180925260409283810182858560051b8401019601946000925b85841061035e575050505050505090565b909192939495968580610394600193603f1986820301885286838d51878060a01b038151168452015191818582015201906102eb565b99019401940192959493919061034d565b346100f9576000806003193601126102e8576000805160206119c6833981519152546103d081610692565b906040926103e084519384610670565b818352601f196103ef83610692565b01815b8181106104825750505b818110610414578351806104108582610329565b0390f35b8061045f61043c61042761047d94610877565b905460039190911b1c6001600160a01b031690565b61045a8161044a85896108bf565b516001600160a01b039091169052565b6108d3565b610476602061046e84886108bf565b51019161090c565b905261084d565b6103fc565b602090865161049081610633565b848152826060818301528288010152016103f2565b346100f95760003660031901126100f9577fc8fcad8db84d3cc18b4c41d551ea0ee66dd599cde068d998e57d5e09332c1320546040516001600160a01b039091168152602090f35b346100f9576020806003193601126100f95761051261050d61045a610140565b61090c565b906040519181839283018184528251809152816040850193019160005b82811061053e57505050500390f35b83516001600160e01b0319168552869550938101939281019260010161052f565b346100f95760203660031901126100f95760206001600160a01b0361058a6105856100fe565b610b70565b5416604051908152f35b346100f95760203660031901126100f9576105ad610140565b6105b5610c51565b7fc8fcad8db84d3cc18b4c41d551ea0ee66dd599cde068d998e57d5e09332c132080546001600160a01b039283166001600160a01b0319821681179092559091167f8be0079c531659141344cd1fd0a4f28419497f9722a3daafe3b4186f6b6457e0600080a3005b634e487b7160e01b600052604160045260246000fd5b6040810190811067ffffffffffffffff82111761064f57604052565b61061d565b6060810190811067ffffffffffffffff82111761064f57604052565b90601f8019910116810190811067ffffffffffffffff82111761064f57604052565b67ffffffffffffffff811161064f5760051b60200190565b67ffffffffffffffff811161064f57601f01601f191660200190565b9291926106d2826106aa565b916106e06040519384610670565b8294818452818301116100f9578281602093846000960137010152565b949390929461070a610c51565b61071384610692565b93604061072281519687610670565b81865260209283870190600593841b8101933685116100f95781925b8584106107645750505050505050610762939461075c9136916106c6565b91610e12565b565b67ffffffffffffffff84358181116100f9578401906060823603126100f95786519161078f83610654565b61079881610156565b83528981013560038110156100f9578a840152878101359182116100f9570136601f820112156100f9578035906107ce82610692565b916107db89519384610670565b8083528a80840191871b830101913683116100f957908b80959396949201905b8682106108165750508394508882015281520193019261073e565b948192949693956108278293610115565b81520191018b94929593916107fb565b634e487b7160e01b600052601160045260246000fd5b600019811461085c5760010190565b610837565b634e487b7160e01b600052603260045260246000fd5b6000805160206119c683398151915280548210156108ba576000527fb5c239a29faf02594141bbc5e6982a9b85ba2b4d59c3ed3baaf4cb8e5e11cbef0190600090565b610861565b80518210156108ba5760209160051b010190565b6001600160a01b031660009081527fc8fcad8db84d3cc18b4c41d551ea0ee66dd599cde068d998e57d5e09332c131d6020526040902090565b90604080518093805492610933610927858560209181520190565b92600052602060002090565b9360005b816007820110610a8457610762955492828210610a63575b828210610a42575b828210610a21575b828210610a00575b8282106109df575b8282106109c1575b508181106109a3575b1061098e575b500383610670565b6001600160e01b031916815260200138610986565b602083811b6001600160e01b03191685529093600191019301610980565b83901b6001600160e01b031916845292600190602001930138610977565b606084901b6001600160e01b0319168552909360019060200194019061096f565b608084901b6001600160e01b03191685529093600190602001940190610967565b60a084901b6001600160e01b0319168552909360019060200194019061095f565b60c084901b6001600160e01b03191685529093600190602001940190610957565b6001600160e01b031960e085901b168552909360019060200194019061094f565b919350916001610100600892610b6088548060e0610aac8583831b63ffffffff60e01b169052565b610b4f60208c63ffffffff60e01b948591610b3d60c091610adb868d018686861b1663ffffffff60e01b169052565b84848d60a090610af98582018585851b1663ffffffff60e01b169052565b610b2c606085856080610b1a8487018484841b1663ffffffff60e01b169052565b8501921b1663ffffffff60e01b169052565b01921b1663ffffffff60e01b169052565b8901921b1663ffffffff60e01b169052565b8401911663ffffffff60e01b169052565b0195019101918693919492610937565b63ffffffff60e01b166000527fc8fcad8db84d3cc18b4c41d551ea0ee66dd599cde068d998e57d5e09332c131c602052604060002090565b600080356001600160e01b03191681527fc8fcad8db84d3cc18b4c41d551ea0ee66dd599cde068d998e57d5e09332c131c60205260408120546001600160a01b03168015610c0d57818091368280378136915af43d82803e15610c09573d90f35b3d90fd5b606460405162461bcd60e51b815260206004820152602060248201527f4469616d6f6e643a2046756e6374696f6e20646f6573206e6f742065786973746044820152fd5b7fc8fcad8db84d3cc18b4c41d551ea0ee66dd599cde068d998e57d5e09332c1320546001600160a01b03163303610c8457565b60405162461bcd60e51b815260206004820152602260248201527f4c69624469616d6f6e643a204d75737420626520636f6e7472616374206f776e60448201526132b960f11b6064820152608490fd5b60031115610cde57565b634e487b7160e01b600052602160045260246000fd5b516003811015610cde5790565b919082519283825260005b848110610d2d575050826000602080949584010152601f8019910116010190565b602081830181015184830182015201610d0c565b93929091936060928382019380835281518095526080830160808660051b85010195602080940192600080915b838310610da357505050505050610da09495610d939183019060018060a01b03169052565b6040818403910152610d01565b90565b909192939498607f1988820301865289519060018060a01b038251168152878201516003811015610dfe57610df060019385848c95948680960152816040809401519382015201906102eb565b9b0196019493019190610d6e565b634e487b7160e01b85526021600452602485fd5b92909160005b8451811015610f5557610e376020610e3083886108bf565b5101610cf4565b610e4081610cd4565b80610e87575080610e7d610e68610e5a610e8294896108bf565b51516001600160a01b031690565b6040610e74848a6108bf565b51015190611070565b61084d565b610e18565b610e9081610cd4565b60018103610ec2575080610e7d610ead610e5a610e8294896108bf565b6040610eb9848a6108bf565b5101519061117e565b80610ece600292610cd4565b03610efc5780610e7d610ee7610e5a610e8294896108bf565b6040610ef3848a6108bf565b5101519061129e565b60405162461bcd60e51b815260206004820152602760248201527f4c69624469616d6f6e644375743a20496e636f727265637420466163657443756044820152663a20b1ba34b7b760c91b6064820152608490fd5b0390fd5b509092917f8faa70878671ccd212d20771b795c50af8fd3ff6cf27f4bde57e5d4de0aeb6738161076294610f8f8560405193849384610d41565b0390a16118e9565b15610f9e57565b60405162461bcd60e51b815260206004820152602b60248201527f4c69624469616d6f6e644375743a204e6f2073656c6563746f727320696e206660448201526a1858d95d081d1bc818dd5d60aa1b6064820152608490fd5b15610ffe57565b60405162461bcd60e51b815260206004820152602c60248201527f4c69624469616d6f6e644375743a204164642066616365742063616e2774206260448201526b65206164647265737328302960a01b6064820152608490fd5b6001600160601b0380911690811461085c5760010190565b91909161107f83511515610f97565b6001600160a01b03926110958285161515610ff7565b6001600160601b036110a6836108d3565b5416908115611170575b6000915b8151831015611168576001600160e01b03196110d084846108bf565b5116866110dc82610b70565b541661110557816110f4866110ff946110f99461148e565b611058565b9261084d565b916110b4565b60405162461bcd60e51b815260206004820152603560248201527f4c69624469616d6f6e644375743a2043616e2774206164642066756e6374696f6044820152746e207468617420616c72656164792065786973747360581b6064820152608490fd5b505050509050565b61117983611374565b6110b0565b919061118c81511515610f97565b6001600160a01b0383811691906111a4831515610ff7565b6001600160601b036111b5866108d3565b5416918215611290575b6000925b8151841015611287576001600160e01b03196111df85846108bf565b5116836111eb82610b70565b54169186831461121c576110f489828461120b6112109661121698611717565b61148e565b9361084d565b926111c3565b60405162461bcd60e51b815260206004820152603860248201527f4c69624469616d6f6e644375743a2043616e2774207265706c6163652066756e60448201527f6374696f6e20776974682073616d652066756e6374696f6e00000000000000006064820152608490fd5b50505050509050565b61129986611374565b6111bf565b9190916112ad83511515610f97565b6001600160a01b03166113105760005b825181101561130b5780610e7d6112e86112da61130694876108bf565b516001600160e01b03191690565b6113016112f482610b70565b546001600160a01b031690565b611717565b6112bd565b509050565b60405162461bcd60e51b815260206004820152603660248201527f4c69624469616d6f6e644375743a2052656d6f76652066616365742061646472604482015275657373206d757374206265206164647265737328302960501b6064820152608490fd5b6113c060405161138381610654565b602481527f4c69624469616d6f6e644375743a204e657720666163657420686173206e6f20602082015263636f646560e01b604082015282611998565b6000805160206119c683398151915290815460018060a01b0382166000527fc8fcad8db84d3cc18b4c41d551ea0ee66dd599cde068d998e57d5e09332c131d60205280600160406000200155600160401b81101561064f57600181018084558110156108ba57610762926000527fb5c239a29faf02594141bbc5e6982a9b85ba2b4d59c3ed3baaf4cb8e5e11cbef019060018060a01b03166001600160601b0360a01b825416179055565b91909180548310156108ba57600052601c60206000208360031c019260021b1690565b6001600160e01b0319811660008181527fc8fcad8db84d3cc18b4c41d551ea0ee66dd599cde068d998e57d5e09332c131c60208190526040822080546001600160a01b031660a09690961b6001600160a01b031916959095179094559193929091906001600160a01b03841682527fc8fcad8db84d3cc18b4c41d551ea0ee66dd599cde068d998e57d5e09332c131d602052604082208054909390600160401b81101561064f576107629661154e82604097600161156b9501815561146b565b90919063ffffffff83549160031b9260e01c831b921b1916179055565b82526020522080546001600160a01b0319166001600160a01b03909216919091179055565b1561159757565b60405162461bcd60e51b815260206004820152603760248201527f4c69624469616d6f6e644375743a2043616e27742072656d6f76652066756e6360448201527f74696f6e207468617420646f65736e27742065786973740000000000000000006064820152608490fd5b1561160957565b60405162461bcd60e51b815260206004820152602e60248201527f4c69624469616d6f6e644375743a2043616e27742072656d6f766520696d6d7560448201526d3a30b1363290333ab731ba34b7b760911b6064820152608490fd5b60001981019190821161085c57565b634e487b7160e01b600052603160045260246000fd5b805480156116b45760001901906116a1828261146b565b63ffffffff82549160031b1b1916905555565b611674565b6000805160206119c683398151915280549081156116b457600019820191808310156108ba5760008290527fb5c239a29faf02594141bbc5e6982a9b85ba2b4d59c3ed3baaf4cb8e5e11cbee0180546001600160a01b031916905555565b906117386001600160a01b038316611730811515611590565b301415611602565b600061179061175f61175361174c85610b70565b5460a01c90565b6001600160601b031690565b928461177361176d826108d3565b54611665565b9485808203611821575b505061178b610585916108d3565b61168a565b55156117995750565b60016117d86000926117b96000805160206119c683398151915254611665565b836117c3836108d3565b0154908082036117dc575b505061045a6116b9565b0155565b6118186117ec6104278793610877565b61045a816117f986610877565b90919082549060031b9160018060a01b03809116831b921b1916179055565b015538806117ce565b6001600160601b03826118658561154e61184b9661185d61185061186c9861184b61188f9c6108d3565b61146b565b90549060031b1c60e01b90565b9788936108d3565b1691610b70565b80546001600160a01b031660a09290921b6001600160a01b031916919091179055565b84388561177d565b3d156118c2573d906118a8826106aa565b916118b66040519384610670565b82523d6000602084013e565b606090565b6001600160a01b039091168152604060208201819052610da092910190610d01565b906001600160a01b038216156119945761194960405161190881610654565b602881527f4c69624469616d6f6e644375743a205f696e6974206164647265737320686173602082015267206e6f20636f646560c01b604082015283611998565b600080825160208401855af49161195e611897565b921561196957505050565b82511561197857825160208401fd5b610f5160405192839263192105d760e01b8452600484016118c7565b5050565b3b156119a15750565b60405162461bcd60e51b815260206004820152908190610f51906024830190610d0156fec8fcad8db84d3cc18b4c41d551ea0ee66dd599cde068d998e57d5e09332c131ea264697066735822122092f3971ece8eacbd35d349cf64404497074b0a243c34a57042ae2ffe12cc428964736f6c63430008130033",
    "linkReferences": {}
  },
  "methodIdentifiers": {
    "diamondCut((address,uint8,bytes4[])[],address,bytes)": "1f931c1c",
    "facetAddress(bytes4)": "cdffacc6",
    "facetAddresses()": "52ef6b2c",
    "facetFunctionSelectors(address)": "adfca15e",
    "facets()": "7a0ed627",
    "owner()": "8da5cb5b",
    "supportsInterface(bytes4)": "01ffc9a7",
    "transferOwnership(address)": "f2fde38b"
  },
  "id": 524
}