{
  "abi": [
    {
      "inputs": [],
      "name": "DiamondWritable__InvalidInitializationParameters",
      "type": "error"
    },
    {
      "inputs": [],
      "name": "DiamondWritable__RemoveTargetNotZeroAddress",
      "type": "error"
    },
    {
      "inputs": [],
      "name": "DiamondWritable__ReplaceTargetIsIdentical",
      "type": "error"
    },
    {
      "inputs": [],
      "name": "DiamondWritable__SelectorAlreadyAdded",
      "type": "error"
    },
    {
      "inputs": [],
      "name": "DiamondWritable__SelectorIsImmutable",
      "type": "error"
    },
    {
      "inputs": [],
      "name": "DiamondWritable__SelectorNotFound",
      "type": "error"
    },
    {
      "inputs": [],
      "name": "DiamondWritable__SelectorNotSpecified",
      "type": "error"
    },
    {
      "inputs": [],
      "name": "DiamondWritable__TargetHasNoCode",
      "type": "error"
    },
    {
      "inputs": [],
      "name": "ERC165Base__InvalidInterfaceId",
      "type": "error"
    },
    {
      "inputs": [],
      "name": "Ownable__NotOwner",
      "type": "error"
    },
    {
      "inputs": [],
      "name": "Ownable__NotTransitiveOwner",
      "type": "error"
    },
    {
      "inputs": [],
      "name": "Proxy__ImplementationIsNotContract",
      "type": "error"
    },
    {
      "inputs": [],
      "name": "SafeOwnable__NotNomineeOwner",
      "type": "error"
    },
    {
      "anonymous": false,
      "inputs": [
        {
          "components": [
            {
              "internalType": "address",
              "name": "target",
              "type": "address"
            },
            {
              "internalType": "enum IDiamondWritableInternal.FacetCutAction",
              "name": "action",
              "type": "uint8"
            },
            {
              "internalType": "bytes4[]",
              "name": "selectors",
              "type": "bytes4[]"
            }
          ],
          "indexed": false,
          "internalType": "struct IDiamondWritableInternal.FacetCut[]",
          "name": "facetCuts",
          "type": "tuple[]"
        },
        {
          "indexed": false,
          "internalType": "address",
          "name": "target",
          "type": "address"
        },
        {
          "indexed": false,
          "internalType": "bytes",
          "name": "data",
          "type": "bytes"
        }
      ],
      "name": "DiamondCut",
      "type": "event"
    },
    {
      "anonymous": false,
      "inputs": [
        {
          "indexed": true,
          "internalType": "address",
          "name": "previousOwner",
          "type": "address"
        },
        {
          "indexed": true,
          "internalType": "address",
          "name": "newOwner",
          "type": "address"
        }
      ],
      "name": "OwnershipTransferred",
      "type": "event"
    },
    {
      "stateMutability": "payable",
      "type": "fallback"
    },
    {
      "inputs": [],
      "name": "acceptOwnership",
      "outputs": [],
      "stateMutability": "nonpayable",
      "type": "function"
    },
    {
      "inputs": [
        {
          "components": [
            {
              "internalType": "address",
              "name": "target",
              "type": "address"
            },
            {
              "internalType": "enum IDiamondWritableInternal.FacetCutAction",
              "name": "action",
              "type": "uint8"
            },
            {
              "internalType": "bytes4[]",
              "name": "selectors",
              "type": "bytes4[]"
            }
          ],
          "internalType": "struct IDiamondWritableInternal.FacetCut[]",
          "name": "facetCuts",
          "type": "tuple[]"
        },
        {
          "internalType": "address",
          "name": "target",
          "type": "address"
        },
        {
          "internalType": "bytes",
          "name": "data",
          "type": "bytes"
        }
      ],
      "name": "diamondCut",
      "outputs": [],
      "stateMutability": "nonpayable",
      "type": "function"
    },
    {
      "inputs": [
        {
          "internalType": "bytes4",
          "name": "selector",
          "type": "bytes4"
        }
      ],
      "name": "facetAddress",
      "outputs": [
        {
          "internalType": "address",
          "name": "facet",
          "type": "address"
        }
      ],
      "stateMutability": "view",
      "type": "function"
    },
    {
      "inputs": [],
      "name": "facetAddresses",
      "outputs": [
        {
          "internalType": "address[]",
          "name": "addresses",
          "type": "address[]"
        }
      ],
      "stateMutability": "view",
      "type": "function"
    },
    {
      "inputs": [
        {
          "internalType": "address",
          "name": "facet",
          "type": "address"
        }
      ],
      "name": "facetFunctionSelectors",
      "outputs": [
        {
          "internalType": "bytes4[]",
          "name": "selectors",
          "type": "bytes4[]"
        }
      ],
      "stateMutability": "view",
      "type": "function"
    },
    {
      "inputs": [],
      "name": "facets",
      "outputs": [
        {
          "components": [
            {
              "internalType": "address",
              "name": "target",
              "type": "address"
            },
            {
              "internalType": "bytes4[]",
              "name": "selectors",
              "type": "bytes4[]"
            }
          ],
          "internalType": "struct IDiamondReadable.Facet[]",
          "name": "diamondFacets",
          "type": "tuple[]"
        }
      ],
      "stateMutability": "view",
      "type": "function"
    },
    {
      "inputs": [],
      "name": "getFallbackAddress",
      "outputs": [
        {
          "internalType": "address",
          "name": "fallbackAddress",
          "type": "address"
        }
      ],
      "stateMutability": "view",
      "type": "function"
    },
    {
      "inputs": [],
      "name": "nomineeOwner",
      "outputs": [
        {
          "internalType": "address",
          "name": "",
          "type": "address"
        }
      ],
      "stateMutability": "view",
      "type": "function"
    },
    {
      "inputs": [],
      "name": "owner",
      "outputs": [
        {
          "internalType": "address",
          "name": "",
          "type": "address"
        }
      ],
      "stateMutability": "view",
      "type": "function"
    },
    {
      "inputs": [
        {
          "internalType": "address",
          "name": "fallbackAddress",
          "type": "address"
        }
      ],
      "name": "setFallbackAddress",
      "outputs": [],
      "stateMutability": "nonpayable",
      "type": "function"
    },
    {
      "inputs": [
        {
          "internalType": "bytes4",
          "name": "interfaceId",
          "type": "bytes4"
        }
      ],
      "name": "supportsInterface",
      "outputs": [
        {
          "internalType": "bool",
          "name": "",
          "type": "bool"
        }
      ],
      "stateMutability": "view",
      "type": "function"
    },
    {
      "inputs": [
        {
          "internalType": "address",
          "name": "account",
          "type": "address"
        }
      ],
      "name": "transferOwnership",
      "outputs": [],
      "stateMutability": "nonpayable",
      "type": "function"
    },
    {
      "stateMutability": "payable",
      "type": "receive"
    }
  ],
  "bytecode": {
    "object": "0x60806040523462000337576200031c6200001862000378565b620000336200002782620003bc565b632c40805960e01b9052565b6200004e6200004282620003d0565b639142376560e01b9052565b632f40adcf60e21b600052600080516020620025738339815191526020527fea929569903c3e19530358310fcaf1a971b387fd41008d81b0a7f1275e915a5c805460ff19166001179055620000b3620000a782620003e1565b6307e4c70760e21b9052565b6307e4c70760e21b600052600080516020620025738339815191526020527ffd29538739e576e7ec1eb8c7e901cca011aae0deb8fb2c6280a4c2300add457d805460ff19166001179055620001186200010c82620003f2565b637a0ed62760e01b9052565b62000133620001278262000403565b6356fe50af60e11b9052565b6200014e620001428262000414565b6314bbdacb60e21b9052565b620001696200015d8262000425565b6366ffd66360e11b9052565b6348e2b09360e01b600052600080516020620025738339815191526020527fb36cab0dec645683c2d905d6b41349479e1d7f665c3cff144fecc78944a31d5b805460ff19166001179055620001ce620001c28262000436565b6301ffc9a760e01b9052565b6301ffc9a760e01b600052600080516020620025738339815191526020527f3df35b507c5de77f483b4e9b5c258409299a2e6dc816fa76a389e598628b08a5805460ff1916600117905562000233620002278262000448565b638da5cb5b60e01b9052565b6200024e62000242826200045a565b63455a8a8560e11b9052565b620002696200025d826200046c565b63f2fde38b60e01b9052565b6200028462000278826200047e565b6379ba509760e01b9052565b6307f5828d60e41b600052600080516020620025738339815191526020527fa9832637661075437d81882814f92cc614421ae9c04c71ce67957179f7086c18805460ff19166001179055620002d8620004a5565b90620002e362000352565b30815290600060208301526040820152620002fe82620003bc565b526200030a81620003bc565b50620003156200052c565b90620006ed565b620003273362000550565b6040516116fe908162000e758239f35b600080fd5b634e487b7160e01b600052604160045260246000fd5b60405190606082016001600160401b038111838210176200037257604052565b6200033c565b604051906101a082016001600160401b038111838210176200037257604052600c8252610180366020840137565b634e487b7160e01b600052603260045260246000fd5b805115620003ca5760200190565b620003a6565b805160011015620003ca5760400190565b805160021015620003ca5760600190565b805160031015620003ca5760800190565b805160041015620003ca5760a00190565b805160051015620003ca5760c00190565b805160061015620003ca5760e00190565b805160071015620003ca576101000190565b805160081015620003ca576101200190565b805160091015620003ca576101400190565b8051600a1015620003ca576101600190565b8051600b1015620003ca576101800190565b8051821015620003ca5760209160051b010190565b6040805191908281016001600160401b0381118482101762000372578152600183528291600091825b602080821015620005025790602091620004e762000352565b908682528681830152606085830152828901015201620004ce565b50505091925050565b600311156200051657565b634e487b7160e01b600052602160045260246000fd5b60405190602082016001600160401b03811183821017620003725760405260008252565b7f8a22373512790c48b83a1fe2efdd2888d4a917bcdc24d0adf63e60f671680460805490916001600160a01b039081169190829082167f8be0079c531659141344cd1fd0a4f28419497f9722a3daafe3b4186f6b6457e0600080a36001600160a01b031916179055565b919082519283825260005b848110620005e7575050826000602080949584010152601f8019910116010190565b602081830181015184830182015201620005c5565b919091606092838201848352815180915260809485840191868160051b860101966020809501936000915b8383106200065357505050505050906000620006509493928201526040818403910152620005ba565b90565b909192939498607f198882030183528951908681019060018060a01b038351168152888301516003811015620005165784828b9594939286809401528a604080960151958201528451809452019201906000905b808210620006c85750505090806001929b0193019301919493929062000627565b82516001600160e01b03191684528a94938401939092019160019190910190620006a7565b9190916200071762000710600080516020620025938339815191525461ffff1690565b61ffff1690565b90819260009460078416620008b5575b6000935b8351851015620008035762000741858562000490565b5190602082015162000753816200050b565b6040808401515115620007f357506200076c816200050b565b806200078e5750906001976200078292620008e5565b9690945b01936200072b565b6200079d81979392976200050b565b60018103620007bb575090620007b560019262000d3d565b62000786565b80620007c96002926200050b565b14620007da575b5060019062000786565b600197620007e9929662000a98565b96909490620007d0565b5163eb6c3aeb60e01b8152600490fd5b819450957f8faa70878671ccd212d20771b795c50af8fd3ff6cf27f4bde57e5d4de0aeb673939192966200085f96810362000890575b6007811662000861575b50506200085660405192839283620005fc565b0390a162000e56565b565b620008879060031c600052600080516020620025d3833981519152602052604060002090565b55388062000843565b60008051602062002593833981519152805461ffff191661ffff831617905562000839565b9450620008dd8360031c600052600080516020620025d3833981519152602052604060002090565b549462000727565b82519091906001600160a01b03166001600160a01b038116301415908162000a8d575b5062000a7b5760009384925b604080860151805186101562000a6f576200093486620009429262000490565b516001600160e01b03191690565b906200099b6200098f620009896200097b8563ffffffff60e01b16600052600080516020620025b3833981519152602052604060002090565b546001600160601b03191690565b60601c90565b6001600160a01b031690565b62000a5f5750855182906001600160601b031990620009ce906001600160a01b03165b60601b6001600160601b03191690565b1617620009fc8263ffffffff60e01b16600052600080516020620025b3833981519152602052604060002090565b5560e090818360051b169463ffffffff60e01b809216861c91861c191617931462000a2f575b6001938401930162000914565b9162000a568360031c600052600080516020620025d3833981519152602052604060002090565b55849162000a22565b51634923a77160e11b8152600490fd5b50509250925092509190565b604051633ddc5cab60e21b8152600490fd5b3b1590503862000908565b82519293929091906001600160a01b031662000d2b5790600780821691600390600090821c5b60409586890151805184101562000d1c57620009348462000adf9262000490565b9562000b0c8763ffffffff60e01b16600052600080516020620025b3833981519152602052604060002090565b54978860601c801562000d0b57301462000cfb57508162000ce8575050600019019062000b5182600052600080516020620025d3833981519152602052604060002090565b5494849687915b60e063ffffffff811b92600062000ba3858c600598891b1b1694868116860362000c645763ffffffff60e01b16600052600080516020620025b3833981519152602052604060002090565b5580881c611fff16941b169185841462000c51579062000c09929162000be185600052600080516020620025d3833981519152602052604060002090565b5491831c921c19161791600052600080516020620025d3833981519152602052604060002090565b555b851562000c20575b6001019094939462000abe565b9350600062000c4782600052600080516020620025d3833981519152602052604060002090565b5560009362000c13565b9180949893501c921c1916179362000c0b565b62000ca562000c986200097b8863ffffffff60e01b16600052600080516020620025b3833981519152602052604060002090565b6001600160601b03191690565b6001600160e01b03198781166000908152600080516020620025b383398151915260205260408082206001600160601b0389169490941790935592168252902090565b6000190196909591929187919062000b58565b5163e983573160e01b8152600490fd5b81516337e25a9760e11b8152600490fd5b5097509394505090501b179190565b604051633ab3490960e21b8152600490fd5b80516001600160a01b03163b1562000a7b5760005b604080830151805183101562000e5057620009348362000d729262000490565b9062000d9f8263ffffffff60e01b16600052600080516020620025b3833981519152602052604060002090565b54908160601c801562000d0b5730811462000e3f57855162000dca906001600160a01b03166200098f565b1462000e2f57508351600193929162000e279162000df69062000c98906001600160a01b0316620009be565b90858060601b0316179163ffffffff60e01b16600052600080516020620025b3833981519152602052604060002090565b550162000d52565b516330baabf360e11b8152600490fd5b815163e983573160e01b8152600490fd5b50505050565b511560010362000e6257565b6040516326df4ccd60e01b8152600490fdfe60806040526004361015610015575b36610ba657005b60003560e01c806301ffc9a7146100d55780631f931c1c146100d05780632c408059146100cb57806352ef6b2c146100c657806379ba5097146100c15780637a0ed627146100bc5780638ab5150a146100b75780638da5cb5b146100b257806391423765146100ad578063adfca15e146100a8578063cdffacc6146100a35763f2fde38b0361000e57610afe565b610aa1565b61098f565b6108c8565b610892565b61084a565b6105cd565b61046a565b6102e0565b610254565b6101d8565b61010b565b600435906001600160e01b0319821682036100f157565b600080fd5b35906001600160e01b0319821682036100f157565b346100f15760203660031901126100f1576001600160e01b031961012d6100da565b166000527ffc606c433378e3a7e0a6a531deac289b66caa1b4aa8554fd4ab2c6f1570f92d8602052602060ff604060002054166040519015158152f35b602435906001600160a01b03821682036100f157565b600435906001600160a01b03821682036100f157565b35906001600160a01b03821682036100f157565b9181601f840112156100f15782359167ffffffffffffffff83116100f157602083818601950101116100f157565b346100f15760603660031901126100f15760043567ffffffffffffffff8082116100f157366023830112156100f1578160040135918183116100f1573660248460051b830101116100f15761022b61016a565b6044359283116100f1576102529361024960249436906004016101aa565b94909301610e0b565b005b346100f15760003660031901126100f1577f177481ac65e4292921c69f62d1cc7f57541261e5d61c8175cf4e36a01c9bfc96546040516001600160a01b039091168152602090f35b6020908160408183019282815285518094520193019160005b8281106102c3575050505090565b83516001600160a01b0316855293810193928101926001016102b5565b346100f1576000806003193601126104675761031661030f6000805160206116898339815191525461ffff1690565b61ffff1690565b9061032082610d36565b908080815b858210610341578385526040518061033d878261029c565b0390f35b61034a81610d88565b5483905b60088210610367575b505061036290610d74565b610325565b91959396909261037690610d74565b9481861161045a576103af6103a961039b63ffffffff60e01b868860051b1b16610b6e565b546001600160601b03191690565b60601c90565b886001600160a01b038216815b848110610411575b505061040657816103ee6103f3926103df6103f9958a610ddf565b6001600160a01b039091169052565b610d74565b93610d74565b909693959194929461034e565b50926103f990610d74565b61043a61042e610421838c610ddf565b516001600160a01b031690565b6001600160a01b031690565b821461044e5761044990610d74565b6103bc565b505050600138806103c4565b9492819794969250610357565b80fd5b346100f157600080600319360112610467577f24aa1f7b31fd188a8d3ecfb06bc55c806040e59b03bd4396283442fce661789080546001600160a01b03908181163303610501576000805160206116a9833981519152805492339084167f8be0079c531659141344cd1fd0a4f28419497f9722a3daafe3b4186f6b6457e08780a36001600160a01b03199283163317905516905580f35b60405163efd1052d60e01b8152600490fd5b90815180825260208080930193019160005b828110610533575050505090565b83516001600160e01b03191685529381019392810192600101610525565b602080820190808352835180925260409283810182858560051b8401019601946000925b858410610586575050505050505090565b9091929394959685806105bc600193603f1986820301885286838d51878060a01b03815116845201519181858201520190610513565b990194019401929594939190610575565b346100f157600080600319360112610467576105fc61030f6000805160206116898339815191525461ffff1690565b61060581610ccd565b9061060f81610d36565b92809181825b828210610673575050505b818110610638578183526040518061033d8582610551565b8061065961065361064c61066e9488610ddf565b5160ff1690565b60ff1690565b60206106658387610ddf565b51015152610d74565b610620565b61067c81610d88565b5484905b60088210610699575b505061069490610d74565b610615565b90939196926106aa90989598610d74565b9582871161083d5763ffffffff60e01b828660051b1b166106d06103a961039b83610b6e565b8a6001600160a01b038216815b858110610787575b505061077b57916107536107669261071461076c95610704858b610ddf565b516001600160a01b039091169052565b61074361072088610d36565b6020908161072e878d610ddf565b51015261073b858b610ddf565b510151610dcd565b6001600160e01b03199091169052565b6103ee610760828a610ddf565b60019052565b94610d74565b90979497969193959296610680565b50509361076c90610d74565b8a858a846107a961042e61079b8785610ddf565b51516001600160a01b031690565b146107bf575050506107ba90610d74565b6106dd565b610834955083809550610825936108016108209461074360206107e861082c9a61064c98610ddf565b5101516107fb61065361064c8888610ddf565b90610ddf565b61081b60ff8061081461064c8686610ddf565b1610610df3565b610ddf565b610dfa565b918b610ddf565b9060ff169052565b600138806106e5565b9592969193979497610689565b346100f15760003660031901126100f1577f24aa1f7b31fd188a8d3ecfb06bc55c806040e59b03bd4396283442fce6617890546040516001600160a01b039091168152602090f35b346100f15760003660031901126100f1576000805160206116a9833981519152546040516001600160a01b039091168152602090f35b346100f15760203660031901126100f1576108e1610180565b6000805160206116a9833981519152546001600160a01b039081163303610938577f177481ac65e4292921c69f62d1cc7f57541261e5d61c8175cf4e36a01c9bfc9680546001600160a01b03191691909216179055005b604051632f7a8ee160e01b8152600490fd5b6020908160408183019282815285518094520193019160005b828110610971575050505090565b83516001600160e01b03191685529381019392810192600101610963565b346100f15760203660031901126100f1576109a8610180565b6109c561030f6000805160206116898339815191525461ffff1690565b906109cf82610d36565b9060009081906001600160a01b0316815b8583106109f8578385526040518061033d878261094a565b610a0181610d88565b546000905b60088210610a1f575b5050610a1a90610d74565b6109e0565b91969095929493610a2f90610d74565b95818711610a935763ffffffff60e01b838260051b1b16610a5861042e6103a961039b84610b6e565b8714610a76575b50610a6990610d74565b9096919593949295610a06565b856103ee610a8c92610743610a69959989610ddf565b9490610a5f565b819792509593949295610a0f565b346100f15760203660031901126100f1576001600160e01b0319610ac36100da565b166000527f177481ac65e4292921c69f62d1cc7f57541261e5d61c8175cf4e36a01c9bfc93602052602060406000205460601c604051908152f35b346100f15760203660031901126100f157610b17610180565b6000805160206116a9833981519152546001600160a01b039081163303610938577f24aa1f7b31fd188a8d3ecfb06bc55c806040e59b03bd4396283442fce661789080546001600160a01b03191691909216179055005b63ffffffff60e01b166000527f177481ac65e4292921c69f62d1cc7f57541261e5d61c8175cf4e36a01c9bfc93602052604060002090565b600080356001600160e01b03191681527f177481ac65e4292921c69f62d1cc7f57541261e5d61c8175cf4e36a01c9bfc93602052604090205460601c8015610c23575b803b15610c115760008091368280378136915af43d6000803e15610c0c573d6000f35b3d6000fd5b6040516321f27f0d60e21b8152600490fd5b507f177481ac65e4292921c69f62d1cc7f57541261e5d61c8175cf4e36a01c9bfc96546001600160a01b0316610be9565b634e487b7160e01b600052604160045260246000fd5b604051906060820182811067ffffffffffffffff821117610c8a57604052565b610c54565b6040519190601f01601f1916820167ffffffffffffffff811183821017610c8a57604052565b67ffffffffffffffff8111610c8a5760051b60200190565b90610cdf610cda83610cb5565b610c8f565b8281528092610cf0601f1991610cb5565b016000805b828110610d025750505050565b604090815182810181811067ffffffffffffffff821117610c8a576020935283815282606081830152828701015201610cf5565b90610d43610cda83610cb5565b8281528092610d54601f1991610cb5565b0190602036910137565b634e487b7160e01b600052601160045260246000fd5b6000198114610d835760010190565b610d5e565b6000527f177481ac65e4292921c69f62d1cc7f57541261e5d61c8175cf4e36a01c9bfc95602052604060002090565b634e487b7160e01b600052603260045260246000fd5b805115610dda5760200190565b610db7565b8051821015610dda5760209160051b010190565b156100f157565b60ff1660ff8114610d835760010190565b6000805160206116a98339815191525493959491936001600160a01b0316330361093857610e3b610cda85610cb5565b9081948083526020809301600591821b8301923684116100f15780915b848310610e7d57505050505050610e7b9394610e75913691610f64565b916110c1565b565b67ffffffffffffffff83358181116100f15783016060813603126100f157610ea3610c6a565b91610ead82610196565b83528882013560038110156100f15789840152604091828101359182116100f157019036601f830112156100f157813591610eea610cda84610cb5565b928a808583815201918a1b830101913683116100f157918b80969492979593015b818110610f25575050849550820152815201920191610e58565b9193958091939597610f36846100f6565b8152019101918b959391969492610f0b565b67ffffffffffffffff8111610c8a57601f01601f191660200190565b929192610f73610cda83610f48565b93828552828201116100f157816000926020928387013784010152565b60031115610f9a57565b634e487b7160e01b600052602160045260246000fd5b919082519283825260005b848110610fdc575050826000602080949584010152601f8019910116010190565b602081830181015184830182015201610fbb565b93929091936060928382019380835281518095526080830160808660051b85010195602080940192600080915b8383106110525750505050505061104f94956110429183019060018060a01b03169052565b6040818403910152610fb0565b90565b909192939498607f1988820301865289519060018060a01b0382511681528782015160038110156110ad5761109f60019385848c9594868096015281604080940151938201520190610513565b9b019601949301919061101d565b634e487b7160e01b85526021600452602485fd5b9290926110e161030f6000805160206116898339815191525461ffff1690565b91829360009560078516611242575b6000945b84518610156111b3576111078686610ddf565b5190602082015161111781610f90565b60408084015151156111a3575061112d81610f90565b8061114b57509060019861114092611257565b9790955b01946110f4565b6111588198939298610f90565b6001810361117257509061116d60019261151a565b611144565b8061117e600292610f90565b1461118d575b50600190611144565b60019861119a929761137b565b97909590611184565b5163eb6c3aeb60e01b8152600490fd5b819491929550967f8faa70878671ccd212d20771b795c50af8fd3ff6cf27f4bde57e5d4de0aeb6739397610e7b97810361121f575b6007811661120b575b50506112038560405193849384610ff0565b0390a161160d565b6112179060031c610d88565b5538806111f1565b600080516020611689833981519152805461ffff191661ffff83161790556111e8565b95506112508460031c610d88565b54956110f0565b82519091906001600160a01b03166001600160a01b0381163014159081611371575b5061135f5760009384925b6040808601518051861015611353576112a0866112ae92610ddf565b516001600160e01b03191690565b906112c161042e6103a961039b85610b6e565b6113435750855182906001600160601b0319906112f2906001600160a01b03165b60601b6001600160601b03191690565b16176112fd82610b6e565b5560e090818360051b169463ffffffff60e01b809216861c91861c191617931461132e575b60019384019301611284565b9161133b8360031c610d88565b558491611322565b51634923a77160e11b8152600490fd5b50509250925092509190565b604051633ddc5cab60e21b8152600490fd5b3b15905038611279565b82519293929091906001600160a01b03166115085790600780821691600390600090821c5b6040958689015180518410156114f9576112a0846113bd92610ddf565b956113c787610b6e565b54978860601c80156114e85730146114d85750816114c657505060001901906113ef82610d88565b5494849687915b60e063ffffffff811b92600061141d858c600598891b1b1694868116860361148b57610b6e565b5580881c611fff16941b1691858414611479579061144e929161143f85610d88565b5491831c921c19161791610d88565b555b8515611463575b600101909493946113a0565b9350600061147082610d88565b55600093611457565b9180949893501c921c19161793611450565b6114a761149a61039b88610b6e565b6001600160601b03191690565b6bffffffffffffffffffffffff8516176114c087610b6e565b55610b6e565b600019019690959192918791906113f6565b5163e983573160e01b8152600490fd5b81516337e25a9760e11b8152600490fd5b5097509394505090501b179190565b604051633ab3490960e21b8152600490fd5b80516001600160a01b03163b1561135f5760005b60408083015180518310156115e1576112a08361154a92610ddf565b9061155482610b6e565b54908160601c80156114e8573081146115d057855161157b906001600160a01b031661042e565b146115c05750835160019392916115b9916bffffffffffffffffffffffff906115b09061149a906001600160a01b03166112e2565b91161791610b6e565b550161152e565b516330baabf360e11b8152600490fd5b815163e983573160e01b8152600490fd5b50505050565b3d15611608573d906115fb610cda83610f48565b9182523d6000602084013e565b606090565b81516001600160a01b03821690811590158103611676571561162e57505050565b300361165e575b816000929160208493519201905af461164c6115e7565b501561165457565b3d6000803e3d6000fd5b803b61163557604051633ddc5cab60e21b8152600490fd5b6040516326df4ccd60e01b8152600490fdfe177481ac65e4292921c69f62d1cc7f57541261e5d61c8175cf4e36a01c9bfc948a22373512790c48b83a1fe2efdd2888d4a917bcdc24d0adf63e60f671680460a26469706673582212204f1093504d1ae423596e12f4f701dbe68ff276539906605d58abda782c2d40c564736f6c63430008130033fc606c433378e3a7e0a6a531deac289b66caa1b4aa8554fd4ab2c6f1570f92d8177481ac65e4292921c69f62d1cc7f57541261e5d61c8175cf4e36a01c9bfc94177481ac65e4292921c69f62d1cc7f57541261e5d61c8175cf4e36a01c9bfc93177481ac65e4292921c69f62d1cc7f57541261e5d61c8175cf4e36a01c9bfc95",
    "linkReferences": {}
  },
  "methodIdentifiers": {
    "acceptOwnership()": "79ba5097",
    "diamondCut((address,uint8,bytes4[])[],address,bytes)": "1f931c1c",
    "facetAddress(bytes4)": "cdffacc6",
    "facetAddresses()": "52ef6b2c",
    "facetFunctionSelectors(address)": "adfca15e",
    "facets()": "7a0ed627",
    "getFallbackAddress()": "2c408059",
    "nomineeOwner()": "8ab5150a",
    "owner()": "8da5cb5b",
    "setFallbackAddress(address)": "91423765",
    "supportsInterface(bytes4)": "01ffc9a7",
    "transferOwnership(address)": "f2fde38b"
  },
  "id": 301
}