{
  "abi": [
    {
      "inputs": [
        {
          "internalType": "string",
          "name": "baseURI",
          "type": "string"
        }
      ],
      "stateMutability": "nonpayable",
      "type": "constructor"
    },
    {
      "anonymous": false,
      "inputs": [
        {
          "indexed": true,
          "internalType": "address",
          "name": "owner",
          "type": "address"
        },
        {
          "indexed": true,
          "internalType": "address",
          "name": "approved",
          "type": "address"
        },
        {
          "indexed": true,
          "internalType": "uint256",
          "name": "tokenId",
          "type": "uint256"
        }
      ],
      "name": "Approval",
      "type": "event"
    },
    {
      "anonymous": false,
      "inputs": [
        {
          "indexed": true,
          "internalType": "address",
          "name": "owner",
          "type": "address"
        },
        {
          "indexed": true,
          "internalType": "address",
          "name": "operator",
          "type": "address"
        },
        {
          "indexed": false,
          "internalType": "bool",
          "name": "approved",
          "type": "bool"
        }
      ],
      "name": "ApprovalForAll",
      "type": "event"
    },
    {
      "anonymous": false,
      "inputs": [
        {
          "indexed": true,
          "internalType": "address",
          "name": "from",
          "type": "address"
        },
        {
          "indexed": true,
          "internalType": "address",
          "name": "to",
          "type": "address"
        },
        {
          "indexed": true,
          "internalType": "uint256",
          "name": "tokenId",
          "type": "uint256"
        }
      ],
      "name": "Transfer",
      "type": "event"
    },
    {
      "anonymous": false,
      "inputs": [
        {
          "indexed": false,
          "internalType": "uint256",
          "name": "tokenID",
          "type": "uint256"
        }
      ],
      "name": "UpdateLevels",
      "type": "event"
    },
    {
      "inputs": [
        {
          "internalType": "address",
          "name": "to",
          "type": "address"
        },
        {
          "internalType": "uint256",
          "name": "tokenId",
          "type": "uint256"
        }
      ],
      "name": "approve",
      "outputs": [],
      "stateMutability": "nonpayable",
      "type": "function"
    },
    {
      "inputs": [
        {
          "internalType": "uint256",
          "name": "_tokenId",
          "type": "uint256"
        }
      ],
      "name": "aviationLevels",
      "outputs": [
        {
          "internalType": "uint256",
          "name": "",
          "type": "uint256"
        }
      ],
      "stateMutability": "view",
      "type": "function"
    },
    {
      "inputs": [
        {
          "internalType": "uint256",
          "name": "tokenId",
          "type": "uint256"
        }
      ],
      "name": "aviationLock",
      "outputs": [],
      "stateMutability": "nonpayable",
      "type": "function"
    },
    {
      "inputs": [
        {
          "internalType": "uint256",
          "name": "winnerTokenId",
          "type": "uint256"
        },
        {
          "internalType": "uint256",
          "name": "loserTokenId",
          "type": "uint256"
        }
      ],
      "name": "aviationMovePoints",
      "outputs": [],
      "stateMutability": "nonpayable",
      "type": "function"
    },
    {
      "inputs": [
        {
          "internalType": "uint256",
          "name": "_tokenId",
          "type": "uint256"
        }
      ],
      "name": "aviationPilotAddresses",
      "outputs": [
        {
          "internalType": "address",
          "name": "",
          "type": "address"
        }
      ],
      "stateMutability": "view",
      "type": "function"
    },
    {
      "inputs": [
        {
          "internalType": "uint256",
          "name": "_tokenId",
          "type": "uint256"
        }
      ],
      "name": "aviationPilotIds",
      "outputs": [
        {
          "internalType": "uint256",
          "name": "",
          "type": "uint256"
        }
      ],
      "stateMutability": "view",
      "type": "function"
    },
    {
      "inputs": [
        {
          "internalType": "uint256",
          "name": "_tokenId",
          "type": "uint256"
        }
      ],
      "name": "aviationPoints",
      "outputs": [
        {
          "internalType": "uint256",
          "name": "",
          "type": "uint256"
        }
      ],
      "stateMutability": "view",
      "type": "function"
    },
    {
      "inputs": [
        {
          "internalType": "uint256",
          "name": "_tokenId",
          "type": "uint256"
        }
      ],
      "name": "aviationTradeLock",
      "outputs": [
        {
          "internalType": "bool",
          "name": "",
          "type": "bool"
        }
      ],
      "stateMutability": "view",
      "type": "function"
    },
    {
      "inputs": [
        {
          "internalType": "uint256",
          "name": "tokenId",
          "type": "uint256"
        }
      ],
      "name": "aviationUnlock",
      "outputs": [],
      "stateMutability": "nonpayable",
      "type": "function"
    },
    {
      "inputs": [
        {
          "internalType": "address",
          "name": "owner",
          "type": "address"
        }
      ],
      "name": "balanceOf",
      "outputs": [
        {
          "internalType": "uint256",
          "name": "",
          "type": "uint256"
        }
      ],
      "stateMutability": "view",
      "type": "function"
    },
    {
      "inputs": [
        {
          "internalType": "address",
          "name": "_gameAddress",
          "type": "address"
        }
      ],
      "name": "gameAddresses",
      "outputs": [
        {
          "internalType": "bool",
          "name": "",
          "type": "bool"
        }
      ],
      "stateMutability": "view",
      "type": "function"
    },
    {
      "inputs": [
        {
          "internalType": "uint256",
          "name": "tokenId",
          "type": "uint256"
        }
      ],
      "name": "getApproved",
      "outputs": [
        {
          "internalType": "address",
          "name": "",
          "type": "address"
        }
      ],
      "stateMutability": "view",
      "type": "function"
    },
    {
      "inputs": [
        {
          "internalType": "address",
          "name": "_owner",
          "type": "address"
        },
        {
          "internalType": "address",
          "name": "_operator",
          "type": "address"
        }
      ],
      "name": "isApprovedForAll",
      "outputs": [
        {
          "internalType": "bool",
          "name": "isOperator",
          "type": "bool"
        }
      ],
      "stateMutability": "view",
      "type": "function"
    },
    {
      "inputs": [
        {
          "internalType": "address",
          "name": "spender",
          "type": "address"
        },
        {
          "internalType": "uint256",
          "name": "tokenId",
          "type": "uint256"
        }
      ],
      "name": "isApprovedOrOwner",
      "outputs": [
        {
          "internalType": "bool",
          "name": "",
          "type": "bool"
        }
      ],
      "stateMutability": "view",
      "type": "function"
    },
    {
      "inputs": [
        {
          "internalType": "uint256",
          "name": "",
          "type": "uint256"
        }
      ],
      "name": "isAviationLocked",
      "outputs": [
        {
          "internalType": "bool",
          "name": "",
          "type": "bool"
        }
      ],
      "stateMutability": "view",
      "type": "function"
    },
    {
      "inputs": [],
      "name": "metadataBaseURI",
      "outputs": [
        {
          "internalType": "string",
          "name": "",
          "type": "string"
        }
      ],
      "stateMutability": "view",
      "type": "function"
    },
    {
      "inputs": [
        {
          "internalType": "address",
          "name": "to",
          "type": "address"
        }
      ],
      "name": "mint",
      "outputs": [],
      "stateMutability": "nonpayable",
      "type": "function"
    },
    {
      "inputs": [],
      "name": "mintable",
      "outputs": [
        {
          "internalType": "bool",
          "name": "",
          "type": "bool"
        }
      ],
      "stateMutability": "view",
      "type": "function"
    },
    {
      "inputs": [],
      "name": "name",
      "outputs": [
        {
          "internalType": "string",
          "name": "",
          "type": "string"
        }
      ],
      "stateMutability": "view",
      "type": "function"
    },
    {
      "inputs": [
        {
          "internalType": "uint256",
          "name": "tokenId",
          "type": "uint256"
        }
      ],
      "name": "ownerOf",
      "outputs": [
        {
          "internalType": "address",
          "name": "",
          "type": "address"
        }
      ],
      "stateMutability": "view",
      "type": "function"
    },
    {
      "inputs": [
        {
          "internalType": "address",
          "name": "_pilotAddress",
          "type": "address"
        }
      ],
      "name": "pilotAddressesToNames",
      "outputs": [
        {
          "internalType": "string",
          "name": "",
          "type": "string"
        }
      ],
      "stateMutability": "view",
      "type": "function"
    },
    {
      "inputs": [
        {
          "internalType": "address",
          "name": "_pilotAddress",
          "type": "address"
        }
      ],
      "name": "pilotAddressesToUrls",
      "outputs": [
        {
          "internalType": "string",
          "name": "",
          "type": "string"
        }
      ],
      "stateMutability": "view",
      "type": "function"
    },
    {
      "inputs": [
        {
          "internalType": "address",
          "name": "_pilotAddress",
          "type": "address"
        },
        {
          "internalType": "uint256",
          "name": "_pilotId",
          "type": "uint256"
        }
      ],
      "name": "pilotToToken",
      "outputs": [
        {
          "internalType": "uint256",
          "name": "",
          "type": "uint256"
        }
      ],
      "stateMutability": "view",
      "type": "function"
    },
    {
      "inputs": [],
      "name": "playTestMint",
      "outputs": [],
      "stateMutability": "nonpayable",
      "type": "function"
    },
    {
      "inputs": [
        {
          "internalType": "address",
          "name": "game",
          "type": "address"
        },
        {
          "internalType": "address",
          "name": "to",
          "type": "address"
        },
        {
          "internalType": "uint256[]",
          "name": "ids",
          "type": "uint256[]"
        },
        {
          "internalType": "uint256[]",
          "name": "amounts",
          "type": "uint256[]"
        }
      ],
      "name": "refundResourcesFromGame",
      "outputs": [],
      "stateMutability": "nonpayable",
      "type": "function"
    },
    {
      "inputs": [
        {
          "internalType": "address",
          "name": "gameAddress",
          "type": "address"
        },
        {
          "internalType": "bool",
          "name": "enable",
          "type": "bool"
        }
      ],
      "name": "registerGameAddress",
      "outputs": [],
      "stateMutability": "nonpayable",
      "type": "function"
    },
    {
      "inputs": [
        {
          "internalType": "address",
          "name": "metadataAddress",
          "type": "address"
        }
      ],
      "name": "registerMetadataAddress",
      "outputs": [],
      "stateMutability": "nonpayable",
      "type": "function"
    },
    {
      "inputs": [
        {
          "internalType": "string",
          "name": "metadataURI",
          "type": "string"
        }
      ],
      "name": "registerMetadataURI",
      "outputs": [],
      "stateMutability": "nonpayable",
      "type": "function"
    },
    {
      "inputs": [
        {
          "internalType": "address",
          "name": "pilotAddress",
          "type": "address"
        },
        {
          "internalType": "string",
          "name": "pilotCollectionName",
          "type": "string"
        },
        {
          "internalType": "string",
          "name": "baseUrl",
          "type": "string"
        }
      ],
      "name": "registerPilotAddress",
      "outputs": [],
      "stateMutability": "nonpayable",
      "type": "function"
    },
    {
      "inputs": [
        {
          "internalType": "address",
          "name": "resourcesAddress",
          "type": "address"
        }
      ],
      "name": "registerResourcesAddress",
      "outputs": [],
      "stateMutability": "nonpayable",
      "type": "function"
    },
    {
      "inputs": [
        {
          "internalType": "address",
          "name": "from",
          "type": "address"
        },
        {
          "internalType": "address",
          "name": "game",
          "type": "address"
        },
        {
          "internalType": "uint256[]",
          "name": "ids",
          "type": "uint256[]"
        },
        {
          "internalType": "uint256[]",
          "name": "amounts",
          "type": "uint256[]"
        }
      ],
      "name": "requestResourcesForGame",
      "outputs": [],
      "stateMutability": "nonpayable",
      "type": "function"
    },
    {
      "inputs": [
        {
          "internalType": "address",
          "name": "from",
          "type": "address"
        },
        {
          "internalType": "address",
          "name": "to",
          "type": "address"
        },
        {
          "internalType": "uint256",
          "name": "tokenId",
          "type": "uint256"
        }
      ],
      "name": "safeTransferFrom",
      "outputs": [],
      "stateMutability": "nonpayable",
      "type": "function"
    },
    {
      "inputs": [
        {
          "internalType": "address",
          "name": "from",
          "type": "address"
        },
        {
          "internalType": "address",
          "name": "to",
          "type": "address"
        },
        {
          "internalType": "uint256",
          "name": "tokenId",
          "type": "uint256"
        },
        {
          "internalType": "bytes",
          "name": "data",
          "type": "bytes"
        }
      ],
      "name": "safeTransferFrom",
      "outputs": [],
      "stateMutability": "nonpayable",
      "type": "function"
    },
    {
      "inputs": [
        {
          "internalType": "address",
          "name": "operator",
          "type": "address"
        },
        {
          "internalType": "bool",
          "name": "approved",
          "type": "bool"
        }
      ],
      "name": "setApprovalForAll",
      "outputs": [],
      "stateMutability": "nonpayable",
      "type": "function"
    },
    {
      "inputs": [
        {
          "internalType": "bool",
          "name": "_mintable",
          "type": "bool"
        }
      ],
      "name": "setMintable",
      "outputs": [],
      "stateMutability": "nonpayable",
      "type": "function"
    },
    {
      "inputs": [],
      "name": "mercuryMetadata",
      "outputs": [
        {
          "internalType": "contract MercuryMetadata",
          "name": "",
          "type": "address"
        }
      ],
      "stateMutability": "view",
      "type": "function"
    },
    {
      "inputs": [],
      "name": "mercuryResources",
      "outputs": [
        {
          "internalType": "contract MercuryResources",
          "name": "",
          "type": "address"
        }
      ],
      "stateMutability": "view",
      "type": "function"
    },
    {
      "inputs": [
        {
          "internalType": "bytes4",
          "name": "interfaceId",
          "type": "bytes4"
        }
      ],
      "name": "supportsInterface",
      "outputs": [
        {
          "internalType": "bool",
          "name": "",
          "type": "bool"
        }
      ],
      "stateMutability": "view",
      "type": "function"
    },
    {
      "inputs": [],
      "name": "symbol",
      "outputs": [
        {
          "internalType": "string",
          "name": "",
          "type": "string"
        }
      ],
      "stateMutability": "view",
      "type": "function"
    },
    {
      "inputs": [
        {
          "internalType": "uint256",
          "name": "index",
          "type": "uint256"
        }
      ],
      "name": "tokenByIndex",
      "outputs": [
        {
          "internalType": "uint256",
          "name": "",
          "type": "uint256"
        }
      ],
      "stateMutability": "view",
      "type": "function"
    },
    {
      "inputs": [
        {
          "internalType": "address",
          "name": "owner",
          "type": "address"
        },
        {
          "internalType": "uint256",
          "name": "index",
          "type": "uint256"
        }
      ],
      "name": "tokenOfOwnerByIndex",
      "outputs": [
        {
          "internalType": "uint256",
          "name": "",
          "type": "uint256"
        }
      ],
      "stateMutability": "view",
      "type": "function"
    },
    {
      "inputs": [
        {
          "internalType": "uint256",
          "name": "tokenId",
          "type": "uint256"
        }
      ],
      "name": "tokenURI",
      "outputs": [
        {
          "internalType": "string",
          "name": "",
          "type": "string"
        }
      ],
      "stateMutability": "view",
      "type": "function"
    },
    {
      "inputs": [],
      "name": "totalSupply",
      "outputs": [
        {
          "internalType": "uint256",
          "name": "",
          "type": "uint256"
        }
      ],
      "stateMutability": "view",
      "type": "function"
    },
    {
      "inputs": [
        {
          "internalType": "address",
          "name": "from",
          "type": "address"
        },
        {
          "internalType": "address",
          "name": "to",
          "type": "address"
        },
        {
          "internalType": "uint256",
          "name": "tokenId",
          "type": "uint256"
        }
      ],
      "name": "transferFrom",
      "outputs": [],
      "stateMutability": "nonpayable",
      "type": "function"
    }
  ],
  "bytecode": {
    "object": "0x608060405234620004db57620037df803803806200001d8162000500565b92833981016020918281830312620004db5780516001600160401b0391828211620004db570191601f818185011215620004db578351938385116200030e57601f1994620000718382018716880162000500565b93818552878284010111620004db57869160005b828110620004c75750509060009184010152620000a1620004e0565b91601083526f14dade5b185895195cdd119b1a59da1d60821b86840152620000c8620004e0565b601281527114d2d653105097d51154d517d1931251d21560721b8782015283518581116200030e576000546001958682811c92168015620004bc575b8a831014620002ed57818684931162000466575b5089908683116001146200040157600092620003f5575b5050600019600383901b1c191690851b176000555b8051908582116200030e578454908582811c92168015620003ea575b89831014620002ed57818584931162000394575b508890858311600114620003305760009262000324575b5050600019600383901b1c191690841b1783555b80519384116200030e577f2166b5abc949f9868bd3012b1ae70950eaf949eee881bcf895261001523f283b9586548481811c9116801562000303575b82821014620002ed57838111620002a2575b5080928511600114620002395750839450908392916000946200022d575b50501b916000199060031b1c19161790555b6040516132b89081620005278239f35b0151925038806200020b565b9294849081168760005284600020946000905b888383106200028757505050106200026d575b505050811b0190556200021d565b015160001960f88460031b161c191690553880806200025f565b8587015188559096019594850194879350908101906200024c565b87600052816000208480880160051c820192848910620002e3575b0160051c019085905b828110620002d6575050620001ed565b60008155018590620002c6565b92508192620002bd565b634e487b7160e01b600052602260045260246000fd5b90607f1690620001db565b634e487b7160e01b600052604160045260246000fd5b0151905038806200018b565b908887941691846000528a6000209260005b8c8282106200037d575050841162000363575b505050811b0183556200019f565b015160001960f88460031b161c1916905538808062000355565b8385015186558a9790950194938401930162000342565b90915085600052886000208580850160051c8201928b8610620003e0575b918891869594930160051c01915b828110620003d057505062000174565b60008155859450889101620003c0565b92508192620003b2565b91607f169162000160565b0151905038806200012f565b908988941691600080528b6000209260005b8d8282106200044f575050841162000435575b505050811b0160005562000144565b015160001960f88460031b161c1916905538808062000426565b8385015186558b9790950194938401930162000413565b90915060008052896000208680850160051c8201928c8610620004b2575b918991869594930160051c01915b828110620004a257505062000118565b6000815585945089910162000492565b9250819262000484565b91607f169162000104565b818101840151868201850152830162000085565b600080fd5b60408051919082016001600160401b038111838210176200030e57604052565b6040519190601f01601f191682016001600160401b038111838210176200030e5760405256fe60806040908082526004918236101561001757600080fd5b600092833560e01c92836301ffc9a714611c20575082630204be8814611bd857826306fdde0314611b30578263081812fc14611b10578263095ea7b3146119af5782630b9401061461194c57826310ee3d3c146118e257826318160ddd146118c35782631dc3c67a1461188d57826323b872dd146118685782632633240214611832578263285d70d4146117db5782632f10dfda146117b05782632f745c59146117875782633f1ba5471461174c57826342842e0e14611718578263430c2081146116ef57826349ad6782146116b95782634bf365df146116765782634f6ccce7146115e45782636075e457146115935782636352211e146115625782636a627842146114a057826370a0823114611473578263890d086d1461142b57826395d89b41146113485782639f262bff1461131e5782639f3d1a2a14611300578263a22cb4651461122f578263aa76a0cb146111ed578263ae808306146111ac578263b5de30b4146108ba578263b88d4fde14611121578263bf07b68f14610ebb578263c87b56dd14610aba578263ce9e3cd81461090d578263d768e121146108da578263d83a19e0146108ba578263dd7a2e85146104a0578263de82209a146102cf578263e359503e1461027857508163e985e9c51461023d57508063f6573d7b1461022b5763fdffdd3b1461020b57600080fd5b346102285761022561021c36611ebe565b9291909161217f565b80f35b80fd5b50346102285761022561021c36611ebe565b90503461027457806003193601126102745760209061026b61025d611ced565b610265611d08565b90612573565b90519015158152f35b5080fd5b909150346102cb5760203660031901126102cb573582527f2166b5abc949f9868bd3012b1ae70950eaf949eee881bcf895261001523f28396020908152918190205490516001600160a01b039091168152f35b8280fd5b839034610274578160031936011261027457600854926001840180941161048d57836102fc849533612bf9565b8352600080516020613203833981519152602052808320600160ff1982541617905560008051602061326383398151915260205260018184205560008051602061322383398151915260205260018184205580519161035a83611da8565b60028352813660208501378361036f84612540565b52600161037b84612563565b52815161038781611da8565b60028152823660208301376161a88061039f83612540565b526103a982612563565b526000805160206131e383398151915280546001600160a01b039290831690813b156104895787916103f19187519a8b80948193630fbfeffd60e11b83528c338c85016122bb565b03925af1801561047f5761046b575b859650541692833b156104675761043b9385928385518097819582946305a6b6b360e51b845233908401528860248401526044830190612287565b03925af190811561045e575061044e5750f35b61045790611d62565b6102285780f35b513d84823e3d90fd5b8480fd5b94909561047790611d62565b938590610400565b84513d88823e3d90fd5b8780fd5b634e487b7160e01b835260118252602483fd5b83823461027457806003193601126102745782356024908135916104cf60ff6104c833611f25565b5416611fd0565b6000828152600260205260409020546104f2906001600160a01b03161515612037565b600083815260026020526040902054610515906001600160a01b03161515612037565b8185526000805160206132238339815191526020928184528587205485885286882054600181018091116108755760011c116108ab5784875281845285872054600181018091116108995760011c5b8188528285528688208054908282018092116108875755858852828552868820805491828110610862575050506105a59085885282855287878120556120a8565b6105ae846120a8565b838652825283852054156105c0578480f35b6105c98361278a565b6001600160a01b03969087811690816107cf575050600854848752600984528086882055600160401b8110156107bd578461060d8260016106269401600855613043565b90919082549060031b91821b91600019901b1916179055565b60085460001992908381019081116107ab578588526009855261064c8789205491613043565b90549060031b1c6106608161060d84613043565b88526009855286882055848752868681205560085490811561079a575086838199936107619588940161069281613043565b8482549160031b1b191690556008556106aa8461278a565b90848452875284898420916bffffffffffffffffffffffff60a01b92838154169055169182845260038852898420908154019055838352600287528883209081541690556000805160206132438339815191528280a47f2166b5abc949f9868bd3012b1ae70950eaf949eee881bcf895261001523f2839835284862054166001600160a01b031660009081527f2166b5abc949f9868bd3012b1ae70950eaf949eee881bcf895261001523f283c6020526040902090565b9184527f2166b5abc949f9868bd3012b1ae70950eaf949eee881bcf895261001523f283881528284205484525281205580828080808480f35b634e487b7160e01b88526031835287fd5b50634e487b7160e01b87526011825286fd5b50634e487b7160e01b86526041905284fd5b6107d8906126c7565b600019810191908211610850578588526007855286882054828103610819575b50858852878781205587526006845285872090875283528585812055610626565b81895260068652878920838a52865287892054828a5260068752888a20828b52875280898b205589526007865287892055896107f8565b634e487b7160e01b8852601183528388fd5b820391821161087557556105a5906120a8565b634e487b7160e01b895260118a528489fd5b634e487b7160e01b8a5260118b52858afd5b634e487b7160e01b8852601189528388fd5b80875281845285872054610564565b83346102285760203660031901126102285761022560ff6104c833611f25565b8382346102745760203660031901126102745760209060ff6109026108fd611ced565b611f25565b541690519015158152f35b8334610228576020806003193601126102745767ffffffffffffffff8335818111610ab65761093f9036908601611e39565b93610948612644565b8451918211610aa357507f2166b5abc949f9868bd3012b1ae70950eaf949eee881bcf895261001523f283b9161097e8354612300565b601f8111610a42575b5080601f83116001146109c257508394829394926109b7575b50508160011b916000199060031b1c191617905580f35b0151905084806109a0565b838552601f198316957f85f4f2c1518014c45e0712eed7aa8c45c933ce947d86250e662ee3d53d4796cd929186905b888210610a2a57505083600195969710610a11575b505050811b01905580f35b015160001960f88460031b161c19169055848080610a06565b806001859682949686015181550195019301906109f1565b8385527f85f4f2c1518014c45e0712eed7aa8c45c933ce947d86250e662ee3d53d4796cd601f840160051c810191838510610a99575b601f0160051c01905b818110610a8e5750610987565b858155600101610a81565b9091508190610a78565b634e487b7160e01b845260419052602483fd5b8380fd5b9150346102cb576020916003199383853601126102285781356000818152600260205260409020549092906001600160a01b031615610e6857835167ffffffffffffffff969080860188811182821017610e55578652828152634e6f6e6560e01b87820152839291610b2a61233a565b8685527f2166b5abc949f9868bd3012b1ae70950eaf949eee881bcf895261001523f28398952878520549093906001600160a01b0390811686898b8d84610d69575b50505050507f2166b5abc949f9868bd3012b1ae70950eaf949eee881bcf895261001523f283e541692610b9e8861307a565b92888752600080516020613263833981519152808c528a882054610bc19061307a565b968c8c5198828a9351908184808701920191610bdc92611ca5565b83019080518381948401920191610bf292611ca5565b018d8101632e706e6760e01b9052038481018852602401610c139088611dc4565b8988528b5289872054610c259061307a565b9887526000805160206132238339815191528b5289872054610c469061307a565b8a51998a978896879663840fba6760e01b8852870160a0905260a48701610c6c91611cc8565b84878203016024880152610c7f91611cc8565b83868203016044870152610c9291611cc8565b82858203016064860152610ca591611cc8565b90838203016084840152610cb891611cc8565b03915afa948515610d5d578195610ce4575b505050610ce09051928284938452830190611cc8565b0390f35b90919294503d8083853e610cf88185611dc4565b83019284818503126102cb5780519182116102cb570182601f8201121561027457805191610d2583611de6565b93610d3287519586611dc4565b83855285848401011161022857508291610d54918580610ce096019101611ca5565b92903880610cca565b508251903d90823e3d90fd5b610e26959950849850610dfb600260019594610e0194610dd394610d8f610e4a9a611f5e565b928852610deb610dc5837f2166b5abc949f9868bd3012b1ae70950eaf949eee881bcf895261001523f28389a8b8552205461307a565b9251968794838601906124bd565b9161202360f01b835283519384918785019101611ca5565b0103601d19810184520182611dc4565b97611f97565b908b8a528d528c8c610e33610e18828d205461307a565b9151968794848601906124bd565b9182815194859201611ca5565b01602f60f81b815203601e19810184520182611dc4565b933886898b8d610b6c565b634e487b7160e01b855260418452602485fd5b835162461bcd60e51b8152908101859052602760248201527f4552433732313a2055524920717565727920666f72206e6f6e6578697374656e6044820152663a103a37b5b2b760c91b6064820152608490fd5b833461022857606036600319011261022857610ed5611ced565b9167ffffffffffffffff602435818111610ab657610ef69036908401611e39565b60443582811161046757610f0d9036908501611e39565b94610f16612644565b610f1f81611f5e565b825184811161110e57610f328254612300565b93601f948581116110cc575b5060209085831160011461106457610f7494939291899183611059575b50508160011b916000199060031b1c1916179055611f97565b9285519283116110465750610f898354612300565b818111611004575b506020908211600114610fbf578394829394926109b75750508160011b916000199060031b1c191617905580f35b82845280842090601f198316855b818110610fec57509583600195969710610a1157505050811b01905580f35b9192602060018192868b015181550194019201610fcd565b838552602085208280850160051c8201926020861061103d575b0160051c01905b8181106110325750610f91565b858155600101611025565b9250819261101e565b634e487b7160e01b855260419052602484fd5b015190508a80610f5b565b8389528189209190601f1984168a5b8181106110b45750916001939185610f74989796941061109b575b505050811b019055611f97565b015160001960f88460031b161c191690558a808061108e565b92936020600181928786015181550195019301611073565b838952602089208680850160051c82019260208610611105575b0160051c01905b8181106110fa5750610f3e565b8981556001016110ed565b925081926110e6565b634e487b7160e01b875260418652602487fd5b8390346102745760803660031901126102745761113c611ced565b90611145611d08565b916044356064359367ffffffffffffffff85116111a857366023860112156111a8576111806111a39486602461022598369301359101611e02565b9261119361118e8433612b9e565b6127eb565b61119e83838361284d565b612f2a565b612b7a565b8580fd5b83823461027457366003190112610228576102256111c8611ced565b6111dc6111d3611d53565b916108fd612644565b9060ff801983541691151516179055565b83823461027457602036600319011261027457610ce09061121c611217611212611ced565b611f97565b61241a565b9051918291602083526020830190611cc8565b9150346102cb57806003193601126102cb57611249611ced565b90611252611d53565b6001600160a01b03909216923384146112be5750338452600560205280842083855260205261128f828286209060ff801983541691151516179055565b5190151581527f17307eab39ab6107e8899845ad3d59bd9653f200f220920489ca2b5937696c3160203392a380f35b6020606492519162461bcd60e51b8352820152601960248201527f4552433732313a20617070726f766520746f2063616c6c6572000000000000006044820152fd5b838234610274578160031936011261027457610ce09061121c61233a565b83823461027457602036600319011261027457610ce09061121c611217611343611ced565b611f5e565b83823461027457816003193601126102745780519082600180549161136c83612300565b8086529282811690811561140357506001146113a7575b50505061139582610ce0940383611dc4565b51918291602083526020830190611cc8565b94508085527fb10e2d527612073b26eecdfd717e6a320cf44b4afac2b0732d9fcbe2b7fa0cf65b8286106113eb57505050611395826020610ce09582010194611383565b805460208787018101919091529095019481016113ce565b610ce097508693506020925061139594915060ff191682840152151560051b82010194611383565b909150346102cb5760203660031901126102cb5760209282913581527f2166b5abc949f9868bd3012b1ae70950eaf949eee881bcf895261001523f2838845220549051908152f35b83823461027457602036600319011261027457602090611499611494611ced565b6126c7565b9051908152f35b838234610274576020366003190112610274576114bb611ced565b60ff7f2166b5abc949f9868bd3012b1ae70950eaf949eee881bcf895261001523f283a54161561152f57600854906001820180921161151c57906115028160019493612bf9565b835260008051602061326383398151915260205282205580f35b634e487b7160e01b845260118552602484fd5b815162461bcd60e51b8152602081860152600d60248201526c26b4b73a103737ba1037b832b760991b6044820152606490fd5b90833461022857602036600319011261022857506115826020923561278a565b90516001600160a01b039091168152f35b8334610228576020366003190112610228576115ad611ced565b6115b5612644565b6000805160206131e383398151915280546001600160a01b0319166001600160a01b0390921691909117905580f35b8334610228576020366003190112610228575080359060085482101561161e5760208361161084613043565b91905490519160031b1c8152f35b608490602084519162461bcd60e51b8352820152602c60248201527f455243373231456e756d657261626c653a20676c6f62616c20696e646578206f60448201526b7574206f6620626f756e647360a01b6064820152fd5b83823461027457816003193601126102745760209060ff7f2166b5abc949f9868bd3012b1ae70950eaf949eee881bcf895261001523f283a541690519015158152f35b909150346102cb5760203660031901126102cb576020928291358152600080516020613263833981519152845220549051908152f35b83823461027457806003193601126102745760209061026b61170f611ced565b60243590612b9e565b838234610274576111a36102259161172f36611d1e565b9192519261173c84611d8c565b86845261119361118e8433612b9e565b909150346102cb5760203660031901126102cb578160209360ff92358152600080516020613203833981519152855220541690519015158152f35b8382346102745780600319360112610274576020906114996117a7611ced565b60243590612fb5565b83823461027457602036600319011261027457906020916117d560ff6104c833611f25565b51908152f35b839034610274576020366003190112610274573580151580910361027457611801612644565b7f2166b5abc949f9868bd3012b1ae70950eaf949eee881bcf895261001523f283a9060ff8019835416911617905580f35b909150346102cb5760203660031901126102cb576020928291358152600080516020613223833981519152845220549051908152f35b83346102285761022561187a36611d1e565b9161188861118e8433612b9e565b61284d565b8382346102745781600319360112610274576000805160206131e38339815191525490516001600160a01b039091168152602090f35b8382346102745781600319360112610274576020906008549051908152f35b8382346102745780600319360112610274578060209261193c611903611ced565b6001600160a01b031660009081527f2166b5abc949f9868bd3012b1ae70950eaf949eee881bcf895261001523f283c6020526040902090565b6024358252845220549051908152f35b833461022857602036600319011261022857611966611ced565b61196e612644565b7f2166b5abc949f9868bd3012b1ae70950eaf949eee881bcf895261001523f283e80546001600160a01b0319166001600160a01b0390921691909117905580f35b909150346102cb57816003193601126102cb576119ca611ced565b90602435926119d88461278a565b6001600160a01b03938416939290838116858114611ac3573314908115611ab1575b5015611a4957848652602052842080546001600160a01b03191683179055611a218361278a565b167f8c5be1e5ebec7d5bd14f71427d1e84f3dd0314c0f7b2291e5b200ac8c7c3b9258480a480f35b6020608492519162461bcd60e51b8352820152603d60248201527f4552433732313a20617070726f76652063616c6c6572206973206e6f7420746f60448201527f6b656e206f776e6572206f7220617070726f76656420666f7220616c6c0000006064820152fd5b611abd91503390612573565b386119fa565b835162461bcd60e51b8152602081850152602160248201527f4552433732313a20617070726f76616c20746f2063757272656e74206f776e656044820152603960f91b6064820152608490fd5b9083346102285760203660031901126102285750611582602092356127ad565b838234610274578160031936011261027457805190828054611b5181612300565b808552916001918083169081156114035750600114611b7c5750505061139582610ce0940383611dc4565b80809650527f290decd9548b62a8d60345a988386fc84ba6bc95484008f6362f93160ef3e5635b828610611bc057505050611395826020610ce09582010194611383565b80546020878701810191909152909501948101611ba3565b8382346102745781600319360112610274577f2166b5abc949f9868bd3012b1ae70950eaf949eee881bcf895261001523f283e5490516001600160a01b039091168152602090f35b8491346102cb5760203660031901126102cb573563ffffffff60e01b81168091036102cb576020925063780e9d6360e01b8114908115611c62575b5015158152f35b6380ac58cd60e01b811491508115611c94575b8115611c83575b5083611c5b565b6301ffc9a760e01b14905083611c7c565b635b5e139f60e01b81149150611c75565b60005b838110611cb85750506000910152565b8181015183820152602001611ca8565b90602091611ce181518092818552858086019101611ca5565b601f01601f1916010190565b600435906001600160a01b0382168203611d0357565b600080fd5b602435906001600160a01b0382168203611d0357565b6060906003190112611d03576001600160a01b03906004358281168103611d0357916024359081168103611d03579060443590565b602435908115158203611d0357565b67ffffffffffffffff8111611d7657604052565b634e487b7160e01b600052604160045260246000fd5b6020810190811067ffffffffffffffff821117611d7657604052565b6060810190811067ffffffffffffffff821117611d7657604052565b90601f8019910116810190811067ffffffffffffffff821117611d7657604052565b67ffffffffffffffff8111611d7657601f01601f191660200190565b929192611e0e82611de6565b91611e1c6040519384611dc4565b829481845281830111611d03578281602093846000960137010152565b9080601f83011215611d0357816020611e5493359101611e02565b90565b9080601f83011215611d035781359067ffffffffffffffff8211611d76578160051b60405193602093611e8c85840187611dc4565b85528380860192820101928311611d03578301905b828210611eaf575050505090565b81358152908301908301611ea1565b906080600319830112611d03576001600160a01b03916004358381168103611d0357926024359081168103611d03579167ffffffffffffffff604435818111611d035783611f0e91600401611e57565b92606435918211611d0357611e5491600401611e57565b6001600160a01b031660009081527f2166b5abc949f9868bd3012b1ae70950eaf949eee881bcf895261001523f283f6020526040902090565b6001600160a01b031660009081527f2166b5abc949f9868bd3012b1ae70950eaf949eee881bcf895261001523f28406020526040902090565b6001600160a01b031660009081527f2166b5abc949f9868bd3012b1ae70950eaf949eee881bcf895261001523f28416020526040902090565b15611fd757565b60405162461bcd60e51b815260206004820152603260248201527f536b796c6162426173653a206d73672e73656e646572206973206e6f7420612060448201527176616c69642067616d65206164647265737360701b6064820152608490fd5b1561203e57565b60405162461bcd60e51b815260206004820152601d60248201527f536b796c6162426173653a206e6f6e6578697374656e7420746f6b656e0000006044820152606490fd5b60001981146120925760010190565b634e487b7160e01b600052601160045260246000fd5b60005b60108111156120ff57506020817f1b9c4b6f325882062024aaca6e75c86d61b0a66ea22e1e4ae0803c5005aa40979260005260008051602061326383398151915282526010604060002055604051908152a1565b60ff8111612092578160005260206000805160206132238339815191528152604080600020546001841b1161213e57505061213990612083565b6120ab565b81926000805160206132638339815191527f1b9c4b6f325882062024aaca6e75c86d61b0a66ea22e1e4ae0803c5005aa4097959352816000205551908152a1565b929161218f60ff6104c833611f25565b6000805160206131e383398151915280546000956001600160a01b0392918316803b1561048957604051633db0f8ab60e01b8152918416600483015260606024830152879082908183816121fb6121e9606483018c612287565b8281036003190160448401528d612287565b03925af1801561227c57612269575b50541691823b15610467579161223b939185809460405196879586948593630fbfeffd60e11b8552600485016122bb565b03925af1801561225e5761224d575050565b6122578291611d62565b6102285750565b6040513d84823e3d90fd5b61227590969196611d62565b943861220a565b6040513d89823e3d90fd5b90815180825260208080930193019160005b8281106122a7575050505090565b835185529381019392810192600101612299565b91926122e16020946122ef9360018060a01b031685526080868601526080850190612287565b908382036040850152612287565b906060818303910152600081520190565b90600182811c92168015612330575b602083101461231a57565b634e487b7160e01b600052602260045260246000fd5b91607f169161230f565b604051906000827f2166b5abc949f9868bd3012b1ae70950eaf949eee881bcf895261001523f283b91825461236e81612300565b808452936001918083169081156123f65750600114612398575b505061239692500383611dc4565b565b600090815291507f85f4f2c1518014c45e0712eed7aa8c45c933ce947d86250e662ee3d53d4796cd5b8483106123db575061239693505081016020013880612388565b81935090816020925483858a010152019101909185926123c1565b9150506020925061239694915060ff191682840152151560051b8201013880612388565b906040519182600082549261242e84612300565b90818452600194858116908160001461249a575060011461245757505061239692500383611dc4565b9093915060005260209081600020936000915b81831061248257505061239693508201013880612388565b8554888401850152948501948794509183019161246a565b91505061239694506020925060ff191682840152151560051b8201013880612388565b6000929181546124cc81612300565b9260019180831690811561252557506001146124e9575b50505050565b90919293945060005260209081600020906000915b85831061251457505050500190388080806124e3565b8054858401529183019181016124fe565b60ff19168452505050811515909102019150388080806124e3565b80511561254d5760200190565b634e487b7160e01b600052603260045260246000fd5b80516001101561254d5760400190565b60005b61257f826126c7565b8110156125c8576125908183612fb5565b60005260008051602061320383398151915260205260ff604060002054166125c0576125bb90612083565b612576565b505050600090565b506001600160a01b0391821691907358807bad0b376efc12f5ad86aac70e78ed67deae831461263c57817fc8fcad8db84d3cc18b4c41d551ea0ee66dd599cde068d998e57d5e09332c13205416831461263c5716600052600560205260406000209060005260205260ff6040600020541690565b505050600190565b7fc8fcad8db84d3cc18b4c41d551ea0ee66dd599cde068d998e57d5e09332c1320546001600160a01b0316330361267757565b60405162461bcd60e51b815260206004820152602260248201527f4c69624469616d6f6e643a204d75737420626520636f6e7472616374206f776e60448201526132b960f11b6064820152608490fd5b6001600160a01b031680156126e757600052600360205260406000205490565b60405162461bcd60e51b815260206004820152602960248201527f4552433732313a2061646472657373207a65726f206973206e6f7420612076616044820152683634b21037bbb732b960b91b6064820152608490fd5b1561274557565b60405162461bcd60e51b815260206004820152601860248201527f4552433732313a20696e76616c696420746f6b656e20494400000000000000006044820152606490fd5b6000908152600260205260409020546001600160a01b0316611e5481151561273e565b6000818152600260205260409020546127d0906001600160a01b0316151561273e565b6000908152600460205260409020546001600160a01b031690565b156127f257565b60405162461bcd60e51b815260206004820152602d60248201527f4552433732313a2063616c6c6572206973206e6f7420746f6b656e206f776e6560448201526c1c881bdc88185c1c1c9bdd9959609a1b6064820152608490fd5b90600090838252602090600080516020613203833981519152825260409060ff8285205416612ae3579061289e9392916128868761278a565b6001600160a01b038781169690929183168714612db4565b818116968715612a935787879182156000146129ae57505050600854888652600985528084872055600160401b81101561299a57868893600080516020613243833981519152979695936128ff8c61060d8660016129189801600855613043565b82860361296c575b506129118b61278a565b1614612db4565b878452600483526002818520936bffffffffffffffffffffffff60a01b94858154169055878652600381528286206000198154019055838652828620600181540190558986525283209182541617905580a4565b612975906126c7565b8588526006875284882081895287528b858920558b8852600787528488205538612907565b634e487b7160e01b86526041600452602486fd5b818398979694929593036129d8575b509561291891600080516020613243833981519152976128ff565b9092949596506129e99193506126c7565b6000198101908111612a7f5786889387969593612918938c6000805160206132438339815191529a526007885285892054818103612a48575b508c895288868120558389526006885285892090895287528785812055919750916129bd565b848a5260068952868a20828b528952868a2054858b5260068a52878b20828c528a5280888c20558a5260078952868a205538612a22565b634e487b7160e01b86526011600452602486fd5b835162461bcd60e51b8152600481018690526024808201527f4552433732313a207472616e7366657220746f20746865207a65726f206164646044820152637265737360e01b6064820152608490fd5b815162461bcd60e51b815260048101849052601b60248201527f536b796c6162426173653a20746f6b656e206973206c6f636b656400000000006044820152606490fd5b60809060208152603260208201527f4552433732313a207472616e7366657220746f206e6f6e20455243373231526560408201527131b2b4bb32b91034b6b83632b6b2b73a32b960711b60608201520190565b15612b8157565b60405162461bcd60e51b815280612b9a60048201612b27565b0390fd5b612ba78261278a565b9160018060a01b0390818316928285168414948515612be6575b50508315612bd0575b50505090565b612bdc919293506127ad565b1614388080612bca565b612bf1929550612573565b923880612bc1565b90604091825192612c0984611d8c565b60008085526001600160a01b038316918215612d2557600085815260026020526040902054612c44906001600160a01b031615155b15612d68565b600854858352602090600982528083852055600160401b811015612d1157928694919260028694612c876111a39a61060d8960016123969f9d9b01600855613043565b612c90876126c7565b8585526006825283852081865282528385208790558685526007825283852055600086815260026020526040902054612cd3906001600160a01b03161515612c3e565b848452600381528284208054600101905585845252812080546001600160a01b031916831790556000805160206132438339815191528180a4612e0e565b634e487b7160e01b84526041600452602484fd5b5162461bcd60e51b815260206004820181905260248201527f4552433732313a206d696e7420746f20746865207a65726f20616464726573736044820152606490fd5b15612d6f57565b60405162461bcd60e51b815260206004820152601c60248201527f4552433732313a20746f6b656e20616c7265616479206d696e746564000000006044820152606490fd5b15612dbb57565b60405162461bcd60e51b815260206004820152602560248201527f4552433732313a207472616e736665722066726f6d20696e636f72726563742060448201526437bbb732b960d91b6064820152608490fd5b9192600092909190803b15612f2057612e5c946040518092630a85bd0160e11b9485835233600484015287602484015260448301526080606483015281878160209a8b966084830190611cc8565b03926001600160a01b03165af1849181612ee0575b50612ecf575050503d600014612ec7573d612e8b81611de6565b90612e996040519283611dc4565b81528091833d92013e5b80519182612ec45760405162461bcd60e51b815280612b9a60048201612b27565b01fd5b506060612ea3565b6001600160e01b0319161492509050565b9091508581813d8311612f19575b612ef88183611dc4565b8101031261046757516001600160e01b031981168103610467579038612e71565b503d612eee565b5050915050600190565b9293600093909291803b15612faa57948491612f849660405180948193630a85bd0160e11b9788845233600485015260018060a01b0380921660248501526044840152608060648401528260209b8c976084830190611cc8565b0393165af1849181612ee05750612ecf575050503d600014612ec7573d612e8b81611de6565b505050915050600190565b612fbe816126c7565b821015612fea5760018060a01b0316600052600660205260406000209060005260205260406000205490565b60405162461bcd60e51b815260206004820152602b60248201527f455243373231456e756d657261626c653a206f776e657220696e646578206f7560448201526a74206f6620626f756e647360a81b6064820152608490fd5b60085481101561254d5760086000527ff3f7a9fe364faab93b216da50a3214154f22a0a2b415b23a84c8169e8b636ee30190600090565b806000917a184f03e93ff9f4daa797ed6e38ed64bf6a1f010000000000000000808210156131d4575b506d04ee2d6d415b85acef8100000000808310156131c5575b50662386f26fc10000808310156131b6575b506305f5e100808310156131a7575b5061271080831015613198575b506064821015613188575b600a8092101561317e575b6001908160218186019561311387611de6565b966131216040519889611dc4565b808852613130601f1991611de6565b01366020890137860101905b613148575b5050505090565b600019019083906f181899199a1a9b1b9c1cb0b131b232b360811b8282061a8353049182156131795791908261313c565b613141565b9160010191613100565b91906064600291049101916130f5565b600491939204910191386130ea565b600891939204910191386130dd565b601091939204910191386130ce565b602091939204910191386130bc565b6040935081049150386130a356fe2166b5abc949f9868bd3012b1ae70950eaf949eee881bcf895261001523f283d2166b5abc949f9868bd3012b1ae70950eaf949eee881bcf895261001523f28372166b5abc949f9868bd3012b1ae70950eaf949eee881bcf895261001523f2836ddf252ad1be2c89b69c2b068fc378daa952ba7f163c4a11628f55a4df523b3ef2166b5abc949f9868bd3012b1ae70950eaf949eee881bcf895261001523f2835a26469706673582212200bf7ecd7b39116000a41ec4be74f3d0a8299afd22c60c12df8365d7d1c32e51d64736f6c63430008130033",
    "linkReferences": {}
  },
  "methodIdentifiers": {
    "approve(address,uint256)": "095ea7b3",
    "aviationLevels(uint256)": "49ad6782",
    "aviationLock(uint256)": "d83a19e0",
    "aviationMovePoints(uint256,uint256)": "dd7a2e85",
    "aviationPilotAddresses(uint256)": "e359503e",
    "aviationPilotIds(uint256)": "890d086d",
    "aviationPoints(uint256)": "26332402",
    "aviationTradeLock(uint256)": "3f1ba547",
    "aviationUnlock(uint256)": "b5de30b4",
    "balanceOf(address)": "70a08231",
    "gameAddresses(address)": "d768e121",
    "getApproved(uint256)": "081812fc",
    "isApprovedForAll(address,address)": "e985e9c5",
    "isApprovedOrOwner(address,uint256)": "430c2081",
    "isAviationLocked(uint256)": "2f10dfda",
    "metadataBaseURI()": "9f3d1a2a",
    "mint(address)": "6a627842",
    "mintable()": "4bf365df",
    "name()": "06fdde03",
    "ownerOf(uint256)": "6352211e",
    "pilotAddressesToNames(address)": "9f262bff",
    "pilotAddressesToUrls(address)": "aa76a0cb",
    "pilotToToken(address,uint256)": "10ee3d3c",
    "playTestMint()": "de82209a",
    "refundResourcesFromGame(address,address,uint256[],uint256[])": "fdffdd3b",
    "registerGameAddress(address,bool)": "ae808306",
    "registerMetadataAddress(address)": "0b940106",
    "registerMetadataURI(string)": "ce9e3cd8",
    "registerPilotAddress(address,string,string)": "bf07b68f",
    "registerResourcesAddress(address)": "6075e457",
    "requestResourcesForGame(address,address,uint256[],uint256[])": "f6573d7b",
    "safeTransferFrom(address,address,uint256)": "42842e0e",
    "safeTransferFrom(address,address,uint256,bytes)": "b88d4fde",
    "setApprovalForAll(address,bool)": "a22cb465",
    "setMintable(bool)": "285d70d4",
    "mercuryMetadata()": "0204be88",
    "mercuryResources()": "1dc3c67a",
    "supportsInterface(bytes4)": "01ffc9a7",
    "symbol()": "95d89b41",
    "tokenByIndex(uint256)": "4f6ccce7",
    "tokenOfOwnerByIndex(address,uint256)": "2f745c59",
    "tokenURI(uint256)": "c87b56dd",
    "totalSupply()": "18160ddd",
    "transferFrom(address,address,uint256)": "23b872dd"
  },
  "id": 4
}