{
  "abi": [
    {
      "inputs": [
        {
          "internalType": "string",
          "name": "name",
          "type": "string"
        },
        {
          "internalType": "string",
          "name": "symbol",
          "type": "string"
        },
        {
          "internalType": "uint8",
          "name": "decimals",
          "type": "uint8"
        },
        {
          "internalType": "uint256",
          "name": "supply",
          "type": "uint256"
        }
      ],
      "stateMutability": "nonpayable",
      "type": "constructor"
    },
    {
      "inputs": [],
      "name": "ECDSA__InvalidS",
      "type": "error"
    },
    {
      "inputs": [],
      "name": "ECDSA__InvalidSignature",
      "type": "error"
    },
    {
      "inputs": [],
      "name": "ECDSA__InvalidV",
      "type": "error"
    },
    {
      "inputs": [],
      "name": "ERC20Base__ApproveFromZeroAddress",
      "type": "error"
    },
    {
      "inputs": [],
      "name": "ERC20Base__ApproveToZeroAddress",
      "type": "error"
    },
    {
      "inputs": [],
      "name": "ERC20Base__BurnExceedsBalance",
      "type": "error"
    },
    {
      "inputs": [],
      "name": "ERC20Base__BurnFromZeroAddress",
      "type": "error"
    },
    {
      "inputs": [],
      "name": "ERC20Base__InsufficientAllowance",
      "type": "error"
    },
    {
      "inputs": [],
      "name": "ERC20Base__MintToZeroAddress",
      "type": "error"
    },
    {
      "inputs": [],
      "name": "ERC20Base__TransferExceedsBalance",
      "type": "error"
    },
    {
      "inputs": [],
      "name": "ERC20Base__TransferFromZeroAddress",
      "type": "error"
    },
    {
      "inputs": [],
      "name": "ERC20Base__TransferToZeroAddress",
      "type": "error"
    },
    {
      "inputs": [],
      "name": "ERC20Extended__ExcessiveAllowance",
      "type": "error"
    },
    {
      "inputs": [],
      "name": "ERC20Extended__InsufficientAllowance",
      "type": "error"
    },
    {
      "inputs": [],
      "name": "ERC20Permit__ExpiredDeadline",
      "type": "error"
    },
    {
      "inputs": [],
      "name": "ERC20Permit__InvalidSignature",
      "type": "error"
    },
    {
      "anonymous": false,
      "inputs": [
        {
          "indexed": true,
          "internalType": "address",
          "name": "owner",
          "type": "address"
        },
        {
          "indexed": true,
          "internalType": "address",
          "name": "spender",
          "type": "address"
        },
        {
          "indexed": false,
          "internalType": "uint256",
          "name": "value",
          "type": "uint256"
        }
      ],
      "name": "Approval",
      "type": "event"
    },
    {
      "anonymous": false,
      "inputs": [
        {
          "indexed": true,
          "internalType": "address",
          "name": "from",
          "type": "address"
        },
        {
          "indexed": true,
          "internalType": "address",
          "name": "to",
          "type": "address"
        },
        {
          "indexed": false,
          "internalType": "uint256",
          "name": "value",
          "type": "uint256"
        }
      ],
      "name": "Transfer",
      "type": "event"
    },
    {
      "inputs": [],
      "name": "DOMAIN_SEPARATOR",
      "outputs": [
        {
          "internalType": "bytes32",
          "name": "domainSeparator",
          "type": "bytes32"
        }
      ],
      "stateMutability": "view",
      "type": "function"
    },
    {
      "inputs": [
        {
          "internalType": "address",
          "name": "account",
          "type": "address"
        },
        {
          "internalType": "uint256",
          "name": "amount",
          "type": "uint256"
        }
      ],
      "name": "__burn",
      "outputs": [],
      "stateMutability": "nonpayable",
      "type": "function"
    },
    {
      "inputs": [
        {
          "internalType": "address",
          "name": "account",
          "type": "address"
        },
        {
          "internalType": "uint256",
          "name": "amount",
          "type": "uint256"
        }
      ],
      "name": "__mint",
      "outputs": [],
      "stateMutability": "nonpayable",
      "type": "function"
    },
    {
      "inputs": [
        {
          "internalType": "address",
          "name": "holder",
          "type": "address"
        },
        {
          "internalType": "address",
          "name": "spender",
          "type": "address"
        }
      ],
      "name": "allowance",
      "outputs": [
        {
          "internalType": "uint256",
          "name": "",
          "type": "uint256"
        }
      ],
      "stateMutability": "view",
      "type": "function"
    },
    {
      "inputs": [
        {
          "internalType": "address",
          "name": "spender",
          "type": "address"
        },
        {
          "internalType": "uint256",
          "name": "amount",
          "type": "uint256"
        }
      ],
      "name": "approve",
      "outputs": [
        {
          "internalType": "bool",
          "name": "",
          "type": "bool"
        }
      ],
      "stateMutability": "nonpayable",
      "type": "function"
    },
    {
      "inputs": [
        {
          "internalType": "address",
          "name": "account",
          "type": "address"
        }
      ],
      "name": "balanceOf",
      "outputs": [
        {
          "internalType": "uint256",
          "name": "",
          "type": "uint256"
        }
      ],
      "stateMutability": "view",
      "type": "function"
    },
    {
      "inputs": [],
      "name": "decimals",
      "outputs": [
        {
          "internalType": "uint8",
          "name": "",
          "type": "uint8"
        }
      ],
      "stateMutability": "view",
      "type": "function"
    },
    {
      "inputs": [
        {
          "internalType": "address",
          "name": "spender",
          "type": "address"
        },
        {
          "internalType": "uint256",
          "name": "amount",
          "type": "uint256"
        }
      ],
      "name": "decreaseAllowance",
      "outputs": [
        {
          "internalType": "bool",
          "name": "",
          "type": "bool"
        }
      ],
      "stateMutability": "nonpayable",
      "type": "function"
    },
    {
      "inputs": [
        {
          "internalType": "address",
          "name": "spender",
          "type": "address"
        },
        {
          "internalType": "uint256",
          "name": "amount",
          "type": "uint256"
        }
      ],
      "name": "increaseAllowance",
      "outputs": [
        {
          "internalType": "bool",
          "name": "",
          "type": "bool"
        }
      ],
      "stateMutability": "nonpayable",
      "type": "function"
    },
    {
      "inputs": [],
      "name": "name",
      "outputs": [
        {
          "internalType": "string",
          "name": "",
          "type": "string"
        }
      ],
      "stateMutability": "view",
      "type": "function"
    },
    {
      "inputs": [
        {
          "internalType": "address",
          "name": "owner",
          "type": "address"
        }
      ],
      "name": "nonces",
      "outputs": [
        {
          "internalType": "uint256",
          "name": "",
          "type": "uint256"
        }
      ],
      "stateMutability": "view",
      "type": "function"
    },
    {
      "inputs": [
        {
          "internalType": "address",
          "name": "owner",
          "type": "address"
        },
        {
          "internalType": "address",
          "name": "spender",
          "type": "address"
        },
        {
          "internalType": "uint256",
          "name": "amount",
          "type": "uint256"
        },
        {
          "internalType": "uint256",
          "name": "deadline",
          "type": "uint256"
        },
        {
          "internalType": "uint8",
          "name": "v",
          "type": "uint8"
        },
        {
          "internalType": "bytes32",
          "name": "r",
          "type": "bytes32"
        },
        {
          "internalType": "bytes32",
          "name": "s",
          "type": "bytes32"
        }
      ],
      "name": "permit",
      "outputs": [],
      "stateMutability": "nonpayable",
      "type": "function"
    },
    {
      "inputs": [],
      "name": "symbol",
      "outputs": [
        {
          "internalType": "string",
          "name": "",
          "type": "string"
        }
      ],
      "stateMutability": "view",
      "type": "function"
    },
    {
      "inputs": [],
      "name": "totalSupply",
      "outputs": [
        {
          "internalType": "uint256",
          "name": "",
          "type": "uint256"
        }
      ],
      "stateMutability": "view",
      "type": "function"
    },
    {
      "inputs": [
        {
          "internalType": "address",
          "name": "recipient",
          "type": "address"
        },
        {
          "internalType": "uint256",
          "name": "amount",
          "type": "uint256"
        }
      ],
      "name": "transfer",
      "outputs": [
        {
          "internalType": "bool",
          "name": "",
          "type": "bool"
        }
      ],
      "stateMutability": "nonpayable",
      "type": "function"
    },
    {
      "inputs": [
        {
          "internalType": "address",
          "name": "holder",
          "type": "address"
        },
        {
          "internalType": "address",
          "name": "recipient",
          "type": "address"
        },
        {
          "internalType": "uint256",
          "name": "amount",
          "type": "uint256"
        }
      ],
      "name": "transferFrom",
      "outputs": [
        {
          "internalType": "bool",
          "name": "",
          "type": "bool"
        }
      ],
      "stateMutability": "nonpayable",
      "type": "function"
    }
  ],
  "bytecode": {
    "object": "0x604060808152346200045e57620014b1803803806200001e8162000463565b92833981016080828203126200045e5781516001600160401b0392908381116200045e57826200005091830162000489565b60209283830151908582116200045e576200006d91840162000489565b90858301519260ff84168094036200045e576060015194815181811162000373577f2967a798b92539a1b9eefe4d8eb931f96b68d27665e276f1bee2d5db7f7430478054916001948584811c9416801562000453575b8985101462000352578190601f94858111620003fd575b508990858311600114620003955760009262000389575b5050600019600383901b1c191690851b1790555b466000527fbb9c3660b51e1fafa886fcf600a68efa81371bd50359eccba98f0c4fff2cfeba8652600088812055835191821162000373577f2967a798b92539a1b9eefe4d8eb931f96b68d27665e276f1bee2d5db7f7430489384548481811c9116801562000368575b88821014620003525782811162000307575b50869183116001146200029f5792829391839260009462000293575b50501b916000199060031b1c19161790555b7f2967a798b92539a1b9eefe4d8eb931f96b68d27665e276f1bee2d5db7f7430499060ff19825416179055331562000282577fddf252ad1be2c89b69c2b068fc378daa952ba7f163c4a11628f55a4df523b3ef6000917fc991b2e918acaba8e5721668ed0b1982684e5a8692a621bcd2d7ef326bb015b662000232858254620004fb565b90553383527fc991b2e918acaba8e5721668ed0b1982684e5a8692a621bcd2d7ef326bb015b481528483206200026a858254620004fb565b905584519384523393a351610f919081620005208239f35b825163da007acd60e01b8152600490fd5b0151925038806200019c565b90601f198316918560005283886000209360005b8a88838310620002ef5750505010620002d5575b505050811b019055620001ae565b015160001960f88460031b161c19169055388080620002c7565b868601518855909601959485019487935001620002b3565b85600052876000208380860160051c8201928a871062000348575b0160051c019085905b8281106200033b57505062000180565b600081550185906200032b565b9250819262000322565b634e487b7160e01b600052602260045260246000fd5b90607f16906200016e565b634e487b7160e01b600052604160045260246000fd5b015190503880620000f1565b90879350601f19831691856000528b6000209260005b8d828210620003e65750508411620003cc575b505050811b01905562000105565b015160001960f88460031b161c19169055388080620003be565b8385015186558b97909501949384019301620003ab565b90915083600052896000208580850160051c8201928c861062000449575b918991869594930160051c01915b82811062000439575050620000da565b6000815585945089910162000429565b925081926200041b565b93607f1693620000c3565b600080fd5b6040519190601f01601f191682016001600160401b038111838210176200037357604052565b919080601f840112156200045e5782516001600160401b0381116200037357602090620004bf601f8201601f1916830162000463565b928184528282870101116200045e5760005b818110620004e757508260009394955001015290565b8581018301518482018401528201620004d1565b919082018092116200050957565b634e487b7160e01b600052601160045260246000fdfe6080604052600436101561001257600080fd5b60003560e01c806306fdde0314610117578063095ea7b31461011257806318160ddd1461010d57806323b872dd14610108578063313ce567146101035780633644e515146100fe57806339509351146100f95780633dc8ded7146100f457806370a08231146100ef5780637ecebe00146100ea57806395d89b41146100e5578063a457c2d7146100e0578063a9059cbb146100db578063aa82e017146100d6578063d505accf146100d15763dd62ed3e146100cc57600080fd5b6109e9565b61083c565b610766565b61073e565b61070d565b61060c565b6105e9565b6105bd565b61050e565b6104a4565b610371565b610331565b6102ed565b6102c2565b610290565b610165565b6020808252825181830181905290939260005b82811061015157505060409293506000838284010152601f8019910116010190565b81810186015184820160400152850161012f565b3461025f5760008060031936011261025c576040519080600080516020610f3c833981519152549060019180831c92808216928315610252575b602092838610851461023e57858852602088019490811561021d57506001146101e3575b6101df876101d381890382610cb3565b6040519182918261011c565b0390f35b94506101f0939293610c67565b83861061020c57505050910190506101d3826101df38806101c3565b8054858701529482019481016101f0565b60ff191685525050505090151560051b0190506101d3826101df38806101c3565b634e487b7160e01b82526022600452602482fd5b93607f169361019f565b80fd5b600080fd5b600435906001600160a01b038216820361025f57565b602435906001600160a01b038216820361025f57565b3461025f57604036600319011261025f5760206102b86102ae610264565b6024359033610abf565b6040519015158152f35b3461025f57600036600319011261025f576020600080516020610f1c83398151915254604051908152f35b3461025f57606036600319011261025f57610325610309610264565b61031161027a565b60443591610320833383610c31565b610b6d565b50602060405160018152f35b3461025f57600036600319011261025f57602060ff7f2967a798b92539a1b9eefe4d8eb931f96b68d27665e276f1bee2d5db7f7430495416604051908152f35b3461025f5760008060031936011261025c574681526020907fbb9c3660b51e1fafa886fcf600a68efa81371bd50359eccba98f0c4fff2cfeba825260408120549081156103c4575b604051828152602090f35b90506040519080600080516020610f3c83398151915254600181811c9281831692831561049a575b878510841461023e57848752602087019390811561047b5750600114610445575b50505050918161042561043f936101df950382610cb3565b81815191012090610434610dfa565b805191012090610db6565b386103b9565b9350610452929192610c67565b82851061046a575050500181610425816101df61040d565b805484860152938601938101610452565b60ff1916845250505090151560051b01905081610425816101df61040d565b93607f16936103ec565b3461025f57604036600319011261025f576104bd610264565b6104e1816104ca33610a14565b9060018060a01b0316600052602052604060002090565b549060243582018092116104fc576020916102b89133610abf565b60405163d256efb160e01b8152600490fd5b3461025f57604036600319011261025f57610527610264565b6001600160a01b038116906024359082156105ab57600080516020610f1c8339815191529081548381018091116105a6576105629255610a4d565b8054908282018092116105a657556040519081526000907fddf252ad1be2c89b69c2b068fc378daa952ba7f163c4a11628f55a4df523b3ef9080602081015b0390a3005b610b3d565b60405163da007acd60e01b8152600490fd5b3461025f57602036600319011261025f5760206105e06105db610264565b610a4d565b54604051908152f35b3461025f57602036600319011261025f5760206105e0610607610264565b610a86565b3461025f5760008060031936011261025c5760405190807f2967a798b92539a1b9eefe4d8eb931f96b68d27665e276f1bee2d5db7f743048549060019180831c92808216928315610703575b602092838610851461023e57858852602088019490811561021d575060011461068b576101df876101d381890382610cb3565b7f2967a798b92539a1b9eefe4d8eb931f96b68d27665e276f1bee2d5db7f74304860005294509192917f6626588b54b3522d930e3ee12195d0e9dddbde7c7325b02b73030918affce1c45b8386106106f257505050910190506101d3826101df38806101c3565b8054858701529482019481016106d6565b93607f1693610658565b3461025f57604036600319011261025f57610733610729610264565b6024359033610c31565b602060405160018152f35b3461025f57604036600319011261025f5760206102b861075c610264565b6024359033610b6d565b3461025f57604036600319011261025f5761077f610264565b602435906001600160a01b03811690811561082a5761079d81610a4d565b5480841161081857837fddf252ad1be2c89b69c2b068fc378daa952ba7f163c4a11628f55a4df523b3ef926107d96000966105a1940391610a4d565b556108086107f682600080516020610f1c83398151915254610b60565b600080516020610f1c83398151915255565b6040519081529081906020820190565b60405163b1d35b2360e01b8152600490fd5b6040516378f1627760e11b8152600490fd5b3461025f5760e036600319011261025f57610855610264565b61085d61027a565b6044359060643560843560ff8116810361025f574282106109d75760c061092f9261088787610a86565b5490604051917f6e71edae12b1b97f4d1f60370fef10105fa2faae0126114a169c64845d6126c98352886020840152866040840152876060840152608083015260a082015220610900466000527fbb9c3660b51e1fafa886fcf600a68efa81371bd50359eccba98f0c4fff2cfeba602052604060002090565b54908115610973575b6040519161190160f01b83526002830152602282015260c43591604260a4359220610e43565b6001600160a01b03848116911603610961578261094e61095f94610a86565b6109588154610e28565b9055610abf565b005b604051637570072b60e11b8152600490fd5b905061099c610980610cda565b6020815191012061098f610dfa565b6020815191012090610db6565b90816109d1466000527fbb9c3660b51e1fafa886fcf600a68efa81371bd50359eccba98f0c4fff2cfeba602052604060002090565b55610909565b60405163384f7ce560e21b8152600490fd5b3461025f57604036600319011261025f5760206105e0610a07610264565b6104ca610a1261027a565b915b6001600160a01b031660009081527fc991b2e918acaba8e5721668ed0b1982684e5a8692a621bcd2d7ef326bb015b56020526040902090565b6001600160a01b031660009081527fc991b2e918acaba8e5721668ed0b1982684e5a8692a621bcd2d7ef326bb015b46020526040902090565b6001600160a01b031660009081527fbb9c3660b51e1fafa886fcf600a68efa81371bd50359eccba98f0c4fff2cfeb96020526040902090565b6001600160a01b038082169291908315610b2b578216938415610b1a5780610b0d7f8c5be1e5ebec7d5bd14f71427d1e84f3dd0314c0f7b2291e5b200ac8c7c3b925946104ca602095610a14565b55604051908152a3600190565b6040516262920b60e91b8152600490fd5b604051635a68b7ab60e01b8152600490fd5b634e487b7160e01b600052601160045260246000fd5b919082018092116105a657565b919082039182116105a657565b6001600160a01b038082169291908315610c1f578216938415610c0d57610b9382610a4d565b54808211610bfb577fddf252ad1be2c89b69c2b068fc378daa952ba7f163c4a11628f55a4df523b3ef93610bf393610bd084610bd6940391610a4d565b55610a4d565b610be1828254610b53565b90556040519081529081906020820190565b0390a3600190565b604051637183160b60e01b8152600490fd5b6040516320a2645160e21b8152600490fd5b6040516368551d5f60e01b8152600490fd5b90610c3f816104ca84610a14565b5492838111610c5657610c53930391610abf565b50565b60405162e14ccf60e11b8152600490fd5b600080516020610f3c8339815191526000527fc3d5862a69f8ca70e4828043821a8d13dfd34088ddb52ba52f4c8aedc2ea63b590565b634e487b7160e01b600052604160045260246000fd5b90601f8019910116810190811067ffffffffffffffff821117610cd557604052565b610c9d565b604051906000600080516020610f3c8339815191525490600182811c92818116918215610dac575b6020918286108414610d9857858852879493602086019392918115610d795750600114610d3b575b505050610d3992500383610cb3565b565b925093610d46610c67565b946000935b828510610d6357505050610d39935001388080610d2a565b8654858501529586019588955093810193610d4b565b92505050610d399491925060ff19168252151560051b01388080610d2a565b634e487b7160e01b85526022600452602485fd5b93607f1693610d02565b60a091604051917f8b73c3c69bb8fe3d512ecc4cf759cc79239f7b179b0ffacaa9a75d522b39400f8352602083015260408201524660608201523060808201522090565b604051906040820182811067ffffffffffffffff821117610cd55760405260018252603160f81b6020830152565b60001981146105a65760010190565b6040513d6000823e3d90fd5b9291927f7fffffffffffffffffffffffffffffff5d576e7357a4501ddfe92f46681b20a08311610f095760ff8216601b8114159081610efd575b50610eeb57610eb1600093602095604051948594859094939260ff6060936080840197845216602083015260408201520152565b838052039060015afa15610ee6576000516001600160a01b03811615610ed45790565b6040516347f3b32760e11b8152600490fd5b610e37565b604051630acd54a960e41b8152600490fd5b601c9150141538610e7d565b60405163e4a61add60e01b8152600490fdfec991b2e918acaba8e5721668ed0b1982684e5a8692a621bcd2d7ef326bb015b62967a798b92539a1b9eefe4d8eb931f96b68d27665e276f1bee2d5db7f743047a2646970667358221220c42cf551abd294ca4ff8f258e9d9eba9a9135bb9f262c0b13cb3405c5617afa564736f6c63430008130033",
    "linkReferences": {}
  },
  "methodIdentifiers": {
    "DOMAIN_SEPARATOR()": "3644e515",
    "__burn(address,uint256)": "aa82e017",
    "__mint(address,uint256)": "3dc8ded7",
    "allowance(address,address)": "dd62ed3e",
    "approve(address,uint256)": "095ea7b3",
    "balanceOf(address)": "70a08231",
    "decimals()": "313ce567",
    "decreaseAllowance(address,uint256)": "a457c2d7",
    "increaseAllowance(address,uint256)": "39509351",
    "name()": "06fdde03",
    "nonces(address)": "7ecebe00",
    "permit(address,address,uint256,uint256,uint8,bytes32,bytes32)": "d505accf",
    "symbol()": "95d89b41",
    "totalSupply()": "18160ddd",
    "transfer(address,uint256)": "a9059cbb",
    "transferFrom(address,address,uint256)": "23b872dd"
  },
  "id": 445
}