{
  "abi": [
    {
      "anonymous": false,
      "inputs": [
        {
          "indexed": true,
          "internalType": "address",
          "name": "previousOwner",
          "type": "address"
        },
        {
          "indexed": true,
          "internalType": "address",
          "name": "newOwner",
          "type": "address"
        }
      ],
      "name": "OwnershipTransferred",
      "type": "event"
    },
    {
      "inputs": [],
      "name": "deactivatePilot",
      "outputs": [],
      "stateMutability": "nonpayable",
      "type": "function"
    },
    {
      "inputs": [
        {
          "internalType": "address",
          "name": "owner",
          "type": "address"
        }
      ],
      "name": "getActivePilot",
      "outputs": [
        {
          "components": [
            {
              "internalType": "address",
              "name": "collectionAddress",
              "type": "address"
            },
            {
              "internalType": "uint256",
              "name": "pilotId",
              "type": "uint256"
            }
          ],
          "internalType": "struct MercuryPilots.Pilot",
          "name": "",
          "type": "tuple"
        }
      ],
      "stateMutability": "view",
      "type": "function"
    },
    {
      "inputs": [
        {
          "internalType": "uint256",
          "name": "index",
          "type": "uint256"
        }
      ],
      "name": "getPilotXPGroup",
      "outputs": [
        {
          "components": [
            {
              "internalType": "address",
              "name": "collectionAddress",
              "type": "address"
            },
            {
              "internalType": "uint256",
              "name": "pilotId",
              "type": "uint256"
            }
          ],
          "internalType": "struct MercuryPilots.Pilot[]",
          "name": "",
          "type": "tuple[]"
        }
      ],
      "stateMutability": "view",
      "type": "function"
    },
    {
      "inputs": [],
      "name": "highestGroupIndex",
      "outputs": [
        {
          "internalType": "uint256",
          "name": "",
          "type": "uint256"
        }
      ],
      "stateMutability": "view",
      "type": "function"
    },
    {
      "inputs": [],
      "name": "owner",
      "outputs": [
        {
          "internalType": "address",
          "name": "",
          "type": "address"
        }
      ],
      "stateMutability": "view",
      "type": "function"
    },
    {
      "inputs": [
        {
          "internalType": "address",
          "name": "player",
          "type": "address"
        },
        {
          "internalType": "uint256",
          "name": "xp",
          "type": "uint256"
        }
      ],
      "name": "pilotGainXP",
      "outputs": [],
      "stateMutability": "nonpayable",
      "type": "function"
    },
    {
      "inputs": [
        {
          "internalType": "address",
          "name": "",
          "type": "address"
        },
        {
          "internalType": "uint256",
          "name": "",
          "type": "uint256"
        }
      ],
      "name": "pilotGroupIndex",
      "outputs": [
        {
          "internalType": "uint256",
          "name": "",
          "type": "uint256"
        }
      ],
      "stateMutability": "view",
      "type": "function"
    },
    {
      "inputs": [
        {
          "internalType": "address",
          "name": "",
          "type": "address"
        },
        {
          "internalType": "uint256",
          "name": "",
          "type": "uint256"
        }
      ],
      "name": "pilotXP",
      "outputs": [
        {
          "internalType": "uint256",
          "name": "",
          "type": "uint256"
        }
      ],
      "stateMutability": "view",
      "type": "function"
    },
    {
      "inputs": [],
      "name": "renounceOwnership",
      "outputs": [],
      "stateMutability": "nonpayable",
      "type": "function"
    },
    {
      "inputs": [
        {
          "internalType": "contract ERC721",
          "name": "collection",
          "type": "address"
        },
        {
          "internalType": "uint256",
          "name": "tokenId",
          "type": "uint256"
        },
        {
          "internalType": "address",
          "name": "owner",
          "type": "address"
        }
      ],
      "name": "setActivePilot",
      "outputs": [],
      "stateMutability": "nonpayable",
      "type": "function"
    },
    {
      "inputs": [
        {
          "internalType": "address",
          "name": "newOwner",
          "type": "address"
        }
      ],
      "name": "transferOwnership",
      "outputs": [],
      "stateMutability": "nonpayable",
      "type": "function"
    }
  ],
  "bytecode": {
    "object": "0x608080604052346100605760008054336001600160a01b0319821681178355916001600160a01b03909116907f8be0079c531659141344cd1fd0a4f28419497f9722a3daafe3b4186f6b6457e09080a36000600555610aa990816100668239f35b600080fdfe6080604081815260048036101561001557600080fd5b600092833560e01c9081630d18b9ab146107b85750806327caee58146106bb578381632c70118f14610692575080634a459d3f146103f55780635697a35d146103b8578063715018a61461035b5780638da5cb5b14610333578063cf7ac29e14610314578063d491523d146101a8578063df1ee293146101635763f2fde38b1461009e57600080fd5b3461015f57602036600319011261015f576100b76107f9565b906100c0610a1b565b6001600160a01b0391821692831561010d57505082546001600160a01b0319811683178455167f8be0079c531659141344cd1fd0a4f28419497f9722a3daafe3b4186f6b6457e08380a380f35b906020608492519162461bcd60e51b8352820152602660248201527f4f776e61626c653a206e6577206f776e657220697320746865207a65726f206160448201526564647265737360d01b6064820152fd5b8280fd5b5050346101a457806003193601126101a45760209181906001600160a01b0361018a6107f9565b168152600284528181206024358252845220549051908152f35b5080fd5b508290346101a457826003193601126101a4576101cb6101c66107f9565b6108ae565b9260018060a01b039182855116845260206002815282852091818701928351875282528386208054906024358201809211610301575584875116865260028252838620835187528252610220848720546109da565b94808851168752818352848720845188528352848720548603610241578680f35b8587526003835284872097885498680100000000000000008a10156102ee5760018a018082558a10156102db5781899a6102ac928a9b52868c209060011b01906020600191828060a01b038151166bffffffffffffffffffffffff60a01b8554161784550151910155565b511687528152828620915186525283205560055481116102d2575b808080808086958680f35b600555816102c7565b634e487b7160e01b895260328452602489fd5b634e487b7160e01b895260418452602489fd5b634e487b7160e01b885260118352602488fd5b5050346101a457816003193601126101a4576020906005549051908152f35b5050346101a457816003193601126101a457905490516001600160a01b039091168152602090f35b83346103b557806003193601126103b557610374610a1b565b80546001600160a01b03198116825581906001600160a01b03167f8be0079c531659141344cd1fd0a4f28419497f9722a3daafe3b4186f6b6457e08280a380f35b80fd5b8284346103b55760203660031901126103b557506103d76101c66107f9565b815181516001600160a01b0316815260209182015191810191909152f35b50903461015f57606036600319011261015f576001600160a01b038235818116929083900361068e5760249260443590838216853581840361068a5784516331a9108f60e11b81528881018290526020969087818a81885afa9081156105f4579082918c9161066d575b501633149081156105fe575b8115610592575b501561053357916104ca916104cf949386519261048e84610814565b83528783015289526001808752858a20825181546001600160a01b0319166001600160a01b039190911617815560209092015190820155610887565b610967565b156104d8578480f35b5162461bcd60e51b8152928301526033908201527f4d65726375727950696c6f74733a206f776e657220706172616d657465722069604482015272039903737ba103a37b5b2b71037bbb732b9171606d1b6064820152608490fd5b845162461bcd60e51b81528089018790526034818901527f4d65726375727950696c6f74733a206d73672e73656e646572206973206e6f7460448201527301030b8383937bb32b21037b91037bbb732b917160651b6064820152608490fd5b865163020604bf60e21b81528a8101849052915087828a81885afa9182156105f4578b926105c5575b5016331438610472565b6105e6919250883d8a116105ed575b6105de8183610846565b810190610868565b90386105bb565b503d6105d4565b87513d8d823e3d90fd5b9050855163e985e9c560e01b8152838a82015233898201528781604481885afa9081156105f4578b91610633575b509061046b565b90508781813d8311610666575b61064a8183610846565b8101031261066257518015158103610662573861062c565b8a80fd5b503d610640565b6106849150893d8b116105ed576105de8183610846565b3861045f565b8880fd5b8480fd5b8084346106b857816003193601126106b857600190338352816020528220828155015580f35b50fd5b508290346101a45760208060031936011261015f5781358352600381528383209283549267ffffffffffffffff84116107a5575090939291835190610705868260051b0183610846565b8082528582018094845286842084915b83831061077c5750505050835194859481860192828752518093528086019493905b8382106107445786860387f35b91849650828661076c60019496988498516020809160018060a01b0381511684520151910152565b0196019201869594929391610737565b600289600192610791859c99989a9b9c610887565b815201920192019190979695939497610715565b634e487b7160e01b825260419052602490fd5b92919050346107f557816003193601126107f557602093906001600160a01b036107e06107f9565b16825284528181206024358252845220548152f35b8380fd5b600435906001600160a01b038216820361080f57565b600080fd5b6040810190811067ffffffffffffffff82111761083057604052565b634e487b7160e01b600052604160045260246000fd5b90601f8019910116810190811067ffffffffffffffff82111761083057604052565b9081602091031261080f57516001600160a01b038116810361080f5790565b9060405161089481610814565b82546001600160a01b031681526001909201546020830152565b6020906040516108bd81610814565b600080825292018290526001600160a01b03811680835260016020526040832090916108ec916104ca90610887565b1561090857816040916109059352600160205220610887565b90565b60405162461bcd60e51b815260206004820152603160248201527f4d65726375727950696c6f74733a206163746976652070696c6f74206973206e60448201527037ba1037bbb732b210313c9037bbb732b960791b6064820152608490fd5b9060018060a01b0390602080838551169401516024604051809681936331a9108f60e11b835260048301525afa9283156109ce576000936109ac575b50811691161490565b829193506109c79060203d81116105ed576105de8183610846565b92906109a3565b6040513d6000823e3d90fd5b9060005b60ff8111610a0157826001821b11610a17576000198114610a01576001016109de565b634e487b7160e01b600052601160045260246000fd5b9150565b6000546001600160a01b03163303610a2f57565b606460405162461bcd60e51b815260206004820152602060248201527f4f776e61626c653a2063616c6c6572206973206e6f7420746865206f776e65726044820152fdfea26469706673582212205461f657cb13855160b0cc5aaa9ef7afbc3a262f90e2e29ed616d6d89cf3804564736f6c63430008130033",
    "linkReferences": {}
  },
  "methodIdentifiers": {
    "deactivatePilot()": "2c70118f",
    "getActivePilot(address)": "5697a35d",
    "getPilotXPGroup(uint256)": "27caee58",
    "highestGroupIndex()": "cf7ac29e",
    "owner()": "8da5cb5b",
    "pilotGainXP(address,uint256)": "d491523d",
    "pilotGroupIndex(address,uint256)": "0d18b9ab",
    "pilotXP(address,uint256)": "df1ee293",
    "renounceOwnership()": "715018a6",
    "setActivePilot(address,uint256,address)": "4a459d3f",
    "transferOwnership(address)": "f2fde38b"
  },
  "id": 525
}