{
  "abi": [
    {
      "inputs": [
        {
          "internalType": "address",
          "name": "trailblazerTournamentAddress",
          "type": "address"
        }
      ],
      "stateMutability": "nonpayable",
      "type": "constructor"
    },
    {
      "inputs": [
        {
          "internalType": "uint256",
          "name": "round",
          "type": "uint256"
        },
        {
          "internalType": "uint256",
          "name": "lastId",
          "type": "uint256"
        }
      ],
      "name": "leaderboardInfo",
      "outputs": [
        {
          "components": [
            {
              "internalType": "uint256",
              "name": "tokenId",
              "type": "uint256"
            },
            {
              "internalType": "uint256",
              "name": "level",
              "type": "uint256"
            }
          ],
          "internalType": "struct TrailblazerTournament.LeaderboardInfo[]",
          "name": "",
          "type": "tuple[]"
        }
      ],
      "stateMutability": "view",
      "type": "function"
    }
  ],
  "bytecode": {
    "object": "0x60803461007457601f61058e38819003918201601f19168301916001600160401b038311848410176100795780849260209460405283398101031261007457516001600160a01b0381169081900361007457600080546001600160a01b0319169190911790556040516104fe90816100908239f35b600080fd5b634e487b7160e01b600052604160045260246000fdfe604060808152600436101561001357600080fd5b600090813560e01c636d5fc51a1461002a57600080fd5b34610095578060031936011261009557610048602435600435610152565b8151928392602080850191818652845180935281818701950193905b8382106100715786860387f35b84518051875283015186840152879650948501949382019360019190910190610064565b5080fd5b6040810190811067ffffffffffffffff8211176100b557604052565b634e487b7160e01b600052604160045260246000fd5b90601f8019910116810190811067ffffffffffffffff8211176100b557604052565b919082039182116100fa57565b634e487b7160e01b600052601160045260246000fd5b67ffffffffffffffff81116100b55760051b60200190565b805182101561013c5760209160051b010190565b634e487b7160e01b600052603260045260246000fd5b90600060018060a01b038154169060409081516301fd608360e11b815260209460049186818481895afa9081156104be578491610491575b50871015610294575094602483949596839451968793849263b858af6560e01b84528301525afa9384156102885781946101c6575b5050505090565b90919293503d8083863e6101da81866100cb565b840193818186031261027d5780519067ffffffffffffffff821161028457019184601f840112156102815782519061021182610110565b9561021e865197886100cb565b828752838088019360061b8601019481861161027d578401925b85841061024f5750505050505050388080806101bf565b868483031261027d57848791825161026681610099565b865181528287015183820152815201930192610238565b8280fd5b80fd5b8380fd5b509051903d90823e3d90fd5b936000199081880197881161047e5784519763763a007560e11b89528389015260249487898781855afa988915610474578599610441575b50600197888a01809a1161042f576102e48a896100ed565b99898b01809b1161041d576102f88b610110565b9a61030584519c8d6100cb565b808c52610314601f1991610110565b0182885b8281106103fb57505050805b8981111561033a57505050505050505050505090565b61034482826100ed565b84516324d6b3c160e11b815288810183905284818c818a5afa9081156103f157908e92918b916103b8575b50610390826103979489519361038485610099565b87855289850152610128565b528d610128565b508581146103a6578a01610324565b634e487b7160e01b8852601187528888fd5b80929350868092503d83116103ea575b6103d281836100cb565b810103126103e657518d919061039061036f565b8980fd5b503d6103c8565b86513d8c823e3d90fd5b8d828288519261040a84610099565b8d84528d83850152010152018390610318565b634e487b7160e01b8752601186528787fd5b634e487b7160e01b8652601185528686fd5b9098508781813d831161046d575b61045981836100cb565b81010312610469575197386102cc565b8480fd5b503d61044f565b81513d87823e3d90fd5b634e487b7160e01b845260118352602484fd5b90508681813d83116104b7575b6104a881836100cb565b8101031261028457513861018a565b503d61049e565b85513d86823e3d90fdfea26469706673582212201efad388e9320f5a96e57dc4e1e628335aa2fa02570b8ebe05241548ad8340fc64736f6c63430008130033",
    "linkReferences": {}
  },
  "methodIdentifiers": {
    "leaderboardInfo(uint256,uint256)": "6d5fc51a"
  },
  "id": 542
}