{
  "abi": [
    {
      "inputs": [
        {
          "internalType": "contract ERC20MulticallMock",
          "name": "multicallToken",
          "type": "address"
        },
        {
          "internalType": "address[]",
          "name": "recipients",
          "type": "address[]"
        },
        {
          "internalType": "uint256[]",
          "name": "amounts",
          "type": "uint256[]"
        }
      ],
      "name": "checkReturnValues",
      "outputs": [],
      "stateMutability": "nonpayable",
      "type": "function"
    }
  ],
  "bytecode": {
    "object": "0x60808060405234610016576104fb908161001c8239f35b600080fdfe60406080815260048036101561001457600080fd5b600091823560e01c63b568d0161461002b57600080fd5b346103b95760603660031901126103b9576001600160a01b038235818116929083900361017b5760249167ffffffffffffffff9083358281116103b55761007590369088016103bd565b92909560449687358381116103b157906100958b93959236908c016103bd565b6100a18894929461042b565b936100ae8a5195866103f3565b8885526100ba8961042b565b601f1999908a01875b81811061038d575050865b8181106102ed575050505050508551938491631592ca1b60e31b83528883019960209a8b8d86015282518091528b828601928260051b87010193019186905b8d8383106102a65750505050508383809203925af196871561029c578897610183575b505050505050825b825181101561017f5761014b818461048e565b51828180518101031261017b5782015180159081150361017b576101775761017290610443565b610138565b8380fd5b8480fd5b8380f35b90919293949596503d8089853e61019a81856103f3565b830192878185031261029857805190838211610294570194601f93808588011215610294578651956101cb8761042b565b986101d884519a8b6103f3565b878a528a808b019860051b8a010198838a11610290578b8101985b8a8a1061021157505050505050505050505090388080808080610130565b895188811161028c5782019085603f8301121561028c578d82015190898211610279578a8f61024890888b519386011601826103f3565b82815287898486010111610274578f938493610269918b86850191016104a2565b8152019901986101f3565b508f80fd5b50634e487b7160e01b8f5260418852838ffd5b8e80fd5b8c80fd5b8980fd5b8880fd5b84513d8a823e3d90fd5b60019396985080929581929598506043198c82030186528c601f8a516102d7815180928187528780880191016104a2565b01160101960192019201928d959388959361010d565b909192939495989650610301818388610468565b35858116809103610389578b8e8e9261031b858989610468565b3592519363a9059cbb60e01b60208601528401528201528d8152608081018181108a821117610374578c526103669190610355828c61048e565b52610360818b61048e565b50610443565b908e969895949392916100ce565b5050634e487b7160e01b8f525060418d528a8efd5b8f80fd5b879a98506060602082819495969798999a01015201908f97999695949392916100c3565b8a80fd5b8780fd5b8280fd5b9181601f840112156103ee5782359167ffffffffffffffff83116103ee576020808501948460051b0101116103ee57565b600080fd5b90601f8019910116810190811067ffffffffffffffff82111761041557604052565b634e487b7160e01b600052604160045260246000fd5b67ffffffffffffffff81116104155760051b60200190565b60001981146104525760010190565b634e487b7160e01b600052601160045260246000fd5b91908110156104785760051b0190565b634e487b7160e01b600052603260045260246000fd5b80518210156104785760209160051b010190565b60005b8381106104b55750506000910152565b81810151838201526020016104a556fea264697066735822122064f400a8f749314d7b2978372ad73df061405ec6deb907cf36577ed75aef505664736f6c63430008130033",
    "linkReferences": {}
  },
  "methodIdentifiers": {
    "checkReturnValues(address,address[],uint256[])": "b568d016"
  },
  "id": 94
}