{
  "abi": [
    {
      "inputs": [],
      "stateMutability": "payable",
      "type": "constructor"
    },
    {
      "inputs": [
        {
          "internalType": "address",
          "name": "dest",
          "type": "address"
        },
        {
          "internalType": "uint256",
          "name": "amount",
          "type": "uint256"
        }
      ],
      "name": "callTransfer",
      "outputs": [],
      "stateMutability": "nonpayable",
      "type": "function"
    },
    {
      "inputs": [
        {
          "internalType": "address",
          "name": "dest",
          "type": "address"
        }
      ],
      "name": "payments",
      "outputs": [
        {
          "internalType": "uint256",
          "name": "",
          "type": "uint256"
        }
      ],
      "stateMutability": "view",
      "type": "function"
    },
    {
      "inputs": [
        {
          "internalType": "address payable",
          "name": "payee",
          "type": "address"
        }
      ],
      "name": "withdrawPayments",
      "outputs": [],
      "stateMutability": "nonpayable",
      "type": "function"
    }
  ],
  "bytecode": {
    "object": "0x60a060408190526104fd8082016001600160401b0381118382101761006457829161035b833903906000f08015610058576080526040516102e0908161007b823960805181818160890152818161015e01526102010152f35b6040513d6000823e3d90fd5b634e487b7160e01b600052604160045260246000fdfe608060408181526004908136101561001657600080fd5b600092833560e01c9084826331b3eb94146101d65790508163d444099114610139575063e2982c211461004857600080fd5b3461013557602092836003193601126101095760249084610067610265565b84516371d4ed8d60e11b81526001600160a01b039182168782015293849182907f0000000000000000000000000000000000000000000000000000000000000000165afa9384156101295781946100c2575b50505051908152f35b909192935084903d8611610121575b601f8201601f191684019067ffffffffffffffff82118583101761010c575085918491865281010312610109575051903880806100b9565b80fd5b604190634e487b7160e01b6000525260246000fd5b3d91506100d1565b508251903d90823e3d90fd5b8280fd5b808484346101d257806003193601126101d257610154610265565b6001600160a01b037f00000000000000000000000000000000000000000000000000000000000000008116803b156101ce5785926024918551968794859363f340fa0160e01b855216908301528235905af19081156101c557506101b55750f35b6101be90610280565b6101095780f35b513d84823e3d90fd5b8580fd5b5050fd5b915092346102615760203660031901126102615780356001600160a01b038181169182900361025d577f00000000000000000000000000000000000000000000000000000000000000001690813b1561025d578360249287949285936351cff8d960e01b85528401525af19081156101c55750610251575080f35b61025a90610280565b80f35b8380fd5b5080fd5b600435906001600160a01b038216820361027b57565b600080fd5b67ffffffffffffffff811161029457604052565b634e487b7160e01b600052604160045260246000fdfea264697066735822122080ba7a54714bd9aded75968ac541b8afe55c816314e1fc0b821e002018694ac764736f6c634300081300336080806040523461005b5760008054336001600160a01b0319821681178355916001600160a01b03909116907f8be0079c531659141344cd1fd0a4f28419497f9722a3daafe3b4186f6b6457e09080a361049c90816100618239f35b600080fdfe60406080815260048036101561001457600080fd5b600091823560e01c806351cff8d914610279578063715018a61461021c5780638da5cb5b146101f0578063e3a9db1a146101b6578063f2fde38b146100ed5763f340fa011461006257600080fd5b60203660031901126100e95781356001600160a01b03811692908390036100e55761008b61040e565b82845260016020528184208054913483018093116100d2575055513481527f2da466a7b24304f47e87fa2e1e5a81b9831ce54fec19055ce277ca2f39ba42c490602090a280f35b634e487b7160e01b865260119052602485fd5b8380fd5b8280fd5b50346100e95760203660031901126100e9576001600160a01b038235818116939192908490036101b25761011f61040e565b831561016057505082546001600160a01b0319811683178455167f8be0079c531659141344cd1fd0a4f28419497f9722a3daafe3b4186f6b6457e08380a380f35b906020608492519162461bcd60e51b8352820152602660248201527f4f776e61626c653a206e6577206f776e657220697320746865207a65726f206160448201526564647265737360d01b6064820152fd5b8480fd5b5090346100e95760203660031901126100e957356001600160a01b038116908190036100e957828291602094526001845220549051908152f35b838234610218578160031936011261021857905490516001600160a01b039091168152602090f35b5080fd5b833461027657806003193601126102765761023561040e565b80546001600160a01b03198116825581906001600160a01b03167f8be0079c531659141344cd1fd0a4f28419497f9722a3daafe3b4186f6b6457e08280a380f35b80fd5b5090346100e957602090816003193601126100e55780356001600160a01b03811693908490036101b2576102ab61040e565b838552600183528085209185835493558247106103cd578580808086895af13d156103c85767ffffffffffffffff3d8181116103b557845191601f8201601f19908116603f01168301908111838210176103a2578552815287863d92013e5b1561033b5750519081527f7084f5476618d8e60b11ef0d7d3f06914655adb8793e28ff7f018d4c76d505d59190a280f35b83608492519162461bcd60e51b8352820152603a60248201527f416464726573733a20756e61626c6520746f2073656e642076616c75652c207260448201527f6563697069656e74206d617920686176652072657665727465640000000000006064820152fd5b634e487b7160e01b8a526041855260248afd5b634e487b7160e01b895260418452602489fd5b61030a565b83606492519162461bcd60e51b8352820152601d60248201527f416464726573733a20696e73756666696369656e742062616c616e63650000006044820152fd5b6000546001600160a01b0316330361042257565b606460405162461bcd60e51b815260206004820152602060248201527f4f776e61626c653a2063616c6c6572206973206e6f7420746865206f776e65726044820152fdfea2646970667358221220c43de70b56902c46b65e9e4850143c94d0ec1f631e3c16cc281a07dff67e523a64736f6c63430008130033",
    "linkReferences": {}
  },
  "methodIdentifiers": {
    "callTransfer(address,uint256)": "d4440991",
    "payments(address)": "e2982c21",
    "withdrawPayments(address)": "31b3eb94"
  },
  "id": 66
}