{
  "abi": [
    {
      "inputs": [
        {
          "internalType": "bytes32[3]",
          "name": "input",
          "type": "bytes32[3]"
        }
      ],
      "name": "poseidon",
      "outputs": [
        {
          "internalType": "bytes32",
          "name": "",
          "type": "bytes32"
        }
      ],
      "stateMutability": "pure",
      "type": "function"
    }
  ],
  "bytecode": {
    "object": "0x608080604052346100195760cd908161001f823930815050f35b600080fdfe60806004361015600e57600080fd5b600090813560e01c635a53025d14602457600080fd5b6060366003190112607f573660231215607f576060810181811067ffffffffffffffff821117608357604052906064368111607f576020926004905b828210607157505050604051908152f35b813581529084019084016060565b5080fd5b634e487b7160e01b83526041600452602483fdfea2646970667358221220e9e7d1cc1de415f615ecaf4f5cd2ceb47cbe9fe171831dce984d20b290442bac64736f6c63430008130033",
    "linkReferences": {}
  },
  "methodIdentifiers": {
    "poseidon(bytes32[3])": "5a53025d"
  },
  "id": 552
}