{
  "abi": [
    {
      "inputs": [
        {
          "internalType": "bytes32[2]",
          "name": "input",
          "type": "bytes32[2]"
        }
      ],
      "name": "poseidon",
      "outputs": [
        {
          "internalType": "bytes32",
          "name": "",
          "type": "bytes32"
        }
      ],
      "stateMutability": "pure",
      "type": "function"
    }
  ],
  "bytecode": {
    "object": "0x608080604052346100195760cd908161001f823930815050f35b600080fdfe60806004361015600e57600080fd5b600090813560e01c63299e566014602457600080fd5b6040366003190112607f573660231215607f576040810181811067ffffffffffffffff821117608357604052906044368111607f576020926004905b828210607157505050604051908152f35b813581529084019084016060565b5080fd5b634e487b7160e01b83526041600452602483fdfea264697066735822122039b7ebc1d4646a648672e9814f0aab09df11372e730a7be34755e4db8f3c43ac64736f6c63430008130033",
    "linkReferences": {}
  },
  "methodIdentifiers": {
    "poseidon(bytes32[2])": "299e5660"
  },
  "id": 553
}