{
  "abi": [
    {
      "inputs": [
        {
          "internalType": "address",
          "name": "underlying",
          "type": "address"
        }
      ],
      "stateMutability": "nonpayable",
      "type": "constructor"
    },
    {
      "anonymous": false,
      "inputs": [
        {
          "indexed": true,
          "internalType": "address",
          "name": "owner",
          "type": "address"
        },
        {
          "indexed": true,
          "internalType": "address",
          "name": "spender",
          "type": "address"
        },
        {
          "indexed": false,
          "internalType": "uint256",
          "name": "value",
          "type": "uint256"
        }
      ],
      "name": "Approval",
      "type": "event"
    },
    {
      "anonymous": false,
      "inputs": [
        {
          "indexed": true,
          "internalType": "address",
          "name": "sender",
          "type": "address"
        },
        {
          "indexed": true,
          "internalType": "address",
          "name": "owner",
          "type": "address"
        },
        {
          "indexed": false,
          "internalType": "uint256",
          "name": "assets",
          "type": "uint256"
        },
        {
          "indexed": false,
          "internalType": "uint256",
          "name": "shares",
          "type": "uint256"
        }
      ],
      "name": "Deposit",
      "type": "event"
    },
    {
      "anonymous": false,
      "inputs": [
        {
          "indexed": true,
          "internalType": "address",
          "name": "from",
          "type": "address"
        },
        {
          "indexed": true,
          "internalType": "address",
          "name": "to",
          "type": "address"
        },
        {
          "indexed": false,
          "internalType": "uint256",
          "name": "value",
          "type": "uint256"
        }
      ],
      "name": "Transfer",
      "type": "event"
    },
    {
      "anonymous": false,
      "inputs": [
        {
          "indexed": true,
          "internalType": "address",
          "name": "sender",
          "type": "address"
        },
        {
          "indexed": true,
          "internalType": "address",
          "name": "receiver",
          "type": "address"
        },
        {
          "indexed": true,
          "internalType": "address",
          "name": "owner",
          "type": "address"
        },
        {
          "indexed": false,
          "internalType": "uint256",
          "name": "assets",
          "type": "uint256"
        },
        {
          "indexed": false,
          "internalType": "uint256",
          "name": "shares",
          "type": "uint256"
        }
      ],
      "name": "Withdraw",
      "type": "event"
    },
    {
      "inputs": [
        {
          "internalType": "address",
          "name": "owner",
          "type": "address"
        },
        {
          "internalType": "address",
          "name": "spender",
          "type": "address"
        }
      ],
      "name": "allowance",
      "outputs": [
        {
          "internalType": "uint256",
          "name": "",
          "type": "uint256"
        }
      ],
      "stateMutability": "view",
      "type": "function"
    },
    {
      "inputs": [
        {
          "internalType": "address",
          "name": "spender",
          "type": "address"
        },
        {
          "internalType": "uint256",
          "name": "amount",
          "type": "uint256"
        }
      ],
      "name": "approve",
      "outputs": [
        {
          "internalType": "bool",
          "name": "",
          "type": "bool"
        }
      ],
      "stateMutability": "nonpayable",
      "type": "function"
    },
    {
      "inputs": [],
      "name": "asset",
      "outputs": [
        {
          "internalType": "address",
          "name": "",
          "type": "address"
        }
      ],
      "stateMutability": "view",
      "type": "function"
    },
    {
      "inputs": [
        {
          "internalType": "address",
          "name": "account",
          "type": "address"
        }
      ],
      "name": "balanceOf",
      "outputs": [
        {
          "internalType": "uint256",
          "name": "",
          "type": "uint256"
        }
      ],
      "stateMutability": "view",
      "type": "function"
    },
    {
      "inputs": [
        {
          "internalType": "address",
          "name": "account",
          "type": "address"
        },
        {
          "internalType": "uint256",
          "name": "amount",
          "type": "uint256"
        }
      ],
      "name": "burn",
      "outputs": [],
      "stateMutability": "nonpayable",
      "type": "function"
    },
    {
      "inputs": [
        {
          "internalType": "uint256",
          "name": "shares",
          "type": "uint256"
        }
      ],
      "name": "convertToAssets",
      "outputs": [
        {
          "internalType": "uint256",
          "name": "",
          "type": "uint256"
        }
      ],
      "stateMutability": "view",
      "type": "function"
    },
    {
      "inputs": [
        {
          "internalType": "uint256",
          "name": "assets",
          "type": "uint256"
        }
      ],
      "name": "convertToShares",
      "outputs": [
        {
          "internalType": "uint256",
          "name": "",
          "type": "uint256"
        }
      ],
      "stateMutability": "view",
      "type": "function"
    },
    {
      "inputs": [],
      "name": "decimals",
      "outputs": [
        {
          "internalType": "uint8",
          "name": "",
          "type": "uint8"
        }
      ],
      "stateMutability": "view",
      "type": "function"
    },
    {
      "inputs": [
        {
          "internalType": "address",
          "name": "spender",
          "type": "address"
        },
        {
          "internalType": "uint256",
          "name": "subtractedValue",
          "type": "uint256"
        }
      ],
      "name": "decreaseAllowance",
      "outputs": [
        {
          "internalType": "bool",
          "name": "",
          "type": "bool"
        }
      ],
      "stateMutability": "nonpayable",
      "type": "function"
    },
    {
      "inputs": [
        {
          "internalType": "uint256",
          "name": "assets",
          "type": "uint256"
        },
        {
          "internalType": "address",
          "name": "receiver",
          "type": "address"
        }
      ],
      "name": "deposit",
      "outputs": [
        {
          "internalType": "uint256",
          "name": "",
          "type": "uint256"
        }
      ],
      "stateMutability": "nonpayable",
      "type": "function"
    },
    {
      "inputs": [
        {
          "internalType": "address",
          "name": "spender",
          "type": "address"
        },
        {
          "internalType": "uint256",
          "name": "addedValue",
          "type": "uint256"
        }
      ],
      "name": "increaseAllowance",
      "outputs": [
        {
          "internalType": "bool",
          "name": "",
          "type": "bool"
        }
      ],
      "stateMutability": "nonpayable",
      "type": "function"
    },
    {
      "inputs": [
        {
          "internalType": "address",
          "name": "",
          "type": "address"
        }
      ],
      "name": "maxDeposit",
      "outputs": [
        {
          "internalType": "uint256",
          "name": "",
          "type": "uint256"
        }
      ],
      "stateMutability": "view",
      "type": "function"
    },
    {
      "inputs": [
        {
          "internalType": "address",
          "name": "",
          "type": "address"
        }
      ],
      "name": "maxMint",
      "outputs": [
        {
          "internalType": "uint256",
          "name": "",
          "type": "uint256"
        }
      ],
      "stateMutability": "view",
      "type": "function"
    },
    {
      "inputs": [
        {
          "internalType": "address",
          "name": "owner",
          "type": "address"
        }
      ],
      "name": "maxRedeem",
      "outputs": [
        {
          "internalType": "uint256",
          "name": "",
          "type": "uint256"
        }
      ],
      "stateMutability": "view",
      "type": "function"
    },
    {
      "inputs": [
        {
          "internalType": "address",
          "name": "owner",
          "type": "address"
        }
      ],
      "name": "maxWithdraw",
      "outputs": [
        {
          "internalType": "uint256",
          "name": "",
          "type": "uint256"
        }
      ],
      "stateMutability": "view",
      "type": "function"
    },
    {
      "inputs": [
        {
          "internalType": "address",
          "name": "account",
          "type": "address"
        },
        {
          "internalType": "uint256",
          "name": "amount",
          "type": "uint256"
        }
      ],
      "name": "mint",
      "outputs": [],
      "stateMutability": "nonpayable",
      "type": "function"
    },
    {
      "inputs": [
        {
          "internalType": "uint256",
          "name": "shares",
          "type": "uint256"
        },
        {
          "internalType": "address",
          "name": "receiver",
          "type": "address"
        }
      ],
      "name": "mint",
      "outputs": [
        {
          "internalType": "uint256",
          "name": "",
          "type": "uint256"
        }
      ],
      "stateMutability": "nonpayable",
      "type": "function"
    },
    {
      "inputs": [],
      "name": "name",
      "outputs": [
        {
          "internalType": "string",
          "name": "",
          "type": "string"
        }
      ],
      "stateMutability": "view",
      "type": "function"
    },
    {
      "inputs": [
        {
          "internalType": "uint256",
          "name": "assets",
          "type": "uint256"
        }
      ],
      "name": "previewDeposit",
      "outputs": [
        {
          "internalType": "uint256",
          "name": "",
          "type": "uint256"
        }
      ],
      "stateMutability": "view",
      "type": "function"
    },
    {
      "inputs": [
        {
          "internalType": "uint256",
          "name": "shares",
          "type": "uint256"
        }
      ],
      "name": "previewMint",
      "outputs": [
        {
          "internalType": "uint256",
          "name": "",
          "type": "uint256"
        }
      ],
      "stateMutability": "view",
      "type": "function"
    },
    {
      "inputs": [
        {
          "internalType": "uint256",
          "name": "shares",
          "type": "uint256"
        }
      ],
      "name": "previewRedeem",
      "outputs": [
        {
          "internalType": "uint256",
          "name": "",
          "type": "uint256"
        }
      ],
      "stateMutability": "view",
      "type": "function"
    },
    {
      "inputs": [
        {
          "internalType": "uint256",
          "name": "assets",
          "type": "uint256"
        }
      ],
      "name": "previewWithdraw",
      "outputs": [
        {
          "internalType": "uint256",
          "name": "",
          "type": "uint256"
        }
      ],
      "stateMutability": "view",
      "type": "function"
    },
    {
      "inputs": [
        {
          "internalType": "uint256",
          "name": "shares",
          "type": "uint256"
        },
        {
          "internalType": "address",
          "name": "receiver",
          "type": "address"
        },
        {
          "internalType": "address",
          "name": "owner",
          "type": "address"
        }
      ],
      "name": "redeem",
      "outputs": [
        {
          "internalType": "uint256",
          "name": "",
          "type": "uint256"
        }
      ],
      "stateMutability": "nonpayable",
      "type": "function"
    },
    {
      "inputs": [],
      "name": "symbol",
      "outputs": [
        {
          "internalType": "string",
          "name": "",
          "type": "string"
        }
      ],
      "stateMutability": "view",
      "type": "function"
    },
    {
      "inputs": [],
      "name": "totalAssets",
      "outputs": [
        {
          "internalType": "uint256",
          "name": "",
          "type": "uint256"
        }
      ],
      "stateMutability": "view",
      "type": "function"
    },
    {
      "inputs": [],
      "name": "totalSupply",
      "outputs": [
        {
          "internalType": "uint256",
          "name": "",
          "type": "uint256"
        }
      ],
      "stateMutability": "view",
      "type": "function"
    },
    {
      "inputs": [
        {
          "internalType": "address",
          "name": "to",
          "type": "address"
        },
        {
          "internalType": "uint256",
          "name": "amount",
          "type": "uint256"
        }
      ],
      "name": "transfer",
      "outputs": [
        {
          "internalType": "bool",
          "name": "",
          "type": "bool"
        }
      ],
      "stateMutability": "nonpayable",
      "type": "function"
    },
    {
      "inputs": [
        {
          "internalType": "address",
          "name": "from",
          "type": "address"
        },
        {
          "internalType": "address",
          "name": "to",
          "type": "address"
        },
        {
          "internalType": "uint256",
          "name": "amount",
          "type": "uint256"
        }
      ],
      "name": "transferFrom",
      "outputs": [
        {
          "internalType": "bool",
          "name": "",
          "type": "bool"
        }
      ],
      "stateMutability": "nonpayable",
      "type": "function"
    },
    {
      "inputs": [
        {
          "internalType": "uint256",
          "name": "assets",
          "type": "uint256"
        },
        {
          "internalType": "address",
          "name": "receiver",
          "type": "address"
        },
        {
          "internalType": "address",
          "name": "owner",
          "type": "address"
        }
      ],
      "name": "withdraw",
      "outputs": [
        {
          "internalType": "uint256",
          "name": "",
          "type": "uint256"
        }
      ],
      "stateMutability": "nonpayable",
      "type": "function"
    }
  ],
  "bytecode": {
    "object": "0x60c080604052346200039057806200198f8038038091620000218285620003b1565b83396020928391810103126200039057516001600160a01b03811691908290036200039057604051620000548162000395565b600b81526a455243343632364d6f636b60a81b82820152604051620000798162000395565b600681526545343632364d60d01b8382015281516001600160401b03919082811162000290576003918254916001958684811c9416801562000385575b888510146200036f578190601f9485811162000319575b508890858311600114620002b257600092620002a6575b505060001982861b1c191690861b1783555b8051938411620002905760049586548681811c9116801562000285575b82821014620002705783811162000225575b5080928511600114620001b75750938394918492600095620001ab575b50501b92600019911b1c19161790555b6200015d81620003d5565b9015620001a2575b60a0526080526040516114dd9081620004b2823960805181818161069401528181610f11015281816110b2015261117f015260a051816106d90152f35b50601262000165565b01519350388062000142565b92919084601f1981168860005285600020956000905b898383106200020a5750505010620001ef575b50505050811b01905562000152565b01519060f884600019921b161c1916905538808080620001e0565b858701518955909701969485019488935090810190620001cd565b87600052816000208480880160051c82019284891062000266575b0160051c019087905b8281106200025957505062000125565b6000815501879062000249565b9250819262000240565b602288634e487b7160e01b6000525260246000fd5b90607f169062000113565b634e487b7160e01b600052604160045260246000fd5b015190503880620000e4565b90889350601f19831691876000528a6000209260005b8c828210620003025750508411620002e9575b505050811b018355620000f6565b015160001983881b60f8161c19169055388080620002db565b8385015186558c97909501949384019301620002c8565b90915085600052886000208580850160051c8201928b861062000365575b918a91869594930160051c01915b82811062000355575050620000cd565b600081558594508a910162000345565b9250819262000337565b634e487b7160e01b600052602260045260246000fd5b93607f1693620000b6565b600080fd5b604081019081106001600160401b038211176200029057604052565b601f909101601f19168101906001600160401b038211908210176200029057604052565b906040516020908181019063313ce56760e01b825260048152620003f98162000395565b5160009485928392916001600160a01b03165afa3d15620004a8573d906001600160401b0382116200049457604051916200043e601f8201601f1916850184620003b1565b82523d858484013e5b8062000488575b6200045a575b50508190565b81818051810103126200048457015160ff8111156200047a578062000454565b6001925060ff1690565b8380fd5b5081815110156200044e565b634e487b7160e01b85526041600452602485fd5b6060906200044756fe6040608081526004908136101561001557600080fd5b600090813560e01c92836301e1d114146108b457836306fdde03146107c157836307a2d13a14610608578363095ea7b3146107985783630a28a4771461077957836318160ddd1461075b57836323b872dd1461071f578363313ce567146106c357836338d52e0f146106805783633950935114610631578363402d267d1461022c57836340c10f191461060d5783634cdad506146106085783636e553f65146105d557836370a08231146105b557836394bf804d1461057e57836395d89b411461047b5783639dc29fac14610454578363a457c2d7146103b1578363a9059cbb14610381578363b3d7f6b914610362578363b460af94146102c9578363ba0876521461023157508263c63d75b61461022c578263c6e6f59214610164578263ce96cb77146101f5578263d905777e146101b4578263dd62ed3e1461016957505063ef8b30f71461016457600080fd5b6109cb565b346101b057806003193601126101b05780602092610185610944565b61018d61095a565b6001600160a01b0391821683526001865283832091168252845220549051908152f35b5080fd5b346101b05760203660031901126101b0576020906101ee6101d3610944565b6001600160a01b031660009081526020819052604090205490565b9051908152f35b346101b05760203660031901126101b0576020916101ee9082906001600160a01b0361021f610944565b168152808552205461100b565b610970565b82346102c657829061024236610996565b6001600160a01b03811684526020849052939092205492939092831161028357508161027d916102746020969461100b565b948591336110ef565b51908152f35b606490602086519162461bcd60e51b8352820152601d60248201527f455243343632363a2072656465656d206d6f7265207468616e206d61780000006044820152fd5b80fd5b8290346101b05790826102fe926102df36610996565b6001600160a01b0381168652602086905293909420549294909261100b565b821161031f5750602093918161031661027d93610f87565b948592336110ef565b606490602086519162461bcd60e51b8352820152601f60248201527f455243343632363a207769746864726177206d6f7265207468616e206d6178006044820152fd5b91346102c65760203660031901126102c657506101ee60209235610fe0565b50346101b057806003193601126101b0576020906103aa6103a0610944565b6024359033610a44565b5160018152f35b82346102c657826003193601126102c6576103ca610944565b918360243592338152600160205281812060018060a01b0386168252602052205490828210610403576020856103aa8585038733610d5c565b608490602086519162461bcd60e51b8352820152602560248201527f45524332303a2064656372656173656420616c6c6f77616e63652062656c6f77604482015264207a65726f60d81b6064820152fd5b50346101b0573660031901126102c65761047861046f610944565b60243590610c55565b80f35b9250346101b057816003193601126101b057805191809380549160019083821c92828516948515610574575b60209586861081146105615785895290811561053d57506001146104e5575b6104e187876104d7828c03836109e9565b51918291826108d0565b0390f35b81529295507f8a35acfbc15ff81a39ae7d344fd709f28e8600b4aa8c65c6b64bfe7fe36bd19b5b82841061052a57505050826104e1946104d7928201019438806104c6565b805486850188015292860192810161050c565b60ff19168887015250505050151560051b83010192506104d7826104e138806104c6565b634e487b7160e01b845260228352602484fd5b93607f16936104a7565b346105b157816003193601126105b15760209250359061027d61059f61095a565b926105a981610fe0565b809433611036565b8280fd5b50346101b05760203660031901126101b0576020906101ee6101d3610944565b346105b157816003193601126105b15760209250359061027d6105f661095a565b6105ff84610fb5565b93849133611036565b610919565b50346101b0573660031901126102c657610478610628610944565b60243590610bb2565b50346101b057806003193601126101b0576103aa602092610679610653610944565b338352600186528483206001600160a01b03821684528652918490205460243590610a21565b9033610d5c565b50346101b057816003193601126101b057517f00000000000000000000000000000000000000000000000000000000000000006001600160a01b03168152602090f35b9250346101b057816003193601126101b05760ff7f0000000000000000000000000000000000000000000000000000000000000000169160ff831161070c576020838351908152f35b634e487b7160e01b815260118452602490fd5b50346101b05760603660031901126101b0576020906103aa61073f610944565b61074761095a565b60443591610756833383610e5e565b610a44565b50346101b057816003193601126101b0576020906002549051908152f35b91346102c65760203660031901126102c657506101ee60209235610f87565b50346101b057806003193601126101b0576020906103aa6107b7610944565b6024359033610d5c565b90346105b157826003193601126105b157805191836003549060019082821c9282811680156108aa575b60209586861082146108975750848852908115610875575060011461081c575b6104e186866104d7828b03836109e9565b929550600383527fc2575a0e9e593c00f959f8c92f12db2869c3395a3b0502d05e2516446f71f85b5b82841061086257505050826104e1946104d792820101948661080b565b8054868501880152928601928101610845565b60ff191687860152505050151560051b83010192506104d7826104e18661080b565b634e487b7160e01b845260229052602483fd5b93607f16936107eb565b50346101b057816003193601126101b0576020906101ee610ef6565b6020808252825181830181905290939260005b82811061090557505060409293506000838284010152601f8019910116010190565b8181018601518482016040015285016108e3565b3461093f57602036600319011261093f57602061093760043561100b565b604051908152f35b600080fd5b600435906001600160a01b038216820361093f57565b602435906001600160a01b038216820361093f57565b3461093f57602036600319011261093f57610989610944565b5060206040516000198152f35b606090600319011261093f57600435906001600160a01b0390602435828116810361093f5791604435908116810361093f5790565b3461093f57602036600319011261093f576020610937600435610fb5565b90601f8019910116810190811067ffffffffffffffff821117610a0b57604052565b634e487b7160e01b600052604160045260246000fd5b91908201809211610a2e57565b634e487b7160e01b600052601160045260246000fd5b6001600160a01b03908116918215610b5f5716918215610b0e57600082815280602052604081205491808310610aba57604082827fddf252ad1be2c89b69c2b068fc378daa952ba7f163c4a11628f55a4df523b3ef958760209652828652038282205586815220818154019055604051908152a3565b60405162461bcd60e51b815260206004820152602660248201527f45524332303a207472616e7366657220616d6f756e7420657863656564732062604482015265616c616e636560d01b6064820152608490fd5b60405162461bcd60e51b815260206004820152602360248201527f45524332303a207472616e7366657220746f20746865207a65726f206164647260448201526265737360e81b6064820152608490fd5b60405162461bcd60e51b815260206004820152602560248201527f45524332303a207472616e736665722066726f6d20746865207a65726f206164604482015264647265737360d81b6064820152608490fd5b6001600160a01b0316908115610c10577fddf252ad1be2c89b69c2b068fc378daa952ba7f163c4a11628f55a4df523b3ef602082610bf4600094600254610a21565b60025584845283825260408420818154019055604051908152a3565b60405162461bcd60e51b815260206004820152601f60248201527f45524332303a206d696e7420746f20746865207a65726f2061646472657373006044820152606490fd5b6001600160a01b03168015610d0d57600091818352826020526040832054818110610cbd57817fddf252ad1be2c89b69c2b068fc378daa952ba7f163c4a11628f55a4df523b3ef926020928587528684520360408620558060025403600255604051908152a3565b60405162461bcd60e51b815260206004820152602260248201527f45524332303a206275726e20616d6f756e7420657863656564732062616c616e604482015261636560f01b6064820152608490fd5b60405162461bcd60e51b815260206004820152602160248201527f45524332303a206275726e2066726f6d20746865207a65726f206164647265736044820152607360f81b6064820152608490fd5b6001600160a01b03908116918215610e0d5716918215610dbd5760207f8c5be1e5ebec7d5bd14f71427d1e84f3dd0314c0f7b2291e5b200ac8c7c3b925918360005260018252604060002085600052825280604060002055604051908152a3565b60405162461bcd60e51b815260206004820152602260248201527f45524332303a20617070726f766520746f20746865207a65726f206164647265604482015261737360f01b6064820152608490fd5b60405162461bcd60e51b8152602060048201526024808201527f45524332303a20617070726f76652066726f6d20746865207a65726f206164646044820152637265737360e01b6064820152608490fd5b9060018060a01b0380831660005260016020526040600020908216600052602052604060002054926000198403610e96575b50505050565b808410610eb157610ea8930391610d5c565b38808080610e90565b60405162461bcd60e51b815260206004820152601d60248201527f45524332303a20696e73756666696369656e7420616c6c6f77616e63650000006044820152606490fd5b6040516370a0823160e01b81523060048201526020816024817f00000000000000000000000000000000000000000000000000000000000000006001600160a01b03165afa908115610f7b57600091610f4d575090565b906020823d8211610f73575b81610f66602093836109e9565b810103126102c657505190565b3d9150610f59565b6040513d6000823e3d90fd5b60025460018101809111610a2e57610f9d610ef6565b9060018201809211610a2e57610fb2926113a6565b90565b60025460018101809111610a2e57610fcb610ef6565b9060018201809211610a2e57610fb2926113e6565b610fe8610ef6565b60018101809111610a2e576002549060018201809211610a2e57610fb2926113a6565b611013610ef6565b60018101809111610a2e576002549060018201809211610a2e57610fb2926113e6565b6040516323b872dd60e01b60208201526001600160a01b039182166024820181905230604483015260648083018690528252939460a08201939192919067ffffffffffffffff851184861017610a0b576110d66040947fdcbc1c05240f31ff3ad067ef1ee35ce4997762752e3a095284754544f4c709d79686527f00000000000000000000000000000000000000000000000000000000000000006111c1565b6110e08183610bb2565b835196875260208701521693a3565b6001600160a01b038084169581831694909392611118918591828a89036111b0575b5050610c55565b6040519163a9059cbb60e01b6020840152169384602483015280604483015260448252608082019282841067ffffffffffffffff851117610a0b576111a36040937ffbde797d201c681b91056529119e0b02407c7bb96a4a2c75c01fc9667232c8db9585527f00000000000000000000000000000000000000000000000000000000000000006111c1565b82519182526020820152a4565b6111ba9183610e5e565b3882611111565b60018060a01b0316906040516040810167ffffffffffffffff9082811082821117610a0b576040526020938483527f5361666545524332303a206c6f772d6c6576656c2063616c6c206661696c6564858401526000808587829751910182855af1903d15611306573d9283116112f2579061125c9392916040519261124f88601f19601f84011601856109e9565b83523d868885013e611311565b8051918215918483156112ce575b5050509050156112775750565b6084906040519062461bcd60e51b82526004820152602a60248201527f5361666545524332303a204552433230206f7065726174696f6e20646964206e6044820152691bdd081cdd58d8d9595960b21b6064820152fd5b9193818094500103126101b0578201519081151582036102c657508038808461126a565b634e487b7160e01b85526041600452602485fd5b9061125c9392506060915b919290156113735750815115611325575090565b3b1561132e5790565b60405162461bcd60e51b815260206004820152601d60248201527f416464726573733a2063616c6c20746f206e6f6e2d636f6e74726163740000006044820152606490fd5b8251909150156113865750805190602001fd5b60405162461bcd60e51b81529081906113a290600483016108d0565b0390fd5b91906113b38282856113e6565b9282156113d057096113c25790565b60018101809111610a2e5790565b634e487b7160e01b600052601260045260246000fd5b916000198284099282810292838086109503948086039514611499578483111561145c578291096001821901821680920460028082600302188083028203028083028203028083028203028083028203028083028203028092029003029360018380600003040190848311900302920304170290565b60405162461bcd60e51b81526020600482015260156024820152744d6174683a206d756c446976206f766572666c6f7760581b6044820152606490fd5b5050809250156113d057049056fea2646970667358221220d69d31a025121c08df71cae9ae2ae8f4b1530e01c3865cb74231f965da0d97f464736f6c63430008130033",
    "linkReferences": {}
  },
  "methodIdentifiers": {
    "allowance(address,address)": "dd62ed3e",
    "approve(address,uint256)": "095ea7b3",
    "asset()": "38d52e0f",
    "balanceOf(address)": "70a08231",
    "burn(address,uint256)": "9dc29fac",
    "convertToAssets(uint256)": "07a2d13a",
    "convertToShares(uint256)": "c6e6f592",
    "decimals()": "313ce567",
    "decreaseAllowance(address,uint256)": "a457c2d7",
    "deposit(uint256,address)": "6e553f65",
    "increaseAllowance(address,uint256)": "39509351",
    "maxDeposit(address)": "402d267d",
    "maxMint(address)": "c63d75b6",
    "maxRedeem(address)": "d905777e",
    "maxWithdraw(address)": "ce96cb77",
    "mint(address,uint256)": "40c10f19",
    "mint(uint256,address)": "94bf804d",
    "name()": "06fdde03",
    "previewDeposit(uint256)": "ef8b30f7",
    "previewMint(uint256)": "b3d7f6b9",
    "previewRedeem(uint256)": "4cdad506",
    "previewWithdraw(uint256)": "0a28a477",
    "redeem(uint256,address,address)": "ba087652",
    "symbol()": "95d89b41",
    "totalAssets()": "01e1d114",
    "totalSupply()": "18160ddd",
    "transfer(address,uint256)": "a9059cbb",
    "transferFrom(address,address,uint256)": "23b872dd",
    "withdraw(uint256,address,address)": "b460af94"
  },
  "id": 91
}