{
  "abi": [
    {
      "inputs": [],
      "name": "ERC20Base__ApproveFromZeroAddress",
      "type": "error"
    },
    {
      "inputs": [],
      "name": "ERC20Base__ApproveToZeroAddress",
      "type": "error"
    },
    {
      "inputs": [],
      "name": "ERC20Base__BurnExceedsBalance",
      "type": "error"
    },
    {
      "inputs": [],
      "name": "ERC20Base__BurnFromZeroAddress",
      "type": "error"
    },
    {
      "inputs": [],
      "name": "ERC20Base__InsufficientAllowance",
      "type": "error"
    },
    {
      "inputs": [],
      "name": "ERC20Base__MintToZeroAddress",
      "type": "error"
    },
    {
      "inputs": [],
      "name": "ERC20Base__TransferExceedsBalance",
      "type": "error"
    },
    {
      "inputs": [],
      "name": "ERC20Base__TransferFromZeroAddress",
      "type": "error"
    },
    {
      "inputs": [],
      "name": "ERC20Base__TransferToZeroAddress",
      "type": "error"
    },
    {
      "inputs": [],
      "name": "ERC20Extended__ExcessiveAllowance",
      "type": "error"
    },
    {
      "inputs": [],
      "name": "ERC20Extended__InsufficientAllowance",
      "type": "error"
    },
    {
      "anonymous": false,
      "inputs": [
        {
          "indexed": true,
          "internalType": "address",
          "name": "owner",
          "type": "address"
        },
        {
          "indexed": true,
          "internalType": "address",
          "name": "spender",
          "type": "address"
        },
        {
          "indexed": false,
          "internalType": "uint256",
          "name": "value",
          "type": "uint256"
        }
      ],
      "name": "Approval",
      "type": "event"
    },
    {
      "anonymous": false,
      "inputs": [
        {
          "indexed": true,
          "internalType": "address",
          "name": "from",
          "type": "address"
        },
        {
          "indexed": true,
          "internalType": "address",
          "name": "to",
          "type": "address"
        },
        {
          "indexed": false,
          "internalType": "uint256",
          "name": "value",
          "type": "uint256"
        }
      ],
      "name": "Transfer",
      "type": "event"
    },
    {
      "inputs": [
        {
          "internalType": "address",
          "name": "account",
          "type": "address"
        },
        {
          "internalType": "uint256",
          "name": "amount",
          "type": "uint256"
        }
      ],
      "name": "__burn",
      "outputs": [],
      "stateMutability": "nonpayable",
      "type": "function"
    },
    {
      "inputs": [
        {
          "internalType": "address",
          "name": "account",
          "type": "address"
        },
        {
          "internalType": "uint256",
          "name": "amount",
          "type": "uint256"
        }
      ],
      "name": "__mint",
      "outputs": [],
      "stateMutability": "nonpayable",
      "type": "function"
    },
    {
      "inputs": [
        {
          "internalType": "address",
          "name": "holder",
          "type": "address"
        },
        {
          "internalType": "address",
          "name": "spender",
          "type": "address"
        }
      ],
      "name": "allowance",
      "outputs": [
        {
          "internalType": "uint256",
          "name": "",
          "type": "uint256"
        }
      ],
      "stateMutability": "view",
      "type": "function"
    },
    {
      "inputs": [
        {
          "internalType": "address",
          "name": "spender",
          "type": "address"
        },
        {
          "internalType": "uint256",
          "name": "amount",
          "type": "uint256"
        }
      ],
      "name": "approve",
      "outputs": [
        {
          "internalType": "bool",
          "name": "",
          "type": "bool"
        }
      ],
      "stateMutability": "nonpayable",
      "type": "function"
    },
    {
      "inputs": [
        {
          "internalType": "address",
          "name": "account",
          "type": "address"
        }
      ],
      "name": "balanceOf",
      "outputs": [
        {
          "internalType": "uint256",
          "name": "",
          "type": "uint256"
        }
      ],
      "stateMutability": "view",
      "type": "function"
    },
    {
      "inputs": [
        {
          "internalType": "address",
          "name": "spender",
          "type": "address"
        },
        {
          "internalType": "uint256",
          "name": "amount",
          "type": "uint256"
        }
      ],
      "name": "decreaseAllowance",
      "outputs": [
        {
          "internalType": "bool",
          "name": "",
          "type": "bool"
        }
      ],
      "stateMutability": "nonpayable",
      "type": "function"
    },
    {
      "inputs": [
        {
          "internalType": "address",
          "name": "spender",
          "type": "address"
        },
        {
          "internalType": "uint256",
          "name": "amount",
          "type": "uint256"
        }
      ],
      "name": "increaseAllowance",
      "outputs": [
        {
          "internalType": "bool",
          "name": "",
          "type": "bool"
        }
      ],
      "stateMutability": "nonpayable",
      "type": "function"
    },
    {
      "inputs": [],
      "name": "totalSupply",
      "outputs": [
        {
          "internalType": "uint256",
          "name": "",
          "type": "uint256"
        }
      ],
      "stateMutability": "view",
      "type": "function"
    },
    {
      "inputs": [
        {
          "internalType": "address",
          "name": "recipient",
          "type": "address"
        },
        {
          "internalType": "uint256",
          "name": "amount",
          "type": "uint256"
        }
      ],
      "name": "transfer",
      "outputs": [
        {
          "internalType": "bool",
          "name": "",
          "type": "bool"
        }
      ],
      "stateMutability": "nonpayable",
      "type": "function"
    },
    {
      "inputs": [
        {
          "internalType": "address",
          "name": "holder",
          "type": "address"
        },
        {
          "internalType": "address",
          "name": "recipient",
          "type": "address"
        },
        {
          "internalType": "uint256",
          "name": "amount",
          "type": "uint256"
        }
      ],
      "name": "transferFrom",
      "outputs": [
        {
          "internalType": "bool",
          "name": "",
          "type": "bool"
        }
      ],
      "stateMutability": "nonpayable",
      "type": "function"
    }
  ],
  "bytecode": {
    "object": "0x60808060405234610016576106ce908161001c8239f35b600080fdfe6040608081526004908136101561001557600080fd5b600091823560e01c908163095ea7b31461042757816318160ddd146103e957816323b872dd146103a457816339509351146103425781633dc8ded71461026d57816370a082311461023f578163a457c2d71461020e578163a9059cbb146101db578163aa82e017146100da575063dd62ed3e1461009157600080fd5b346100d657806003193601126100d657806020926100ad610451565b6100be6100b861046c565b91610482565b6001600160a01b039091168252845220549051908152f35b5080fd5b8383346100d657806003193601126100d6576100f4610451565b6001600160a01b0316906024359082156101cc578284527fc991b2e918acaba8e5721668ed0b1982684e5a8692a621bcd2d7ef326bb015b48060205281852054908184116101bc5790839185875260205203818520557fc991b2e918acaba8e5721668ed0b1982684e5a8692a621bcd2d7ef326bb015b68054908382039182116101a95755519081528291907fddf252ad1be2c89b69c2b068fc378daa952ba7f163c4a11628f55a4df523b3ef90602090a380f35b634e487b7160e01b865260118752602486fd5b825163b1d35b2360e01b81528790fd5b516378f1627760e11b81528490fd5b5050346100d657806003193601126100d6576020906102056101fb610451565b602435903361059b565b90519015158152f35b5050346100d657806003193601126100d65760209061023861022e610451565b6024359033610652565b5160018152f35b5050346100d65760203660031901126100d657602090610265610260610451565b6104bb565b549051908152f35b9190503461033e578060031936011261033e57610288610451565b6001600160a01b031691602435919083156103305750602084927fddf252ad1be2c89b69c2b068fc378daa952ba7f163c4a11628f55a4df523b3ef927fc991b2e918acaba8e5721668ed0b1982684e5a8692a621bcd2d7ef326bb015b66102f0838254610578565b90558585527fc991b2e918acaba8e5721668ed0b1982684e5a8692a621bcd2d7ef326bb015b48352808520610326838254610578565b905551908152a380f35b905163da007acd60e01b8152fd5b8280fd5b8284346103a157816003193601126103a1578161035d610451565b9161036733610482565b6001600160a01b03841682526020522054602435810193908410610393575060209261020591336104f4565b825163d256efb160e01b8152fd5b80fd5b5050346100d65760603660031901126100d6576020906103e16103c5610451565b6103cd61046c565b604435916103dc833383610652565b61059b565b505160018152f35b5050346100d657816003193601126100d6576020907fc991b2e918acaba8e5721668ed0b1982684e5a8692a621bcd2d7ef326bb015b6549051908152f35b5050346100d657806003193601126100d657602090610205610447610451565b60243590336104f4565b600435906001600160a01b038216820361046757565b600080fd5b602435906001600160a01b038216820361046757565b6001600160a01b031660009081527fc991b2e918acaba8e5721668ed0b1982684e5a8692a621bcd2d7ef326bb015b56020526040902090565b6001600160a01b031660009081527fc991b2e918acaba8e5721668ed0b1982684e5a8692a621bcd2d7ef326bb015b46020526040902090565b916001600160a01b038084169283156105665716928315610555577f8c5be1e5ebec7d5bd14f71427d1e84f3dd0314c0f7b2291e5b200ac8c7c3b9259161053c602092610482565b85600052825280604060002055604051908152a3600190565b6040516262920b60e91b8152600490fd5b604051635a68b7ab60e01b8152600490fd5b9190820180921161058557565b634e487b7160e01b600052601160045260246000fd5b6001600160a01b03808216929190831561064057821693841561062e576105c1826104bb565b5480821161061c577fddf252ad1be2c89b69c2b068fc378daa952ba7f163c4a11628f55a4df523b3ef936020936105fd846106039403916104bb565b556104bb565b61060e828254610578565b9055604051908152a3600190565b604051637183160b60e01b8152600490fd5b6040516320a2645160e21b8152600490fd5b6040516368551d5f60e01b8152600490fd5b9061065c82610482565b60018060a01b03821660005260205260406000205492838111610687576106849303916104f4565b50565b60405162e14ccf60e11b8152600490fdfea2646970667358221220f675667b909c185d1417c11277027977773276a393d0e3174ee9eda35d8402ce64736f6c63430008130033",
    "linkReferences": {}
  },
  "methodIdentifiers": {
    "__burn(address,uint256)": "aa82e017",
    "__mint(address,uint256)": "3dc8ded7",
    "allowance(address,address)": "dd62ed3e",
    "approve(address,uint256)": "095ea7b3",
    "balanceOf(address)": "70a08231",
    "decreaseAllowance(address,uint256)": "a457c2d7",
    "increaseAllowance(address,uint256)": "39509351",
    "totalSupply()": "18160ddd",
    "transfer(address,uint256)": "a9059cbb",
    "transferFrom(address,address,uint256)": "23b872dd"
  },
  "id": 404
}