{
  "abi": [
    {
      "inputs": [
        {
          "components": [
            {
              "internalType": "uint64",
              "name": "gridWidth",
              "type": "uint64"
            },
            {
              "internalType": "uint64",
              "name": "gridHeight",
              "type": "uint64"
            },
            {
              "internalType": "uint64",
              "name": "lengthToWin",
              "type": "uint64"
            },
            {
              "internalType": "uint64",
              "name": "initialBalance",
              "type": "uint64"
            }
          ],
          "internalType": "struct MercuryBidTacToe.GameParams",
          "name": "gameParams",
          "type": "tuple"
        },
        {
          "internalType": "address",
          "name": "playerAddress",
          "type": "address"
        },
        {
          "internalType": "address",
          "name": "mercuryBidTacToeAddress",
          "type": "address"
        }
      ],
      "name": "createGame",
      "outputs": [
        {
          "internalType": "address",
          "name": "",
          "type": "address"
        }
      ],
      "stateMutability": "nonpayable",
      "type": "function"
    },
    {
      "inputs": [],
      "name": "defaultParams",
      "outputs": [
        {
          "components": [
            {
              "internalType": "uint64",
              "name": "gridWidth",
              "type": "uint64"
            },
            {
              "internalType": "uint64",
              "name": "gridHeight",
              "type": "uint64"
            },
            {
              "internalType": "uint64",
              "name": "lengthToWin",
              "type": "uint64"
            },
            {
              "internalType": "uint64",
              "name": "initialBalance",
              "type": "uint64"
            }
          ],
          "internalType": "struct MercuryBidTacToe.GameParams",
          "name": "",
          "type": "tuple"
        }
      ],
      "stateMutability": "pure",
      "type": "function"
    },
    {
      "inputs": [
        {
          "internalType": "address",
          "name": "gameAddress",
          "type": "address"
        },
        {
          "internalType": "address",
          "name": "playerAddress",
          "type": "address"
        }
      ],
      "name": "joinGame",
      "outputs": [],
      "stateMutability": "nonpayable",
      "type": "function"
    }
  ],
  "bytecode": {
    "object": "0x60808060405234610016576106e2908161001c8239f35b600080fdfe608060408181526004908136101561001657600080fd5b600092833560e01c908163615dfa5c146105315750806364dcddeb146100e6576393dae5eb1461004557600080fd5b8291346100e257816003193601126100e2576001600160a01b038135818116908190036100de576024359182168092036100de57803b156100de5760248592855196879384926302389a2960e41b8452878401525af180156100d4576100a9578380f35b67ffffffffffffffff83116100c15750523880808380f35b634e487b7160e01b845260419052602483fd5b82513d86823e3d90fd5b8480fd5b5050fd5b503461052d57366003190160c081126105265760801361052d5780519261010c846105c3565b82359267ffffffffffffffff94858516948581036105265781526024803593878516850361052a576020978884019586526044938435828116810361052657888201908152606497883590848216820361052257606084019182526001600160a01b039b6084358d811694919085900361051e57908d93929160a4359e8f169e8f0361051a576003811490811561050f575b50156104b35786825116600381149081156104a8575b501561044b578690511660038110159182610424575b5050156103c6575184168981101590816103b9575b501561035357895160b78082019082821087831117610341579082916105f68339039086f080156103375716998951916102588d84019463bfa4e24160e01b8652888501906060908167ffffffffffffffff91828151168552826020820151166020860152826040820151166040860152015116910152565b60a483015260c482015260c48152610100810181811084821117610325578952518391829190828c5af1913d1561031e573d82811161030c57885192601f8201601f19908116603f01168401908111848210176102fa5789528252893d92013e5b156102c8575050505051908152f35b845162461bcd60e51b81529283018790526011908301527018dc99585d194819d85b594819985a5b19607a1b90820152fd5b634e487b7160e01b8352604188528583fd5b634e487b7160e01b8252604187528482fd5b50506102b9565b634e487b7160e01b8552604188528585fd5b8a513d87823e3d90fd5b634e487b7160e01b885260418b528888fd5b895162461bcd60e51b81528089018d90526037818801527f4d657263757279426964546163546f65506172616d56657269666965723a2069818901527f6e697469616c42616c616e636520696e636f7272656374000000000000000000818b0152608490fd5b61271091501115386101df565b50895162461bcd60e51b81528089018d90526034818801527f4d657263757279426964546163546f65506172616d56657269666965723a206c8189015273195b99dd1a151bd5da5b881a5b98dbdc9c9958dd60621b818b0152608490fd5b8651905191925087169087168082106104435750905b111538806101ca565b90509061043a565b508b5162461bcd60e51b8152808b018f90526033818a01527f4d657263757279426964546163546f65506172616d56657269666965723a2067818b0152721c9a5912195a59da1d081a5b98dbdc9c9958dd606a1b818d0152608490fd5b6005915014386101b4565b508b5162461bcd60e51b8152808b018f90526032818a01527f4d657263757279426964546163546f65506172616d56657269666965723a2067818b0152711c9a5915da591d1a081a5b98dbdc9c9958dd60721b818d0152608490fd5b60059150143861019e565b8880fd5b8780fd5b8580fd5b8380fd5b80fd5b8280fd5b8285913461052d578260031936011261052d57916060836105536080956105c3565b828152826020820152828482015201526105c1815191610572836105c3565b6003835260036020840152600381840152606460608401525180926060908167ffffffffffffffff91828151168552826020820151166020860152826040820151166040860152015116910152565bf35b6080810190811067ffffffffffffffff8211176105df57604052565b634e487b7160e01b600052604160045260246000fdfe60808060405234601457609d908161001a8239f35b600080fdfe60806040523615603a5760003681803780803681738468429a73c21efee188db99b1508b84a4289d8c5af43d82803e156036573d90f35b3d90fd5b60003681803780803681738468429a73c21efee188db99b1508b84a4289d8c5af43d82803e156036573d90f3fea26469706673582212203d33a7717b344f4f98faaf23955c01e61711a3a39b3e60b360f0a8bd92c3564664736f6c63430008130033a26469706673582212204b7593b947660043e0a5c601e48957bcfe594b765100985f81583e36787c9ab864736f6c63430008130033",
    "linkReferences": {}
  },
  "methodIdentifiers": {
    "createGame((uint64,uint64,uint64,uint64),address,address)": "64dcddeb",
    "defaultParams()": "615dfa5c",
    "joinGame(address,address)": "93dae5eb"
  },
  "id": 12
}