{
  "abi": [
    {
      "anonymous": false,
      "inputs": [],
      "name": "MockFunctionCalled",
      "type": "event"
    },
    {
      "anonymous": false,
      "inputs": [
        {
          "indexed": false,
          "internalType": "uint256",
          "name": "a",
          "type": "uint256"
        },
        {
          "indexed": false,
          "internalType": "uint256",
          "name": "b",
          "type": "uint256"
        }
      ],
      "name": "MockFunctionCalledWithArgs",
      "type": "event"
    },
    {
      "inputs": [],
      "name": "mockFunction",
      "outputs": [
        {
          "internalType": "string",
          "name": "",
          "type": "string"
        }
      ],
      "stateMutability": "payable",
      "type": "function"
    },
    {
      "inputs": [],
      "name": "mockFunctionEmptyReturn",
      "outputs": [],
      "stateMutability": "payable",
      "type": "function"
    },
    {
      "inputs": [],
      "name": "mockFunctionNonPayable",
      "outputs": [
        {
          "internalType": "string",
          "name": "",
          "type": "string"
        }
      ],
      "stateMutability": "nonpayable",
      "type": "function"
    },
    {
      "inputs": [],
      "name": "mockFunctionOutOfGas",
      "outputs": [],
      "stateMutability": "payable",
      "type": "function"
    },
    {
      "inputs": [],
      "name": "mockFunctionRevertsNoReason",
      "outputs": [],
      "stateMutability": "payable",
      "type": "function"
    },
    {
      "inputs": [],
      "name": "mockFunctionRevertsReason",
      "outputs": [],
      "stateMutability": "payable",
      "type": "function"
    },
    {
      "inputs": [],
      "name": "mockFunctionThrows",
      "outputs": [],
      "stateMutability": "payable",
      "type": "function"
    },
    {
      "inputs": [
        {
          "internalType": "uint256",
          "name": "a",
          "type": "uint256"
        },
        {
          "internalType": "uint256",
          "name": "b",
          "type": "uint256"
        }
      ],
      "name": "mockFunctionWithArgs",
      "outputs": [
        {
          "internalType": "string",
          "name": "",
          "type": "string"
        }
      ],
      "stateMutability": "payable",
      "type": "function"
    },
    {
      "inputs": [
        {
          "internalType": "bytes32",
          "name": "slot",
          "type": "bytes32"
        },
        {
          "internalType": "bytes32",
          "name": "value",
          "type": "bytes32"
        }
      ],
      "name": "mockFunctionWritesStorage",
      "outputs": [
        {
          "internalType": "string",
          "name": "",
          "type": "string"
        }
      ],
      "stateMutability": "nonpayable",
      "type": "function"
    },
    {
      "inputs": [],
      "name": "mockStaticFunction",
      "outputs": [
        {
          "internalType": "string",
          "name": "",
          "type": "string"
        }
      ],
      "stateMutability": "pure",
      "type": "function"
    }
  ],
  "bytecode": {
    "object": "0x60808060405234610016576103cd908161001c8239f35b600080fdfe608060408181526004918236101561001657600080fd5b600090813560e01c9081630c034968146102b6575080630f63e42c146102755780632c81d638146102665780633bcfaa14146102465780633e6fec041461020a578063425397a2146101e1578063a793ab4714610142578063c292d81c1461010f578063c8fc7696146100ed5763fdb273251461009257600080fd5b816003193601126100ea57507f2b42b3c9af4187c86225f201736204c7597312c830cb5c2537dff6ef24b946ae816100e6938151903581526024356020820152a16100db61034e565b905191829182610305565b0390f35b80fd5b50903461010b578160031936011261010b576100e6906100db61034e565b5080fd5b50806003193601126100ea577f52c66ed6ec9ca819cba26fe2b2650059270d8981b295af300187a964f54a8c238180a180f35b8382806003193601126100ea57805b8154680100000000000000008110156101ce57600181018084558110156101bb577f290decd9548b62a8d60345a988386fc84ba6bc95484008f6362f93160ef3e5630181905560001981146101a857600101610151565b506011602492634e487b7160e01b835252fd5b634e487b7160e01b835260328452602483fd5b634e487b7160e01b835260418452602483fd5b5091346102065781600319360112610206576100e692506024359035556100db61034e565b8280fd5b50908160031936011261010b577f52c66ed6ec9ca819cba26fe2b2650059270d8981b295af300187a964f54a8c23826100e693a16100db61034e565b50828160031936011261010b57634e487b7160e01b825260019052602490fd5b50806003193601126100ea5780fd5b50903461010b578160031936011261010b577f52c66ed6ec9ca819cba26fe2b2650059270d8981b295af300187a964f54a8c23826100e693a16100db61034e565b925050806003193601126100ea5750602060649262461bcd60e51b8352820152601b60248201527f43616c6c52656365697665724d6f636b3a20726576657274696e6700000000006044820152fd5b6020808252825181830181905290939260005b82811061033a57505060409293506000838284010152601f8019910116010190565b818101860151848201604001528501610318565b604051906040820182811067ffffffffffffffff8211176103815760405260068252650c1e0c4c8ccd60d21b6020830152565b634e487b7160e01b600052604160045260246000fdfea264697066735822122091f9d4f22a36bba2169c2d5ebecb734773e07141d17a97df221e9cc289e818a964736f6c63430008130033",
    "linkReferences": {}
  },
  "methodIdentifiers": {
    "mockFunction()": "3e6fec04",
    "mockFunctionEmptyReturn()": "c292d81c",
    "mockFunctionNonPayable()": "0f63e42c",
    "mockFunctionOutOfGas()": "a793ab47",
    "mockFunctionRevertsNoReason()": "2c81d638",
    "mockFunctionRevertsReason()": "0c034968",
    "mockFunctionThrows()": "3bcfaa14",
    "mockFunctionWithArgs(uint256,uint256)": "fdb27325",
    "mockFunctionWritesStorage(bytes32,bytes32)": "425397a2",
    "mockStaticFunction()": "c8fc7696"
  },
  "id": 57
}