{
  "abi": [
    {
      "inputs": [
        {
          "internalType": "string",
          "name": "baseURI",
          "type": "string"
        }
      ],
      "stateMutability": "nonpayable",
      "type": "constructor"
    },
    {
      "inputs": [],
      "name": "AddressUtils__NotContract",
      "type": "error"
    },
    {
      "inputs": [],
      "name": "ERC165Base__InvalidInterfaceId",
      "type": "error"
    },
    {
      "inputs": [],
      "name": "ERC721Base__BalanceQueryZeroAddress",
      "type": "error"
    },
    {
      "inputs": [],
      "name": "ERC721Base__ERC721ReceiverNotImplemented",
      "type": "error"
    },
    {
      "inputs": [],
      "name": "ERC721Base__InvalidOwner",
      "type": "error"
    },
    {
      "inputs": [],
      "name": "ERC721Base__MintToZeroAddress",
      "type": "error"
    },
    {
      "inputs": [],
      "name": "ERC721Base__NonExistentToken",
      "type": "error"
    },
    {
      "inputs": [],
      "name": "ERC721Base__NotOwnerOrApproved",
      "type": "error"
    },
    {
      "inputs": [],
      "name": "ERC721Base__NotTokenOwner",
      "type": "error"
    },
    {
      "inputs": [],
      "name": "ERC721Base__SelfApproval",
      "type": "error"
    },
    {
      "inputs": [],
      "name": "ERC721Base__TokenAlreadyMinted",
      "type": "error"
    },
    {
      "inputs": [],
      "name": "ERC721Base__TransferToZeroAddress",
      "type": "error"
    },
    {
      "inputs": [],
      "name": "ERC721Metadata__NonExistentToken",
      "type": "error"
    },
    {
      "inputs": [],
      "name": "EnumerableMap__IndexOutOfBounds",
      "type": "error"
    },
    {
      "inputs": [],
      "name": "EnumerableMap__NonExistentKey",
      "type": "error"
    },
    {
      "inputs": [],
      "name": "EnumerableSet__IndexOutOfBounds",
      "type": "error"
    },
    {
      "inputs": [],
      "name": "SolidStateERC721__PayableApproveNotSupported",
      "type": "error"
    },
    {
      "inputs": [],
      "name": "SolidStateERC721__PayableTransferNotSupported",
      "type": "error"
    },
    {
      "anonymous": false,
      "inputs": [
        {
          "indexed": true,
          "internalType": "address",
          "name": "owner",
          "type": "address"
        },
        {
          "indexed": true,
          "internalType": "address",
          "name": "operator",
          "type": "address"
        },
        {
          "indexed": true,
          "internalType": "uint256",
          "name": "tokenId",
          "type": "uint256"
        }
      ],
      "name": "Approval",
      "type": "event"
    },
    {
      "anonymous": false,
      "inputs": [
        {
          "indexed": true,
          "internalType": "address",
          "name": "owner",
          "type": "address"
        },
        {
          "indexed": true,
          "internalType": "address",
          "name": "operator",
          "type": "address"
        },
        {
          "indexed": false,
          "internalType": "bool",
          "name": "approved",
          "type": "bool"
        }
      ],
      "name": "ApprovalForAll",
      "type": "event"
    },
    {
      "anonymous": false,
      "inputs": [
        {
          "indexed": true,
          "internalType": "address",
          "name": "from",
          "type": "address"
        },
        {
          "indexed": true,
          "internalType": "address",
          "name": "to",
          "type": "address"
        },
        {
          "indexed": true,
          "internalType": "uint256",
          "name": "tokenId",
          "type": "uint256"
        }
      ],
      "name": "Transfer",
      "type": "event"
    },
    {
      "inputs": [
        {
          "internalType": "address",
          "name": "operator",
          "type": "address"
        },
        {
          "internalType": "uint256",
          "name": "tokenId",
          "type": "uint256"
        }
      ],
      "name": "approve",
      "outputs": [],
      "stateMutability": "payable",
      "type": "function"
    },
    {
      "inputs": [
        {
          "internalType": "uint256",
          "name": "_tokenId",
          "type": "uint256"
        }
      ],
      "name": "aviationLevels",
      "outputs": [
        {
          "internalType": "uint256",
          "name": "",
          "type": "uint256"
        }
      ],
      "stateMutability": "view",
      "type": "function"
    },
    {
      "inputs": [
        {
          "internalType": "uint256",
          "name": "tokenId",
          "type": "uint256"
        }
      ],
      "name": "aviationLock",
      "outputs": [],
      "stateMutability": "nonpayable",
      "type": "function"
    },
    {
      "inputs": [
        {
          "internalType": "uint256",
          "name": "winnerTokenId",
          "type": "uint256"
        },
        {
          "internalType": "uint256",
          "name": "loserTokenId",
          "type": "uint256"
        }
      ],
      "name": "aviationMovePoints",
      "outputs": [],
      "stateMutability": "nonpayable",
      "type": "function"
    },
    {
      "inputs": [
        {
          "internalType": "uint256",
          "name": "_tokenId",
          "type": "uint256"
        }
      ],
      "name": "aviationPoints",
      "outputs": [
        {
          "internalType": "uint256",
          "name": "",
          "type": "uint256"
        }
      ],
      "stateMutability": "view",
      "type": "function"
    },
    {
      "inputs": [
        {
          "internalType": "uint256",
          "name": "tokenId",
          "type": "uint256"
        }
      ],
      "name": "aviationUnlock",
      "outputs": [],
      "stateMutability": "nonpayable",
      "type": "function"
    },
    {
      "inputs": [
        {
          "internalType": "address",
          "name": "account",
          "type": "address"
        }
      ],
      "name": "balanceOf",
      "outputs": [
        {
          "internalType": "uint256",
          "name": "",
          "type": "uint256"
        }
      ],
      "stateMutability": "view",
      "type": "function"
    },
    {
      "inputs": [
        {
          "internalType": "uint256",
          "name": "tokenId",
          "type": "uint256"
        }
      ],
      "name": "getApproved",
      "outputs": [
        {
          "internalType": "address",
          "name": "",
          "type": "address"
        }
      ],
      "stateMutability": "view",
      "type": "function"
    },
    {
      "inputs": [
        {
          "internalType": "address",
          "name": "_owner",
          "type": "address"
        },
        {
          "internalType": "address",
          "name": "_operator",
          "type": "address"
        }
      ],
      "name": "isApprovedForAll",
      "outputs": [
        {
          "internalType": "bool",
          "name": "isOperator",
          "type": "bool"
        }
      ],
      "stateMutability": "view",
      "type": "function"
    },
    {
      "inputs": [
        {
          "internalType": "address",
          "name": "spender",
          "type": "address"
        },
        {
          "internalType": "uint256",
          "name": "tokenId",
          "type": "uint256"
        }
      ],
      "name": "isApprovedOrOwner",
      "outputs": [
        {
          "internalType": "bool",
          "name": "",
          "type": "bool"
        }
      ],
      "stateMutability": "view",
      "type": "function"
    },
    {
      "inputs": [
        {
          "internalType": "uint256",
          "name": "",
          "type": "uint256"
        }
      ],
      "name": "isAviationLocked",
      "outputs": [
        {
          "internalType": "bool",
          "name": "",
          "type": "bool"
        }
      ],
      "stateMutability": "view",
      "type": "function"
    },
    {
      "inputs": [
        {
          "internalType": "address",
          "name": "to",
          "type": "address"
        }
      ],
      "name": "mintAviation",
      "outputs": [],
      "stateMutability": "nonpayable",
      "type": "function"
    },
    {
      "inputs": [],
      "name": "name",
      "outputs": [
        {
          "internalType": "string",
          "name": "",
          "type": "string"
        }
      ],
      "stateMutability": "view",
      "type": "function"
    },
    {
      "inputs": [
        {
          "internalType": "uint256",
          "name": "tokenId",
          "type": "uint256"
        }
      ],
      "name": "ownerOf",
      "outputs": [
        {
          "internalType": "address",
          "name": "",
          "type": "address"
        }
      ],
      "stateMutability": "view",
      "type": "function"
    },
    {
      "inputs": [],
      "name": "playTestMint",
      "outputs": [],
      "stateMutability": "nonpayable",
      "type": "function"
    },
    {
      "inputs": [
        {
          "internalType": "address",
          "name": "game",
          "type": "address"
        },
        {
          "internalType": "address",
          "name": "to",
          "type": "address"
        },
        {
          "internalType": "uint256[]",
          "name": "ids",
          "type": "uint256[]"
        },
        {
          "internalType": "uint256[]",
          "name": "amounts",
          "type": "uint256[]"
        }
      ],
      "name": "refundResourcesFromGame",
      "outputs": [],
      "stateMutability": "nonpayable",
      "type": "function"
    },
    {
      "inputs": [
        {
          "internalType": "string",
          "name": "metadataURI",
          "type": "string"
        }
      ],
      "name": "registerMetadataURI",
      "outputs": [],
      "stateMutability": "nonpayable",
      "type": "function"
    },
    {
      "inputs": [
        {
          "internalType": "address",
          "name": "pilotAddress",
          "type": "address"
        },
        {
          "internalType": "string",
          "name": "pilotCollectionName",
          "type": "string"
        },
        {
          "internalType": "string",
          "name": "baseUrl",
          "type": "string"
        }
      ],
      "name": "registerPilotAddress",
      "outputs": [],
      "stateMutability": "nonpayable",
      "type": "function"
    },
    {
      "inputs": [
        {
          "internalType": "address",
          "name": "from",
          "type": "address"
        },
        {
          "internalType": "address",
          "name": "game",
          "type": "address"
        },
        {
          "internalType": "uint256[]",
          "name": "ids",
          "type": "uint256[]"
        },
        {
          "internalType": "uint256[]",
          "name": "amounts",
          "type": "uint256[]"
        }
      ],
      "name": "requestResourcesForGame",
      "outputs": [],
      "stateMutability": "nonpayable",
      "type": "function"
    },
    {
      "inputs": [
        {
          "internalType": "address",
          "name": "from",
          "type": "address"
        },
        {
          "internalType": "address",
          "name": "to",
          "type": "address"
        },
        {
          "internalType": "uint256",
          "name": "tokenId",
          "type": "uint256"
        }
      ],
      "name": "safeTransferFrom",
      "outputs": [],
      "stateMutability": "payable",
      "type": "function"
    },
    {
      "inputs": [
        {
          "internalType": "address",
          "name": "from",
          "type": "address"
        },
        {
          "internalType": "address",
          "name": "to",
          "type": "address"
        },
        {
          "internalType": "uint256",
          "name": "tokenId",
          "type": "uint256"
        },
        {
          "internalType": "bytes",
          "name": "data",
          "type": "bytes"
        }
      ],
      "name": "safeTransferFrom",
      "outputs": [],
      "stateMutability": "payable",
      "type": "function"
    },
    {
      "inputs": [
        {
          "internalType": "address",
          "name": "operator",
          "type": "address"
        },
        {
          "internalType": "bool",
          "name": "status",
          "type": "bool"
        }
      ],
      "name": "setApprovalForAll",
      "outputs": [],
      "stateMutability": "nonpayable",
      "type": "function"
    },
    {
      "inputs": [
        {
          "internalType": "bool",
          "name": "_mintable",
          "type": "bool"
        }
      ],
      "name": "setMintable",
      "outputs": [],
      "stateMutability": "nonpayable",
      "type": "function"
    },
    {
      "inputs": [
        {
          "internalType": "bytes4",
          "name": "interfaceId",
          "type": "bytes4"
        }
      ],
      "name": "supportsInterface",
      "outputs": [
        {
          "internalType": "bool",
          "name": "",
          "type": "bool"
        }
      ],
      "stateMutability": "view",
      "type": "function"
    },
    {
      "inputs": [],
      "name": "symbol",
      "outputs": [
        {
          "internalType": "string",
          "name": "",
          "type": "string"
        }
      ],
      "stateMutability": "view",
      "type": "function"
    },
    {
      "inputs": [
        {
          "internalType": "uint256",
          "name": "index",
          "type": "uint256"
        }
      ],
      "name": "tokenByIndex",
      "outputs": [
        {
          "internalType": "uint256",
          "name": "",
          "type": "uint256"
        }
      ],
      "stateMutability": "view",
      "type": "function"
    },
    {
      "inputs": [
        {
          "internalType": "address",
          "name": "owner",
          "type": "address"
        },
        {
          "internalType": "uint256",
          "name": "index",
          "type": "uint256"
        }
      ],
      "name": "tokenOfOwnerByIndex",
      "outputs": [
        {
          "internalType": "uint256",
          "name": "",
          "type": "uint256"
        }
      ],
      "stateMutability": "view",
      "type": "function"
    },
    {
      "inputs": [
        {
          "internalType": "uint256",
          "name": "tokenId",
          "type": "uint256"
        }
      ],
      "name": "tokenURI",
      "outputs": [
        {
          "internalType": "string",
          "name": "",
          "type": "string"
        }
      ],
      "stateMutability": "view",
      "type": "function"
    },
    {
      "inputs": [],
      "name": "totalSupply",
      "outputs": [
        {
          "internalType": "uint256",
          "name": "",
          "type": "uint256"
        }
      ],
      "stateMutability": "view",
      "type": "function"
    },
    {
      "inputs": [
        {
          "internalType": "address",
          "name": "from",
          "type": "address"
        },
        {
          "internalType": "address",
          "name": "to",
          "type": "address"
        },
        {
          "internalType": "uint256",
          "name": "tokenId",
          "type": "uint256"
        }
      ],
      "name": "transferFrom",
      "outputs": [],
      "stateMutability": "payable",
      "type": "function"
    }
  ],
  "bytecode": {
    "object": "0x6080604052346200056b576200376c803803806200001d8162000590565b928339810190602080828403126200056b5781516001600160401b03928382116200056b5701601f928484830112156200056b5781518181116200039e57601f1992620000708287018516860162000590565b968288528583830101116200056b57849060005b83811062000556575050600091870101526200009f62000570565b93601185527013595c98dd5c9e55195cdd119b1a59da1d607a1b84860152620000c762000570565b601281527114d2d653105097d51154d517d1931251d21560721b8582015285518381116200039e577f99574a7094154bb123ae6ae102096f0bf9679b85a5cd1e727aaa0ae5f132e6b19081546001988982811c921680156200054b575b898310146200037d578186849311620004f5575b508890868311600114620004915760009262000485575b5050600019600383901b1c191690881b1790555b80518381116200039e577f99574a7094154bb123ae6ae102096f0bf9679b85a5cd1e727aaa0ae5f132e6b2918254908882811c921680156200047a575b888310146200037d57818584931162000424575b508790858311600114620003c057600092620003b4575b5050600019600383901b1c191690871b1790555b85519182116200039e577f99574a7094154bb123ae6ae102096f0bf9679b85a5cd1e727aaa0ae5f132e6b39283548681811c9116801562000393575b868210146200037d5782811162000332575b5084918311600114620002bd575081906000805160206200374c8339815191529596600092620002b1575b5050600019600383901b1c191690851b1790555b6301ffc9a760e01b6000525260406000209060ff199181838254161790556380ac58cd60e01b6000526040600020918254161790556040516131959081620005b78239f35b01519050388062000258565b82169583600052846000209660005b8181106200031c575091869791846000805160206200374c8339815191529895941062000302575b505050811b0190556200026c565b015160001960f88460031b161c19169055388080620002f4565b83830151895597870197928601928601620002cc565b84600052856000208380860160051c82019288871062000373575b0160051c019087905b828110620003665750506200022d565b6000815501879062000356565b925081926200034d565b634e487b7160e01b600052602260045260246000fd5b90607f16906200021b565b634e487b7160e01b600052604160045260246000fd5b015190503880620001cb565b90878a94169185600052896000209260005b8b8282106200040d5750508411620003f3575b505050811b019055620001df565b015160001960f88460031b161c19169055388080620003e5565b8385015186558d97909501949384019301620003d2565b90915083600052876000208580850160051c8201928a861062000470575b918b91869594930160051c01915b82811062000460575050620001b4565b600081558594508b910162000450565b9250819262000442565b91607f1691620001a0565b0151905038806200014f565b90888b941691856000528a6000209260005b8c828210620004de5750508411620004c4575b505050811b01905562000163565b015160001960f88460031b161c19169055388080620004b6565b8385015186558e97909501949384019301620004a3565b90915083600052886000208680850160051c8201928b861062000541575b918c91869594930160051c01915b8281106200053157505062000138565b600081558594508c910162000521565b9250819262000513565b91607f169162000124565b81810183015189820184015286920162000084565b600080fd5b60408051919082016001600160401b038111838210176200039e57604052565b6040519190601f01601f191682016001600160401b038111838210176200039e5760405256fe6080604052600436101561001257600080fd5b60003560e01c806301ffc9a7146101ed57806306fdde03146101e8578063081812fc146101e3578063095ea7b3146101de57806318160ddd146101d95780631c2d79c7146101d457806323b872dd146101cf57806326332402146101ca578063285d70d4146101c55780632f10dfda146101c05780632f745c59146101bb57806342842e0e146101b6578063430c2081146101b157806349ad6782146101ac5780634f6ccce7146101a75780636352211e146101a257806370a082311461019d57806395d89b4114610198578063a22cb46514610193578063b5de30b41461017a578063b88d4fde1461018e578063bf07b68f14610189578063c87b56dd14610184578063ce9e3cd81461017f578063d83a19e01461017a578063dd7a2e8514610175578063de82209a14610170578063e985e9c51461016b578063f6573d7b146101665763fdffdd3b1461016657600080fd5b6114d3565b611440565b611277565b611208565b610ad3565b6110d0565b610e81565b610ca2565b610c2c565b610a50565b610988565b610965565b610947565b6108f5565b6108aa565b610879565b610856565b610827565b610786565b61072c565b6106d7565b61069c565b610580565b610555565b610437565b6103db565b6102d2565b610209565b6001600160e01b031981160361020457565b600080fd5b3461020457602036600319011261020457600435610226816101f2565b63ffffffff60e01b166000527ffc606c433378e3a7e0a6a531deac289b66caa1b4aa8554fd4ab2c6f1570f92d8602052602060ff604060002054166040519015158152f35b600091031261020457565b60005b8381106102895750506000910152565b8181015183820152602001610279565b906020916102b281518092818552858086019101610276565b601f01601f1916010190565b9060206102cf928181520190610299565b90565b34610204576000806003193601126103d85760405190807f99574a7094154bb123ae6ae102096f0bf9679b85a5cd1e727aaa0ae5f132e6b19081549061031782611de7565b808652926001928084169081156103ab5750600114610351575b61034d8661034181880382610bb7565b604051918291826102be565b0390f35b815292507f9da0b376ea5eac987e00ddf645ea1acba63ab64b37f9d745b363c22385ad39cb5b8284106103935750505081016020016103418261034d38610331565b80546020858701810191909152909301928101610377565b905086955061034d9693506020925061034194915060ff191682840152151560051b820101929338610331565b80fd5b346102045760203660031901126102045760206103f9600435612804565b6040516001600160a01b039091168152f35b600435906001600160a01b038216820361020457565b602435906001600160a01b038216820361020457565b60403660031901126102045761044b61040b565b6024359061045834612e08565b61046182612735565b6001600160a01b03808316929082169183831461054357823314159081610505575b506104f3576104cc906104ad856000526000805160206130e0833981519152602052604060002090565b80546001600160a01b0319166001600160a01b03909216919091179055565b7f8c5be1e5ebec7d5bd14f71427d1e84f3dd0314c0f7b2291e5b200ac8c7c3b925600080a4005b604051632f5de44f60e01b8152600490fd5b61053d91506105326105399161051b3391611a35565b9060018060a01b0316600052602052604060002090565b5460ff1690565b1590565b38610483565b60405163424a22cb60e01b8152600490fd5b3461020457600036600319011261020457602060008051602061310083398151915254604051908152f35b346102045760203660031901126102045761059961040b565b60ff7f3b36e3c23f7226ff6a8560b4f003b6456caa037dff1f2961b3deb261d5af6a5b5416156106225760008051602061310083398151915254906001820180921161061d57816105e9916128b5565b6000527f3b36e3c23f7226ff6a8560b4f003b6456caa037dff1f2961b3deb261d5af6a5e6020526001604060002055600080f35b611548565b60405162461bcd60e51b815260206004820152601a60248201527f4d657263757279426173653a204d696e74206e6f74206f70656e0000000000006044820152606490fd5b6060906003190112610204576001600160a01b0390600435828116810361020457916024359081168103610204579060443590565b6106a536610667565b90346106c5576106b5823361284c565b156104f3576106c392612c73565b005b6040516322b1813960e01b8152600490fd5b34610204576020366003190112610204576004356000527f3b36e3c23f7226ff6a8560b4f003b6456caa037dff1f2961b3deb261d5af6a5f6020526020604060002054604051908152f35b8015150361020457565b346102045760203660031901126102045760043561074981610722565b610751612541565b7f3b36e3c23f7226ff6a8560b4f003b6456caa037dff1f2961b3deb261d5af6a5b9060ff801983541691151516179055600080f35b3461020457602036600319011261020457600080516020613140833981519152546040516352897beb60e01b815233600482015290602090829060249082906001600160a01b03165afa8015610822576107e8916000916107f4575b50611702565b60405160008152602090f35b610815915060203d811161081b575b61080d8183610bb7565b8101906116ed565b386107e2565b503d610803565b6116bf565b3461020457604036600319011261020457602061084e61084561040b565b60243590612f69565b604051908152f35b6106c361086236610667565b906040519261087084610b7f565b60008452612ddd565b346102045760403660031901126102045760206108a061089761040b565b6024359061284c565b6040519015158152f35b34610204576020366003190112610204576004356000527f3b36e3c23f7226ff6a8560b4f003b6456caa037dff1f2961b3deb261d5af6a5e6020526020604060002054604051908152f35b3461020457602036600319011261020457600435600080516020613100833981519152548110156109355761092b60209161279e565b5054604051908152f35b60405163022fd82760e31b8152600490fd5b346102045760203660031901126102045760206103f9600435612735565b3461020457602036600319011261020457602061084e61098361040b565b612707565b34610204576000806003193601126103d85760405190807f99574a7094154bb123ae6ae102096f0bf9679b85a5cd1e727aaa0ae5f132e6b2908154906109cd82611de7565b808652926001928084169081156103ab57506001146109f65761034d8661034181880382610bb7565b815292507f4d5a81d91ab5d0eb928391f3fb432d708f1a8a13471720d8e842441f4faa79d65b828410610a385750505081016020016103418261034d38610331565b80546020858701810191909152909301928101610a1c565b3461020457604036600319011261020457610a6961040b565b602435610a7581610722565b6001600160a01b0382169133831461054357610a949061051b33611a35565b9015159060ff1981541660ff83161790556040519081527f17307eab39ab6107e8899845ad3d59bd9653f200f220920489ca2b5937696c3160203392a3005b3461020457602036600319011261020457600080516020613140833981519152546040516352897beb60e01b815233600482015290602090829060249082906001600160a01b03165afa8015610822576106c3916000916107f45750611702565b634e487b7160e01b600052604160045260246000fd5b67ffffffffffffffff8111610b5e57604052565b610b34565b6040810190811067ffffffffffffffff821117610b5e57604052565b6020810190811067ffffffffffffffff821117610b5e57604052565b6060810190811067ffffffffffffffff821117610b5e57604052565b90601f8019910116810190811067ffffffffffffffff821117610b5e57604052565b67ffffffffffffffff8111610b5e57601f01601f191660200190565b929192610c0182610bd9565b91610c0f6040519384610bb7565b829481845281830111610204578281602093846000960137010152565b608036600319011261020457610c4061040b565b610c48610421565b6064359167ffffffffffffffff8311610204573660238401121561020457610c7d6106c3933690602481600401359101610bf5565b9160443591612ddd565b9080601f83011215610204578160206102cf93359101610bf5565b3461020457606036600319011261020457610cbb61040b565b67ffffffffffffffff60243581811161020457610cdc903690600401610c87565b9160443582811161020457610cf5903690600401610c87565b91610cfe612541565b6001600160a01b03821660009081527f3b36e3c23f7226ff6a8560b4f003b6456caa037dff1f2961b3deb261d5af6a6460205260409020908451908111610b5e57610d5381610d4d8454611de7565b84611ea6565b602080601f8311600114610dd557509080610dc59493926106c397600092610dca575b5050600019600383901b1c191660019190911b1790556001600160a01b031660009081527f3b36e3c23f7226ff6a8560b4f003b6456caa037dff1f2961b3deb261d5af6a656020526040902090565b611ee0565b015190503880610d76565b90601f19831696610deb85600052602060002090565b926000905b898210610e69575050918391600193610dc59796956106c39a10610e50575b505050811b0190556001600160a01b031660009081527f3b36e3c23f7226ff6a8560b4f003b6456caa037dff1f2961b3deb261d5af6a656020526040902090565b015160001960f88460031b161c19169055388080610e0f565b80600185968294968601518155019501930190610df0565b346102045760203660031901126102045761034d610341600435610eac610ea7826127e4565b611fa9565b610eb4612018565b90610ebd612038565b610f00610ef3836000527f3b36e3c23f7226ff6a8560b4f003b6456caa037dff1f2961b3deb261d5af6a62602052604060002090565b546001600160a01b031690565b6001600160a01b038116610f69575b5090610f64610f4092610f56610f46610f30610f2a86611595565b546125c4565b6040519687946020860190612187565b90612187565b632e73766760e01b815260040190565b03601f198101845283610bb7565b61219e565b925050610f4090610f64610f406110c8611006611063610fba8860018060a01b03166000527f3b36e3c23f7226ff6a8560b4f003b6456caa037dff1f2961b3deb261d5af6a64602052604060002090565b611014610ff3610f2a896000527f3b36e3c23f7226ff6a8560b4f003b6456caa037dff1f2961b3deb261d5af6a61602052604060002090565b610f406040519586946020860190612104565b61202360f01b815260020190565b0391611028601f1993848101835282610bb7565b6001600160a01b0390981660009081527f3b36e3c23f7226ff6a8560b4f003b6456caa037dff1f2961b3deb261d5af6a656020526040902090565b6110bc6110af61109f610f2a896000527f3b36e3c23f7226ff6a8560b4f003b6456caa037dff1f2961b3deb261d5af6a61602052604060002090565b6040519687946020860190612104565b602f60f81b815260010190565b03908101835282610bb7565b919250610f0f565b34610204576020806003193601126102045767ffffffffffffffff9060043582811161020457611104903690600401610c87565b9161110d612541565b8251908111610b5e576000805160206130c083398151915291611139826111348554611de7565b611e38565b80601f83116001146111745750819293600092611169575b5050600019600383901b1c191660019190911b179055005b015190503880611151565b90601f198316946111b46000805160206130c08339815191526000527f01cd02c8487a919a79d7c5850dcad891324a59b5d8cc91182f4234a53929340990565b926000905b8782106111f05750508360019596106111d7575b505050811b019055005b015160001960f88460031b161c191690553880806111cd565b806001859682949686015181550195019301906111b9565b3461020457604036600319011261020457600080516020613140833981519152546040516352897beb60e01b815233600482015290602090829060249082906001600160a01b03165afa801561082257611269916000916107f45750611702565b6106c36024356004356118b6565b34610204576000806003193601126103d85761130b6113006112a76000805160206131008339815191525461155e565b6112b181336128b5565b6112f46112e7826000527f3b36e3c23f7226ff6a8560b4f003b6456caa037dff1f2961b3deb261d5af6a60602052604060002090565b805460ff19166001179055565b61130661130082611595565b60019055565b6115c4565b6113136115f3565b8161131d82611624565b52600161132982611636565b526113326115f3565b906161a88061134084611624565b5261134a83611636565b526000805160206131408339815191528054909284916001600160a01b03919061137d9083165b6001600160a01b031690565b90813b1561143c5783916113a991604051958680948193630fbfeffd60e11b83528a336004850161167a565b03925af19081156108225785946113d29361137193611429575b5054166001600160a01b031690565b90813b156114255782916113fd916040519485809481936305a6b6b360e51b835233600484016116cb565b03925af180156108225761140f575080f35b8061141c61142292610b4a565b8061026b565b80f35b5050fd5b8061141c61143692610b4a565b386113c3565b8380fd5b346102045760403660031901126102045760206108a061145e61040b565b611466610421565b90611779565b9080601f830112156102045781359067ffffffffffffffff8211610b5e578160051b604051936020936114a185840187610bb7565b85528380860192820101928311610204578301905b8282106114c4575050505090565b813581529083019083016114b6565b34610204576080366003190112610204576001600160a01b0360043581811681036102045760243591821682036102045767ffffffffffffffff916044358381116102045761152690369060040161146c565b90606435938411610204576115426106c394369060040161146c565b92611ca9565b634e487b7160e01b600052601160045260246000fd5b906001820180921161061d57565b906002820180921161061d57565b906020820180921161061d57565b9190820180921161061d57565b6000527f3b36e3c23f7226ff6a8560b4f003b6456caa037dff1f2961b3deb261d5af6a5e602052604060002090565b6000527f3b36e3c23f7226ff6a8560b4f003b6456caa037dff1f2961b3deb261d5af6a5f602052604060002090565b6040519061160082610b9b565b600282526040366020840137565b634e487b7160e01b600052603260045260246000fd5b8051156116315760200190565b61160e565b8051600110156116315760400190565b90815180825260208080930193019160005b828110611666575050505090565b835185529381019392810192600101611658565b91926116a06020946116ae9360018060a01b031685526080868601526080850190611646565b908382036040850152611646565b906060818303910152600081520190565b6040513d6000823e3d90fd5b6001600160a01b0390911681526040602082018190526102cf92910190611646565b9081602091031261020457516102cf81610722565b1561170957565b60405162461bcd60e51b815260206004820152603360248201527f4d657263757279426173653a206d73672e73656e646572206973206e6f7420616044820152722076616c69642067616d65206164647265737360681b6064820152608490fd5b600019811461061d5760010190565b600090815b61178782612707565b8110156117e75760ff6117cc61179d8385612f69565b6000527f3b36e3c23f7226ff6a8560b4f003b6456caa037dff1f2961b3deb261d5af6a60602052604060002090565b54166117e0576117db9061176a565b61177e565b5050905090565b5090506001600160a01b03828116907358807bad0b376efc12f5ad86aac70e78ed67deae8214611854577fc8fcad8db84d3cc18b4c41d551ea0ee66dd599cde068d998e57d5e09332c132054161461184d5760ff9161051b61184892611a35565b541690565b5050600190565b50505050600190565b1561186457565b60405162461bcd60e51b815260206004820152601e60248201527f4d657263757279426173653a206e6f6e6578697374656e7420746f6b656e00006044820152606490fd5b9190820391821161061d57565b611948906118cb6118c6826127e4565b61185d565b6118d76118c6846127e4565b6118e0816115c4565b546118fc6118f66118f0866115c4565b5461155e565b60011c90565b11611989576119106118f66118f0856115c4565b611919826115c4565b611924828254611588565b905561192f846115c4565b54811061196e57506000611942846115c4565b55611998565b61195181611998565b61195a816115c4565b54156119635750565b61196c90611aa7565b565b61198261197a856115c4565b9182546118a9565b9055611998565b611992816115c4565b54611910565b60005b60108111156119de575060208160106119d47f1b9c4b6f325882062024aaca6e75c86d61b0a66ea22e1e4ae0803c5005aa409794611595565b55604051908152a1565b60ff811161061d576119ef826115c4565b546001821b11611a0757611a029061176a565b61199b565b816020916119d47f1b9c4b6f325882062024aaca6e75c86d61b0a66ea22e1e4ae0803c5005aa409794611595565b6001600160a01b031660009081527f3c7bf052874fa81625121783266a03507bd2cd48b16e571c01a04e8dd3fb07aa6020526040902090565b6001600160a01b031660009081527f3c7bf052874fa81625121783266a03507bd2cd48b16e571c01a04e8dd3fb07a86020526040902090565b611c51611ab382612735565b9180600080948282527f99574a7094154bb123ae6ae102096f0bf9679b85a5cd1e727aaa0ae5f132e6b46020528160408120611aef8154611de7565b80611c54575b505050611b0a83611b0583611a6e565b612bd6565b50611b1483612b11565b50611b49611b39846000526000805160206130e0833981519152602052604060002090565b80546001600160a01b0319169055565b6001600160a01b03168282827f8c5be1e5ebec7d5bd14f71427d1e84f3dd0314c0f7b2291e5b200ac8c7c3b9258280a47fddf252ad1be2c89b69c2b068fc378daa952ba7f163c4a11628f55a4df523b3ef8280a4611c42611c12611bd9610ef3846000527f3b36e3c23f7226ff6a8560b4f003b6456caa037dff1f2961b3deb261d5af6a62602052604060002090565b6001600160a01b031660009081527f3b36e3c23f7226ff6a8560b4f003b6456caa037dff1f2961b3deb261d5af6a636020526040902090565b916000527f3b36e3c23f7226ff6a8560b4f003b6456caa037dff1f2961b3deb261d5af6a61602052604060002090565b54600052602052604060002090565b55565b601f8111600114611c6a5750555b813880611af5565b611ca49250611c94906001601f611c8685600052602060002090565b920160051c82019101611e21565b6000908082528160208120915555565b611c62565b60008051602061314083398151915280546040516352897beb60e01b8152336004820152949593946001600160a01b0391821690602081602481855afa801561082257611cfd916000916107f45750611702565b803b1561020457846000918883611d2b9760405198899586948593633db0f8ab60e01b855260048501611d9b565b03925af191821561082257611d519361137193611429575054166001600160a01b031690565b803b1561020457611d7d936000809460405196879586948593630fbfeffd60e11b85526004850161167a565b03925af1801561082257611d8e5750565b8061141c61196c92610b4a565b6001600160a01b0390911681526060602082018190526102cf939192611dc391840190611646565b916040818403910152611646565b634e487b7160e01b600052600060045260246000fd5b90600182811c92168015611e17575b6020831014611e0157565b634e487b7160e01b600052602260045260246000fd5b91607f1691611df6565b818110611e2c575050565b60008155600101611e21565b90601f8211611e45575050565b61196c916000805160206130c08339815191526000527f01cd02c8487a919a79d7c5850dcad891324a59b5d8cc91182f4234a539293409906020601f840160051c83019310611e9c575b601f0160051c0190611e21565b9091508190611e8f565b9190601f8111611eb557505050565b61196c926000526020600020906020601f840160051c83019310611e9c57601f0160051c0190611e21565b919091825167ffffffffffffffff8111610b5e57611f0281610d4d8454611de7565b602080601f8311600114611f3e575081929394600092611f33575b50508160011b916000199060031b1c1916179055565b015190503880611f1d565b90601f19831695611f5485600052602060002090565b926000905b888210611f9157505083600195969710611f78575b505050811b019055565b015160001960f88460031b161c19169055388080611f6e565b80600185968294968601518155019501930190611f59565b15611fb057565b60405162461bcd60e51b815260206004820152602760248201527f4552433732313a2055524920717565727920666f72206e6f6e6578697374656e6044820152663a103a37b5b2b760c91b6064820152608490fd5b6040519061201282610b7f565b60008252565b6040519061202582610b63565b60048252634e6f6e6560e01b6020830152565b604051906000826000805160206130c083398151915291825461205a81611de7565b808452936001918083169081156120e05750600114612082575b505061196c92500383610bb7565b600090815291507f01cd02c8487a919a79d7c5850dcad891324a59b5d8cc91182f4234a5392934095b8483106120c5575061196c93505081016020013880612074565b81935090816020925483858a010152019101909185926120ab565b9150506020925061196c94915060ff191682840152151560051b8201013880612074565b60009291815461211381611de7565b9260019180831690811561216c5750600114612130575b50505050565b90919293945060005260209081600020906000915b85831061215b575050505001903880808061212a565b805485840152918301918101612145565b60ff191684525050508115159091020191503880808061212a565b9061219a60209282815194859201610276565b0190565b90916121a9826125c4565b916121b381611595565b546121bd906125c4565b906121c7906115c4565b546121d1906125c4565b6040516a7b226e616d65223a20222360a81b6020820152948594919291602b86016121fb91612187565b61088b60f21b8152600201691134b6b0b3b2911d101160b11b8152600a0161222291612187565b61088b60f21b81526002016e2261747472696275746573223a205b60881b8152600f01607b60f81b815260010175089d1c985a5d17dd1e5c19488e880893195d995b088b60521b8152601601680113b30b63ab2911d160bd1b815260090161228991612187565b611f4b60f21b8152600201607b60f81b815260010175089d1c985a5d17dd1e5c19488e8808941bda5b9d088b60521b8152601601680113b30b63ab2911d160bd1b81526009016122d891612187565b611f4b60f21b8152600201607b60f81b815260010175089d1c985a5d17dd1e5c19488e8808941a5b1bdd088b60521b815260160169113b30b63ab2911d101160b11b8152600a0161232891612187565b601160f91b8152600101607d60f81b8152600101615d7d60f01b81526002010390601f1991828101825261235c9082610bb7565b61236590612458565b6040517f646174613a6170706c69636174696f6e2f6a736f6e3b6261736536342c000000602082015291908290603d820161239f91612187565b0390810182526102cf9082610bb7565b604051906123bc82610b9b565b604082527f6768696a6b6c6d6e6f707172737475767778797a303132333435363738392b2f6040837f4142434445464748494a4b4c4d4e4f505152535455565758595a61626364656660208201520152565b600281901b91906001600160fe1b0381160361061d57565b9061243082610bd9565b61243d6040519182610bb7565b828152809261244e601f1991610bd9565b0190602036910137565b805115612538576124676123af565b61248361247e612477845161156c565b6003900490565b61240e565b916124956124908461157a565b612426565b92835280815182019060208501935b8282106124e6575050506003905106806001146124d5576002146124c6575090565b603d60f81b6000199091015290565b50613d3d60f01b6001199091015290565b9091936004906003809401938451600190603f9082828260121c16880101518553828282600c1c16880101518386015382828260061c16880101516002860153168501015190820153019391906124a4565b506102cf612005565b7fc8fcad8db84d3cc18b4c41d551ea0ee66dd599cde068d998e57d5e09332c1320546001600160a01b0316330361257457565b60405162461bcd60e51b815260206004820152602260248201527f4c69624469616d6f6e643a204d75737420626520636f6e7472616374206f776e60448201526132b960f11b6064820152608490fd5b806000917a184f03e93ff9f4daa797ed6e38ed64bf6a1f010000000000000000808210156126f9575b506d04ee2d6d415b85acef8100000000808310156126ea575b50662386f26fc10000808310156126db575b506305f5e100808310156126cc575b50612710808310156126bd575b5060648210156126ad575b600a809210156126a3575b60019081602161265b828701612426565b95860101905b61266d575b5050505090565b600019019083906f181899199a1a9b1b9c1cb0b131b232b360811b8282061a83530491821561269e57919082612661565b612666565b916001019161264a565b919060646002910491019161263f565b60049193920491019138612634565b60089193920491019138612627565b60109193920491019138612618565b60209193920491019138612606565b6040935081049150386125ed565b6001600160a01b038116156127235761271f90611a6e565b5490565b604051630810ff9760e41b8152600490fd5b600052600080516020613120833981519152602052604060002054801561278c57612763906000190161279e565b50600101546001600160a01b0316801561277a5790565b604051637e1a7d8b60e01b8152600490fd5b604051633d547ec560e21b8152600490fd5b60008051602061310083398151915280548210156116315760005260011b7f709a16c9caeafb61409212be896356f281c91d5c5b5cccb959477d20bb6240fb0190600090565b600052600080516020613120833981519152602052604060002054151590565b61280d816127e4565b1561283a5760009081526000805160206130e083398151915260205260409020546001600160a01b031690565b60405163c1b843ef60e01b8152600490fd5b612855826127e4565b1561283a5761286382612735565b6001600160a01b03828116828216811494909190851561289d575b505050821561288c57505090565b60ff92509061051b61184892611a35565b6128aa9192939550612804565b16149138808061287e565b90604051906128c382610b7f565b600082526001600160a01b03831692831561295e576128e1826127e4565b61294c5781612933946128fc826128f785611a6e565b612a4b565b506129078183612970565b5060007fddf252ad1be2c89b69c2b068fc378daa952ba7f163c4a11628f55a4df523b3ef8180a4612e89565b1561293a57565b604051639ff10cdd60e01b8152600490fd5b604051630d86bb7b60e31b8152600490fd5b6040516311f2988d60e11b8152600490fd5b90816000526000805160206131208339815191526020526040600020548015600014612a1957506040516129a381610b63565b82815260208101918252600080516020613100833981519152908154600160401b811015610b5e578060016129da9201845561279e565b919091612a1457612a0e93600191518355519101555491600052600080516020613120833981519152602052604060002090565b55600190565b611dd1565b6001919250612a2b906000190161279e565b500155600090565b80548210156116315760005260206000200190600090565b91906000926001810190826000528160205260406000205415612a6d57505050565b80919293945054600160401b811015610b5e57612aab612a94826001879401855584612a33565b819391549060031b91821b91600019901b19161790565b90555491600052602052604060002055600190565b634e487b7160e01b600052603160045260246000fd5b60008051602061310083398151915280548015612b0c576000190190612afb8261279e565b612a14576001816000809355015555565b612ac0565b60008181526000805160206131208339815191526020526040902054908115612bcf5760001990612b5e612b5583600080516020613100833981519152540161279e565b5092840161279e565b939093612a1457612b968385612a0e9560009703612bbc575b5054600052600080516020613120833981519152602052604060002090565b55612b9f612ad6565b600052600080516020613120833981519152602052604060002090565b8154815560018083015491015538612b77565b5050600090565b919060009260009160018201918184528260205260408420549081612bfd575b5050505050565b9091929394955060001991612c158383540183612a33565b90549060031b1c80612c2c612a9486850186612a33565b9055865284602052604086205580548015612b0c57820191612c4e8383612a33565b909182549160031b1b1916905555825260205260408120556001903880808080612bf6565b6000908382527f3b36e3c23f7226ff6a8560b4f003b6456caa037dff1f2961b3deb261d5af6a6060205260ff604083205416612d9857612cb284612735565b6001600160a01b03828116939181169290848403612d86578516948515612d74577fddf252ad1be2c89b69c2b068fc378daa952ba7f163c4a11628f55a4df523b3ef93612d1c886128f784612d1683611b058199612d11838d9b612fa1565b611a6e565b50611a6e565b50612d278784612970565b50612d4c611b39846000526000805160206130e0833981519152602052604060002090565b7f8c5be1e5ebec7d5bd14f71427d1e84f3dd0314c0f7b2291e5b200ac8c7c3b9258280a480a4565b6040516340311a0960e01b8152600490fd5b604051630f2db4ad60e01b8152600490fd5b60405162461bcd60e51b815260206004820152601c60248201527f4d657263757279426173653a20746f6b656e206973206c6f636b6564000000006044820152606490fd5b929190346106c557612def823361284c565b156104f35783612e03838361293397612c73565b612f19565b612e0e57565b60405163b56d7c1b60e01b8152600490fd5b60405190612e2d82610b9b565b603282527131b2b4bb32b91034b6b83632b6b2b73a32b960711b6040837f4552433732313a207472616e7366657220746f206e6f6e20455243373231526560208201520152565b9081602091031261020457516102cf816101f2565b919091803b15612f1157612ed5612ee3612ef193604051928391630a85bd0160e11b978860208501523360248501526000604485015260648401526080608484015260a4830190610299565b03601f198101835282610bb7565b612eeb612e20565b91613026565b612f0c63ffffffff60e01b9160208082518301019101612e74565b161490565b505050600190565b92813b1561185457612ee3612ef193612ed5604051938492630a85bd0160e11b9889602086015233602486015260018060a01b0316604485015260648401526080608484015260a4830190610299565b612f7290611a6e565b908154811015612f8f57612f8591612a33565b90549060031b1c90565b60405163e637bf3b60e01b8152600490fd5b6001600160a01b031615612fb25750565b60009081527f99574a7094154bb123ae6ae102096f0bf9679b85a5cd1e727aaa0ae5f132e6b460205260408120612fe98154611de7565b80612ff357505050565b82601f821160011461300457505055565b9091808252613022601f60208420940160051c840160018501611e21565b5555565b9190606092803b156130ad5781600092918360208194519301915af1913d156130a757503d9161305583610bd9565b926130636040519485610bb7565b83523d6000602085013e5b15613077575090565b8151156130875750805190602001fd5b60405162461bcd60e51b81529081906130a390600483016102be565b0390fd5b9161306e565b604051632270d6bf60e21b8152600490fdfe3b36e3c23f7226ff6a8560b4f003b6456caa037dff1f2961b3deb261d5af6a5c3c7bf052874fa81625121783266a03507bd2cd48b16e571c01a04e8dd3fb07a93c7bf052874fa81625121783266a03507bd2cd48b16e571c01a04e8dd3fb07a63c7bf052874fa81625121783266a03507bd2cd48b16e571c01a04e8dd3fb07a73b36e3c23f7226ff6a8560b4f003b6456caa037dff1f2961b3deb261d5af6a5da2646970667358221220df1c19f070fefe7341480054c1932640205b8e550a0800d8d2941a4197b337f064736f6c63430008130033fc606c433378e3a7e0a6a531deac289b66caa1b4aa8554fd4ab2c6f1570f92d8",
    "linkReferences": {}
  },
  "methodIdentifiers": {
    "approve(address,uint256)": "095ea7b3",
    "aviationLevels(uint256)": "49ad6782",
    "aviationLock(uint256)": "d83a19e0",
    "aviationMovePoints(uint256,uint256)": "dd7a2e85",
    "aviationPoints(uint256)": "26332402",
    "aviationUnlock(uint256)": "b5de30b4",
    "balanceOf(address)": "70a08231",
    "getApproved(uint256)": "081812fc",
    "isApprovedForAll(address,address)": "e985e9c5",
    "isApprovedOrOwner(address,uint256)": "430c2081",
    "isAviationLocked(uint256)": "2f10dfda",
    "mintAviation(address)": "1c2d79c7",
    "name()": "06fdde03",
    "ownerOf(uint256)": "6352211e",
    "playTestMint()": "de82209a",
    "refundResourcesFromGame(address,address,uint256[],uint256[])": "fdffdd3b",
    "registerMetadataURI(string)": "ce9e3cd8",
    "registerPilotAddress(address,string,string)": "bf07b68f",
    "requestResourcesForGame(address,address,uint256[],uint256[])": "f6573d7b",
    "safeTransferFrom(address,address,uint256)": "42842e0e",
    "safeTransferFrom(address,address,uint256,bytes)": "b88d4fde",
    "setApprovalForAll(address,bool)": "a22cb465",
    "setMintable(bool)": "285d70d4",
    "supportsInterface(bytes4)": "01ffc9a7",
    "symbol()": "95d89b41",
    "tokenByIndex(uint256)": "4f6ccce7",
    "tokenOfOwnerByIndex(address,uint256)": "2f745c59",
    "tokenURI(uint256)": "c87b56dd",
    "totalSupply()": "18160ddd",
    "transferFrom(address,address,uint256)": "23b872dd"
  },
  "id": 0
}