{
  "abi": [
    {
      "inputs": [
        {
          "internalType": "string",
          "name": "baseURI",
          "type": "string"
        }
      ],
      "stateMutability": "nonpayable",
      "type": "constructor"
    },
    {
      "inputs": [],
      "name": "AddressUtils__NotContract",
      "type": "error"
    },
    {
      "inputs": [],
      "name": "ERC165Base__InvalidInterfaceId",
      "type": "error"
    },
    {
      "inputs": [],
      "name": "ERC721Base__BalanceQueryZeroAddress",
      "type": "error"
    },
    {
      "inputs": [],
      "name": "ERC721Base__ERC721ReceiverNotImplemented",
      "type": "error"
    },
    {
      "inputs": [],
      "name": "ERC721Base__InvalidOwner",
      "type": "error"
    },
    {
      "inputs": [],
      "name": "ERC721Base__MintToZeroAddress",
      "type": "error"
    },
    {
      "inputs": [],
      "name": "ERC721Base__NonExistentToken",
      "type": "error"
    },
    {
      "inputs": [],
      "name": "ERC721Base__NotOwnerOrApproved",
      "type": "error"
    },
    {
      "inputs": [],
      "name": "ERC721Base__NotTokenOwner",
      "type": "error"
    },
    {
      "inputs": [],
      "name": "ERC721Base__SelfApproval",
      "type": "error"
    },
    {
      "inputs": [],
      "name": "ERC721Base__TokenAlreadyMinted",
      "type": "error"
    },
    {
      "inputs": [],
      "name": "ERC721Base__TransferToZeroAddress",
      "type": "error"
    },
    {
      "inputs": [],
      "name": "ERC721Metadata__NonExistentToken",
      "type": "error"
    },
    {
      "inputs": [],
      "name": "EnumerableMap__IndexOutOfBounds",
      "type": "error"
    },
    {
      "inputs": [],
      "name": "EnumerableMap__NonExistentKey",
      "type": "error"
    },
    {
      "inputs": [],
      "name": "EnumerableSet__IndexOutOfBounds",
      "type": "error"
    },
    {
      "inputs": [],
      "name": "SolidStateERC721__PayableApproveNotSupported",
      "type": "error"
    },
    {
      "inputs": [],
      "name": "SolidStateERC721__PayableTransferNotSupported",
      "type": "error"
    },
    {
      "anonymous": false,
      "inputs": [
        {
          "indexed": true,
          "internalType": "address",
          "name": "owner",
          "type": "address"
        },
        {
          "indexed": true,
          "internalType": "address",
          "name": "operator",
          "type": "address"
        },
        {
          "indexed": true,
          "internalType": "uint256",
          "name": "tokenId",
          "type": "uint256"
        }
      ],
      "name": "Approval",
      "type": "event"
    },
    {
      "anonymous": false,
      "inputs": [
        {
          "indexed": true,
          "internalType": "address",
          "name": "owner",
          "type": "address"
        },
        {
          "indexed": true,
          "internalType": "address",
          "name": "operator",
          "type": "address"
        },
        {
          "indexed": false,
          "internalType": "bool",
          "name": "approved",
          "type": "bool"
        }
      ],
      "name": "ApprovalForAll",
      "type": "event"
    },
    {
      "anonymous": false,
      "inputs": [
        {
          "indexed": true,
          "internalType": "address",
          "name": "from",
          "type": "address"
        },
        {
          "indexed": true,
          "internalType": "address",
          "name": "to",
          "type": "address"
        },
        {
          "indexed": true,
          "internalType": "uint256",
          "name": "tokenId",
          "type": "uint256"
        }
      ],
      "name": "Transfer",
      "type": "event"
    },
    {
      "inputs": [
        {
          "internalType": "address",
          "name": "operator",
          "type": "address"
        },
        {
          "internalType": "uint256",
          "name": "tokenId",
          "type": "uint256"
        }
      ],
      "name": "approve",
      "outputs": [],
      "stateMutability": "payable",
      "type": "function"
    },
    {
      "inputs": [
        {
          "internalType": "uint256",
          "name": "_tokenId",
          "type": "uint256"
        }
      ],
      "name": "aviationLevels",
      "outputs": [
        {
          "internalType": "uint256",
          "name": "",
          "type": "uint256"
        }
      ],
      "stateMutability": "view",
      "type": "function"
    },
    {
      "inputs": [
        {
          "internalType": "uint256",
          "name": "tokenId",
          "type": "uint256"
        }
      ],
      "name": "aviationLock",
      "outputs": [],
      "stateMutability": "nonpayable",
      "type": "function"
    },
    {
      "inputs": [
        {
          "internalType": "uint256",
          "name": "winnerTokenId",
          "type": "uint256"
        },
        {
          "internalType": "uint256",
          "name": "loserTokenId",
          "type": "uint256"
        }
      ],
      "name": "aviationMovePoints",
      "outputs": [],
      "stateMutability": "nonpayable",
      "type": "function"
    },
    {
      "inputs": [
        {
          "internalType": "uint256",
          "name": "_tokenId",
          "type": "uint256"
        }
      ],
      "name": "aviationPoints",
      "outputs": [
        {
          "internalType": "uint256",
          "name": "",
          "type": "uint256"
        }
      ],
      "stateMutability": "view",
      "type": "function"
    },
    {
      "inputs": [
        {
          "internalType": "uint256",
          "name": "tokenId",
          "type": "uint256"
        }
      ],
      "name": "aviationUnlock",
      "outputs": [],
      "stateMutability": "nonpayable",
      "type": "function"
    },
    {
      "inputs": [
        {
          "internalType": "address",
          "name": "account",
          "type": "address"
        }
      ],
      "name": "balanceOf",
      "outputs": [
        {
          "internalType": "uint256",
          "name": "",
          "type": "uint256"
        }
      ],
      "stateMutability": "view",
      "type": "function"
    },
    {
      "inputs": [
        {
          "internalType": "uint256",
          "name": "tokenId",
          "type": "uint256"
        }
      ],
      "name": "getApproved",
      "outputs": [
        {
          "internalType": "address",
          "name": "",
          "type": "address"
        }
      ],
      "stateMutability": "view",
      "type": "function"
    },
    {
      "inputs": [
        {
          "internalType": "address",
          "name": "_owner",
          "type": "address"
        },
        {
          "internalType": "address",
          "name": "_operator",
          "type": "address"
        }
      ],
      "name": "isApprovedForAll",
      "outputs": [
        {
          "internalType": "bool",
          "name": "isOperator",
          "type": "bool"
        }
      ],
      "stateMutability": "view",
      "type": "function"
    },
    {
      "inputs": [
        {
          "internalType": "address",
          "name": "spender",
          "type": "address"
        },
        {
          "internalType": "uint256",
          "name": "tokenId",
          "type": "uint256"
        }
      ],
      "name": "isApprovedOrOwner",
      "outputs": [
        {
          "internalType": "bool",
          "name": "",
          "type": "bool"
        }
      ],
      "stateMutability": "view",
      "type": "function"
    },
    {
      "inputs": [
        {
          "internalType": "uint256",
          "name": "",
          "type": "uint256"
        }
      ],
      "name": "isAviationLocked",
      "outputs": [
        {
          "internalType": "bool",
          "name": "",
          "type": "bool"
        }
      ],
      "stateMutability": "view",
      "type": "function"
    },
    {
      "inputs": [],
      "name": "name",
      "outputs": [
        {
          "internalType": "string",
          "name": "",
          "type": "string"
        }
      ],
      "stateMutability": "view",
      "type": "function"
    },
    {
      "inputs": [
        {
          "internalType": "uint256",
          "name": "tokenId",
          "type": "uint256"
        }
      ],
      "name": "ownerOf",
      "outputs": [
        {
          "internalType": "address",
          "name": "",
          "type": "address"
        }
      ],
      "stateMutability": "view",
      "type": "function"
    },
    {
      "inputs": [],
      "name": "playTestMint",
      "outputs": [],
      "stateMutability": "nonpayable",
      "type": "function"
    },
    {
      "inputs": [
        {
          "internalType": "address",
          "name": "game",
          "type": "address"
        },
        {
          "internalType": "address",
          "name": "to",
          "type": "address"
        },
        {
          "internalType": "uint256[]",
          "name": "ids",
          "type": "uint256[]"
        },
        {
          "internalType": "uint256[]",
          "name": "amounts",
          "type": "uint256[]"
        }
      ],
      "name": "refundResourcesFromGame",
      "outputs": [],
      "stateMutability": "nonpayable",
      "type": "function"
    },
    {
      "inputs": [
        {
          "internalType": "string",
          "name": "metadataURI",
          "type": "string"
        }
      ],
      "name": "registerMetadataURI",
      "outputs": [],
      "stateMutability": "nonpayable",
      "type": "function"
    },
    {
      "inputs": [
        {
          "internalType": "address",
          "name": "pilotAddress",
          "type": "address"
        },
        {
          "internalType": "string",
          "name": "pilotCollectionName",
          "type": "string"
        },
        {
          "internalType": "string",
          "name": "baseUrl",
          "type": "string"
        }
      ],
      "name": "registerPilotAddress",
      "outputs": [],
      "stateMutability": "nonpayable",
      "type": "function"
    },
    {
      "inputs": [
        {
          "internalType": "address",
          "name": "from",
          "type": "address"
        },
        {
          "internalType": "address",
          "name": "game",
          "type": "address"
        },
        {
          "internalType": "uint256[]",
          "name": "ids",
          "type": "uint256[]"
        },
        {
          "internalType": "uint256[]",
          "name": "amounts",
          "type": "uint256[]"
        }
      ],
      "name": "requestResourcesForGame",
      "outputs": [],
      "stateMutability": "nonpayable",
      "type": "function"
    },
    {
      "inputs": [
        {
          "internalType": "address",
          "name": "from",
          "type": "address"
        },
        {
          "internalType": "address",
          "name": "to",
          "type": "address"
        },
        {
          "internalType": "uint256",
          "name": "tokenId",
          "type": "uint256"
        }
      ],
      "name": "safeTransferFrom",
      "outputs": [],
      "stateMutability": "payable",
      "type": "function"
    },
    {
      "inputs": [
        {
          "internalType": "address",
          "name": "from",
          "type": "address"
        },
        {
          "internalType": "address",
          "name": "to",
          "type": "address"
        },
        {
          "internalType": "uint256",
          "name": "tokenId",
          "type": "uint256"
        },
        {
          "internalType": "bytes",
          "name": "data",
          "type": "bytes"
        }
      ],
      "name": "safeTransferFrom",
      "outputs": [],
      "stateMutability": "payable",
      "type": "function"
    },
    {
      "inputs": [
        {
          "internalType": "address",
          "name": "operator",
          "type": "address"
        },
        {
          "internalType": "bool",
          "name": "status",
          "type": "bool"
        }
      ],
      "name": "setApprovalForAll",
      "outputs": [],
      "stateMutability": "nonpayable",
      "type": "function"
    },
    {
      "inputs": [
        {
          "internalType": "bytes4",
          "name": "interfaceId",
          "type": "bytes4"
        }
      ],
      "name": "supportsInterface",
      "outputs": [
        {
          "internalType": "bool",
          "name": "",
          "type": "bool"
        }
      ],
      "stateMutability": "view",
      "type": "function"
    },
    {
      "inputs": [],
      "name": "symbol",
      "outputs": [
        {
          "internalType": "string",
          "name": "",
          "type": "string"
        }
      ],
      "stateMutability": "view",
      "type": "function"
    },
    {
      "inputs": [
        {
          "internalType": "uint256",
          "name": "index",
          "type": "uint256"
        }
      ],
      "name": "tokenByIndex",
      "outputs": [
        {
          "internalType": "uint256",
          "name": "",
          "type": "uint256"
        }
      ],
      "stateMutability": "view",
      "type": "function"
    },
    {
      "inputs": [
        {
          "internalType": "address",
          "name": "owner",
          "type": "address"
        },
        {
          "internalType": "uint256",
          "name": "index",
          "type": "uint256"
        }
      ],
      "name": "tokenOfOwnerByIndex",
      "outputs": [
        {
          "internalType": "uint256",
          "name": "",
          "type": "uint256"
        }
      ],
      "stateMutability": "view",
      "type": "function"
    },
    {
      "inputs": [
        {
          "internalType": "uint256",
          "name": "tokenId",
          "type": "uint256"
        }
      ],
      "name": "tokenURI",
      "outputs": [
        {
          "internalType": "string",
          "name": "",
          "type": "string"
        }
      ],
      "stateMutability": "view",
      "type": "function"
    },
    {
      "inputs": [],
      "name": "totalSupply",
      "outputs": [
        {
          "internalType": "uint256",
          "name": "",
          "type": "uint256"
        }
      ],
      "stateMutability": "view",
      "type": "function"
    },
    {
      "inputs": [
        {
          "internalType": "address",
          "name": "from",
          "type": "address"
        },
        {
          "internalType": "address",
          "name": "to",
          "type": "address"
        },
        {
          "internalType": "uint256",
          "name": "tokenId",
          "type": "uint256"
        }
      ],
      "name": "transferFrom",
      "outputs": [],
      "stateMutability": "payable",
      "type": "function"
    }
  ],
  "bytecode": {
    "object": "0x6080604052346200056b5762003610803803806200001d8162000590565b928339810190602080828403126200056b5781516001600160401b03928382116200056b5701601f928484830112156200056b5781518181116200039e57601f1992620000708287018516860162000590565b968288528583830101116200056b57849060005b83811062000556575050600091870101526200009f62000570565b93601185527013595c98dd5c9e55195cdd119b1a59da1d607a1b84860152620000c762000570565b601281527114d2d653105097d51154d517d1931251d21560721b8582015285518381116200039e577f99574a7094154bb123ae6ae102096f0bf9679b85a5cd1e727aaa0ae5f132e6b19081546001988982811c921680156200054b575b898310146200037d578186849311620004f5575b508890868311600114620004915760009262000485575b5050600019600383901b1c191690881b1790555b80518381116200039e577f99574a7094154bb123ae6ae102096f0bf9679b85a5cd1e727aaa0ae5f132e6b2918254908882811c921680156200047a575b888310146200037d57818584931162000424575b508790858311600114620003c057600092620003b4575b5050600019600383901b1c191690871b1790555b85519182116200039e577f99574a7094154bb123ae6ae102096f0bf9679b85a5cd1e727aaa0ae5f132e6b39283548681811c9116801562000393575b868210146200037d5782811162000332575b5084918311600114620002bd57508190600080516020620035f08339815191529596600092620002b1575b5050600019600383901b1c191690851b1790555b6301ffc9a760e01b6000525260406000209060ff199181838254161790556380ac58cd60e01b6000526040600020918254161790556040516130399081620005b78239f35b01519050388062000258565b82169583600052846000209660005b8181106200031c57509186979184600080516020620035f08339815191529895941062000302575b505050811b0190556200026c565b015160001960f88460031b161c19169055388080620002f4565b83830151895597870197928601928601620002cc565b84600052856000208380860160051c82019288871062000373575b0160051c019087905b828110620003665750506200022d565b6000815501879062000356565b925081926200034d565b634e487b7160e01b600052602260045260246000fd5b90607f16906200021b565b634e487b7160e01b600052604160045260246000fd5b015190503880620001cb565b90878a94169185600052896000209260005b8b8282106200040d5750508411620003f3575b505050811b019055620001df565b015160001960f88460031b161c19169055388080620003e5565b8385015186558d97909501949384019301620003d2565b90915083600052876000208580850160051c8201928a861062000470575b918b91869594930160051c01915b82811062000460575050620001b4565b600081558594508b910162000450565b9250819262000442565b91607f1691620001a0565b0151905038806200014f565b90888b941691856000528a6000209260005b8c828210620004de5750508411620004c4575b505050811b01905562000163565b015160001960f88460031b161c19169055388080620004b6565b8385015186558e97909501949384019301620004a3565b90915083600052886000208680850160051c8201928b861062000541575b918c91869594930160051c01915b8281106200053157505062000138565b600081558594508c910162000521565b9250819262000513565b91607f169162000124565b81810183015189820184015286920162000084565b600080fd5b60408051919082016001600160401b038111838210176200039e57604052565b6040519190601f01601f191682016001600160401b038111838210176200039e5760405256fe6080604052600436101561001257600080fd5b60003560e01c806301ffc9a7146101cd57806306fdde03146101c8578063081812fc146101c3578063095ea7b3146101be57806318160ddd146101b957806323b872dd146101b457806326332402146101af5780632f10dfda146101aa5780632f745c59146101a557806342842e0e146101a0578063430c20811461019b57806349ad6782146101965780634f6ccce7146101915780636352211e1461018c57806370a082311461018757806395d89b4114610182578063a22cb4651461017d578063b5de30b414610164578063b88d4fde14610178578063bf07b68f14610173578063c87b56dd1461016e578063ce9e3cd814610169578063d83a19e014610164578063dd7a2e851461015f578063de82209a1461015a578063e985e9c514610155578063f6573d7b146101505763fdffdd3b1461015057600080fd5b611372565b6112df565b611116565b6110a7565b610972565b610f6f565b610d20565b610b41565b610acb565b6108ef565b61081d565b6107fa565b6107dc565b61078a565b61073f565b61070e565b6106eb565b6106bc565b61061b565b6105d0565b610595565b610535565b610417565b6103bb565b6102b2565b6101e9565b6001600160e01b03198116036101e457565b600080fd5b346101e45760203660031901126101e457600435610206816101d2565b63ffffffff60e01b166000527ffc606c433378e3a7e0a6a531deac289b66caa1b4aa8554fd4ab2c6f1570f92d8602052602060ff604060002054166040519015158152f35b60009103126101e457565b60005b8381106102695750506000910152565b8181015183820152602001610259565b9060209161029281518092818552858086019101610256565b601f01601f1916010190565b9060206102af928181520190610279565b90565b346101e4576000806003193601126103b85760405190807f99574a7094154bb123ae6ae102096f0bf9679b85a5cd1e727aaa0ae5f132e6b1908154906102f782611c8b565b8086529260019280841690811561038b5750600114610331575b61032d8661032181880382610a56565b6040519182918261029e565b0390f35b815292507f9da0b376ea5eac987e00ddf645ea1acba63ab64b37f9d745b363c22385ad39cb5b8284106103735750505081016020016103218261032d38610311565b80546020858701810191909152909301928101610357565b905086955061032d9693506020925061032194915060ff191682840152151560051b820101929338610311565b80fd5b346101e45760203660031901126101e45760206103d96004356126a8565b6040516001600160a01b039091168152f35b600435906001600160a01b03821682036101e457565b602435906001600160a01b03821682036101e457565b60403660031901126101e45761042b6103eb565b6024359061043834612cac565b610441826125d9565b6001600160a01b038083169290821691838314610523578233141590816104e5575b506104d3576104ac9061048d85600052600080516020612fa4833981519152602052604060002090565b80546001600160a01b0319166001600160a01b03909216919091179055565b7f8c5be1e5ebec7d5bd14f71427d1e84f3dd0314c0f7b2291e5b200ac8c7c3b925600080a4005b604051632f5de44f60e01b8152600490fd5b61051d9150610512610519916104fb33916118d9565b9060018060a01b0316600052602052604060002090565b5460ff1690565b1590565b38610463565b60405163424a22cb60e01b8152600490fd5b346101e45760003660031901126101e4576020600080516020612fc483398151915254604051908152f35b60609060031901126101e4576001600160a01b039060043582811681036101e4579160243590811681036101e4579060443590565b61059e36610560565b90346105be576105ae82336126f0565b156104d3576105bc92612b17565b005b6040516322b1813960e01b8152600490fd5b346101e45760203660031901126101e4576004356000527f3b36e3c23f7226ff6a8560b4f003b6456caa037dff1f2961b3deb261d5af6a5e6020526020604060002054604051908152f35b346101e45760203660031901126101e457600080516020612f64833981519152546040516352897beb60e01b815233600482015290602090829060249082906001600160a01b03165afa80156106b75761067d91600091610689575b506115a6565b60405160008152602090f35b6106aa915060203d81116106b0575b6106a28183610a56565b810190611591565b38610677565b503d610698565b611563565b346101e45760403660031901126101e45760206106e36106da6103eb565b60243590612e0d565b604051908152f35b6105bc6106f736610560565b906040519261070584610a1e565b60008452612c81565b346101e45760403660031901126101e457602061073561072c6103eb565b602435906126f0565b6040519015158152f35b346101e45760203660031901126101e4576004356000527f3b36e3c23f7226ff6a8560b4f003b6456caa037dff1f2961b3deb261d5af6a5d6020526020604060002054604051908152f35b346101e45760203660031901126101e457600435600080516020612fc4833981519152548110156107ca576107c0602091612642565b5054604051908152f35b60405163022fd82760e31b8152600490fd5b346101e45760203660031901126101e45760206103d96004356125d9565b346101e45760203660031901126101e45760206106e36108186103eb565b6125ab565b346101e4576000806003193601126103b85760405190807f99574a7094154bb123ae6ae102096f0bf9679b85a5cd1e727aaa0ae5f132e6b29081549061086282611c8b565b8086529260019280841690811561038b575060011461088b5761032d8661032181880382610a56565b815292507f4d5a81d91ab5d0eb928391f3fb432d708f1a8a13471720d8e842441f4faa79d65b8284106108cd5750505081016020016103218261032d38610311565b805460208587018101919091529093019281016108b1565b801515036101e457565b346101e45760403660031901126101e4576109086103eb565b602435610914816108e5565b6001600160a01b0382169133831461052357610933906104fb336118d9565b9015159060ff1981541660ff83161790556040519081527f17307eab39ab6107e8899845ad3d59bd9653f200f220920489ca2b5937696c3160203392a3005b346101e45760203660031901126101e457600080516020612f64833981519152546040516352897beb60e01b815233600482015290602090829060249082906001600160a01b03165afa80156106b7576105bc9160009161068957506115a6565b634e487b7160e01b600052604160045260246000fd5b67ffffffffffffffff81116109fd57604052565b6109d3565b6040810190811067ffffffffffffffff8211176109fd57604052565b6020810190811067ffffffffffffffff8211176109fd57604052565b6060810190811067ffffffffffffffff8211176109fd57604052565b90601f8019910116810190811067ffffffffffffffff8211176109fd57604052565b67ffffffffffffffff81116109fd57601f01601f191660200190565b929192610aa082610a78565b91610aae6040519384610a56565b8294818452818301116101e4578281602093846000960137010152565b60803660031901126101e457610adf6103eb565b610ae7610401565b6064359167ffffffffffffffff83116101e457366023840112156101e457610b1c6105bc933690602481600401359101610a94565b9160443591612c81565b9080601f830112156101e4578160206102af93359101610a94565b346101e45760603660031901126101e457610b5a6103eb565b67ffffffffffffffff6024358181116101e457610b7b903690600401610b26565b916044358281116101e457610b94903690600401610b26565b91610b9d6123e5565b6001600160a01b03821660009081527f3b36e3c23f7226ff6a8560b4f003b6456caa037dff1f2961b3deb261d5af6a63602052604090209084519081116109fd57610bf281610bec8454611c8b565b84611d4a565b602080601f8311600114610c7457509080610c649493926105bc97600092610c69575b5050600019600383901b1c191660019190911b1790556001600160a01b031660009081527f3b36e3c23f7226ff6a8560b4f003b6456caa037dff1f2961b3deb261d5af6a646020526040902090565b611d84565b015190503880610c15565b90601f19831696610c8a85600052602060002090565b926000905b898210610d08575050918391600193610c649796956105bc9a10610cef575b505050811b0190556001600160a01b031660009081527f3b36e3c23f7226ff6a8560b4f003b6456caa037dff1f2961b3deb261d5af6a646020526040902090565b015160001960f88460031b161c19169055388080610cae565b80600185968294968601518155019501930190610c8f565b346101e45760203660031901126101e45761032d610321600435610d4b610d4682612688565b611e4d565b610d53611ebc565b90610d5c611edc565b610d9f610d92836000527f3b36e3c23f7226ff6a8560b4f003b6456caa037dff1f2961b3deb261d5af6a61602052604060002090565b546001600160a01b031690565b6001600160a01b038116610e08575b5090610e03610ddf92610df5610de5610dcf610dc986611439565b54612468565b604051968794602086019061202b565b9061202b565b632e73766760e01b815260040190565b03601f198101845283610a56565b612042565b925050610ddf90610e03610ddf610f67610ea5610f02610e598860018060a01b03166000527f3b36e3c23f7226ff6a8560b4f003b6456caa037dff1f2961b3deb261d5af6a63602052604060002090565b610eb3610e92610dc9896000527f3b36e3c23f7226ff6a8560b4f003b6456caa037dff1f2961b3deb261d5af6a60602052604060002090565b610ddf6040519586946020860190611fa8565b61202360f01b815260020190565b0391610ec7601f1993848101835282610a56565b6001600160a01b0390981660009081527f3b36e3c23f7226ff6a8560b4f003b6456caa037dff1f2961b3deb261d5af6a646020526040902090565b610f5b610f4e610f3e610dc9896000527f3b36e3c23f7226ff6a8560b4f003b6456caa037dff1f2961b3deb261d5af6a60602052604060002090565b6040519687946020860190611fa8565b602f60f81b815260010190565b03908101835282610a56565b919250610dae565b346101e4576020806003193601126101e45767ffffffffffffffff906004358281116101e457610fa3903690600401610b26565b91610fac6123e5565b82519081116109fd57600080516020612f8483398151915291610fd882610fd38554611c8b565b611cdc565b80601f83116001146110135750819293600092611008575b5050600019600383901b1c191660019190911b179055005b015190503880610ff0565b90601f19831694611053600080516020612f848339815191526000527f498c26f30ddc34945cd5911b8f771d2a1071971e3943d7ba6581bbde2c506f9c90565b926000905b87821061108f575050836001959610611076575b505050811b019055005b015160001960f88460031b161c1916905538808061106c565b80600185968294968601518155019501930190611058565b346101e45760403660031901126101e457600080516020612f64833981519152546040516352897beb60e01b815233600482015290602090829060249082906001600160a01b03165afa80156106b7576111089160009161068957506115a6565b6105bc60243560043561175a565b346101e4576000806003193601126103b8576111aa61119f611146600080516020612fc4833981519152546113fd565b6111508133612759565b611193611186826000527f3b36e3c23f7226ff6a8560b4f003b6456caa037dff1f2961b3deb261d5af6a5f602052604060002090565b805460ff19166001179055565b6111a561119f82611439565b60019055565b611468565b6111b2611497565b816111bc826114c8565b5260016111c8826114da565b526111d1611497565b906161a8806111df846114c8565b526111e9836114da565b52600080516020612f648339815191528054909284916001600160a01b03919061121c9083165b6001600160a01b031690565b90813b156112db57839161124891604051958680948193630fbfeffd60e11b83528a336004850161151e565b03925af19081156106b757859461127193611210936112c8575b5054166001600160a01b031690565b90813b156112c457829161129c916040519485809481936305a6b6b360e51b8352336004840161156f565b03925af180156106b7576112ae575080f35b806112bb6112c1926109e9565b8061024b565b80f35b5050fd5b806112bb6112d5926109e9565b38611262565b8380fd5b346101e45760403660031901126101e45760206107356112fd6103eb565b611305610401565b9061161d565b9080601f830112156101e45781359067ffffffffffffffff82116109fd578160051b6040519360209361134085840187610a56565b855283808601928201019283116101e4578301905b828210611363575050505090565b81358152908301908301611355565b346101e45760803660031901126101e4576001600160a01b0360043581811681036101e45760243591821682036101e45767ffffffffffffffff916044358381116101e4576113c590369060040161130b565b906064359384116101e4576113e16105bc94369060040161130b565b92611b4d565b634e487b7160e01b600052601160045260246000fd5b906001820180921161140b57565b6113e7565b906002820180921161140b57565b906020820180921161140b57565b9190820180921161140b57565b6000527f3b36e3c23f7226ff6a8560b4f003b6456caa037dff1f2961b3deb261d5af6a5d602052604060002090565b6000527f3b36e3c23f7226ff6a8560b4f003b6456caa037dff1f2961b3deb261d5af6a5e602052604060002090565b604051906114a482610a3a565b600282526040366020840137565b634e487b7160e01b600052603260045260246000fd5b8051156114d55760200190565b6114b2565b8051600110156114d55760400190565b90815180825260208080930193019160005b82811061150a575050505090565b8351855293810193928101926001016114fc565b91926115446020946115529360018060a01b0316855260808686015260808501906114ea565b9083820360408501526114ea565b906060818303910152600081520190565b6040513d6000823e3d90fd5b6001600160a01b0390911681526040602082018190526102af929101906114ea565b908160209103126101e457516102af816108e5565b156115ad57565b60405162461bcd60e51b815260206004820152603360248201527f4d657263757279426173653a206d73672e73656e646572206973206e6f7420616044820152722076616c69642067616d65206164647265737360681b6064820152608490fd5b600019811461140b5760010190565b600090815b61162b826125ab565b81101561168b5760ff6116706116418385612e0d565b6000527f3b36e3c23f7226ff6a8560b4f003b6456caa037dff1f2961b3deb261d5af6a5f602052604060002090565b54166116845761167f9061160e565b611622565b5050905090565b5090506001600160a01b03828116907358807bad0b376efc12f5ad86aac70e78ed67deae82146116f8577fc8fcad8db84d3cc18b4c41d551ea0ee66dd599cde068d998e57d5e09332c13205416146116f15760ff916104fb6116ec926118d9565b541690565b5050600190565b50505050600190565b1561170857565b60405162461bcd60e51b815260206004820152601e60248201527f4d657263757279426173653a206e6f6e6578697374656e7420746f6b656e00006044820152606490fd5b9190820391821161140b57565b6117ec9061176f61176a82612688565b611701565b61177b61176a84612688565b61178481611468565b546117a061179a61179486611468565b546113fd565b60011c90565b1161182d576117b461179a61179485611468565b6117bd82611468565b6117c882825461142c565b90556117d384611468565b548110611812575060006117e684611468565b5561183c565b6117f58161183c565b6117fe81611468565b54156118075750565b6118109061194b565b565b61182661181e85611468565b91825461174d565b905561183c565b61183681611468565b546117b4565b60005b6010811115611882575060208160106118787f1b9c4b6f325882062024aaca6e75c86d61b0a66ea22e1e4ae0803c5005aa409794611439565b55604051908152a1565b60ff811161140b5761189382611468565b546001821b116118ab576118a69061160e565b61183f565b816020916118787f1b9c4b6f325882062024aaca6e75c86d61b0a66ea22e1e4ae0803c5005aa409794611439565b6001600160a01b031660009081527f3c7bf052874fa81625121783266a03507bd2cd48b16e571c01a04e8dd3fb07aa6020526040902090565b6001600160a01b031660009081527f3c7bf052874fa81625121783266a03507bd2cd48b16e571c01a04e8dd3fb07a86020526040902090565b611af5611957826125d9565b9180600080948282527f99574a7094154bb123ae6ae102096f0bf9679b85a5cd1e727aaa0ae5f132e6b460205281604081206119938154611c8b565b80611af8575b5050506119ae836119a983611912565b612a7a565b506119b8836129b5565b506119ed6119dd84600052600080516020612fa4833981519152602052604060002090565b80546001600160a01b0319169055565b6001600160a01b03168282827f8c5be1e5ebec7d5bd14f71427d1e84f3dd0314c0f7b2291e5b200ac8c7c3b9258280a47fddf252ad1be2c89b69c2b068fc378daa952ba7f163c4a11628f55a4df523b3ef8280a4611ae6611ab6611a7d610d92846000527f3b36e3c23f7226ff6a8560b4f003b6456caa037dff1f2961b3deb261d5af6a61602052604060002090565b6001600160a01b031660009081527f3b36e3c23f7226ff6a8560b4f003b6456caa037dff1f2961b3deb261d5af6a626020526040902090565b916000527f3b36e3c23f7226ff6a8560b4f003b6456caa037dff1f2961b3deb261d5af6a60602052604060002090565b54600052602052604060002090565b55565b601f8111600114611b0e5750555b813880611999565b611b489250611b38906001601f611b2a85600052602060002090565b920160051c82019101611cc5565b6000908082528160208120915555565b611b06565b600080516020612f6483398151915280546040516352897beb60e01b8152336004820152949593946001600160a01b0391821690602081602481855afa80156106b757611ba19160009161068957506115a6565b803b156101e457846000918883611bcf9760405198899586948593633db0f8ab60e01b855260048501611c3f565b03925af19182156106b757611bf593611210936112c8575054166001600160a01b031690565b803b156101e457611c21936000809460405196879586948593630fbfeffd60e11b85526004850161151e565b03925af180156106b757611c325750565b806112bb611810926109e9565b6001600160a01b0390911681526060602082018190526102af939192611c67918401906114ea565b9160408184039101526114ea565b634e487b7160e01b600052600060045260246000fd5b90600182811c92168015611cbb575b6020831014611ca557565b634e487b7160e01b600052602260045260246000fd5b91607f1691611c9a565b818110611cd0575050565b60008155600101611cc5565b90601f8211611ce9575050565b61181091600080516020612f848339815191526000527f498c26f30ddc34945cd5911b8f771d2a1071971e3943d7ba6581bbde2c506f9c906020601f840160051c83019310611d40575b601f0160051c0190611cc5565b9091508190611d33565b9190601f8111611d5957505050565b611810926000526020600020906020601f840160051c83019310611d4057601f0160051c0190611cc5565b919091825167ffffffffffffffff81116109fd57611da681610bec8454611c8b565b602080601f8311600114611de2575081929394600092611dd7575b50508160011b916000199060031b1c1916179055565b015190503880611dc1565b90601f19831695611df885600052602060002090565b926000905b888210611e3557505083600195969710611e1c575b505050811b019055565b015160001960f88460031b161c19169055388080611e12565b80600185968294968601518155019501930190611dfd565b15611e5457565b60405162461bcd60e51b815260206004820152602760248201527f4552433732313a2055524920717565727920666f72206e6f6e6578697374656e6044820152663a103a37b5b2b760c91b6064820152608490fd5b60405190611eb682610a1e565b60008252565b60405190611ec982610a02565b60048252634e6f6e6560e01b6020830152565b60405190600082600080516020612f84833981519152918254611efe81611c8b565b80845293600191808316908115611f845750600114611f26575b505061181092500383610a56565b600090815291507f498c26f30ddc34945cd5911b8f771d2a1071971e3943d7ba6581bbde2c506f9c5b848310611f69575061181093505081016020013880611f18565b81935090816020925483858a01015201910190918592611f4f565b9150506020925061181094915060ff191682840152151560051b8201013880611f18565b600092918154611fb781611c8b565b926001918083169081156120105750600114611fd4575b50505050565b90919293945060005260209081600020906000915b858310611fff5750505050019038808080611fce565b805485840152918301918101611fe9565b60ff1916845250505081151590910201915038808080611fce565b9061203e60209282815194859201610256565b0190565b909161204d82612468565b9161205781611439565b5461206190612468565b9061206b90611468565b5461207590612468565b6040516a7b226e616d65223a20222360a81b6020820152948594919291602b860161209f9161202b565b61088b60f21b8152600201691134b6b0b3b2911d101160b11b8152600a016120c69161202b565b61088b60f21b81526002016e2261747472696275746573223a205b60881b8152600f01607b60f81b815260010175089d1c985a5d17dd1e5c19488e880893195d995b088b60521b8152601601680113b30b63ab2911d160bd1b815260090161212d9161202b565b611f4b60f21b8152600201607b60f81b815260010175089d1c985a5d17dd1e5c19488e8808941bda5b9d088b60521b8152601601680113b30b63ab2911d160bd1b815260090161217c9161202b565b611f4b60f21b8152600201607b60f81b815260010175089d1c985a5d17dd1e5c19488e8808941a5b1bdd088b60521b815260160169113b30b63ab2911d101160b11b8152600a016121cc9161202b565b601160f91b8152600101607d60f81b8152600101615d7d60f01b81526002010390601f199182810182526122009082610a56565b612209906122fc565b6040517f646174613a6170706c69636174696f6e2f6a736f6e3b6261736536342c000000602082015291908290603d82016122439161202b565b0390810182526102af9082610a56565b6040519061226082610a3a565b604082527f6768696a6b6c6d6e6f707172737475767778797a303132333435363738392b2f6040837f4142434445464748494a4b4c4d4e4f505152535455565758595a61626364656660208201520152565b600281901b91906001600160fe1b0381160361140b57565b906122d482610a78565b6122e16040519182610a56565b82815280926122f2601f1991610a78565b0190602036910137565b8051156123dc5761230b612253565b61232761232261231b8451611410565b6003900490565b6122b2565b916123396123348461141e565b6122ca565b92835280815182019060208501935b82821061238a575050506003905106806001146123795760021461236a575090565b603d60f81b6000199091015290565b50613d3d60f01b6001199091015290565b9091936004906003809401938451600190603f9082828260121c16880101518553828282600c1c16880101518386015382828260061c1688010151600286015316850101519082015301939190612348565b506102af611ea9565b7fc8fcad8db84d3cc18b4c41d551ea0ee66dd599cde068d998e57d5e09332c1320546001600160a01b0316330361241857565b60405162461bcd60e51b815260206004820152602260248201527f4c69624469616d6f6e643a204d75737420626520636f6e7472616374206f776e60448201526132b960f11b6064820152608490fd5b806000917a184f03e93ff9f4daa797ed6e38ed64bf6a1f0100000000000000008082101561259d575b506d04ee2d6d415b85acef81000000008083101561258e575b50662386f26fc100008083101561257f575b506305f5e10080831015612570575b5061271080831015612561575b506064821015612551575b600a80921015612547575b6001908160216124ff8287016122ca565b95860101905b612511575b5050505090565b600019019083906f181899199a1a9b1b9c1cb0b131b232b360811b8282061a83530491821561254257919082612505565b61250a565b91600101916124ee565b91906064600291049101916124e3565b600491939204910191386124d8565b600891939204910191386124cb565b601091939204910191386124bc565b602091939204910191386124aa565b604093508104915038612491565b6001600160a01b038116156125c7576125c390611912565b5490565b604051630810ff9760e41b8152600490fd5b600052600080516020612fe48339815191526020526040600020548015612630576126079060001901612642565b50600101546001600160a01b0316801561261e5790565b604051637e1a7d8b60e01b8152600490fd5b604051633d547ec560e21b8152600490fd5b600080516020612fc483398151915280548210156114d55760005260011b7f709a16c9caeafb61409212be896356f281c91d5c5b5cccb959477d20bb6240fb0190600090565b600052600080516020612fe4833981519152602052604060002054151590565b6126b181612688565b156126de576000908152600080516020612fa483398151915260205260409020546001600160a01b031690565b60405163c1b843ef60e01b8152600490fd5b6126f982612688565b156126de57612707826125d9565b6001600160a01b038281168282168114949091908515612741575b505050821561273057505090565b60ff9250906104fb6116ec926118d9565b61274e91929395506126a8565b161491388080612722565b906040519061276782610a1e565b600082526001600160a01b0383169283156128025761278582612688565b6127f057816127d7946127a08261279b85611912565b6128ef565b506127ab8183612814565b5060007fddf252ad1be2c89b69c2b068fc378daa952ba7f163c4a11628f55a4df523b3ef8180a4612d2d565b156127de57565b604051639ff10cdd60e01b8152600490fd5b604051630d86bb7b60e31b8152600490fd5b6040516311f2988d60e11b8152600490fd5b9081600052600080516020612fe483398151915260205260406000205480156000146128bd575060405161284781610a02565b82815260208101918252600080516020612fc4833981519152908154600160401b8110156109fd5780600161287e92018455612642565b9190916128b8576128b293600191518355519101555491600052600080516020612fe4833981519152602052604060002090565b55600190565b611c75565b60019192506128cf9060001901612642565b500155600090565b80548210156114d55760005260206000200190600090565b9190600092600181019082600052816020526040600020541561291157505050565b80919293945054600160401b8110156109fd5761294f6129388260018794018555846128d7565b819391549060031b91821b91600019901b19161790565b90555491600052602052604060002055600190565b634e487b7160e01b600052603160045260246000fd5b600080516020612fc4833981519152805480156129b057600019019061299f82612642565b6128b8576001816000809355015555565b612964565b6000818152600080516020612fe48339815191526020526040902054908115612a735760001990612a026129f983600080516020612fc48339815191525401612642565b50928401612642565b9390936128b857612a3a83856128b29560009703612a60575b5054600052600080516020612fe4833981519152602052604060002090565b55612a4361297a565b600052600080516020612fe4833981519152602052604060002090565b8154815560018083015491015538612a1b565b5050600090565b919060009260009160018201918184528260205260408420549081612aa1575b5050505050565b9091929394955060001991612ab983835401836128d7565b90549060031b1c80612ad0612938868501866128d7565b90558652846020526040862055805480156129b057820191612af283836128d7565b909182549160031b1b1916905555825260205260408120556001903880808080612a9a565b6000908382527f3b36e3c23f7226ff6a8560b4f003b6456caa037dff1f2961b3deb261d5af6a5f60205260ff604083205416612c3c57612b56846125d9565b6001600160a01b03828116939181169290848403612c2a578516948515612c18577fddf252ad1be2c89b69c2b068fc378daa952ba7f163c4a11628f55a4df523b3ef93612bc08861279b84612bba836119a98199612bb5838d9b612e45565b611912565b50611912565b50612bcb8784612814565b50612bf06119dd84600052600080516020612fa4833981519152602052604060002090565b7f8c5be1e5ebec7d5bd14f71427d1e84f3dd0314c0f7b2291e5b200ac8c7c3b9258280a480a4565b6040516340311a0960e01b8152600490fd5b604051630f2db4ad60e01b8152600490fd5b60405162461bcd60e51b815260206004820152601c60248201527f4d657263757279426173653a20746f6b656e206973206c6f636b6564000000006044820152606490fd5b929190346105be57612c9382336126f0565b156104d35783612ca783836127d797612b17565b612dbd565b612cb257565b60405163b56d7c1b60e01b8152600490fd5b60405190612cd182610a3a565b603282527131b2b4bb32b91034b6b83632b6b2b73a32b960711b6040837f4552433732313a207472616e7366657220746f206e6f6e20455243373231526560208201520152565b908160209103126101e457516102af816101d2565b919091803b15612db557612d79612d87612d9593604051928391630a85bd0160e11b978860208501523360248501526000604485015260648401526080608484015260a4830190610279565b03601f198101835282610a56565b612d8f612cc4565b91612eca565b612db063ffffffff60e01b9160208082518301019101612d18565b161490565b505050600190565b92813b156116f857612d87612d9593612d79604051938492630a85bd0160e11b9889602086015233602486015260018060a01b0316604485015260648401526080608484015260a4830190610279565b612e1690611912565b908154811015612e3357612e29916128d7565b90549060031b1c90565b60405163e637bf3b60e01b8152600490fd5b6001600160a01b031615612e565750565b60009081527f99574a7094154bb123ae6ae102096f0bf9679b85a5cd1e727aaa0ae5f132e6b460205260408120612e8d8154611c8b565b80612e9757505050565b82601f8211600114612ea857505055565b9091808252612ec6601f60208420940160051c840160018501611cc5565b5555565b9190606092803b15612f515781600092918360208194519301915af1913d15612f4b57503d91612ef983610a78565b92612f076040519485610a56565b83523d6000602085013e5b15612f1b575090565b815115612f2b5750805190602001fd5b60405162461bcd60e51b8152908190612f47906004830161029e565b0390fd5b91612f12565b604051632270d6bf60e21b8152600490fdfe3b36e3c23f7226ff6a8560b4f003b6456caa037dff1f2961b3deb261d5af6a5c3b36e3c23f7226ff6a8560b4f003b6456caa037dff1f2961b3deb261d5af6a5b3c7bf052874fa81625121783266a03507bd2cd48b16e571c01a04e8dd3fb07a93c7bf052874fa81625121783266a03507bd2cd48b16e571c01a04e8dd3fb07a63c7bf052874fa81625121783266a03507bd2cd48b16e571c01a04e8dd3fb07a7a2646970667358221220a53988006dced7b9b398ce450642610a62c8acc422851fd6cc993a910a08689964736f6c63430008130033fc606c433378e3a7e0a6a531deac289b66caa1b4aa8554fd4ab2c6f1570f92d8",
    "linkReferences": {}
  },
  "methodIdentifiers": {
    "approve(address,uint256)": "095ea7b3",
    "aviationLevels(uint256)": "49ad6782",
    "aviationLock(uint256)": "d83a19e0",
    "aviationMovePoints(uint256,uint256)": "dd7a2e85",
    "aviationPoints(uint256)": "26332402",
    "aviationUnlock(uint256)": "b5de30b4",
    "balanceOf(address)": "70a08231",
    "getApproved(uint256)": "081812fc",
    "isApprovedForAll(address,address)": "e985e9c5",
    "isApprovedOrOwner(address,uint256)": "430c2081",
    "isAviationLocked(uint256)": "2f10dfda",
    "name()": "06fdde03",
    "ownerOf(uint256)": "6352211e",
    "playTestMint()": "de82209a",
    "refundResourcesFromGame(address,address,uint256[],uint256[])": "fdffdd3b",
    "registerMetadataURI(string)": "ce9e3cd8",
    "registerPilotAddress(address,string,string)": "bf07b68f",
    "requestResourcesForGame(address,address,uint256[],uint256[])": "f6573d7b",
    "safeTransferFrom(address,address,uint256)": "42842e0e",
    "safeTransferFrom(address,address,uint256,bytes)": "b88d4fde",
    "setApprovalForAll(address,bool)": "a22cb465",
    "supportsInterface(bytes4)": "01ffc9a7",
    "symbol()": "95d89b41",
    "tokenByIndex(uint256)": "4f6ccce7",
    "tokenOfOwnerByIndex(address,uint256)": "2f745c59",
    "tokenURI(uint256)": "c87b56dd",
    "totalSupply()": "18160ddd",
    "transferFrom(address,address,uint256)": "23b872dd"
  },
  "id": 1
}