{
  "abi": [
    {
      "inputs": [],
      "name": "ReentrancyGuard__ReentrantCall",
      "type": "error"
    },
    {
      "inputs": [],
      "name": "__lockReentrancyGuard",
      "outputs": [],
      "stateMutability": "nonpayable",
      "type": "function"
    },
    {
      "inputs": [],
      "name": "__unlockReentrancyGuard",
      "outputs": [],
      "stateMutability": "nonpayable",
      "type": "function"
    },
    {
      "inputs": [],
      "name": "crossFunctionReentrancyTest",
      "outputs": [],
      "stateMutability": "nonpayable",
      "type": "function"
    },
    {
      "inputs": [],
      "name": "modifier_nonReentrant",
      "outputs": [],
      "stateMutability": "nonpayable",
      "type": "function"
    },
    {
      "inputs": [],
      "name": "reentrancyTest",
      "outputs": [],
      "stateMutability": "nonpayable",
      "type": "function"
    }
  ],
  "bytecode": {
    "object": "0x60808060405234610016576101fd908161001c8239f35b600080fdfe6080604052600436101561001257600080fd5b6000803560e01c806322130112146100f357806345a25569146100da5780639d2acc8414610098578063a8c712e9146100725763dd0994611461005457600080fd5b3461006f578060031936011261006f5761006c610119565b80f35b80fd5b503461006f578060031936011261006f5760026000805160206101a88339815191525580f35b503461006f578060031936011261006f576000805160206101a883398151915260028154146100c8576001905580f35b604051635db5c7cd60e11b8152600490fd5b503461006f578060031936011261006f5761006c610119565b503461006f578060031936011261006f5760016000805160206101a88339815191525580f35b6000805160206101a883398151915260028154146100c85760028155303b156101a25760405163dd09946160e01b81529060008260048183305af1801561019657610166575b6001915055565b67ffffffffffffffff82116101805760019160405261015f565b634e487b7160e01b600052604160045260246000fd5b6040513d6000823e3d90fd5b600080fdfe09acf4e54214992e70883cf7dcd6957ff2c71cd9e14df4bec4383bc0d11607dca264697066735822122032fc984e43d66aeb2152b62264467b7bf183af6a8698cf0e42d86ae2add57a5b64736f6c63430008130033",
    "linkReferences": {}
  },
  "methodIdentifiers": {
    "__lockReentrancyGuard()": "a8c712e9",
    "__unlockReentrancyGuard()": "22130112",
    "crossFunctionReentrancyTest()": "45a25569",
    "modifier_nonReentrant()": "9d2acc84",
    "reentrancyTest()": "dd099461"
  },
  "id": 400
}