{
  "abi": [
    {
      "inputs": [
        {
          "internalType": "address",
          "name": "implementation",
          "type": "address"
        },
        {
          "internalType": "address",
          "name": "owner",
          "type": "address"
        }
      ],
      "stateMutability": "nonpayable",
      "type": "constructor"
    },
    {
      "inputs": [],
      "name": "Ownable__NotOwner",
      "type": "error"
    },
    {
      "inputs": [],
      "name": "Ownable__NotTransitiveOwner",
      "type": "error"
    },
    {
      "inputs": [],
      "name": "Proxy__ImplementationIsNotContract",
      "type": "error"
    },
    {
      "anonymous": false,
      "inputs": [
        {
          "indexed": true,
          "internalType": "address",
          "name": "previousOwner",
          "type": "address"
        },
        {
          "indexed": true,
          "internalType": "address",
          "name": "newOwner",
          "type": "address"
        }
      ],
      "name": "OwnershipTransferred",
      "type": "event"
    },
    {
      "stateMutability": "payable",
      "type": "fallback"
    },
    {
      "inputs": [
        {
          "internalType": "address",
          "name": "implementation",
          "type": "address"
        }
      ],
      "name": "setImplementation",
      "outputs": [],
      "stateMutability": "nonpayable",
      "type": "function"
    },
    {
      "stateMutability": "payable",
      "type": "receive"
    }
  ],
  "bytecode": {
    "object": "0x6080346100f657601f61028838819003918201601f19168301916001600160401b038311848410176100fb5780849260409485528339810103126100f657610052602061004b83610111565b9201610111565b7ff7f483ff1916e63c14790f9c8bd1f715e1ffa6a089843b606bbc96607229b80480546001600160a01b03199081166001600160a01b03948516179091557f8a22373512790c48b83a1fe2efdd2888d4a917bcdc24d0adf63e60f671680460805460405194919382169291839082167f8be0079c531659141344cd1fd0a4f28419497f9722a3daafe3b4186f6b6457e0600080a31617905561016290816101268239f35b600080fd5b634e487b7160e01b600052604160045260246000fd5b51906001600160a01b03821682036100f65756fe60806040526004361015610015575b366100c957005b6000803560e01c63d784d4261461002c575061000e565b346100c65760203660031901126100c6576004356001600160a01b03818116918290036100c2577f8a22373512790c48b83a1fe2efdd2888d4a917bcdc24d0adf63e60f671680460541633036100b1577ff7f483ff1916e63c14790f9c8bd1f715e1ffa6a089843b606bbc96607229b80480546001600160a01b031916909117905580f35b632f7a8ee160e01b60805260046080fd5b8280fd5b80fd5b7ff7f483ff1916e63c14790f9c8bd1f715e1ffa6a089843b606bbc96607229b804546001600160a01b0316803b1561011a576000808092368280378136915af43d82803e15610116573d90f35b3d90fd5b6040516321f27f0d60e21b8152600490fdfea2646970667358221220bdb7e6ee55e92388f5408833796ecc678eed781d7ed20bbaf6d0f0977f1427ea64736f6c63430008130033",
    "linkReferences": {}
  },
  "methodIdentifiers": {
    "setImplementation(address)": "d784d426"
  },
  "id": 328
}