{
  "abi": [
    {
      "inputs": [
        {
          "internalType": "address",
          "name": "mercuryBaseAddress",
          "type": "address"
        }
      ],
      "stateMutability": "nonpayable",
      "type": "constructor"
    },
    {
      "inputs": [
        {
          "internalType": "address",
          "name": "to",
          "type": "address"
        },
        {
          "internalType": "uint256",
          "name": "tokenId",
          "type": "uint256"
        }
      ],
      "name": "approveForGame",
      "outputs": [],
      "stateMutability": "nonpayable",
      "type": "function"
    },
    {
      "inputs": [
        {
          "internalType": "uint256",
          "name": "tokenId",
          "type": "uint256"
        }
      ],
      "name": "isApprovedForGame",
      "outputs": [
        {
          "internalType": "bool",
          "name": "",
          "type": "bool"
        }
      ],
      "stateMutability": "view",
      "type": "function"
    },
    {
      "inputs": [
        {
          "internalType": "address",
          "name": "",
          "type": "address"
        },
        {
          "internalType": "address",
          "name": "",
          "type": "address"
        },
        {
          "internalType": "uint256[]",
          "name": "",
          "type": "uint256[]"
        },
        {
          "internalType": "uint256[]",
          "name": "",
          "type": "uint256[]"
        },
        {
          "internalType": "bytes",
          "name": "",
          "type": "bytes"
        }
      ],
      "name": "onERC1155BatchReceived",
      "outputs": [
        {
          "internalType": "bytes4",
          "name": "",
          "type": "bytes4"
        }
      ],
      "stateMutability": "nonpayable",
      "type": "function"
    },
    {
      "inputs": [
        {
          "internalType": "address",
          "name": "",
          "type": "address"
        },
        {
          "internalType": "address",
          "name": "",
          "type": "address"
        },
        {
          "internalType": "uint256",
          "name": "",
          "type": "uint256"
        },
        {
          "internalType": "uint256",
          "name": "",
          "type": "uint256"
        },
        {
          "internalType": "bytes",
          "name": "",
          "type": "bytes"
        }
      ],
      "name": "onERC1155Received",
      "outputs": [
        {
          "internalType": "bytes4",
          "name": "",
          "type": "bytes4"
        }
      ],
      "stateMutability": "nonpayable",
      "type": "function"
    },
    {
      "inputs": [
        {
          "internalType": "address",
          "name": "mercuryBaseAddress",
          "type": "address"
        }
      ],
      "name": "registerMercuryBase",
      "outputs": [],
      "stateMutability": "nonpayable",
      "type": "function"
    },
    {
      "inputs": [
        {
          "internalType": "bytes4",
          "name": "interfaceId",
          "type": "bytes4"
        }
      ],
      "name": "supportsInterface",
      "outputs": [
        {
          "internalType": "bool",
          "name": "",
          "type": "bool"
        }
      ],
      "stateMutability": "view",
      "type": "function"
    },
    {
      "inputs": [
        {
          "internalType": "uint256",
          "name": "tokenId",
          "type": "uint256"
        }
      ],
      "name": "unapproveForGame",
      "outputs": [],
      "stateMutability": "nonpayable",
      "type": "function"
    }
  ],
  "bytecode": {
    "object": "0x60803461007457601f61062438819003918201601f19168301916001600160401b038311848410176100795780849260209460405283398101031261007457516001600160a01b0381169081900361007457600080546001600160a01b03191691909117905560405161059490816100908239f35b600080fd5b634e487b7160e01b600052604160045260246000fdfe608060408181526004918236101561001657600080fd5b600090813560e01c90816301ffc9a7146102c6575080632336f12d1461029e578063392a4cd8146101e85780637d85924e146101aa578063b56befe314610152578063bc197c81146100c85763f23a6e611461007157600080fd5b346100c55760a03660031901126100c55761008a61031a565b50610093610335565b506084359067ffffffffffffffff82116100c557506020926100b7913691016103ea565b505163f23a6e6160e01b8152f35b80fd5b50346100c55760a03660031901126100c5576100e261031a565b506100eb610335565b5067ffffffffffffffff9060443582811161014e5761010d9036908601610383565b5060643582811161014e576101259036908601610383565b506084359182116100c55750602092610140913691016103ea565b505163bc197c8160e01b8152f35b5080fd5b50903461014e578060031936011261014e5761016c61031a565b9060243561018161017c82610441565b6104f4565b83526001602052822080546001600160a01b0319166001600160a01b0390921691909117905580f35b5091346101e45760203660031901126101e457356101ca61017c82610441565b82526001602052812080546001600160a01b031916905580f35b8280fd5b5091346101e45760203660031901126101e45761020361031a565b7fc8fcad8db84d3cc18b4c41d551ea0ee66dd599cde068d998e57d5e09332c1320546001600160a01b0393919291908416330361025057505082546001600160a01b031916911617815580f35b906020608492519162461bcd60e51b8352820152602260248201527f4c69624469616d6f6e643a204d75737420626520636f6e7472616374206f776e60448201526132b960f11b6064820152fd5b50346100c55760203660031901126100c557506102bd60209235610441565b90519015158152f35b905083346101e45760203660031901126101e4573563ffffffff60e01b81168091036101e45760209250630271189760e51b8114908115610309575b5015158152f35b6301ffc9a760e01b14905083610302565b600435906001600160a01b038216820361033057565b600080fd5b602435906001600160a01b038216820361033057565b90601f8019910116810190811067ffffffffffffffff82111761036d57604052565b634e487b7160e01b600052604160045260246000fd5b9080601f830112156103305781359067ffffffffffffffff821161036d578160051b604051936020936103b88584018761034b565b85528380860192820101928311610330578301905b8282106103db575050505090565b813581529083019083016103cd565b81601f820112156103305780359067ffffffffffffffff821161036d576040519261041f601f8401601f19166020018561034b565b8284526020838301011161033057816000926020809301838601378301015290565b6000805460405163430c208160e01b815233600482015260248101849052926001600160a01b03916020908590604490829086165afa9384156104e95783946104ad575b508315610493575b50505090565b82526001602052604090912054163314905038808061048d565b9093506020813d82116104e1575b816104c86020938361034b565b810103126101e4575180151581036101e4579238610485565b3d91506104bb565b6040513d85823e3d90fd5b156104fb57565b60405162461bcd60e51b815260206004820152603560248201527f536b796c616247616d65426173653a2063616c6c6572206973206e6f7420746f6044820152741ad95b881bdddb995c881bdc88185c1c1c9bdd9959605a1b6064820152608490fdfea2646970667358221220e734529110731bd4ff51ec74ea60e4236be7458d9c5d1bef7bd1ab925d89934264736f6c63430008130033",
    "linkReferences": {}
  },
  "methodIdentifiers": {
    "approveForGame(address,uint256)": "b56befe3",
    "isApprovedForGame(uint256)": "2336f12d",
    "onERC1155BatchReceived(address,address,uint256[],uint256[],bytes)": "bc197c81",
    "onERC1155Received(address,address,uint256,uint256,bytes)": "f23a6e61",
    "registerMercuryBase(address)": "392a4cd8",
    "supportsInterface(bytes4)": "01ffc9a7",
    "unapproveForGame(uint256)": "7d85924e"
  },
  "id": 1
}