{
  "abi": [
    {
      "inputs": [
        {
          "internalType": "int256",
          "name": "a",
          "type": "int256"
        }
      ],
      "name": "abs",
      "outputs": [
        {
          "internalType": "uint256",
          "name": "",
          "type": "uint256"
        }
      ],
      "stateMutability": "pure",
      "type": "function"
    },
    {
      "inputs": [
        {
          "internalType": "uint256",
          "name": "a",
          "type": "uint256"
        },
        {
          "internalType": "uint256",
          "name": "b",
          "type": "uint256"
        }
      ],
      "name": "average",
      "outputs": [
        {
          "internalType": "uint256",
          "name": "",
          "type": "uint256"
        }
      ],
      "stateMutability": "pure",
      "type": "function"
    },
    {
      "inputs": [
        {
          "internalType": "uint256",
          "name": "a",
          "type": "uint256"
        },
        {
          "internalType": "uint256",
          "name": "b",
          "type": "uint256"
        }
      ],
      "name": "max",
      "outputs": [
        {
          "internalType": "uint256",
          "name": "",
          "type": "uint256"
        }
      ],
      "stateMutability": "pure",
      "type": "function"
    },
    {
      "inputs": [
        {
          "internalType": "uint256",
          "name": "a",
          "type": "uint256"
        },
        {
          "internalType": "uint256",
          "name": "b",
          "type": "uint256"
        }
      ],
      "name": "min",
      "outputs": [
        {
          "internalType": "uint256",
          "name": "",
          "type": "uint256"
        }
      ],
      "stateMutability": "pure",
      "type": "function"
    },
    {
      "inputs": [
        {
          "internalType": "uint256",
          "name": "x",
          "type": "uint256"
        }
      ],
      "name": "sqrt",
      "outputs": [
        {
          "internalType": "uint256",
          "name": "",
          "type": "uint256"
        }
      ],
      "stateMutability": "pure",
      "type": "function"
    }
  ],
  "bytecode": {
    "object": "0x6080806040523461001657610212908161001c8239f35b600080fdfe6040608081526004908136101561001557600080fd5b600091823560e01c9081631b5ac4b51461016b5781632b7423ab14610148578163677342ce146100af575080636d5433e61461008a57637ae2b5c71461005a57600080fd5b346100865760209161006b366101c1565b91508181111561007e5750905b51908152f35b905090610078565b5080fd5b50346100865760209161009c366101c1565b9091508082111561007e57509051908152f35b838334610086576020366003190112610086578235916001908184018085116101355784939290811c91865b8584106100ec576020868651908152f35b92945090918480156101225780870490810180911161010f57831c9291906100db565b634e487b7160e01b835260118252602483fd5b634e487b7160e01b835260128252602483fd5b634e487b7160e01b825260118652602482fd5b5050346100865760209061015b366101c1565b91519180821860011c9116018152f35b8284346101be5760203660031901126101be57823590808212156101b357600160ff1b82146101a05760209350039051908152f35b634e487b7160e01b815260118452602490fd5b506020925090610078565b80fd5b60409060031901126101d7576004359060243590565b600080fdfea264697066735822122007a440bcbefa6e184f445635816d915665f7b6c0f8e40d4c1dad1a0e75d8642c64736f6c63430008130033",
    "linkReferences": {}
  },
  "methodIdentifiers": {
    "abs(int256)": "1b5ac4b5",
    "average(uint256,uint256)": "2b7423ab",
    "max(uint256,uint256)": "6d5433e6",
    "min(uint256,uint256)": "7ae2b5c7",
    "sqrt(uint256)": "677342ce"
  },
  "id": 517
}