{
  "abi": [
    {
      "inputs": [
        {
          "internalType": "uint8[]",
          "name": "errorCodes",
          "type": "uint8[]"
        },
        {
          "internalType": "string[]",
          "name": "errorMessages",
          "type": "string[]"
        }
      ],
      "stateMutability": "nonpayable",
      "type": "constructor"
    },
    {
      "inputs": [],
      "name": "ERC1404Base__ArrayLengthMismatch",
      "type": "error"
    },
    {
      "inputs": [],
      "name": "ERC20Base__ApproveFromZeroAddress",
      "type": "error"
    },
    {
      "inputs": [],
      "name": "ERC20Base__ApproveToZeroAddress",
      "type": "error"
    },
    {
      "inputs": [],
      "name": "ERC20Base__BurnExceedsBalance",
      "type": "error"
    },
    {
      "inputs": [],
      "name": "ERC20Base__BurnFromZeroAddress",
      "type": "error"
    },
    {
      "inputs": [],
      "name": "ERC20Base__InsufficientAllowance",
      "type": "error"
    },
    {
      "inputs": [],
      "name": "ERC20Base__MintToZeroAddress",
      "type": "error"
    },
    {
      "inputs": [],
      "name": "ERC20Base__TransferExceedsBalance",
      "type": "error"
    },
    {
      "inputs": [],
      "name": "ERC20Base__TransferFromZeroAddress",
      "type": "error"
    },
    {
      "inputs": [],
      "name": "ERC20Base__TransferToZeroAddress",
      "type": "error"
    },
    {
      "anonymous": false,
      "inputs": [
        {
          "indexed": true,
          "internalType": "address",
          "name": "owner",
          "type": "address"
        },
        {
          "indexed": true,
          "internalType": "address",
          "name": "spender",
          "type": "address"
        },
        {
          "indexed": false,
          "internalType": "uint256",
          "name": "value",
          "type": "uint256"
        }
      ],
      "name": "Approval",
      "type": "event"
    },
    {
      "anonymous": false,
      "inputs": [
        {
          "indexed": true,
          "internalType": "address",
          "name": "from",
          "type": "address"
        },
        {
          "indexed": true,
          "internalType": "address",
          "name": "to",
          "type": "address"
        },
        {
          "indexed": false,
          "internalType": "uint256",
          "name": "value",
          "type": "uint256"
        }
      ],
      "name": "Transfer",
      "type": "event"
    },
    {
      "inputs": [
        {
          "internalType": "address",
          "name": "account",
          "type": "address"
        },
        {
          "internalType": "uint256",
          "name": "amount",
          "type": "uint256"
        }
      ],
      "name": "__burn",
      "outputs": [],
      "stateMutability": "nonpayable",
      "type": "function"
    },
    {
      "inputs": [
        {
          "internalType": "address",
          "name": "account",
          "type": "address"
        },
        {
          "internalType": "uint256",
          "name": "amount",
          "type": "uint256"
        }
      ],
      "name": "__mint",
      "outputs": [],
      "stateMutability": "nonpayable",
      "type": "function"
    },
    {
      "inputs": [
        {
          "internalType": "address",
          "name": "holder",
          "type": "address"
        },
        {
          "internalType": "address",
          "name": "spender",
          "type": "address"
        }
      ],
      "name": "allowance",
      "outputs": [
        {
          "internalType": "uint256",
          "name": "",
          "type": "uint256"
        }
      ],
      "stateMutability": "view",
      "type": "function"
    },
    {
      "inputs": [
        {
          "internalType": "address",
          "name": "spender",
          "type": "address"
        },
        {
          "internalType": "uint256",
          "name": "amount",
          "type": "uint256"
        }
      ],
      "name": "approve",
      "outputs": [
        {
          "internalType": "bool",
          "name": "",
          "type": "bool"
        }
      ],
      "stateMutability": "nonpayable",
      "type": "function"
    },
    {
      "inputs": [
        {
          "internalType": "address",
          "name": "account",
          "type": "address"
        }
      ],
      "name": "balanceOf",
      "outputs": [
        {
          "internalType": "uint256",
          "name": "",
          "type": "uint256"
        }
      ],
      "stateMutability": "view",
      "type": "function"
    },
    {
      "inputs": [
        {
          "internalType": "address",
          "name": "from",
          "type": "address"
        },
        {
          "internalType": "address",
          "name": "to",
          "type": "address"
        },
        {
          "internalType": "uint256",
          "name": "amount",
          "type": "uint256"
        }
      ],
      "name": "detectTransferRestriction",
      "outputs": [
        {
          "internalType": "uint8",
          "name": "",
          "type": "uint8"
        }
      ],
      "stateMutability": "view",
      "type": "function"
    },
    {
      "inputs": [
        {
          "internalType": "uint8",
          "name": "restrictionCode",
          "type": "uint8"
        }
      ],
      "name": "messageForTransferRestriction",
      "outputs": [
        {
          "internalType": "string",
          "name": "",
          "type": "string"
        }
      ],
      "stateMutability": "view",
      "type": "function"
    },
    {
      "inputs": [],
      "name": "totalSupply",
      "outputs": [
        {
          "internalType": "uint256",
          "name": "",
          "type": "uint256"
        }
      ],
      "stateMutability": "view",
      "type": "function"
    },
    {
      "inputs": [
        {
          "internalType": "address",
          "name": "recipient",
          "type": "address"
        },
        {
          "internalType": "uint256",
          "name": "amount",
          "type": "uint256"
        }
      ],
      "name": "transfer",
      "outputs": [
        {
          "internalType": "bool",
          "name": "",
          "type": "bool"
        }
      ],
      "stateMutability": "nonpayable",
      "type": "function"
    },
    {
      "inputs": [
        {
          "internalType": "address",
          "name": "holder",
          "type": "address"
        },
        {
          "internalType": "address",
          "name": "recipient",
          "type": "address"
        },
        {
          "internalType": "uint256",
          "name": "amount",
          "type": "uint256"
        }
      ],
      "name": "transferFrom",
      "outputs": [
        {
          "internalType": "bool",
          "name": "",
          "type": "bool"
        }
      ],
      "stateMutability": "nonpayable",
      "type": "function"
    }
  ],
  "bytecode": {
    "object": "0x60406080815234620003675762000b9a803803806200001e816200039c565b9283398101908281830312620003675780516001600160401b03939084811162000367578201601f9084828201121562000367578051926200006a6200006485620003c2565b6200039c565b948592858752602080970187600597881b8301019189831162000367578801905b8282106200038157505050858101519088821162000367570186848201121562000367578051620000c06200006482620003c2565b9787808a8481520192881b840101928184116200036757888101925b848410620002de5750505050508151865103620002ce579594939291906000965b8151881015620002c057620001138887620003da565b519760ff620001238285620003da565b51166000527f30fbc5103dd3fe60574e239ab3dd8159b9545f7ba8dbbe0945026e3fffa33c218652816000208951898111620002aa5781546001908181811c911680156200029f575b8a821014620002895787811162000240575b50889b878311600114620001cf5782916001969798999a9b9c9d8392600094620001c3575b50501b916000199060031b1c19161790555b0196959493929190620000fd565b015192503880620001a3565b601f9291921982169c8d91856000528b600020926000905b811062000229575083600198999a9b9c9d9e9f106200020f575b505050811b019055620001b5565b015160001960f88460031b161c1916905538808062000201565b81830151845592850192918c01918c018f620001e7565b8360005289600020888085018b1c8201928c86106200027f575b018a1c019082905b828110620002725750506200017e565b6000815501829062000262565b925081926200025a565b634e487b7160e01b600052602260045260246000fd5b90607f16906200016c565b634e487b7160e01b600052604160045260246000fd5b516107949081620004068239f35b51638d53baeb60e01b8152600490fd5b83518c81116200036757820183603f8201121562000367578a8101518d81116200036c5762000315818b01601f19168d016200039c565b918183528589838301011162000367579290918c926000945b8186106200034e57508380955060009183010152815201930192620000dc565b8086018b015183870186015293909401938d936200032e565b600080fd5b60246000634e487b7160e01b81526041600452fd5b815160ff81168103620003675781529088019088016200008b565b6040519190601f01601f191682016001600160401b03811183821017620002aa57604052565b6001600160401b038111620002aa5760051b60200190565b8051821015620003ef5760209160051b010190565b634e487b7160e01b600052603260045260246000fdfe6040608081526004908136101561001557600080fd5b600091823560e01c908163095ea7b31461051457816318160ddd146104d657816323b872dd146104735781633dc8ded7146103c057816370a08231146103925781637f4ab1dd14610211578163a9059cbb146101de578163aa82e017146100ff57508063d4ce1415146100e35763dd62ed3e1461009157600080fd5b346100df57806003193601126100df576100a961053e565b6024356001600160a01b03811691908290036100db579282916100cd60209561058e565b908252845220549051908152f35b8380fd5b5080fd5b50346100df57906020916100f636610559565b50505051908152f35b8383346100df57806003193601126100df5761011961053e565b6001600160a01b038116916024359183156101ce57610137816105c7565b548084116101be578361014b9103916105c7565b557fc991b2e918acaba8e5721668ed0b1982684e5a8692a621bcd2d7ef326bb015b68054908382039182116101ab5755519081528291907fddf252ad1be2c89b69c2b068fc378daa952ba7f163c4a11628f55a4df523b3ef90602090a380f35b634e487b7160e01b865260118752602486fd5b825163b1d35b2360e01b81528790fd5b81516378f1627760e11b81528690fd5b5050346100df57806003193601126100df576020906102086101fe61053e565b60243590336106a7565b90519015158152f35b9190503461038e576020806003193601126100db57823560ff811680910361038a5784527f30fbc5103dd3fe60574e239ab3dd8159b9545f7ba8dbbe0945026e3fffa33c2181528184209382519181865496600188811c91818a16998a15610380575b8584108b1461036d578588999a9b858a52918260001461034f57505060011461031a575b505050601f801995869203011683019583871067ffffffffffffffff881117610307575085929391838652818452845191828186015281955b8387106102ef5750508394508582601f949501015201168101030190f35b868101820151898801890152958101958895506102d1565b634e487b7160e01b835260419052602482fd5b85528385208593505b8284106103395750505083018101388080610298565b8054888501860152879650928401928101610323565b93509450505060ff191682860152151560051b840101388080610298565b634e487b7160e01b875260228a52602487fd5b92607f1692610274565b8480fd5b8280fd5b5050346100df5760203660031901126100df576020906103b86103b361053e565b6105c7565b549051908152f35b9190503461038e578060031936011261038e576103db61053e565b6001600160a01b038116926024359291908415610465575084927fddf252ad1be2c89b69c2b068fc378daa952ba7f163c4a11628f55a4df523b3ef926104506020937fc991b2e918acaba8e5721668ed0b1982684e5a8692a621bcd2d7ef326bb015b6610449858254610684565b90556105c7565b61045b838254610684565b905551908152a380f35b825163da007acd60e01b8152fd5b8284346104d3578161048436610559565b95919290936104928461058e565b3382526020522054908186116104c657509184916104b86020966104be95033383610600565b506106a7565b505160018152f35b845162e14ccf60e11b8152fd5b80fd5b5050346100df57816003193601126100df576020907fc991b2e918acaba8e5721668ed0b1982684e5a8692a621bcd2d7ef326bb015b6549051908152f35b5050346100df57806003193601126100df5760209061020861053461053e565b6024359033610600565b600435906001600160a01b038216820361055457565b600080fd5b6060906003190112610554576001600160a01b0390600435828116810361055457916024359081168103610554579060443590565b6001600160a01b031660009081527fc991b2e918acaba8e5721668ed0b1982684e5a8692a621bcd2d7ef326bb015b56020526040902090565b6001600160a01b031660009081527fc991b2e918acaba8e5721668ed0b1982684e5a8692a621bcd2d7ef326bb015b46020526040902090565b916001600160a01b038084169283156106725716928315610661577f8c5be1e5ebec7d5bd14f71427d1e84f3dd0314c0f7b2291e5b200ac8c7c3b9259161064860209261058e565b85600052825280604060002055604051908152a3600190565b6040516262920b60e91b8152600490fd5b604051635a68b7ab60e01b8152600490fd5b9190820180921161069157565b634e487b7160e01b600052601160045260246000fd5b6001600160a01b03808216929190831561074c57821693841561073a576106cd826105c7565b54808211610728577fddf252ad1be2c89b69c2b068fc378daa952ba7f163c4a11628f55a4df523b3ef936020936107098461070f9403916105c7565b556105c7565b61071a828254610684565b9055604051908152a3600190565b604051637183160b60e01b8152600490fd5b6040516320a2645160e21b8152600490fd5b6040516368551d5f60e01b8152600490fdfea2646970667358221220e832317b76ccc15dfb15c3c3202ffb7c6a67d48b565079b145cab6b666beff9964736f6c63430008130033",
    "linkReferences": {}
  },
  "methodIdentifiers": {
    "__burn(address,uint256)": "aa82e017",
    "__mint(address,uint256)": "3dc8ded7",
    "allowance(address,address)": "dd62ed3e",
    "approve(address,uint256)": "095ea7b3",
    "balanceOf(address)": "70a08231",
    "detectTransferRestriction(address,address,uint256)": "d4ce1415",
    "messageForTransferRestriction(uint8)": "7f4ab1dd",
    "totalSupply()": "18160ddd",
    "transfer(address,uint256)": "a9059cbb",
    "transferFrom(address,address,uint256)": "23b872dd"
  },
  "id": 439
}