{
  "abi": [
    {
      "inputs": [],
      "name": "NotCrossChainCall",
      "type": "error"
    },
    {
      "anonymous": false,
      "inputs": [
        {
          "indexed": true,
          "internalType": "bytes32",
          "name": "role",
          "type": "bytes32"
        },
        {
          "indexed": true,
          "internalType": "bytes32",
          "name": "previousAdminRole",
          "type": "bytes32"
        },
        {
          "indexed": true,
          "internalType": "bytes32",
          "name": "newAdminRole",
          "type": "bytes32"
        }
      ],
      "name": "RoleAdminChanged",
      "type": "event"
    },
    {
      "anonymous": false,
      "inputs": [
        {
          "indexed": true,
          "internalType": "bytes32",
          "name": "role",
          "type": "bytes32"
        },
        {
          "indexed": true,
          "internalType": "address",
          "name": "account",
          "type": "address"
        },
        {
          "indexed": true,
          "internalType": "address",
          "name": "sender",
          "type": "address"
        }
      ],
      "name": "RoleGranted",
      "type": "event"
    },
    {
      "anonymous": false,
      "inputs": [
        {
          "indexed": true,
          "internalType": "bytes32",
          "name": "role",
          "type": "bytes32"
        },
        {
          "indexed": true,
          "internalType": "address",
          "name": "account",
          "type": "address"
        },
        {
          "indexed": true,
          "internalType": "address",
          "name": "sender",
          "type": "address"
        }
      ],
      "name": "RoleRevoked",
      "type": "event"
    },
    {
      "inputs": [],
      "name": "CROSSCHAIN_ALIAS",
      "outputs": [
        {
          "internalType": "bytes32",
          "name": "",
          "type": "bytes32"
        }
      ],
      "stateMutability": "view",
      "type": "function"
    },
    {
      "inputs": [],
      "name": "DEFAULT_ADMIN_ROLE",
      "outputs": [
        {
          "internalType": "bytes32",
          "name": "",
          "type": "bytes32"
        }
      ],
      "stateMutability": "view",
      "type": "function"
    },
    {
      "inputs": [
        {
          "internalType": "bytes32",
          "name": "role",
          "type": "bytes32"
        }
      ],
      "name": "getRoleAdmin",
      "outputs": [
        {
          "internalType": "bytes32",
          "name": "",
          "type": "bytes32"
        }
      ],
      "stateMutability": "view",
      "type": "function"
    },
    {
      "inputs": [
        {
          "internalType": "bytes32",
          "name": "role",
          "type": "bytes32"
        },
        {
          "internalType": "address",
          "name": "account",
          "type": "address"
        }
      ],
      "name": "grantRole",
      "outputs": [],
      "stateMutability": "nonpayable",
      "type": "function"
    },
    {
      "inputs": [
        {
          "internalType": "bytes32",
          "name": "role",
          "type": "bytes32"
        },
        {
          "internalType": "address",
          "name": "account",
          "type": "address"
        }
      ],
      "name": "hasRole",
      "outputs": [
        {
          "internalType": "bool",
          "name": "",
          "type": "bool"
        }
      ],
      "stateMutability": "view",
      "type": "function"
    },
    {
      "inputs": [
        {
          "internalType": "bytes32",
          "name": "role",
          "type": "bytes32"
        },
        {
          "internalType": "address",
          "name": "account",
          "type": "address"
        }
      ],
      "name": "renounceRole",
      "outputs": [],
      "stateMutability": "nonpayable",
      "type": "function"
    },
    {
      "inputs": [
        {
          "internalType": "bytes32",
          "name": "role",
          "type": "bytes32"
        },
        {
          "internalType": "address",
          "name": "account",
          "type": "address"
        }
      ],
      "name": "revokeRole",
      "outputs": [],
      "stateMutability": "nonpayable",
      "type": "function"
    },
    {
      "inputs": [
        {
          "internalType": "bytes4",
          "name": "interfaceId",
          "type": "bytes4"
        }
      ],
      "name": "supportsInterface",
      "outputs": [
        {
          "internalType": "bool",
          "name": "",
          "type": "bool"
        }
      ],
      "stateMutability": "view",
      "type": "function"
    }
  ],
  "bytecode": {
    "object": "0x60808060405234610016576108fa908161001c8239f35b600080fdfe60806040818152600436101561001457600080fd5b600091823560e01c90816301ffc9a71461028e57508063248a9ca3146102645780632f2ff15d146101c757806336568abe1461013d57806391d1485414610104578063a217fddf146100ea578063d547741f146100b75763f9d042951461007a57600080fd5b346100b357816003193601126100b357602090517fe870e9cffded00b0b933338bc23ae12648d8d2d4829802ab37a0908f14773b4d8152f35b5080fd5b50346100b35760016100e7916100e26100cf366102e7565b9390928387528660205286200154610386565b610312565b80f35b50346100b357816003193601126100b35751908152602090f35b50346100b35760ff81602093610119366102e7565b9082528186528282206001600160a01b039091168252855220549151911615158152f35b5090346101c45761014d366102e7565b90336001600160a01b0383160361016857906100e791610312565b835162461bcd60e51b815260206004820152602f60248201527f416363657373436f6e74726f6c3a2063616e206f6e6c792072656e6f756e636560448201526e103937b632b9903337b91039b2b63360891b6064820152608490fd5b80fd5b50346100b3576101d6366102e7565b9091828452836020526101ee60018286200154610386565b82845260208481528185206001600160a01b039093168086529290528084205460ff161561021a578380f35b828452836020528084208285526020528320600160ff1982541617905533917f2f8788117e7eff1d82e926ec794901d17c78024a50270940304540a733656f0d8480a43880808380f35b50346100b35760203660031901126100b35760018160209360043581528085522001549051908152f35b8390346100b35760203660031901126100b35760043563ffffffff60e01b81168091036102e35760209250637965db0b60e01b81149081156102d2575b5015158152f35b6301ffc9a760e01b149050836102cb565b8280fd5b604090600319011261030d57600435906024356001600160a01b038116810361030d5790565b600080fd5b9060009180835282602052604083209160018060a01b03169182845260205260ff60408420541661034257505050565b80835282602052604083208284526020526040832060ff1981541690557ff6391f5c32d9c69d2a47ea670b442974b53935d1edc7fd64eb21e047a839171b339380a4565b61038e61083d565b156104805761039b61083d565b1561046e576103a861083d565b1561046e5760405163d74523b360e01b815260208160048160645afa90811561046257600091610401575b507fe870e9cffded00b0b933338bc23ae12648d8d2d4829802ab37a0908f14773b4d6103ff92186104e6565b565b6020813d821161045a575b81610419602093836104ae565b810103126100b35751906001600160a01b03821682036101c457507fe870e9cffded00b0b933338bc23ae12648d8d2d4829802ab37a0908f14773b4d6103d3565b3d915061040c565b6040513d6000823e3d90fd5b60405163253a6fc960e11b8152600490fd5b6103ff9033906104e6565b60005b83811061049e5750506000910152565b818101518382015260200161048e565b90601f8019910116810190811067ffffffffffffffff8211176104d057604052565b634e487b7160e01b600052604160045260246000fd5b6000918183526020918383526040918285209060018060a01b031690818652845260ff83862054161561051a575050505050565b8251949067ffffffffffffffff906060870182811188821017610829578552602a87528587019385368637875115610815576030855387519160019283101561080157607860218a015360295b838111610797575061075557908551926080840190848210908211176107415786526042835286830193606036863783511561072d5760308553835182101561072d5790607860218501536041915b8183116106bf5750505061067d579261064b604861063c979461066f946044989785519a8b936106138b86019a7f416363657373436f6e74726f6c3a206163636f756e74200000000000000000008c52518092603788019061048b565b8401917001034b99036b4b9b9b4b733903937b6329607d1b60378401525180938684019061048b565b010360288101895201876104ae565b5194859362461bcd60e51b855260048501525180928160248601528585019061048b565b601f01601f19168101030190fd5b60648585519062461bcd60e51b825280600483015260248201527f537472696e67733a20686578206c656e67746820696e73756666696369656e746044820152fd5b909192600f81166010811015610719576f181899199a1a9b1b9c1cb0b131b232b360811b901a6106ef858761089d565b5360041c928015610705576000190191906105b6565b634e487b7160e01b82526011600452602482fd5b634e487b7160e01b83526032600452602483fd5b634e487b7160e01b81526032600452602490fd5b634e487b7160e01b85526041600452602485fd5b60648787519062461bcd60e51b825280600483015260248201527f537472696e67733a20686578206c656e67746820696e73756666696369656e746044820152fd5b90600f811660108110156107ed576f181899199a1a9b1b9c1cb0b131b232b360811b901a6107c5838c61089d565b5360041c9080156107d95760001901610567565b634e487b7160e01b86526011600452602486fd5b634e487b7160e01b87526032600452602487fd5b634e487b7160e01b85526032600452602485fd5b634e487b7160e01b84526032600452602484fd5b634e487b7160e01b84526041600452602484fd5b60405163175a260b60e01b815260208160048160645afa90811561046257600091610866575090565b6020813d8211610895575b8161087e602093836104ae565b810103126100b357519081151582036101c4575090565b3d9150610871565b9081518110156108ae570160200190565b634e487b7160e01b600052603260045260246000fdfea264697066735822122090bdcb902a05076997fc62353003fde0eea1a97c5e20270a5c6b1aa7dbc4bd5764736f6c63430008130033",
    "linkReferences": {}
  },
  "methodIdentifiers": {
    "CROSSCHAIN_ALIAS()": "f9d04295",
    "DEFAULT_ADMIN_ROLE()": "a217fddf",
    "getRoleAdmin(bytes32)": "248a9ca3",
    "grantRole(bytes32,address)": "2f2ff15d",
    "hasRole(bytes32,address)": "91d14854",
    "renounceRole(bytes32,address)": "36568abe",
    "revokeRole(bytes32,address)": "d547741f",
    "supportsInterface(bytes4)": "01ffc9a7"
  },
  "id": 75
}