{
  "abi": [
    {
      "inputs": [],
      "name": "EnumerableSet__IndexOutOfBounds",
      "type": "error"
    },
    {
      "inputs": [
        {
          "internalType": "uint256",
          "name": "value",
          "type": "uint256"
        }
      ],
      "name": "add",
      "outputs": [
        {
          "internalType": "bool",
          "name": "",
          "type": "bool"
        }
      ],
      "stateMutability": "nonpayable",
      "type": "function"
    },
    {
      "inputs": [
        {
          "internalType": "uint256",
          "name": "index",
          "type": "uint256"
        }
      ],
      "name": "at",
      "outputs": [
        {
          "internalType": "uint256",
          "name": "",
          "type": "uint256"
        }
      ],
      "stateMutability": "view",
      "type": "function"
    },
    {
      "inputs": [
        {
          "internalType": "uint256",
          "name": "value",
          "type": "uint256"
        }
      ],
      "name": "contains",
      "outputs": [
        {
          "internalType": "bool",
          "name": "",
          "type": "bool"
        }
      ],
      "stateMutability": "view",
      "type": "function"
    },
    {
      "inputs": [
        {
          "internalType": "uint256",
          "name": "value",
          "type": "uint256"
        }
      ],
      "name": "indexOf",
      "outputs": [
        {
          "internalType": "uint256",
          "name": "",
          "type": "uint256"
        }
      ],
      "stateMutability": "view",
      "type": "function"
    },
    {
      "inputs": [],
      "name": "length",
      "outputs": [
        {
          "internalType": "uint256",
          "name": "",
          "type": "uint256"
        }
      ],
      "stateMutability": "view",
      "type": "function"
    },
    {
      "inputs": [
        {
          "internalType": "uint256",
          "name": "value",
          "type": "uint256"
        }
      ],
      "name": "remove",
      "outputs": [
        {
          "internalType": "bool",
          "name": "",
          "type": "bool"
        }
      ],
      "stateMutability": "nonpayable",
      "type": "function"
    },
    {
      "inputs": [],
      "name": "toArray",
      "outputs": [
        {
          "internalType": "uint256[]",
          "name": "",
          "type": "uint256[]"
        }
      ],
      "stateMutability": "view",
      "type": "function"
    }
  ],
  "bytecode": {
    "object": "0x6080806040523461001657610408908161001c8239f35b600080fdfe6040608081526004908136101561001557600080fd5b600091823560e01c80631003e2d2146102ee5780631f7b6d32146102d15780634cc82215146101f8578063908ff3031461011c57806391ac7e65146100f0578063c34052e0146100b65763e0886f901461006e57600080fd5b346100b25760203660031901126100b257803592548310156100a45750610096602092610388565b91905490519160031b1c8152f35b905163e637bf3b60e01b8152fd5b8280fd5b5091346100ed5760203660031901126100ed57506100e4602092356000526001602052604060002054151590565b90519015158152f35b80fd5b50346100b25760203660031901126100b257916020923581526001835281600019912054019051908152f35b5091346100ed57806003193601126100ed5781518091805493848352602080930180958380527f290decd9548b62a8d60345a988386fc84ba6bc95484008f6362f93160ef3e56390845b868282106101e45750505050849003601f01601f191684019567ffffffffffffffff8711858810176101d1575085815282865292518583018190528594938501939290915b8281106101ba57505050500390f35b8351855286955093810193928101926001016101ab565b634e487b7160e01b835260419052602482fd5b835485529093019260019283019201610166565b509190346102cd5760203660031901126102cd5782359180928082526001602052828220548061022f575b60208585519015158152f35b90919293506000199061024482855401610388565b90549060031b1c8061027161025a858501610388565b819391549060031b91821b91600019901b19161790565b90558452600160205284842055825480156102ba576020955081019061029682610388565b909182549160031b1b19169055825581526001835281812055600190388080610223565b634e487b7160e01b845260318652602484fd5b5080fd5b5050346102cd57816003193601126102cd57602091549051908152f35b509190346102cd5760203660031901126102cd5782358261031c826000526001602052604060002054151590565b1561032e575b60208484519015158152f35b809192935054680100000000000000008110156103755760209450908261035e61025a8460018896018555610388565b905580549281526001855220556001903880610322565b634e487b7160e01b825260418552602482fd5b9060009182548110156103be578280527f290decd9548b62a8d60345a988386fc84ba6bc95484008f6362f93160ef3e563019190565b634e487b7160e01b83526032600452602483fdfea2646970667358221220dce6606c61ca15f098f8b699cd203918496a99137e0b44e43a38cbc104c19cc964736f6c63430008130033",
    "linkReferences": {}
  },
  "methodIdentifiers": {
    "add(uint256)": "1003e2d2",
    "at(uint256)": "e0886f90",
    "contains(uint256)": "c34052e0",
    "indexOf(uint256)": "91ac7e65",
    "length()": "1f7b6d32",
    "remove(uint256)": "4cc82215",
    "toArray()": "908ff303"
  },
  "id": 300
}