{
  "abi": [
    {
      "inputs": [
        {
          "internalType": "string",
          "name": "tokenId",
          "type": "string"
        },
        {
          "internalType": "string",
          "name": "imageUrl",
          "type": "string"
        },
        {
          "internalType": "string",
          "name": "tokenLevelString",
          "type": "string"
        },
        {
          "internalType": "string",
          "name": "tokenPointString",
          "type": "string"
        },
        {
          "internalType": "string",
          "name": "pilotString",
          "type": "string"
        }
      ],
      "name": "generateTokenMetadata",
      "outputs": [
        {
          "internalType": "string",
          "name": "",
          "type": "string"
        }
      ],
      "stateMutability": "pure",
      "type": "function"
    }
  ],
  "bytecode": {
    "object": "0x608080604052346100165761061c908161001c8239f35b600080fdfe608060405260048036101561001357600080fd5b6000803560e01c63840fba671461002957600080fd5b346100d85760a03660031901126100d85767ffffffffffffffff82358181116100e7576100599036908501610144565b926024358281116100e3576100719036908301610144565b906044358381116100df576100899036908301610144565b926064358181116100db576100a19036908401610144565b946084359182116100d8576100d46100c8888888886100c236898b01610144565b936101f6565b604051918291826101b3565b0390f35b80fd5b8580fd5b8480fd5b8380fd5b8280fd5b634e487b7160e01b600052604160045260246000fd5b90601f8019910116810190811067ffffffffffffffff82111761012357604052565b6100eb565b67ffffffffffffffff811161012357601f01601f191660200190565b81601f8201121561018b5780359061015b82610128565b926101696040519485610101565b8284526020838301011161018b57816000926020809301838601378301015290565b600080fd5b60005b8381106101a35750506000910152565b8181015183820152602001610193565b604091602082526101d38151809281602086015260208686019101610190565b601f01601f1916010190565b906101f260209282815194859201610190565b0190565b929093916040519485946a7b226e616d65223a20222360a81b602087015280519081602b8801916020019161022a92610190565b61088b60f21b602b91870191820152602d01691134b6b0b3b2911d101160b11b8152600a01610258916101df565b61088b60f21b81526002016e2261747472696275746573223a205b60881b8152600f01607b60f81b815260010175089d1c985a5d17dd1e5c19488e880893195d995b088b60521b8152601601680113b30b63ab2911d160bd1b81526009016102bf916101df565b611f4b60f21b8152600201607b60f81b815260010175089d1c985a5d17dd1e5c19488e8808941bda5b9d088b60521b8152601601680113b30b63ab2911d160bd1b815260090161030e916101df565b611f4b60f21b8152600201607b60f81b815260010175089d1c985a5d17dd1e5c19488e8808941a5b1bdd088b60521b815260160169113b30b63ab2911d101160b11b8152600a0161035e916101df565b601160f91b8152600101607d60f81b8152600101615d7d60f01b81526002010390601f199182810182526103929082610101565b61039b906104fd565b6040517f646174613a6170706c69636174696f6e2f6a736f6e3b6261736536342c000000602082015291908290603d82016103d5916101df565b0390810182526103e59082610101565b90565b604051906020820182811067ffffffffffffffff8211176101235760405260008252565b604051906060820182811067ffffffffffffffff82111761012357604052604082527f6768696a6b6c6d6e6f707172737475767778797a303132333435363738392b2f6040837f4142434445464748494a4b4c4d4e4f505152535455565758595a61626364656660208201520152565b634e487b7160e01b600052601160045260246000fd5b90600282018092116104a057565b61047c565b90602082018092116104a057565b600281901b91906001600160fe1b038116036104a057565b906104d582610128565b6104e26040519182610101565b82815280926104f3601f1991610128565b0190602036910137565b8051156105dd5761050c61040c565b61052861052361051c8451610492565b6003900490565b6104b3565b9161053a610535846104a5565b6104cb565b92835280815182019060208501935b82821061058b5750505060039051068060011461057a5760021461056b575090565b603d60f81b6000199091015290565b50613d3d60f01b6001199091015290565b9091936004906003809401938451600190603f9082828260121c16880101518553828282600c1c16880101518386015382828260061c1688010151600286015316850101519082015301939190610549565b506103e56103e856fea264697066735822122083c393fb99ed67b6bd0e86ea6928ad446c989ebd700dbfbeaa4f4dcc49940f3f64736f6c63430008130033",
    "linkReferences": {}
  },
  "methodIdentifiers": {
    "generateTokenMetadata(string,string,string,string,string)": "840fba67"
  },
  "id": 2
}