{
  "abi": [
    {
      "inputs": [
        {
          "internalType": "string",
          "name": "baseURI",
          "type": "string"
        },
        {
          "internalType": "string",
          "name": "name",
          "type": "string"
        },
        {
          "internalType": "string",
          "name": "symbol",
          "type": "string"
        }
      ],
      "stateMutability": "nonpayable",
      "type": "constructor"
    },
    {
      "anonymous": false,
      "inputs": [
        {
          "indexed": true,
          "internalType": "address",
          "name": "owner",
          "type": "address"
        },
        {
          "indexed": true,
          "internalType": "address",
          "name": "approved",
          "type": "address"
        },
        {
          "indexed": true,
          "internalType": "uint256",
          "name": "tokenId",
          "type": "uint256"
        }
      ],
      "name": "Approval",
      "type": "event"
    },
    {
      "anonymous": false,
      "inputs": [
        {
          "indexed": true,
          "internalType": "address",
          "name": "owner",
          "type": "address"
        },
        {
          "indexed": true,
          "internalType": "address",
          "name": "operator",
          "type": "address"
        },
        {
          "indexed": false,
          "internalType": "bool",
          "name": "approved",
          "type": "bool"
        }
      ],
      "name": "ApprovalForAll",
      "type": "event"
    },
    {
      "anonymous": false,
      "inputs": [
        {
          "indexed": true,
          "internalType": "address",
          "name": "from",
          "type": "address"
        },
        {
          "indexed": true,
          "internalType": "address",
          "name": "to",
          "type": "address"
        },
        {
          "indexed": true,
          "internalType": "uint256",
          "name": "tokenId",
          "type": "uint256"
        }
      ],
      "name": "Transfer",
      "type": "event"
    },
    {
      "inputs": [
        {
          "internalType": "address",
          "name": "to",
          "type": "address"
        }
      ],
      "name": "airdrop",
      "outputs": [],
      "stateMutability": "nonpayable",
      "type": "function"
    },
    {
      "inputs": [
        {
          "internalType": "address",
          "name": "to",
          "type": "address"
        },
        {
          "internalType": "uint256",
          "name": "tokenId",
          "type": "uint256"
        }
      ],
      "name": "approve",
      "outputs": [],
      "stateMutability": "nonpayable",
      "type": "function"
    },
    {
      "inputs": [
        {
          "internalType": "address",
          "name": "owner",
          "type": "address"
        }
      ],
      "name": "balanceOf",
      "outputs": [
        {
          "internalType": "uint256",
          "name": "",
          "type": "uint256"
        }
      ],
      "stateMutability": "view",
      "type": "function"
    },
    {
      "inputs": [
        {
          "internalType": "uint256",
          "name": "tokenId",
          "type": "uint256"
        }
      ],
      "name": "getApproved",
      "outputs": [
        {
          "internalType": "address",
          "name": "",
          "type": "address"
        }
      ],
      "stateMutability": "view",
      "type": "function"
    },
    {
      "inputs": [
        {
          "internalType": "address",
          "name": "owner",
          "type": "address"
        },
        {
          "internalType": "address",
          "name": "operator",
          "type": "address"
        }
      ],
      "name": "isApprovedForAll",
      "outputs": [
        {
          "internalType": "bool",
          "name": "",
          "type": "bool"
        }
      ],
      "stateMutability": "view",
      "type": "function"
    },
    {
      "inputs": [],
      "name": "name",
      "outputs": [
        {
          "internalType": "string",
          "name": "",
          "type": "string"
        }
      ],
      "stateMutability": "view",
      "type": "function"
    },
    {
      "inputs": [
        {
          "internalType": "uint256",
          "name": "tokenId",
          "type": "uint256"
        }
      ],
      "name": "ownerOf",
      "outputs": [
        {
          "internalType": "address",
          "name": "",
          "type": "address"
        }
      ],
      "stateMutability": "view",
      "type": "function"
    },
    {
      "inputs": [
        {
          "internalType": "address",
          "name": "to",
          "type": "address"
        }
      ],
      "name": "publicMint",
      "outputs": [],
      "stateMutability": "payable",
      "type": "function"
    },
    {
      "inputs": [
        {
          "internalType": "string",
          "name": "baseURI",
          "type": "string"
        }
      ],
      "name": "registerImageBaseURI",
      "outputs": [],
      "stateMutability": "nonpayable",
      "type": "function"
    },
    {
      "inputs": [
        {
          "internalType": "address",
          "name": "from",
          "type": "address"
        },
        {
          "internalType": "address",
          "name": "to",
          "type": "address"
        },
        {
          "internalType": "uint256",
          "name": "tokenId",
          "type": "uint256"
        }
      ],
      "name": "safeTransferFrom",
      "outputs": [],
      "stateMutability": "nonpayable",
      "type": "function"
    },
    {
      "inputs": [
        {
          "internalType": "address",
          "name": "from",
          "type": "address"
        },
        {
          "internalType": "address",
          "name": "to",
          "type": "address"
        },
        {
          "internalType": "uint256",
          "name": "tokenId",
          "type": "uint256"
        },
        {
          "internalType": "bytes",
          "name": "data",
          "type": "bytes"
        }
      ],
      "name": "safeTransferFrom",
      "outputs": [],
      "stateMutability": "nonpayable",
      "type": "function"
    },
    {
      "inputs": [
        {
          "internalType": "address",
          "name": "operator",
          "type": "address"
        },
        {
          "internalType": "bool",
          "name": "approved",
          "type": "bool"
        }
      ],
      "name": "setApprovalForAll",
      "outputs": [],
      "stateMutability": "nonpayable",
      "type": "function"
    },
    {
      "inputs": [
        {
          "internalType": "bytes4",
          "name": "interfaceId",
          "type": "bytes4"
        }
      ],
      "name": "supportsInterface",
      "outputs": [
        {
          "internalType": "bool",
          "name": "",
          "type": "bool"
        }
      ],
      "stateMutability": "view",
      "type": "function"
    },
    {
      "inputs": [],
      "name": "symbol",
      "outputs": [
        {
          "internalType": "string",
          "name": "",
          "type": "string"
        }
      ],
      "stateMutability": "view",
      "type": "function"
    },
    {
      "inputs": [
        {
          "internalType": "uint256",
          "name": "index",
          "type": "uint256"
        }
      ],
      "name": "tokenByIndex",
      "outputs": [
        {
          "internalType": "uint256",
          "name": "",
          "type": "uint256"
        }
      ],
      "stateMutability": "view",
      "type": "function"
    },
    {
      "inputs": [
        {
          "internalType": "address",
          "name": "owner",
          "type": "address"
        },
        {
          "internalType": "uint256",
          "name": "index",
          "type": "uint256"
        }
      ],
      "name": "tokenOfOwnerByIndex",
      "outputs": [
        {
          "internalType": "uint256",
          "name": "",
          "type": "uint256"
        }
      ],
      "stateMutability": "view",
      "type": "function"
    },
    {
      "inputs": [
        {
          "internalType": "uint256",
          "name": "tokenId",
          "type": "uint256"
        }
      ],
      "name": "tokenURI",
      "outputs": [
        {
          "internalType": "string",
          "name": "",
          "type": "string"
        }
      ],
      "stateMutability": "view",
      "type": "function"
    },
    {
      "inputs": [],
      "name": "totalSupply",
      "outputs": [
        {
          "internalType": "uint256",
          "name": "",
          "type": "uint256"
        }
      ],
      "stateMutability": "view",
      "type": "function"
    },
    {
      "inputs": [
        {
          "internalType": "address",
          "name": "from",
          "type": "address"
        },
        {
          "internalType": "address",
          "name": "to",
          "type": "address"
        },
        {
          "internalType": "uint256",
          "name": "tokenId",
          "type": "uint256"
        }
      ],
      "name": "transferFrom",
      "outputs": [],
      "stateMutability": "nonpayable",
      "type": "function"
    }
  ],
  "bytecode": {
    "object": "0x6080604052346200047a576200227b803803806200001d816200047f565b92833981016060828203126200047a5781516001600160401b0391908281116200047a57816200004f918501620004a5565b602093848101518481116200047a57836200006c918301620004a5565b9260408201518581116200047a57620000869201620004a5565b9082519184831162000464576000908154936001958686811c9616801562000459575b8987101462000363578190601f9687811162000406575b508990878311600114620003a257859262000396575b5050600019600383901b1c191690861b1782555b805190868211620003825785548681811c9116801562000377575b89821014620003635790818684931162000310575b508890868311600114620002ac578492620002a0575b5050600019600383901b1c191690851b1784555b81519485116200028c57600a548481811c9116801562000281575b878210146200026d5783811162000224575b5085928511600114620001bb579394508492919083620001af575b50501b916000199060031b1c191617600a555b604051611d639081620005188239f35b0151925038806200018c565b600a815285812093958591601f198316915b88838310620002095750505010620001ef575b505050811b01600a556200019f565b015160001960f88460031b161c19169055388080620001e0565b858701518855909601959485019487935090810190620001cd565b600a82528682208480880160051c82019289891062000263575b0160051c019085905b8281106200025757505062000171565b83815501859062000247565b925081926200023e565b634e487b7160e01b82526022600452602482fd5b90607f16906200015f565b634e487b7160e01b81526041600452602490fd5b01519050388062000130565b8785528985208894509190601f198416865b8c828210620002f95750508411620002df575b505050811b01845562000144565b015160001960f88460031b161c19169055388080620002d1565b8385015186558b97909501949384019301620002be565b9091508684528884208680850160051c8201928b861062000359575b918991869594930160051c01915b8281106200034a5750506200011a565b8681558594508991016200033a565b925081926200032c565b634e487b7160e01b84526022600452602484fd5b90607f169062000105565b634e487b7160e01b83526041600452602483fd5b015190503880620000d6565b8580528a86208994509190601f198416875b8d828210620003ef5750508411620003d5575b505050811b018255620000ea565b015160001960f88460031b161c19169055388080620003c7565b8385015186558c97909501949384019301620003b4565b9091508480528985208780850160051c8201928c86106200044f575b918a91869594930160051c01915b82811062000440575050620000c0565b8781558594508a910162000430565b9250819262000422565b95607f1695620000a9565b634e487b7160e01b600052604160045260246000fd5b600080fd5b6040519190601f01601f191682016001600160401b038111838210176200046457604052565b919080601f840112156200047a5782516001600160401b0381116200046457602090620004db601f8201601f191683016200047f565b928184528282870101116200047a5760005b8181106200050357508260009394955001015290565b8581018301518482018401528201620004ed56fe6080604052600436101561001257600080fd5b60003560e01c806301ffc9a71461014757806306fdde0314610142578063081812fc1461013d578063095ea7b31461013857806318160ddd1461013357806321860a051461012e57806323b872dd146101295780632f745c591461012457806332a93a3a1461011f57806342842e0e1461011a5780634f6ccce7146101155780636352211e146101105780636d17f3151461010b57806370a082311461010657806395d89b4114610101578063a22cb465146100fc578063b88d4fde146100f7578063c87b56dd146100f25763e985e9c5146100ed57600080fd5b610cc5565b610b25565b610ac5565b6109d9565b610934565b610909565b6107dd565b610713565b610668565b610640565b6105c8565b610515565b6104ec565b61047a565b61045c565b610386565b61032a565b610247565b610163565b6001600160e01b031981160361015e57565b600080fd5b3461015e57602036600319011261015e5760206004356101828161014c565b63ffffffff60e01b1663780e9d6360e01b81149081156101a8575b506040519015158152f35b6380ac58cd60e01b8114915081156101da575b81156101c9575b503861019d565b6301ffc9a760e01b149050386101c2565b635b5e139f60e01b811491506101bb565b60005b8381106101fe5750506000910152565b81810151838201526020016101ee565b90602091610227815180928185528580860191016101eb565b601f01601f1916010190565b90602061024492818152019061020e565b90565b3461015e57600080600319360112610327576040519080805461026981610d54565b808552916001918083169081156102fd57506001146102a3575b61029f8561029381870382610768565b60405191829182610233565b0390f35b80809450527f290decd9548b62a8d60345a988386fc84ba6bc95484008f6362f93160ef3e5635b8284106102e55750505081016020016102938261029f610283565b805460208587018101919091529093019281016102ca565b86955061029f9693506020925061029394915060ff191682840152151560051b8201019293610283565b80fd5b3461015e57602036600319011261015e576020610348600435611236565b6040516001600160a01b039091168152f35b600435906001600160a01b038216820361015e57565b602435906001600160a01b038216820361015e57565b3461015e57604036600319011261015e5761039f61035a565b6024356103ab816111a1565b916001600160a01b03808416908216811461040d576103dd936103d89133149081156103df575b506111c4565b61173c565b005b6001600160a01b0316600090815260056020908152604080832033845290915290205460ff169050386103d2565b60405162461bcd60e51b815260206004820152602160248201527f4552433732313a20617070726f76616c20746f2063757272656e74206f776e656044820152603960f91b6064820152608490fd5b3461015e57600036600319011261015e576020600854604051908152f35b3461015e57602036600319011261015e5761049361035a565b61049b61105b565b600854600181018091116104b2576103dd916113f3565b610d22565b606090600319011261015e576001600160a01b0390600435828116810361015e5791602435908116810361015e579060443590565b3461015e576103dd6104fd366104b7565b9161051061050b843361137b565b611274565b6115e7565b3461015e57604036600319011261015e5761052e61035a565b6024359061053b816110de565b82101561056f576001600160a01b031660009081526006602090815260408083209383529281529082902054915191825290f35b60405162461bcd60e51b815260206004820152602b60248201527f455243373231456e756d657261626c653a206f776e657220696e646578206f7560448201526a74206f6620626f756e647360a81b6064820152608490fd5b602036600319011261015e576105dc61035a565b601934106105fb57600854600181018091116104b2576103dd916113f3565b60405162461bcd60e51b815260206004820152601a60248201527f426162794d657263733a203235206574682072657175697265640000000000006044820152606490fd5b3461015e576103dd610651366104b7565b906040519261065f84610747565b600084526112d6565b3461015e57602036600319011261015e576004356008548110156106b95760086000527ff3f7a9fe364faab93b216da50a3214154f22a0a2b415b23a84c8169e8b636ee30154604051908152602090f35b60405162461bcd60e51b815260206004820152602c60248201527f455243373231456e756d657261626c653a20676c6f62616c20696e646578206f60448201526b7574206f6620626f756e647360a01b6064820152608490fd5b3461015e57602036600319011261015e5760206103486004356111a1565b634e487b7160e01b600052604160045260246000fd5b6020810190811067ffffffffffffffff82111761076357604052565b610731565b90601f8019910116810190811067ffffffffffffffff82111761076357604052565b67ffffffffffffffff811161076357601f01601f191660200190565b9291926107b28261078a565b916107c06040519384610768565b82948184528183011161015e578281602093846000960137010152565b3461015e5760208060031936011261015e5767ffffffffffffffff60043581811161015e573660238201121561015e576108219036906024816004013591016107a6565b9161082a61105b565b82519182116107635761084782610842600a54610d54565b610d8e565b80601f831160011461088257508192600092610877575b5050600019600383901b1c191660019190911b17600a55005b01519050388061085e565b90601f198316936108b5600a6000527fc65a7bb8d6351c1cf70c95a316cc6a92839c986682d98bc35f958f4883f9d2a890565b926000905b8682106108f157505083600195106108d8575b505050811b01600a55005b015160001960f88460031b161c191690553880806108cd565b806001859682949686015181550195019301906108ba565b3461015e57602036600319011261015e57602061092c61092761035a565b6110de565b604051908152f35b3461015e57600080600319360112610327576040519080600180549161095983610d54565b808652928281169081156102fd575060011461097f5761029f8561029381870382610768565b92508083527fb10e2d527612073b26eecdfd717e6a320cf44b4afac2b0732d9fcbe2b7fa0cf65b8284106109c15750505081016020016102938261029f610283565b805460208587018101919091529093019281016109a6565b3461015e57604036600319011261015e576109f261035a565b602435801515810361015e576001600160a01b03821691338314610a805781610a3d610a4e9233600052600560205260406000209060018060a01b0316600052602052604060002090565b9060ff801983541691151516179055565b604051901515815233907f17307eab39ab6107e8899845ad3d59bd9653f200f220920489ca2b5937696c3190602090a3005b60405162461bcd60e51b815260206004820152601960248201527f4552433732313a20617070726f766520746f2063616c6c6572000000000000006044820152606490fd5b3461015e57608036600319011261015e57610ade61035a565b610ae6610370565b6064359167ffffffffffffffff831161015e573660238401121561015e57610b1b6103dd9336906024816004013591016107a6565b91604435916112d6565b3461015e57602036600319011261015e576004356000818152600260205260409020546001600160a01b031615610c7057610c64610293610b9f610c2f610bec610c2a86610c1e610c10610b84610b7e61029f9b611bea565b93611bea565b610baf604051988992610b9960208501610dff565b90610e8e565b632e706e6760e01b815260040190565b0396610bc3601f1998898101835282610768565b6040516a7b226e616d65223a20222360a81b6020820152958694610b9991610bfa91602b880184565b61088b60f21b815260020190565b691134b6b0b3b2911d101160b11b8152600a0190565b61227d60f01b815260020190565b03848101835282610768565b610f72565b6040517f646174613a6170706c69636174696f6e2f6a736f6e3b6261736536342c0000006020820152938491603d8301610b99565b03908101835282610768565b60405162461bcd60e51b815260206004820152602760248201527f4552433732313a2055524920717565727920666f72206e6f6e6578697374656e6044820152663a103a37b5b2b760c91b6064820152608490fd5b3461015e57604036600319011261015e57602060ff610d16610ce561035a565b610ced610370565b6001600160a01b0391821660009081526005865260408082209290931681526020919091522090565b54166040519015158152f35b634e487b7160e01b600052601160045260246000fd5b90600282018092116104b257565b90602082018092116104b257565b90600182811c92168015610d84575b6020831014610d6e57565b634e487b7160e01b600052602260045260246000fd5b91607f1691610d63565b601f8111610d9a575050565b600090600a82527fc65a7bb8d6351c1cf70c95a316cc6a92839c986682d98bc35f958f4883f9d2a8906020601f850160051c83019410610df5575b601f0160051c01915b828110610dea57505050565b818155600101610dde565b9092508290610dd5565b600a5460009291610e0f82610d54565b91600190818116908115610e7b5750600114610e2a57505050565b9091929350600a6000527fc65a7bb8d6351c1cf70c95a316cc6a92839c986682d98bc35f958f4883f9d2a8906000915b848310610e68575050500190565b8181602092548587015201920191610e5a565b60ff191683525050811515909102019150565b90610ea1602092828151948592016101eb565b0190565b60405190610eb282610747565b60008252565b604051906060820182811067ffffffffffffffff82111761076357604052604082527f6768696a6b6c6d6e6f707172737475767778797a303132333435363738392b2f6040837f4142434445464748494a4b4c4d4e4f505152535455565758595a61626364656660208201520152565b600281901b91906001600160fe1b038116036104b257565b90610f4a8261078a565b610f576040519182610768565b8281528092610f68601f199161078a565b0190602036910137565b80511561105257610f81610eb8565b610f9d610f98610f918451610d38565b6003900490565b610f28565b91610faf610faa84610d46565b610f40565b92835280815182019060208501935b82821061100057505050600390510680600114610fef57600214610fe0575090565b603d60f81b6000199091015290565b50613d3d60f01b6001199091015290565b9091936004906003809401938451600190603f9082828260121c16880101518553828282600c1c16880101518386015382828260061c1688010151600286015316850101519082015301939190610fbe565b50610244610ea5565b7fc8fcad8db84d3cc18b4c41d551ea0ee66dd599cde068d998e57d5e09332c1320546001600160a01b0316330361108e57565b60405162461bcd60e51b815260206004820152602260248201527f4c69624469616d6f6e643a204d75737420626520636f6e7472616374206f776e60448201526132b960f11b6064820152608490fd5b6001600160a01b031680156110fe57600052600360205260406000205490565b60405162461bcd60e51b815260206004820152602960248201527f4552433732313a2061646472657373207a65726f206973206e6f7420612076616044820152683634b21037bbb732b960b91b6064820152608490fd5b1561115c57565b60405162461bcd60e51b815260206004820152601860248201527f4552433732313a20696e76616c696420746f6b656e20494400000000000000006044820152606490fd5b6000908152600260205260409020546001600160a01b0316610244811515611155565b156111cb57565b60405162461bcd60e51b815260206004820152603d60248201527f4552433732313a20617070726f76652063616c6c6572206973206e6f7420746f60448201527f6b656e206f776e6572206f7220617070726f76656420666f7220616c6c0000006064820152608490fd5b600081815260026020526040902054611259906001600160a01b03161515611155565b6000908152600460205260409020546001600160a01b031690565b1561127b57565b60405162461bcd60e51b815260206004820152602d60248201527f4552433732313a2063616c6c6572206973206e6f7420746f6b656e206f776e6560448201526c1c881bdc88185c1c1c9bdd9959609a1b6064820152608490fd5b9161130293916112fd936112ed61050b843361137b565b6112f88383836115e7565b611902565b611357565b565b60809060208152603260208201527f4552433732313a207472616e7366657220746f206e6f6e20455243373231526560408201527131b2b4bb32b91034b6b83632b6b2b73a32b960711b60608201520190565b1561135e57565b60405162461bcd60e51b81528061137760048201611304565b0390fd5b6001600160a01b038061138d846111a1565b1692818316928484149485156113c3575b505083156113ad575b50505090565b6113b991929350611236565b16143880806113a7565b60009081526005602090815260408083206001600160a01b03949094168352929052205460ff169350388061139e565b9060405161140081610747565b600081526001600160a01b0383169182156114fd5761130293816112fd9461144661144083600052600260205260018060a01b0360406000205416151590565b15611541565b61144f82611aaa565b6114598284611a72565b60008281526002602052604090205461147c906001600160a01b03161515611440565b6001600160a01b0383166000908152600360205260409020600181540190556114d2836114b3846000526002602052604060002090565b80546001600160a01b0319166001600160a01b03909216919091179055565b60007fddf252ad1be2c89b69c2b068fc378daa952ba7f163c4a11628f55a4df523b3ef8180a4611841565b606460405162461bcd60e51b815260206004820152602060248201527f4552433732313a206d696e7420746f20746865207a65726f20616464726573736044820152fd5b1561154857565b60405162461bcd60e51b815260206004820152601c60248201527f4552433732313a20746f6b656e20616c7265616479206d696e746564000000006044820152606490fd5b1561159457565b60405162461bcd60e51b815260206004820152602560248201527f4552433732313a207472616e736665722066726f6d20696e636f72726563742060448201526437bbb732b960d91b6064820152608490fd5b61160b906115f4846111a1565b6001600160a01b038281169390918216841461158d565b83169283156116eb576116898261162687846116c496611954565b611648856116426116368a6111a1565b6001600160a01b031690565b1461158d565b61166f61165f886000526004602052604060002090565b80546001600160a01b0319169055565b6001600160a01b0316600090815260036020526040902090565b80546000190190556001600160a01b0381166000908152600360205260409020600181540190556114b3856000526002602052604060002090565b7fddf252ad1be2c89b69c2b068fc378daa952ba7f163c4a11628f55a4df523b3ef600080a4565b60405162461bcd60e51b8152602060048201526024808201527f4552433732313a207472616e7366657220746f20746865207a65726f206164646044820152637265737360e01b6064820152608490fd5b600082815260046020526040902080546001600160a01b0319166001600160a01b0383161790556001600160a01b0380611775846111a1565b169116907f8c5be1e5ebec7d5bd14f71427d1e84f3dd0314c0f7b2291e5b200ac8c7c3b925600080a4565b9081602091031261015e57516102448161014c565b610244939260809260018060a01b03168252600060208301526040820152816060820152019061020e565b6001600160a01b0391821681529116602082015260408101919091526080606082018190526102449291019061020e565b3d1561183c573d906118228261078a565b916118306040519384610768565b82523d6000602084013e565b606090565b909190803b156118fa57611873602091600093604051948580948193630a85bd0160e11b998a845233600485016117b5565b03926001600160a01b03165af1600091816118ca575b506118bc57611896611811565b805190816118b75760405162461bcd60e51b81528061137760048201611304565b602001fd5b6001600160e01b0319161490565b6118ec91925060203d81116118f3575b6118e48183610768565b8101906117a0565b9038611889565b503d6118da565b505050600190565b92909190823b1561193557611873926020926000604051809681958294630a85bd0160e11b9a8b855233600486016117e0565b50505050600190565b634e487b7160e01b600052603260045260246000fd5b9091906001600160a01b038082169182611997575061197283611aaa565b8316806119855750506113029150611b0c565b0361198e575050565b61130291611a72565b81851683036119a7575b50611972565b6119b0816110de565b60001981019081116104b257611a0860009286845260076020526040842054838103611a19575b50836119ed886000526007602052604060002090565b556001600160a01b0316600090815260066020526040902090565b9082526020526040812055386119a1565b868552600660205260408520848652602052611a6b6040862054611a4f8460018060a01b03166000526006602052604060002090565b8388526020528060408820556000526007602052604060002090565b55386119d7565b604090611a7e816110de565b9260009160018060a01b0316825260066020528282208483526020528083832055815260076020522055565b6008548160005260096020528060406000205568010000000000000000811015610763576001810180600855811015611b075760086000527ff3f7a9fe364faab93b216da50a3214154f22a0a2b415b23a84c8169e8b636ee30155565b61193e565b60088054600019928382018281116104b2576000928284526009602052806040852054921015611b07578484527ff3f7a9fe364faab93b216da50a3214154f22a0a2b415b23a84c8169e8b636ee2928382015491831015611b07578492611ba8611bb99388865280837ff3f7a9fe364faab93b216da50a3214154f22a0a2b415b23a84c8169e8b636ee301556000526009602052604060002090565b556000526009602052604060002090565b558254938415611bd65784019380851015611b0757838352015555565b634e487b7160e01b83526031600452602483fd5b806000917a184f03e93ff9f4daa797ed6e38ed64bf6a1f01000000000000000080821015611d1f575b506d04ee2d6d415b85acef810000000080831015611d10575b50662386f26fc1000080831015611d01575b506305f5e10080831015611cf2575b5061271080831015611ce3575b506064821015611cd3575b600a80921015611cc9575b600190816021611c81828701610f40565b95860101905b611c93575b5050505090565b600019019083906f181899199a1a9b1b9c1cb0b131b232b360811b8282061a835304918215611cc457919082611c87565b611c8c565b9160010191611c70565b9190606460029104910191611c65565b60049193920491019138611c5a565b60089193920491019138611c4d565b60109193920491019138611c3e565b60209193920491019138611c2c565b604093508104915038611c1356fea2646970667358221220c3b843b197665888beca969459efc945339f8ef9f87df891b5f40dcc34d8d2c964736f6c63430008130033",
    "linkReferences": {}
  },
  "methodIdentifiers": {
    "airdrop(address)": "21860a05",
    "approve(address,uint256)": "095ea7b3",
    "balanceOf(address)": "70a08231",
    "getApproved(uint256)": "081812fc",
    "isApprovedForAll(address,address)": "e985e9c5",
    "name()": "06fdde03",
    "ownerOf(uint256)": "6352211e",
    "publicMint(address)": "32a93a3a",
    "registerImageBaseURI(string)": "6d17f315",
    "safeTransferFrom(address,address,uint256)": "42842e0e",
    "safeTransferFrom(address,address,uint256,bytes)": "b88d4fde",
    "setApprovalForAll(address,bool)": "a22cb465",
    "supportsInterface(bytes4)": "01ffc9a7",
    "symbol()": "95d89b41",
    "tokenByIndex(uint256)": "4f6ccce7",
    "tokenOfOwnerByIndex(address,uint256)": "2f745c59",
    "tokenURI(uint256)": "c87b56dd",
    "totalSupply()": "18160ddd",
    "transferFrom(address,address,uint256)": "23b872dd"
  },
  "id": 530
}