{
  "abi": [
    {
      "inputs": [],
      "stateMutability": "nonpayable",
      "type": "constructor"
    },
    {
      "inputs": [],
      "name": "DiamondWritable__InvalidInitializationParameters",
      "type": "error"
    },
    {
      "inputs": [],
      "name": "DiamondWritable__RemoveTargetNotZeroAddress",
      "type": "error"
    },
    {
      "inputs": [],
      "name": "DiamondWritable__ReplaceTargetIsIdentical",
      "type": "error"
    },
    {
      "inputs": [],
      "name": "DiamondWritable__SelectorAlreadyAdded",
      "type": "error"
    },
    {
      "inputs": [],
      "name": "DiamondWritable__SelectorIsImmutable",
      "type": "error"
    },
    {
      "inputs": [],
      "name": "DiamondWritable__SelectorNotFound",
      "type": "error"
    },
    {
      "inputs": [],
      "name": "DiamondWritable__SelectorNotSpecified",
      "type": "error"
    },
    {
      "inputs": [],
      "name": "DiamondWritable__TargetHasNoCode",
      "type": "error"
    },
    {
      "inputs": [],
      "name": "ERC165Base__InvalidInterfaceId",
      "type": "error"
    },
    {
      "inputs": [],
      "name": "Ownable__NotOwner",
      "type": "error"
    },
    {
      "inputs": [],
      "name": "Ownable__NotTransitiveOwner",
      "type": "error"
    },
    {
      "inputs": [],
      "name": "Proxy__ImplementationIsNotContract",
      "type": "error"
    },
    {
      "anonymous": false,
      "inputs": [
        {
          "components": [
            {
              "internalType": "address",
              "name": "target",
              "type": "address"
            },
            {
              "internalType": "enum IDiamondWritableInternal.FacetCutAction",
              "name": "action",
              "type": "uint8"
            },
            {
              "internalType": "bytes4[]",
              "name": "selectors",
              "type": "bytes4[]"
            }
          ],
          "indexed": false,
          "internalType": "struct IDiamondWritableInternal.FacetCut[]",
          "name": "facetCuts",
          "type": "tuple[]"
        },
        {
          "indexed": false,
          "internalType": "address",
          "name": "target",
          "type": "address"
        },
        {
          "indexed": false,
          "internalType": "bytes",
          "name": "data",
          "type": "bytes"
        }
      ],
      "name": "DiamondCut",
      "type": "event"
    },
    {
      "anonymous": false,
      "inputs": [
        {
          "indexed": true,
          "internalType": "address",
          "name": "previousOwner",
          "type": "address"
        },
        {
          "indexed": true,
          "internalType": "address",
          "name": "newOwner",
          "type": "address"
        }
      ],
      "name": "OwnershipTransferred",
      "type": "event"
    },
    {
      "stateMutability": "payable",
      "type": "fallback"
    },
    {
      "inputs": [
        {
          "components": [
            {
              "internalType": "address",
              "name": "target",
              "type": "address"
            },
            {
              "internalType": "enum IDiamondWritableInternal.FacetCutAction",
              "name": "action",
              "type": "uint8"
            },
            {
              "internalType": "bytes4[]",
              "name": "selectors",
              "type": "bytes4[]"
            }
          ],
          "internalType": "struct IDiamondWritableInternal.FacetCut[]",
          "name": "facetCuts",
          "type": "tuple[]"
        },
        {
          "internalType": "address",
          "name": "target",
          "type": "address"
        },
        {
          "internalType": "bytes",
          "name": "data",
          "type": "bytes"
        }
      ],
      "name": "diamondCut",
      "outputs": [],
      "stateMutability": "nonpayable",
      "type": "function"
    },
    {
      "inputs": [
        {
          "internalType": "bytes4",
          "name": "interfaceId",
          "type": "bytes4"
        }
      ],
      "name": "supportsInterface",
      "outputs": [
        {
          "internalType": "bool",
          "name": "",
          "type": "bool"
        }
      ],
      "stateMutability": "view",
      "type": "function"
    },
    {
      "stateMutability": "payable",
      "type": "receive"
    }
  ],
  "bytecode": {
    "object": "0x608080604052346100d5577f8a22373512790c48b83a1fe2efdd2888d4a917bcdc24d0adf63e60f671680460805460009190336001600160a01b0382167f8be0079c531659141344cd1fd0a4f28419497f9722a3daafe3b4186f6b6457e08580a36001600160a01b031916331790556301ffc9a760e01b81527ffc606c433378e3a7e0a6a531deac289b66caa1b4aa8554fd4ab2c6f1570f92d86020526040808220805460ff1990811660019081179092556307e4c70760e21b84529190922080549091169091179055610c6390816100db8239f35b600080fdfe60806040526004361015610015575b366101d357005b6000803560e01c90816301ffc9a7146100385750631f931c1c0361000e5761011f565b346100aa5760203660031901126100aa57600435906001600160e01b0319821682036100aa57602060ff61009e8463ffffffff60e01b166000527ffc606c433378e3a7e0a6a531deac289b66caa1b4aa8554fd4ab2c6f1570f92d8602052604060002090565b54166040519015158152f35b80fd5b35906001600160e01b0319821682036100c257565b600080fd5b602435906001600160a01b03821682036100c257565b35906001600160a01b03821682036100c257565b9181601f840112156100c25782359167ffffffffffffffff83116100c257602083818601950101116100c257565b346100c25760603660031901126100c25760043567ffffffffffffffff8082116100c257366023830112156100c2578160040135918183116100c2573660248460051b830101116100c2576101726100c7565b6044359283116100c2576101999361019060249436906004016100f1565b94909301610245565b005b63ffffffff60e01b166000527f177481ac65e4292921c69f62d1cc7f57541261e5d61c8175cf4e36a01c9bfc93602052604060002090565b600080356001600160e01b03191681527f177481ac65e4292921c69f62d1cc7f57541261e5d61c8175cf4e36a01c9bfc93602052604081205460601c803b1561023357818091368280378136915af43d82803e1561022f573d90f35b3d90fd5b6040516321f27f0d60e21b8152600490fd5b7f8a22373512790c48b83a1fe2efdd2888d4a917bcdc24d0adf63e60f6716804605493959491936001600160a01b031633036103995761028c6102878561040c565b6103e6565b9081948083526020809301600591821b8301923684116100c25780915b8483106102ce575050505050506102cc93946102c6913691610440565b9161061b565b565b67ffffffffffffffff83358181116100c25783016060813603126100c2576102f46103c1565b916102fe826100dd565b83528882013560038110156100c25789840152604091828101359182116100c257019036601f830112156100c25781359161033b6102878461040c565b928a808583815201918a1b830101913683116100c257918b80969492979593015b8181106103765750508495508201528152019201916102a9565b9193958091939597610387846100ad565b8152019101918b95939196949261035c565b604051632f7a8ee160e01b8152600490fd5b634e487b7160e01b600052604160045260246000fd5b604051906060820182811067ffffffffffffffff8211176103e157604052565b6103ab565b6040519190601f01601f1916820167ffffffffffffffff8111838210176103e157604052565b67ffffffffffffffff81116103e15760051b60200190565b67ffffffffffffffff81116103e157601f01601f191660200190565b92919261044f61028783610424565b93828552828201116100c257816000926020928387013784010152565b6000527f177481ac65e4292921c69f62d1cc7f57541261e5d61c8175cf4e36a01c9bfc95602052604060002090565b80518210156104af5760209160051b010190565b634e487b7160e01b600052603260045260246000fd5b600311156104cf57565b634e487b7160e01b600052602160045260246000fd5b919082519283825260005b848110610511575050826000602080949584010152601f8019910116010190565b6020818301810151848301820152016104f0565b93929093606092838201848352865180915260809485840191868160051b860101966020809a01936000915b8383106105865750505050505061057690610583959683019060018060a01b03169052565b60408184039101526104e5565b90565b909192939498607f198882030183528951908681019060018060a01b0383511681528d83015160038110156104cf57848f9493928592838201528a604080960151958201528451809452019201906000905b8082106105f75750505090806001929b01930193019194939290610551565b82516001600160e01b03191684528f949384019390920191600191909101906105d8565b92909261065461064d7f177481ac65e4292921c69f62d1cc7f57541261e5d61c8175cf4e36a01c9bfc945461ffff1690565b61ffff1690565b918293600095600785166107c7575b6000945b84518610156107265761067a868661049b565b5190602082015161068a816104c5565b604080840151511561071657506106a0816104c5565b806106be5750906001986106b3926107dc565b9790955b0194610667565b6106cb81989392986104c5565b600181036106e55750906106e0600192610abf565b6106b7565b806106f16002926104c5565b14610700575b506001906106b7565b60019861070d9297610920565b979095906106f7565b5163eb6c3aeb60e01b8152600490fd5b819491929550967f8faa70878671ccd212d20771b795c50af8fd3ff6cf27f4bde57e5d4de0aeb67393976102cc978103610792575b6007811661077e575b50506107768560405193849384610525565b0390a1610bb2565b61078a9060031c61046c565b553880610764565b7f177481ac65e4292921c69f62d1cc7f57541261e5d61c8175cf4e36a01c9bfc94805461ffff191661ffff831617905561075b565b95506107d58460031c61046c565b5495610663565b82519091906001600160a01b03166001600160a01b0381163014159081610916575b506109045760009384925b60408086015180518610156108f857610825866108339261049b565b516001600160e01b03191690565b9061086661085a6108546108468561019b565b546001600160601b03191690565b60601c90565b6001600160a01b031690565b6108e85750855182906001600160601b031990610897906001600160a01b03165b60601b6001600160601b03191690565b16176108a28261019b565b5560e090818360051b169463ffffffff60e01b809216861c91861c19161793146108d3575b60019384019301610809565b916108e08360031c61046c565b5584916108c7565b51634923a77160e11b8152600490fd5b50509250925092509190565b604051633ddc5cab60e21b8152600490fd5b3b159050386107fe565b82519293929091906001600160a01b0316610aad5790600780821691600390600090821c5b604095868901518051841015610a9e57610825846109629261049b565b9561096c8761019b565b54978860601c8015610a8d573014610a7d575081610a6b57505060001901906109948261046c565b5494849687915b60e063ffffffff811b9260006109c2858c600598891b1b16948681168603610a305761019b565b5580881c611fff16941b1691858414610a1e57906109f392916109e48561046c565b5491831c921c1916179161046c565b555b8515610a08575b60010190949394610945565b93506000610a158261046c565b556000936109fc565b9180949893501c921c191617936109f5565b610a4c610a3f6108468861019b565b6001600160601b03191690565b6bffffffffffffffffffffffff851617610a658761019b565b5561019b565b6000190196909591929187919061099b565b5163e983573160e01b8152600490fd5b81516337e25a9760e11b8152600490fd5b5097509394505090501b179190565b604051633ab3490960e21b8152600490fd5b80516001600160a01b03163b156109045760005b6040808301518051831015610b865761082583610aef9261049b565b90610af98261019b565b54908160601c8015610a8d57308114610b75578551610b20906001600160a01b031661085a565b14610b65575083516001939291610b5e916bffffffffffffffffffffffff90610b5590610a3f906001600160a01b0316610887565b9116179161019b565b5501610ad3565b516330baabf360e11b8152600490fd5b815163e983573160e01b8152600490fd5b50505050565b3d15610bad573d90610ba061028783610424565b9182523d6000602084013e565b606090565b81516001600160a01b03821690811590158103610c1b5715610bd357505050565b3003610c03575b816000929160208493519201905af4610bf1610b8c565b5015610bf957565b3d6000803e3d6000fd5b803b610bda57604051633ddc5cab60e21b8152600490fd5b6040516326df4ccd60e01b8152600490fdfea264697066735822122076d45f4e3a593198c3fd9cff1c9948d0b4099a0039c549fd59b8035b652ee0c164736f6c63430008130033",
    "linkReferences": {}
  },
  "methodIdentifiers": {
    "diamondCut((address,uint8,bytes4[])[],address,bytes)": "1f931c1c",
    "supportsInterface(bytes4)": "01ffc9a7"
  },
  "id": 364
}