{
  "abi": [
    {
      "inputs": [
        {
          "internalType": "bytes4",
          "name": "data",
          "type": "bytes4"
        }
      ],
      "name": "callSender",
      "outputs": [],
      "stateMutability": "nonpayable",
      "type": "function"
    }
  ],
  "bytecode": {
    "object": "0x608080604052346100165761016d908161001c8239f35b600080fdfe608060048036101561001057600080fd5b600091823560e01c630a2df1ed1461002757600080fd5b346101335760203660031901126101335781356001600160e01b03198116810361012f576020820190815282825267ffffffffffffffff9160408101838111828210176101035760405251849182919082335af1903d15610129573d8181116101165760405191601f8201601f19908116603f01168301908111838210176101035760405281528360203d92013e5b156100bf575080f35b60649060206040519162461bcd60e51b8352820152601d60248201527f5265656e7472616e637941747461636b3a206661696c65642063616c6c0000006044820152fd5b634e487b7160e01b865260418552602486fd5b634e487b7160e01b855260418452602485fd5b506100b6565b8380fd5b8280fdfea2646970667358221220085fe8c1e42ef0233de09b4cc82ebcf91310469342837a6cc0106051d316f18964736f6c63430008130033",
    "linkReferences": {}
  },
  "methodIdentifiers": {
    "callSender(bytes4)": "0a2df1ed"
  },
  "id": 67
}