{
  "abi": [
    {
      "inputs": [],
      "name": "Factory__FailedDeployment",
      "type": "error"
    },
    {
      "inputs": [
        {
          "internalType": "bytes32",
          "name": "salt",
          "type": "bytes32"
        }
      ],
      "name": "__calculateCloneDeploymentAddress",
      "outputs": [
        {
          "internalType": "address",
          "name": "",
          "type": "address"
        }
      ],
      "stateMutability": "view",
      "type": "function"
    },
    {
      "inputs": [],
      "name": "__deployClone",
      "outputs": [
        {
          "internalType": "address",
          "name": "cloneContract",
          "type": "address"
        }
      ],
      "stateMutability": "nonpayable",
      "type": "function"
    },
    {
      "inputs": [
        {
          "internalType": "bytes32",
          "name": "salt",
          "type": "bytes32"
        }
      ],
      "name": "__deployClone",
      "outputs": [
        {
          "internalType": "address",
          "name": "cloneContract",
          "type": "address"
        }
      ],
      "stateMutability": "nonpayable",
      "type": "function"
    }
  ],
  "bytecode": {
    "object": "0x60808060405234610016576101fd908161001c8239f35b600080fdfe6080604052600436101561001257600080fd5b60003560e01c8063130e568b146100475780634d3ca78a14610042576357eeec691461003d57600080fd5b61011f565b6100d1565b346100ba576100b6610058366100bf565b610060610190565b602081519101209060405191602083019160ff60f81b83523060601b602185015260358401526055830152605582526100988261016f565b905190206040516001600160a01b0390911681529081906020820190565b0390f35b600080fd5b60209060031901126100ba5760043590565b346100ba5760003660031901126100ba576100ea610190565b80516001600160a01b03916020016000f016801561010d57602090604051908152f35b60405163ef35ca1960e01b8152600490fd5b346100ba5761012d366100bf565b610135610190565b80516001600160a01b0392916020016000f516801561010d57602090604051908152f35b634e487b7160e01b600052604160045260246000fd5b6080810190811067ffffffffffffffff82111761018b57604052565b610159565b604051906040820182811067ffffffffffffffff82111761018b57604052600a82526958333b90818180333cf360b01b602083015256fea2646970667358221220be22ed0b6e669ed78c3347a051c5949fff95d91097011a3b43e9e57391f52cb964736f6c63430008130033",
    "linkReferences": {}
  },
  "methodIdentifiers": {
    "__calculateCloneDeploymentAddress(bytes32)": "130e568b",
    "__deployClone()": "4d3ca78a",
    "__deployClone(bytes32)": "57eeec69"
  },
  "id": 304
}