{
  "abi": [
    {
      "inputs": [
        {
          "internalType": "address",
          "name": "owner",
          "type": "address"
        }
      ],
      "stateMutability": "nonpayable",
      "type": "constructor"
    },
    {
      "inputs": [],
      "name": "Ownable__NotOwner",
      "type": "error"
    },
    {
      "inputs": [],
      "name": "Ownable__NotTransitiveOwner",
      "type": "error"
    },
    {
      "anonymous": false,
      "inputs": [
        {
          "indexed": true,
          "internalType": "address",
          "name": "previousOwner",
          "type": "address"
        },
        {
          "indexed": true,
          "internalType": "address",
          "name": "newOwner",
          "type": "address"
        }
      ],
      "name": "OwnershipTransferred",
      "type": "event"
    },
    {
      "inputs": [],
      "name": "__owner",
      "outputs": [
        {
          "internalType": "address",
          "name": "",
          "type": "address"
        }
      ],
      "stateMutability": "view",
      "type": "function"
    },
    {
      "inputs": [
        {
          "internalType": "address",
          "name": "owner",
          "type": "address"
        }
      ],
      "name": "__setOwner",
      "outputs": [],
      "stateMutability": "nonpayable",
      "type": "function"
    },
    {
      "inputs": [
        {
          "internalType": "address",
          "name": "owner",
          "type": "address"
        }
      ],
      "name": "__transferOwnership",
      "outputs": [],
      "stateMutability": "nonpayable",
      "type": "function"
    },
    {
      "inputs": [],
      "name": "__transitiveOwner",
      "outputs": [
        {
          "internalType": "address",
          "name": "",
          "type": "address"
        }
      ],
      "stateMutability": "view",
      "type": "function"
    },
    {
      "inputs": [],
      "name": "modifier_onlyOwner",
      "outputs": [],
      "stateMutability": "nonpayable",
      "type": "function"
    },
    {
      "inputs": [],
      "name": "modifier_onlyTransitiveOwner",
      "outputs": [],
      "stateMutability": "nonpayable",
      "type": "function"
    },
    {
      "inputs": [],
      "name": "owner",
      "outputs": [
        {
          "internalType": "address",
          "name": "",
          "type": "address"
        }
      ],
      "stateMutability": "view",
      "type": "function"
    },
    {
      "inputs": [
        {
          "internalType": "address",
          "name": "account",
          "type": "address"
        }
      ],
      "name": "transferOwnership",
      "outputs": [],
      "stateMutability": "nonpayable",
      "type": "function"
    }
  ],
  "bytecode": {
    "object": "0x6080346100bc57601f61046438819003918201601f19168301916001600160401b038311848410176100c1578084926020946040528339810103126100bc57516001600160a01b0390818116908190036100bc577f8a22373512790c48b83a1fe2efdd2888d4a917bcdc24d0adf63e60f671680460908154816040519482167f8be0079c531659141344cd1fd0a4f28419497f9722a3daafe3b4186f6b6457e0600080a36001600160a01b03191617905561038c90816100d88239f35b600080fd5b634e487b7160e01b600052604160045260246000fdfe60808060405260048036101561001457600080fd5b600091823560e01c90816306998cde146101f05750806313effa0f146101465780631716dcb51461014b5780633344ca2e146101c0578063615d27a91461014b5780638da5cb5b14610146578063f2fde38b146100b85763f5a11ba01461007a57600080fd5b346100b457816003193601126100b4576001600160a01b0361009a61026c565b1633036100a5575080f35b60405163d0b4984760e01b8152fd5b5080fd5b50346100b45760203660031901126100b45780356001600160a01b03818116918290036101425760008051602061033783398151915292835491821690813303610133575082907f8be0079c531659141344cd1fd0a4f28419497f9722a3daafe3b4186f6b6457e08680a36001600160a01b03191617905580f35b604051632f7a8ee160e01b8152fd5b8380fd5b610231565b50346100b45760203660031901126100b4576001600160a01b039035818116908190036101bc57600080516020610337833981519152918183549182167f8be0079c531659141344cd1fd0a4f28419497f9722a3daafe3b4186f6b6457e08680a36001600160a01b03191617905580f35b8280fd5b82346101ed57806003193601126101ed5760206101db61026c565b6040516001600160a01b039091168152f35b80fd5b9050346101bc57826003193601126101bc57600080516020610337833981519152546001600160a01b03163303610225578280f35b632f7a8ee160e01b8152fd5b3461026757600036600319011261026757600080516020610337833981519152546040516001600160a01b039091168152602090f35b600080fd5b600080516020610337833981519152546001600160a01b0390811691905b823b156103335760408051638da5cb5b60e01b81526004906020808284818a89165afa93600093856102cf575b5050505090156000146102c8575050565b925061028a565b82913d841161032b575b601f8301601f191685019167ffffffffffffffff8311868410176103185750528201829003126100b457519083821682036101ed5750388080806102b7565b634e487b7160e01b875260419052602486fd5b3d92506102d9565b5056fe8a22373512790c48b83a1fe2efdd2888d4a917bcdc24d0adf63e60f671680460a26469706673582212202dc1521f8bdd4f75bdefafae7091ecd647ee2d813be6170456c9d65a062c3c5264736f6c63430008130033",
    "linkReferences": {}
  },
  "methodIdentifiers": {
    "__owner()": "13effa0f",
    "__setOwner(address)": "1716dcb5",
    "__transferOwnership(address)": "615d27a9",
    "__transitiveOwner()": "3344ca2e",
    "modifier_onlyOwner()": "06998cde",
    "modifier_onlyTransitiveOwner()": "f5a11ba0",
    "owner()": "8da5cb5b",
    "transferOwnership(address)": "f2fde38b"
  },
  "id": 274
}