{
  "abi": [
    {
      "inputs": [
        {
          "internalType": "address",
          "name": "implementation",
          "type": "address"
        }
      ],
      "stateMutability": "nonpayable",
      "type": "constructor"
    },
    {
      "inputs": [],
      "name": "Proxy__ImplementationIsNotContract",
      "type": "error"
    },
    {
      "stateMutability": "payable",
      "type": "fallback"
    },
    {
      "inputs": [],
      "name": "__getImplementation",
      "outputs": [
        {
          "internalType": "address",
          "name": "",
          "type": "address"
        }
      ],
      "stateMutability": "view",
      "type": "function"
    },
    {
      "inputs": [
        {
          "internalType": "address",
          "name": "implementation",
          "type": "address"
        }
      ],
      "name": "__setImplementation",
      "outputs": [],
      "stateMutability": "nonpayable",
      "type": "function"
    },
    {
      "stateMutability": "payable",
      "type": "receive"
    }
  ],
  "bytecode": {
    "object": "0x60803461009257601f61022e38819003918201601f19168301916001600160401b038311848410176100975780849260209460405283398101031261009257516001600160a01b03811690819003610092577ff7f483ff1916e63c14790f9c8bd1f715e1ffa6a089843b606bbc96607229b80480546001600160a01b031916909117905560405161018090816100ae8239f35b600080fd5b634e487b7160e01b600052604160045260246000fdfe60806040526004361015610015575b366100e757005b6000803560e01c90816322bc91e314610038575063d433c57e0361000e5761009a565b34610097576020366003190112610097576004356001600160a01b03811690819003610093577ff7f483ff1916e63c14790f9c8bd1f715e1ffa6a089843b606bbc96607229b80480546001600160a01b031916909117905580f35b5080fd5b80fd5b346100e25760003660031901126100e2577ff7f483ff1916e63c14790f9c8bd1f715e1ffa6a089843b606bbc96607229b804546040516001600160a01b039091168152602090f35b600080fd5b7ff7f483ff1916e63c14790f9c8bd1f715e1ffa6a089843b606bbc96607229b804546001600160a01b0316803b15610138576000808092368280378136915af43d82803e15610134573d90f35b3d90fd5b6040516321f27f0d60e21b8152600490fdfea26469706673582212208a3b85f96e8fc285a0854a873ab51f18aa4bbdc65045a08674f471b47f49561864736f6c63430008130033",
    "linkReferences": {}
  },
  "methodIdentifiers": {
    "__getImplementation()": "d433c57e",
    "__setImplementation(address)": "22bc91e3"
  },
  "id": 326
}