{
  "abi": [
    {
      "inputs": [],
      "name": "PartiallyPausable__NotPartiallyPaused",
      "type": "error"
    },
    {
      "inputs": [],
      "name": "PartiallyPausable__PartiallyPaused",
      "type": "error"
    },
    {
      "anonymous": false,
      "inputs": [
        {
          "indexed": false,
          "internalType": "address",
          "name": "account",
          "type": "address"
        },
        {
          "indexed": false,
          "internalType": "bytes32",
          "name": "key",
          "type": "bytes32"
        }
      ],
      "name": "PartiallyPaused",
      "type": "event"
    },
    {
      "anonymous": false,
      "inputs": [
        {
          "indexed": false,
          "internalType": "address",
          "name": "account",
          "type": "address"
        },
        {
          "indexed": false,
          "internalType": "bytes32",
          "name": "key",
          "type": "bytes32"
        }
      ],
      "name": "PartiallyUnpaused",
      "type": "event"
    },
    {
      "inputs": [
        {
          "internalType": "bytes32",
          "name": "key",
          "type": "bytes32"
        }
      ],
      "name": "__partiallyPause",
      "outputs": [],
      "stateMutability": "nonpayable",
      "type": "function"
    },
    {
      "inputs": [
        {
          "internalType": "bytes32",
          "name": "key",
          "type": "bytes32"
        }
      ],
      "name": "__partiallyPaused",
      "outputs": [
        {
          "internalType": "bool",
          "name": "status",
          "type": "bool"
        }
      ],
      "stateMutability": "view",
      "type": "function"
    },
    {
      "inputs": [
        {
          "internalType": "bytes32",
          "name": "key",
          "type": "bytes32"
        }
      ],
      "name": "__partiallyUnpause",
      "outputs": [],
      "stateMutability": "nonpayable",
      "type": "function"
    },
    {
      "inputs": [
        {
          "internalType": "bytes32",
          "name": "key",
          "type": "bytes32"
        }
      ],
      "name": "modifier_whenNotPartiallyPaused",
      "outputs": [],
      "stateMutability": "nonpayable",
      "type": "function"
    },
    {
      "inputs": [
        {
          "internalType": "bytes32",
          "name": "key",
          "type": "bytes32"
        }
      ],
      "name": "modifier_whenPartiallyPaused",
      "outputs": [],
      "stateMutability": "nonpayable",
      "type": "function"
    },
    {
      "inputs": [
        {
          "internalType": "bytes32",
          "name": "key",
          "type": "bytes32"
        }
      ],
      "name": "partiallyPaused",
      "outputs": [
        {
          "internalType": "bool",
          "name": "status",
          "type": "bool"
        }
      ],
      "stateMutability": "view",
      "type": "function"
    }
  ],
  "bytecode": {
    "object": "0x60808060405234610016576102b4908161001c8239f35b600080fdfe60406080815260048036101561001457600080fd5b600091823560e01c8063145b90641461021b5780631dab4420146101d65780632d34139314610144578063453e35dd146100ae578063467e55c3146100a95763963e6b0e1461006257600080fd5b346100a55760203660031901126100a5578135835260008051602061025f83398151915260205260ff8184205416610098578280f35b5163d73a2c8760e01b8152fd5b8280fd5b61021b565b50346100a55760203660031901126100a55781359182845260008051602061025f833981519152908160205260ff838620541661013657508284526020908152818420805460ff191660011790559051338152908101919091527ff660874355fff2c701b92220ef82c3424a8c6541f48eeddef68ecb4b2d4fc3339080604081015b0390a180f35b825163d73a2c8760e01b8152fd5b50346100a55760203660031901126100a55781359182845260008051602061025f833981519152908160205260ff8386205416156101c857508284526020908152818420805460ff191690559051338152908101919091527f1133548fecf4d1f7cd87c1aad587c67387b14cd29c969adf1b1bc22fcabb144a908060408101610130565b825163cb34aad760e01b8152fd5b50346100a55760203660031901126100a5578135835260008051602061025f83398151915260205260ff81842054161561020e578280f35b5163cb34aad760e01b8152fd5b346102595760203660031901126102595760043560005260008051602061025f833981519152602052602060ff604060002054166040519015158152f35b600080fdfeb2b4df8db6c86b643bc9671655af7ecab384d088ad8b388456cdc1f36f10ab45a2646970667358221220c87058acc93281eda9c95fbab9783429cba9ba3b110c358087c65d68423c807064736f6c63430008130033",
    "linkReferences": {}
  },
  "methodIdentifiers": {
    "__partiallyPause(bytes32)": "453e35dd",
    "__partiallyPaused(bytes32)": "145b9064",
    "__partiallyUnpause(bytes32)": "2d341393",
    "modifier_whenNotPartiallyPaused(bytes32)": "963e6b0e",
    "modifier_whenPartiallyPaused(bytes32)": "1dab4420",
    "partiallyPaused(bytes32)": "467e55c3"
  },
  "id": 390
}