{
  "abi": [
    {
      "inputs": [
        {
          "internalType": "bool",
          "name": "_mintable",
          "type": "bool"
        },
        {
          "internalType": "uint256",
          "name": "_price",
          "type": "uint256"
        },
        {
          "internalType": "string",
          "name": "baseURI",
          "type": "string"
        },
        {
          "internalType": "string",
          "name": "name",
          "type": "string"
        },
        {
          "internalType": "string",
          "name": "symbol",
          "type": "string"
        }
      ],
      "stateMutability": "nonpayable",
      "type": "constructor"
    },
    {
      "inputs": [],
      "name": "AddressUtils__NotContract",
      "type": "error"
    },
    {
      "inputs": [],
      "name": "ERC165Base__InvalidInterfaceId",
      "type": "error"
    },
    {
      "inputs": [],
      "name": "ERC721Base__BalanceQueryZeroAddress",
      "type": "error"
    },
    {
      "inputs": [],
      "name": "ERC721Base__ERC721ReceiverNotImplemented",
      "type": "error"
    },
    {
      "inputs": [],
      "name": "ERC721Base__InvalidOwner",
      "type": "error"
    },
    {
      "inputs": [],
      "name": "ERC721Base__MintToZeroAddress",
      "type": "error"
    },
    {
      "inputs": [],
      "name": "ERC721Base__NonExistentToken",
      "type": "error"
    },
    {
      "inputs": [],
      "name": "ERC721Base__NotOwnerOrApproved",
      "type": "error"
    },
    {
      "inputs": [],
      "name": "ERC721Base__NotTokenOwner",
      "type": "error"
    },
    {
      "inputs": [],
      "name": "ERC721Base__SelfApproval",
      "type": "error"
    },
    {
      "inputs": [],
      "name": "ERC721Base__TokenAlreadyMinted",
      "type": "error"
    },
    {
      "inputs": [],
      "name": "ERC721Base__TransferToZeroAddress",
      "type": "error"
    },
    {
      "inputs": [],
      "name": "ERC721Metadata__NonExistentToken",
      "type": "error"
    },
    {
      "inputs": [],
      "name": "EnumerableMap__IndexOutOfBounds",
      "type": "error"
    },
    {
      "inputs": [],
      "name": "EnumerableMap__NonExistentKey",
      "type": "error"
    },
    {
      "inputs": [],
      "name": "EnumerableSet__IndexOutOfBounds",
      "type": "error"
    },
    {
      "inputs": [],
      "name": "SolidStateERC721__PayableApproveNotSupported",
      "type": "error"
    },
    {
      "inputs": [],
      "name": "SolidStateERC721__PayableTransferNotSupported",
      "type": "error"
    },
    {
      "anonymous": false,
      "inputs": [
        {
          "indexed": true,
          "internalType": "address",
          "name": "owner",
          "type": "address"
        },
        {
          "indexed": true,
          "internalType": "address",
          "name": "operator",
          "type": "address"
        },
        {
          "indexed": true,
          "internalType": "uint256",
          "name": "tokenId",
          "type": "uint256"
        }
      ],
      "name": "Approval",
      "type": "event"
    },
    {
      "anonymous": false,
      "inputs": [
        {
          "indexed": true,
          "internalType": "address",
          "name": "owner",
          "type": "address"
        },
        {
          "indexed": true,
          "internalType": "address",
          "name": "operator",
          "type": "address"
        },
        {
          "indexed": false,
          "internalType": "bool",
          "name": "approved",
          "type": "bool"
        }
      ],
      "name": "ApprovalForAll",
      "type": "event"
    },
    {
      "anonymous": false,
      "inputs": [
        {
          "indexed": true,
          "internalType": "address",
          "name": "from",
          "type": "address"
        },
        {
          "indexed": true,
          "internalType": "address",
          "name": "to",
          "type": "address"
        },
        {
          "indexed": true,
          "internalType": "uint256",
          "name": "tokenId",
          "type": "uint256"
        }
      ],
      "name": "Transfer",
      "type": "event"
    },
    {
      "inputs": [
        {
          "internalType": "address",
          "name": "operator",
          "type": "address"
        },
        {
          "internalType": "uint256",
          "name": "tokenId",
          "type": "uint256"
        }
      ],
      "name": "approve",
      "outputs": [],
      "stateMutability": "payable",
      "type": "function"
    },
    {
      "inputs": [
        {
          "internalType": "uint256",
          "name": "_tokenId",
          "type": "uint256"
        }
      ],
      "name": "aviationLevels",
      "outputs": [
        {
          "internalType": "uint256",
          "name": "",
          "type": "uint256"
        }
      ],
      "stateMutability": "view",
      "type": "function"
    },
    {
      "inputs": [
        {
          "internalType": "uint256",
          "name": "tokenId",
          "type": "uint256"
        }
      ],
      "name": "aviationLock",
      "outputs": [],
      "stateMutability": "nonpayable",
      "type": "function"
    },
    {
      "inputs": [
        {
          "internalType": "uint256",
          "name": "winnerTokenId",
          "type": "uint256"
        },
        {
          "internalType": "uint256",
          "name": "loserTokenId",
          "type": "uint256"
        }
      ],
      "name": "aviationMovePoints",
      "outputs": [],
      "stateMutability": "nonpayable",
      "type": "function"
    },
    {
      "inputs": [
        {
          "internalType": "uint256",
          "name": "_tokenId",
          "type": "uint256"
        }
      ],
      "name": "aviationPoints",
      "outputs": [
        {
          "internalType": "uint256",
          "name": "",
          "type": "uint256"
        }
      ],
      "stateMutability": "view",
      "type": "function"
    },
    {
      "inputs": [
        {
          "internalType": "uint256",
          "name": "tokenId",
          "type": "uint256"
        }
      ],
      "name": "aviationUnlock",
      "outputs": [],
      "stateMutability": "nonpayable",
      "type": "function"
    },
    {
      "inputs": [
        {
          "internalType": "address",
          "name": "account",
          "type": "address"
        }
      ],
      "name": "balanceOf",
      "outputs": [
        {
          "internalType": "uint256",
          "name": "",
          "type": "uint256"
        }
      ],
      "stateMutability": "view",
      "type": "function"
    },
    {
      "inputs": [
        {
          "internalType": "uint256",
          "name": "tokenId",
          "type": "uint256"
        }
      ],
      "name": "getApproved",
      "outputs": [
        {
          "internalType": "address",
          "name": "",
          "type": "address"
        }
      ],
      "stateMutability": "view",
      "type": "function"
    },
    {
      "inputs": [
        {
          "internalType": "address",
          "name": "account",
          "type": "address"
        },
        {
          "internalType": "address",
          "name": "operator",
          "type": "address"
        }
      ],
      "name": "isApprovedForAll",
      "outputs": [
        {
          "internalType": "bool",
          "name": "",
          "type": "bool"
        }
      ],
      "stateMutability": "view",
      "type": "function"
    },
    {
      "inputs": [
        {
          "internalType": "address",
          "name": "spender",
          "type": "address"
        },
        {
          "internalType": "uint256",
          "name": "tokenId",
          "type": "uint256"
        }
      ],
      "name": "isApprovedOrOwner",
      "outputs": [
        {
          "internalType": "bool",
          "name": "",
          "type": "bool"
        }
      ],
      "stateMutability": "view",
      "type": "function"
    },
    {
      "inputs": [
        {
          "internalType": "uint256",
          "name": "tokenId",
          "type": "uint256"
        }
      ],
      "name": "isAviationLocked",
      "outputs": [
        {
          "internalType": "bool",
          "name": "",
          "type": "bool"
        }
      ],
      "stateMutability": "view",
      "type": "function"
    },
    {
      "inputs": [
        {
          "internalType": "address",
          "name": "to",
          "type": "address"
        }
      ],
      "name": "mintAviation",
      "outputs": [],
      "stateMutability": "payable",
      "type": "function"
    },
    {
      "inputs": [],
      "name": "mintable",
      "outputs": [
        {
          "internalType": "bool",
          "name": "",
          "type": "bool"
        }
      ],
      "stateMutability": "view",
      "type": "function"
    },
    {
      "inputs": [],
      "name": "name",
      "outputs": [
        {
          "internalType": "string",
          "name": "",
          "type": "string"
        }
      ],
      "stateMutability": "view",
      "type": "function"
    },
    {
      "inputs": [
        {
          "internalType": "uint256",
          "name": "tokenId",
          "type": "uint256"
        }
      ],
      "name": "ownerOf",
      "outputs": [
        {
          "internalType": "address",
          "name": "",
          "type": "address"
        }
      ],
      "stateMutability": "view",
      "type": "function"
    },
    {
      "inputs": [],
      "name": "price",
      "outputs": [
        {
          "internalType": "uint256",
          "name": "",
          "type": "uint256"
        }
      ],
      "stateMutability": "view",
      "type": "function"
    },
    {
      "inputs": [
        {
          "internalType": "address",
          "name": "game",
          "type": "address"
        },
        {
          "internalType": "address",
          "name": "to",
          "type": "address"
        },
        {
          "internalType": "uint256[]",
          "name": "ids",
          "type": "uint256[]"
        },
        {
          "internalType": "uint256[]",
          "name": "amounts",
          "type": "uint256[]"
        }
      ],
      "name": "refundResourcesFromGame",
      "outputs": [],
      "stateMutability": "nonpayable",
      "type": "function"
    },
    {
      "inputs": [
        {
          "internalType": "string",
          "name": "metadataURI",
          "type": "string"
        }
      ],
      "name": "registerMetadataURI",
      "outputs": [],
      "stateMutability": "nonpayable",
      "type": "function"
    },
    {
      "inputs": [
        {
          "internalType": "address",
          "name": "pilotAddress",
          "type": "address"
        },
        {
          "internalType": "string",
          "name": "pilotCollectionName",
          "type": "string"
        },
        {
          "internalType": "string",
          "name": "baseUrl",
          "type": "string"
        }
      ],
      "name": "registerPilotAddress",
      "outputs": [],
      "stateMutability": "nonpayable",
      "type": "function"
    },
    {
      "inputs": [
        {
          "internalType": "address",
          "name": "from",
          "type": "address"
        },
        {
          "internalType": "address",
          "name": "game",
          "type": "address"
        },
        {
          "internalType": "uint256[]",
          "name": "ids",
          "type": "uint256[]"
        },
        {
          "internalType": "uint256[]",
          "name": "amounts",
          "type": "uint256[]"
        }
      ],
      "name": "requestResourcesForGame",
      "outputs": [],
      "stateMutability": "nonpayable",
      "type": "function"
    },
    {
      "inputs": [
        {
          "internalType": "address",
          "name": "from",
          "type": "address"
        },
        {
          "internalType": "address",
          "name": "to",
          "type": "address"
        },
        {
          "internalType": "uint256",
          "name": "tokenId",
          "type": "uint256"
        }
      ],
      "name": "safeTransferFrom",
      "outputs": [],
      "stateMutability": "payable",
      "type": "function"
    },
    {
      "inputs": [
        {
          "internalType": "address",
          "name": "from",
          "type": "address"
        },
        {
          "internalType": "address",
          "name": "to",
          "type": "address"
        },
        {
          "internalType": "uint256",
          "name": "tokenId",
          "type": "uint256"
        },
        {
          "internalType": "bytes",
          "name": "data",
          "type": "bytes"
        }
      ],
      "name": "safeTransferFrom",
      "outputs": [],
      "stateMutability": "payable",
      "type": "function"
    },
    {
      "inputs": [
        {
          "internalType": "address",
          "name": "operator",
          "type": "address"
        },
        {
          "internalType": "bool",
          "name": "status",
          "type": "bool"
        }
      ],
      "name": "setApprovalForAll",
      "outputs": [],
      "stateMutability": "nonpayable",
      "type": "function"
    },
    {
      "inputs": [
        {
          "internalType": "bool",
          "name": "_mintable",
          "type": "bool"
        }
      ],
      "name": "setMintable",
      "outputs": [],
      "stateMutability": "nonpayable",
      "type": "function"
    },
    {
      "inputs": [
        {
          "internalType": "uint256",
          "name": "_price",
          "type": "uint256"
        }
      ],
      "name": "setPrice",
      "outputs": [],
      "stateMutability": "nonpayable",
      "type": "function"
    },
    {
      "inputs": [
        {
          "internalType": "bytes4",
          "name": "interfaceId",
          "type": "bytes4"
        }
      ],
      "name": "supportsInterface",
      "outputs": [
        {
          "internalType": "bool",
          "name": "",
          "type": "bool"
        }
      ],
      "stateMutability": "view",
      "type": "function"
    },
    {
      "inputs": [],
      "name": "symbol",
      "outputs": [
        {
          "internalType": "string",
          "name": "",
          "type": "string"
        }
      ],
      "stateMutability": "view",
      "type": "function"
    },
    {
      "inputs": [
        {
          "internalType": "uint256",
          "name": "index",
          "type": "uint256"
        }
      ],
      "name": "tokenByIndex",
      "outputs": [
        {
          "internalType": "uint256",
          "name": "",
          "type": "uint256"
        }
      ],
      "stateMutability": "view",
      "type": "function"
    },
    {
      "inputs": [
        {
          "internalType": "address",
          "name": "owner",
          "type": "address"
        },
        {
          "internalType": "uint256",
          "name": "index",
          "type": "uint256"
        }
      ],
      "name": "tokenOfOwnerByIndex",
      "outputs": [
        {
          "internalType": "uint256",
          "name": "",
          "type": "uint256"
        }
      ],
      "stateMutability": "view",
      "type": "function"
    },
    {
      "inputs": [
        {
          "internalType": "uint256",
          "name": "tokenId",
          "type": "uint256"
        }
      ],
      "name": "tokenURI",
      "outputs": [
        {
          "internalType": "string",
          "name": "",
          "type": "string"
        }
      ],
      "stateMutability": "view",
      "type": "function"
    },
    {
      "inputs": [],
      "name": "totalSupply",
      "outputs": [
        {
          "internalType": "uint256",
          "name": "",
          "type": "uint256"
        }
      ],
      "stateMutability": "view",
      "type": "function"
    },
    {
      "inputs": [
        {
          "internalType": "address",
          "name": "from",
          "type": "address"
        },
        {
          "internalType": "address",
          "name": "to",
          "type": "address"
        },
        {
          "internalType": "uint256",
          "name": "tokenId",
          "type": "uint256"
        }
      ],
      "name": "transferFrom",
      "outputs": [],
      "stateMutability": "payable",
      "type": "function"
    }
  ],
  "bytecode": {
    "object": "0x6080604052346200052b5762003714803803806200001d8162000530565b928339810160a0828203126200052b5781518015158091036200052b5760208381015160408501519094906001600160401b03908181116200052b57856200006791840162000556565b9160608101518281116200052b57866200008391830162000556565b9560808201518381116200052b576200009d920162000556565b8551908282116200036b577f99574a7094154bb123ae6ae102096f0bf9679b85a5cd1e727aaa0ae5f132e6b18054926001988985811c9516801562000520575b888610146200034a578190601f95868111620004ca575b508890868311600114620004625760009262000456575b5050600019600383901b1c191690891b1790555b80518381116200036b577f99574a7094154bb123ae6ae102096f0bf9679b85a5cd1e727aaa0ae5f132e6b2918254908982811c921680156200044b575b888310146200034a578185849311620003f5575b5087908583116001146200038d5760009262000381575b5050600019600383901b1c191690881b1790555b82519182116200036b577f99574a7094154bb123ae6ae102096f0bf9679b85a5cd1e727aaa0ae5f132e6b39283548781811c9116801562000360575b868210146200034a57828111620002ff575b50849183116001146200028557600080516020620036f4833981519152949392916000918362000279575b5050600019600383901b1c191690861b1790555b6301ffc9a760e01b6000525260ff604060002081199084828254161790556380ac58cd60e01b60005260406000208482825416179055600054169116176000555560405161312b9081620005c98239f35b01519050388062000214565b918691949392601f1982169584600052856000209160005b888110620002e7575083600080516020620036f48339815191529810620002cd575b505050811b01905562000228565b015160001960f88460031b161c19169055388080620002bf565b8282015184558a95909301929187019187016200029d565b84600052856000208380860160051c82019288871062000340575b0160051c019088905b82811062000333575050620001e9565b6000815501889062000323565b925081926200031a565b634e487b7160e01b600052602260045260246000fd5b90607f1690620001d7565b634e487b7160e01b600052604160045260246000fd5b01519050388062000187565b908a9350601f1983169185600052896000209260005b8b828210620003de5750508411620003c4575b505050811b0190556200019b565b015160001960f88460031b161c19169055388080620003b6565b8385015186558e97909501949384019301620003a3565b90915083600052876000208580850160051c8201928a861062000441575b918c91869594930160051c01915b8281106200043157505062000170565b600081558594508c910162000421565b9250819262000413565b91607f16916200015c565b0151905038806200010b565b908b9350601f19831691856000528a6000209260005b8c828210620004b3575050841162000499575b505050811b0190556200011f565b015160001960f88460031b161c191690553880806200048b565b8385015186558f9790950194938401930162000478565b90915083600052886000208680850160051c8201928b861062000516575b918d91869594930160051c01915b82811062000506575050620000f4565b600081558594508d9101620004f6565b92508192620004e8565b94607f1694620000dd565b600080fd5b6040519190601f01601f191682016001600160401b038111838210176200036b57604052565b919080601f840112156200052b5782516001600160401b0381116200036b576020906200058c601f8201601f1916830162000530565b928184528282870101116200052b5760005b818110620005b457508260009394955001015290565b85810183015184820184015282016200059e56fe6080604052600436101561001257600080fd5b60003560e01c806301ffc9a71461021257806306fdde031461020d578063081812fc14610208578063095ea7b31461020357806318160ddd146101fe5780631c2d79c7146101f957806323b872dd146101f457806326332402146101ef578063285d70d4146101ea5780632f10dfda146101e55780632f745c59146101e057806342842e0e146101db578063430c2081146101d657806349ad6782146101d15780634bf365df146101cc5780634f6ccce7146101c75780636352211e146101c257806370a08231146101bd57806391b7f5ed146101b857806395d89b41146101b3578063a035b1fe146101ae578063a22cb465146101a9578063b5de30b4146101a4578063b88d4fde1461019f578063bf07b68f1461019a578063c87b56dd14610195578063ce9e3cd814610190578063d83a19e01461018b578063dd7a2e8514610186578063e985e9c514610181578063f6573d7b1461017c5763fdffdd3b1461017c57600080fd5b61163e565b61159a565b61152b565b61143c565b611304565b6110b5565b610ed6565b610e60565b610c61565b610bde565b610bc0565b610af8565b610ad7565b610a89565b610a6b565b610a19565b6109f6565b6109ab565b61097a565b610957565b6108fd565b610848565b61080e565b6107b9565b61077e565b6105a5565b61057a565b61045c565b610400565b6102f7565b61022e565b6001600160e01b031981160361022957565b600080fd5b346102295760203660031901126102295760043561024b81610217565b63ffffffff60e01b166000527ffc606c433378e3a7e0a6a531deac289b66caa1b4aa8554fd4ab2c6f1570f92d8602052602060ff604060002054166040519015158152f35b600091031261022957565b60005b8381106102ae5750506000910152565b818101518382015260200161029e565b906020916102d78151809281855285808601910161029b565b601f01601f1916010190565b9060206102f49281815201906102be565b90565b34610229576000806003193601126103fd5760405190807f99574a7094154bb123ae6ae102096f0bf9679b85a5cd1e727aaa0ae5f132e6b19081549061033c82611e60565b808652926001928084169081156103d05750600114610376575b6103728661036681880382610deb565b604051918291826102e3565b0390f35b815292507f9da0b376ea5eac987e00ddf645ea1acba63ab64b37f9d745b363c22385ad39cb5b8284106103b85750505081016020016103668261037238610356565b8054602085870181019190915290930192810161039c565b90508695506103729693506020925061036694915060ff191682840152151560051b820101929338610356565b80fd5b3461022957602036600319011261022957602061041e60043561286a565b6040516001600160a01b039091168152f35b600435906001600160a01b038216820361022957565b602435906001600160a01b038216820361022957565b604036600319011261022957610470610430565b6024359061047d34612dad565b61048682612780565b6001600160a01b0380831692908216918383146105685782331415908161052a575b50610518576104f1906104d285600052600080516020613076833981519152602052604060002090565b80546001600160a01b0319166001600160a01b03909216919091179055565b7f8c5be1e5ebec7d5bd14f71427d1e84f3dd0314c0f7b2291e5b200ac8c7c3b925600080a4005b604051632f5de44f60e01b8152600490fd5b610562915061055761055e9161054033916119e2565b9060018060a01b0316600052602052604060002090565b5460ff1690565b1590565b386104a8565b60405163424a22cb60e01b8152600490fd5b3461022957600036600319011261022957602060008051602061309683398151915254604051908152f35b6020366003190112610229576105b9610430565b60009060ff825416156107045760015434036106bf576000805160206130968339815191525490600182018092116106ba57604051906105f882610db3565b8382526001600160a01b0381169182156106a8576106158461284a565b6106965783828161066b956106358261063061055e98611a1b565b6129fb565b506106408183612920565b50887fddf252ad1be2c89b69c2b068fc378daa952ba7f163c4a11628f55a4df523b3ef8180a4612e2e565b6106845761067b61068191611700565b60019055565b80f35b604051639ff10cdd60e01b8152600490fd5b604051630d86bb7b60e31b8152600490fd5b6040516311f2988d60e11b8152600490fd5b6116b3565b60405162461bcd60e51b815260206004820152601c60248201527f4d657263757279426173653a20496e636f7272656374207072696365000000006044820152606490fd5b60405162461bcd60e51b815260206004820152601a60248201527f4d657263757279426173653a204d696e74206e6f74206f70656e0000000000006044820152606490fd5b6060906003190112610229576001600160a01b0390600435828116810361022957916024359081168103610229579060443590565b61078736610749565b90346107a75761079782336128b2565b15610518576107a592612c23565b005b6040516322b1813960e01b8152600490fd5b34610229576020366003190112610229576004356000527f3b36e3c23f7226ff6a8560b4f003b6456caa037dff1f2961b3deb261d5af6a5e6020526020604060002054604051908152f35b8015150361022957565b346102295760203660031901126102295760043561082b81610804565b6108336125ba565b60ff8019600054169115151617600055600080f35b3461022957602036600319011261022957600080516020613036833981519152546040516352897beb60e01b815233600482015290602090829060249082906001600160a01b03165afa80156108f8576108aa916000916108ca575b5061177f565b6103726108b8600435611e1d565b60405190151581529081906020820190565b6108eb915060203d81116108f1575b6108e38183610deb565b81019061175e565b386108a4565b503d6108d9565b611773565b3461022957604036600319011261022957610916610430565b61092260243591611a1b565b805482101561094557602091610937916129e3565b90546040519160031b1c8152f35b60405163e637bf3b60e01b8152600490fd5b6107a561096336610749565b906040519261097184610db3565b60008452612d7b565b346102295760403660031901126102295760206109a1610998610430565b602435906128b2565b6040519015158152f35b34610229576020366003190112610229576004356000527f3b36e3c23f7226ff6a8560b4f003b6456caa037dff1f2961b3deb261d5af6a5d6020526020604060002054604051908152f35b3461022957600036600319011261022957602060ff600054166040519015158152f35b346102295760203660031901126102295760043560008051602061309683398151915254811015610a5957610a4f6020916127ff565b5054604051908152f35b60405163022fd82760e31b8152600490fd5b3461022957602036600319011261022957602061041e600435612780565b3461022957602036600319011261022957610aa2610430565b6001600160a01b03811615610ac557610abc602091611a1b565b54604051908152f35b604051630810ff9760e41b8152600490fd5b3461022957602036600319011261022957610af06125ba565b600435600155005b34610229576000806003193601126103fd5760405190807f99574a7094154bb123ae6ae102096f0bf9679b85a5cd1e727aaa0ae5f132e6b290815490610b3d82611e60565b808652926001928084169081156103d05750600114610b66576103728661036681880382610deb565b815292507f4d5a81d91ab5d0eb928391f3fb432d708f1a8a13471720d8e842441f4faa79d65b828410610ba85750505081016020016103668261037238610356565b80546020858701810191909152909301928101610b8c565b34610229576000366003190112610229576020600154604051908152f35b3461022957604036600319011261022957610bf7610430565b602435610c0381610804565b6001600160a01b0382169133831461056857610c2290610540336119e2565b9015159060ff1981541660ff83161790556040519081527f17307eab39ab6107e8899845ad3d59bd9653f200f220920489ca2b5937696c3160203392a3005b3461022957602080600319360112610229576004359060248160018060a01b036000805160206130368339815191525416604051928380926352897beb60e01b82523360048301525afa80156108f857610cc291600091610d51575061177f565b610cd3610cce8361284a565b6117e7565b816000526000805160206130d68339815191529182825260ff6040600020541615610d0e5760005252604060002060ff198154169055600080f35b6064826040519062461bcd60e51b825280600483015260248201527f4d657263757279426173653a206176696174696f6e206e6f74206c6f636b65646044820152fd5b6108eb9150833d85116108f1576108e38183610deb565b634e487b7160e01b600052604160045260246000fd5b67ffffffffffffffff8111610d9257604052565b610d68565b6040810190811067ffffffffffffffff821117610d9257604052565b6020810190811067ffffffffffffffff821117610d9257604052565b6060810190811067ffffffffffffffff821117610d9257604052565b90601f8019910116810190811067ffffffffffffffff821117610d9257604052565b67ffffffffffffffff8111610d9257601f01601f191660200190565b929192610e3582610e0d565b91610e436040519384610deb565b829481845281830111610229578281602093846000960137010152565b608036600319011261022957610e74610430565b610e7c610446565b6064359167ffffffffffffffff8311610229573660238401121561022957610eb16107a5933690602481600401359101610e29565b9160443591612d7b565b9080601f83011215610229578160206102f493359101610e29565b3461022957606036600319011261022957610eef610430565b67ffffffffffffffff60243581811161022957610f10903690600401610ebb565b9160443582811161022957610f29903690600401610ebb565b91610f326125ba565b6001600160a01b03821660009081527f3b36e3c23f7226ff6a8560b4f003b6456caa037dff1f2961b3deb261d5af6a6360205260409020908451908111610d9257610f8781610f818454611e60565b84611f1f565b602080601f831160011461100957509080610ff99493926107a597600092610ffe575b5050600019600383901b1c191660019190911b1790556001600160a01b031660009081527f3b36e3c23f7226ff6a8560b4f003b6456caa037dff1f2961b3deb261d5af6a646020526040902090565b611f59565b015190503880610faa565b90601f1983169661101f85600052602060002090565b926000905b89821061109d575050918391600193610ff99796956107a59a10611084575b505050811b0190556001600160a01b031660009081527f3b36e3c23f7226ff6a8560b4f003b6456caa037dff1f2961b3deb261d5af6a646020526040902090565b015160001960f88460031b161c19169055388080611043565b80600185968294968601518155019501930190611024565b34610229576020366003190112610229576103726103666004356110e06110db8261284a565b612022565b6110e8612091565b906110f16120b1565b611134611127836000527f3b36e3c23f7226ff6a8560b4f003b6456caa037dff1f2961b3deb261d5af6a61602052604060002090565b546001600160a01b031690565b6001600160a01b03811661119d575b50906111986111749261118a61117a61116461115e86611700565b5461263d565b6040519687946020860190612200565b90612200565b632e73766760e01b815260040190565b03601f198101845283610deb565b612217565b925050611174906111986111746112fc61123a6112976111ee8860018060a01b03166000527f3b36e3c23f7226ff6a8560b4f003b6456caa037dff1f2961b3deb261d5af6a63602052604060002090565b61124861122761115e896000527f3b36e3c23f7226ff6a8560b4f003b6456caa037dff1f2961b3deb261d5af6a60602052604060002090565b611174604051958694602086019061217d565b61202360f01b815260020190565b039161125c601f1993848101835282610deb565b6001600160a01b0390981660009081527f3b36e3c23f7226ff6a8560b4f003b6456caa037dff1f2961b3deb261d5af6a646020526040902090565b6112f06112e36112d361115e896000527f3b36e3c23f7226ff6a8560b4f003b6456caa037dff1f2961b3deb261d5af6a60602052604060002090565b604051968794602086019061217d565b602f60f81b815260010190565b03908101835282610deb565b919250611143565b34610229576020806003193601126102295767ffffffffffffffff9060043582811161022957611338903690600401610ebb565b916113416125ba565b8251908111610d92576000805160206130568339815191529161136d826113688554611e60565b611eb1565b80601f83116001146113a8575081929360009261139d575b5050600019600383901b1c191660019190911b179055005b015190503880611385565b90601f198316946113e86000805160206130568339815191526000527f498c26f30ddc34945cd5911b8f771d2a1071971e3943d7ba6581bbde2c506f9c90565b926000905b87821061142457505083600195961061140b575b505050811b019055005b015160001960f88460031b161c19169055388080611401565b806001859682949686015181550195019301906113ed565b3461022957602080600319360112610229576004359060248160018060a01b036000805160206130368339815191525416604051928380926352897beb60e01b82523360048301525afa80156108f85761149d91600091610d51575061177f565b6114a9610cce8361284a565b816000526000805160206130d68339815191529182825260ff604060002054166114e657600052526040600020600160ff19825416179055600080f35b60405162461bcd60e51b815260048101839052601c60248201527f4d657263757279426173653a206176696174696f6e206c6f636b6564000000006044820152606490fd5b3461022957604036600319011261022957600080516020613036833981519152546040516352897beb60e01b815233600482015290602090829060249082906001600160a01b03165afa80156108f85761158c916000916108ca575061177f565b6107a5602435600435611840565b3461022957604036600319011261022957602060ff6115cb6115ba610430565b6105406115c5610446565b916119e2565b54166040519015158152f35b9080601f830112156102295781359067ffffffffffffffff8211610d92578160051b6040519360209361160c85840187610deb565b85528380860192820101928311610229578301905b82821061162f575050505090565b81358152908301908301611621565b34610229576080366003190112610229576001600160a01b0360043581811681036102295760243591821682036102295767ffffffffffffffff91604435838111610229576116919036906004016115d7565b90606435938411610229576116ad6107a59436906004016115d7565b92611c56565b634e487b7160e01b600052601160045260246000fd5b90600182018092116106ba57565b90600282018092116106ba57565b90602082018092116106ba57565b919082018092116106ba57565b6000527f3b36e3c23f7226ff6a8560b4f003b6456caa037dff1f2961b3deb261d5af6a5d602052604060002090565b6000527f3b36e3c23f7226ff6a8560b4f003b6456caa037dff1f2961b3deb261d5af6a5e602052604060002090565b9081602091031261022957516102f481610804565b6040513d6000823e3d90fd5b1561178657565b60405162461bcd60e51b815260206004820152603360248201527f4d657263757279426173653a206d73672e73656e646572206973206e6f7420616044820152722076616c69642067616d65206164647265737360681b6064820152608490fd5b156117ee57565b60405162461bcd60e51b815260206004820152601e60248201527f4d657263757279426173653a206e6f6e6578697374656e7420746f6b656e00006044820152606490fd5b919082039182116106ba57565b6118cd90611850610cce8261284a565b61185c610cce8461284a565b6118658161172f565b5461188161187b6118758661172f565b546116c9565b60011c90565b1161190e5761189561187b6118758561172f565b61189e8261172f565b6118a98282546116f3565b90556118b48461172f565b5481106118f3575060006118c78461172f565b5561191d565b6118d68161191d565b6118df8161172f565b54156118e85750565b6118f190611a54565b565b6119076118ff8561172f565b918254611833565b905561191d565b6119178161172f565b54611895565b60005b601081111561197657506119718161196161195b7f1b9c4b6f325882062024aaca6e75c86d61b0a66ea22e1e4ae0803c5005aa409794611700565b60109055565b6040519081529081906020820190565b0390a1565b60ff81116106ba576119878261172f565b546001821b116119a25760001981146106ba57600101611920565b81611971916119d17f1b9c4b6f325882062024aaca6e75c86d61b0a66ea22e1e4ae0803c5005aa409794611700565b556040519081529081906020820190565b6001600160a01b031660009081527f3c7bf052874fa81625121783266a03507bd2cd48b16e571c01a04e8dd3fb07aa6020526040902090565b6001600160a01b031660009081527f3c7bf052874fa81625121783266a03507bd2cd48b16e571c01a04e8dd3fb07a86020526040902090565b611bfe611a6082612780565b9180600080948282527f99574a7094154bb123ae6ae102096f0bf9679b85a5cd1e727aaa0ae5f132e6b46020528160408120611a9c8154611e60565b80611c01575b505050611ab783611ab283611a1b565b612b86565b50611ac183612ac1565b50611af6611ae684600052600080516020613076833981519152602052604060002090565b80546001600160a01b0319169055565b6001600160a01b03168282827f8c5be1e5ebec7d5bd14f71427d1e84f3dd0314c0f7b2291e5b200ac8c7c3b9258280a47fddf252ad1be2c89b69c2b068fc378daa952ba7f163c4a11628f55a4df523b3ef8280a4611bef611bbf611b86611127846000527f3b36e3c23f7226ff6a8560b4f003b6456caa037dff1f2961b3deb261d5af6a61602052604060002090565b6001600160a01b031660009081527f3b36e3c23f7226ff6a8560b4f003b6456caa037dff1f2961b3deb261d5af6a626020526040902090565b916000527f3b36e3c23f7226ff6a8560b4f003b6456caa037dff1f2961b3deb261d5af6a60602052604060002090565b54600052602052604060002090565b55565b601f8111600114611c175750555b813880611aa2565b611c519250611c41906001601f611c3385600052602060002090565b920160051c82019101611e9a565b6000908082528160208120915555565b611c0f565b60008051602061303683398151915280546040516352897beb60e01b8152336004820152949593946001600160a01b0391821690602081602481855afa80156108f857611caa916000916108ca575061177f565b803b1561022957846000918883611cd89760405198899586948593633db0f8ab60e01b855260048501611da2565b03925af19182156108f857611d0b93611cff93611d5b575b5054166001600160a01b031690565b6001600160a01b031690565b803b1561022957611d37936000809460405196879586948593630fbfeffd60e11b855260048501611dd8565b03925af180156108f857611d485750565b80611d556118f192610d7e565b80610290565b80611d55611d6892610d7e565b38611cf0565b90815180825260208080930193019160005b828110611d8e575050505090565b835185529381019392810192600101611d80565b6001600160a01b0390911681526060602082018190526102f4939192611dca91840190611d6e565b916040818403910152611d6e565b9192611dfe602094611e0c9360018060a01b031685526080868601526080850190611d6e565b908382036040850152611d6e565b906060818303910152600081520190565b611e29610cce8261284a565b6000526000805160206130d683398151915260205260ff6040600020541690565b634e487b7160e01b600052600060045260246000fd5b90600182811c92168015611e90575b6020831014611e7a57565b634e487b7160e01b600052602260045260246000fd5b91607f1691611e6f565b818110611ea5575050565b60008155600101611e9a565b90601f8211611ebe575050565b6118f1916000805160206130568339815191526000527f498c26f30ddc34945cd5911b8f771d2a1071971e3943d7ba6581bbde2c506f9c906020601f840160051c83019310611f15575b601f0160051c0190611e9a565b9091508190611f08565b9190601f8111611f2e57505050565b6118f1926000526020600020906020601f840160051c83019310611f1557601f0160051c0190611e9a565b919091825167ffffffffffffffff8111610d9257611f7b81610f818454611e60565b602080601f8311600114611fb7575081929394600092611fac575b50508160011b916000199060031b1c1916179055565b015190503880611f96565b90601f19831695611fcd85600052602060002090565b926000905b88821061200a57505083600195969710611ff1575b505050811b019055565b015160001960f88460031b161c19169055388080611fe7565b80600185968294968601518155019501930190611fd2565b1561202957565b60405162461bcd60e51b815260206004820152602760248201527f4552433732313a2055524920717565727920666f72206e6f6e6578697374656e6044820152663a103a37b5b2b760c91b6064820152608490fd5b6040519061208b82610db3565b60008252565b6040519061209e82610d97565b60048252634e6f6e6560e01b6020830152565b604051906000826000805160206130568339815191529182546120d381611e60565b8084529360019180831690811561215957506001146120fb575b50506118f192500383610deb565b600090815291507f498c26f30ddc34945cd5911b8f771d2a1071971e3943d7ba6581bbde2c506f9c5b84831061213e57506118f1935050810160200138806120ed565b81935090816020925483858a01015201910190918592612124565b915050602092506118f194915060ff191682840152151560051b82010138806120ed565b60009291815461218c81611e60565b926001918083169081156121e557506001146121a9575b50505050565b90919293945060005260209081600020906000915b8583106121d457505050500190388080806121a3565b8054858401529183019181016121be565b60ff19168452505050811515909102019150388080806121a3565b906122136020928281519485920161029b565b0190565b90916122228261263d565b9161222c81611700565b546122369061263d565b906122409061172f565b5461224a9061263d565b6040516a7b226e616d65223a20222360a81b6020820152948594919291602b860161227491612200565b61088b60f21b8152600201691134b6b0b3b2911d101160b11b8152600a0161229b91612200565b61088b60f21b81526002016e2261747472696275746573223a205b60881b8152600f01607b60f81b815260010175089d1c985a5d17dd1e5c19488e880893195d995b088b60521b8152601601680113b30b63ab2911d160bd1b815260090161230291612200565b611f4b60f21b8152600201607b60f81b815260010175089d1c985a5d17dd1e5c19488e8808941bda5b9d088b60521b8152601601680113b30b63ab2911d160bd1b815260090161235191612200565b611f4b60f21b8152600201607b60f81b815260010175089d1c985a5d17dd1e5c19488e8808941a5b1bdd088b60521b815260160169113b30b63ab2911d101160b11b8152600a016123a191612200565b601160f91b8152600101607d60f81b8152600101615d7d60f01b81526002010390601f199182810182526123d59082610deb565b6123de906124d1565b6040517f646174613a6170706c69636174696f6e2f6a736f6e3b6261736536342c000000602082015291908290603d820161241891612200565b0390810182526102f49082610deb565b6040519061243582610dcf565b604082527f6768696a6b6c6d6e6f707172737475767778797a303132333435363738392b2f6040837f4142434445464748494a4b4c4d4e4f505152535455565758595a61626364656660208201520152565b600281901b91906001600160fe1b038116036106ba57565b906124a982610e0d565b6124b66040519182610deb565b82815280926124c7601f1991610e0d565b0190602036910137565b8051156125b1576124e0612428565b6124fc6124f76124f084516116d7565b6003900490565b612487565b9161250e612509846116e5565b61249f565b92835280815182019060208501935b82821061255f5750505060039051068060011461254e5760021461253f575090565b603d60f81b6000199091015290565b50613d3d60f01b6001199091015290565b9091936004906003809401938451600190603f9082828260121c16880101518553828282600c1c16880101518386015382828260061c168801015160028601531685010151908201530193919061251d565b506102f461207e565b7fc8fcad8db84d3cc18b4c41d551ea0ee66dd599cde068d998e57d5e09332c1320546001600160a01b031633036125ed57565b60405162461bcd60e51b815260206004820152602260248201527f4c69624469616d6f6e643a204d75737420626520636f6e7472616374206f776e60448201526132b960f11b6064820152608490fd5b806000917a184f03e93ff9f4daa797ed6e38ed64bf6a1f01000000000000000080821015612772575b506d04ee2d6d415b85acef810000000080831015612763575b50662386f26fc1000080831015612754575b506305f5e10080831015612745575b5061271080831015612736575b506064821015612726575b600a8092101561271c575b6001908160216126d482870161249f565b95860101905b6126e6575b5050505090565b600019019083906f181899199a1a9b1b9c1cb0b131b232b360811b8282061a835304918215612717579190826126da565b6126df565b91600101916126c3565b91906064600291049101916126b8565b600491939204910191386126ad565b600891939204910191386126a0565b60109193920491019138612691565b6020919392049101913861267f565b604093508104915038612666565b6000526000805160206130b683398151915260205260406000205480156127d7576127ae90600019016127ff565b50600101546001600160a01b031680156127c55790565b604051637e1a7d8b60e01b8152600490fd5b604051633d547ec560e21b8152600490fd5b634e487b7160e01b600052603260045260246000fd5b60008051602061309683398151915280548210156128455760005260011b7f709a16c9caeafb61409212be896356f281c91d5c5b5cccb959477d20bb6240fb0190600090565b6127e9565b6000526000805160206130b6833981519152602052604060002054151590565b6128738161284a565b156128a057600090815260008051602061307683398151915260205260409020546001600160a01b031690565b60405163c1b843ef60e01b8152600490fd5b6128bb8261284a565b156128a0576128c982612780565b6001600160a01b038281168282168114949091908515612908575b50505082156128f257505090565b60ff925090610540612903926119e2565b541690565b612915919293955061286a565b1614913880806128e4565b90816000526000805160206130b683398151915260205260406000205480156000146129c9575060405161295381610d97565b82815260208101918252600080516020613096833981519152908154600160401b811015610d925780600161298a920184556127ff565b9190916129c4576129be936001915183555191015554916000526000805160206130b6833981519152602052604060002090565b55600190565b611e4a565b60019192506129db90600019016127ff565b500155600090565b80548210156128455760005260206000200190600090565b91906000926001810190826000528160205260406000205415612a1d57505050565b80919293945054600160401b811015610d9257612a5b612a448260018794018555846129e3565b819391549060031b91821b91600019901b19161790565b90555491600052602052604060002055600190565b634e487b7160e01b600052603160045260246000fd5b60008051602061309683398151915280548015612abc576000190190612aab826127ff565b6129c4576001816000809355015555565b612a70565b60008181526000805160206130b68339815191526020526040902054908115612b7f5760001990612b0e612b058360008051602061309683398151915254016127ff565b509284016127ff565b9390936129c457612b4683856129be9560009703612b6c575b50546000526000805160206130b6833981519152602052604060002090565b55612b4f612a86565b6000526000805160206130b6833981519152602052604060002090565b8154815560018083015491015538612b27565b5050600090565b919060009260009160018201918184528260205260408420549081612bad575b5050505050565b9091929394955060001991612bc583835401836129e3565b90549060031b1c80612bdc612a44868501866129e3565b9055865284602052604086205580548015612abc57820191612bfe83836129e3565b909182549160031b1b1916905555825260205260408120556001903880808080612ba6565b6000908382526000805160206130d683398151915260205260ff604083205416612d3657612c5084612780565b6001600160a01b03828116939181169290848403612d24578516948515612d12577fddf252ad1be2c89b69c2b068fc378daa952ba7f163c4a11628f55a4df523b3ef93612cba8861063084612cb483611ab28199612caf838d9b612f17565b611a1b565b50611a1b565b50612cc58784612920565b50612cea611ae684600052600080516020613076833981519152602052604060002090565b7f8c5be1e5ebec7d5bd14f71427d1e84f3dd0314c0f7b2291e5b200ac8c7c3b9258280a480a4565b6040516340311a0960e01b8152600490fd5b604051630f2db4ad60e01b8152600490fd5b60405162461bcd60e51b815260206004820152601c60248201527f4d657263757279426173653a20746f6b656e206973206c6f636b6564000000006044820152606490fd5b929190346107a757612d8d82336128b2565b156105185783612da18383612da697612c23565b612ebe565b1561068457565b612db357565b60405163b56d7c1b60e01b8152600490fd5b60405190612dd282610dcf565b603282527131b2b4bb32b91034b6b83632b6b2b73a32b960711b6040837f4552433732313a207472616e7366657220746f206e6f6e20455243373231526560208201520152565b9081602091031261022957516102f481610217565b919091803b15612eb657612e7a612e88612e9693604051928391630a85bd0160e11b978860208501523360248501526000604485015260648401526080608484015260a48301906102be565b03601f198101835282610deb565b612e90612dc5565b91612f9c565b612eb163ffffffff60e01b9160208082518301019101612e19565b161490565b505050600190565b92813b15612f0e57612e88612e9693612e7a604051938492630a85bd0160e11b9889602086015233602486015260018060a01b0316604485015260648401526080608484015260a48301906102be565b50505050600190565b6001600160a01b031615612f285750565b60009081527f99574a7094154bb123ae6ae102096f0bf9679b85a5cd1e727aaa0ae5f132e6b460205260408120612f5f8154611e60565b80612f6957505050565b82601f8211600114612f7a57505055565b9091808252612f98601f60208420940160051c840160018501611e9a565b5555565b9190606092803b156130235781600092918360208194519301915af1913d1561301d57503d91612fcb83610e0d565b92612fd96040519485610deb565b83523d6000602085013e5b15612fed575090565b815115612ffd5750805190602001fd5b60405162461bcd60e51b815290819061301990600483016102e3565b0390fd5b91612fe4565b604051632270d6bf60e21b8152600490fdfe3b36e3c23f7226ff6a8560b4f003b6456caa037dff1f2961b3deb261d5af6a5c3b36e3c23f7226ff6a8560b4f003b6456caa037dff1f2961b3deb261d5af6a5b3c7bf052874fa81625121783266a03507bd2cd48b16e571c01a04e8dd3fb07a93c7bf052874fa81625121783266a03507bd2cd48b16e571c01a04e8dd3fb07a63c7bf052874fa81625121783266a03507bd2cd48b16e571c01a04e8dd3fb07a73b36e3c23f7226ff6a8560b4f003b6456caa037dff1f2961b3deb261d5af6a5fa26469706673582212209c1f8a6461e8815216519d0af1f4cd70025504b77c7b6df946be26d2c31c74d864736f6c63430008130033fc606c433378e3a7e0a6a531deac289b66caa1b4aa8554fd4ab2c6f1570f92d8",
    "linkReferences": {}
  },
  "methodIdentifiers": {
    "approve(address,uint256)": "095ea7b3",
    "aviationLevels(uint256)": "49ad6782",
    "aviationLock(uint256)": "d83a19e0",
    "aviationMovePoints(uint256,uint256)": "dd7a2e85",
    "aviationPoints(uint256)": "26332402",
    "aviationUnlock(uint256)": "b5de30b4",
    "balanceOf(address)": "70a08231",
    "getApproved(uint256)": "081812fc",
    "isApprovedForAll(address,address)": "e985e9c5",
    "isApprovedOrOwner(address,uint256)": "430c2081",
    "isAviationLocked(uint256)": "2f10dfda",
    "mintAviation(address)": "1c2d79c7",
    "mintable()": "4bf365df",
    "name()": "06fdde03",
    "ownerOf(uint256)": "6352211e",
    "price()": "a035b1fe",
    "refundResourcesFromGame(address,address,uint256[],uint256[])": "fdffdd3b",
    "registerMetadataURI(string)": "ce9e3cd8",
    "registerPilotAddress(address,string,string)": "bf07b68f",
    "requestResourcesForGame(address,address,uint256[],uint256[])": "f6573d7b",
    "safeTransferFrom(address,address,uint256)": "42842e0e",
    "safeTransferFrom(address,address,uint256,bytes)": "b88d4fde",
    "setApprovalForAll(address,bool)": "a22cb465",
    "setMintable(bool)": "285d70d4",
    "setPrice(uint256)": "91b7f5ed",
    "supportsInterface(bytes4)": "01ffc9a7",
    "symbol()": "95d89b41",
    "tokenByIndex(uint256)": "4f6ccce7",
    "tokenOfOwnerByIndex(address,uint256)": "2f745c59",
    "tokenURI(uint256)": "c87b56dd",
    "totalSupply()": "18160ddd",
    "transferFrom(address,address,uint256)": "23b872dd"
  },
  "id": 526
}