{
  "abi": [
    {
      "anonymous": false,
      "inputs": [
        {
          "indexed": true,
          "internalType": "address",
          "name": "owner",
          "type": "address"
        },
        {
          "indexed": true,
          "internalType": "address",
          "name": "spender",
          "type": "address"
        },
        {
          "indexed": false,
          "internalType": "uint256",
          "name": "value",
          "type": "uint256"
        }
      ],
      "name": "Approval",
      "type": "event"
    },
    {
      "anonymous": false,
      "inputs": [
        {
          "indexed": true,
          "internalType": "address",
          "name": "from",
          "type": "address"
        },
        {
          "indexed": true,
          "internalType": "address",
          "name": "to",
          "type": "address"
        },
        {
          "indexed": false,
          "internalType": "uint256",
          "name": "value",
          "type": "uint256"
        }
      ],
      "name": "Transfer",
      "type": "event"
    },
    {
      "inputs": [
        {
          "internalType": "address",
          "name": "owner",
          "type": "address"
        },
        {
          "internalType": "address",
          "name": "spender",
          "type": "address"
        }
      ],
      "name": "allowance",
      "outputs": [
        {
          "internalType": "uint256",
          "name": "",
          "type": "uint256"
        }
      ],
      "stateMutability": "view",
      "type": "function"
    },
    {
      "inputs": [
        {
          "internalType": "address",
          "name": "spender",
          "type": "address"
        },
        {
          "internalType": "uint256",
          "name": "amount",
          "type": "uint256"
        }
      ],
      "name": "approve",
      "outputs": [
        {
          "internalType": "bool",
          "name": "",
          "type": "bool"
        }
      ],
      "stateMutability": "nonpayable",
      "type": "function"
    },
    {
      "inputs": [
        {
          "internalType": "address",
          "name": "account",
          "type": "address"
        }
      ],
      "name": "balanceOf",
      "outputs": [
        {
          "internalType": "uint256",
          "name": "",
          "type": "uint256"
        }
      ],
      "stateMutability": "view",
      "type": "function"
    },
    {
      "inputs": [],
      "name": "decimals",
      "outputs": [
        {
          "internalType": "uint8",
          "name": "",
          "type": "uint8"
        }
      ],
      "stateMutability": "view",
      "type": "function"
    },
    {
      "inputs": [
        {
          "internalType": "address",
          "name": "spender",
          "type": "address"
        },
        {
          "internalType": "uint256",
          "name": "subtractedValue",
          "type": "uint256"
        }
      ],
      "name": "decreaseAllowance",
      "outputs": [
        {
          "internalType": "bool",
          "name": "",
          "type": "bool"
        }
      ],
      "stateMutability": "nonpayable",
      "type": "function"
    },
    {
      "inputs": [
        {
          "internalType": "address",
          "name": "target",
          "type": "address"
        },
        {
          "internalType": "bytes",
          "name": "data",
          "type": "bytes"
        }
      ],
      "name": "functionCall",
      "outputs": [
        {
          "internalType": "bytes",
          "name": "",
          "type": "bytes"
        }
      ],
      "stateMutability": "nonpayable",
      "type": "function"
    },
    {
      "inputs": [
        {
          "internalType": "address",
          "name": "spender",
          "type": "address"
        },
        {
          "internalType": "uint256",
          "name": "addedValue",
          "type": "uint256"
        }
      ],
      "name": "increaseAllowance",
      "outputs": [
        {
          "internalType": "bool",
          "name": "",
          "type": "bool"
        }
      ],
      "stateMutability": "nonpayable",
      "type": "function"
    },
    {
      "inputs": [],
      "name": "name",
      "outputs": [
        {
          "internalType": "string",
          "name": "",
          "type": "string"
        }
      ],
      "stateMutability": "view",
      "type": "function"
    },
    {
      "inputs": [
        {
          "internalType": "enum ERC20Reentrant.Type",
          "name": "when",
          "type": "uint8"
        },
        {
          "internalType": "address",
          "name": "target",
          "type": "address"
        },
        {
          "internalType": "bytes",
          "name": "data",
          "type": "bytes"
        }
      ],
      "name": "scheduleReenter",
      "outputs": [],
      "stateMutability": "nonpayable",
      "type": "function"
    },
    {
      "inputs": [],
      "name": "symbol",
      "outputs": [
        {
          "internalType": "string",
          "name": "",
          "type": "string"
        }
      ],
      "stateMutability": "view",
      "type": "function"
    },
    {
      "inputs": [],
      "name": "totalSupply",
      "outputs": [
        {
          "internalType": "uint256",
          "name": "",
          "type": "uint256"
        }
      ],
      "stateMutability": "view",
      "type": "function"
    },
    {
      "inputs": [
        {
          "internalType": "address",
          "name": "to",
          "type": "address"
        },
        {
          "internalType": "uint256",
          "name": "amount",
          "type": "uint256"
        }
      ],
      "name": "transfer",
      "outputs": [
        {
          "internalType": "bool",
          "name": "",
          "type": "bool"
        }
      ],
      "stateMutability": "nonpayable",
      "type": "function"
    },
    {
      "inputs": [
        {
          "internalType": "address",
          "name": "from",
          "type": "address"
        },
        {
          "internalType": "address",
          "name": "to",
          "type": "address"
        },
        {
          "internalType": "uint256",
          "name": "amount",
          "type": "uint256"
        }
      ],
      "name": "transferFrom",
      "outputs": [
        {
          "internalType": "bool",
          "name": "",
          "type": "bool"
        }
      ],
      "stateMutability": "nonpayable",
      "type": "function"
    }
  ],
  "bytecode": {
    "object": "0x60803462000331576040906001600160401b0390808301828111828210176200031b578352600491828252602063151154d560e21b818401528451908582018281108482111762000306578652600391828152621514d560ea1b8282015284519184831162000208578354926001968785811c95168015620002fb575b83861014620002e6578190601f9586811162000290575b50839086831160011462000229576000926200021d575b505060001982871b1c191690871b1784555b8151948511620002085786548681811c91168015620001fd575b82821014620001e8578381116200019d575b50809285116001146200012f575093839491849260009562000123575b50501b92600019911b1c19161790555b51610de99081620003378239f35b01519350388062000105565b92919084601f1981168860005285600020956000905b8983831062000182575050501062000167575b50505050811b01905562000115565b01519060f884600019921b161c191690553880808062000158565b85870151895590970196948501948893509081019062000145565b87600052816000208480880160051c820192848910620001de575b0160051c019087905b828110620001d1575050620000e8565b60008155018790620001c1565b92508192620001b8565b602288634e487b7160e01b6000525260246000fd5b90607f1690620000d6565b604187634e487b7160e01b6000525260246000fd5b015190503880620000aa565b90899350601f1983169188600052856000209260005b8782821062000279575050841162000260575b505050811b018455620000bc565b015160001983891b60f8161c1916905538808062000252565b8385015186558d979095019493840193016200023f565b90915086600052836000208680850160051c820192868610620002dc575b918b91869594930160051c01915b828110620002cc57505062000093565b600081558594508b9101620002bc565b92508192620002ae565b602289634e487b7160e01b6000525260246000fd5b94607f16946200007c565b604186634e487b7160e01b6000525260246000fd5b634e487b7160e01b600052604160045260246000fd5b600080fdfe608060408181526004918236101561001657600080fd5b600092833560e01c91826306fdde03146106ef57508163095ea7b3146106c557816318160ddd146106a657816323b872dd146105dc578163313ce567146105c0578163395093511461055957816370a082311461052257816395d89b411461043b578163a0b5ffb01461039e578163a457c2d7146102f9578163a9059cbb146102c8578163cd594b63146100ff575063dd62ed3e146100b457600080fd5b346100fb57806003193601126100fb57806020926100d0610800565b6100d861081b565b6001600160a01b0391821683526001865283832091168252845220549051908152f35b5080fd5b83346102c55760603660031901126102c55781359160038310156100fb5761012561081b565b926044359067ffffffffffffffff928383116102bd57366023840112156102bd578201359283116102c157602494368685850101116102bd5760ff60055491610100600160a81b039060081b169216906affffffffffffffffffffff60a81b161717600555610195600654610885565b601f811161025e575b508290601f83116001146101de57908394918394936101d1575b5050508160011b916000199060031b1c19161760065580f35b01013590508380806101b8565b601f198316947ff652222313e28459528d920b65115c16c04f3efc82aaedc97be59f3f377c0d3f92855b8781106102445750846001969710610228575b50505050811b0160065580f35b60001960f88660031b161c19920101351690558380808061021b565b909360206001819285888801013581550195019101610208565b7ff652222313e28459528d920b65115c16c04f3efc82aaedc97be59f3f377c0d3f601f840160051c810191602085106102b3575b601f0160051c01905b8181106102a8575061019e565b84815560010161029b565b9091508190610292565b8480fd5b8380fd5b80fd5b5050346100fb57806003193601126100fb576020906102f26102e8610800565b6024359033610963565b5160018152f35b905082346102c557826003193601126102c557610314610800565b918360243592338152600160205281812060018060a01b038616825260205220549082821061034d576020856102f28585038733610b84565b608490602086519162461bcd60e51b8352820152602560248201527f45524332303a2064656372656173656420616c6c6f77616e63652062656c6f77604482015264207a65726f60d81b6064820152fd5b9050346104375781600319360112610437576103b8610800565b6024359167ffffffffffffffff83116102bd57366023840112156102bd578201356103e281610869565b926103ef85519485610831565b8184523660248383010111610433579460208261041c959493602461042f99018387013784010152610c86565b90519182916020835260208301906107c0565b0390f35b8580fd5b8280fd5b919050346104375782600319360112610437578051918381549061045e82610885565b808652926001928084169081156104f7575060011461049b575b61042f8686610489828b0383610831565b519182916020835260208301906107c0565b815294507f8a35acfbc15ff81a39ae7d344fd709f28e8600b4aa8c65c6b64bfe7fe36bd19b5b8286106104df5750505061048982602061042f958201019438610478565b805460208787018101919091529095019481016104c1565b905061042f97508693506020925061048994915060ff191682840152151560051b8201019438610478565b5050346100fb5760203660031901126100fb5760209181906001600160a01b0361054a610800565b16815280845220549051908152f35b8284346102c557816003193601126102c557610573610800565b338252600160209081528383206001600160a01b03831684529052828220546024358101929083106105ad576020846102f2858533610b84565b634e487b7160e01b815260118552602490fd5b5050346100fb57816003193601126100fb576020905160128152f35b839150346100fb5760603660031901126100fb576105f8610800565b61060061081b565b91846044359460018060a01b03841681526001602052818120338252602052205490600019820361063a575b6020866102f2878787610963565b8482106106635750918391610658602096956102f295033383610b84565b91939481935061062c565b606490602087519162461bcd60e51b8352820152601d60248201527f45524332303a20696e73756666696369656e7420616c6c6f77616e63650000006044820152fd5b5050346100fb57816003193601126100fb576020906002549051908152f35b5050346100fb57806003193601126100fb576020906102f26106e5610800565b6024359033610b84565b849084346104375782600319360112610437578260035461070f81610885565b80855291600191808316908115610798575060011461073b575b5050506104898261042f940383610831565b9450600385527fc2575a0e9e593c00f959f8c92f12db2869c3395a3b0502d05e2516446f71f85b5b8286106107805750505061048982602061042f9582010194610729565b80546020878701810191909152909501948101610763565b61042f97508693506020925061048994915060ff191682840152151560051b82010194610729565b919082519283825260005b8481106107ec575050826000602080949584010152601f8019910116010190565b6020818301810151848301820152016107cb565b600435906001600160a01b038216820361081657565b600080fd5b602435906001600160a01b038216820361081657565b90601f8019910116810190811067ffffffffffffffff82111761085357604052565b634e487b7160e01b600052604160045260246000fd5b67ffffffffffffffff811161085357601f01601f191660200190565b90600182811c921680156108b5575b602083101461089f57565b634e487b7160e01b600052602260045260246000fd5b91607f1691610894565b600654600092916108cf82610885565b8082529160019081811690811561094657506001146108ed57505050565b9192935060066000527ff652222313e28459528d920b65115c16c04f3efc82aaedc97be59f3f377c0d3f916000925b84841061092e57505060209250010190565b8054602085850181019190915290930192810161091c565b915050602093945060ff929192191683830152151560051b010190565b6001600160a01b03908116918215610b315781168015610ae05760055460ff81166003811015610aca57600114610aa5575b506000928084528360205260409485852054818110610a5257817fddf252ad1be2c89b69c2b068fc378daa952ba7f163c4a11628f55a4df523b3ef9260209285895288845203888820558487528787208181540190558751908152a36005549160ff8316906003821015610a3e5750600214610a1057505050565b610a3b9260ff1983166005555191610a3283610a2b816108bf565b0384610831565b60081c16610c86565b50565b634e487b7160e01b81526021600452602490fd5b865162461bcd60e51b815260206004820152602660248201527f45524332303a207472616e7366657220616d6f756e7420657863656564732062604482015265616c616e636560d01b6064820152608490fd5b60ff198116600555604051610ac3918490610a3283610a2b816108bf565b5038610995565b634e487b7160e01b600052602160045260246000fd5b60405162461bcd60e51b815260206004820152602360248201527f45524332303a207472616e7366657220746f20746865207a65726f206164647260448201526265737360e81b6064820152608490fd5b60405162461bcd60e51b815260206004820152602560248201527f45524332303a207472616e736665722066726f6d20746865207a65726f206164604482015264647265737360d81b6064820152608490fd5b6001600160a01b03908116918215610c355716918215610be55760207f8c5be1e5ebec7d5bd14f71427d1e84f3dd0314c0f7b2291e5b200ac8c7c3b925918360005260018252604060002085600052825280604060002055604051908152a3565b60405162461bcd60e51b815260206004820152602260248201527f45524332303a20617070726f766520746f20746865207a65726f206164647265604482015261737360f01b6064820152608490fd5b60405162461bcd60e51b8152602060048201526024808201527f45524332303a20617070726f76652066726f6d20746865207a65726f206164646044820152637265737360e01b6064820152608490fd5b60405190604082019282841067ffffffffffffffff8511176108535760008091610d0f95604052601e85527f416464726573733a206c6f772d6c6576656c2063616c6c206661696c65640000602086015260208151910182855af13d15610d12573d91610cf283610869565b92610d006040519485610831565b83523d6000602085013e610d16565b90565b6060915b91929015610d785750815115610d2a575090565b3b15610d335790565b60405162461bcd60e51b815260206004820152601d60248201527f416464726573733a2063616c6c20746f206e6f6e2d636f6e74726163740000006044820152606490fd5b825190915015610d8b5750805190602001fd5b60405162461bcd60e51b815260206004820152908190610daf9060248301906107c0565b0390fdfea264697066735822122076648db9291c21bee8cfdf2c4884fedc5c89b4157a829b5031b5b232ed867eed64736f6c63430008130033",
    "linkReferences": {}
  },
  "methodIdentifiers": {
    "allowance(address,address)": "dd62ed3e",
    "approve(address,uint256)": "095ea7b3",
    "balanceOf(address)": "70a08231",
    "decimals()": "313ce567",
    "decreaseAllowance(address,uint256)": "a457c2d7",
    "functionCall(address,bytes)": "a0b5ffb0",
    "increaseAllowance(address,uint256)": "39509351",
    "name()": "06fdde03",
    "scheduleReenter(uint8,address,bytes)": "cd594b63",
    "symbol()": "95d89b41",
    "totalSupply()": "18160ddd",
    "transfer(address,uint256)": "a9059cbb",
    "transferFrom(address,address,uint256)": "23b872dd"
  },
  "id": 60
}