{
  "abi": [
    {
      "inputs": [],
      "name": "AddressUtils__NotContract",
      "type": "error"
    },
    {
      "inputs": [],
      "name": "ERC165Base__InvalidInterfaceId",
      "type": "error"
    },
    {
      "inputs": [],
      "name": "ERC721Base__BalanceQueryZeroAddress",
      "type": "error"
    },
    {
      "inputs": [],
      "name": "ERC721Base__ERC721ReceiverNotImplemented",
      "type": "error"
    },
    {
      "inputs": [],
      "name": "ERC721Base__InvalidOwner",
      "type": "error"
    },
    {
      "inputs": [],
      "name": "ERC721Base__MintToZeroAddress",
      "type": "error"
    },
    {
      "inputs": [],
      "name": "ERC721Base__NonExistentToken",
      "type": "error"
    },
    {
      "inputs": [],
      "name": "ERC721Base__NotOwnerOrApproved",
      "type": "error"
    },
    {
      "inputs": [],
      "name": "ERC721Base__NotTokenOwner",
      "type": "error"
    },
    {
      "inputs": [],
      "name": "ERC721Base__SelfApproval",
      "type": "error"
    },
    {
      "inputs": [],
      "name": "ERC721Base__TokenAlreadyMinted",
      "type": "error"
    },
    {
      "inputs": [],
      "name": "ERC721Base__TransferToZeroAddress",
      "type": "error"
    },
    {
      "inputs": [],
      "name": "EnumerableMap__IndexOutOfBounds",
      "type": "error"
    },
    {
      "inputs": [],
      "name": "EnumerableMap__NonExistentKey",
      "type": "error"
    },
    {
      "inputs": [],
      "name": "EnumerableSet__IndexOutOfBounds",
      "type": "error"
    },
    {
      "anonymous": false,
      "inputs": [
        {
          "indexed": true,
          "internalType": "address",
          "name": "owner",
          "type": "address"
        },
        {
          "indexed": true,
          "internalType": "address",
          "name": "operator",
          "type": "address"
        },
        {
          "indexed": true,
          "internalType": "uint256",
          "name": "tokenId",
          "type": "uint256"
        }
      ],
      "name": "Approval",
      "type": "event"
    },
    {
      "anonymous": false,
      "inputs": [
        {
          "indexed": true,
          "internalType": "address",
          "name": "owner",
          "type": "address"
        },
        {
          "indexed": true,
          "internalType": "address",
          "name": "operator",
          "type": "address"
        },
        {
          "indexed": false,
          "internalType": "bool",
          "name": "approved",
          "type": "bool"
        }
      ],
      "name": "ApprovalForAll",
      "type": "event"
    },
    {
      "anonymous": false,
      "inputs": [
        {
          "indexed": true,
          "internalType": "address",
          "name": "from",
          "type": "address"
        },
        {
          "indexed": true,
          "internalType": "address",
          "name": "to",
          "type": "address"
        },
        {
          "indexed": true,
          "internalType": "uint256",
          "name": "tokenId",
          "type": "uint256"
        }
      ],
      "name": "Transfer",
      "type": "event"
    },
    {
      "inputs": [
        {
          "internalType": "address",
          "name": "operator",
          "type": "address"
        },
        {
          "internalType": "uint256",
          "name": "tokenId",
          "type": "uint256"
        }
      ],
      "name": "approve",
      "outputs": [],
      "stateMutability": "payable",
      "type": "function"
    },
    {
      "inputs": [
        {
          "internalType": "address",
          "name": "account",
          "type": "address"
        }
      ],
      "name": "balanceOf",
      "outputs": [
        {
          "internalType": "uint256",
          "name": "",
          "type": "uint256"
        }
      ],
      "stateMutability": "view",
      "type": "function"
    },
    {
      "inputs": [
        {
          "internalType": "uint256",
          "name": "tokenId",
          "type": "uint256"
        }
      ],
      "name": "burn",
      "outputs": [],
      "stateMutability": "nonpayable",
      "type": "function"
    },
    {
      "inputs": [
        {
          "internalType": "uint256",
          "name": "tokenId",
          "type": "uint256"
        }
      ],
      "name": "getApproved",
      "outputs": [
        {
          "internalType": "address",
          "name": "",
          "type": "address"
        }
      ],
      "stateMutability": "view",
      "type": "function"
    },
    {
      "inputs": [
        {
          "internalType": "address",
          "name": "account",
          "type": "address"
        },
        {
          "internalType": "address",
          "name": "operator",
          "type": "address"
        }
      ],
      "name": "isApprovedForAll",
      "outputs": [
        {
          "internalType": "bool",
          "name": "",
          "type": "bool"
        }
      ],
      "stateMutability": "view",
      "type": "function"
    },
    {
      "inputs": [
        {
          "internalType": "address",
          "name": "account",
          "type": "address"
        },
        {
          "internalType": "uint256",
          "name": "tokenId",
          "type": "uint256"
        }
      ],
      "name": "mint",
      "outputs": [],
      "stateMutability": "nonpayable",
      "type": "function"
    },
    {
      "inputs": [
        {
          "internalType": "uint256",
          "name": "tokenId",
          "type": "uint256"
        }
      ],
      "name": "ownerOf",
      "outputs": [
        {
          "internalType": "address",
          "name": "",
          "type": "address"
        }
      ],
      "stateMutability": "view",
      "type": "function"
    },
    {
      "inputs": [
        {
          "internalType": "address",
          "name": "from",
          "type": "address"
        },
        {
          "internalType": "address",
          "name": "to",
          "type": "address"
        },
        {
          "internalType": "uint256",
          "name": "tokenId",
          "type": "uint256"
        }
      ],
      "name": "safeTransferFrom",
      "outputs": [],
      "stateMutability": "payable",
      "type": "function"
    },
    {
      "inputs": [
        {
          "internalType": "address",
          "name": "from",
          "type": "address"
        },
        {
          "internalType": "address",
          "name": "to",
          "type": "address"
        },
        {
          "internalType": "uint256",
          "name": "tokenId",
          "type": "uint256"
        },
        {
          "internalType": "bytes",
          "name": "data",
          "type": "bytes"
        }
      ],
      "name": "safeTransferFrom",
      "outputs": [],
      "stateMutability": "payable",
      "type": "function"
    },
    {
      "inputs": [
        {
          "internalType": "address",
          "name": "operator",
          "type": "address"
        },
        {
          "internalType": "bool",
          "name": "status",
          "type": "bool"
        }
      ],
      "name": "setApprovalForAll",
      "outputs": [],
      "stateMutability": "nonpayable",
      "type": "function"
    },
    {
      "inputs": [
        {
          "internalType": "bytes4",
          "name": "interfaceId",
          "type": "bytes4"
        }
      ],
      "name": "supportsInterface",
      "outputs": [
        {
          "internalType": "bool",
          "name": "",
          "type": "bool"
        }
      ],
      "stateMutability": "view",
      "type": "function"
    },
    {
      "inputs": [
        {
          "internalType": "uint256",
          "name": "index",
          "type": "uint256"
        }
      ],
      "name": "tokenByIndex",
      "outputs": [
        {
          "internalType": "uint256",
          "name": "",
          "type": "uint256"
        }
      ],
      "stateMutability": "view",
      "type": "function"
    },
    {
      "inputs": [
        {
          "internalType": "address",
          "name": "owner",
          "type": "address"
        },
        {
          "internalType": "uint256",
          "name": "index",
          "type": "uint256"
        }
      ],
      "name": "tokenOfOwnerByIndex",
      "outputs": [
        {
          "internalType": "uint256",
          "name": "",
          "type": "uint256"
        }
      ],
      "stateMutability": "view",
      "type": "function"
    },
    {
      "inputs": [],
      "name": "totalSupply",
      "outputs": [
        {
          "internalType": "uint256",
          "name": "",
          "type": "uint256"
        }
      ],
      "stateMutability": "view",
      "type": "function"
    },
    {
      "inputs": [
        {
          "internalType": "address",
          "name": "from",
          "type": "address"
        },
        {
          "internalType": "address",
          "name": "to",
          "type": "address"
        },
        {
          "internalType": "uint256",
          "name": "tokenId",
          "type": "uint256"
        }
      ],
      "name": "transferFrom",
      "outputs": [],
      "stateMutability": "payable",
      "type": "function"
    }
  ],
  "bytecode": {
    "object": "0x60808060405234610016576111da908161001c8239f35b600080fdfe6080604052600436101561001257600080fd5b60003560e01c806301ffc9a714610107578063081812fc14610102578063095ea7b3146100fd57806318160ddd146100f857806323b872dd146100f35780632f745c59146100ee57806340c10f19146100e957806342842e0e146100e457806342966c68146100df5780634f6ccce7146100da5780636352211e146100d557806370a08231146100d0578063a22cb465146100cb578063b88d4fde146100c65763e985e9c5146100c157600080fd5b61089f565b61081b565b61072b565b6106dd565b6106bf565b61066d565b610518565b6104e3565b6103ce565b610374565b610350565b6102f0565b6101e1565b610185565b610123565b6001600160e01b031981160361011e57565b600080fd5b3461011e57602036600319011261011e576004356101408161010c565b63ffffffff60e01b166000527ffc606c433378e3a7e0a6a531deac289b66caa1b4aa8554fd4ab2c6f1570f92d8602052602060ff604060002054166040519015158152f35b3461011e57602036600319011261011e5760206101a3600435610a18565b6040516001600160a01b039091168152f35b600435906001600160a01b038216820361011e57565b602435906001600160a01b038216820361011e57565b604036600319011261011e576101f56101b5565b602435906102028261094e565b6001600160a01b0380831692908216918383146102de578233141590816102a6575b506102945761026d9061024e85600052600080516020611125833981519152602052604060002090565b80546001600160a01b0319166001600160a01b03909216919091179055565b7f8c5be1e5ebec7d5bd14f71427d1e84f3dd0314c0f7b2291e5b200ac8c7c3b925600080a4005b604051632f5de44f60e01b8152600490fd5b6102d891506102d260ff916102bb33916108dc565b9060018060a01b0316600052602052604060002090565b54161590565b38610224565b60405163424a22cb60e01b8152600490fd5b3461011e57600036600319011261011e57602060008051602061114583398151915254604051908152f35b606090600319011261011e576001600160a01b0390600435828116810361011e5791602435908116810361011e579060443590565b6103593661031b565b906103648233610a7b565b156102945761037292610b04565b005b3461011e57604036600319011261011e5761038d6101b5565b61039960243591610915565b80548210156103bc576020916103ae91610d59565b90546040519160031b1c8152f35b60405163e637bf3b60e01b8152600490fd5b3461011e57604036600319011261011e576103e76101b5565b602435906001600160a01b0381169081156104d15761042083600052600080516020611165833981519152602052604060002054151590565b6104bf5761042d90610915565b600083815260018201602052604090205415610466575b5061044f8183610c96565b5060006000805160206111858339815191528180a4005b8054600160401b8110156104ba5761049f610488826001879401855584610d59565b819391549060031b91821b91600019901b19161790565b90556001815491846000520160205260406000205538610444565b6107ab565b604051630d86bb7b60e31b8152600490fd5b6040516311f2988d60e11b8152600490fd5b6104ec3661031b565b60405191602083019383851067ffffffffffffffff8611176104ba576103729460405260008452610dee565b3461011e57602036600319011261011e576004356105358161094e565b9061053f82610915565b60018101926000938492848452816020526040842054806105e1575b50505061056783610fb5565b5061059c61058c84600052600080516020611125833981519152602052604060002090565b80546001600160a01b0319169055565b6001600160a01b03168282827f8c5be1e5ebec7d5bd14f71427d1e84f3dd0314c0f7b2291e5b200ac8c7c3b9258280a46000805160206111858339815191528280a480f35b90919350600019906105f68284540184610d59565b90549060031b1c8061060d61048885850187610d59565b9055875284602052604087205581548015610668578694859361065f938893019061064d61063b8383610d59565b81929154906000199060031b1b191690565b90555590600052602052604060002090565b5538808061055b565b610dd8565b3461011e57602036600319011261011e57600435600080516020611145833981519152548110156106ad576106a36020916109cd565b5054604051908152f35b60405163022fd82760e31b8152600490fd5b3461011e57602036600319011261011e5760206101a360043561094e565b3461011e57602036600319011261011e576106f66101b5565b6001600160a01b0381161561071957610710602091610915565b54604051908152f35b604051630810ff9760e41b8152600490fd5b3461011e57604036600319011261011e576107446101b5565b60243580151580910361011e576001600160a01b038216913383146102de57610770906102bb336108dc565b60ff1981541660ff83161790556040519081527f17307eab39ab6107e8899845ad3d59bd9653f200f220920489ca2b5937696c3160203392a3005b634e487b7160e01b600052604160045260246000fd5b6040810190811067ffffffffffffffff8211176104ba57604052565b90601f8019910116810190811067ffffffffffffffff8211176104ba57604052565b67ffffffffffffffff81116104ba57601f01601f191660200190565b608036600319011261011e5761082f6101b5565b6108376101cb565b6064359167ffffffffffffffff831161011e573660238401121561011e57826004013591610864836107ff565b9261087260405194856107dd565b808452366024828701011161011e5760208160009260246103729801838801378501015260443591610dee565b3461011e57604036600319011261011e57602060ff6108d06108bf6101b5565b6102bb6108ca6101cb565b916108dc565b54166040519015158152f35b6001600160a01b031660009081527f3c7bf052874fa81625121783266a03507bd2cd48b16e571c01a04e8dd3fb07aa6020526040902090565b6001600160a01b031660009081527f3c7bf052874fa81625121783266a03507bd2cd48b16e571c01a04e8dd3fb07a86020526040902090565b60005260008051602061116583398151915260205260406000205480156109a55761097c90600019016109cd565b50600101546001600160a01b031680156109935790565b604051637e1a7d8b60e01b8152600490fd5b604051633d547ec560e21b8152600490fd5b634e487b7160e01b600052603260045260246000fd5b6000805160206111458339815191528054821015610a135760005260011b7f709a16c9caeafb61409212be896356f281c91d5c5b5cccb959477d20bb6240fb0190600090565b6109b7565b610a3c81600052600080516020611165833981519152602052604060002054151590565b15610a6957600090815260008051602061112583398151915260205260409020546001600160a01b031690565b60405163c1b843ef60e01b8152600490fd5b610a9f82600052600080516020611165833981519152602052604060002054151590565b15610a6957610aad8261094e565b6001600160a01b038281168282168114949091908515610aec575b5050508215610ad657505090565b60ff9250906102bb610ae7926108dc565b541690565b610af99192939550610a18565b161491388080610ac8565b90610b0e8361094e565b6001600160a01b038381169291811690838203610c6e578216938415610c5c57610b388691610915565b9160018301926000938385528060205260408520549182610bd2575b5050508290610b7a83610b7560008051602061118583398151915297610915565b610d71565b50610b858784610c96565b50610baa61058c84600052600080516020611125833981519152602052604060002090565b7f8c5be1e5ebec7d5bd14f71427d1e84f3dd0314c0f7b2291e5b200ac8c7c3b9258280a480a4565b90929195935060001995610be98783540183610d59565b90549060031b1c80610c006104888a850186610d59565b90558652836020526040862055805495861561066857610b758a958795610b7a9488946000805160206111858339815191529b0190610c4261063b8383610d59565b905555838752602052856040812055975050829350610b54565b6040516340311a0960e01b8152600490fd5b604051630f2db4ad60e01b8152600490fd5b634e487b7160e01b600052600060045260246000fd5b90816000526000805160206111658339815191526020526040600020548015600014610d3f5750604051610cc9816107c1565b82815260208101918252600080516020611145833981519152908154600160401b8110156104ba57806001610d00920184556109cd565b919091610d3a57610d3493600191518355519101555491600052600080516020611165833981519152602052604060002090565b55600190565b610c80565b6001919250610d5190600019016109cd565b500155600090565b8054821015610a135760005260206000200190600090565b9190600092610d90828260019160005201602052604060002054151590565b15610d99575050565b80919293505490600160401b8210156104ba5782610dc1610488846001809601855584610d59565b905580549260005201602052604060002055600190565b634e487b7160e01b600052603160045260246000fd5b929190610dfb8233610a7b565b156102945783610e0f8383610e1497610b04565b610eea565b15610e1b57565b604051639ff10cdd60e01b8152600490fd5b919082519283825260005b848110610e59575050826000602080949584010152601f8019910116010190565b602081830181015184830182015201610e38565b604051906060820182811067ffffffffffffffff8211176104ba57604052603282527131b2b4bb32b91034b6b83632b6b2b73a32b960711b6040837f4552433732313a207472616e7366657220746f206e6f6e20455243373231526560208201520152565b9081602091031261011e5751610ee78161010c565b90565b92813b15610f7657610f48610f5693610f3a604051938492630a85bd0160e11b9889602086015233602486015260018060a01b0316604485015260648401526080608484015260a4830190610e2d565b03601f1981018352826107dd565b610f50610e6d565b9161108b565b610f7163ffffffff60e01b9160208082518301019101610ed2565b161490565b50505050600190565b60008051602061114583398151915280548015610668576000190190610fa4826109cd565b610d3a576001816000809355015555565b600081815260008051602061116583398151915260205260409020549081156110735760001990611002610ff98360008051602061114583398151915254016109cd565b509284016109cd565b939093610d3a5761103a8385610d349560009703611060575b5054600052600080516020611165833981519152602052604060002090565b55611043610f7f565b600052600080516020611165833981519152602052604060002090565b815481556001808301549101553861101b565b5050600090565b906020610ee7928181520190610e2d565b9190606092803b156111125781600092918360208194519301915af1913d1561110c57503d916110ba836107ff565b926110c860405194856107dd565b83523d6000602085013e5b156110dc575090565b8151156110ec5750805190602001fd5b60405162461bcd60e51b8152908190611108906004830161107a565b0390fd5b916110d3565b604051632270d6bf60e21b8152600490fdfe3c7bf052874fa81625121783266a03507bd2cd48b16e571c01a04e8dd3fb07a93c7bf052874fa81625121783266a03507bd2cd48b16e571c01a04e8dd3fb07a63c7bf052874fa81625121783266a03507bd2cd48b16e571c01a04e8dd3fb07a7ddf252ad1be2c89b69c2b068fc378daa952ba7f163c4a11628f55a4df523b3efa2646970667358221220ff25fb561fcf56be6cf7328d35730eab5bf5a2509078a8dfc2f18772ea00ceb264736f6c63430008130033",
    "linkReferences": {}
  },
  "methodIdentifiers": {
    "approve(address,uint256)": "095ea7b3",
    "balanceOf(address)": "70a08231",
    "burn(uint256)": "42966c68",
    "getApproved(uint256)": "081812fc",
    "isApprovedForAll(address,address)": "e985e9c5",
    "mint(address,uint256)": "40c10f19",
    "ownerOf(uint256)": "6352211e",
    "safeTransferFrom(address,address,uint256)": "42842e0e",
    "safeTransferFrom(address,address,uint256,bytes)": "b88d4fde",
    "setApprovalForAll(address,bool)": "a22cb465",
    "supportsInterface(bytes4)": "01ffc9a7",
    "tokenByIndex(uint256)": "4f6ccce7",
    "tokenOfOwnerByIndex(address,uint256)": "2f745c59",
    "totalSupply()": "18160ddd",
    "transferFrom(address,address,uint256)": "23b872dd"
  },
  "id": 449
}