{
  "abi": [
    {
      "inputs": [
        {
          "internalType": "address[]",
          "name": "array",
          "type": "address[]"
        }
      ],
      "stateMutability": "nonpayable",
      "type": "constructor"
    },
    {
      "inputs": [
        {
          "internalType": "uint256",
          "name": "pos",
          "type": "uint256"
        }
      ],
      "name": "unsafeAccess",
      "outputs": [
        {
          "internalType": "address",
          "name": "",
          "type": "address"
        }
      ],
      "stateMutability": "view",
      "type": "function"
    }
  ],
  "bytecode": {
    "object": "0x608060405234610141576102168038038061001981610146565b928339810190602080828403126101415781516001600160401b039283821161014157019280601f850112156101415783519083821161010c578160051b9483610064818801610146565b809481520190848297820101928311610141578401905b828210610122575050505191821161010c5768010000000000000000821161010c5760009283548385558084106100e7575b5090838052808420935b8381106100cc5760405160aa908161016c8239f35b82516001600160a01b031685820155918101916001016100b7565b8480528383862091820191015b81811061010157506100ad565b8581556001016100f4565b634e487b7160e01b600052604160045260246000fd5b81516001600160a01b038116810361014157815290840190840161007b565b600080fd5b6040519190601f01601f191682016001600160401b0381118382101761010c5760405256fe6080806040526004361015601257600080fd5b600090813560e01c6340aa934d14602857600080fd5b3460705760203660031901126070579080527f290decd9548b62a8d60345a988386fc84ba6bc95484008f6362f93160ef3e56360043501546001600160a01b03168152602090f35b5080fdfea26469706673582212202d83eca8dc1835d7f86eb918f29206269f5d6bcfaafa7b258b1a9c62aba3102964736f6c63430008130033",
    "linkReferences": {}
  },
  "methodIdentifiers": {
    "unsafeAccess(uint256)": "40aa934d"
  },
  "id": 76
}