{
  "abi": [
    {
      "inputs": [],
      "name": "ERC20Base__ApproveFromZeroAddress",
      "type": "error"
    },
    {
      "inputs": [],
      "name": "ERC20Base__ApproveToZeroAddress",
      "type": "error"
    },
    {
      "inputs": [],
      "name": "ERC20Base__BurnExceedsBalance",
      "type": "error"
    },
    {
      "inputs": [],
      "name": "ERC20Base__BurnFromZeroAddress",
      "type": "error"
    },
    {
      "inputs": [],
      "name": "ERC20Base__InsufficientAllowance",
      "type": "error"
    },
    {
      "inputs": [],
      "name": "ERC20Base__MintToZeroAddress",
      "type": "error"
    },
    {
      "inputs": [],
      "name": "ERC20Base__TransferExceedsBalance",
      "type": "error"
    },
    {
      "inputs": [],
      "name": "ERC20Base__TransferFromZeroAddress",
      "type": "error"
    },
    {
      "inputs": [],
      "name": "ERC20Base__TransferToZeroAddress",
      "type": "error"
    },
    {
      "anonymous": false,
      "inputs": [
        {
          "indexed": true,
          "internalType": "address",
          "name": "owner",
          "type": "address"
        },
        {
          "indexed": true,
          "internalType": "address",
          "name": "spender",
          "type": "address"
        },
        {
          "indexed": false,
          "internalType": "uint256",
          "name": "value",
          "type": "uint256"
        }
      ],
      "name": "Approval",
      "type": "event"
    },
    {
      "anonymous": false,
      "inputs": [
        {
          "indexed": true,
          "internalType": "address",
          "name": "from",
          "type": "address"
        },
        {
          "indexed": true,
          "internalType": "address",
          "name": "to",
          "type": "address"
        },
        {
          "indexed": false,
          "internalType": "uint256",
          "name": "value",
          "type": "uint256"
        }
      ],
      "name": "Transfer",
      "type": "event"
    },
    {
      "inputs": [
        {
          "internalType": "address",
          "name": "holder",
          "type": "address"
        },
        {
          "internalType": "address",
          "name": "spender",
          "type": "address"
        },
        {
          "internalType": "uint256",
          "name": "amount",
          "type": "uint256"
        }
      ],
      "name": "__approve",
      "outputs": [],
      "stateMutability": "nonpayable",
      "type": "function"
    },
    {
      "inputs": [
        {
          "internalType": "address",
          "name": "account",
          "type": "address"
        },
        {
          "internalType": "uint256",
          "name": "amount",
          "type": "uint256"
        }
      ],
      "name": "__burn",
      "outputs": [],
      "stateMutability": "nonpayable",
      "type": "function"
    },
    {
      "inputs": [
        {
          "internalType": "address",
          "name": "holder",
          "type": "address"
        },
        {
          "internalType": "address",
          "name": "spender",
          "type": "address"
        },
        {
          "internalType": "uint256",
          "name": "amount",
          "type": "uint256"
        }
      ],
      "name": "__decreaseAllowance",
      "outputs": [],
      "stateMutability": "nonpayable",
      "type": "function"
    },
    {
      "inputs": [
        {
          "internalType": "address",
          "name": "account",
          "type": "address"
        },
        {
          "internalType": "uint256",
          "name": "amount",
          "type": "uint256"
        }
      ],
      "name": "__mint",
      "outputs": [],
      "stateMutability": "nonpayable",
      "type": "function"
    },
    {
      "inputs": [
        {
          "internalType": "address",
          "name": "sender",
          "type": "address"
        },
        {
          "internalType": "address",
          "name": "recipient",
          "type": "address"
        },
        {
          "internalType": "uint256",
          "name": "amount",
          "type": "uint256"
        }
      ],
      "name": "__transfer",
      "outputs": [],
      "stateMutability": "nonpayable",
      "type": "function"
    },
    {
      "inputs": [
        {
          "internalType": "address",
          "name": "holder",
          "type": "address"
        },
        {
          "internalType": "address",
          "name": "spender",
          "type": "address"
        }
      ],
      "name": "allowance",
      "outputs": [
        {
          "internalType": "uint256",
          "name": "",
          "type": "uint256"
        }
      ],
      "stateMutability": "view",
      "type": "function"
    },
    {
      "inputs": [
        {
          "internalType": "address",
          "name": "spender",
          "type": "address"
        },
        {
          "internalType": "uint256",
          "name": "amount",
          "type": "uint256"
        }
      ],
      "name": "approve",
      "outputs": [
        {
          "internalType": "bool",
          "name": "",
          "type": "bool"
        }
      ],
      "stateMutability": "nonpayable",
      "type": "function"
    },
    {
      "inputs": [
        {
          "internalType": "address",
          "name": "account",
          "type": "address"
        }
      ],
      "name": "balanceOf",
      "outputs": [
        {
          "internalType": "uint256",
          "name": "",
          "type": "uint256"
        }
      ],
      "stateMutability": "view",
      "type": "function"
    },
    {
      "inputs": [],
      "name": "totalSupply",
      "outputs": [
        {
          "internalType": "uint256",
          "name": "",
          "type": "uint256"
        }
      ],
      "stateMutability": "view",
      "type": "function"
    },
    {
      "inputs": [
        {
          "internalType": "address",
          "name": "recipient",
          "type": "address"
        },
        {
          "internalType": "uint256",
          "name": "amount",
          "type": "uint256"
        }
      ],
      "name": "transfer",
      "outputs": [
        {
          "internalType": "bool",
          "name": "",
          "type": "bool"
        }
      ],
      "stateMutability": "nonpayable",
      "type": "function"
    },
    {
      "inputs": [
        {
          "internalType": "address",
          "name": "holder",
          "type": "address"
        },
        {
          "internalType": "address",
          "name": "recipient",
          "type": "address"
        },
        {
          "internalType": "uint256",
          "name": "amount",
          "type": "uint256"
        }
      ],
      "name": "transferFrom",
      "outputs": [
        {
          "internalType": "bool",
          "name": "",
          "type": "bool"
        }
      ],
      "stateMutability": "nonpayable",
      "type": "function"
    }
  ],
  "bytecode": {
    "object": "0x608080604052346100165761065e908161001c8239f35b600080fdfe604060808152600436101561001357600080fd5b600090813560e01c8063095ea7b31461039957806318160ddd1461035c57806323b872dd1461032e5780633024bc64146103165780633dc8ded71461026557806370133fd71461024a57806370a082311461021d578063a9059cbb146101eb578063aa82e01714610109578063d1e31346146100ea5763dd62ed3e1461009857600080fd5b346100e657806003193601126100e6576100b06103c2565b6024356001600160a01b03811691908290036100e2579282916100d460209561044b565b908252845220549051908152f35b8380fd5b5080fd5b8234610106576101026100fc366103dd565b9161052b565b5080f35b80fd5b5090346101065781600319360112610106576101236103c2565b602435926001600160a01b0382169182156101da5761014181610412565b548086116101c95785610155910391610412565b557fc991b2e918acaba8e5721668ed0b1982684e5a8692a621bcd2d7ef326bb015b68054908582039182116101b557947fddf252ad1be2c89b69c2b068fc378daa952ba7f163c4a11628f55a4df523b3ef9260209286975551908152a380f35b634e487b7160e01b85526011600452602485fd5b825163b1d35b2360e01b8152600490fd5b81516378f1627760e11b8152600490fd5b50346100e657806003193601126100e65760209061021461020a6103c2565b602435903361052b565b90519015158152f35b50346100e65760203660031901126100e65760209061024261023d6103c2565b610412565b549051908152f35b82346101065761026261025c366103dd565b916105e2565b80f35b50346100e657806003193601126100e65761027e6103c2565b6001600160a01b038116916024359183156103055784927fddf252ad1be2c89b69c2b068fc378daa952ba7f163c4a11628f55a4df523b3ef926102f06020937fc991b2e918acaba8e5721668ed0b1982684e5a8692a621bcd2d7ef326bb015b66102e9858254610508565b9055610412565b6102fb838254610508565b905551908152a380f35b815163da007acd60e01b8152600490fd5b823461010657610102610328366103dd565b91610484565b50346100e657602090610354610343366103dd565b9161034f8333836105e2565b61052b565b505160018152f35b50346100e657816003193601126100e6576020907fc991b2e918acaba8e5721668ed0b1982684e5a8692a621bcd2d7ef326bb015b6549051908152f35b50346100e657806003193601126100e6576020906102146103b86103c2565b6024359033610484565b600435906001600160a01b03821682036103d857565b600080fd5b60609060031901126103d8576001600160a01b039060043582811681036103d8579160243590811681036103d8579060443590565b6001600160a01b031660009081527fc991b2e918acaba8e5721668ed0b1982684e5a8692a621bcd2d7ef326bb015b46020526040902090565b6001600160a01b031660009081527fc991b2e918acaba8e5721668ed0b1982684e5a8692a621bcd2d7ef326bb015b56020526040902090565b916001600160a01b038084169283156104f657169283156104e5577f8c5be1e5ebec7d5bd14f71427d1e84f3dd0314c0f7b2291e5b200ac8c7c3b925916104cc60209261044b565b85600052825280604060002055604051908152a3600190565b6040516262920b60e91b8152600490fd5b604051635a68b7ab60e01b8152600490fd5b9190820180921161051557565b634e487b7160e01b600052601160045260246000fd5b6001600160a01b0380821692919083156105d05782169384156105be5761055182610412565b548082116105ac577fddf252ad1be2c89b69c2b068fc378daa952ba7f163c4a11628f55a4df523b3ef9360209361058d84610593940391610412565b55610412565b61059e828254610508565b9055604051908152a3600190565b604051637183160b60e01b8152600490fd5b6040516320a2645160e21b8152600490fd5b6040516368551d5f60e01b8152600490fd5b906105ec8261044b565b60018060a01b0382166000526020526040600020549283811161061757610614930391610484565b50565b60405162e14ccf60e11b8152600490fdfea2646970667358221220b47a697b74e4060cfffaf80ef2daa4c21618852f2bf305c2384717838a85f97b64736f6c63430008130033",
    "linkReferences": {}
  },
  "methodIdentifiers": {
    "__approve(address,address,uint256)": "3024bc64",
    "__burn(address,uint256)": "aa82e017",
    "__decreaseAllowance(address,address,uint256)": "70133fd7",
    "__mint(address,uint256)": "3dc8ded7",
    "__transfer(address,address,uint256)": "d1e31346",
    "allowance(address,address)": "dd62ed3e",
    "approve(address,uint256)": "095ea7b3",
    "balanceOf(address)": "70a08231",
    "totalSupply()": "18160ddd",
    "transfer(address,uint256)": "a9059cbb",
    "transferFrom(address,address,uint256)": "23b872dd"
  },
  "id": 448
}