{
  "abi": [
    {
      "inputs": [
        {
          "internalType": "address",
          "name": "bridge",
          "type": "address"
        }
      ],
      "stateMutability": "nonpayable",
      "type": "constructor"
    },
    {
      "inputs": [
        {
          "internalType": "address",
          "name": "actual",
          "type": "address"
        },
        {
          "internalType": "address",
          "name": "expected",
          "type": "address"
        }
      ],
      "name": "InvalidCrossChainSender",
      "type": "error"
    },
    {
      "inputs": [],
      "name": "NotCrossChainCall",
      "type": "error"
    },
    {
      "inputs": [],
      "name": "crossChainOwnerRestricted",
      "outputs": [],
      "stateMutability": "nonpayable",
      "type": "function"
    },
    {
      "inputs": [],
      "name": "crossChainRestricted",
      "outputs": [],
      "stateMutability": "nonpayable",
      "type": "function"
    },
    {
      "inputs": [],
      "name": "owner",
      "outputs": [
        {
          "internalType": "address",
          "name": "",
          "type": "address"
        }
      ],
      "stateMutability": "view",
      "type": "function"
    },
    {
      "inputs": [
        {
          "internalType": "uint256",
          "name": "",
          "type": "uint256"
        },
        {
          "internalType": "address",
          "name": "rootMessageSender",
          "type": "address"
        },
        {
          "internalType": "bytes",
          "name": "data",
          "type": "bytes"
        }
      ],
      "name": "processMessageFromRoot",
      "outputs": [],
      "stateMutability": "nonpayable",
      "type": "function"
    }
  ],
  "bytecode": {
    "object": "0x60c0346100a357601f61058238819003918201601f19168301916001600160401b038311848410176100a8578084926020946040528339810103126100a357516001600160a01b03811681036100a357336080526001600081905580546001600160a01b03191661dead17905560a0526040516104c390816100bf8239608051818181609901526102df015260a051818181606a0152818161016201526103230152f35b600080fd5b634e487b7160e01b600052604160045260246000fdfe608060408181526004908136101561001657600080fd5b600092833560e01c9081634b074af51461030e575080638da5cb5b146102ca5780639a7c4b71146100f15763f97f51891461005057600080fd5b346100ed57826003193601126100ed576001600160a01b037f0000000000000000000000000000000000000000000000000000000000000000811633036100df578060015416907f000000000000000000000000000000000000000000000000000000000000000016918183036100c5578480f35b5163ef25d32b60e01b815292830152602482015260449150fd5b505163253a6fc960e11b8152fd5b8280fd5b508290346102c65760603660031901126102c6576024356001600160a01b0381811692918390036102c2576044359067ffffffffffffffff8083116102be57366023840112156102be5782870135918183116102ba5736602484860101116102ba57600287541461027757600287557f0000000000000000000000000000000000000000000000000000000000000000163303610267576bffffffffffffffffffffffff60a01b948560015416176001558560206101b66101b18561039d565b610361565b938085528060248387019701873784010152835193848101918211858310176102545761023c9361dead9695938893849352601c85527f63726f73732d636861696e20657865637574696f6e206661696c65640000000060208601525190305af43d1561024c573d9061022b6101b18361039d565b9182523d87602084013e5b306103b9565b5060015416176001556001815580f35b606090610236565b634e487b7160e01b875260418852602487fd5b835163253a6fc960e11b81528790fd5b845162461bcd60e51b81526020818a0152601f60248201527f5265656e7472616e637947756172643a207265656e7472616e742063616c6c006044820152606490fd5b8680fd5b8580fd5b8380fd5b5080fd5b8382346102c657816003193601126102c657517f00000000000000000000000000000000000000000000000000000000000000006001600160a01b03168152602090f35b915050346100ed57826003193601126100ed577f00000000000000000000000000000000000000000000000000000000000000006001600160a01b03163303610355578280f35b63253a6fc960e11b8152fd5b6040519190601f01601f1916820167ffffffffffffffff81118382101761038757604052565b634e487b7160e01b600052604160045260246000fd5b67ffffffffffffffff811161038757601f01601f191660200190565b9192901561041b57508151156103cd575090565b3b156103d65790565b60405162461bcd60e51b815260206004820152601d60248201527f416464726573733a2063616c6c20746f206e6f6e2d636f6e74726163740000006044820152606490fd5b82519091501561042e5750805190602001fd5b6040519062461bcd60e51b82528160208060048301528251908160248401526000935b828510610474575050604492506000838284010152601f80199101168101030190fd5b848101820151868601604401529381019385935061045156fea2646970667358221220c907ad756531b06622f3840e1af59309aaa9b45c4b72a3ee462630776355811864736f6c63430008130033",
    "linkReferences": {}
  },
  "methodIdentifiers": {
    "crossChainOwnerRestricted()": "f97f5189",
    "crossChainRestricted()": "4b074af5",
    "owner()": "8da5cb5b",
    "processMessageFromRoot(uint256,address,bytes)": "9a7c4b71"
  },
  "id": 74
}