{
  "abi": [
    {
      "inputs": [
        {
          "internalType": "address",
          "name": "actual",
          "type": "address"
        },
        {
          "internalType": "address",
          "name": "expected",
          "type": "address"
        }
      ],
      "name": "InvalidCrossChainSender",
      "type": "error"
    },
    {
      "inputs": [],
      "name": "NotCrossChainCall",
      "type": "error"
    },
    {
      "inputs": [],
      "name": "crossChainOwnerRestricted",
      "outputs": [],
      "stateMutability": "nonpayable",
      "type": "function"
    },
    {
      "inputs": [],
      "name": "crossChainRestricted",
      "outputs": [],
      "stateMutability": "nonpayable",
      "type": "function"
    },
    {
      "inputs": [],
      "name": "owner",
      "outputs": [
        {
          "internalType": "address",
          "name": "",
          "type": "address"
        }
      ],
      "stateMutability": "view",
      "type": "function"
    }
  ],
  "bytecode": {
    "object": "0x60a08060405234610029573360805261028a908161002f8239608051818181609901526101580152f35b600080fdfe60406080815260048036101561001457600080fd5b600091823560e01c80634b074af51461018b5780638da5cb5b146101435763f97f51891461004157600080fd5b3461013f578260031936011261013f576100596101e5565b15610132576100666101e5565b1561013257805163d74523b360e01b8152602081848160645afa9081156101285784916100e3575b506001600160a01b037f00000000000000000000000000000000000000000000000000000000000000008116929116908183036100c9578480f35b5163ef25d32b60e01b815292830152602482015260449150fd5b90506020813d8211610120575b816100fd602093836101ad565b8101031261011c57516001600160a01b038116810361011c573861008e565b8380fd5b3d91506100f0565b82513d86823e3d90fd5b5163253a6fc960e11b8152fd5b8280fd5b838234610187578160031936011261018757517f00000000000000000000000000000000000000000000000000000000000000006001600160a01b03168152602090f35b5080fd5b503461013f578260031936011261013f576101a46101e5565b15610132578280f35b90601f8019910116810190811067ffffffffffffffff8211176101cf57604052565b634e487b7160e01b600052604160045260246000fd5b60405163175a260b60e01b815260208160048160645afa9081156102485760009161020e575090565b6020813d8211610240575b81610226602093836101ad565b81010312610187575190811515820361023d575090565b80fd5b3d9150610219565b6040513d6000823e3d90fdfea2646970667358221220a89861eaee505f8ecd0b7cc034caf594b531ddd5cbfb3b1263fc0f5ce91d6ca464736f6c63430008130033",
    "linkReferences": {}
  },
  "methodIdentifiers": {
    "crossChainOwnerRestricted()": "f97f5189",
    "crossChainRestricted()": "4b074af5",
    "owner()": "8da5cb5b"
  },
  "id": 110
}