{
  "abi": [
    {
      "inputs": [
        {
          "internalType": "address",
          "name": "asset",
          "type": "address"
        },
        {
          "internalType": "string",
          "name": "name",
          "type": "string"
        },
        {
          "internalType": "string",
          "name": "symbol",
          "type": "string"
        },
        {
          "internalType": "uint8",
          "name": "decimals",
          "type": "uint8"
        }
      ],
      "stateMutability": "nonpayable",
      "type": "constructor"
    },
    {
      "inputs": [],
      "name": "AddressUtils__NotContract",
      "type": "error"
    },
    {
      "inputs": [],
      "name": "ERC20Base__ApproveFromZeroAddress",
      "type": "error"
    },
    {
      "inputs": [],
      "name": "ERC20Base__ApproveToZeroAddress",
      "type": "error"
    },
    {
      "inputs": [],
      "name": "ERC20Base__BurnExceedsBalance",
      "type": "error"
    },
    {
      "inputs": [],
      "name": "ERC20Base__BurnFromZeroAddress",
      "type": "error"
    },
    {
      "inputs": [],
      "name": "ERC20Base__InsufficientAllowance",
      "type": "error"
    },
    {
      "inputs": [],
      "name": "ERC20Base__MintToZeroAddress",
      "type": "error"
    },
    {
      "inputs": [],
      "name": "ERC20Base__TransferExceedsBalance",
      "type": "error"
    },
    {
      "inputs": [],
      "name": "ERC20Base__TransferFromZeroAddress",
      "type": "error"
    },
    {
      "inputs": [],
      "name": "ERC20Base__TransferToZeroAddress",
      "type": "error"
    },
    {
      "inputs": [],
      "name": "ERC4626Base__AllowanceExceeded",
      "type": "error"
    },
    {
      "inputs": [],
      "name": "ERC4626Base__MaximumAmountExceeded",
      "type": "error"
    },
    {
      "inputs": [],
      "name": "SafeERC20__OperationFailed",
      "type": "error"
    },
    {
      "anonymous": false,
      "inputs": [
        {
          "indexed": false,
          "internalType": "address",
          "name": "receiver",
          "type": "address"
        },
        {
          "indexed": false,
          "internalType": "uint256",
          "name": "assetAmount",
          "type": "uint256"
        },
        {
          "indexed": false,
          "internalType": "uint256",
          "name": "shareAmount",
          "type": "uint256"
        }
      ],
      "name": "AfterDepositCheck",
      "type": "event"
    },
    {
      "anonymous": false,
      "inputs": [
        {
          "indexed": true,
          "internalType": "address",
          "name": "owner",
          "type": "address"
        },
        {
          "indexed": true,
          "internalType": "address",
          "name": "spender",
          "type": "address"
        },
        {
          "indexed": false,
          "internalType": "uint256",
          "name": "value",
          "type": "uint256"
        }
      ],
      "name": "Approval",
      "type": "event"
    },
    {
      "anonymous": false,
      "inputs": [
        {
          "indexed": false,
          "internalType": "address",
          "name": "owner",
          "type": "address"
        },
        {
          "indexed": false,
          "internalType": "uint256",
          "name": "assetAmount",
          "type": "uint256"
        },
        {
          "indexed": false,
          "internalType": "uint256",
          "name": "shareAmount",
          "type": "uint256"
        }
      ],
      "name": "BeforeWithdrawCheck",
      "type": "event"
    },
    {
      "anonymous": false,
      "inputs": [
        {
          "indexed": true,
          "internalType": "address",
          "name": "caller",
          "type": "address"
        },
        {
          "indexed": true,
          "internalType": "address",
          "name": "owner",
          "type": "address"
        },
        {
          "indexed": false,
          "internalType": "uint256",
          "name": "assets",
          "type": "uint256"
        },
        {
          "indexed": false,
          "internalType": "uint256",
          "name": "shares",
          "type": "uint256"
        }
      ],
      "name": "Deposit",
      "type": "event"
    },
    {
      "anonymous": false,
      "inputs": [
        {
          "indexed": true,
          "internalType": "address",
          "name": "from",
          "type": "address"
        },
        {
          "indexed": true,
          "internalType": "address",
          "name": "to",
          "type": "address"
        },
        {
          "indexed": false,
          "internalType": "uint256",
          "name": "value",
          "type": "uint256"
        }
      ],
      "name": "Transfer",
      "type": "event"
    },
    {
      "anonymous": false,
      "inputs": [
        {
          "indexed": true,
          "internalType": "address",
          "name": "caller",
          "type": "address"
        },
        {
          "indexed": true,
          "internalType": "address",
          "name": "receiver",
          "type": "address"
        },
        {
          "indexed": true,
          "internalType": "address",
          "name": "owner",
          "type": "address"
        },
        {
          "indexed": false,
          "internalType": "uint256",
          "name": "assets",
          "type": "uint256"
        },
        {
          "indexed": false,
          "internalType": "uint256",
          "name": "shares",
          "type": "uint256"
        }
      ],
      "name": "Withdraw",
      "type": "event"
    },
    {
      "inputs": [
        {
          "internalType": "address",
          "name": "account",
          "type": "address"
        },
        {
          "internalType": "uint256",
          "name": "amount",
          "type": "uint256"
        }
      ],
      "name": "__burn",
      "outputs": [],
      "stateMutability": "nonpayable",
      "type": "function"
    },
    {
      "inputs": [
        {
          "internalType": "address",
          "name": "account",
          "type": "address"
        },
        {
          "internalType": "uint256",
          "name": "amount",
          "type": "uint256"
        }
      ],
      "name": "__mint",
      "outputs": [],
      "stateMutability": "nonpayable",
      "type": "function"
    },
    {
      "inputs": [
        {
          "internalType": "address",
          "name": "holder",
          "type": "address"
        },
        {
          "internalType": "address",
          "name": "spender",
          "type": "address"
        }
      ],
      "name": "allowance",
      "outputs": [
        {
          "internalType": "uint256",
          "name": "",
          "type": "uint256"
        }
      ],
      "stateMutability": "view",
      "type": "function"
    },
    {
      "inputs": [
        {
          "internalType": "address",
          "name": "spender",
          "type": "address"
        },
        {
          "internalType": "uint256",
          "name": "amount",
          "type": "uint256"
        }
      ],
      "name": "approve",
      "outputs": [
        {
          "internalType": "bool",
          "name": "",
          "type": "bool"
        }
      ],
      "stateMutability": "nonpayable",
      "type": "function"
    },
    {
      "inputs": [],
      "name": "asset",
      "outputs": [
        {
          "internalType": "address",
          "name": "",
          "type": "address"
        }
      ],
      "stateMutability": "view",
      "type": "function"
    },
    {
      "inputs": [
        {
          "internalType": "address",
          "name": "account",
          "type": "address"
        }
      ],
      "name": "balanceOf",
      "outputs": [
        {
          "internalType": "uint256",
          "name": "",
          "type": "uint256"
        }
      ],
      "stateMutability": "view",
      "type": "function"
    },
    {
      "inputs": [
        {
          "internalType": "uint256",
          "name": "shareAmount",
          "type": "uint256"
        }
      ],
      "name": "convertToAssets",
      "outputs": [
        {
          "internalType": "uint256",
          "name": "assetAmount",
          "type": "uint256"
        }
      ],
      "stateMutability": "view",
      "type": "function"
    },
    {
      "inputs": [
        {
          "internalType": "uint256",
          "name": "assetAmount",
          "type": "uint256"
        }
      ],
      "name": "convertToShares",
      "outputs": [
        {
          "internalType": "uint256",
          "name": "shareAmount",
          "type": "uint256"
        }
      ],
      "stateMutability": "view",
      "type": "function"
    },
    {
      "inputs": [],
      "name": "decimals",
      "outputs": [
        {
          "internalType": "uint8",
          "name": "",
          "type": "uint8"
        }
      ],
      "stateMutability": "view",
      "type": "function"
    },
    {
      "inputs": [
        {
          "internalType": "uint256",
          "name": "assetAmount",
          "type": "uint256"
        },
        {
          "internalType": "address",
          "name": "receiver",
          "type": "address"
        }
      ],
      "name": "deposit",
      "outputs": [
        {
          "internalType": "uint256",
          "name": "shareAmount",
          "type": "uint256"
        }
      ],
      "stateMutability": "nonpayable",
      "type": "function"
    },
    {
      "inputs": [
        {
          "internalType": "address",
          "name": "receiver",
          "type": "address"
        }
      ],
      "name": "maxDeposit",
      "outputs": [
        {
          "internalType": "uint256",
          "name": "maxAssets",
          "type": "uint256"
        }
      ],
      "stateMutability": "view",
      "type": "function"
    },
    {
      "inputs": [
        {
          "internalType": "address",
          "name": "receiver",
          "type": "address"
        }
      ],
      "name": "maxMint",
      "outputs": [
        {
          "internalType": "uint256",
          "name": "maxShares",
          "type": "uint256"
        }
      ],
      "stateMutability": "view",
      "type": "function"
    },
    {
      "inputs": [
        {
          "internalType": "address",
          "name": "owner",
          "type": "address"
        }
      ],
      "name": "maxRedeem",
      "outputs": [
        {
          "internalType": "uint256",
          "name": "maxShares",
          "type": "uint256"
        }
      ],
      "stateMutability": "view",
      "type": "function"
    },
    {
      "inputs": [
        {
          "internalType": "address",
          "name": "owner",
          "type": "address"
        }
      ],
      "name": "maxWithdraw",
      "outputs": [
        {
          "internalType": "uint256",
          "name": "maxAssets",
          "type": "uint256"
        }
      ],
      "stateMutability": "view",
      "type": "function"
    },
    {
      "inputs": [
        {
          "internalType": "uint256",
          "name": "shareAmount",
          "type": "uint256"
        },
        {
          "internalType": "address",
          "name": "receiver",
          "type": "address"
        }
      ],
      "name": "mint",
      "outputs": [
        {
          "internalType": "uint256",
          "name": "assetAmount",
          "type": "uint256"
        }
      ],
      "stateMutability": "nonpayable",
      "type": "function"
    },
    {
      "inputs": [],
      "name": "name",
      "outputs": [
        {
          "internalType": "string",
          "name": "",
          "type": "string"
        }
      ],
      "stateMutability": "view",
      "type": "function"
    },
    {
      "inputs": [
        {
          "internalType": "uint256",
          "name": "assetAmount",
          "type": "uint256"
        }
      ],
      "name": "previewDeposit",
      "outputs": [
        {
          "internalType": "uint256",
          "name": "shareAmount",
          "type": "uint256"
        }
      ],
      "stateMutability": "view",
      "type": "function"
    },
    {
      "inputs": [
        {
          "internalType": "uint256",
          "name": "shareAmount",
          "type": "uint256"
        }
      ],
      "name": "previewMint",
      "outputs": [
        {
          "internalType": "uint256",
          "name": "assetAmount",
          "type": "uint256"
        }
      ],
      "stateMutability": "view",
      "type": "function"
    },
    {
      "inputs": [
        {
          "internalType": "uint256",
          "name": "shareAmount",
          "type": "uint256"
        }
      ],
      "name": "previewRedeem",
      "outputs": [
        {
          "internalType": "uint256",
          "name": "assetAmount",
          "type": "uint256"
        }
      ],
      "stateMutability": "view",
      "type": "function"
    },
    {
      "inputs": [
        {
          "internalType": "uint256",
          "name": "assetAmount",
          "type": "uint256"
        }
      ],
      "name": "previewWithdraw",
      "outputs": [
        {
          "internalType": "uint256",
          "name": "shareAmount",
          "type": "uint256"
        }
      ],
      "stateMutability": "view",
      "type": "function"
    },
    {
      "inputs": [
        {
          "internalType": "uint256",
          "name": "shareAmount",
          "type": "uint256"
        },
        {
          "internalType": "address",
          "name": "receiver",
          "type": "address"
        },
        {
          "internalType": "address",
          "name": "owner",
          "type": "address"
        }
      ],
      "name": "redeem",
      "outputs": [
        {
          "internalType": "uint256",
          "name": "assetAmount",
          "type": "uint256"
        }
      ],
      "stateMutability": "nonpayable",
      "type": "function"
    },
    {
      "inputs": [],
      "name": "symbol",
      "outputs": [
        {
          "internalType": "string",
          "name": "",
          "type": "string"
        }
      ],
      "stateMutability": "view",
      "type": "function"
    },
    {
      "inputs": [],
      "name": "totalAssets",
      "outputs": [
        {
          "internalType": "uint256",
          "name": "",
          "type": "uint256"
        }
      ],
      "stateMutability": "view",
      "type": "function"
    },
    {
      "inputs": [],
      "name": "totalSupply",
      "outputs": [
        {
          "internalType": "uint256",
          "name": "",
          "type": "uint256"
        }
      ],
      "stateMutability": "view",
      "type": "function"
    },
    {
      "inputs": [
        {
          "internalType": "address",
          "name": "recipient",
          "type": "address"
        },
        {
          "internalType": "uint256",
          "name": "amount",
          "type": "uint256"
        }
      ],
      "name": "transfer",
      "outputs": [
        {
          "internalType": "bool",
          "name": "",
          "type": "bool"
        }
      ],
      "stateMutability": "nonpayable",
      "type": "function"
    },
    {
      "inputs": [
        {
          "internalType": "address",
          "name": "holder",
          "type": "address"
        },
        {
          "internalType": "address",
          "name": "recipient",
          "type": "address"
        },
        {
          "internalType": "uint256",
          "name": "amount",
          "type": "uint256"
        }
      ],
      "name": "transferFrom",
      "outputs": [
        {
          "internalType": "bool",
          "name": "",
          "type": "bool"
        }
      ],
      "stateMutability": "nonpayable",
      "type": "function"
    },
    {
      "inputs": [
        {
          "internalType": "uint256",
          "name": "assetAmount",
          "type": "uint256"
        },
        {
          "internalType": "address",
          "name": "receiver",
          "type": "address"
        },
        {
          "internalType": "address",
          "name": "owner",
          "type": "address"
        }
      ],
      "name": "withdraw",
      "outputs": [
        {
          "internalType": "uint256",
          "name": "shareAmount",
          "type": "uint256"
        }
      ],
      "stateMutability": "nonpayable",
      "type": "function"
    }
  ],
  "bytecode": {
    "object": "0x608060405234620003d3576200159a803803806200001d81620003d8565b928339810190608081830312620003d35780516001600160a01b0381169290839003620003d35760208281015190926001600160401b0391828111620003d357836200006b918301620003fe565b926040820151838111620003d35760609162000089918401620003fe565b9101519460ff8616809603620003d3577f3410a2fb745bb7b6ca5d9148e66c4e1c7c223203c99ae84528774522cdac606580546001600160a01b0319169091179055825190828211620002e8577f2967a798b92539a1b9eefe4d8eb931f96b68d27665e276f1bee2d5db7f7430478054926001958685811c95168015620003c8575b88861014620002c7578190601f9586811162000372575b5088908683116001146200030a57600092620002fe575b5050600019600383901b1c191690861b1790555b8051928311620002e8577f2967a798b92539a1b9eefe4d8eb931f96b68d27665e276f1bee2d5db7f7430489485548581811c91168015620002dd575b82821014620002c7578381116200027c575b508092841160011462000211575092829391839260009462000205575b50501b916000199060031b1c19161790555b7f2967a798b92539a1b9eefe4d8eb931f96b68d27665e276f1bee2d5db7f7430499060ff198254161790556040516111299081620004718239f35b015192503880620001b8565b919083601f1981168760005284600020946000905b8883831062000261575050501062000247575b505050811b019055620001ca565b015160001960f88460031b161c1916905538808062000239565b85870151885590960195948501948793509081019062000226565b86600052816000208480870160051c820192848810620002bd575b0160051c019086905b828110620002b05750506200019b565b60008155018690620002a0565b9250819262000297565b634e487b7160e01b600052602260045260246000fd5b90607f169062000189565b634e487b7160e01b600052604160045260246000fd5b01519050388062000139565b90889350601f19831691856000528a6000209260005b8c8282106200035b575050841162000341575b505050811b0190556200014d565b015160001960f88460031b161c1916905538808062000333565b8385015186558c9790950194938401930162000320565b90915083600052886000208680850160051c8201928b8610620003be575b918a91869594930160051c01915b828110620003ae57505062000122565b600081558594508a91016200039e565b9250819262000390565b94607f16946200010b565b600080fd5b6040519190601f01601f191682016001600160401b03811183821017620002e857604052565b919080601f84011215620003d35782516001600160401b038111620002e85760209062000434601f8201601f19168301620003d8565b92818452828287010111620003d35760005b8181106200045c57508260009394955001015290565b85810183015184820184015282016200044656fe6080604052600436101561001257600080fd5b60003560e01c806301e1d114146101a957806306fdde03146101a457806307a2d13a14610145578063095ea7b31461019f5780630a28a4771461016857806318160ddd1461019a57806323b872dd14610195578063313ce5671461019057806338d52e0f1461018b5780633dc8ded714610186578063402d267d146101595780634cdad506146101455780636e553f651461018157806370a082311461014f57806394bf804d1461017c57806395d89b4114610177578063a9059cbb14610172578063aa82e0171461016d578063b3d7f6b914610168578063b460af9414610163578063ba0876521461015e578063c63d75b614610159578063c6e6f59214610145578063ce96cb7714610154578063d905777e1461014f578063dd62ed3e1461014a5763ef8b30f71461014557600080fd5b61036c565b610829565b61059b565b610808565b610542565b6107d0565b61077d565b6103f0565b610723565b6106fb565b6105fa565b6105c7565b610568565b61051b565b6104d3565b610493565b61040e565b6101a9565b6103be565b610222565b346101d45760003660031901126101d45760206000805160206110d483398151915254604051908152f35b600080fd5b6020808252825181830181905290939260005b82811061020e57505060409293506000838284010152601f8019910116010190565b8181018601518482016040015285016101ec565b346101d4576000806003193601126103695760405190807f2967a798b92539a1b9eefe4d8eb931f96b68d27665e276f1bee2d5db7f743047549060019180831c9280821692831561035f575b602092838610851461034b57858852602088019490811561032a57506001146102b2575b6102ae876102a281890382610a46565b604051918291826101d9565b0390f35b7f2967a798b92539a1b9eefe4d8eb931f96b68d27665e276f1bee2d5db7f74304760005294509192917fc3d5862a69f8ca70e4828043821a8d13dfd34088ddb52ba52f4c8aedc2ea63b55b83861061031957505050910190506102a2826102ae3880610292565b8054858701529482019481016102fd565b60ff191685525050505090151560051b0190506102a2826102ae3880610292565b634e487b7160e01b82526022600452602482fd5b93607f169361026e565b80fd5b346101d45760203660031901126101d457602061038a600435610aa0565b604051908152f35b600435906001600160a01b03821682036101d457565b602435906001600160a01b03821682036101d457565b346101d45760403660031901126101d45760206103e66103dc610392565b60243590336108c6565b6040519015158152f35b346101d45760203660031901126101d457602061038a600435610ace565b346101d45760603660031901126101d457610427610392565b61042f6103a8565b604435906104573361044085610854565b9060018060a01b0316600052602052604060002090565b54928383116104825761047083610476950333836108c6565b5061096c565b50602060405160018152f35b60405162e14ccf60e11b8152600490fd5b346101d45760003660031901126101d457602060ff7f2967a798b92539a1b9eefe4d8eb931f96b68d27665e276f1bee2d5db7f7430495416604051908152f35b346101d45760003660031901126101d4577f3410a2fb745bb7b6ca5d9148e66c4e1c7c223203c99ae84528774522cdac6065546040516001600160a01b039091168152602090f35b346101d45760403660031901126101d457610540610537610392565b60243590610c1f565b005b346101d45760203660031901126101d45761055b610392565b5060206040516000198152f35b346101d45760403660031901126101d457602060043561038a6105896103a8565b61059283610aa0565b92839133610b12565b346101d45760203660031901126101d45760206105be6105b9610392565b61088d565b54604051908152f35b346101d45760403660031901126101d457602060043561038a6105e86103a8565b916105f281610ace565b809333610b12565b346101d4576000806003193601126103695760405190807f2967a798b92539a1b9eefe4d8eb931f96b68d27665e276f1bee2d5db7f743048549060019180831c928082169283156106f1575b602092838610851461034b57858852602088019490811561032a5750600114610679576102ae876102a281890382610a46565b7f2967a798b92539a1b9eefe4d8eb931f96b68d27665e276f1bee2d5db7f74304860005294509192917f6626588b54b3522d930e3ee12195d0e9dddbde7c7325b02b73030918affce1c45b8386106106e057505050910190506102a2826102ae3880610292565b8054858701529482019481016106c4565b93607f1693610646565b346101d45760403660031901126101d45760206103e6610719610392565b602435903361096c565b346101d45760403660031901126101d45761054061073f610392565b60243590610e32565b60609060031901126101d457600435906001600160a01b039060243582811681036101d4579160443590811681036101d45790565b346101d45761078b36610748565b909161079f6107998361088d565b54610aa0565b81116107be57602092816107b561038a93610ace565b93849233610cca565b6040516322edc7d760e01b8152600490fd5b346101d4576107de36610748565b906107e88261088d565b5483116107be578261038a916107ff602095610aa0565b93849133610cca565b346101d45760203660031901126101d457602061038a6107996105b9610392565b346101d45760403660031901126101d45760206105be610847610392565b6104406108526103a8565b915b6001600160a01b031660009081527fc991b2e918acaba8e5721668ed0b1982684e5a8692a621bcd2d7ef326bb015b56020526040902090565b6001600160a01b031660009081527fc991b2e918acaba8e5721668ed0b1982684e5a8692a621bcd2d7ef326bb015b46020526040902090565b6001600160a01b03808216929190831561093257821693841561092157806109147f8c5be1e5ebec7d5bd14f71427d1e84f3dd0314c0f7b2291e5b200ac8c7c3b92594610440602095610854565b55604051908152a3600190565b6040516262920b60e91b8152600490fd5b604051635a68b7ab60e01b8152600490fd5b634e487b7160e01b600052601160045260246000fd5b9190820180921161096757565b610944565b6001600160a01b038082169291908315610a1e578216938415610a0c576109928261088d565b548082116109fa577fddf252ad1be2c89b69c2b068fc378daa952ba7f163c4a11628f55a4df523b3ef936109f2936109cf846109d594039161088d565b5561088d565b6109e082825461095a565b90556040519081529081906020820190565b0390a3600190565b604051637183160b60e01b8152600490fd5b6040516320a2645160e21b8152600490fd5b6040516368551d5f60e01b8152600490fd5b634e487b7160e01b600052604160045260246000fd5b90601f8019910116810190811067ffffffffffffffff821117610a6857604052565b610a30565b8181029291811591840414171561096757565b8115610a8a570490565b634e487b7160e01b600052601260045260246000fd5b6000805160206110d48339815191525480610ab9575090565b610ac681610acb93610a6d565b610a80565b90565b6000805160206110d48339815191525480610ae7575090565b9081610af291610a6d565b9080820180921161096757600019820191821161096757610acb91610a80565b9282610b7b575b7fdcbc1c05240f31ff3ad067ef1ee35ce4997762752e3a095284754544f4c709d79181610b6c575b610b4c828583610ef7565b6040805194855260208501929092526001600160a01b03908116941692a3565b610b768282610c1f565b610b41565b7f3410a2fb745bb7b6ca5d9148e66c4e1c7c223203c99ae84528774522cdac6065546040516323b872dd60e01b60208201526001600160a01b03868116602483015230604483015260648083018790528252909116929060a081019080821067ffffffffffffffff831117610a68577fdcbc1c05240f31ff3ad067ef1ee35ce4997762752e3a095284754544f4c709d794610c1892604052610f92565b9150610b19565b6001600160a01b0316908115610cb8576000805160206110d48339815191528054908282018092116109675755816000527fc991b2e918acaba8e5721668ed0b1982684e5a8692a621bcd2d7ef326bb015b46020526040600020805490828201809211610967576000927fddf252ad1be2c89b69c2b068fc378daa952ba7f163c4a11628f55a4df523b3ef9260209255604051908152a3565b60405163da007acd60e01b8152600490fd5b6001600160a01b038084169581831694939192878603610dce575b50604080516001600160a01b0386168152602081018890529081018290527ffbde797d201c681b91056529119e0b02407c7bb96a4a2c75c01fc9667232c8db94610d7a92917f48076819c189e93f356c200ab71ab37a9a16d8e0659c67618126cb59c6bae66890606090a18180610dbe575b505086610d7f575b60405193849316968360209093929193604081019481520152565b0390a4565b7f3410a2fb745bb7b6ca5d9148e66c4e1c7c223203c99ae84528774522cdac606554610db9908890859087166001600160a01b0316610f40565b610d5f565b610dc791610e32565b3881610d57565b90610ddc8261044087610854565b5494858211610e2057610e17610d7a93837ffbde797d201c681b91056529119e0b02407c7bb96a4a2c75c01fc9667232c8db980390836108c6565b50945090610ce5565b60405163eb7899cf60e01b8152600490fd5b6001600160a01b038116908115610ee557816000527fc991b2e918acaba8e5721668ed0b1982684e5a8692a621bcd2d7ef326bb015b4602052604060002054808411610ed35783610e8491039161088d565b556000805160206110d4833981519152805490838203918211610967576000937fddf252ad1be2c89b69c2b068fc378daa952ba7f163c4a11628f55a4df523b3ef9260209255604051908152a3565b60405163b1d35b2360e01b8152600490fd5b6040516378f1627760e11b8152600490fd5b604080516001600160a01b039290921682526020820192909252908101919091527f4b2b61bd7df3c7a53543d1dfa72b0846cc74a6d41362542637b6db5764def58490606090a1565b60405163a9059cbb60e01b60208201526001600160a01b039092166024830152604480830193909352918152608081019167ffffffffffffffff831182841017610a6857610f9092604052610f92565b565b9060405190604082019282841067ffffffffffffffff851117610a6857610fed93604052602083527f5361666545524332303a206c6f772d6c6576656c2063616c6c206661696c6564602084015260018060a01b031661102a565b805180610ff8575050565b81602091810103126101d457602001518015908115036101d45761101857565b6040516306dacbc160e51b8152600490fd5b9190606092803b156110c15781600092918360208194519301915af1913d156110bb57503d9167ffffffffffffffff8311610a685760405192611077601f8201601f191660200185610a46565b83523d6000602085013e5b1561108b575090565b81511561109b5750805190602001fd5b60405162461bcd60e51b81529081906110b790600483016101d9565b0390fd5b91611082565b604051632270d6bf60e21b8152600490fdfec991b2e918acaba8e5721668ed0b1982684e5a8692a621bcd2d7ef326bb015b6a26469706673582212209b282ecb2e6ce6a8de1fb777d25856ce557df64713c5c75f152480fb43a8b1ea64736f6c63430008130033",
    "linkReferences": {}
  },
  "methodIdentifiers": {
    "__burn(address,uint256)": "aa82e017",
    "__mint(address,uint256)": "3dc8ded7",
    "allowance(address,address)": "dd62ed3e",
    "approve(address,uint256)": "095ea7b3",
    "asset()": "38d52e0f",
    "balanceOf(address)": "70a08231",
    "convertToAssets(uint256)": "07a2d13a",
    "convertToShares(uint256)": "c6e6f592",
    "decimals()": "313ce567",
    "deposit(uint256,address)": "6e553f65",
    "maxDeposit(address)": "402d267d",
    "maxMint(address)": "c63d75b6",
    "maxRedeem(address)": "d905777e",
    "maxWithdraw(address)": "ce96cb77",
    "mint(uint256,address)": "94bf804d",
    "name()": "06fdde03",
    "previewDeposit(uint256)": "ef8b30f7",
    "previewMint(uint256)": "b3d7f6b9",
    "previewRedeem(uint256)": "4cdad506",
    "previewWithdraw(uint256)": "0a28a477",
    "redeem(uint256,address,address)": "ba087652",
    "symbol()": "95d89b41",
    "totalAssets()": "01e1d114",
    "totalSupply()": "18160ddd",
    "transfer(address,uint256)": "a9059cbb",
    "transferFrom(address,address,uint256)": "23b872dd",
    "withdraw(uint256,address,address)": "b460af94"
  },
  "id": 434
}