{
  "abi": [
    {
      "inputs": [
        {
          "internalType": "address",
          "name": "owner",
          "type": "address"
        }
      ],
      "stateMutability": "nonpayable",
      "type": "constructor"
    },
    {
      "inputs": [],
      "name": "ECDSA__InvalidS",
      "type": "error"
    },
    {
      "inputs": [],
      "name": "ECDSA__InvalidSignature",
      "type": "error"
    },
    {
      "inputs": [],
      "name": "ECDSA__InvalidSignatureLength",
      "type": "error"
    },
    {
      "inputs": [],
      "name": "ECDSA__InvalidV",
      "type": "error"
    },
    {
      "inputs": [],
      "name": "Ownable__NotOwner",
      "type": "error"
    },
    {
      "inputs": [],
      "name": "Ownable__NotTransitiveOwner",
      "type": "error"
    },
    {
      "anonymous": false,
      "inputs": [
        {
          "indexed": true,
          "internalType": "address",
          "name": "previousOwner",
          "type": "address"
        },
        {
          "indexed": true,
          "internalType": "address",
          "name": "newOwner",
          "type": "address"
        }
      ],
      "name": "OwnershipTransferred",
      "type": "event"
    },
    {
      "inputs": [
        {
          "internalType": "bytes32",
          "name": "hash",
          "type": "bytes32"
        },
        {
          "internalType": "bytes",
          "name": "signature",
          "type": "bytes"
        }
      ],
      "name": "__isValidSignature",
      "outputs": [
        {
          "internalType": "bytes4",
          "name": "",
          "type": "bytes4"
        }
      ],
      "stateMutability": "view",
      "type": "function"
    },
    {
      "inputs": [
        {
          "internalType": "bytes32",
          "name": "hash",
          "type": "bytes32"
        },
        {
          "internalType": "bytes",
          "name": "signature",
          "type": "bytes"
        }
      ],
      "name": "isValidSignature",
      "outputs": [
        {
          "internalType": "bytes4",
          "name": "",
          "type": "bytes4"
        }
      ],
      "stateMutability": "view",
      "type": "function"
    }
  ],
  "bytecode": {
    "object": "0x6080346100bc57601f6103b238819003918201601f19168301916001600160401b038311848410176100c1578084926020946040528339810103126100bc57516001600160a01b0390818116908190036100bc577f8a22373512790c48b83a1fe2efdd2888d4a917bcdc24d0adf63e60f671680460908154816040519482167f8be0079c531659141344cd1fd0a4f28419497f9722a3daafe3b4186f6b6457e0600080a36001600160a01b0319161790556102da90816100d88239f35b600080fd5b634e487b7160e01b600052604160045260246000fdfe6080604052600436101561001257600080fd5b60003560e01c80631626ba7e14610032576399fcfa591461003257600080fd5b610090565b634e487b7160e01b600052604160045260246000fd5b6060810190811067ffffffffffffffff82111761006957604052565b610037565b90601f8019910116810190811067ffffffffffffffff82111761006957604052565b346101225760403660031901126101225767ffffffffffffffff6024358181116101225736602382011215610122578060040135918211610069576040516100e2601f8401601f19166020018261006e565b82815236602484840101116101225760006020848195602461010f96018386013783010152600435610127565b6040516001600160e01b03199091168152f35b600080fd5b604090815160208101917f19457468657265756d205369676e6564204d6573736167653a0a3332000000008352603c820152603c81526101668161004d565b51902060418351036102875760208301519060608385015194015193600094851a927f7fffffffffffffffffffffffffffffff5d576e7357a4501ddfe92f46681b20a0821161027657601b8414158061026b575b61025a57845192835260ff9390931660208084019190915260408301939093526060820152838052839060809060015afa156102555781516001600160a01b0390811691821561024557507f8a22373512790c48b83a1fe2efdd2888d4a917bcdc24d0adf63e60f67168046054166001600160a01b0316036102425750630b135d3f60e11b90565b90565b516347f3b32760e11b8152600490fd5b610298565b8451630acd54a960e41b8152600490fd5b50601c8414156101ba565b845163e4a61add60e01b8152600490fd5b81516309f846f760e31b8152600490fd5b6040513d6000823e3d90fdfea26469706673582212203fad7602537a128cfffcac2fd04c58c938ab17b3aba6d13ceb3e845271bdcdb164736f6c63430008130033",
    "linkReferences": {}
  },
  "methodIdentifiers": {
    "__isValidSignature(bytes32,bytes)": "99fcfa59",
    "isValidSignature(bytes32,bytes)": "1626ba7e"
  },
  "id": 407
}