{
  "abi": [
    {
      "inputs": [
        {
          "internalType": "string",
          "name": "baseURI",
          "type": "string"
        }
      ],
      "stateMutability": "nonpayable",
      "type": "constructor"
    },
    {
      "inputs": [],
      "name": "AddressUtils__NotContract",
      "type": "error"
    },
    {
      "inputs": [],
      "name": "ERC165Base__InvalidInterfaceId",
      "type": "error"
    },
    {
      "inputs": [],
      "name": "ERC721Base__BalanceQueryZeroAddress",
      "type": "error"
    },
    {
      "inputs": [],
      "name": "ERC721Base__ERC721ReceiverNotImplemented",
      "type": "error"
    },
    {
      "inputs": [],
      "name": "ERC721Base__InvalidOwner",
      "type": "error"
    },
    {
      "inputs": [],
      "name": "ERC721Base__MintToZeroAddress",
      "type": "error"
    },
    {
      "inputs": [],
      "name": "ERC721Base__NonExistentToken",
      "type": "error"
    },
    {
      "inputs": [],
      "name": "ERC721Base__NotOwnerOrApproved",
      "type": "error"
    },
    {
      "inputs": [],
      "name": "ERC721Base__NotTokenOwner",
      "type": "error"
    },
    {
      "inputs": [],
      "name": "ERC721Base__SelfApproval",
      "type": "error"
    },
    {
      "inputs": [],
      "name": "ERC721Base__TokenAlreadyMinted",
      "type": "error"
    },
    {
      "inputs": [],
      "name": "ERC721Base__TransferToZeroAddress",
      "type": "error"
    },
    {
      "inputs": [],
      "name": "ERC721Metadata__NonExistentToken",
      "type": "error"
    },
    {
      "inputs": [],
      "name": "EnumerableMap__IndexOutOfBounds",
      "type": "error"
    },
    {
      "inputs": [],
      "name": "EnumerableMap__NonExistentKey",
      "type": "error"
    },
    {
      "inputs": [],
      "name": "EnumerableSet__IndexOutOfBounds",
      "type": "error"
    },
    {
      "inputs": [],
      "name": "SolidStateERC721__PayableApproveNotSupported",
      "type": "error"
    },
    {
      "inputs": [],
      "name": "SolidStateERC721__PayableTransferNotSupported",
      "type": "error"
    },
    {
      "anonymous": false,
      "inputs": [
        {
          "indexed": true,
          "internalType": "address",
          "name": "owner",
          "type": "address"
        },
        {
          "indexed": true,
          "internalType": "address",
          "name": "operator",
          "type": "address"
        },
        {
          "indexed": true,
          "internalType": "uint256",
          "name": "tokenId",
          "type": "uint256"
        }
      ],
      "name": "Approval",
      "type": "event"
    },
    {
      "anonymous": false,
      "inputs": [
        {
          "indexed": true,
          "internalType": "address",
          "name": "owner",
          "type": "address"
        },
        {
          "indexed": true,
          "internalType": "address",
          "name": "operator",
          "type": "address"
        },
        {
          "indexed": false,
          "internalType": "bool",
          "name": "approved",
          "type": "bool"
        }
      ],
      "name": "ApprovalForAll",
      "type": "event"
    },
    {
      "anonymous": false,
      "inputs": [
        {
          "indexed": true,
          "internalType": "address",
          "name": "from",
          "type": "address"
        },
        {
          "indexed": true,
          "internalType": "address",
          "name": "to",
          "type": "address"
        },
        {
          "indexed": true,
          "internalType": "uint256",
          "name": "tokenId",
          "type": "uint256"
        }
      ],
      "name": "Transfer",
      "type": "event"
    },
    {
      "inputs": [],
      "name": "_currentRound",
      "outputs": [
        {
          "internalType": "uint256",
          "name": "",
          "type": "uint256"
        }
      ],
      "stateMutability": "view",
      "type": "function"
    },
    {
      "inputs": [
        {
          "internalType": "address",
          "name": "operator",
          "type": "address"
        },
        {
          "internalType": "uint256",
          "name": "tokenId",
          "type": "uint256"
        }
      ],
      "name": "approve",
      "outputs": [],
      "stateMutability": "payable",
      "type": "function"
    },
    {
      "inputs": [
        {
          "internalType": "uint256",
          "name": "_tokenId",
          "type": "uint256"
        }
      ],
      "name": "aviationLevels",
      "outputs": [
        {
          "internalType": "uint256",
          "name": "",
          "type": "uint256"
        }
      ],
      "stateMutability": "view",
      "type": "function"
    },
    {
      "inputs": [
        {
          "internalType": "uint256",
          "name": "tokenId",
          "type": "uint256"
        }
      ],
      "name": "aviationLock",
      "outputs": [],
      "stateMutability": "nonpayable",
      "type": "function"
    },
    {
      "inputs": [
        {
          "internalType": "uint256",
          "name": "winnerTokenId",
          "type": "uint256"
        },
        {
          "internalType": "uint256",
          "name": "loserTokenId",
          "type": "uint256"
        }
      ],
      "name": "aviationMovePoints",
      "outputs": [],
      "stateMutability": "nonpayable",
      "type": "function"
    },
    {
      "inputs": [
        {
          "internalType": "uint256",
          "name": "_tokenId",
          "type": "uint256"
        }
      ],
      "name": "aviationPoints",
      "outputs": [
        {
          "internalType": "uint256",
          "name": "",
          "type": "uint256"
        }
      ],
      "stateMutability": "view",
      "type": "function"
    },
    {
      "inputs": [
        {
          "internalType": "uint256",
          "name": "",
          "type": "uint256"
        }
      ],
      "name": "aviationRounds",
      "outputs": [
        {
          "internalType": "uint256",
          "name": "",
          "type": "uint256"
        }
      ],
      "stateMutability": "view",
      "type": "function"
    },
    {
      "inputs": [
        {
          "internalType": "uint256",
          "name": "tokenId",
          "type": "uint256"
        }
      ],
      "name": "aviationUnlock",
      "outputs": [],
      "stateMutability": "nonpayable",
      "type": "function"
    },
    {
      "inputs": [
        {
          "internalType": "address",
          "name": "account",
          "type": "address"
        }
      ],
      "name": "balanceOf",
      "outputs": [
        {
          "internalType": "uint256",
          "name": "",
          "type": "uint256"
        }
      ],
      "stateMutability": "view",
      "type": "function"
    },
    {
      "inputs": [
        {
          "internalType": "uint256",
          "name": "tokenId",
          "type": "uint256"
        }
      ],
      "name": "getApproved",
      "outputs": [
        {
          "internalType": "address",
          "name": "",
          "type": "address"
        }
      ],
      "stateMutability": "view",
      "type": "function"
    },
    {
      "inputs": [
        {
          "internalType": "address",
          "name": "_owner",
          "type": "address"
        },
        {
          "internalType": "address",
          "name": "_operator",
          "type": "address"
        }
      ],
      "name": "isApprovedForAll",
      "outputs": [
        {
          "internalType": "bool",
          "name": "isOperator",
          "type": "bool"
        }
      ],
      "stateMutability": "view",
      "type": "function"
    },
    {
      "inputs": [
        {
          "internalType": "address",
          "name": "spender",
          "type": "address"
        },
        {
          "internalType": "uint256",
          "name": "tokenId",
          "type": "uint256"
        }
      ],
      "name": "isApprovedOrOwner",
      "outputs": [
        {
          "internalType": "bool",
          "name": "",
          "type": "bool"
        }
      ],
      "stateMutability": "view",
      "type": "function"
    },
    {
      "inputs": [
        {
          "internalType": "uint256",
          "name": "tokenId",
          "type": "uint256"
        }
      ],
      "name": "isAviationLocked",
      "outputs": [
        {
          "internalType": "bool",
          "name": "",
          "type": "bool"
        }
      ],
      "stateMutability": "view",
      "type": "function"
    },
    {
      "inputs": [
        {
          "internalType": "uint256",
          "name": "",
          "type": "uint256"
        }
      ],
      "name": "lastIndexPerRound",
      "outputs": [
        {
          "internalType": "uint256",
          "name": "",
          "type": "uint256"
        }
      ],
      "stateMutability": "view",
      "type": "function"
    },
    {
      "inputs": [
        {
          "internalType": "uint256",
          "name": "round",
          "type": "uint256"
        }
      ],
      "name": "leaderboardInfo",
      "outputs": [
        {
          "components": [
            {
              "internalType": "uint256",
              "name": "tokenId",
              "type": "uint256"
            },
            {
              "internalType": "uint256",
              "name": "level",
              "type": "uint256"
            }
          ],
          "internalType": "struct TrailblazerTournament.LeaderboardInfo[]",
          "name": "",
          "type": "tuple[]"
        }
      ],
      "stateMutability": "view",
      "type": "function"
    },
    {
      "inputs": [
        {
          "internalType": "address",
          "name": "to",
          "type": "address"
        }
      ],
      "name": "mintAviation",
      "outputs": [],
      "stateMutability": "nonpayable",
      "type": "function"
    },
    {
      "inputs": [],
      "name": "name",
      "outputs": [
        {
          "internalType": "string",
          "name": "",
          "type": "string"
        }
      ],
      "stateMutability": "view",
      "type": "function"
    },
    {
      "inputs": [
        {
          "internalType": "uint256",
          "name": "tokenId",
          "type": "uint256"
        }
      ],
      "name": "ownerOf",
      "outputs": [
        {
          "internalType": "address",
          "name": "",
          "type": "address"
        }
      ],
      "stateMutability": "view",
      "type": "function"
    },
    {
      "inputs": [
        {
          "internalType": "address",
          "name": "game",
          "type": "address"
        },
        {
          "internalType": "address",
          "name": "to",
          "type": "address"
        },
        {
          "internalType": "uint256[]",
          "name": "ids",
          "type": "uint256[]"
        },
        {
          "internalType": "uint256[]",
          "name": "amounts",
          "type": "uint256[]"
        }
      ],
      "name": "refundResourcesFromGame",
      "outputs": [],
      "stateMutability": "nonpayable",
      "type": "function"
    },
    {
      "inputs": [
        {
          "internalType": "string",
          "name": "metadataURI",
          "type": "string"
        }
      ],
      "name": "registerMetadataURI",
      "outputs": [],
      "stateMutability": "nonpayable",
      "type": "function"
    },
    {
      "inputs": [
        {
          "internalType": "address",
          "name": "pilotAddress",
          "type": "address"
        },
        {
          "internalType": "string",
          "name": "pilotCollectionName",
          "type": "string"
        },
        {
          "internalType": "string",
          "name": "baseUrl",
          "type": "string"
        }
      ],
      "name": "registerPilotAddress",
      "outputs": [],
      "stateMutability": "nonpayable",
      "type": "function"
    },
    {
      "inputs": [
        {
          "internalType": "address",
          "name": "from",
          "type": "address"
        },
        {
          "internalType": "address",
          "name": "game",
          "type": "address"
        },
        {
          "internalType": "uint256[]",
          "name": "ids",
          "type": "uint256[]"
        },
        {
          "internalType": "uint256[]",
          "name": "amounts",
          "type": "uint256[]"
        }
      ],
      "name": "requestResourcesForGame",
      "outputs": [],
      "stateMutability": "nonpayable",
      "type": "function"
    },
    {
      "inputs": [
        {
          "internalType": "address",
          "name": "from",
          "type": "address"
        },
        {
          "internalType": "address",
          "name": "to",
          "type": "address"
        },
        {
          "internalType": "uint256",
          "name": "tokenId",
          "type": "uint256"
        }
      ],
      "name": "safeTransferFrom",
      "outputs": [],
      "stateMutability": "payable",
      "type": "function"
    },
    {
      "inputs": [
        {
          "internalType": "address",
          "name": "from",
          "type": "address"
        },
        {
          "internalType": "address",
          "name": "to",
          "type": "address"
        },
        {
          "internalType": "uint256",
          "name": "tokenId",
          "type": "uint256"
        },
        {
          "internalType": "bytes",
          "name": "data",
          "type": "bytes"
        }
      ],
      "name": "safeTransferFrom",
      "outputs": [],
      "stateMutability": "payable",
      "type": "function"
    },
    {
      "inputs": [
        {
          "internalType": "address",
          "name": "operator",
          "type": "address"
        },
        {
          "internalType": "bool",
          "name": "status",
          "type": "bool"
        }
      ],
      "name": "setApprovalForAll",
      "outputs": [],
      "stateMutability": "nonpayable",
      "type": "function"
    },
    {
      "inputs": [
        {
          "internalType": "bool",
          "name": "_mintable",
          "type": "bool"
        }
      ],
      "name": "setMintable",
      "outputs": [],
      "stateMutability": "nonpayable",
      "type": "function"
    },
    {
      "inputs": [
        {
          "internalType": "bytes4",
          "name": "interfaceId",
          "type": "bytes4"
        }
      ],
      "name": "supportsInterface",
      "outputs": [
        {
          "internalType": "bool",
          "name": "",
          "type": "bool"
        }
      ],
      "stateMutability": "view",
      "type": "function"
    },
    {
      "inputs": [],
      "name": "symbol",
      "outputs": [
        {
          "internalType": "string",
          "name": "",
          "type": "string"
        }
      ],
      "stateMutability": "view",
      "type": "function"
    },
    {
      "inputs": [
        {
          "internalType": "uint256",
          "name": "index",
          "type": "uint256"
        }
      ],
      "name": "tokenByIndex",
      "outputs": [
        {
          "internalType": "uint256",
          "name": "",
          "type": "uint256"
        }
      ],
      "stateMutability": "view",
      "type": "function"
    },
    {
      "inputs": [
        {
          "internalType": "address",
          "name": "owner",
          "type": "address"
        },
        {
          "internalType": "uint256",
          "name": "index",
          "type": "uint256"
        }
      ],
      "name": "tokenOfOwnerByIndex",
      "outputs": [
        {
          "internalType": "uint256",
          "name": "",
          "type": "uint256"
        }
      ],
      "stateMutability": "view",
      "type": "function"
    },
    {
      "inputs": [
        {
          "internalType": "uint256",
          "name": "tokenId",
          "type": "uint256"
        }
      ],
      "name": "tokenURI",
      "outputs": [
        {
          "internalType": "string",
          "name": "",
          "type": "string"
        }
      ],
      "stateMutability": "view",
      "type": "function"
    },
    {
      "inputs": [],
      "name": "totalSupply",
      "outputs": [
        {
          "internalType": "uint256",
          "name": "",
          "type": "uint256"
        }
      ],
      "stateMutability": "view",
      "type": "function"
    },
    {
      "inputs": [
        {
          "internalType": "address[]",
          "name": "to",
          "type": "address[]"
        },
        {
          "internalType": "uint256",
          "name": "fuel",
          "type": "uint256"
        },
        {
          "internalType": "uint256",
          "name": "battery",
          "type": "uint256"
        }
      ],
      "name": "tournamentMint",
      "outputs": [],
      "stateMutability": "nonpayable",
      "type": "function"
    },
    {
      "inputs": [],
      "name": "tournamentRoundOver",
      "outputs": [],
      "stateMutability": "nonpayable",
      "type": "function"
    },
    {
      "inputs": [
        {
          "internalType": "address",
          "name": "from",
          "type": "address"
        },
        {
          "internalType": "address",
          "name": "to",
          "type": "address"
        },
        {
          "internalType": "uint256",
          "name": "tokenId",
          "type": "uint256"
        }
      ],
      "name": "transferFrom",
      "outputs": [],
      "stateMutability": "payable",
      "type": "function"
    }
  ],
  "bytecode": {
    "object": "0x608060405234620005945762003b27803803806200001d81620005b9565b928339810160208083830312620005945782516001600160401b0393848211620005945701601f9383858301121562000594578151818111620003c757601f19926200006f82880185168601620005b9565b958287528583830101116200059457849060005b8381106200057f575050600091860101526200009e62000599565b93601585527f547261696c626c617a6572546f75726e616d656e74000000000000000000000084860152620000d262000599565b601681527f545241494c424c415a45525f544f55524e414d454e5400000000000000000000858201528551838111620003c7577f99574a7094154bb123ae6ae102096f0bf9679b85a5cd1e727aaa0ae5f132e6b19081546001988982811c9216801562000574575b89831014620003a657818b8493116200051e575b5088908b8311600114620004ba57600092620004ae575b5050600019600383901b1c191690881b1790555b8051838111620003c7577f99574a7094154bb123ae6ae102096f0bf9679b85a5cd1e727aaa0ae5f132e6b2918254908882811c92168015620004a3575b88831014620003a657818a8493116200044d575b5087908a8311600114620003e957600092620003dd575b5050600019600383901b1c191690871b1790555b8051918211620003c7577f99574a7094154bb123ae6ae102096f0bf9679b85a5cd1e727aaa0ae5f132e6b39283548681811c91168015620003bc575b86821014620003a6578781116200035b575b5084968311600114620002f75750948192939495600092620002eb575b5050600019600383901b1c191690841b1790555b6301ffc9a760e01b6000527ffc606c433378e3a7e0a6a531deac289b66caa1b4aa8554fd4ab2c6f1570f92d88152604060002060ff199083828254161790556380ac58cd60e01b60005282604060002091825416179055600080556000805252600060408120556040516135479081620005e08239f35b01519050388062000260565b82169583600052846000209160005b88811062000345575083879897959697106200032b575b505050811b01905562000274565b015160001960f88460031b161c191690553880806200031d565b8183015184559287019291860191860162000306565b84600052856000208880860160051c8201928887106200039c575b0160051c019087905b8281106200038f57505062000243565b600081550187906200037f565b9250819262000376565b634e487b7160e01b600052602260045260246000fd5b90607f169062000231565b634e487b7160e01b600052604160045260246000fd5b015190503880620001e1565b90878a94169185600052896000209260005b8b8282106200043657505084116200041c575b505050811b019055620001f5565b015160001960f88460031b161c191690553880806200040e565b8385015186558d97909501949384019301620003fb565b90915083600052876000208a80850160051c8201928a861062000499575b918b91869594930160051c01915b82811062000489575050620001ca565b600081558594508b910162000479565b925081926200046b565b91607f1691620001b6565b01519050388062000165565b90888b941691856000528a6000209260005b8c828210620005075750508411620004ed575b505050811b01905562000179565b015160001960f88460031b161c19169055388080620004df565b8385015186558e97909501949384019301620004cc565b90915083600052886000208b80850160051c8201928b86106200056a575b918c91869594930160051c01915b8281106200055a5750506200014e565b600081558594508c91016200054a565b925081926200053c565b91607f16916200013a565b81810183015188820184015286920162000083565b600080fd5b60408051919082016001600160401b03811183821017620003c757604052565b6040519190601f01601f191682016001600160401b03811183821017620003c75760405256fe6080604052600436101561001257600080fd5b60003560e01c806301ffc9a71461024257806303fac1061461023d57806306b1718f1461023857806306fdde0314610233578063081812fc1461022e578063095ea7b31461022957806318160ddd146102245780631c2d79c71461021f57806323b872dd1461021a5780632633240214610215578063285d70d4146102105780632f10dfda1461020b5780632f745c591461020657806342842e0e14610201578063430c2081146101fc57806349ad6782146101f75780634f6ccce7146101f25780636352211e146101ed57806370a08231146101e85780637e1a8c34146101e357806395d89b41146101de578063a22cb465146101d9578063b5de30b4146101d4578063b858af65146101cf578063b88d4fde146101ca578063bf07b68f146101c5578063c87b56dd146101c0578063ce9e3cd8146101bb578063d83a19e0146101b6578063dd7a2e85146101b1578063e985e9c5146101ac578063ec7400ea146101a7578063f6573d7b1461019d578063fb736547146101a25763fdffdd3b1461019d57600080fd5b6116b2565b611726565b611628565b61159e565b61152f565b61142e565b6112f7565b6111dc565b610ffe565b610f89565b610e6c565b610d1b565b610c98565b610bd0565b610b3a565b610a51565b610a33565b6109e1565b610996565b610965565b610942565b610913565b61085e565b610804565b6107af565b610774565b61065d565b610632565b610514565b6104a4565b61039e565b6102e9565b6102cb565b61025e565b6001600160e01b031981160361025957565b600080fd5b346102595760203660031901126102595760043561027b81610247565b63ffffffff60e01b166000527ffc606c433378e3a7e0a6a531deac289b66caa1b4aa8554fd4ab2c6f1570f92d8602052602060ff604060002054166040519015158152f35b600091031261025957565b34610259576000366003190112610259576020600054604051908152f35b346102595760008060031936011261033f576103036128f3565b6000805160206134b28339815191525460018101811161033a57815482526001602052604082205561033581546117cf565b815580f35b6117b9565b80fd5b60005b8381106103555750506000910152565b8181015183820152602001610345565b9060209161037e81518092818552858086019101610342565b601f01601f1916010190565b90602061039b928181520190610365565b90565b346102595760008060031936011261033f5760405190807f99574a7094154bb123ae6ae102096f0bf9679b85a5cd1e727aaa0ae5f132e6b1908154906103e382611d14565b80865292600192808416908115610477575060011461041d575b6104198661040d81880382610af3565b6040519182918261038a565b0390f35b815292507f9da0b376ea5eac987e00ddf645ea1acba63ab64b37f9d745b363c22385ad39cb5b82841061045f57505050810160200161040d82610419386103fd565b80546020858701810191909152909301928101610443565b90508695506104199693506020925061040d94915060ff191682840152151560051b8201019293386103fd565b346102595760203660031901126102595760206104c2600435612bb6565b6040516001600160a01b039091168152f35b600435906001600160a01b038216820361025957565b602435906001600160a01b038216820361025957565b35906001600160a01b038216820361025957565b6040366003190112610259576105286104d4565b60243590610535346131a8565b61053e82612ae7565b6001600160a01b038083169290821691838314610620578233141590816105e2575b506105d0576105a99061058a85600052600080516020613472833981519152602052604060002090565b80546001600160a01b0319166001600160a01b03909216919091179055565b7f8c5be1e5ebec7d5bd14f71427d1e84f3dd0314c0f7b2291e5b200ac8c7c3b925600080a4005b604051632f5de44f60e01b8152600490fd5b61061a915061060f610616916105f8339161200a565b9060018060a01b0316600052602052604060002090565b5460ff1690565b1590565b38610560565b60405163424a22cb60e01b8152600490fd5b346102595760003660031901126102595760206000805160206134b283398151915254604051908152f35b34610259576020366003190112610259576106766104d4565b60ff7f3b36e3c23f7226ff6a8560b4f003b6456caa037dff1f2961b3deb261d5af6a5b5416156106fa576000805160206134b283398151915254906001820180921161033a57816106c691612c67565b6000527f3b36e3c23f7226ff6a8560b4f003b6456caa037dff1f2961b3deb261d5af6a5e6020526001604060002055600080f35b60405162461bcd60e51b815260206004820152601a60248201527f4d657263757279426173653a204d696e74206e6f74206f70656e0000000000006044820152606490fd5b6060906003190112610259576001600160a01b0390600435828116810361025957916024359081168103610259579060443590565b61077d3661073f565b903461079d5761078d8233612bfe565b156105d05761079b92613025565b005b6040516322b1813960e01b8152600490fd5b34610259576020366003190112610259576004356000527f3b36e3c23f7226ff6a8560b4f003b6456caa037dff1f2961b3deb261d5af6a5f6020526020604060002054604051908152f35b8015150361025957565b3461025957602036600319011261025957600435610821816107fa565b6108296128f3565b7f3b36e3c23f7226ff6a8560b4f003b6456caa037dff1f2961b3deb261d5af6a5b9060ff801983541691151516179055600080f35b34610259576020366003190112610259576000805160206134f2833981519152546040516352897beb60e01b815233600482015290602090829060249082906001600160a01b03165afa801561090e576108c0916000916108e0575b50611b37565b6104196108ce600435611b9f565b60405190151581529081906020820190565b610901915060203d8111610907575b6108f98183610af3565b810190611b22565b386108ba565b503d6108ef565b61186b565b3461025957604036600319011261025957602061093a6109316104d4565b602435906132fb565b604051908152f35b61079b61094e3661073f565b906040519261095c84610abd565b6000845261317d565b3461025957604036600319011261025957602061098c6109836104d4565b60243590612bfe565b6040519015158152f35b34610259576020366003190112610259576004356000527f3b36e3c23f7226ff6a8560b4f003b6456caa037dff1f2961b3deb261d5af6a5e6020526020604060002054604051908152f35b34610259576020366003190112610259576004356000805160206134b283398151915254811015610a2157610a17602091612b50565b5054604051908152f35b60405163022fd82760e31b8152600490fd5b346102595760203660031901126102595760206104c2600435612ae7565b3461025957602036600319011261025957602061093a610a6f6104d4565b612ab9565b634e487b7160e01b600052604160045260246000fd5b6001600160401b038111610a9d57604052565b610a74565b604081019081106001600160401b03821117610a9d57604052565b602081019081106001600160401b03821117610a9d57604052565b606081019081106001600160401b03821117610a9d57604052565b90601f801991011681019081106001600160401b03821117610a9d57604052565b60405190610b2182610aa2565b565b6001600160401b038111610a9d5760051b60200190565b34610259576060366003190112610259576004356001600160401b038111610259573660238201121561025957806004013590610b7682610b23565b90610b846040519283610af3565b82825260209260248484019160051b8301019136831161025957602401905b828210610bb95761079b604435602435866118bc565b848091610bc584610500565b815201910190610ba3565b346102595760008060031936011261033f5760405190807f99574a7094154bb123ae6ae102096f0bf9679b85a5cd1e727aaa0ae5f132e6b290815490610c1582611d14565b808652926001928084169081156104775750600114610c3e576104198661040d81880382610af3565b815292507f4d5a81d91ab5d0eb928391f3fb432d708f1a8a13471720d8e842441f4faa79d65b828410610c8057505050810160200161040d82610419386103fd565b80546020858701810191909152909301928101610c64565b3461025957604036600319011261025957610cb16104d4565b602435610cbd816107fa565b6001600160a01b0382169133831461062057610cdc906105f83361200a565b9015159060ff1981541660ff83161790556040519081527f17307eab39ab6107e8899845ad3d59bd9653f200f220920489ca2b5937696c3160203392a3005b3461025957602080600319360112610259576004359060248160018060a01b036000805160206134f28339815191525416604051928380926352897beb60e01b82523360048301525afa801561090e57610d7c91600091610e0b5750611b37565b610d8d610d8883612b96565b611e46565b816000526000805160206134928339815191529182825260ff6040600020541615610dc85760005252604060002060ff198154169055600080f35b6064826040519062461bcd60e51b825280600483015260248201527f4d657263757279426173653a206176696174696f6e206e6f74206c6f636b65646044820152fd5b6109019150833d8511610907576108f98183610af3565b60208082019080835283518092528060408094019401926000905b838210610e4c57505050505090565b845180518752830151868401529485019493820193600190910190610e3d565b34610259576020806003193601126102595760043590600019820182811161033a5760005260018152604060002054916001830180931161033a57610ebb906000526001602052604060002090565b5490610ed7610ed2610ecd8585611ab4565b6117de565b611ac1565b92805b83811115610ef057604051806104198782610e22565b80610f2c610f0184610f3294611ab4565b610f0a836115ca565b54610f13610b14565b9084825287820152610f25828a6117a5565b52876117a5565b506117cf565b610eda565b6001600160401b038111610a9d57601f01601f191660200190565b929192610f5e82610f37565b91610f6c6040519384610af3565b829481845281830111610259578281602093846000960137010152565b608036600319011261025957610f9d6104d4565b610fa56104ea565b606435916001600160401b038311610259573660238401121561025957610fd961079b933690602481600401359101610f52565b916044359161317d565b9080601f830112156102595781602061039b93359101610f52565b34610259576060366003190112610259576110176104d4565b6001600160401b0360243581811161025957611037903690600401610fe3565b9160443582811161025957611050903690600401610fe3565b916110596128f3565b6001600160a01b03821660009081527f3b36e3c23f7226ff6a8560b4f003b6456caa037dff1f2961b3deb261d5af6a6460205260409020908451908111610a9d576110ae816110a88454611d14565b8461244e565b602080601f83116001146111305750908061112094939261079b97600092611125575b5050600019600383901b1c191660019190911b1790556001600160a01b031660009081527f3b36e3c23f7226ff6a8560b4f003b6456caa037dff1f2961b3deb261d5af6a656020526040902090565b612488565b0151905038806110d1565b90601f1983169661114685600052602060002090565b926000905b8982106111c457505091839160019361112097969561079b9a106111ab575b505050811b0190556001600160a01b031660009081527f3b36e3c23f7226ff6a8560b4f003b6456caa037dff1f2961b3deb261d5af6a656020526040902090565b015160001960f88460031b161c1916905538808061116a565b8060018596829496860151815501950193019061114b565b34610259576020366003190112610259576004356111f981612b96565b156112a25761040d81611269611294611228611222610419966000526002602052604060002090565b54612976565b61128661127661123a611222876115ca565b61126360405196879561126361125260208901611d4e565b64149bdd5b9960da1b815260050190565b90611dfc565b602f60f81b815260010190565b632e706e6760e01b815260040190565b03601f198101835282610af3565b61129c611e26565b91612550565b60405162461bcd60e51b815260206004820152602760248201527f4552433732313a2055524920717565727920666f72206e6f6e6578697374656e6044820152663a103a37b5b2b760c91b6064820152608490fd5b3461025957602080600319360112610259576001600160401b03906004358281116102595761132a903690600401610fe3565b916113336128f3565b8251908111610a9d576000805160206134528339815191529161135f8261135a8554611d14565b6123e0565b80601f831160011461139a575081929360009261138f575b5050600019600383901b1c191660019190911b179055005b015190503880611377565b90601f198316946113da6000805160206134528339815191526000527f01cd02c8487a919a79d7c5850dcad891324a59b5d8cc91182f4234a53929340990565b926000905b8782106114165750508360019596106113fd575b505050811b019055005b015160001960f88460031b161c191690553880806113f3565b806001859682949686015181550195019301906113df565b3461025957602080600319360112610259576004359060248160018060a01b036000805160206134f28339815191525416604051928380926352897beb60e01b82523360048301525afa801561090e5761148f91600091610e0b5750611b37565b61149b610d8883612b96565b81600052600080516020613492833981519152815260ff604060002054166114eb576114de82600052600080516020613492833981519152602052604060002090565b805460ff19166001179055005b6064906040519062461bcd60e51b82526004820152601c60248201527f4d657263757279426173653a206176696174696f6e206c6f636b6564000000006044820152fd5b34610259576040366003190112610259576000805160206134f2833981519152546040516352897beb60e01b815233600482015290602090829060249082906001600160a01b03165afa801561090e57611590916000916108e05750611b37565b61079b602435600435611e92565b3461025957604036600319011261025957602061098c6115bc6104d4565b6115c46104ea565b90611c47565b6000527f3b36e3c23f7226ff6a8560b4f003b6456caa037dff1f2961b3deb261d5af6a5e602052604060002090565b6000527f3b36e3c23f7226ff6a8560b4f003b6456caa037dff1f2961b3deb261d5af6a5f602052604060002090565b346102595760203660031901126102595760043560005260016020526020604060002054604051908152f35b81601f820112156102595780359161166b83610b23565b926116796040519485610af3565b808452602092838086019260051b820101928311610259578301905b8282106116a3575050505090565b81358152908301908301611695565b34610259576080366003190112610259576001600160a01b036004358181168103610259576024359182168203610259576001600160401b039160443583811161025957611704903690600401611654565b906064359384116102595761172061079b943690600401611654565b9261228b565b346102595760203660031901126102595760043560005260026020526020604060002054604051908152f35b6040519061175f82610ad8565b600282526040366020840137565b634e487b7160e01b600052603260045260246000fd5b8051156117905760200190565b61176d565b8051600110156117905760400190565b80518210156117905760209160051b010190565b634e487b7160e01b600052601160045260246000fd5b600019811461033a5760010190565b906001820180921161033a57565b906002820180921161033a57565b906020820180921161033a57565b9190820180921161033a57565b90815180825260208080930193019160005b828110611835575050505090565b835185529381019392810192600101611827565b6001600160a01b03909116815260406020820181905261039b92910190611815565b6040513d6000823e3d90fd5b919261189d6020946118ab9360018060a01b031685526080868601526080850190611815565b908382036040850152611815565b906060818303910152600081520190565b9190916118c76128f3565b6118cf611752565b600091826118dc83611783565b52600193846118ea84611795565b526118f3611752565b956118fd87611783565b5261190786611795565b5282845b611918575b505050505050565b8151811015611aaf576119396000805160206134b2833981519152546117de565b61195c8161195761194a85876117a5565b516001600160a01b031690565b612c67565b61196e611968826115ca565b60019055565b61197a611968826115f9565b6119908554916000526002602052604060002090565b556000805160206134f283398151915280546001600160a01b0391906119bf9083165b6001600160a01b031690565b906119cd61194a85876117a5565b92823b15611a9857908791826119fd6040958a87519687809481936305a6b6b360e51b835260049c8d8401611849565b03925af191821561090e57611a24936119b393611a9c575b5054166001600160a01b031690565b91611a3261194a85876117a5565b91833b15611a985751630fbfeffd60e11b8152939287928592839185918391611a60918f918d918501611877565b03925af191821561090e57611a7992611a7f57506117cf565b8461190b565b80611a8c611a9292610a8a565b806102c0565b38610f2c565b8780fd5b80611a8c611aa992610a8a565b38611a15565b611910565b9190820391821161033a57565b90611acb82610b23565b604090611ada82519182610af3565b8381528093611aeb601f1991610b23565b0191600090815b848110611b00575050505050565b6020908251611b0e81610aa2565b848152828581830152828701015201611af2565b90816020910312610259575161039b816107fa565b15611b3e57565b60405162461bcd60e51b815260206004820152603360248201527f4d657263757279426173653a206d73672e73656e646572206973206e6f7420616044820152722076616c69642067616d65206164647265737360681b6064820152608490fd5b611ba881612b96565b15611bf6578060005260026020526040600020546000541490811591611bcc575090565b60ff9150611bf190600052600080516020613492833981519152602052604060002090565b541690565b60405162461bcd60e51b8152602060048201526024808201527f4d657263757279546f75726e616d656e743a206e6f6e6578697374656e74207460448201526337b5b2b760e11b6064820152608490fd5b600090815b611c5582612ab9565b811015611ca35760ff611c88611c6b83856132fb565b600052600080516020613492833981519152602052604060002090565b5416611c9c57611c97906117cf565b611c4c565b5050905090565b5090506001600160a01b03828116907358807bad0b376efc12f5ad86aac70e78ed67deae8214611d0b577fc8fcad8db84d3cc18b4c41d551ea0ee66dd599cde068d998e57d5e09332c1320541614611d045760ff916105f8611bf19261200a565b5050600190565b50505050600190565b90600182811c92168015611d44575b6020831014611d2e57565b634e487b7160e01b600052602260045260246000fd5b91607f1691611d23565b90600091600080516020613452833981519152908154611d6d81611d14565b92600191808316908115611de15750600114611d8a575b50505050565b9091929394506000527f01cd02c8487a919a79d7c5850dcad891324a59b5d8cc91182f4234a539293409906000915b848310611dce57505050019038808080611d84565b8181602092548587015201920191611db9565b60ff1916845250505081151590910201915038808080611d84565b90611e0f60209282815194859201610342565b0190565b60405190611e2082610abd565b60008252565b60405190611e3382610aa2565b60048252634e6f6e6560e01b6020830152565b15611e4d57565b60405162461bcd60e51b815260206004820152601e60248201527f4d657263757279426173653a206e6f6e6578697374656e7420746f6b656e00006044820152606490fd5b611f1f90611ea2610d8882612b96565b611eae610d8884612b96565b611eb7816115f9565b54611ed3611ecd611ec7866115f9565b546117de565b60011c90565b11611f5e57611ee7611ecd611ec7856115f9565b611ef0826115f9565b611efb828254611808565b9055611f06846115f9565b548110611f4357506000611f19846115f9565b55611f6d565b611f2881611f6d565b611f31816115f9565b5415611f3a5750565b610b219061207c565b611f57611f4f856115f9565b918254611ab4565b9055611f6d565b611f67816115f9565b54611ee7565b60005b6010811115611fb357506020816010611fa97f1b9c4b6f325882062024aaca6e75c86d61b0a66ea22e1e4ae0803c5005aa4097946115ca565b55604051908152a1565b60ff811161033a57611fc4826115f9565b546001821b11611fdc57611fd7906117cf565b611f70565b81602091611fa97f1b9c4b6f325882062024aaca6e75c86d61b0a66ea22e1e4ae0803c5005aa4097946115ca565b6001600160a01b031660009081527f3c7bf052874fa81625121783266a03507bd2cd48b16e571c01a04e8dd3fb07aa6020526040902090565b6001600160a01b031660009081527f3c7bf052874fa81625121783266a03507bd2cd48b16e571c01a04e8dd3fb07a86020526040902090565b61223361208882612ae7565b9180600080948282527f99574a7094154bb123ae6ae102096f0bf9679b85a5cd1e727aaa0ae5f132e6b460205281604081206120c48154611d14565b80612236575b5050506120df836120da83612043565b612f88565b506120e983612ec3565b5061211e61210e84600052600080516020613472833981519152602052604060002090565b80546001600160a01b0319169055565b6001600160a01b03168282827f8c5be1e5ebec7d5bd14f71427d1e84f3dd0314c0f7b2291e5b200ac8c7c3b9258280a47fddf252ad1be2c89b69c2b068fc378daa952ba7f163c4a11628f55a4df523b3ef8280a46122246121f46121bb6121ae846000527f3b36e3c23f7226ff6a8560b4f003b6456caa037dff1f2961b3deb261d5af6a62602052604060002090565b546001600160a01b031690565b6001600160a01b031660009081527f3b36e3c23f7226ff6a8560b4f003b6456caa037dff1f2961b3deb261d5af6a636020526040902090565b916000527f3b36e3c23f7226ff6a8560b4f003b6456caa037dff1f2961b3deb261d5af6a61602052604060002090565b54600052602052604060002090565b55565b601f811160011461224c5750555b8138806120ca565b6122869250612276906001601f61226885600052602060002090565b920160051c820191016123c9565b6000908082528160208120915555565b612244565b6000805160206134f283398151915280546040516352897beb60e01b8152336004820152949593946001600160a01b0391821690602081602481855afa801561090e576122df916000916108e05750611b37565b803b156102595784600091888361230d9760405198899586948593633db0f8ab60e01b85526004850161237d565b03925af191821561090e57612333936119b393611a9c575054166001600160a01b031690565b803b156102595761235f936000809460405196879586948593630fbfeffd60e11b855260048501611877565b03925af1801561090e576123705750565b80611a8c610b2192610a8a565b6001600160a01b03909116815260606020820181905261039b9391926123a591840190611815565b916040818403910152611815565b634e487b7160e01b600052600060045260246000fd5b8181106123d4575050565b600081556001016123c9565b90601f82116123ed575050565b610b21916000805160206134528339815191526000527f01cd02c8487a919a79d7c5850dcad891324a59b5d8cc91182f4234a539293409906020601f840160051c83019310612444575b601f0160051c01906123c9565b9091508190612437565b9190601f811161245d57505050565b610b21926000526020600020906020601f840160051c8301931061244457601f0160051c01906123c9565b91909182516001600160401b038111610a9d576124a9816110a88454611d14565b602080601f83116001146124e55750819293946000926124da575b50508160011b916000199060031b1c1916179055565b0151905038806124c4565b90601f198316956124fb85600052602060002090565b926000905b8882106125385750508360019596971061251f575b505050811b019055565b015160001960f88460031b161c19169055388080612515565b80600185968294968601518155019501930190612500565b909161255b82612976565b91612565816115ca565b5461256f90612976565b90612579906115f9565b5461258390612976565b6040516a7b226e616d65223a20222360a81b6020820152948594919291602b86016125ad91611dfc565b61088b60f21b8152600201691134b6b0b3b2911d101160b11b8152600a016125d491611dfc565b61088b60f21b81526002016e2261747472696275746573223a205b60881b8152600f01607b60f81b815260010175089d1c985a5d17dd1e5c19488e880893195d995b088b60521b8152601601680113b30b63ab2911d160bd1b815260090161263b91611dfc565b611f4b60f21b8152600201607b60f81b815260010175089d1c985a5d17dd1e5c19488e8808941bda5b9d088b60521b8152601601680113b30b63ab2911d160bd1b815260090161268a91611dfc565b611f4b60f21b8152600201607b60f81b815260010175089d1c985a5d17dd1e5c19488e8808941a5b1bdd088b60521b815260160169113b30b63ab2911d101160b11b8152600a016126da91611dfc565b601160f91b8152600101607d60f81b8152600101615d7d60f01b81526002010390601f1991828101825261270e9082610af3565b6127179061280a565b6040517f646174613a6170706c69636174696f6e2f6a736f6e3b6261736536342c000000602082015291908290603d820161275191611dfc565b03908101825261039b9082610af3565b6040519061276e82610ad8565b604082527f6768696a6b6c6d6e6f707172737475767778797a303132333435363738392b2f6040837f4142434445464748494a4b4c4d4e4f505152535455565758595a61626364656660208201520152565b600281901b91906001600160fe1b0381160361033a57565b906127e282610f37565b6127ef6040519182610af3565b8281528092612800601f1991610f37565b0190602036910137565b8051156128ea57612819612761565b61283561283061282984516117ec565b6003900490565b6127c0565b91612847612842846117fa565b6127d8565b92835280815182019060208501935b8282106128985750505060039051068060011461288757600214612878575090565b603d60f81b6000199091015290565b50613d3d60f01b6001199091015290565b9091936004906003809401938451600190603f9082828260121c16880101518553828282600c1c16880101518386015382828260061c1688010151600286015316850101519082015301939190612856565b5061039b611e13565b7fc8fcad8db84d3cc18b4c41d551ea0ee66dd599cde068d998e57d5e09332c1320546001600160a01b0316330361292657565b60405162461bcd60e51b815260206004820152602260248201527f4c69624469616d6f6e643a204d75737420626520636f6e7472616374206f776e60448201526132b960f11b6064820152608490fd5b806000917a184f03e93ff9f4daa797ed6e38ed64bf6a1f01000000000000000080821015612aab575b506d04ee2d6d415b85acef810000000080831015612a9c575b50662386f26fc1000080831015612a8d575b506305f5e10080831015612a7e575b5061271080831015612a6f575b506064821015612a5f575b600a80921015612a55575b600190816021612a0d8287016127d8565b95860101905b612a1f575b5050505090565b600019019083906f181899199a1a9b1b9c1cb0b131b232b360811b8282061a835304918215612a5057919082612a13565b612a18565b91600101916129fc565b91906064600291049101916129f1565b600491939204910191386129e6565b600891939204910191386129d9565b601091939204910191386129ca565b602091939204910191386129b8565b60409350810491503861299f565b6001600160a01b03811615612ad557612ad190612043565b5490565b604051630810ff9760e41b8152600490fd5b6000526000805160206134d28339815191526020526040600020548015612b3e57612b159060001901612b50565b50600101546001600160a01b03168015612b2c5790565b604051637e1a7d8b60e01b8152600490fd5b604051633d547ec560e21b8152600490fd5b6000805160206134b283398151915280548210156117905760005260011b7f709a16c9caeafb61409212be896356f281c91d5c5b5cccb959477d20bb6240fb0190600090565b6000526000805160206134d2833981519152602052604060002054151590565b612bbf81612b96565b15612bec57600090815260008051602061347283398151915260205260409020546001600160a01b031690565b60405163c1b843ef60e01b8152600490fd5b612c0782612b96565b15612bec57612c1582612ae7565b6001600160a01b038281168282168114949091908515612c4f575b5050508215612c3e57505090565b60ff9250906105f8611bf19261200a565b612c5c9192939550612bb6565b161491388080612c30565b9060405190612c7582610abd565b600082526001600160a01b038316928315612d1057612c9382612b96565b612cfe5781612ce594612cae82612ca985612043565b612dfd565b50612cb98183612d22565b5060007fddf252ad1be2c89b69c2b068fc378daa952ba7f163c4a11628f55a4df523b3ef8180a4613229565b15612cec57565b604051639ff10cdd60e01b8152600490fd5b604051630d86bb7b60e31b8152600490fd5b6040516311f2988d60e11b8152600490fd5b90816000526000805160206134d28339815191526020526040600020548015600014612dcb5750604051612d5581610aa2565b828152602081019182526000805160206134b2833981519152908154600160401b811015610a9d57806001612d8c92018455612b50565b919091612dc657612dc0936001915183555191015554916000526000805160206134d2833981519152602052604060002090565b55600190565b6123b3565b6001919250612ddd9060001901612b50565b500155600090565b80548210156117905760005260206000200190600090565b91906000926001810190826000528160205260406000205415612e1f57505050565b80919293945054600160401b811015610a9d57612e5d612e46826001879401855584612de5565b819391549060031b91821b91600019901b19161790565b90555491600052602052604060002055600190565b634e487b7160e01b600052603160045260246000fd5b6000805160206134b283398151915280548015612ebe576000190190612ead82612b50565b612dc6576001816000809355015555565b612e72565b60008181526000805160206134d28339815191526020526040902054908115612f815760001990612f10612f07836000805160206134b28339815191525401612b50565b50928401612b50565b939093612dc657612f488385612dc09560009703612f6e575b50546000526000805160206134d2833981519152602052604060002090565b55612f51612e88565b6000526000805160206134d2833981519152602052604060002090565b8154815560018083015491015538612f29565b5050600090565b919060009260009160018201918184528260205260408420549081612faf575b5050505050565b9091929394955060001991612fc78383540183612de5565b90549060031b1c80612fde612e4686850186612de5565b9055865284602052604086205580548015612ebe578201916130008383612de5565b909182549160031b1b1916905555825260205260408120556001903880808080612fa8565b60009083825260008051602061349283398151915260205260ff6040832054166131385761305284612ae7565b6001600160a01b03828116939181169290848403613126578516948515613114577fddf252ad1be2c89b69c2b068fc378daa952ba7f163c4a11628f55a4df523b3ef936130bc88612ca9846130b6836120da81996130b1838d9b613333565b612043565b50612043565b506130c78784612d22565b506130ec61210e84600052600080516020613472833981519152602052604060002090565b7f8c5be1e5ebec7d5bd14f71427d1e84f3dd0314c0f7b2291e5b200ac8c7c3b9258280a480a4565b6040516340311a0960e01b8152600490fd5b604051630f2db4ad60e01b8152600490fd5b60405162461bcd60e51b815260206004820152601c60248201527f4d657263757279426173653a20746f6b656e206973206c6f636b6564000000006044820152606490fd5b9291903461079d5761318f8233612bfe565b156105d057836131a38383612ce597613025565b6132ab565b6131ae57565b60405163b56d7c1b60e01b8152600490fd5b604051906131cd82610ad8565b603282527131b2b4bb32b91034b6b83632b6b2b73a32b960711b6040837f4552433732313a207472616e7366657220746f206e6f6e20455243373231526560208201520152565b90816020910312610259575161039b81610247565b919091803b156132a35761128661327561328393604051928391630a85bd0160e11b978860208501523360248501526000604485015260648401526080608484015260a4830190610365565b61327d6131c0565b916133b8565b61329e63ffffffff60e01b9160208082518301019101613214565b161490565b505050600190565b92813b15611d0b5761327561328393611286604051938492630a85bd0160e11b9889602086015233602486015260018060a01b0316604485015260648401526080608484015260a4830190610365565b61330490612043565b9081548110156133215761331791612de5565b90549060031b1c90565b60405163e637bf3b60e01b8152600490fd5b6001600160a01b0316156133445750565b60009081527f99574a7094154bb123ae6ae102096f0bf9679b85a5cd1e727aaa0ae5f132e6b46020526040812061337b8154611d14565b8061338557505050565b82601f821160011461339657505055565b90918082526133b4601f60208420940160051c8401600185016123c9565b5555565b9190606092803b1561343f5781600092918360208194519301915af1913d1561343957503d916133e783610f37565b926133f56040519485610af3565b83523d6000602085013e5b15613409575090565b8151156134195750805190602001fd5b60405162461bcd60e51b8152908190613435906004830161038a565b0390fd5b91613400565b604051632270d6bf60e21b8152600490fdfe3b36e3c23f7226ff6a8560b4f003b6456caa037dff1f2961b3deb261d5af6a5c3c7bf052874fa81625121783266a03507bd2cd48b16e571c01a04e8dd3fb07a93b36e3c23f7226ff6a8560b4f003b6456caa037dff1f2961b3deb261d5af6a603c7bf052874fa81625121783266a03507bd2cd48b16e571c01a04e8dd3fb07a63c7bf052874fa81625121783266a03507bd2cd48b16e571c01a04e8dd3fb07a73b36e3c23f7226ff6a8560b4f003b6456caa037dff1f2961b3deb261d5af6a5da264697066735822122011dabc3da38f9e84e2316dd726fb4731394cd6dac2e5c8a0dfda5f777965239564736f6c63430008130033",
    "linkReferences": {}
  },
  "methodIdentifiers": {
    "_currentRound()": "03fac106",
    "approve(address,uint256)": "095ea7b3",
    "aviationLevels(uint256)": "49ad6782",
    "aviationLock(uint256)": "d83a19e0",
    "aviationMovePoints(uint256,uint256)": "dd7a2e85",
    "aviationPoints(uint256)": "26332402",
    "aviationRounds(uint256)": "fb736547",
    "aviationUnlock(uint256)": "b5de30b4",
    "balanceOf(address)": "70a08231",
    "getApproved(uint256)": "081812fc",
    "isApprovedForAll(address,address)": "e985e9c5",
    "isApprovedOrOwner(address,uint256)": "430c2081",
    "isAviationLocked(uint256)": "2f10dfda",
    "lastIndexPerRound(uint256)": "ec7400ea",
    "leaderboardInfo(uint256)": "b858af65",
    "mintAviation(address)": "1c2d79c7",
    "name()": "06fdde03",
    "ownerOf(uint256)": "6352211e",
    "refundResourcesFromGame(address,address,uint256[],uint256[])": "fdffdd3b",
    "registerMetadataURI(string)": "ce9e3cd8",
    "registerPilotAddress(address,string,string)": "bf07b68f",
    "requestResourcesForGame(address,address,uint256[],uint256[])": "f6573d7b",
    "safeTransferFrom(address,address,uint256)": "42842e0e",
    "safeTransferFrom(address,address,uint256,bytes)": "b88d4fde",
    "setApprovalForAll(address,bool)": "a22cb465",
    "setMintable(bool)": "285d70d4",
    "supportsInterface(bytes4)": "01ffc9a7",
    "symbol()": "95d89b41",
    "tokenByIndex(uint256)": "4f6ccce7",
    "tokenOfOwnerByIndex(address,uint256)": "2f745c59",
    "tokenURI(uint256)": "c87b56dd",
    "totalSupply()": "18160ddd",
    "tournamentMint(address[],uint256,uint256)": "7e1a8c34",
    "tournamentRoundOver()": "06b1718f",
    "transferFrom(address,address,uint256)": "23b872dd"
  },
  "id": 1
}