{
  "abi": [
    {
      "inputs": [
        {
          "internalType": "string",
          "name": "baseURI",
          "type": "string"
        }
      ],
      "stateMutability": "nonpayable",
      "type": "constructor"
    },
    {
      "inputs": [],
      "name": "AddressUtils__NotContract",
      "type": "error"
    },
    {
      "inputs": [],
      "name": "ERC165Base__InvalidInterfaceId",
      "type": "error"
    },
    {
      "inputs": [],
      "name": "ERC721Base__BalanceQueryZeroAddress",
      "type": "error"
    },
    {
      "inputs": [],
      "name": "ERC721Base__ERC721ReceiverNotImplemented",
      "type": "error"
    },
    {
      "inputs": [],
      "name": "ERC721Base__InvalidOwner",
      "type": "error"
    },
    {
      "inputs": [],
      "name": "ERC721Base__MintToZeroAddress",
      "type": "error"
    },
    {
      "inputs": [],
      "name": "ERC721Base__NonExistentToken",
      "type": "error"
    },
    {
      "inputs": [],
      "name": "ERC721Base__NotOwnerOrApproved",
      "type": "error"
    },
    {
      "inputs": [],
      "name": "ERC721Base__NotTokenOwner",
      "type": "error"
    },
    {
      "inputs": [],
      "name": "ERC721Base__SelfApproval",
      "type": "error"
    },
    {
      "inputs": [],
      "name": "ERC721Base__TokenAlreadyMinted",
      "type": "error"
    },
    {
      "inputs": [],
      "name": "ERC721Base__TransferToZeroAddress",
      "type": "error"
    },
    {
      "inputs": [],
      "name": "ERC721Metadata__NonExistentToken",
      "type": "error"
    },
    {
      "inputs": [],
      "name": "EnumerableMap__IndexOutOfBounds",
      "type": "error"
    },
    {
      "inputs": [],
      "name": "EnumerableMap__NonExistentKey",
      "type": "error"
    },
    {
      "inputs": [],
      "name": "EnumerableSet__IndexOutOfBounds",
      "type": "error"
    },
    {
      "inputs": [],
      "name": "SolidStateERC721__PayableApproveNotSupported",
      "type": "error"
    },
    {
      "inputs": [],
      "name": "SolidStateERC721__PayableTransferNotSupported",
      "type": "error"
    },
    {
      "anonymous": false,
      "inputs": [
        {
          "indexed": true,
          "internalType": "address",
          "name": "owner",
          "type": "address"
        },
        {
          "indexed": true,
          "internalType": "address",
          "name": "operator",
          "type": "address"
        },
        {
          "indexed": true,
          "internalType": "uint256",
          "name": "tokenId",
          "type": "uint256"
        }
      ],
      "name": "Approval",
      "type": "event"
    },
    {
      "anonymous": false,
      "inputs": [
        {
          "indexed": true,
          "internalType": "address",
          "name": "owner",
          "type": "address"
        },
        {
          "indexed": true,
          "internalType": "address",
          "name": "operator",
          "type": "address"
        },
        {
          "indexed": false,
          "internalType": "bool",
          "name": "approved",
          "type": "bool"
        }
      ],
      "name": "ApprovalForAll",
      "type": "event"
    },
    {
      "anonymous": false,
      "inputs": [
        {
          "indexed": true,
          "internalType": "address",
          "name": "from",
          "type": "address"
        },
        {
          "indexed": true,
          "internalType": "address",
          "name": "to",
          "type": "address"
        },
        {
          "indexed": true,
          "internalType": "uint256",
          "name": "tokenId",
          "type": "uint256"
        }
      ],
      "name": "Transfer",
      "type": "event"
    },
    {
      "inputs": [],
      "name": "_currentRound",
      "outputs": [
        {
          "internalType": "uint256",
          "name": "",
          "type": "uint256"
        }
      ],
      "stateMutability": "view",
      "type": "function"
    },
    {
      "inputs": [
        {
          "internalType": "address",
          "name": "operator",
          "type": "address"
        },
        {
          "internalType": "uint256",
          "name": "tokenId",
          "type": "uint256"
        }
      ],
      "name": "approve",
      "outputs": [],
      "stateMutability": "payable",
      "type": "function"
    },
    {
      "inputs": [
        {
          "internalType": "uint256",
          "name": "_tokenId",
          "type": "uint256"
        }
      ],
      "name": "aviationLevels",
      "outputs": [
        {
          "internalType": "uint256",
          "name": "",
          "type": "uint256"
        }
      ],
      "stateMutability": "view",
      "type": "function"
    },
    {
      "inputs": [
        {
          "internalType": "uint256",
          "name": "tokenId",
          "type": "uint256"
        }
      ],
      "name": "aviationLock",
      "outputs": [],
      "stateMutability": "nonpayable",
      "type": "function"
    },
    {
      "inputs": [
        {
          "internalType": "uint256",
          "name": "winnerTokenId",
          "type": "uint256"
        },
        {
          "internalType": "uint256",
          "name": "loserTokenId",
          "type": "uint256"
        }
      ],
      "name": "aviationMovePoints",
      "outputs": [],
      "stateMutability": "nonpayable",
      "type": "function"
    },
    {
      "inputs": [
        {
          "internalType": "uint256",
          "name": "_tokenId",
          "type": "uint256"
        }
      ],
      "name": "aviationPoints",
      "outputs": [
        {
          "internalType": "uint256",
          "name": "",
          "type": "uint256"
        }
      ],
      "stateMutability": "view",
      "type": "function"
    },
    {
      "inputs": [
        {
          "internalType": "uint256",
          "name": "",
          "type": "uint256"
        }
      ],
      "name": "aviationRounds",
      "outputs": [
        {
          "internalType": "uint256",
          "name": "",
          "type": "uint256"
        }
      ],
      "stateMutability": "view",
      "type": "function"
    },
    {
      "inputs": [
        {
          "internalType": "uint256",
          "name": "tokenId",
          "type": "uint256"
        }
      ],
      "name": "aviationUnlock",
      "outputs": [],
      "stateMutability": "nonpayable",
      "type": "function"
    },
    {
      "inputs": [
        {
          "internalType": "address",
          "name": "account",
          "type": "address"
        }
      ],
      "name": "balanceOf",
      "outputs": [
        {
          "internalType": "uint256",
          "name": "",
          "type": "uint256"
        }
      ],
      "stateMutability": "view",
      "type": "function"
    },
    {
      "inputs": [
        {
          "internalType": "uint256",
          "name": "tokenId",
          "type": "uint256"
        }
      ],
      "name": "getApproved",
      "outputs": [
        {
          "internalType": "address",
          "name": "",
          "type": "address"
        }
      ],
      "stateMutability": "view",
      "type": "function"
    },
    {
      "inputs": [
        {
          "internalType": "address",
          "name": "_owner",
          "type": "address"
        },
        {
          "internalType": "address",
          "name": "_operator",
          "type": "address"
        }
      ],
      "name": "isApprovedForAll",
      "outputs": [
        {
          "internalType": "bool",
          "name": "isOperator",
          "type": "bool"
        }
      ],
      "stateMutability": "view",
      "type": "function"
    },
    {
      "inputs": [
        {
          "internalType": "address",
          "name": "spender",
          "type": "address"
        },
        {
          "internalType": "uint256",
          "name": "tokenId",
          "type": "uint256"
        }
      ],
      "name": "isApprovedOrOwner",
      "outputs": [
        {
          "internalType": "bool",
          "name": "",
          "type": "bool"
        }
      ],
      "stateMutability": "view",
      "type": "function"
    },
    {
      "inputs": [
        {
          "internalType": "uint256",
          "name": "tokenId",
          "type": "uint256"
        }
      ],
      "name": "isAviationLocked",
      "outputs": [
        {
          "internalType": "bool",
          "name": "",
          "type": "bool"
        }
      ],
      "stateMutability": "view",
      "type": "function"
    },
    {
      "inputs": [
        {
          "internalType": "uint256",
          "name": "",
          "type": "uint256"
        }
      ],
      "name": "lastIndexPerRound",
      "outputs": [
        {
          "internalType": "uint256",
          "name": "",
          "type": "uint256"
        }
      ],
      "stateMutability": "view",
      "type": "function"
    },
    {
      "inputs": [
        {
          "internalType": "uint256",
          "name": "round",
          "type": "uint256"
        }
      ],
      "name": "leaderboardInfo",
      "outputs": [
        {
          "components": [
            {
              "internalType": "uint256",
              "name": "tokenId",
              "type": "uint256"
            },
            {
              "internalType": "uint256",
              "name": "level",
              "type": "uint256"
            }
          ],
          "internalType": "struct TrailblazerTournament.LeaderboardInfo[]",
          "name": "",
          "type": "tuple[]"
        }
      ],
      "stateMutability": "view",
      "type": "function"
    },
    {
      "inputs": [],
      "name": "name",
      "outputs": [
        {
          "internalType": "string",
          "name": "",
          "type": "string"
        }
      ],
      "stateMutability": "view",
      "type": "function"
    },
    {
      "inputs": [
        {
          "internalType": "uint256",
          "name": "tokenId",
          "type": "uint256"
        }
      ],
      "name": "ownerOf",
      "outputs": [
        {
          "internalType": "address",
          "name": "",
          "type": "address"
        }
      ],
      "stateMutability": "view",
      "type": "function"
    },
    {
      "inputs": [
        {
          "internalType": "address",
          "name": "game",
          "type": "address"
        },
        {
          "internalType": "address",
          "name": "to",
          "type": "address"
        },
        {
          "internalType": "uint256[]",
          "name": "ids",
          "type": "uint256[]"
        },
        {
          "internalType": "uint256[]",
          "name": "amounts",
          "type": "uint256[]"
        }
      ],
      "name": "refundResourcesFromGame",
      "outputs": [],
      "stateMutability": "nonpayable",
      "type": "function"
    },
    {
      "inputs": [
        {
          "internalType": "string",
          "name": "metadataURI",
          "type": "string"
        }
      ],
      "name": "registerMetadataURI",
      "outputs": [],
      "stateMutability": "nonpayable",
      "type": "function"
    },
    {
      "inputs": [
        {
          "internalType": "address",
          "name": "pilotAddress",
          "type": "address"
        },
        {
          "internalType": "string",
          "name": "pilotCollectionName",
          "type": "string"
        },
        {
          "internalType": "string",
          "name": "baseUrl",
          "type": "string"
        }
      ],
      "name": "registerPilotAddress",
      "outputs": [],
      "stateMutability": "nonpayable",
      "type": "function"
    },
    {
      "inputs": [
        {
          "internalType": "address",
          "name": "from",
          "type": "address"
        },
        {
          "internalType": "address",
          "name": "game",
          "type": "address"
        },
        {
          "internalType": "uint256[]",
          "name": "ids",
          "type": "uint256[]"
        },
        {
          "internalType": "uint256[]",
          "name": "amounts",
          "type": "uint256[]"
        }
      ],
      "name": "requestResourcesForGame",
      "outputs": [],
      "stateMutability": "nonpayable",
      "type": "function"
    },
    {
      "inputs": [
        {
          "internalType": "address",
          "name": "from",
          "type": "address"
        },
        {
          "internalType": "address",
          "name": "to",
          "type": "address"
        },
        {
          "internalType": "uint256",
          "name": "tokenId",
          "type": "uint256"
        }
      ],
      "name": "safeTransferFrom",
      "outputs": [],
      "stateMutability": "payable",
      "type": "function"
    },
    {
      "inputs": [
        {
          "internalType": "address",
          "name": "from",
          "type": "address"
        },
        {
          "internalType": "address",
          "name": "to",
          "type": "address"
        },
        {
          "internalType": "uint256",
          "name": "tokenId",
          "type": "uint256"
        },
        {
          "internalType": "bytes",
          "name": "data",
          "type": "bytes"
        }
      ],
      "name": "safeTransferFrom",
      "outputs": [],
      "stateMutability": "payable",
      "type": "function"
    },
    {
      "inputs": [
        {
          "internalType": "address",
          "name": "operator",
          "type": "address"
        },
        {
          "internalType": "bool",
          "name": "status",
          "type": "bool"
        }
      ],
      "name": "setApprovalForAll",
      "outputs": [],
      "stateMutability": "nonpayable",
      "type": "function"
    },
    {
      "inputs": [
        {
          "internalType": "bytes4",
          "name": "interfaceId",
          "type": "bytes4"
        }
      ],
      "name": "supportsInterface",
      "outputs": [
        {
          "internalType": "bool",
          "name": "",
          "type": "bool"
        }
      ],
      "stateMutability": "view",
      "type": "function"
    },
    {
      "inputs": [],
      "name": "symbol",
      "outputs": [
        {
          "internalType": "string",
          "name": "",
          "type": "string"
        }
      ],
      "stateMutability": "view",
      "type": "function"
    },
    {
      "inputs": [
        {
          "internalType": "uint256",
          "name": "index",
          "type": "uint256"
        }
      ],
      "name": "tokenByIndex",
      "outputs": [
        {
          "internalType": "uint256",
          "name": "",
          "type": "uint256"
        }
      ],
      "stateMutability": "view",
      "type": "function"
    },
    {
      "inputs": [
        {
          "internalType": "address",
          "name": "owner",
          "type": "address"
        },
        {
          "internalType": "uint256",
          "name": "index",
          "type": "uint256"
        }
      ],
      "name": "tokenOfOwnerByIndex",
      "outputs": [
        {
          "internalType": "uint256",
          "name": "",
          "type": "uint256"
        }
      ],
      "stateMutability": "view",
      "type": "function"
    },
    {
      "inputs": [
        {
          "internalType": "uint256",
          "name": "tokenId",
          "type": "uint256"
        }
      ],
      "name": "tokenURI",
      "outputs": [
        {
          "internalType": "string",
          "name": "",
          "type": "string"
        }
      ],
      "stateMutability": "view",
      "type": "function"
    },
    {
      "inputs": [],
      "name": "totalSupply",
      "outputs": [
        {
          "internalType": "uint256",
          "name": "",
          "type": "uint256"
        }
      ],
      "stateMutability": "view",
      "type": "function"
    },
    {
      "inputs": [
        {
          "internalType": "address[]",
          "name": "to",
          "type": "address[]"
        },
        {
          "internalType": "uint256",
          "name": "fuel",
          "type": "uint256"
        },
        {
          "internalType": "uint256",
          "name": "battery",
          "type": "uint256"
        }
      ],
      "name": "tournamentMint",
      "outputs": [],
      "stateMutability": "nonpayable",
      "type": "function"
    },
    {
      "inputs": [],
      "name": "tournamentRoundOver",
      "outputs": [],
      "stateMutability": "nonpayable",
      "type": "function"
    },
    {
      "inputs": [
        {
          "internalType": "address",
          "name": "from",
          "type": "address"
        },
        {
          "internalType": "address",
          "name": "to",
          "type": "address"
        },
        {
          "internalType": "uint256",
          "name": "tokenId",
          "type": "uint256"
        }
      ],
      "name": "transferFrom",
      "outputs": [],
      "stateMutability": "payable",
      "type": "function"
    }
  ],
  "bytecode": {
    "object": "0x6080604052346200059457620039cb803803806200001d81620005b9565b928339810160208083830312620005945782516001600160401b0393848211620005945701601f9383858301121562000594578151818111620003c757601f19926200006f82880185168601620005b9565b958287528583830101116200059457849060005b8381106200057f575050600091860101526200009e62000599565b93601585527f547261696c626c617a6572546f75726e616d656e74000000000000000000000084860152620000d262000599565b601681527f545241494c424c415a45525f544f55524e414d454e5400000000000000000000858201528551838111620003c7577f99574a7094154bb123ae6ae102096f0bf9679b85a5cd1e727aaa0ae5f132e6b19081546001988982811c9216801562000574575b89831014620003a657818b8493116200051e575b5088908b8311600114620004ba57600092620004ae575b5050600019600383901b1c191690881b1790555b8051838111620003c7577f99574a7094154bb123ae6ae102096f0bf9679b85a5cd1e727aaa0ae5f132e6b2918254908882811c92168015620004a3575b88831014620003a657818a8493116200044d575b5087908a8311600114620003e957600092620003dd575b5050600019600383901b1c191690871b1790555b8051918211620003c7577f99574a7094154bb123ae6ae102096f0bf9679b85a5cd1e727aaa0ae5f132e6b39283548681811c91168015620003bc575b86821014620003a6578781116200035b575b5084968311600114620002f75750948192939495600092620002eb575b5050600019600383901b1c191690841b1790555b6301ffc9a760e01b6000527ffc606c433378e3a7e0a6a531deac289b66caa1b4aa8554fd4ab2c6f1570f92d88152604060002060ff199083828254161790556380ac58cd60e01b60005282604060002091825416179055600080556000805252600060408120556040516133eb9081620005e08239f35b01519050388062000260565b82169583600052846000209160005b88811062000345575083879897959697106200032b575b505050811b01905562000274565b015160001960f88460031b161c191690553880806200031d565b8183015184559287019291860191860162000306565b84600052856000208880860160051c8201928887106200039c575b0160051c019087905b8281106200038f57505062000243565b600081550187906200037f565b9250819262000376565b634e487b7160e01b600052602260045260246000fd5b90607f169062000231565b634e487b7160e01b600052604160045260246000fd5b015190503880620001e1565b90878a94169185600052896000209260005b8b8282106200043657505084116200041c575b505050811b019055620001f5565b015160001960f88460031b161c191690553880806200040e565b8385015186558d97909501949384019301620003fb565b90915083600052876000208a80850160051c8201928a861062000499575b918b91869594930160051c01915b82811062000489575050620001ca565b600081558594508b910162000479565b925081926200046b565b91607f1691620001b6565b01519050388062000165565b90888b941691856000528a6000209260005b8c828210620005075750508411620004ed575b505050811b01905562000179565b015160001960f88460031b161c19169055388080620004df565b8385015186558e97909501949384019301620004cc565b90915083600052886000208b80850160051c8201928b86106200056a575b918c91869594930160051c01915b8281106200055a5750506200014e565b600081558594508c91016200054a565b925081926200053c565b91607f16916200013a565b81810183015188820184015286920162000083565b600080fd5b60408051919082016001600160401b03811183821017620003c757604052565b6040519190601f01601f191682016001600160401b03811183821017620003c75760405256fe6080604052600436101561001257600080fd5b60003560e01c806301ffc9a71461022257806303fac1061461021d57806306b1718f1461021857806306fdde0314610213578063081812fc1461020e578063095ea7b31461020957806318160ddd1461020457806323b872dd146101ff57806326332402146101fa5780632f10dfda146101f55780632f745c59146101f057806342842e0e146101eb578063430c2081146101e657806349ad6782146101e15780634f6ccce7146101dc5780636352211e146101d757806370a08231146101d25780637e1a8c34146101cd57806395d89b41146101c8578063a22cb465146101c3578063b5de30b4146101be578063b858af65146101b9578063b88d4fde146101b4578063bf07b68f146101af578063c87b56dd146101aa578063ce9e3cd8146101a5578063d83a19e0146101a0578063dd7a2e851461019b578063e985e9c514610196578063ec7400ea14610191578063f6573d7b14610187578063fb7365471461018c5763fdffdd3b1461018757600080fd5b611556565b6115ca565b6114cc565b611442565b6113d3565b6112d2565b61119b565b611080565b610ea2565b610e2d565b610d10565b610bbf565b610b3c565b610a6a565b6109d4565b6108eb565b6108cd565b61087b565b610830565b6107ff565b6107dc565b6107ad565b6106f8565b6106ad565b610672565b610612565b6104f4565b610484565b61037e565b6102c9565b6102ab565b61023e565b6001600160e01b031981160361023957565b600080fd5b346102395760203660031901126102395760043561025b81610227565b63ffffffff60e01b166000527ffc606c433378e3a7e0a6a531deac289b66caa1b4aa8554fd4ab2c6f1570f92d8602052602060ff604060002054166040519015158152f35b600091031261023957565b34610239576000366003190112610239576020600054604051908152f35b346102395760008060031936011261031f576102e3612797565b6000805160206133568339815191525460018101811161031a5781548252600160205260408220556103158154611673565b815580f35b61165d565b80fd5b60005b8381106103355750506000910152565b8181015183820152602001610325565b9060209161035e81518092818552858086019101610322565b601f01601f1916010190565b90602061037b928181520190610345565b90565b346102395760008060031936011261031f5760405190807f99574a7094154bb123ae6ae102096f0bf9679b85a5cd1e727aaa0ae5f132e6b1908154906103c382611bb8565b8086529260019280841690811561045757506001146103fd575b6103f9866103ed8188038261098d565b6040519182918261036a565b0390f35b815292507f9da0b376ea5eac987e00ddf645ea1acba63ab64b37f9d745b363c22385ad39cb5b82841061043f5750505081016020016103ed826103f9386103dd565b80546020858701810191909152909301928101610423565b90508695506103f9969350602092506103ed94915060ff191682840152151560051b8201019293386103dd565b346102395760203660031901126102395760206104a2600435612a5a565b6040516001600160a01b039091168152f35b600435906001600160a01b038216820361023957565b602435906001600160a01b038216820361023957565b35906001600160a01b038216820361023957565b6040366003190112610239576105086104b4565b602435906105153461304c565b61051e8261298b565b6001600160a01b038083169290821691838314610600578233141590816105c2575b506105b0576105899061056a85600052600080516020613336833981519152602052604060002090565b80546001600160a01b0319166001600160a01b03909216919091179055565b7f8c5be1e5ebec7d5bd14f71427d1e84f3dd0314c0f7b2291e5b200ac8c7c3b925600080a4005b604051632f5de44f60e01b8152600490fd5b6105fa91506105ef6105f6916105d83391611eae565b9060018060a01b0316600052602052604060002090565b5460ff1690565b1590565b38610540565b60405163424a22cb60e01b8152600490fd5b3461023957600036600319011261023957602060008051602061335683398151915254604051908152f35b6060906003190112610239576001600160a01b0390600435828116810361023957916024359081168103610239579060443590565b61067b3661063d565b903461069b5761068b8233612aa2565b156105b05761069992612ec9565b005b6040516322b1813960e01b8152600490fd5b34610239576020366003190112610239576004356000527f3b36e3c23f7226ff6a8560b4f003b6456caa037dff1f2961b3deb261d5af6a5e6020526020604060002054604051908152f35b34610239576020366003190112610239576000805160206132f6833981519152546040516352897beb60e01b815233600482015290602090829060249082906001600160a01b03165afa80156107a85761075a9160009161077a575b506119db565b6103f9610768600435611a43565b60405190151581529081906020820190565b61079b915060203d81116107a1575b610793818361098d565b8101906119c6565b38610754565b503d610789565b61170f565b346102395760403660031901126102395760206107d46107cb6104b4565b6024359061319f565b604051908152f35b6106996107e83661063d565b90604051926107f684610957565b60008452613021565b3461023957604036600319011261023957602061082661081d6104b4565b60243590612aa2565b6040519015158152f35b34610239576020366003190112610239576004356000527f3b36e3c23f7226ff6a8560b4f003b6456caa037dff1f2961b3deb261d5af6a5d6020526020604060002054604051908152f35b3461023957602036600319011261023957600435600080516020613356833981519152548110156108bb576108b16020916129f4565b5054604051908152f35b60405163022fd82760e31b8152600490fd5b346102395760203660031901126102395760206104a260043561298b565b346102395760203660031901126102395760206107d46109096104b4565b61295d565b634e487b7160e01b600052604160045260246000fd5b6001600160401b03811161093757604052565b61090e565b604081019081106001600160401b0382111761093757604052565b602081019081106001600160401b0382111761093757604052565b606081019081106001600160401b0382111761093757604052565b90601f801991011681019081106001600160401b0382111761093757604052565b604051906109bb8261093c565b565b6001600160401b0381116109375760051b60200190565b34610239576060366003190112610239576004356001600160401b038111610239573660238201121561023957806004013590610a10826109bd565b90610a1e604051928361098d565b82825260209260248484019160051b8301019136831161023957602401905b828210610a535761069960443560243586611760565b848091610a5f846104e0565b815201910190610a3d565b346102395760008060031936011261031f5760405190807f99574a7094154bb123ae6ae102096f0bf9679b85a5cd1e727aaa0ae5f132e6b290815490610aaf82611bb8565b808652926001928084169081156104575750600114610ad8576103f9866103ed8188038261098d565b815292507f4d5a81d91ab5d0eb928391f3fb432d708f1a8a13471720d8e842441f4faa79d65b828410610b1a5750505081016020016103ed826103f9386103dd565b80546020858701810191909152909301928101610afe565b8015150361023957565b3461023957604036600319011261023957610b556104b4565b602435610b6181610b32565b6001600160a01b0382169133831461060057610b80906105d833611eae565b9015159060ff1981541660ff83161790556040519081527f17307eab39ab6107e8899845ad3d59bd9653f200f220920489ca2b5937696c3160203392a3005b3461023957602080600319360112610239576004359060248160018060a01b036000805160206132f68339815191525416604051928380926352897beb60e01b82523360048301525afa80156107a857610c2091600091610caf57506119db565b610c31610c2c83612a3a565b611cea565b816000526000805160206133968339815191529182825260ff6040600020541615610c6c5760005252604060002060ff198154169055600080f35b6064826040519062461bcd60e51b825280600483015260248201527f4d657263757279426173653a206176696174696f6e206e6f74206c6f636b65646044820152fd5b61079b9150833d85116107a157610793818361098d565b60208082019080835283518092528060408094019401926000905b838210610cf057505050505090565b845180518752830151868401529485019493820193600190910190610ce1565b34610239576020806003193601126102395760043590600019820182811161031a5760005260018152604060002054916001830180931161031a57610d5f906000526001602052604060002090565b5490610d7b610d76610d718585611958565b611682565b611965565b92805b83811115610d9457604051806103f98782610cc6565b80610dd0610da584610dd694611958565b610dae8361146e565b54610db76109ae565b9084825287820152610dc9828a611649565b5287611649565b50611673565b610d7e565b6001600160401b03811161093757601f01601f191660200190565b929192610e0282610ddb565b91610e10604051938461098d565b829481845281830111610239578281602093846000960137010152565b608036600319011261023957610e416104b4565b610e496104ca565b606435916001600160401b038311610239573660238401121561023957610e7d610699933690602481600401359101610df6565b9160443591613021565b9080601f830112156102395781602061037b93359101610df6565b3461023957606036600319011261023957610ebb6104b4565b6001600160401b0360243581811161023957610edb903690600401610e87565b9160443582811161023957610ef4903690600401610e87565b91610efd612797565b6001600160a01b03821660009081527f3b36e3c23f7226ff6a8560b4f003b6456caa037dff1f2961b3deb261d5af6a636020526040902090845190811161093757610f5281610f4c8454611bb8565b846122f2565b602080601f8311600114610fd457509080610fc494939261069997600092610fc9575b5050600019600383901b1c191660019190911b1790556001600160a01b031660009081527f3b36e3c23f7226ff6a8560b4f003b6456caa037dff1f2961b3deb261d5af6a646020526040902090565b61232c565b015190503880610f75565b90601f19831696610fea85600052602060002090565b926000905b898210611068575050918391600193610fc49796956106999a1061104f575b505050811b0190556001600160a01b031660009081527f3b36e3c23f7226ff6a8560b4f003b6456caa037dff1f2961b3deb261d5af6a646020526040902090565b015160001960f88460031b161c1916905538808061100e565b80600185968294968601518155019501930190610fef565b346102395760203660031901126102395760043561109d81612a3a565b15611146576103ed8161110d6111386110cc6110c66103f9966000526002602052604060002090565b5461281a565b61112a61111a6110de6110c68761146e565b6111076040519687956111076110f660208901611bf2565b64149bdd5b9960da1b815260050190565b90611ca0565b602f60f81b815260010190565b632e706e6760e01b815260040190565b03601f19810183528261098d565b611140611cca565b916123f4565b60405162461bcd60e51b815260206004820152602760248201527f4552433732313a2055524920717565727920666f72206e6f6e6578697374656e6044820152663a103a37b5b2b760c91b6064820152608490fd5b3461023957602080600319360112610239576001600160401b0390600435828111610239576111ce903690600401610e87565b916111d7612797565b82519081116109375760008051602061331683398151915291611203826111fe8554611bb8565b612284565b80601f831160011461123e5750819293600092611233575b5050600019600383901b1c191660019190911b179055005b01519050388061121b565b90601f1983169461127e6000805160206133168339815191526000527f498c26f30ddc34945cd5911b8f771d2a1071971e3943d7ba6581bbde2c506f9c90565b926000905b8782106112ba5750508360019596106112a1575b505050811b019055005b015160001960f88460031b161c19169055388080611297565b80600185968294968601518155019501930190611283565b3461023957602080600319360112610239576004359060248160018060a01b036000805160206132f68339815191525416604051928380926352897beb60e01b82523360048301525afa80156107a85761133391600091610caf57506119db565b61133f610c2c83612a3a565b81600052600080516020613396833981519152815260ff6040600020541661138f5761138282600052600080516020613396833981519152602052604060002090565b805460ff19166001179055005b6064906040519062461bcd60e51b82526004820152601c60248201527f4d657263757279426173653a206176696174696f6e206c6f636b6564000000006044820152fd5b34610239576040366003190112610239576000805160206132f6833981519152546040516352897beb60e01b815233600482015290602090829060249082906001600160a01b03165afa80156107a8576114349160009161077a57506119db565b610699602435600435611d36565b346102395760403660031901126102395760206108266114606104b4565b6114686104ca565b90611aeb565b6000527f3b36e3c23f7226ff6a8560b4f003b6456caa037dff1f2961b3deb261d5af6a5d602052604060002090565b6000527f3b36e3c23f7226ff6a8560b4f003b6456caa037dff1f2961b3deb261d5af6a5e602052604060002090565b346102395760203660031901126102395760043560005260016020526020604060002054604051908152f35b81601f820112156102395780359161150f836109bd565b9261151d604051948561098d565b808452602092838086019260051b820101928311610239578301905b828210611547575050505090565b81358152908301908301611539565b34610239576080366003190112610239576001600160a01b036004358181168103610239576024359182168203610239576001600160401b0391604435838111610239576115a89036906004016114f8565b90606435938411610239576115c46106999436906004016114f8565b9261212f565b346102395760203660031901126102395760043560005260026020526020604060002054604051908152f35b6040519061160382610972565b600282526040366020840137565b634e487b7160e01b600052603260045260246000fd5b8051156116345760200190565b611611565b8051600110156116345760400190565b80518210156116345760209160051b010190565b634e487b7160e01b600052601160045260246000fd5b600019811461031a5760010190565b906001820180921161031a57565b906002820180921161031a57565b906020820180921161031a57565b9190820180921161031a57565b90815180825260208080930193019160005b8281106116d9575050505090565b8351855293810193928101926001016116cb565b6001600160a01b03909116815260406020820181905261037b929101906116b9565b6040513d6000823e3d90fd5b919261174160209461174f9360018060a01b0316855260808686015260808501906116b9565b9083820360408501526116b9565b906060818303910152600081520190565b91909161176b612797565b6117736115f6565b6000918261178083611627565b526001938461178e84611639565b526117976115f6565b956117a187611627565b526117ab86611639565b5282845b6117bc575b505050505050565b8151811015611953576117dd60008051602061335683398151915254611682565b611800816117fb6117ee8587611649565b516001600160a01b031690565b612b0b565b61181261180c8261146e565b60019055565b61181e61180c8261149d565b6118348554916000526002602052604060002090565b556000805160206132f683398151915280546001600160a01b0391906118639083165b6001600160a01b031690565b906118716117ee8587611649565b92823b1561193c57908791826118a16040958a87519687809481936305a6b6b360e51b835260049c8d84016116ed565b03925af19182156107a8576118c89361185793611940575b5054166001600160a01b031690565b916118d66117ee8587611649565b91833b1561193c5751630fbfeffd60e11b8152939287928592839185918391611904918f918d91850161171b565b03925af19182156107a85761191d926119235750611673565b846117af565b8061193061193692610924565b806102a0565b38610dd0565b8780fd5b8061193061194d92610924565b386118b9565b6117b4565b9190820391821161031a57565b9061196f826109bd565b60409061197e8251918261098d565b838152809361198f601f19916109bd565b0191600090815b8481106119a4575050505050565b60209082516119b28161093c565b848152828581830152828701015201611996565b90816020910312610239575161037b81610b32565b156119e257565b60405162461bcd60e51b815260206004820152603360248201527f4d657263757279426173653a206d73672e73656e646572206973206e6f7420616044820152722076616c69642067616d65206164647265737360681b6064820152608490fd5b611a4c81612a3a565b15611a9a578060005260026020526040600020546000541490811591611a70575090565b60ff9150611a9590600052600080516020613396833981519152602052604060002090565b541690565b60405162461bcd60e51b8152602060048201526024808201527f4d657263757279546f75726e616d656e743a206e6f6e6578697374656e74207460448201526337b5b2b760e11b6064820152608490fd5b600090815b611af98261295d565b811015611b475760ff611b2c611b0f838561319f565b600052600080516020613396833981519152602052604060002090565b5416611b4057611b3b90611673565b611af0565b5050905090565b5090506001600160a01b03828116907358807bad0b376efc12f5ad86aac70e78ed67deae8214611baf577fc8fcad8db84d3cc18b4c41d551ea0ee66dd599cde068d998e57d5e09332c1320541614611ba85760ff916105d8611a9592611eae565b5050600190565b50505050600190565b90600182811c92168015611be8575b6020831014611bd257565b634e487b7160e01b600052602260045260246000fd5b91607f1691611bc7565b90600091600080516020613316833981519152908154611c1181611bb8565b92600191808316908115611c855750600114611c2e575b50505050565b9091929394506000527f498c26f30ddc34945cd5911b8f771d2a1071971e3943d7ba6581bbde2c506f9c906000915b848310611c7257505050019038808080611c28565b8181602092548587015201920191611c5d565b60ff1916845250505081151590910201915038808080611c28565b90611cb360209282815194859201610322565b0190565b60405190611cc482610957565b60008252565b60405190611cd78261093c565b60048252634e6f6e6560e01b6020830152565b15611cf157565b60405162461bcd60e51b815260206004820152601e60248201527f4d657263757279426173653a206e6f6e6578697374656e7420746f6b656e00006044820152606490fd5b611dc390611d46610c2c82612a3a565b611d52610c2c84612a3a565b611d5b8161149d565b54611d77611d71611d6b8661149d565b54611682565b60011c90565b11611e0257611d8b611d71611d6b8561149d565b611d948261149d565b611d9f8282546116ac565b9055611daa8461149d565b548110611de757506000611dbd8461149d565b55611e11565b611dcc81611e11565b611dd58161149d565b5415611dde5750565b6109bb90611f20565b611dfb611df38561149d565b918254611958565b9055611e11565b611e0b8161149d565b54611d8b565b60005b6010811115611e5757506020816010611e4d7f1b9c4b6f325882062024aaca6e75c86d61b0a66ea22e1e4ae0803c5005aa40979461146e565b55604051908152a1565b60ff811161031a57611e688261149d565b546001821b11611e8057611e7b90611673565b611e14565b81602091611e4d7f1b9c4b6f325882062024aaca6e75c86d61b0a66ea22e1e4ae0803c5005aa40979461146e565b6001600160a01b031660009081527f3c7bf052874fa81625121783266a03507bd2cd48b16e571c01a04e8dd3fb07aa6020526040902090565b6001600160a01b031660009081527f3c7bf052874fa81625121783266a03507bd2cd48b16e571c01a04e8dd3fb07a86020526040902090565b6120d7611f2c8261298b565b9180600080948282527f99574a7094154bb123ae6ae102096f0bf9679b85a5cd1e727aaa0ae5f132e6b46020528160408120611f688154611bb8565b806120da575b505050611f8383611f7e83611ee7565b612e2c565b50611f8d83612d67565b50611fc2611fb284600052600080516020613336833981519152602052604060002090565b80546001600160a01b0319169055565b6001600160a01b03168282827f8c5be1e5ebec7d5bd14f71427d1e84f3dd0314c0f7b2291e5b200ac8c7c3b9258280a47fddf252ad1be2c89b69c2b068fc378daa952ba7f163c4a11628f55a4df523b3ef8280a46120c861209861205f612052846000527f3b36e3c23f7226ff6a8560b4f003b6456caa037dff1f2961b3deb261d5af6a61602052604060002090565b546001600160a01b031690565b6001600160a01b031660009081527f3b36e3c23f7226ff6a8560b4f003b6456caa037dff1f2961b3deb261d5af6a626020526040902090565b916000527f3b36e3c23f7226ff6a8560b4f003b6456caa037dff1f2961b3deb261d5af6a60602052604060002090565b54600052602052604060002090565b55565b601f81116001146120f05750555b813880611f6e565b61212a925061211a906001601f61210c85600052602060002090565b920160051c8201910161226d565b6000908082528160208120915555565b6120e8565b6000805160206132f683398151915280546040516352897beb60e01b8152336004820152949593946001600160a01b0391821690602081602481855afa80156107a8576121839160009161077a57506119db565b803b15610239578460009188836121b19760405198899586948593633db0f8ab60e01b855260048501612221565b03925af19182156107a8576121d79361185793611940575054166001600160a01b031690565b803b1561023957612203936000809460405196879586948593630fbfeffd60e11b85526004850161171b565b03925af180156107a8576122145750565b806119306109bb92610924565b6001600160a01b03909116815260606020820181905261037b939192612249918401906116b9565b9160408184039101526116b9565b634e487b7160e01b600052600060045260246000fd5b818110612278575050565b6000815560010161226d565b90601f8211612291575050565b6109bb916000805160206133168339815191526000527f498c26f30ddc34945cd5911b8f771d2a1071971e3943d7ba6581bbde2c506f9c906020601f840160051c830193106122e8575b601f0160051c019061226d565b90915081906122db565b9190601f811161230157505050565b6109bb926000526020600020906020601f840160051c830193106122e857601f0160051c019061226d565b91909182516001600160401b0381116109375761234d81610f4c8454611bb8565b602080601f831160011461238957508192939460009261237e575b50508160011b916000199060031b1c1916179055565b015190503880612368565b90601f1983169561239f85600052602060002090565b926000905b8882106123dc575050836001959697106123c3575b505050811b019055565b015160001960f88460031b161c191690553880806123b9565b806001859682949686015181550195019301906123a4565b90916123ff8261281a565b916124098161146e565b546124139061281a565b9061241d9061149d565b546124279061281a565b6040516a7b226e616d65223a20222360a81b6020820152948594919291602b860161245191611ca0565b61088b60f21b8152600201691134b6b0b3b2911d101160b11b8152600a0161247891611ca0565b61088b60f21b81526002016e2261747472696275746573223a205b60881b8152600f01607b60f81b815260010175089d1c985a5d17dd1e5c19488e880893195d995b088b60521b8152601601680113b30b63ab2911d160bd1b81526009016124df91611ca0565b611f4b60f21b8152600201607b60f81b815260010175089d1c985a5d17dd1e5c19488e8808941bda5b9d088b60521b8152601601680113b30b63ab2911d160bd1b815260090161252e91611ca0565b611f4b60f21b8152600201607b60f81b815260010175089d1c985a5d17dd1e5c19488e8808941a5b1bdd088b60521b815260160169113b30b63ab2911d101160b11b8152600a0161257e91611ca0565b601160f91b8152600101607d60f81b8152600101615d7d60f01b81526002010390601f199182810182526125b2908261098d565b6125bb906126ae565b6040517f646174613a6170706c69636174696f6e2f6a736f6e3b6261736536342c000000602082015291908290603d82016125f591611ca0565b03908101825261037b908261098d565b6040519061261282610972565b604082527f6768696a6b6c6d6e6f707172737475767778797a303132333435363738392b2f6040837f4142434445464748494a4b4c4d4e4f505152535455565758595a61626364656660208201520152565b600281901b91906001600160fe1b0381160361031a57565b9061268682610ddb565b612693604051918261098d565b82815280926126a4601f1991610ddb565b0190602036910137565b80511561278e576126bd612605565b6126d96126d46126cd8451611690565b6003900490565b612664565b916126eb6126e68461169e565b61267c565b92835280815182019060208501935b82821061273c5750505060039051068060011461272b5760021461271c575090565b603d60f81b6000199091015290565b50613d3d60f01b6001199091015290565b9091936004906003809401938451600190603f9082828260121c16880101518553828282600c1c16880101518386015382828260061c16880101516002860153168501015190820153019391906126fa565b5061037b611cb7565b7fc8fcad8db84d3cc18b4c41d551ea0ee66dd599cde068d998e57d5e09332c1320546001600160a01b031633036127ca57565b60405162461bcd60e51b815260206004820152602260248201527f4c69624469616d6f6e643a204d75737420626520636f6e7472616374206f776e60448201526132b960f11b6064820152608490fd5b806000917a184f03e93ff9f4daa797ed6e38ed64bf6a1f0100000000000000008082101561294f575b506d04ee2d6d415b85acef810000000080831015612940575b50662386f26fc1000080831015612931575b506305f5e10080831015612922575b5061271080831015612913575b506064821015612903575b600a809210156128f9575b6001908160216128b182870161267c565b95860101905b6128c3575b5050505090565b600019019083906f181899199a1a9b1b9c1cb0b131b232b360811b8282061a8353049182156128f4579190826128b7565b6128bc565b91600101916128a0565b9190606460029104910191612895565b6004919392049101913861288a565b6008919392049101913861287d565b6010919392049101913861286e565b6020919392049101913861285c565b604093508104915038612843565b6001600160a01b038116156129795761297590611ee7565b5490565b604051630810ff9760e41b8152600490fd5b60005260008051602061337683398151915260205260406000205480156129e2576129b990600019016129f4565b50600101546001600160a01b031680156129d05790565b604051637e1a7d8b60e01b8152600490fd5b604051633d547ec560e21b8152600490fd5b60008051602061335683398151915280548210156116345760005260011b7f709a16c9caeafb61409212be896356f281c91d5c5b5cccb959477d20bb6240fb0190600090565b600052600080516020613376833981519152602052604060002054151590565b612a6381612a3a565b15612a9057600090815260008051602061333683398151915260205260409020546001600160a01b031690565b60405163c1b843ef60e01b8152600490fd5b612aab82612a3a565b15612a9057612ab98261298b565b6001600160a01b038281168282168114949091908515612af3575b5050508215612ae257505090565b60ff9250906105d8611a9592611eae565b612b009192939550612a5a565b161491388080612ad4565b9060405190612b1982610957565b600082526001600160a01b038316928315612bb457612b3782612a3a565b612ba25781612b8994612b5282612b4d85611ee7565b612ca1565b50612b5d8183612bc6565b5060007fddf252ad1be2c89b69c2b068fc378daa952ba7f163c4a11628f55a4df523b3ef8180a46130cd565b15612b9057565b604051639ff10cdd60e01b8152600490fd5b604051630d86bb7b60e31b8152600490fd5b6040516311f2988d60e11b8152600490fd5b90816000526000805160206133768339815191526020526040600020548015600014612c6f5750604051612bf98161093c565b82815260208101918252600080516020613356833981519152908154600160401b81101561093757806001612c30920184556129f4565b919091612c6a57612c6493600191518355519101555491600052600080516020613376833981519152602052604060002090565b55600190565b612257565b6001919250612c8190600019016129f4565b500155600090565b80548210156116345760005260206000200190600090565b91906000926001810190826000528160205260406000205415612cc357505050565b80919293945054600160401b81101561093757612d01612cea826001879401855584612c89565b819391549060031b91821b91600019901b19161790565b90555491600052602052604060002055600190565b634e487b7160e01b600052603160045260246000fd5b60008051602061335683398151915280548015612d62576000190190612d51826129f4565b612c6a576001816000809355015555565b612d16565b60008181526000805160206133768339815191526020526040902054908115612e255760001990612db4612dab8360008051602061335683398151915254016129f4565b509284016129f4565b939093612c6a57612dec8385612c649560009703612e12575b5054600052600080516020613376833981519152602052604060002090565b55612df5612d2c565b600052600080516020613376833981519152602052604060002090565b8154815560018083015491015538612dcd565b5050600090565b919060009260009160018201918184528260205260408420549081612e53575b5050505050565b9091929394955060001991612e6b8383540183612c89565b90549060031b1c80612e82612cea86850186612c89565b9055865284602052604086205580548015612d6257820191612ea48383612c89565b909182549160031b1b1916905555825260205260408120556001903880808080612e4c565b60009083825260008051602061339683398151915260205260ff604083205416612fdc57612ef68461298b565b6001600160a01b03828116939181169290848403612fca578516948515612fb8577fddf252ad1be2c89b69c2b068fc378daa952ba7f163c4a11628f55a4df523b3ef93612f6088612b4d84612f5a83611f7e8199612f55838d9b6131d7565b611ee7565b50611ee7565b50612f6b8784612bc6565b50612f90611fb284600052600080516020613336833981519152602052604060002090565b7f8c5be1e5ebec7d5bd14f71427d1e84f3dd0314c0f7b2291e5b200ac8c7c3b9258280a480a4565b6040516340311a0960e01b8152600490fd5b604051630f2db4ad60e01b8152600490fd5b60405162461bcd60e51b815260206004820152601c60248201527f4d657263757279426173653a20746f6b656e206973206c6f636b6564000000006044820152606490fd5b9291903461069b576130338233612aa2565b156105b057836130478383612b8997612ec9565b61314f565b61305257565b60405163b56d7c1b60e01b8152600490fd5b6040519061307182610972565b603282527131b2b4bb32b91034b6b83632b6b2b73a32b960711b6040837f4552433732313a207472616e7366657220746f206e6f6e20455243373231526560208201520152565b90816020910312610239575161037b81610227565b919091803b156131475761112a61311961312793604051928391630a85bd0160e11b978860208501523360248501526000604485015260648401526080608484015260a4830190610345565b613121613064565b9161325c565b61314263ffffffff60e01b91602080825183010191016130b8565b161490565b505050600190565b92813b15611baf576131196131279361112a604051938492630a85bd0160e11b9889602086015233602486015260018060a01b0316604485015260648401526080608484015260a4830190610345565b6131a890611ee7565b9081548110156131c5576131bb91612c89565b90549060031b1c90565b60405163e637bf3b60e01b8152600490fd5b6001600160a01b0316156131e85750565b60009081527f99574a7094154bb123ae6ae102096f0bf9679b85a5cd1e727aaa0ae5f132e6b46020526040812061321f8154611bb8565b8061322957505050565b82601f821160011461323a57505055565b9091808252613258601f60208420940160051c84016001850161226d565b5555565b9190606092803b156132e35781600092918360208194519301915af1913d156132dd57503d9161328b83610ddb565b92613299604051948561098d565b83523d6000602085013e5b156132ad575090565b8151156132bd5750805190602001fd5b60405162461bcd60e51b81529081906132d9906004830161036a565b0390fd5b916132a4565b604051632270d6bf60e21b8152600490fdfe3b36e3c23f7226ff6a8560b4f003b6456caa037dff1f2961b3deb261d5af6a5c3b36e3c23f7226ff6a8560b4f003b6456caa037dff1f2961b3deb261d5af6a5b3c7bf052874fa81625121783266a03507bd2cd48b16e571c01a04e8dd3fb07a93c7bf052874fa81625121783266a03507bd2cd48b16e571c01a04e8dd3fb07a63c7bf052874fa81625121783266a03507bd2cd48b16e571c01a04e8dd3fb07a73b36e3c23f7226ff6a8560b4f003b6456caa037dff1f2961b3deb261d5af6a5fa2646970667358221220bcc03c029c7d93371634f116cba15c231c4c97f58f671bc29f817147a3ae99d364736f6c63430008130033",
    "linkReferences": {}
  },
  "methodIdentifiers": {
    "_currentRound()": "03fac106",
    "approve(address,uint256)": "095ea7b3",
    "aviationLevels(uint256)": "49ad6782",
    "aviationLock(uint256)": "d83a19e0",
    "aviationMovePoints(uint256,uint256)": "dd7a2e85",
    "aviationPoints(uint256)": "26332402",
    "aviationRounds(uint256)": "fb736547",
    "aviationUnlock(uint256)": "b5de30b4",
    "balanceOf(address)": "70a08231",
    "getApproved(uint256)": "081812fc",
    "isApprovedForAll(address,address)": "e985e9c5",
    "isApprovedOrOwner(address,uint256)": "430c2081",
    "isAviationLocked(uint256)": "2f10dfda",
    "lastIndexPerRound(uint256)": "ec7400ea",
    "leaderboardInfo(uint256)": "b858af65",
    "name()": "06fdde03",
    "ownerOf(uint256)": "6352211e",
    "refundResourcesFromGame(address,address,uint256[],uint256[])": "fdffdd3b",
    "registerMetadataURI(string)": "ce9e3cd8",
    "registerPilotAddress(address,string,string)": "bf07b68f",
    "requestResourcesForGame(address,address,uint256[],uint256[])": "f6573d7b",
    "safeTransferFrom(address,address,uint256)": "42842e0e",
    "safeTransferFrom(address,address,uint256,bytes)": "b88d4fde",
    "setApprovalForAll(address,bool)": "a22cb465",
    "supportsInterface(bytes4)": "01ffc9a7",
    "symbol()": "95d89b41",
    "tokenByIndex(uint256)": "4f6ccce7",
    "tokenOfOwnerByIndex(address,uint256)": "2f745c59",
    "tokenURI(uint256)": "c87b56dd",
    "totalSupply()": "18160ddd",
    "tournamentMint(address[],uint256,uint256)": "7e1a8c34",
    "tournamentRoundOver()": "06b1718f",
    "transferFrom(address,address,uint256)": "23b872dd"
  },
  "id": 528
}