{
  "abi": [
    {
      "inputs": [
        {
          "internalType": "uint16",
          "name": "defaultRoyaltyBPS",
          "type": "uint16"
        },
        {
          "internalType": "uint16[]",
          "name": "royaltiesBPS",
          "type": "uint16[]"
        },
        {
          "internalType": "address",
          "name": "defaultRoyaltyReceiver",
          "type": "address"
        }
      ],
      "stateMutability": "nonpayable",
      "type": "constructor"
    },
    {
      "inputs": [],
      "name": "ERC165Base__InvalidInterfaceId",
      "type": "error"
    },
    {
      "inputs": [
        {
          "internalType": "uint256",
          "name": "tokenId",
          "type": "uint256"
        },
        {
          "internalType": "uint256",
          "name": "salePrice",
          "type": "uint256"
        }
      ],
      "name": "royaltyInfo",
      "outputs": [
        {
          "internalType": "address",
          "name": "",
          "type": "address"
        },
        {
          "internalType": "uint256",
          "name": "",
          "type": "uint256"
        }
      ],
      "stateMutability": "view",
      "type": "function"
    },
    {
      "inputs": [
        {
          "internalType": "uint16",
          "name": "defaultRoyaltyBPS",
          "type": "uint16"
        }
      ],
      "name": "setRoyalty",
      "outputs": [],
      "stateMutability": "nonpayable",
      "type": "function"
    },
    {
      "inputs": [
        {
          "internalType": "bytes4",
          "name": "interfaceId",
          "type": "bytes4"
        }
      ],
      "name": "supportsInterface",
      "outputs": [
        {
          "internalType": "bool",
          "name": "",
          "type": "bool"
        }
      ],
      "stateMutability": "view",
      "type": "function"
    }
  ],
  "bytecode": {
    "object": "0x604060808152346101fa576104b5908138038061001b81610233565b93843982016060838203126101fa5761003383610258565b6020848101516001600160401b0395929492908681116101fa5781019380601f860112156101fa57845196871161021d5760059487861b908480610078818501610233565b809b815201928201019283116101fa579084808795949301915b8383106101ff575050505001516001600160a01b038116908190036101fa577ff298352fd56f58214bf2245c2b202523f72fca3199077ce992640958228b2820805461ffff1990811661ffff978816179091557ff298352fd56f58214bf2245c2b202523f72fca3199077ce992640958228b282280546001600160a01b0319169092179091559360005b865160ff821690811015610195578284611fe084891b168a01015116906000527ff298352fd56f58214bf2245c2b202523f72fca3199077ce992640958228b281f845284600020908782541617905560ff80911690811461017f5760010161011c565b634e487b7160e01b600052601160045260246000fd5b847ffc606c433378e3a7e0a6a531deac289b66caa1b4aa8554fd4ab2c6f1570f92d8856301ffc9a760e01b600052528060002060ff199060018282541617905563152a902d60e11b600052600182600020918254161790555161024d90816102688239f35b600080fd5b829394955061020e8293610258565b81520191018486949392610092565b634e487b7160e01b600052604160045260246000fd5b6040519190601f01601f191682016001600160401b0381118382101761021d57604052565b519061ffff821682036101fa5756fe6080604090808252600436101561001557600080fd5b600091823560e01c91826301ffc9a7146101b4575081632a55205a1461009b57506336e79a5a1461004557600080fd5b346100985760203660031901126100985760043561ffff8116809103610094577ff298352fd56f58214bf2245c2b202523f72fca3199077ce992640958228b28209061ffff1982541617905580f35b5080fd5b80fd5b823461009857816003193601126100985760243560043582527ff298352fd56f58214bf2245c2b202523f72fca3199077ce992640958228b281f60205261ffff808484205416801561018a575b7ff298352fd56f58214bf2245c2b202523f72fca3199077ce992640958228b2821602052848420546001600160a01b03908116949092909116841561015f575b83810293818504149015171561014b575083519216825261271090046020820152f35b634e487b7160e01b81526011600452602490fd5b7ff298352fd56f58214bf2245c2b202523f72fca3199077ce992640958228b28225483169450610128565b50807ff298352fd56f58214bf2245c2b202523f72fca3199077ce992640958228b282054166100e8565b9150346102135760203660031901126102135760043563ffffffff60e01b811680910361020f5783527ffc606c433378e3a7e0a6a531deac289b66caa1b4aa8554fd4ab2c6f1570f92d8602090815292205460ff1615158152f35b8380fd5b8280fdfea2646970667358221220d69f529598a2f71071557842b45fabac1654a25fb66242b4a5b7ef54c9f730b364736f6c63430008130033",
    "linkReferences": {}
  },
  "methodIdentifiers": {
    "royaltyInfo(uint256,uint256)": "2a55205a",
    "setRoyalty(uint16)": "36e79a5a",
    "supportsInterface(bytes4)": "01ffc9a7"
  },
  "id": 459
}