{
  "abi": [
    {
      "inputs": [],
      "stateMutability": "nonpayable",
      "type": "constructor"
    },
    {
      "inputs": [],
      "name": "callback",
      "outputs": [],
      "stateMutability": "nonpayable",
      "type": "function"
    },
    {
      "inputs": [
        {
          "internalType": "contract ReentrancyAttack",
          "name": "attacker",
          "type": "address"
        }
      ],
      "name": "countAndCall",
      "outputs": [],
      "stateMutability": "nonpayable",
      "type": "function"
    },
    {
      "inputs": [
        {
          "internalType": "uint256",
          "name": "n",
          "type": "uint256"
        }
      ],
      "name": "countLocalRecursive",
      "outputs": [],
      "stateMutability": "nonpayable",
      "type": "function"
    },
    {
      "inputs": [
        {
          "internalType": "uint256",
          "name": "n",
          "type": "uint256"
        }
      ],
      "name": "countThisRecursive",
      "outputs": [],
      "stateMutability": "nonpayable",
      "type": "function"
    },
    {
      "inputs": [],
      "name": "counter",
      "outputs": [
        {
          "internalType": "uint256",
          "name": "",
          "type": "uint256"
        }
      ],
      "stateMutability": "view",
      "type": "function"
    },
    {
      "inputs": [],
      "name": "guardedCheckEntered",
      "outputs": [],
      "stateMutability": "nonpayable",
      "type": "function"
    },
    {
      "inputs": [],
      "name": "unguardedCheckNotEntered",
      "outputs": [],
      "stateMutability": "view",
      "type": "function"
    }
  ],
  "bytecode": {
    "object": "0x60808060405234610020576001600055600060015561044d90816100268239f35b600080fdfe60406080815260048036101561001457600080fd5b600091823560e01c918263083b27321461033757826361bc221a146103145782638c5344fa146101d557826396ffa69014610172579083918363a408f31214610149578363b672ad8b146100935750505063cecc95a71461007457600080fd5b3461009057806003193601126100905760028154146100905780f35b80fd5b829350346101455760203660031901126101455780356001600160a01b03811690819003610140576100c36103c1565b6100cb6103ae565b803b15610140578251630a2df1ed60e01b815263041d939960e11b8382015293908490602490829084905af180156101365761010a575b836001815580f35b67ffffffffffffffff8311610123575052818080610102565b634e487b7160e01b845260419052602483fd5b82513d86823e3d90fd5b505050fd5b5050fd5b82346100905780600319360112610090576101626103c1565b6002815403610090576001815580f35b833461009057602036600319011261009057813561018e6103c1565b8061019c575b506001815580f35b6101a46103ae565b60001981019081116101c2576101bb91925061035f565b8082610194565b506011602492634e487b7160e01b835252fd5b915034610310576020366003190112610310578135906101f36103c1565b8161020057836001815580f35b6102086103ae565b60001982019182116102fd57805160208101634629a27d60e11b815260249384830152838252606082019167ffffffffffffffff92818110848211176102d357845251869182919082305af1903d156102f7573d8181116102e557835191601f8201601f19908116603f01168301908111838210176102d357845281528560203d92013e5b61010257606492916020601b92519362461bcd60e51b85528401528201527f5265656e7472616e63794d6f636b3a206661696c65642063616c6c00000000006044820152fd5b634e487b7160e01b8852604187528588fd5b634e487b7160e01b8752604186528487fd5b5061028d565b634e487b7160e01b845260118352602484fd5b8280fd5b8382346103335781600319360112610333576020906001549051908152f35b5080fd5b83346100905780600319360112610090576103506103c1565b6103586103ae565b6001815580f35b6103676103c1565b80610375575b506001600055565b61037d6103ae565b6000198101908111610398576103929061035f565b3861036d565b634e487b7160e01b600052601160045260246000fd5b6001546001810180911161039857600155565b6002600054146103d2576002600055565b60405162461bcd60e51b815260206004820152601f60248201527f5265656e7472616e637947756172643a207265656e7472616e742063616c6c006044820152606490fdfea2646970667358221220b004f2a8f6b9643157c39c093a7eb564489deeeda8e45ed59856db012d7c262f64736f6c63430008130033",
    "linkReferences": {}
  },
  "methodIdentifiers": {
    "callback()": "083b2732",
    "countAndCall(address)": "b672ad8b",
    "countLocalRecursive(uint256)": "96ffa690",
    "countThisRecursive(uint256)": "8c5344fa",
    "counter()": "61bc221a",
    "guardedCheckEntered()": "a408f312",
    "unguardedCheckNotEntered()": "cecc95a7"
  },
  "id": 68
}