{
  "abi": [
    {
      "inputs": [],
      "stateMutability": "nonpayable",
      "type": "constructor"
    },
    {
      "inputs": [],
      "name": "ERC1155Base__ArrayLengthMismatch",
      "type": "error"
    },
    {
      "inputs": [],
      "name": "ERC1155Base__BalanceQueryZeroAddress",
      "type": "error"
    },
    {
      "inputs": [],
      "name": "ERC1155Base__BurnExceedsBalance",
      "type": "error"
    },
    {
      "inputs": [],
      "name": "ERC1155Base__BurnFromZeroAddress",
      "type": "error"
    },
    {
      "inputs": [],
      "name": "ERC1155Base__ERC1155ReceiverNotImplemented",
      "type": "error"
    },
    {
      "inputs": [],
      "name": "ERC1155Base__ERC1155ReceiverRejected",
      "type": "error"
    },
    {
      "inputs": [],
      "name": "ERC1155Base__MintToZeroAddress",
      "type": "error"
    },
    {
      "inputs": [],
      "name": "ERC1155Base__NotOwnerOrApproved",
      "type": "error"
    },
    {
      "inputs": [],
      "name": "ERC1155Base__SelfApproval",
      "type": "error"
    },
    {
      "inputs": [],
      "name": "ERC1155Base__TransferExceedsBalance",
      "type": "error"
    },
    {
      "inputs": [],
      "name": "ERC1155Base__TransferToZeroAddress",
      "type": "error"
    },
    {
      "inputs": [],
      "name": "ERC165Base__InvalidInterfaceId",
      "type": "error"
    },
    {
      "inputs": [],
      "name": "EnumerableSet__IndexOutOfBounds",
      "type": "error"
    },
    {
      "anonymous": false,
      "inputs": [
        {
          "indexed": true,
          "internalType": "address",
          "name": "account",
          "type": "address"
        },
        {
          "indexed": true,
          "internalType": "address",
          "name": "operator",
          "type": "address"
        },
        {
          "indexed": false,
          "internalType": "bool",
          "name": "approved",
          "type": "bool"
        }
      ],
      "name": "ApprovalForAll",
      "type": "event"
    },
    {
      "anonymous": false,
      "inputs": [
        {
          "indexed": true,
          "internalType": "address",
          "name": "operator",
          "type": "address"
        },
        {
          "indexed": true,
          "internalType": "address",
          "name": "from",
          "type": "address"
        },
        {
          "indexed": true,
          "internalType": "address",
          "name": "to",
          "type": "address"
        },
        {
          "indexed": false,
          "internalType": "uint256[]",
          "name": "ids",
          "type": "uint256[]"
        },
        {
          "indexed": false,
          "internalType": "uint256[]",
          "name": "values",
          "type": "uint256[]"
        }
      ],
      "name": "TransferBatch",
      "type": "event"
    },
    {
      "anonymous": false,
      "inputs": [
        {
          "indexed": true,
          "internalType": "address",
          "name": "operator",
          "type": "address"
        },
        {
          "indexed": true,
          "internalType": "address",
          "name": "from",
          "type": "address"
        },
        {
          "indexed": true,
          "internalType": "address",
          "name": "to",
          "type": "address"
        },
        {
          "indexed": false,
          "internalType": "uint256",
          "name": "id",
          "type": "uint256"
        },
        {
          "indexed": false,
          "internalType": "uint256",
          "name": "value",
          "type": "uint256"
        }
      ],
      "name": "TransferSingle",
      "type": "event"
    },
    {
      "anonymous": false,
      "inputs": [
        {
          "indexed": false,
          "internalType": "string",
          "name": "value",
          "type": "string"
        },
        {
          "indexed": true,
          "internalType": "uint256",
          "name": "tokenId",
          "type": "uint256"
        }
      ],
      "name": "URI",
      "type": "event"
    },
    {
      "inputs": [
        {
          "internalType": "address",
          "name": "account",
          "type": "address"
        },
        {
          "internalType": "uint256",
          "name": "id",
          "type": "uint256"
        },
        {
          "internalType": "uint256",
          "name": "amount",
          "type": "uint256"
        }
      ],
      "name": "__burn",
      "outputs": [],
      "stateMutability": "nonpayable",
      "type": "function"
    },
    {
      "inputs": [
        {
          "internalType": "address",
          "name": "account",
          "type": "address"
        },
        {
          "internalType": "uint256",
          "name": "id",
          "type": "uint256"
        },
        {
          "internalType": "uint256",
          "name": "amount",
          "type": "uint256"
        }
      ],
      "name": "__mint",
      "outputs": [],
      "stateMutability": "nonpayable",
      "type": "function"
    },
    {
      "inputs": [
        {
          "internalType": "uint256",
          "name": "id",
          "type": "uint256"
        }
      ],
      "name": "accountsByToken",
      "outputs": [
        {
          "internalType": "address[]",
          "name": "",
          "type": "address[]"
        }
      ],
      "stateMutability": "view",
      "type": "function"
    },
    {
      "inputs": [
        {
          "internalType": "address",
          "name": "account",
          "type": "address"
        },
        {
          "internalType": "uint256",
          "name": "id",
          "type": "uint256"
        }
      ],
      "name": "balanceOf",
      "outputs": [
        {
          "internalType": "uint256",
          "name": "",
          "type": "uint256"
        }
      ],
      "stateMutability": "view",
      "type": "function"
    },
    {
      "inputs": [
        {
          "internalType": "address[]",
          "name": "accounts",
          "type": "address[]"
        },
        {
          "internalType": "uint256[]",
          "name": "ids",
          "type": "uint256[]"
        }
      ],
      "name": "balanceOfBatch",
      "outputs": [
        {
          "internalType": "uint256[]",
          "name": "",
          "type": "uint256[]"
        }
      ],
      "stateMutability": "view",
      "type": "function"
    },
    {
      "inputs": [
        {
          "internalType": "address",
          "name": "account",
          "type": "address"
        },
        {
          "internalType": "address",
          "name": "operator",
          "type": "address"
        }
      ],
      "name": "isApprovedForAll",
      "outputs": [
        {
          "internalType": "bool",
          "name": "",
          "type": "bool"
        }
      ],
      "stateMutability": "view",
      "type": "function"
    },
    {
      "inputs": [
        {
          "internalType": "address",
          "name": "from",
          "type": "address"
        },
        {
          "internalType": "address",
          "name": "to",
          "type": "address"
        },
        {
          "internalType": "uint256[]",
          "name": "ids",
          "type": "uint256[]"
        },
        {
          "internalType": "uint256[]",
          "name": "amounts",
          "type": "uint256[]"
        },
        {
          "internalType": "bytes",
          "name": "data",
          "type": "bytes"
        }
      ],
      "name": "safeBatchTransferFrom",
      "outputs": [],
      "stateMutability": "nonpayable",
      "type": "function"
    },
    {
      "inputs": [
        {
          "internalType": "address",
          "name": "from",
          "type": "address"
        },
        {
          "internalType": "address",
          "name": "to",
          "type": "address"
        },
        {
          "internalType": "uint256",
          "name": "id",
          "type": "uint256"
        },
        {
          "internalType": "uint256",
          "name": "amount",
          "type": "uint256"
        },
        {
          "internalType": "bytes",
          "name": "data",
          "type": "bytes"
        }
      ],
      "name": "safeTransferFrom",
      "outputs": [],
      "stateMutability": "nonpayable",
      "type": "function"
    },
    {
      "inputs": [
        {
          "internalType": "address",
          "name": "operator",
          "type": "address"
        },
        {
          "internalType": "bool",
          "name": "status",
          "type": "bool"
        }
      ],
      "name": "setApprovalForAll",
      "outputs": [],
      "stateMutability": "nonpayable",
      "type": "function"
    },
    {
      "inputs": [
        {
          "internalType": "bytes4",
          "name": "interfaceId",
          "type": "bytes4"
        }
      ],
      "name": "supportsInterface",
      "outputs": [
        {
          "internalType": "bool",
          "name": "",
          "type": "bool"
        }
      ],
      "stateMutability": "view",
      "type": "function"
    },
    {
      "inputs": [
        {
          "internalType": "address",
          "name": "account",
          "type": "address"
        }
      ],
      "name": "tokensByAccount",
      "outputs": [
        {
          "internalType": "uint256[]",
          "name": "",
          "type": "uint256[]"
        }
      ],
      "stateMutability": "view",
      "type": "function"
    },
    {
      "inputs": [
        {
          "internalType": "uint256",
          "name": "id",
          "type": "uint256"
        }
      ],
      "name": "totalHolders",
      "outputs": [
        {
          "internalType": "uint256",
          "name": "",
          "type": "uint256"
        }
      ],
      "stateMutability": "view",
      "type": "function"
    },
    {
      "inputs": [
        {
          "internalType": "uint256",
          "name": "id",
          "type": "uint256"
        }
      ],
      "name": "totalSupply",
      "outputs": [
        {
          "internalType": "uint256",
          "name": "",
          "type": "uint256"
        }
      ],
      "stateMutability": "view",
      "type": "function"
    },
    {
      "inputs": [
        {
          "internalType": "uint256",
          "name": "tokenId",
          "type": "uint256"
        }
      ],
      "name": "uri",
      "outputs": [
        {
          "internalType": "string",
          "name": "",
          "type": "string"
        }
      ],
      "stateMutability": "view",
      "type": "function"
    }
  ],
  "bytecode": {
    "object": "0x608080604052346100a0577ffc606c433378e3a7e0a6a531deac289b66caa1b4aa8554fd4ab2c6f1570f92d86020527f3df35b507c5de77f483b4e9b5c258409299a2e6dc816fa76a389e598628b08a58054600160ff199182168117909255636cdb3d1360e11b6000527fc4fa7de3a4df0d92e714265b62d48380cee39dd7653eba0d3265c599c330a3aa80549091169091179055611b1d90816100a68239f35b600080fdfe6080604052600436101561001257600080fd5b60003560e01c8062fdd58e1461114257806301ffc9a7146110e15780630e89341c146110ae57806313ba55df146110755780632eb2c2d614610c4e5780634e1273f414610adf5780636dcfd84114610a0257806372b0589c1461084357806385bff2e7146107d4578063a22cb4651461073a578063bd85b03914610701578063c12e5c6814610522578063e985e9c5146104d45763f242432a146100b557600080fd5b346104cf5760a03660031901126104cf576100ce611171565b6100d6611187565b9060843567ffffffffffffffff81116104cf576100f79036906004016112e7565b916001600160a01b0390828216331415806104af575b61049e578181161561048c576101246044356114b7565b61012f6064356114b7565b83831684861603610331575b5050604435600052600080516020611ac88339815191529360209480865260406000208486166000528652604060002054806064351161031f5760443560005281875260406000208587166000528752606435900360406000205560443560005285526040600020838316600052855260406000206101bd6064358254611494565b905560405160443581526064358682015283831690848616907fc3d58168c5ae7397731d063d5bbf3d657854427343f4c083240f7aacaa2d0f6260403392a4813b61020457005b849161024f9160006040519586809581948363f23a6e6160e01b9b8c85523360048601521660248401526044356044840152606435606484015260a0608484015260a48301906111c0565b0393165af1600091816102f0575b506102cd57505060019061026f6114fc565b6308c379a014610294575b50610282575b005b60405163380147a960e01b8152600490fd5b61029c61151a565b90816102a8575061027a565b6102c960405192839262461bcd60e51b8452600484015260248301906111c0565b0390fd5b6001600160e01b03191614905061028057604051633744db2960e01b8152600490fd5b610311919250843d8611610318575b6103098183611233565b8101906114dc565b903861025d565b503d6102ff565b60405163119ac6bb60e31b8152600490fd5b61033f859695949294611421565b9261034981611421565b9160005b865181101561047b5780610363600192846113be565b5180610371575b500161034d565b61037b828a6113be565b51818c828a821661043657915050600052600080516020611a8883398151915260205260406000206103ae838254611494565b90555b8588166103e657600052600080516020611a888339815191526020526103dd60406000209182546115d3565b90555b3861036a565b90506103f2818661145a565b156103fe575b506103e0565b8061042f91600052600080516020611aa883398151915260205261042888871660406000206115e0565b50866115e0565b50386103f8565b61043f9161145a565b036103b15780600052600080516020611aa883398151915260205261046a888d166040600020611677565b50610475818a611677565b506103b1565b50509250509150929192388061013b565b60405163f5cadad560e01b8152600490fd5b6040516212efed60e91b8152600490fd5b506104b9836113e8565b3360005260205260ff604060002054161561010d565b600080fd5b346104cf5760403660031901126104cf576104ed611171565b6104fe6104f8611187565b916113e8565b9060018060a01b0316600052602052602060ff604060002054166040519015158152f35b346104cf5761053036611362565b90916001600160a01b03811680156106ef5761054b846114b7565b90610555846114b7565b926000604051610564816111e5565b5261056e81611421565b93600080526020967fb31c2c74f86ca3ce94d901f5f5bbe66f7161eec2f7b5aa0b75a86371436424ec885260005b855181101561066857806105b2600192856113be565b51806105c0575b500161059c565b6105ca82896113be565b51876106245780600052600080516020611a888339815191528c5260406000206105f5838254611494565b90555b600052600080516020611a888339815191528b5261061c60406000209182546115d3565b90558a6105b9565b8161062f828961145a565b036105f85780600052600080516020611aa88339815191528c52610657886040600020611677565b50610662818b611677565b506105f8565b8885838a81600052600080516020611ac883398151915284526040600020938360005284815260406000205482116106dd576000948486528152604085208281540390556040519283528201527fc3d58168c5ae7397731d063d5bbf3d657854427343f4c083240f7aacaa2d0f6260403392a4005b604051634190713d60e01b8152600490fd5b60405163baa75df760e01b8152600490fd5b346104cf5760203660031901126104cf57600435600052600080516020611a888339815191526020526020604060002054604051908152f35b346104cf5760403660031901126104cf57610753611171565b602435908115158092036104cf576001600160a01b0316903382146107c25761077b336113e8565b82600052602052604060002060ff1981541660ff83161790556040519081527f17307eab39ab6107e8899845ad3d59bd9653f200f220920489ca2b5937696c3160203392a3005b604051637b30a93360e11b8152600490fd5b346104cf5760203660031901126104cf576107f56107f0611171565b611421565b80546108008161138c565b9160005b82811061082557604051602080825281906108219082018761132e565b0390f35b80610832600192846115a4565b61083c82876113be565b5201610804565b346104cf5761085136611362565b90916000604051610861816111e5565b526001600160a01b03811692831590816109f05761087e816114b7565b92610888856114b7565b95600080526020927fb31c2c74f86ca3ce94d901f5f5bbe66f7161eec2f7b5aa0b75a86371436424ec84526108bc83611421565b9060005b875181101561098b57806108d66001928c6113be565b51806108e4575b50016108c0565b6108ee828b6113be565b5180600052600080516020611a8883398151915290818a526040600020610916848254611494565b90558a1561093c57600052885261093360406000209182546115d3565b90555b8b6108dd565b80925061094a91508861145a565b15610956575b50610936565b8061098491600052600080516020611aa8833981519152895261097d8760406000206115e0565b50856115e0565b508b610950565b836000838b89828452600080516020611ac88339815191528152604084208585528152604084206109bd838254611494565b90556040519283528201527fc3d58168c5ae7397731d063d5bbf3d657854427343f4c083240f7aacaa2d0f6260403392a4005b6040516301c8efbf60e11b8152600490fd5b346104cf576020806003193601126104cf57600435600052600080516020611aa8833981519152815260406000208054610a3b81611255565b90610a496040519283611233565b808252610a5581611255565b8285019390601f190136853760005b828110610ab85750505090604051928392818401908285525180915260408401929160005b828110610a9857505050500390f35b83516001600160a01b031685528695509381019392810192600101610a89565b6001906001600160a01b03610acd82856115a4565b16610ad882876113be565b5201610a64565b346104cf5760403660031901126104cf5760043567ffffffffffffffff8082116104cf57366023830112156104cf57816004013590610b1d82611255565b92610b2b6040519485611233565b82845260209260248486019160051b830101913683116104cf57602401905b828210610c2f575050506024359081116104cf57610b6c90369060040161126d565b918051835103610c1d57610b80815161138c565b9060005b8151811015610c0a576001600160a01b039081610ba182856113be565b511615610bf857600191610bb582886113be565b51600052600080516020611ac88339815191528652604060002090610bda83866113be565b51166000528552604060002054610bf182866113be565b5201610b84565b60405163db5d879760e01b8152600490fd5b604051848152806108218187018661132e565b604051633e7e0b6d60e11b8152600490fd5b81356001600160a01b03811681036104cf578152908401908401610b4a565b346104cf5760031960a0368201126104cf57610c68611171565b610c70611187565b67ffffffffffffffff926044358481116104cf57610c9290369060040161126d565b6064358581116104cf57610caa90369060040161126d565b946084359081116104cf57610cc39036906004016112e7565b6001600160a01b038581169391903385141580611055575b61049e578516958615908161048c578451895103610c1d57878603610efe575b50506000945b8351861015610d9a57610d1486856113be565b5195610d20818a6113be565b519087600052600080516020611ac883398151915260209181835260406000208960005283526040600020549081851161031f57846001928c60005284865260406000208c600052865203604060002055019860005281526040600020908960005252610d936040600020918254611494565b9055610d01565b8685949289928287604051604081527f4a39dc06d4c0dbc64b70af90fd698a233a518aa5d07e595d983b8c0526c8f7fb610dd7604083018a61132e565b91808303602082015280610dec33948b61132e565b0390a43b610df657005b6000602094610e57610e4897610e3894604051998a988997889663bc197c8160e01b9e8f89523360048a0152602489015260a0604489015260a488019061132e565b908487830301606488015261132e565b918483030160848501526111c0565b03925af160009181610ede575b50610ebd5750506001610e756114fc565b6308c379a014610e86575b61028257005b610e8e61151a565b80610e995750610e80565b60405162461bcd60e51b8152602060048201529081906102c99060248301906111c0565b6001600160e01b0319161461028057604051633744db2960e01b8152600490fd5b610ef791925060203d8111610318576103098183611233565b9083610e64565b610f1081989692939897949597611421565b610f1985611421565b9560005b8b8a518210156110425790610f34816001936113be565b5180610f42575b5001610f1d565b610f4c828d6113be565b5187610ffd5780600052600080516020611a888339815191526020526040600020610f78838254611494565b90555b8815610faf57600052600080516020611a88833981519152602052610fa660406000209182546115d3565b90555b8d610f3b565b9050610fbb818a61145a565b15610fc7575b50610fa9565b80610ff691600052600080516020611aa8833981519152602052610fef8c60406000206115e0565b508a6115e0565b508d610fc1565b81611008828961145a565b03610f7b5780600052600080516020611aa8833981519152602052611031886040600020611677565b5061103c8187611677565b50610f7b565b5050949795505050939590508780610cfb565b5061105f876113e8565b3360005260205260ff6040600020541615610cdb565b346104cf5760203660031901126104cf57600435600052600080516020611aa88339815191526020526020604060002054604051908152f35b346104cf5760203660031901126104cf576108216110cd600435611728565b6040519182916020835260208301906111c0565b346104cf5760203660031901126104cf5760043563ffffffff60e01b81168091036104cf576000527ffc606c433378e3a7e0a6a531deac289b66caa1b4aa8554fd4ab2c6f1570f92d8602052602060ff604060002054166040519015158152f35b346104cf5760403660031901126104cf576020611169611160611171565b6024359061145a565b604051908152f35b600435906001600160a01b03821682036104cf57565b602435906001600160a01b03821682036104cf57565b60005b8381106111b05750506000910152565b81810151838201526020016111a0565b906020916111d98151809281855285808601910161119d565b601f01601f1916010190565b6020810190811067ffffffffffffffff82111761120157604052565b634e487b7160e01b600052604160045260246000fd5b6040810190811067ffffffffffffffff82111761120157604052565b90601f8019910116810190811067ffffffffffffffff82111761120157604052565b67ffffffffffffffff81116112015760051b60200190565b81601f820112156104cf5780359161128483611255565b926112926040519485611233565b808452602092838086019260051b8201019283116104cf578301905b8282106112bc575050505090565b813581529083019083016112ae565b67ffffffffffffffff811161120157601f01601f191660200190565b81601f820112156104cf578035906112fe826112cb565b9261130c6040519485611233565b828452602083830101116104cf57816000926020809301838601378301015290565b90815180825260208080930193019160005b82811061134e575050505090565b835185529381019392810192600101611340565b60609060031901126104cf576004356001600160a01b03811681036104cf57906024359060443590565b9061139682611255565b6113a36040519182611233565b82815280926113b4601f1991611255565b0190602036910137565b80518210156113d25760209160051b010190565b634e487b7160e01b600052603260045260246000fd5b6001600160a01b031660009081527f1799cf914cb0cb442ca7c7ac709ee40d0cb89e87351dc08d517fbda27d50c68c6020526040902090565b6001600160a01b031660009081527fb31c2c74f86ca3ce94d901f5f5bbe66f7161eec2f7b5aa0b75a86371436424ec6020526040902090565b6001600160a01b0316908115610bf857600052600080516020611ac883398151915260205260406000209060005260205260406000205490565b919082018092116114a157565b634e487b7160e01b600052601160045260246000fd5b604051906114c482611217565b600182526020820160203682378251156113d2575290565b908160209103126104cf57516001600160e01b0319811681036104cf5790565b60009060033d1161150957565b905060046000803e60005160e01c90565b600060443d1061157857604051600319913d83016004833e815167ffffffffffffffff918282113d60248401111761157b57818401948551938411611583573d8501016020848701011161157b575061157892910160200190611233565b90565b949350505050565b50949350505050565b80548210156113d25760005260206000200190600090565b9081548110156115c1576115b79161158c565b90549060031b1c90565b60405163e637bf3b60e01b8152600490fd5b919082039182116114a157565b91909160009260006001830182825280602052604082205415611604575b50505050565b909192809550549468010000000000000000861015611663578361164c611635886001604098999a0185558461158c565b819391549060031b91821b91600019901b19161790565b9055549382526020522055600190388080806115fe565b634e487b7160e01b83526041600452602483fd5b91906000926000916001820191818452826020526040842054908161169e575b5050505050565b90919293949550600019916116b6838354018361158c565b90549060031b1c806116cd6116358685018661158c565b9055865284602052604086205580548015611714578201916116ef838361158c565b909182549160031b1b1916905555825260205260408120556001903880808080611697565b634e487b7160e01b86526031600452602486fd5b6000908082526020907f4281b61aefbe70b3d3f684b428efca5f33077bc240e76f2808f9177c307617f582526040832060405193809282549260019484861c918686169586156119b4575b88841087146119a057838a52888a01968a9392918a908215611982575050600114611944575b506117a692500387611233565b60405193827f4281b61aefbe70b3d3f684b428efca5f33077bc240e76f2808f9177c307617f49182549485821c9382871696871561193a575b8a8610881461192657858a528a8a01978a95949392918c9082156119045750506001146118ab575b50505061181692500385611233565b835161182457505050505090565b859293949551151560001461186f575091611578939161186361185496946040519788955180928888019061119d565b8401915180938684019061119d565b01038084520182611233565b611897959350611578949250611884906119be565b906040519586935180928686019061119d565b82016118638251809386808501910161119d565b8152899250907f0d8e6ea8b1f8faf40277fd5ec504900241304ad48b0fd05b7ebcd421842ca6b95b8583106118ec5750506118169350820101388080611807565b8054838b018501528994508a939092019181016118d3565b93509450505061181694915060ff19168652151560051b820101388080611807565b634e487b7160e01b83526022600452602483fd5b94607f16946117df565b915050835286868085208786915b8583106119695750506117a6935082010138611799565b80919294505483858d0101520191018790878a93611952565b60ff191689526117a695151560051b85010192503891506117999050565b634e487b7160e01b86526022600452602486fd5b92607f1692611773565b8015611a6957600081805b611a5157506119d7816112cb565b906119e56040519283611233565b808252601f196119f4826112cb565b013660208401375b80928015611a4a5760001982019182116114a1578193600a9260309084840682018092116114a157855111156113d25760f81b6001600160f81b03191660001a908401601f015304916119fc565b5050905090565b9060001981146114a1576001600a91019104806119c9565b50604051611a7681611217565b60018152600360fc1b60208201529056feb31c2c74f86ca3ce94d901f5f5bbe66f7161eec2f7b5aa0b75a86371436424eab31c2c74f86ca3ce94d901f5f5bbe66f7161eec2f7b5aa0b75a86371436424eb1799cf914cb0cb442ca7c7ac709ee40d0cb89e87351dc08d517fbda27d50c68ba26469706673582212204c724f76b3bf40f71fa9b1131919f1e909881942fc5b1b0075382b8023bb86da64736f6c63430008130033",
    "linkReferences": {}
  },
  "methodIdentifiers": {
    "__burn(address,uint256,uint256)": "c12e5c68",
    "__mint(address,uint256,uint256)": "72b0589c",
    "accountsByToken(uint256)": "6dcfd841",
    "balanceOf(address,uint256)": "00fdd58e",
    "balanceOfBatch(address[],uint256[])": "4e1273f4",
    "isApprovedForAll(address,address)": "e985e9c5",
    "safeBatchTransferFrom(address,address,uint256[],uint256[],bytes)": "2eb2c2d6",
    "safeTransferFrom(address,address,uint256,uint256,bytes)": "f242432a",
    "setApprovalForAll(address,bool)": "a22cb465",
    "supportsInterface(bytes4)": "01ffc9a7",
    "tokensByAccount(address)": "85bff2e7",
    "totalHolders(uint256)": "13ba55df",
    "totalSupply(uint256)": "bd85b039",
    "uri(uint256)": "0e89341c"
  },
  "id": 416
}