{
  "abi": [
    {
      "inputs": [
        {
          "internalType": "uint256[2]",
          "name": "a",
          "type": "uint256[2]"
        },
        {
          "internalType": "uint256[2][2]",
          "name": "b",
          "type": "uint256[2][2]"
        },
        {
          "internalType": "uint256[2]",
          "name": "c",
          "type": "uint256[2]"
        },
        {
          "internalType": "uint256[9]",
          "name": "input",
          "type": "uint256[9]"
        }
      ],
      "name": "verifyProof",
      "outputs": [
        {
          "internalType": "bool",
          "name": "r",
          "type": "bool"
        }
      ],
      "stateMutability": "view",
      "type": "function"
    }
  ],
  "bytecode": {
    "object": "0x608080604052346100165761132f908161001c8239f35b600080fdfe604060808152600436101561001357600080fd5b6000803560e01c63c542c93b1461002957600080fd5b346100be576102203660031901126100be576100443661011c565b9036606312156100be576100566100d7565b908160c4913683116100be57506044905b8282106100a5576100a18661009087876100803661015e565b9061008a366101dc565b92610474565b905190151581529081906020820190565b0390f35b602086916100b3368561019c565b815201910190610067565b80fd5b634e487b7160e01b600052604160045260246000fd5b604051906040820182811067ffffffffffffffff8211176100f757604052565b6100c1565b6040519060a0820182811067ffffffffffffffff8211176100f757604052565b80602312156101595761012d6100d7565b90816044918211610159576004905b8282106101495750505090565b813581526020918201910161013c565b600080fd5b8060e312156101595761016f6100d7565b90816101049182116101595760c4905b82821061018c5750505090565b813581526020918201910161017f565b9080601f83011215610159576101b06100d7565b80926040810192831161015957905b8282106101cc5750505090565b81358152602091820191016101bf565b8061012312156101595760405190610120820182811067ffffffffffffffff8211176100f7576040528161022491821161015957610104905b8282106102225750505090565b8135815260209182019101610215565b604051906020820182811067ffffffffffffffff8211176100f7576040526020368337565b61025f6100d7565b906102686100d7565b604036823782526102776100d7565b60403682376020830152565b604051906060820182811067ffffffffffffffff8211176100f757604052816102aa6100d7565b600081526000602082015281526102bf610257565b602082015260406102ce6100d7565b9160008352600060208401520152565b634e487b7160e01b600052603260045260246000fd5b67ffffffffffffffff81116100f75760051b60200190565b60405190610140820182811067ffffffffffffffff8211176100f75760405260098252610120366020840137565b90610344826102f4565b60405190601f1990601f018116820167ffffffffffffffff8111838210176100f75760405283825261037682946102f4565b0190602036910137565b634e487b7160e01b600052601160045260246000fd5b60001981146103a55760010190565b610380565b9060098110156103bb5760051b0190565b6102de565b8051156103bb5760200190565b8051600110156103bb5760400190565b8051600210156103bb5760600190565b8051600310156103bb5760800190565b8051600410156103bb5760a00190565b8051600510156103bb5760c00190565b8051600610156103bb5760e00190565b8051600710156103bb576101000190565b8051600810156103bb576101200190565b8051600910156103bb576101400190565b80518210156103bb5760209160051b010190565b92919092610480610283565b9381516020809301516104916100d7565b9182528382015285526104a26100d7565b9080515182526104b3815160200190565b51838301526104d2836104c46100d7565b920180515183525160200190565b51838201526104df6100d7565b9182528282015281850152808251920151906104f96100d7565b928352820152604083015261050c61030c565b9060005b600981106105325750509061052491610629565b61052d57600190565b600090565b8061054061055192846103aa565b5161054b8286610460565b52610396565b610510565b90600182018092116103a557565b90600282018092116103a557565b90600382018092116103a557565b90600482018092116103a557565b90600582018092116103a557565b156105a357565b60405162461bcd60e51b81526020600482015260126024820152711d995c9a599a595c8b5898590b5a5b9c1d5d60721b6044820152606490fd5b156105e457565b60405162461bcd60e51b815260206004820152601f60248201527f76657269666965722d6774652d736e61726b2d7363616c61722d6669656c64006044820152606490fd5b919091610634610c74565b9161063f8251610556565b9061065160808501928351511461059c565b6106596100d7565b6000815260006020820152946000955b84518710156106e9576106dd6106e3916106ae7f30644e72e131a029b85045b68181585d2833e84879b9709143e1f593f00000016106a78b8a610460565b51106105dd565b6106d76106c587516106bf8c610556565b90610460565b516106d08b8a610460565b519061083f565b906107d2565b96610396565b95610669565b61073b95929650610737945061070361070a9294516103c0565b51906107d2565b916107158151610749565b9260208201518351602085015191606060408088015196015196015196610933565b1590565b61074457600090565b600190565b600060206107556100d7565b8281520152805115806107c6575b6107af5760208151917f30644e72e131a029b85045b68181585d97816a916871ca8d3c208c16d87cfd4791829101510681039081116103a5576107a46100d7565b918252602082015290565b506107b86100d7565b600081526000602082015290565b50602081015115610763565b91906107dc6100d7565b60008152600060208201528093604051608081019181831067ffffffffffffffff8411176100f7576060946020809260c0956040526080368637805185520151828401528051604084015201518482015260066107cf195a01fa1561083d57565bfe5b91906108496100d7565b60008152600060208201528093604051606081019381851067ffffffffffffffff8611176100f7576020608093606096604052863685378051845201516020830152604082015260076107cf195a01fa1561083d57565b6108a86100fc565b6004815290600082815b608081106108bf57505050565b6020906108ca6100d7565b8481528285818301528285010152016108b2565b60405190610160820182811067ffffffffffffffff8211176100f757604052600a8252600082815b610140811061091457505050565b60209061091f6100d7565b848152828581830152828501015201610906565b979693949291956109426108a0565b9561094b6100fc565b976004895260005b60808110610a095750610a06999a61096a896103c0565b52610974886103c0565b5061097e886103cd565b52610988876103cd565b50610992876103dd565b5261099c866103dd565b506109a6866103ed565b526109b0856103ed565b506109ba866103c0565b526109c4856103c0565b506109ce856103cd565b526109d8846103cd565b506109e2846103dd565b526109ec836103dd565b506109f6836103ed565b52610a00826103ed565b50610abf565b90565b602090610a14610257565b82828d01015201610953565b15610a2757565b60405162461bcd60e51b81526020600482015260166024820152751c185a5c9a5b99cb5b195b99dd1a1ccb59985a5b195960521b6044820152606490fd5b906006820291808304600614901517156103a557565b15610a8257565b60405162461bcd60e51b81526020600482015260156024820152741c185a5c9a5b99cb5bdc18dbd9194b59985a5b1959605a1b6044820152606490fd5b610acc8151835114610a20565b8051610ad781610a65565b92610ae18461033a565b9260005b838110610b2357505050506020918291610afd610232565b93849260051b910160086107cf195a01fa801561083d57610b1d90610a7b565b51151590565b80610b31610c0d9284610460565b5151610b45610b3f83610a65565b88610460565b52610bf8602080610b568487610460565b510151610b73610b6d610b6886610a65565b610556565b8a610460565b52610b7e8387610460565b515151610b95610b6d610b9086610a65565b610564565b52610bab610ba38488610460565b515160200190565b51610bc0610b6d610bbb86610a65565b610572565b5280610bcc8488610460565b51015151610be4610b6d610bdf86610a65565b610580565b52610bef8387610460565b51015160200190565b5161054b610b3f610c0884610a65565b61058e565b610ae5565b6040519060a0820182811067ffffffffffffffff8211176100f7576040526060608083610c3d6100d7565b60008152600060208201528152610c52610257565b6020820152610c5f610257565b6040820152610c6c610257565b838201520152565b610c7c610c12565b906112f6610c886100d7565b7f13d7c88398ef42f1df7754fbba96afe6f40f2e0f13624822b6439a27ea24073a81526020907f29d34469db013c7469277cb3d550a43548f269db63eb765fc4f2694729392c72828201528452610cdd6100d7565b7f173acb72e964a2625967f8b8b4203223586d5a3d9ecf2948739075266306ed2a81527f189feeb2ec9e5c4aa8d08c6d5c2038a52b000b6fd516ca3e6af2f4d48af3728682820152610d2d6100d7565b7f16e6a702dd6c788f6c6e4d714122f5524ca6f22d164f6c052e8546394df1750881527f012b963d3c911503efd1a39882cc13c8099855c0fe98bce27a0246c121a8114f83820152610d7d6100d7565b9182528282015281850152610d906100d7565b7f198e9393920d483a7260bfb731fb5d25f1aa493335a9e71297e485b7aef312c281527f1800deef121f1e76426a00665e5c4479674322d4f75edadd46debd5cd992f6ed82820152610de06100d7565b7f090689d0585ff075ec9e99ad690c3395bc4b313370b38ef355acdadcd122975b81527f12c85ea5db8c6deb4aab71808dcb408fe3d1e7690c43d37b4ce6cc0166fa7daa83820152610e306100d7565b918252828201526040850152610e446100d7565b7f08d8bc83ef9358ebe034710d5d26f1786a636c18b7c9815d761eb2af9b6ae7cf81527f028c845bc1ef11d278054155d26ed570a1de850ce36dcf88f47ece5ddadcb8c582820152610e946100d7565b7f228f7d9a4e3d55c535ad7b9e1a4f1f2823a1f8f2f21b1450e7e3583120eadec081527f2ef4f81a5fb1d5ba46dca0b9706292e06a79d1633a23b83944390c65531db52983820152610ee46100d7565b918252828201526060850152610ef86108de565b60808501908152610f64610f0a6100d7565b7f208171a1381b4e60584a03c71b8dab55b56eda38c64e184f756066552d91418181527f2a6adae839e950cec4f2bbb8743e0e057057c921c166455b31a7a19af0bfac6b84820152825190610f5e826103c0565b526103c0565b50610fca610f706100d7565b7f21c14f0e35ee2ded1b0e9623b6ebeea6d3eab398120b99333e1c928caee2296081527f1057bd2b94f4b42ef4a780ed0a34bee96a69870b3a66107255504e594704886584820152825190610fc4826103cd565b526103cd565b50611030610fd66100d7565b7f02ca00ebf32447fd420a03b0812cd3416c747eac41fecf8196094ff46e55b33681527f0976ce94c879e1b6c87df43ae585f6addc4bc79f113d442feca4ecd55ebdfb618482015282519061102a826103dd565b526103dd565b5061109661103c6100d7565b7f2f55ea001dd3b35c3127c2716fe96c86cbf589b07b639ded7b233f96c045fec681527f161d552e6488afa6c6f85e5b57f07b39aea22db4594d08c729486b0eb6b090b284820152825190611090826103ed565b526103ed565b506110fc6110a26100d7565b7f066f480470ce6582b9ae17bf352dbb92903877949db7ceea0ff82436ab2fc42081527f14873141702f25fb4b16932f28e652f5dff443b5dfc21fd73e201e9a59cd4ebc848201528251906110f6826103fd565b526103fd565b506111626111086100d7565b7f2e622589831bba8bdb80c5dd775bb7af7363a5a13decc37f5cf0295fc2c09b1781527f14a16c4330db4313b1415930df1d46e2e3678bdef3f9c34d9afdb51b6fa00ed78482015282519061115c8261040d565b5261040d565b506111c861116e6100d7565b7f0cdb1bda870737833c73fc56d4dc5d93a216ba2b2fb8eb12a7e650e421b5314b81527f018feba95c1e908c5d8fbd956b928321c35040ff19f50bf93fa7abe8cf5f2e5c848201528251906111c28261041d565b5261041d565b5061122e6111d46100d7565b7f0192f6978d49c702e5b883e795169f18f13f929fb47c4bc48f1bb87ec31cca1081527f1a7cffb50e1a1d47c889fd0d0a8b0c03b0896158c662b2a56372fbdf33c0fd32848201528251906112288261042d565b5261042d565b5061129461123a6100d7565b7f18fcf1704b21dd2b880d86ee26d813c7f0d1ece573090e6f745b1da559ff371481527f045397b17472cb9f093a19f7f644c233c54644885577038a5b2964099df651418482015282519061128e8261043e565b5261043e565b507f15a37aff790d407f13f3475811aa6f5a0e314306a13d6fc84ac6f66c1769af716112be6100d7565b927f186fffc0ac19d0754031d8390f2eeeebb23c9292704da6003211a664c1c099b5845283015251906112f08261044f565b5261044f565b5056fea2646970667358221220375f40068bb95deb78534754ac2eb928ef3f0b363cd9b270888fdc2b93cd3a0f64736f6c63430008130033",
    "linkReferences": {}
  },
  "methodIdentifiers": {
    "verifyProof(uint256[2],uint256[2][2],uint256[2],uint256[9])": "c542c93b"
  },
  "id": 7
}