{
  "abi": [
    {
      "inputs": [
        {
          "internalType": "address",
          "name": "_collection",
          "type": "address"
        }
      ],
      "name": "isValidAviation",
      "outputs": [
        {
          "internalType": "bool",
          "name": "",
          "type": "bool"
        }
      ],
      "stateMutability": "view",
      "type": "function"
    },
    {
      "inputs": [
        {
          "internalType": "address",
          "name": "_game",
          "type": "address"
        }
      ],
      "name": "isValidGame",
      "outputs": [
        {
          "internalType": "bool",
          "name": "",
          "type": "bool"
        }
      ],
      "stateMutability": "view",
      "type": "function"
    },
    {
      "inputs": [
        {
          "internalType": "address",
          "name": "_pilot",
          "type": "address"
        }
      ],
      "name": "isValidPilot",
      "outputs": [
        {
          "internalType": "bool",
          "name": "",
          "type": "bool"
        }
      ],
      "stateMutability": "view",
      "type": "function"
    },
    {
      "inputs": [
        {
          "internalType": "address",
          "name": "_collection",
          "type": "address"
        },
        {
          "internalType": "bool",
          "name": "_isValid",
          "type": "bool"
        }
      ],
      "name": "setValidAviation",
      "outputs": [],
      "stateMutability": "nonpayable",
      "type": "function"
    },
    {
      "inputs": [
        {
          "internalType": "address",
          "name": "_game",
          "type": "address"
        },
        {
          "internalType": "bool",
          "name": "_isValid",
          "type": "bool"
        }
      ],
      "name": "setValidGame",
      "outputs": [],
      "stateMutability": "nonpayable",
      "type": "function"
    },
    {
      "inputs": [
        {
          "internalType": "address",
          "name": "_pilot",
          "type": "address"
        },
        {
          "internalType": "bool",
          "name": "_isValid",
          "type": "bool"
        }
      ],
      "name": "setValidPilot",
      "outputs": [],
      "stateMutability": "nonpayable",
      "type": "function"
    }
  ],
  "bytecode": {
    "object": "0x6080806040523461001657610439908161001c8239f35b600080fdfe604060808152600436101561001357600080fd5b600090813560e01c806352897beb146102db57806368264e5a146102805780636b92a600146101ff5780637b8fa8d81461017e578063abef623b146101185763efcfbc351461006157600080fd5b346101145761010e7f0a66deebec0fb2e88db0139ff43a6301b641af816e20c2ab30aefea792636db59161009436610351565b92909161009f610380565b6001600160a01b03831660009081527f2fd2a3d94049461da51196e56bcf344b53de42719b0adf4dbc64d04380d8c7fd602052604090206100ee9085905b9060ff801983541691151516179055565b516001600160a01b03909216825291151560208201529081906040820190565b0390a180f35b5080fd5b50346101145760203660031901126101145760209060ff61017361013a610336565b6001600160a01b031660009081527f2fd2a3d94049461da51196e56bcf344b53de42719b0adf4dbc64d04380d8c7fe6020526040902090565b541690519015158152f35b50346101145761010e7fdb6c1d0e71193745027fd18c3c9f31b4af1aca8657afaa392247e4c1408ac520916101b236610351565b9290916101bd610380565b6001600160a01b03831660009081527f2fd2a3d94049461da51196e56bcf344b53de42719b0adf4dbc64d04380d8c7fc602052604090206100ee9085906100dd565b50346101145761010e7ff11a08a186cca92fa81b4ee0718ed47758ba62f1091f62c5d66557b003bc22e49161023336610351565b92909161023e610380565b6001600160a01b03831660009081527f2fd2a3d94049461da51196e56bcf344b53de42719b0adf4dbc64d04380d8c7fe602052604090206100ee9085906100dd565b50346101145760203660031901126101145760209060ff6101736102a2610336565b6001600160a01b031660009081527f2fd2a3d94049461da51196e56bcf344b53de42719b0adf4dbc64d04380d8c7fc6020526040902090565b50346101145760203660031901126101145760209060ff6101736102fd610336565b6001600160a01b031660009081527f2fd2a3d94049461da51196e56bcf344b53de42719b0adf4dbc64d04380d8c7fd6020526040902090565b600435906001600160a01b038216820361034c57565b600080fd5b604090600319011261034c576004356001600160a01b038116810361034c5790602435801515810361034c5790565b7fc8fcad8db84d3cc18b4c41d551ea0ee66dd599cde068d998e57d5e09332c1320546001600160a01b031633036103b357565b60405162461bcd60e51b815260206004820152602260248201527f4c69624469616d6f6e643a204d75737420626520636f6e7472616374206f776e60448201526132b960f11b6064820152608490fdfea26469706673582212209800804eb212c02ceb525565fe3ede50f8657602b6a6ebe675c86f32d07a154e64736f6c63430008130033",
    "linkReferences": {}
  },
  "methodIdentifiers": {
    "isValidAviation(address)": "68264e5a",
    "isValidGame(address)": "52897beb",
    "isValidPilot(address)": "abef623b",
    "setValidAviation(address,bool)": "7b8fa8d8",
    "setValidGame(address,bool)": "efcfbc35",
    "setValidPilot(address,bool)": "6b92a600"
  },
  "id": 554
}