{
  "abi": [
    {
      "inputs": [
        {
          "internalType": "bytes32",
          "name": "hash",
          "type": "bytes32"
        }
      ],
      "stateMutability": "nonpayable",
      "type": "constructor"
    },
    {
      "inputs": [
        {
          "internalType": "bytes32",
          "name": "hash",
          "type": "bytes32"
        },
        {
          "internalType": "bytes",
          "name": "signature",
          "type": "bytes"
        }
      ],
      "name": "__isValidSignature",
      "outputs": [
        {
          "internalType": "bytes4",
          "name": "",
          "type": "bytes4"
        }
      ],
      "stateMutability": "view",
      "type": "function"
    },
    {
      "inputs": [
        {
          "internalType": "bytes32",
          "name": "hash",
          "type": "bytes32"
        },
        {
          "internalType": "bool",
          "name": "status",
          "type": "bool"
        }
      ],
      "name": "__setValidSignature",
      "outputs": [],
      "stateMutability": "nonpayable",
      "type": "function"
    },
    {
      "inputs": [
        {
          "internalType": "bytes32",
          "name": "hash",
          "type": "bytes32"
        },
        {
          "internalType": "bytes",
          "name": "signature",
          "type": "bytes"
        }
      ],
      "name": "isValidSignature",
      "outputs": [
        {
          "internalType": "bytes4",
          "name": "",
          "type": "bytes4"
        }
      ],
      "stateMutability": "view",
      "type": "function"
    }
  ],
  "bytecode": {
    "object": "0x60803461008557601f61027638819003918201601f19168301916001600160401b0383118484101761008a5780849260209460405283398101031261008557516000527f2247614a8e10a8cdf7e414e8cfdd55d59e5d45963b9b0ae5cab906b23c3d0e116020526040600020600160ff198254161790556040516101d590816100a18239f35b600080fd5b634e487b7160e01b600052604160045260246000fdfe6080604052600436101561001257600080fd5b6000803560e01c90816306a7013014610045575080631626ba7e14610040576399fcfa591461004057600080fd5b6100a7565b346100a45760403660031901126100a4576024358015158091036100a05760043582527f2247614a8e10a8cdf7e414e8cfdd55d59e5d45963b9b0ae5cab906b23c3d0e11602052604082209060ff8019835416911617905580f35b5080fd5b80fd5b346101845760403660031901126101845767ffffffffffffffff60243581811161018457366023820112156101845780600401358281116101895760405192601f8201601f19908116603f011684019081118482101761018957604052808352366024828401011161018457600092816024602094018483013701015260043560009081527f2247614a8e10a8cdf7e414e8cfdd55d59e5d45963b9b0ae5cab906b23c3d0e11602052604081205460ff161561017c57506020630b135d3f60e11b5b6040516001600160e01b03199091168152f35b602090610169565b600080fd5b634e487b7160e01b600052604160045260246000fdfea26469706673582212202b4cf0282faf2bb0d02d616bd0332168c97054dce887fa02b531e6df9edb54b664736f6c63430008130033",
    "linkReferences": {}
  },
  "methodIdentifiers": {
    "__isValidSignature(bytes32,bytes)": "99fcfa59",
    "__setValidSignature(bytes32,bool)": "06a70130",
    "isValidSignature(bytes32,bytes)": "1626ba7e"
  },
  "id": 411
}