{
  "abi": [
    {
      "inputs": [
        {
          "internalType": "string",
          "name": "metadataBaseURI",
          "type": "string"
        }
      ],
      "stateMutability": "nonpayable",
      "type": "constructor"
    },
    {
      "inputs": [],
      "name": "ERC1155Base__ArrayLengthMismatch",
      "type": "error"
    },
    {
      "inputs": [],
      "name": "ERC1155Base__BalanceQueryZeroAddress",
      "type": "error"
    },
    {
      "inputs": [],
      "name": "ERC1155Base__BurnExceedsBalance",
      "type": "error"
    },
    {
      "inputs": [],
      "name": "ERC1155Base__BurnFromZeroAddress",
      "type": "error"
    },
    {
      "inputs": [],
      "name": "ERC1155Base__ERC1155ReceiverNotImplemented",
      "type": "error"
    },
    {
      "inputs": [],
      "name": "ERC1155Base__ERC1155ReceiverRejected",
      "type": "error"
    },
    {
      "inputs": [],
      "name": "ERC1155Base__MintToZeroAddress",
      "type": "error"
    },
    {
      "inputs": [],
      "name": "ERC1155Base__NotOwnerOrApproved",
      "type": "error"
    },
    {
      "inputs": [],
      "name": "ERC1155Base__SelfApproval",
      "type": "error"
    },
    {
      "inputs": [],
      "name": "ERC1155Base__TransferExceedsBalance",
      "type": "error"
    },
    {
      "inputs": [],
      "name": "ERC1155Base__TransferToZeroAddress",
      "type": "error"
    },
    {
      "inputs": [],
      "name": "ERC165Base__InvalidInterfaceId",
      "type": "error"
    },
    {
      "inputs": [],
      "name": "EnumerableSet__IndexOutOfBounds",
      "type": "error"
    },
    {
      "anonymous": false,
      "inputs": [
        {
          "indexed": true,
          "internalType": "address",
          "name": "account",
          "type": "address"
        },
        {
          "indexed": true,
          "internalType": "address",
          "name": "operator",
          "type": "address"
        },
        {
          "indexed": false,
          "internalType": "bool",
          "name": "approved",
          "type": "bool"
        }
      ],
      "name": "ApprovalForAll",
      "type": "event"
    },
    {
      "anonymous": false,
      "inputs": [
        {
          "indexed": true,
          "internalType": "address",
          "name": "operator",
          "type": "address"
        },
        {
          "indexed": true,
          "internalType": "address",
          "name": "from",
          "type": "address"
        },
        {
          "indexed": true,
          "internalType": "address",
          "name": "to",
          "type": "address"
        },
        {
          "indexed": false,
          "internalType": "uint256[]",
          "name": "ids",
          "type": "uint256[]"
        },
        {
          "indexed": false,
          "internalType": "uint256[]",
          "name": "values",
          "type": "uint256[]"
        }
      ],
      "name": "TransferBatch",
      "type": "event"
    },
    {
      "anonymous": false,
      "inputs": [
        {
          "indexed": true,
          "internalType": "address",
          "name": "operator",
          "type": "address"
        },
        {
          "indexed": true,
          "internalType": "address",
          "name": "from",
          "type": "address"
        },
        {
          "indexed": true,
          "internalType": "address",
          "name": "to",
          "type": "address"
        },
        {
          "indexed": false,
          "internalType": "uint256",
          "name": "id",
          "type": "uint256"
        },
        {
          "indexed": false,
          "internalType": "uint256",
          "name": "value",
          "type": "uint256"
        }
      ],
      "name": "TransferSingle",
      "type": "event"
    },
    {
      "anonymous": false,
      "inputs": [
        {
          "indexed": false,
          "internalType": "string",
          "name": "value",
          "type": "string"
        },
        {
          "indexed": true,
          "internalType": "uint256",
          "name": "tokenId",
          "type": "uint256"
        }
      ],
      "name": "URI",
      "type": "event"
    },
    {
      "inputs": [
        {
          "internalType": "uint256",
          "name": "id",
          "type": "uint256"
        }
      ],
      "name": "accountsByToken",
      "outputs": [
        {
          "internalType": "address[]",
          "name": "",
          "type": "address[]"
        }
      ],
      "stateMutability": "view",
      "type": "function"
    },
    {
      "inputs": [
        {
          "internalType": "address",
          "name": "account",
          "type": "address"
        },
        {
          "internalType": "uint256",
          "name": "id",
          "type": "uint256"
        }
      ],
      "name": "balanceOf",
      "outputs": [
        {
          "internalType": "uint256",
          "name": "",
          "type": "uint256"
        }
      ],
      "stateMutability": "view",
      "type": "function"
    },
    {
      "inputs": [
        {
          "internalType": "address[]",
          "name": "accounts",
          "type": "address[]"
        },
        {
          "internalType": "uint256[]",
          "name": "ids",
          "type": "uint256[]"
        }
      ],
      "name": "balanceOfBatch",
      "outputs": [
        {
          "internalType": "uint256[]",
          "name": "",
          "type": "uint256[]"
        }
      ],
      "stateMutability": "view",
      "type": "function"
    },
    {
      "inputs": [
        {
          "internalType": "address",
          "name": "from",
          "type": "address"
        },
        {
          "internalType": "uint256[]",
          "name": "ids",
          "type": "uint256[]"
        },
        {
          "internalType": "uint256[]",
          "name": "amounts",
          "type": "uint256[]"
        }
      ],
      "name": "burn",
      "outputs": [],
      "stateMutability": "nonpayable",
      "type": "function"
    },
    {
      "inputs": [
        {
          "internalType": "address",
          "name": "account",
          "type": "address"
        },
        {
          "internalType": "address",
          "name": "operator",
          "type": "address"
        }
      ],
      "name": "isApprovedForAll",
      "outputs": [
        {
          "internalType": "bool",
          "name": "",
          "type": "bool"
        }
      ],
      "stateMutability": "view",
      "type": "function"
    },
    {
      "inputs": [
        {
          "internalType": "address",
          "name": "account",
          "type": "address"
        },
        {
          "internalType": "uint256",
          "name": "id",
          "type": "uint256"
        },
        {
          "internalType": "uint256",
          "name": "amount",
          "type": "uint256"
        },
        {
          "internalType": "bytes",
          "name": "data",
          "type": "bytes"
        }
      ],
      "name": "mint",
      "outputs": [],
      "stateMutability": "nonpayable",
      "type": "function"
    },
    {
      "inputs": [
        {
          "internalType": "address",
          "name": "to",
          "type": "address"
        },
        {
          "internalType": "uint256[]",
          "name": "ids",
          "type": "uint256[]"
        },
        {
          "internalType": "uint256[]",
          "name": "amounts",
          "type": "uint256[]"
        },
        {
          "internalType": "bytes",
          "name": "data",
          "type": "bytes"
        }
      ],
      "name": "mintBatch",
      "outputs": [],
      "stateMutability": "nonpayable",
      "type": "function"
    },
    {
      "inputs": [
        {
          "internalType": "address",
          "name": "player",
          "type": "address"
        },
        {
          "internalType": "uint256[]",
          "name": "ids",
          "type": "uint256[]"
        }
      ],
      "name": "playTestNuke",
      "outputs": [],
      "stateMutability": "nonpayable",
      "type": "function"
    },
    {
      "inputs": [
        {
          "internalType": "string",
          "name": "metadataURI",
          "type": "string"
        }
      ],
      "name": "registerMetadataURI",
      "outputs": [],
      "stateMutability": "nonpayable",
      "type": "function"
    },
    {
      "inputs": [
        {
          "internalType": "address",
          "name": "from",
          "type": "address"
        },
        {
          "internalType": "address",
          "name": "to",
          "type": "address"
        },
        {
          "internalType": "uint256[]",
          "name": "ids",
          "type": "uint256[]"
        },
        {
          "internalType": "uint256[]",
          "name": "amounts",
          "type": "uint256[]"
        },
        {
          "internalType": "bytes",
          "name": "data",
          "type": "bytes"
        }
      ],
      "name": "safeBatchTransferFrom",
      "outputs": [],
      "stateMutability": "nonpayable",
      "type": "function"
    },
    {
      "inputs": [
        {
          "internalType": "address",
          "name": "from",
          "type": "address"
        },
        {
          "internalType": "address",
          "name": "to",
          "type": "address"
        },
        {
          "internalType": "uint256",
          "name": "id",
          "type": "uint256"
        },
        {
          "internalType": "uint256",
          "name": "amount",
          "type": "uint256"
        },
        {
          "internalType": "bytes",
          "name": "data",
          "type": "bytes"
        }
      ],
      "name": "safeTransferFrom",
      "outputs": [],
      "stateMutability": "nonpayable",
      "type": "function"
    },
    {
      "inputs": [
        {
          "internalType": "address",
          "name": "operator",
          "type": "address"
        },
        {
          "internalType": "bool",
          "name": "status",
          "type": "bool"
        }
      ],
      "name": "setApprovalForAll",
      "outputs": [],
      "stateMutability": "nonpayable",
      "type": "function"
    },
    {
      "inputs": [
        {
          "internalType": "bytes4",
          "name": "interfaceId",
          "type": "bytes4"
        }
      ],
      "name": "supportsInterface",
      "outputs": [
        {
          "internalType": "bool",
          "name": "",
          "type": "bool"
        }
      ],
      "stateMutability": "view",
      "type": "function"
    },
    {
      "inputs": [
        {
          "internalType": "address",
          "name": "account",
          "type": "address"
        }
      ],
      "name": "tokensByAccount",
      "outputs": [
        {
          "internalType": "uint256[]",
          "name": "",
          "type": "uint256[]"
        }
      ],
      "stateMutability": "view",
      "type": "function"
    },
    {
      "inputs": [
        {
          "internalType": "uint256",
          "name": "id",
          "type": "uint256"
        }
      ],
      "name": "totalHolders",
      "outputs": [
        {
          "internalType": "uint256",
          "name": "",
          "type": "uint256"
        }
      ],
      "stateMutability": "view",
      "type": "function"
    },
    {
      "inputs": [
        {
          "internalType": "uint256",
          "name": "id",
          "type": "uint256"
        }
      ],
      "name": "totalSupply",
      "outputs": [
        {
          "internalType": "uint256",
          "name": "",
          "type": "uint256"
        }
      ],
      "stateMutability": "view",
      "type": "function"
    },
    {
      "inputs": [
        {
          "internalType": "uint256",
          "name": "id",
          "type": "uint256"
        }
      ],
      "name": "uri",
      "outputs": [
        {
          "internalType": "string",
          "name": "",
          "type": "string"
        }
      ],
      "stateMutability": "view",
      "type": "function"
    }
  ],
  "bytecode": {
    "object": "0x608060405234620002845762002611803803806200001d8162000289565b92833981019060208082840312620002845781516001600160401b039283821162000284570191601f90848285011215620002845783518181116200025957601f1994620000718285018716860162000289565b968288528583830101116200028457849060005b8381106200026f57505060009187010152845190811162000259577f4281b61aefbe70b3d3f684b428efca5f33077bc240e76f2808f9177c307617f4918254946001958681811c911680156200024e575b868210146200023857828111620001ed575b50849183116001146200017857508190600080516020620025f183398151915295966000926200016c575b5050600019600383901b1c191690851b1790555b6301ffc9a760e01b6000525260406000209060ff19918183825416179055636cdb3d1360e11b6000526040600020918254161790556040516123419081620002b08239f35b01519050388062000113565b82169583600052846000209660005b818110620001d757509186979184600080516020620025f183398151915298959410620001bd575b505050811b01905562000127565b015160001960f88460031b161c19169055388080620001af565b8383015189559787019792860192860162000187565b84600052856000208380860160051c8201928887106200022e575b0160051c019087905b82811062000221575050620000e8565b6000815501879062000211565b9250819262000208565b634e487b7160e01b600052602260045260246000fd5b90607f1690620000d6565b634e487b7160e01b600052604160045260246000fd5b81810183015189820184015286920162000085565b600080fd5b6040519190601f01601f191682016001600160401b03811183821017620002595760405256fe6080604052600436101561001257600080fd5b60003560e01c8062fdd58e146118e857806301ffc9a7146118875780630e89341c1461181c57806313ba55df146117e35780631f7fdffa146115c65780632eb2c2d6146111b85780633db0f8ab14610f795780634e1273f414610e0b5780636dcfd84114610d2e578063731133e914610b5157806385bff2e714610ae2578063a22cb46514610a48578063b4d6d660146107b6578063bd85b0391461077d578063ce9e3cd814610542578063e985e9c5146104f45763f242432a146100d657600080fd5b346104ef5760a03660031901126104ef576100ef611917565b6100f761192d565b906084356001600160401b0381116104ef57610117903690600401611aa9565b916001600160a01b0390828216331415806104cf575b6104be57818116156104ac57610144604435611cdd565b61014f606435611cdd565b83831684861603610351575b50506044356000526000805160206122ec8339815191529360209480865260406000208486166000528652604060002054806064351161033f5760443560005281875260406000208587166000528752606435900360406000205560443560005285526040600020838316600052855260406000206101dd6064358254611cab565b905560405160443581526064358682015283831690848616907fc3d58168c5ae7397731d063d5bbf3d657854427343f4c083240f7aacaa2d0f6260403392a4813b61022457005b849161026f9160006040519586809581948363f23a6e6160e01b9b8c85523360048601521660248401526044356044840152606435606484015260a0608484015260a4830190611966565b0393165af160009181610310575b506102ed57505060019061028f611d22565b6308c379a0146102b4575b506102a2575b005b60405163380147a960e01b8152600490fd5b6102bc611d40565b90816102c8575061029a565b6102e960405192839262461bcd60e51b845260048401526024830190611966565b0390fd5b6001600160e01b0319161490506102a057604051633744db2960e01b8152600490fd5b610331919250843d8611610338575b61032981836119c1565b810190611d02565b903861027d565b503d61031f565b60405163119ac6bb60e31b8152600490fd5b61035f859695949294611bdf565b9261036981611bdf565b9160005b865181101561049b578061038360019284611b7c565b5180610391575b500161036d565b61039b828a611b7c565b51818c828a8216610456579150506000526000805160206122ac83398151915260205260406000206103ce838254611cab565b90555b858816610406576000526000805160206122ac8339815191526020526103fd6040600020918254611df5565b90555b3861038a565b90506104128186611c71565b1561041e575b50610400565b8061044f916000526000805160206122cc8339815191526020526104488887166040600020611e02565b5086611e02565b5038610418565b61045f91611c71565b036103d157806000526000805160206122cc83398151915260205261048a888d166040600020611e99565b50610495818a611e99565b506103d1565b50509250509150929192388061015b565b60405163f5cadad560e01b8152600490fd5b6040516212efed60e91b8152600490fd5b506104d983611c06565b3360005260205260ff604060002054161561012d565b600080fd5b346104ef5760403660031901126104ef5761050d611917565b61051e61051861192d565b91611c06565b9060018060a01b0316600052602052602060ff604060002054166040519015158152f35b346104ef576020806003193601126104ef576001600160401b03906004358281116104ef57366023820112156104ef57610586903690602481600401359101611a72565b7fc8fcad8db84d3cc18b4c41d551ea0ee66dd599cde068d998e57d5e09332c1320549092906001600160a01b0316330361072d578251908111610717577f4281b61aefbe70b3d3f684b428efca5f33077bc240e76f2808f9177c307617f4916105ef8354611f4a565b601f81116106b4575b5080601f83116001146106345750819293600092610629575b5050600019600383901b1c191660019190911b179055005b015190508380610611565b90601f19831694846000527f0d8e6ea8b1f8faf40277fd5ec504900241304ad48b0fd05b7ebcd421842ca6b9926000905b87821061069c575050836001959610610683575b505050811b019055005b015160001960f88460031b161c19169055838080610679565b80600185968294968601518155019501930190610665565b836000527f0d8e6ea8b1f8faf40277fd5ec504900241304ad48b0fd05b7ebcd421842ca6b9601f840160051c81019183851061070d575b601f0160051c01905b81811061070157506105f8565b600081556001016106f4565b90915081906106eb565b634e487b7160e01b600052604160045260246000fd5b60405162461bcd60e51b815260048101839052602260248201527f4c69624469616d6f6e643a204d75737420626520636f6e7472616374206f776e60448201526132b960f11b6064820152608490fd5b346104ef5760203660031901126104ef576004356000526000805160206122ac8339815191526020526020604060002054604051908152f35b346104ef5760403660031901126104ef576107cf611917565b6024356001600160401b0381116104ef576107ee9036906004016119f9565b61080360ff6107fc33611ba6565b5416611afb565b60005b81518110156102a0576108198183611b7c565b519061082f6108288285611b7c565b5185611c71565b6001600160a01b03851615610a365761084783611cdd565b61085082611cdd565b600060405161085e8161198b565b526001600160a01b03871661091a575b5050826000526020926000805160206122ec833981519152845260406000209160018060a01b0387166000528285526040600020548111610908576001600160a01b038716600081815293865260408085208054849003905580519384529583019190915261090394909133917fc3d58168c5ae7397731d063d5bbf3d657854427343f4c083240f7aacaa2d0f6291a4611b57565b610806565b604051634190713d60e01b8152600490fd5b91610929879694929596611bdf565b936000805260008051602061228c83398151915260205260005b8651811015610a27578061095960019287611b7c565b5180610967575b5001610943565b610971828a611b7c565b51818c82868060a01b038216156000146109dd579150506000526000805160206122ac83398151915260205260406000206109ad838254611cab565b90555b6000526000805160206122ac8339815191526020526109d56040600020918254611df5565b90558a610960565b6109e691611c71565b036109b057806000526000805160206122cc833981519152602052610a16848060a01b038d166040600020611e99565b50610a21818a611e99565b506109b0565b5095945091509150858061086e565b60405163baa75df760e01b8152600490fd5b346104ef5760403660031901126104ef57610a61611917565b602435908115158092036104ef576001600160a01b031690338214610ad057610a8933611c06565b82600052602052604060002060ff1981541660ff83161790556040519081527f17307eab39ab6107e8899845ad3d59bd9653f200f220920489ca2b5937696c3160203392a3005b604051637b30a93360e11b8152600490fd5b346104ef5760203660031901126104ef57610b03610afe611917565b611bdf565b8054610b0e81611c3f565b9160005b828110610b335760405160208082528190610b2f90820187611ac7565b0390f35b80610b4060019284611dc6565b610b4a8287611b7c565b5201610b12565b346104ef5760803660031901126104ef57610b6a611917565b60243590604435906064356001600160401b0381116104ef57610b91903690600401611aa9565b50610ba060ff6107fc33611ba6565b6001600160a01b0381169283159081610d1c57610bbc81611cdd565b92610bc685611cdd565b956000805260209260008051602061228c8339815191528452610be883611bdf565b9060005b8751811015610cb75780610c026001928c611b7c565b5180610c10575b5001610bec565b610c1a828b611b7c565b51806000526000805160206122ac83398151915290818a526040600020610c42848254611cab565b90558a15610c68576000528852610c5f6040600020918254611df5565b90555b8b610c09565b809250610c76915088611c71565b15610c82575b50610c62565b80610cb0916000526000805160206122cc8339815191528952610ca9876040600020611e02565b5085611e02565b508b610c7c565b836000838b898284526000805160206122ec833981519152815260408420858552815260408420610ce9838254611cab565b90556040519283528201527fc3d58168c5ae7397731d063d5bbf3d657854427343f4c083240f7aacaa2d0f6260403392a4005b6040516301c8efbf60e11b8152600490fd5b346104ef576020806003193601126104ef576004356000526000805160206122cc833981519152815260406000208054610d67816119e2565b90610d7560405192836119c1565b808252610d81816119e2565b8285019390601f190136853760005b828110610de45750505090604051928392818401908285525180915260408401929160005b828110610dc457505050500390f35b83516001600160a01b031685528695509381019392810192600101610db5565b6001906001600160a01b03610df98285611dc6565b16610e048287611b7c565b5201610d90565b346104ef5760403660031901126104ef576004356001600160401b038082116104ef57366023830112156104ef57816004013590610e48826119e2565b92610e5660405194856119c1565b82845260209260248486019160051b830101913683116104ef57602401905b828210610f5a575050506024359081116104ef57610e979036906004016119f9565b918051835103610f4857610eab8151611c3f565b9060005b8151811015610f35576001600160a01b039081610ecc8285611b7c565b511615610f2357600191610ee08288611b7c565b516000526000805160206122ec8339815191528652604060002090610f058386611b7c565b51166000528552604060002054610f1c8286611b7c565b5201610eaf565b60405163db5d879760e01b8152600490fd5b60405184815280610b2f81870186611ac7565b604051633e7e0b6d60e11b8152600490fd5b81356001600160a01b03811681036104ef578152908401908401610e75565b346104ef5760603660031901126104ef57610f92611917565b6001600160401b036024358181116104ef57610fb29036906004016119f9565b906044359081116104ef57610fcb9036906004016119f9565b91610fda60ff6107fc33611ba6565b6001600160a01b0381168015929083610a36578151855103610f485760006040516110048161198b565b5261100e83611bdf565b926000805260209160008051602061228c833981519152835260005b84518110156110f757806110406001928a611b7c565b518061104e575b500161102a565b6110588288611b7c565b5189156110b357806000526000805160206122ac83398151915287526040600020611084838254611cab565b90555b6000526000805160206122ac83398151915286526110ab6040600020918254611df5565b905589611047565b816110be8288611c71565b0361108757806000526000805160206122cc83398151915287526110e6856040600020611e99565b506110f1818a611e99565b50611087565b8785858460005b835181101561117c576111118185611b7c565b519061111d8187611b7c565b5191806000526000805160206122ec83398151915292838652604060002085600052865260406000205410610908576001926111598389611b7c565b5191600052855260406000208460005285526040600020908154039055016110fe565b600082857f4a39dc06d4c0dbc64b70af90fd698a233a518aa5d07e595d983b8c0526c8f7fb6111b389604051918291339583611cb8565b0390a4005b346104ef5760031960a0368201126104ef576111d2611917565b6111da61192d565b6001600160401b03926044358481116104ef576111fb9036906004016119f9565b6064358581116104ef576112139036906004016119f9565b946084359081116104ef5761122c903690600401611aa9565b6001600160a01b0385811693919033851415806115a6575b6104be57851695861590816104ac578451895103610f485787860361144f575b50506000945b83518610156113035761127d8685611b7c565b5195611289818a611b7c565b5190876000526000805160206122ec83398151915260209181835260406000208960005283526040600020549081851161033f57846001928c60005284865260406000208c6000528652036040600020550198600052815260406000209089600052526112fc6040600020918254611cab565b905561126a565b86859492899282876040517f4a39dc06d4c0dbc64b70af90fd698a233a518aa5d07e595d983b8c0526c8f7fb33918061133d8a8c83611cb8565b0390a43b61134757005b60006020946113a86113999761138994604051998a988997889663bc197c8160e01b9e8f89523360048a0152602489015260a0604489015260a4880190611ac7565b9084878303016064880152611ac7565b91848303016084850152611966565b03925af16000918161142f575b5061140e57505060016113c6611d22565b6308c379a0146113d7575b6102a257005b6113df611d40565b806113ea57506113d1565b60405162461bcd60e51b8152602060048201529081906102e9906024830190611966565b6001600160e01b031916146102a057604051633744db2960e01b8152600490fd5b61144891925060203d81116103385761032981836119c1565b90836113b5565b61146181989692939897949597611bdf565b61146a85611bdf565b9560005b8b8a51821015611593579061148581600193611b7c565b5180611493575b500161146e565b61149d828d611b7c565b518761154e57806000526000805160206122ac83398151915260205260406000206114c9838254611cab565b90555b8815611500576000526000805160206122ac8339815191526020526114f76040600020918254611df5565b90555b8d61148c565b905061150c818a611c71565b15611518575b506114fa565b80611547916000526000805160206122cc8339815191526020526115408c6040600020611e02565b508a611e02565b508d611512565b816115598289611c71565b036114cc57806000526000805160206122cc833981519152602052611582886040600020611e99565b5061158d8187611e99565b506114cc565b5050949795505050939590508780611264565b506115b087611c06565b3360005260205260ff6040600020541615611244565b346104ef5760803660031901126104ef576115df611917565b6001600160401b03906024358281116104ef576116009036906004016119f9565b6044358381116104ef576116189036906004016119f9565b926064359081116104ef57611631903690600401611aa9565b5061164060ff6107fc33611ba6565b6001600160a01b0382169182159081610d1c578251855103610f48576000805260209060008051602061228c833981519152825261167d81611bdf565b9460005b855181101561174c57806116976001928a611b7c565b51806116a5575b5001611681565b6116af8289611b7c565b51806000526000805160206122ac8339815191529081885260406000206116d7848254611cab565b905588156116fd5760005286526116f46040600020918254611df5565b90555b8961169e565b80925061170b915086611c71565b15611717575b506116f7565b80611745916000526000805160206122cc833981519152875261173e856040600020611e02565b5089611e02565b5089611711565b8784878460005b82518110156117ac578061176960019287611b7c565b516117748286611b7c565b516000526000805160206122ec833981519152865260406000208460005286526117a46040600020918254611cab565b905501611753565b506000827f4a39dc06d4c0dbc64b70af90fd698a233a518aa5d07e595d983b8c0526c8f7fb6111b387604051918291339583611cb8565b346104ef5760203660031901126104ef576004356000526000805160206122cc8339815191526020526020604060002054604051908152f35b346104ef576020806003193601126104ef57611839600435611f84565b906118736025604051846118568296518092878086019101611943565b810164173539b7b760d91b858201520360058101855201836119c1565b610b2f604051928284938452830190611966565b346104ef5760203660031901126104ef5760043563ffffffff60e01b81168091036104ef576000527ffc606c433378e3a7e0a6a531deac289b66caa1b4aa8554fd4ab2c6f1570f92d8602052602060ff604060002054166040519015158152f35b346104ef5760403660031901126104ef57602061190f611906611917565b60243590611c71565b604051908152f35b600435906001600160a01b03821682036104ef57565b602435906001600160a01b03821682036104ef57565b60005b8381106119565750506000910152565b8181015183820152602001611946565b9060209161197f81518092818552858086019101611943565b601f01601f1916010190565b602081019081106001600160401b0382111761071757604052565b604081019081106001600160401b0382111761071757604052565b90601f801991011681019081106001600160401b0382111761071757604052565b6001600160401b0381116107175760051b60200190565b81601f820112156104ef57803591611a10836119e2565b92611a1e60405194856119c1565b808452602092838086019260051b8201019283116104ef578301905b828210611a48575050505090565b81358152908301908301611a3a565b6001600160401b03811161071757601f01601f191660200190565b929192611a7e82611a57565b91611a8c60405193846119c1565b8294818452818301116104ef578281602093846000960137010152565b9080601f830112156104ef57816020611ac493359101611a72565b90565b90815180825260208080930193019160005b828110611ae7575050505090565b835185529381019392810192600101611ad9565b15611b0257565b60405162461bcd60e51b815260206004820152602760248201527f4d6572637572795265736f75726365733a206d73672e73656e646572206973206044820152666e6f7420536b7960c81b6064820152608490fd5b6000198114611b665760010190565b634e487b7160e01b600052601160045260246000fd5b8051821015611b905760209160051b010190565b634e487b7160e01b600052603260045260246000fd5b6001600160a01b031660009081527f2fd2a3d94049461da51196e56bcf344b53de42719b0adf4dbc64d04380d8c7fc6020526040902090565b6001600160a01b0316600090815260008051602061228c8339815191526020526040902090565b6001600160a01b031660009081527f1799cf914cb0cb442ca7c7ac709ee40d0cb89e87351dc08d517fbda27d50c68c6020526040902090565b90611c49826119e2565b611c5660405191826119c1565b8281528092611c67601f19916119e2565b0190602036910137565b6001600160a01b0316908115610f23576000526000805160206122ec83398151915260205260406000209060005260205260406000205490565b91908201809211611b6657565b9091611ccf611ac493604084526040840190611ac7565b916020818403910152611ac7565b60405190611cea826119a6565b60018252602082016020368237825115611b90575290565b908160209103126104ef57516001600160e01b0319811681036104ef5790565b60009060033d11611d2f57565b905060046000803e60005160e01c90565b600060443d10611ac457604051600319913d83016004833e81516001600160401b03918282113d602484011117611d9d57818401948551938411611da5573d85010160208487010111611d9d5750611ac4929101602001906119c1565b949350505050565b50949350505050565b8054821015611b905760005260206000200190600090565b908154811015611de357611dd991611dae565b90549060031b1c90565b60405163e637bf3b60e01b8152600490fd5b91908203918211611b6657565b91909160009260006001830182825280602052604082205415611e26575b50505050565b909192809550549468010000000000000000861015611e855783611e6e611e57886001604098999a01855584611dae565b819391549060031b91821b91600019901b19161790565b905554938252602052205560019038808080611e20565b634e487b7160e01b83526041600452602483fd5b919060009260009160018201918184528260205260408420549081611ec0575b5050505050565b9091929394955060001991611ed88383540183611dae565b90549060031b1c80611eef611e5786850186611dae565b9055865284602052604086205580548015611f3657820191611f118383611dae565b909182549160031b1b1916905555825260205260408120556001903880808080611eb9565b634e487b7160e01b86526031600452602486fd5b90600182811c92168015611f7a575b6020831014611f6457565b634e487b7160e01b600052602260045260246000fd5b91607f1691611f59565b6000908082526020907f4281b61aefbe70b3d3f684b428efca5f33077bc240e76f2808f9177c307617f582526040832060405193809282549386611fc786611f4a565b91828252878201956001978989821691826000146121a6575050600114612168575b50611ff6925003876119c1565b6040519384837f4281b61aefbe70b3d3f684b428efca5f33077bc240e76f2808f9177c307617f49283549561202a87611f4a565b948585528a8501978b84821691826000146121465750506001146120ed575b505050612058925003856119c1565b835161206657505050505090565b85929394955115156000146120b1575091611ac493916120a5612096969460405197889551809288880190611943565b84019151809386840190611943565b010380845201826119c1565b6120d9959350611ac49492506120c6906121c4565b9060405195869351809286860190611943565b82016120a582518093868085019101611943565b8152899250907f0d8e6ea8b1f8faf40277fd5ec504900241304ad48b0fd05b7ebcd421842ca6b95b85831061212e5750506120589350820101388080612049565b8054838b018501528994508a93909201918101612115565b93509450505061205894915060ff19168652151560051b820101388080612049565b915050835286868085208786915b85831061218d575050611ff6935082010138611fe9565b80919294505483858d0101520191018790878a93612176565b60ff19168952611ff695151560051b8501019250389150611fe99050565b801561226d5780816000925b61225757506121de82611a57565b916121ec60405193846119c1565b808352601f196121fb82611a57565b01908260209236848701375b6122115750505090565b6000198101908111611b66578092600a9160308383068101809111611b66578651821015611b905760f81b6001600160f81b03191660001a908601840153049182612207565b9091612264600a91611b57565b929104806121d0565b5060405161227a816119a6565b60018152600360fc1b60208201529056feb31c2c74f86ca3ce94d901f5f5bbe66f7161eec2f7b5aa0b75a86371436424ecb31c2c74f86ca3ce94d901f5f5bbe66f7161eec2f7b5aa0b75a86371436424eab31c2c74f86ca3ce94d901f5f5bbe66f7161eec2f7b5aa0b75a86371436424eb1799cf914cb0cb442ca7c7ac709ee40d0cb89e87351dc08d517fbda27d50c68ba2646970667358221220dfcabaa125daf40e37ba60ffde1ea7c32e1c7b0e3b7d3cf5c34a481b9670a93e64736f6c63430008130033fc606c433378e3a7e0a6a531deac289b66caa1b4aa8554fd4ab2c6f1570f92d8",
    "linkReferences": {}
  },
  "methodIdentifiers": {
    "accountsByToken(uint256)": "6dcfd841",
    "balanceOf(address,uint256)": "00fdd58e",
    "balanceOfBatch(address[],uint256[])": "4e1273f4",
    "burn(address,uint256[],uint256[])": "3db0f8ab",
    "isApprovedForAll(address,address)": "e985e9c5",
    "mint(address,uint256,uint256,bytes)": "731133e9",
    "mintBatch(address,uint256[],uint256[],bytes)": "1f7fdffa",
    "playTestNuke(address,uint256[])": "b4d6d660",
    "registerMetadataURI(string)": "ce9e3cd8",
    "safeBatchTransferFrom(address,address,uint256[],uint256[],bytes)": "2eb2c2d6",
    "safeTransferFrom(address,address,uint256,uint256,bytes)": "f242432a",
    "setApprovalForAll(address,bool)": "a22cb465",
    "supportsInterface(bytes4)": "01ffc9a7",
    "tokensByAccount(address)": "85bff2e7",
    "totalHolders(uint256)": "13ba55df",
    "totalSupply(uint256)": "bd85b039",
    "uri(uint256)": "0e89341c"
  },
  "id": 22
}