{
  "abi": [
    {
      "inputs": [
        {
          "internalType": "address",
          "name": "_protocol",
          "type": "address"
        }
      ],
      "stateMutability": "nonpayable",
      "type": "constructor"
    },
    {
      "anonymous": false,
      "inputs": [
        {
          "indexed": true,
          "internalType": "uint256",
          "name": "tokenId",
          "type": "uint256"
        },
        {
          "indexed": true,
          "internalType": "address",
          "name": "user",
          "type": "address"
        }
      ],
      "name": "LoseGame",
      "type": "event"
    },
    {
      "anonymous": false,
      "inputs": [
        {
          "indexed": true,
          "internalType": "uint256",
          "name": "tokenId",
          "type": "uint256"
        },
        {
          "indexed": true,
          "internalType": "address",
          "name": "user",
          "type": "address"
        }
      ],
      "name": "WinGame",
      "type": "event"
    },
    {
      "inputs": [
        {
          "internalType": "address",
          "name": "burner",
          "type": "address"
        },
        {
          "internalType": "uint256",
          "name": "tokenId",
          "type": "uint256"
        },
        {
          "internalType": "contract MercuryBase",
          "name": "collection",
          "type": "address"
        }
      ],
      "name": "approveForGame",
      "outputs": [],
      "stateMutability": "nonpayable",
      "type": "function"
    },
    {
      "inputs": [
        {
          "internalType": "address",
          "name": "burner",
          "type": "address"
        }
      ],
      "name": "burnerAddressToTokenId",
      "outputs": [
        {
          "internalType": "uint256",
          "name": "",
          "type": "uint256"
        }
      ],
      "stateMutability": "view",
      "type": "function"
    },
    {
      "inputs": [],
      "name": "componentIndex",
      "outputs": [
        {
          "internalType": "contract ComponentIndex",
          "name": "",
          "type": "address"
        }
      ],
      "stateMutability": "view",
      "type": "function"
    },
    {
      "inputs": [
        {
          "internalType": "uint64",
          "name": "gridWidth",
          "type": "uint64"
        },
        {
          "internalType": "uint64",
          "name": "gridHeight",
          "type": "uint64"
        },
        {
          "internalType": "uint64",
          "name": "lengthToWin",
          "type": "uint64"
        },
        {
          "internalType": "uint64",
          "name": "initialBalance",
          "type": "uint64"
        },
        {
          "internalType": "address",
          "name": "collection",
          "type": "address"
        }
      ],
      "name": "createLobby",
      "outputs": [],
      "stateMutability": "nonpayable",
      "type": "function"
    },
    {
      "inputs": [
        {
          "internalType": "address",
          "name": "collection",
          "type": "address"
        }
      ],
      "name": "createOrJoinDefault",
      "outputs": [],
      "stateMutability": "nonpayable",
      "type": "function"
    },
    {
      "inputs": [],
      "name": "defaultGameQueue",
      "outputs": [
        {
          "internalType": "address",
          "name": "",
          "type": "address"
        }
      ],
      "stateMutability": "view",
      "type": "function"
    },
    {
      "inputs": [
        {
          "internalType": "address",
          "name": "",
          "type": "address"
        }
      ],
      "name": "gamePerPlayer",
      "outputs": [
        {
          "internalType": "address",
          "name": "",
          "type": "address"
        }
      ],
      "stateMutability": "view",
      "type": "function"
    },
    {
      "inputs": [
        {
          "internalType": "address",
          "name": "",
          "type": "address"
        }
      ],
      "name": "gameToCollection",
      "outputs": [
        {
          "internalType": "address",
          "name": "",
          "type": "address"
        }
      ],
      "stateMutability": "view",
      "type": "function"
    },
    {
      "inputs": [
        {
          "internalType": "address",
          "name": "winnerBurner",
          "type": "address"
        },
        {
          "internalType": "address",
          "name": "loserBurner",
          "type": "address"
        },
        {
          "internalType": "contract MercuryBase",
          "name": "collection",
          "type": "address"
        }
      ],
      "name": "handleWinLoss",
      "outputs": [],
      "stateMutability": "nonpayable",
      "type": "function"
    },
    {
      "inputs": [
        {
          "internalType": "uint256",
          "name": "tokenId",
          "type": "uint256"
        },
        {
          "internalType": "contract MercuryBase",
          "name": "collection",
          "type": "address"
        }
      ],
      "name": "isApprovedForGame",
      "outputs": [
        {
          "internalType": "bool",
          "name": "",
          "type": "bool"
        }
      ],
      "stateMutability": "view",
      "type": "function"
    },
    {
      "inputs": [
        {
          "internalType": "address",
          "name": "lobby",
          "type": "address"
        },
        {
          "internalType": "address",
          "name": "collection",
          "type": "address"
        }
      ],
      "name": "joinLobby",
      "outputs": [],
      "stateMutability": "nonpayable",
      "type": "function"
    },
    {
      "inputs": [
        {
          "internalType": "address",
          "name": "",
          "type": "address"
        },
        {
          "internalType": "address",
          "name": "",
          "type": "address"
        },
        {
          "internalType": "uint256[]",
          "name": "",
          "type": "uint256[]"
        },
        {
          "internalType": "uint256[]",
          "name": "",
          "type": "uint256[]"
        },
        {
          "internalType": "bytes",
          "name": "",
          "type": "bytes"
        }
      ],
      "name": "onERC1155BatchReceived",
      "outputs": [
        {
          "internalType": "bytes4",
          "name": "",
          "type": "bytes4"
        }
      ],
      "stateMutability": "nonpayable",
      "type": "function"
    },
    {
      "inputs": [
        {
          "internalType": "address",
          "name": "",
          "type": "address"
        },
        {
          "internalType": "address",
          "name": "",
          "type": "address"
        },
        {
          "internalType": "uint256",
          "name": "",
          "type": "uint256"
        },
        {
          "internalType": "uint256",
          "name": "",
          "type": "uint256"
        },
        {
          "internalType": "bytes",
          "name": "",
          "type": "bytes"
        }
      ],
      "name": "onERC1155Received",
      "outputs": [
        {
          "internalType": "bytes4",
          "name": "",
          "type": "bytes4"
        }
      ],
      "stateMutability": "nonpayable",
      "type": "function"
    },
    {
      "inputs": [],
      "name": "owner",
      "outputs": [
        {
          "internalType": "address",
          "name": "owner_",
          "type": "address"
        }
      ],
      "stateMutability": "view",
      "type": "function"
    },
    {
      "inputs": [
        {
          "internalType": "address",
          "name": "",
          "type": "address"
        }
      ],
      "name": "paramsPerGame",
      "outputs": [
        {
          "internalType": "uint64",
          "name": "gridWidth",
          "type": "uint64"
        },
        {
          "internalType": "uint64",
          "name": "gridHeight",
          "type": "uint64"
        },
        {
          "internalType": "uint64",
          "name": "lengthToWin",
          "type": "uint64"
        },
        {
          "internalType": "uint64",
          "name": "initialBalance",
          "type": "uint64"
        }
      ],
      "stateMutability": "view",
      "type": "function"
    },
    {
      "inputs": [
        {
          "internalType": "bytes4",
          "name": "interfaceId",
          "type": "bytes4"
        }
      ],
      "name": "supportsInterface",
      "outputs": [
        {
          "internalType": "bool",
          "name": "",
          "type": "bool"
        }
      ],
      "stateMutability": "view",
      "type": "function"
    },
    {
      "inputs": [
        {
          "internalType": "address",
          "name": "_newOwner",
          "type": "address"
        }
      ],
      "name": "transferOwnership",
      "outputs": [],
      "stateMutability": "nonpayable",
      "type": "function"
    },
    {
      "inputs": [
        {
          "internalType": "uint256",
          "name": "tokenId",
          "type": "uint256"
        },
        {
          "internalType": "contract MercuryBase",
          "name": "collection",
          "type": "address"
        }
      ],
      "name": "unapproveForGame",
      "outputs": [],
      "stateMutability": "nonpayable",
      "type": "function"
    },
    {
      "inputs": [
        {
          "internalType": "address",
          "name": "collection",
          "type": "address"
        }
      ],
      "name": "withdrawFromQueue",
      "outputs": [],
      "stateMutability": "nonpayable",
      "type": "function"
    }
  ],
  "bytecode": {
    "object": "0x6080346100eb57601f6119c338819003918201601f19168301916001600160401b038311848410176100f0578084926020946040528339810103126100eb57516001600160a01b0390818116908190036100eb577f56b93a8e38195cdaee211df396a77bc4208055a0c0efbf73458ddca9d280944380546001600160a01b0319808216339081179093556040519490939291167f8be0079c531659141344cd1fd0a4f28419497f9722a3daafe3b4186f6b6457e0600080a37f56b93a8e38195cdaee211df396a77bc4208055a0c0efbf73458ddca9d2809440918254161790556118bc90816101078239f35b600080fd5b634e487b7160e01b600052604160045260246000fdfe608060408181526004908136101561001657600080fd5b600092833560e01c90816301ffc9a714610e415750806304a33abf14610cbd5780630e1e66c614610c565780632093b28914610b5c5780632e0afd1214610b2e5780633a7626f414610afd5780633c2770bf1461082f5780634e7c19db146107e75780635bc890fd146105bd57806374f081ad146105835780637cc906a5146104fd5780638da5cb5b146104b5578063ab1445681461037b578063b83724131461031c578063ba649253146102f3578063bc197c811461026c578063c4453ade1461022d578063f23a6e61146101d45763f2fde38b146100f557600080fd5b346101d05760203660031901126101d05761010e610e95565b917f56b93a8e38195cdaee211df396a77bc4208055a0c0efbf73458ddca9d28094439081549360018060a01b0391828616948533036101825750501680936001600160601b0360a01b161790557f8be0079c531659141344cd1fd0a4f28419497f9722a3daafe3b4186f6b6457e08380a380f35b906020608492519162461bcd60e51b8352820152602260248201527f4c69624469616d6f6e643a204d75737420626520636f6e7472616374206f776e60448201526132b960f11b6064820152fd5b8280fd5b50823461022a5760a036600319011261022a576101ef610e95565b506101f8610eb0565b506084359067ffffffffffffffff821161022a575060209261021c91369101611039565b505163f23a6e6160e01b8152f35b80fd5b838234610268576020366003190112610268576020916001600160a01b0390829082610257610e95565b168152600285522054169051908152f35b5080fd5b50823461022a5760a036600319011261022a57610287610e95565b50610290610eb0565b5067ffffffffffffffff90604435828111610268576102b29036908601610fb6565b50606435828111610268576102ca9036908601610fb6565b5060843591821161022a57506020926102e591369101611039565b505163bc197c8160e01b8152f35b83823461026857816003193601126102685760055490516001600160a01b039091168152602090f35b8382346102685760203660031901126102685760809181906001600160a01b03610344610e95565b1681526003602052205481519167ffffffffffffffff80831684528083831c16602085015282851c169083015260c01c6060820152f35b50346101d05760203660031901126101d0576001600160a01b03918261039f610e95565b1691846103ab33610edc565b54843b15610268578251906306c1d0cf60e51b825284820152818160248183895af180156104ab57610493575b505060059380855416156000146104025750505050336001600160601b0360a01b82541617905580f35b856060835161041081610f78565b828152826020820152828582015201528061044c835161042f81610f78565b600381526003602082015260038582015260646060820152611225565b6104598288541682611783565b16928387526020528186206001600160601b0360a01b94858254161790558454168552600260205284209082825416179055815416905580f35b61049c90610f4e565b6104a75784386103d8565b8480fd5b83513d84823e3d90fd5b8382346102685781600319360112610268577f56b93a8e38195cdaee211df396a77bc4208055a0c0efbf73458ddca9d28094435490516001600160a01b039091168152602090f35b8382346102685760603660031901126102685761057f61051b610e95565b6024359261053861053361052d610ec6565b86611080565b61114f565b8385527f56b93a8e38195cdaee211df396a77bc4208055a0c0efbf73458ddca9d2809441602052842080546001600160a01b0319166001600160a01b038316179055610edc565b5580f35b5090346101d05760203660031901126101d0576020926001600160a01b0391839190836105ae610e95565b16825285522054169051908152f35b508290346102685780600319360112610268576105d8610e95565b906105e1610eb0565b60018060a01b0391828416918286528660205283808388205416911680910361079057828652600160205261061b60ff838820541661167f565b61062433610edc565b54813b1561078c57869160248392855194859384926306c1d0cf60e51b84528d8401525af180156107825790869161076e575b50506106633385611783565b3385526002602052842080546001600160a01b031916909117905561069261068a83610f15565b54151561167f565b7f56b93a8e38195cdaee211df396a77bc4208055a0c0efbf73458ddca9d28094448054600019929083810190811161075b576106ce82916111ba565b90549060031b1c16916106e085610f15565b549361070e846106ef876111ba565b90919082549060031b9160018060a01b03809116831b921b1916179055565b815480156107485792610742928897959261057f9795019161072f836111ba565b909182549160031b1b1916905555610f15565b55610f15565b634e487b7160e01b885260318952602488fd5b634e487b7160e01b865260118752602486fd5b61077790610f4e565b6104a7578487610657565b82513d88823e3d90fd5b8680fd5b815162461bcd60e51b8152602081890152602b60248201527f4d657263757279426964546163546f653a20636f6c6c656374696f6e20646f6560448201526a0e640dcdee840dac2e8c6d60ab1b6064820152608490fd5b8382346102685781600319360112610268577f56b93a8e38195cdaee211df396a77bc4208055a0c0efbf73458ddca9d28094405490516001600160a01b039091168152602090f35b508290346102685760603660031901126102685761084b610e95565b92610854610eb0565b9061085d610ec6565b903385526020926001845260ff858720541615610aa7576001600160a01b03878116875260028552858720549093908416331480610a94575b15610a2b57836108b1826108ab818b9c6116f9565b946116f9565b9116918651946331a9108f60e11b80875282868801528787602481885afa968715610a21578a97610a02575b508189519716837fb514304f90924de53edc4dc0c1d1ce8e8273631e1ebfb8acf104e9dcfee9d2378c80a3865282858701528686602481875afa9586156109f85789966109c9575b5087519516827f3c10bd743d673868ce07ec30c1855c1aa2b291ba8a59875598d2aa60a381cbc38a80a3823b156109c5578785936044938593839763dd7a2e8560e01b865285015260248401525af180156109b8579084916109a0575b505033835260018152818320805460ff191690556003905281205580f35b6109a990610f4e565b6109b4578285610982565b5050fd5b50505051903d90823e3d90fd5b8780fd5b6109ea919650873d89116109f1575b6109e28183610f94565b8101906116da565b948a610925565b503d6109d8565b88513d8b823e3d90fd5b610a1a919750883d8a116109f1576109e28183610f94565b958b6108dd565b89513d8c823e3d90fd5b855162461bcd60e51b8152808401869052603f60248201527f4d657263757279426964546163546f653a206275726e6572206164647265737360448201527f657320646f6573206e6f742062656c6f6e6720746f20746869732067616d65006064820152608490fd5b5083821687523384878920541614610896565b845162461bcd60e51b8152808301859052602a60248201527f4d657263757279426964546163546f653a206d73672e73656e646572206973206044820152696e6f7420612067616d6560b01b6064820152608490fd5b50823461022a578160031936011261022a5750610b25602092610b1e610eb0565b9035611080565b90519015158152f35b83823461026857602036600319011261026857602090610b54610b4f610e95565b610edc565b549051908152f35b5091903461026857602036600319011261026857610b78610e95565b60055493906001600160a01b03908186163303610bf65784956001600160601b0360a01b166005551691610bab33610edc565b54833b156104a757602485928385519687948593632d778c2d60e21b85528401525af1908115610bed5750610bdd5750f35b610be690610f4e565b61022a5780f35b513d84823e3d90fd5b825162461bcd60e51b8152602081860152603460248201527f4d657263757279426964546163546f653a206d73672e73656e646572206973206044820152736e6f7420696e2064656661756c7420717565756560601b6064820152608490fd5b5090346101d057816003193601126101d05735610c7d610533610c77610eb0565b83611080565b82527f56b93a8e38195cdaee211df396a77bc4208055a0c0efbf73458ddca9d2809441602052812080546001600160a01b03191690558061057f33610edc565b508290346102685760a03660031901126102685782359067ffffffffffffffff90818316809303610e3d57602435928284168094036104a75760443592808416809403610e3957606435908116809103610e39576001600160a01b03946084358681169591908690036109c557610d3333610edc565b54863b15610e35578551906306c1d0cf60e51b82528a8201528881602481838b5af18015610e2b57610e10575b5090610d89939291855193610d7485610f78565b84526020840152848301526060820152611225565b9283168452846020528320906001600160601b0360a01b8254161790557f56b93a8e38195cdaee211df396a77bc4208055a0c0efbf73458ddca9d280944480549081610dd484610f15565b5568010000000000000000821015610dfd57816106ef916001610dfa95940190556111ba565b80f35b634e487b7160e01b845260418552602484fd5b97610e21610d899594939299610f4e565b9790919293610d60565b86513d8b823e3d90fd5b8880fd5b8580fd5b8380fd5b849084346101d05760203660031901126101d0573563ffffffff60e01b81168091036101d05760209250630271189760e51b8114908115610e84575b5015158152f35b6301ffc9a760e01b14905083610e7d565b600435906001600160a01b0382168203610eab57565b600080fd5b602435906001600160a01b0382168203610eab57565b604435906001600160a01b0382168203610eab57565b6001600160a01b031660009081527f56b93a8e38195cdaee211df396a77bc4208055a0c0efbf73458ddca9d28094426020526040902090565b6001600160a01b031660009081527f56b93a8e38195cdaee211df396a77bc4208055a0c0efbf73458ddca9d28094456020526040902090565b67ffffffffffffffff8111610f6257604052565b634e487b7160e01b600052604160045260246000fd5b6080810190811067ffffffffffffffff821117610f6257604052565b90601f8019910116810190811067ffffffffffffffff821117610f6257604052565b9080601f83011215610eab5781359067ffffffffffffffff8211610f62578160051b60405193602093610feb85840187610f94565b85528380860192820101928311610eab578301905b82821061100e575050505090565b81358152908301908301611000565b67ffffffffffffffff8111610f6257601f01601f191660200190565b81601f82011215610eab578035906110508261101d565b9261105e6040519485610f94565b82845260208383010111610eab57816000926020809301838601378301015290565b60405163430c208160e01b815233600482015260248101829052916001600160a01b0391906020908490604490829086165afa92831561114357600093611105575b5082156110ce57505090565b9091506000527f56b93a8e38195cdaee211df396a77bc4208055a0c0efbf73458ddca9d28094416020523390604060002054161490565b6020939193813d821161113b575b8161112060209383610f94565b81010312610268575190811515820361022a575091386110c2565b3d9150611113565b6040513d6000823e3d90fd5b1561115657565b60405162461bcd60e51b815260206004820152603660248201527f4d65726375727947616d65426173653a2063616c6c6572206973206e6f7420746044820152751bdad95b881bdddb995c881bdc88185c1c1c9bdd995960521b6064820152608490fd5b7f56b93a8e38195cdaee211df396a77bc4208055a0c0efbf73458ddca9d2809444805482101561120f576000527fcff1514098614a8c5c2134136ae40e5bfe88801f734d5aab4af92430dce692fe0190600090565b634e487b7160e01b600052603260045260246000fd5b6000903382526020916002835260018060a01b03926040928484842054166116155767ffffffffffffffff94858251166003811490811561160a575b50156115ab578282019086825116600381149081156115a0575b50156115405785830191878351166003811015908161151a575b50156114b957606084019188835116606481101590816114ac575b501561144257875160b7808201908282108c831117611424579082916117d08339039088f0801561143857169787518681019063bfa4e24160e01b82528287511660248201528284511660448201528286511660648201528285511660848201523360a48201523060c482015260c48152610100810181811084821117611424578a52518891829190828d5af13d1561141f573d61134d8161101d565b9061135a8b519283610f94565b815288883d92013e5b156113e75788875260038652878720945191519351925193881b6fffffffffffffffff00000000000000001691161760809190911b67ffffffffffffffff60801b161760c09190911b6001600160c01b0319161790556001808252838320805460ff19169091179055338252600290522080546001600160a01b0319168217905590565b875162461bcd60e51b815260048101879052601160248201527018dc99585d194819d85b594819985a5b19607a1b6044820152606490fd5b611363565b634e487b7160e01b8a52604160045260248afd5b88513d89823e3d90fd5b875162461bcd60e51b815260048101879052603760248201527f4d657263757279426964546163546f65506172616d56657269666965723a206960448201527f6e697469616c42616c616e636520696e636f72726563740000000000000000006064820152608490fd5b61271091501115386112b0565b865162461bcd60e51b815260048101869052603460248201527f4d657263757279426964546163546f65506172616d56657269666965723a206c604482015273195b99dd1a151bd5da5b881a5b98dbdc9c9958dd60621b6064820152608490fd5b855183519192508a16908a168082106115385750905b111538611295565b905090611530565b855162461bcd60e51b815260048101859052603360248201527f4d657263757279426964546163546f65506172616d56657269666965723a20676044820152721c9a5912195a59da1d081a5b98dbdc9c9958dd606a1b6064820152608490fd5b60059150143861127b565b845162461bcd60e51b815260048101849052603260248201527f4d657263757279426964546163546f65506172616d56657269666965723a20676044820152711c9a5915da591d1a081a5b98dbdc9c9958dd60721b6064820152608490fd5b600591501438611261565b835162461bcd60e51b815260048101839052603b60248201527f4d657263757279426964546163546f653a20612067616d652068617320616c7260448201527f65616479206265656e20637265617465642062792063616c6c657200000000006064820152608490fd5b1561168657565b60405162461bcd60e51b815260206004820152602660248201527f4d657263757279426964546163546f653a206c6f62627920646f6573206e6f7460448201526508195e1a5cdd60d21b6064820152608490fd5b90816020910312610eab57516001600160a01b0381168103610eab5790565b60009291839061170883610edc565b54926001600160a01b03918216803b15610e3d578390602460405180998193632d778c2d60e21b83528960048401525af1958615611778576040949596611765575b5016815260026020522080546001600160a01b031916905590565b61177190939193610f4e565b913861174a565b6040513d85823e3d90fd5b6001600160a01b039081169190823b15610eab5760246000928360405195869485936302389a2960e41b85521660048401525af18015611143576117c45750565b6117cd90610f4e565b56fe60808060405234601457609d908161001a8239f35b600080fdfe60806040523615603a576000368180378080368173e9c5aace65088f875c001aa5f2a23d8e8fbdcc0e5af43d82803e156036573d90f35b3d90fd5b6000368180378080368173e9c5aace65088f875c001aa5f2a23d8e8fbdcc0e5af43d82803e156036573d90f3fea2646970667358221220a8ffbb4e93f5ccbf95f80d0bb7cfa06ea3575652d6e56d1e46c85706a88ed26664736f6c63430008130033a2646970667358221220c954d3544ce42acdd0ce96e58195fe7588f517d1bf1adeebfef90d0600ace95864736f6c63430008130033",
    "linkReferences": {}
  },
  "methodIdentifiers": {
    "approveForGame(address,uint256,address)": "7cc906a5",
    "burnerAddressToTokenId(address)": "2e0afd12",
    "componentIndex()": "4e7c19db",
    "createLobby(uint64,uint64,uint64,uint64,address)": "04a33abf",
    "createOrJoinDefault(address)": "ab144568",
    "defaultGameQueue()": "ba649253",
    "gamePerPlayer(address)": "c4453ade",
    "gameToCollection(address)": "74f081ad",
    "handleWinLoss(address,address,address)": "3c2770bf",
    "isApprovedForGame(uint256,address)": "3a7626f4",
    "joinLobby(address,address)": "5bc890fd",
    "onERC1155BatchReceived(address,address,uint256[],uint256[],bytes)": "bc197c81",
    "onERC1155Received(address,address,uint256,uint256,bytes)": "f23a6e61",
    "owner()": "8da5cb5b",
    "paramsPerGame(address)": "b8372413",
    "supportsInterface(bytes4)": "01ffc9a7",
    "transferOwnership(address)": "f2fde38b",
    "unapproveForGame(uint256,address)": "0e1e66c6",
    "withdrawFromQueue(address)": "2093b289"
  },
  "id": 8
}