{
  "abi": [
    {
      "inputs": [
        {
          "internalType": "address",
          "name": "_protocol",
          "type": "address"
        }
      ],
      "stateMutability": "nonpayable",
      "type": "constructor"
    },
    {
      "anonymous": false,
      "inputs": [
        {
          "indexed": true,
          "internalType": "uint256",
          "name": "tokenId",
          "type": "uint256"
        },
        {
          "indexed": true,
          "internalType": "address",
          "name": "user",
          "type": "address"
        }
      ],
      "name": "LoseGame",
      "type": "event"
    },
    {
      "anonymous": false,
      "inputs": [
        {
          "indexed": true,
          "internalType": "uint256",
          "name": "tokenId",
          "type": "uint256"
        },
        {
          "indexed": true,
          "internalType": "address",
          "name": "user",
          "type": "address"
        }
      ],
      "name": "WinGame",
      "type": "event"
    },
    {
      "inputs": [
        {
          "internalType": "address",
          "name": "burner",
          "type": "address"
        },
        {
          "internalType": "uint256",
          "name": "tokenId",
          "type": "uint256"
        },
        {
          "internalType": "contract MercuryBase",
          "name": "collection",
          "type": "address"
        }
      ],
      "name": "approveForGame",
      "outputs": [],
      "stateMutability": "nonpayable",
      "type": "function"
    },
    {
      "inputs": [
        {
          "internalType": "address",
          "name": "burner",
          "type": "address"
        }
      ],
      "name": "burnerAddressToTokenId",
      "outputs": [
        {
          "internalType": "uint256",
          "name": "",
          "type": "uint256"
        }
      ],
      "stateMutability": "view",
      "type": "function"
    },
    {
      "inputs": [],
      "name": "componentIndex",
      "outputs": [
        {
          "internalType": "contract ComponentIndex",
          "name": "",
          "type": "address"
        }
      ],
      "stateMutability": "view",
      "type": "function"
    },
    {
      "inputs": [
        {
          "internalType": "uint64",
          "name": "gridWidth",
          "type": "uint64"
        },
        {
          "internalType": "uint64",
          "name": "gridHeight",
          "type": "uint64"
        },
        {
          "internalType": "uint64",
          "name": "lengthToWin",
          "type": "uint64"
        },
        {
          "internalType": "uint64",
          "name": "initialBalance",
          "type": "uint64"
        },
        {
          "internalType": "address",
          "name": "collection",
          "type": "address"
        }
      ],
      "name": "createLobby",
      "outputs": [],
      "stateMutability": "nonpayable",
      "type": "function"
    },
    {
      "inputs": [
        {
          "internalType": "address",
          "name": "collection",
          "type": "address"
        }
      ],
      "name": "createOrJoinDefault",
      "outputs": [],
      "stateMutability": "nonpayable",
      "type": "function"
    },
    {
      "inputs": [
        {
          "internalType": "address",
          "name": "",
          "type": "address"
        }
      ],
      "name": "defaultGameQueue",
      "outputs": [
        {
          "internalType": "address",
          "name": "",
          "type": "address"
        }
      ],
      "stateMutability": "view",
      "type": "function"
    },
    {
      "inputs": [
        {
          "internalType": "address",
          "name": "",
          "type": "address"
        }
      ],
      "name": "gamePerPlayer",
      "outputs": [
        {
          "internalType": "address",
          "name": "",
          "type": "address"
        }
      ],
      "stateMutability": "view",
      "type": "function"
    },
    {
      "inputs": [
        {
          "internalType": "address",
          "name": "",
          "type": "address"
        }
      ],
      "name": "gameToCollection",
      "outputs": [
        {
          "internalType": "address",
          "name": "",
          "type": "address"
        }
      ],
      "stateMutability": "view",
      "type": "function"
    },
    {
      "inputs": [
        {
          "internalType": "address",
          "name": "winnerBurner",
          "type": "address"
        },
        {
          "internalType": "address",
          "name": "loserBurner",
          "type": "address"
        },
        {
          "internalType": "contract MercuryBase",
          "name": "collection",
          "type": "address"
        }
      ],
      "name": "handleWinLoss",
      "outputs": [],
      "stateMutability": "nonpayable",
      "type": "function"
    },
    {
      "inputs": [
        {
          "internalType": "uint256",
          "name": "tokenId",
          "type": "uint256"
        },
        {
          "internalType": "contract MercuryBase",
          "name": "collection",
          "type": "address"
        }
      ],
      "name": "isApprovedForGame",
      "outputs": [
        {
          "internalType": "bool",
          "name": "",
          "type": "bool"
        }
      ],
      "stateMutability": "view",
      "type": "function"
    },
    {
      "inputs": [
        {
          "internalType": "address",
          "name": "lobby",
          "type": "address"
        },
        {
          "internalType": "address",
          "name": "collection",
          "type": "address"
        }
      ],
      "name": "joinLobby",
      "outputs": [],
      "stateMutability": "nonpayable",
      "type": "function"
    },
    {
      "inputs": [
        {
          "internalType": "address",
          "name": "",
          "type": "address"
        },
        {
          "internalType": "address",
          "name": "",
          "type": "address"
        },
        {
          "internalType": "uint256[]",
          "name": "",
          "type": "uint256[]"
        },
        {
          "internalType": "uint256[]",
          "name": "",
          "type": "uint256[]"
        },
        {
          "internalType": "bytes",
          "name": "",
          "type": "bytes"
        }
      ],
      "name": "onERC1155BatchReceived",
      "outputs": [
        {
          "internalType": "bytes4",
          "name": "",
          "type": "bytes4"
        }
      ],
      "stateMutability": "nonpayable",
      "type": "function"
    },
    {
      "inputs": [
        {
          "internalType": "address",
          "name": "",
          "type": "address"
        },
        {
          "internalType": "address",
          "name": "",
          "type": "address"
        },
        {
          "internalType": "uint256",
          "name": "",
          "type": "uint256"
        },
        {
          "internalType": "uint256",
          "name": "",
          "type": "uint256"
        },
        {
          "internalType": "bytes",
          "name": "",
          "type": "bytes"
        }
      ],
      "name": "onERC1155Received",
      "outputs": [
        {
          "internalType": "bytes4",
          "name": "",
          "type": "bytes4"
        }
      ],
      "stateMutability": "nonpayable",
      "type": "function"
    },
    {
      "inputs": [],
      "name": "owner",
      "outputs": [
        {
          "internalType": "address",
          "name": "owner_",
          "type": "address"
        }
      ],
      "stateMutability": "view",
      "type": "function"
    },
    {
      "inputs": [
        {
          "internalType": "address",
          "name": "",
          "type": "address"
        }
      ],
      "name": "paramsPerGame",
      "outputs": [
        {
          "internalType": "uint64",
          "name": "gridWidth",
          "type": "uint64"
        },
        {
          "internalType": "uint64",
          "name": "gridHeight",
          "type": "uint64"
        },
        {
          "internalType": "uint64",
          "name": "lengthToWin",
          "type": "uint64"
        },
        {
          "internalType": "uint64",
          "name": "initialBalance",
          "type": "uint64"
        }
      ],
      "stateMutability": "view",
      "type": "function"
    },
    {
      "inputs": [
        {
          "internalType": "bytes4",
          "name": "interfaceId",
          "type": "bytes4"
        }
      ],
      "name": "supportsInterface",
      "outputs": [
        {
          "internalType": "bool",
          "name": "",
          "type": "bool"
        }
      ],
      "stateMutability": "view",
      "type": "function"
    },
    {
      "inputs": [
        {
          "internalType": "address",
          "name": "_newOwner",
          "type": "address"
        }
      ],
      "name": "transferOwnership",
      "outputs": [],
      "stateMutability": "nonpayable",
      "type": "function"
    },
    {
      "inputs": [
        {
          "internalType": "uint256",
          "name": "tokenId",
          "type": "uint256"
        },
        {
          "internalType": "contract MercuryBase",
          "name": "collection",
          "type": "address"
        }
      ],
      "name": "unapproveForGame",
      "outputs": [],
      "stateMutability": "nonpayable",
      "type": "function"
    },
    {
      "inputs": [
        {
          "internalType": "address",
          "name": "collection",
          "type": "address"
        }
      ],
      "name": "withdrawFromQueue",
      "outputs": [],
      "stateMutability": "nonpayable",
      "type": "function"
    }
  ],
  "bytecode": {
    "object": "0x6080346100eb57601f6119f038819003918201601f19168301916001600160401b038311848410176100f0578084926020946040528339810103126100eb57516001600160a01b0390818116908190036100eb577f56b93a8e38195cdaee211df396a77bc4208055a0c0efbf73458ddca9d280944280546001600160a01b0319808216339081179093556040519490939291167f8be0079c531659141344cd1fd0a4f28419497f9722a3daafe3b4186f6b6457e0600080a37f56b93a8e38195cdaee211df396a77bc4208055a0c0efbf73458ddca9d2809440918254161790556118e990816101078239f35b600080fd5b634e487b7160e01b600052604160045260246000fdfe608060408181526004908136101561001657600080fd5b600092833560e01c90816301ffc9a714610e735750806304a33abf14610d015780630e1e66c614610c9a5780632093b28914610b8b5780632e0afd1214610b5d5780633a7626f414610b2c5780633c2770bf146108645780634e7c19db1461081c5780635bc890fd146105ee57806374f081ad146105b35780637cc906a51461052d5780638da5cb5b146104e5578063ab1445681461038c578063ae4ea72114610352578063b8372413146102f3578063bc197c811461026c578063c4453ade1461022d578063f23a6e61146101d45763f2fde38b146100f557600080fd5b346101d05760203660031901126101d05761010e610ec7565b917f56b93a8e38195cdaee211df396a77bc4208055a0c0efbf73458ddca9d28094429081549360018060a01b0391828616948533036101825750501680936001600160601b0360a01b161790557f8be0079c531659141344cd1fd0a4f28419497f9722a3daafe3b4186f6b6457e08380a380f35b906020608492519162461bcd60e51b8352820152602260248201527f4c69624469616d6f6e643a204d75737420626520636f6e7472616374206f776e60448201526132b960f11b6064820152fd5b8280fd5b50823461022a5760a036600319011261022a576101ef610ec7565b506101f8610ee2565b506084359067ffffffffffffffff821161022a575060209261021c913691016110a4565b505163f23a6e6160e01b8152f35b80fd5b838234610268576020366003190112610268576020916001600160a01b0390829082610257610ec7565b168152600185522054169051908152f35b5080fd5b50823461022a5760a036600319011261022a57610287610ec7565b50610290610ee2565b5067ffffffffffffffff90604435828111610268576102b29036908601611021565b50606435828111610268576102ca9036908601611021565b5060843591821161022a57506020926102e5913691016110a4565b505163bc197c8160e01b8152f35b8382346102685760203660031901126102685760809181906001600160a01b0361031b610ec7565b1681526002602052205481519167ffffffffffffffff80831684528083831c16602085015282851c169083015260c01c6060820152f35b5090346101d05760203660031901126101d0576020926001600160a01b03918391908361037d610ec7565b16825285522054169051908152f35b5090346101d0576020806003193601126104e1576001600160a01b03806103b1610ec7565b1690856103bd33610f0e565b54833b15610268578651906306c1d0cf60e51b825286820152818160248183885af180156104d7576104bf575b508290528383528486205481166104145750845252812080546001600160a01b0319163317905580f35b93929190856060855161042681610fe3565b82815282858201528287820152015284610460855161044481610fe3565b6003815260038582015260038782015260646060820152611253565b82885284845261047582878a205416826117b0565b1680875260038352848720956001600160601b0360a01b96838882541617905582885284845285882054168752600183528487209086825416179055855252822090815416905580f35b6104c890610fb9565b6104d35785386103ea565b8580fd5b87513d84823e3d90fd5b8380fd5b8382346102685781600319360112610268577f56b93a8e38195cdaee211df396a77bc4208055a0c0efbf73458ddca9d28094425490516001600160a01b039091168152602090f35b838234610268576060366003190112610268576105af61054b610ec7565b6024359261056861056361055d610ef8565b866110eb565b6111ba565b8385527f56b93a8e38195cdaee211df396a77bc4208055a0c0efbf73458ddca9d2809441602052842080546001600160a01b0319166001600160a01b038316179055610f0e565b5580f35b838234610268576020366003190112610268576020916001600160a01b03908290826105dd610ec7565b168152600385522054169051908152f35b50829034610268578060031936011261026857610609610ec7565b90610612610ee2565b9060018060a01b03908184169081865260036020528281872054168385168091036107c5578287528660205261064d60ff83892054166116ac565b61065633610f0e565b54813b156107c157879060248a83865195869485936306c1d0cf60e51b85528401525af180156107b7579087916107a3575b505061069433866117b0565b3386526001602052852080546001600160a01b03191690911790556106c36106bb84610f80565b5415156116ac565b6106cc82610f47565b906106d683610f47565b54600019928382019182116107905782916106f091611225565b90549060031b1c169161074161070586610f80565b549461073c8561071d8861071885610f47565b611225565b90919082549060031b9160018060a01b03809116831b921b1916179055565b610f47565b908154801561077d579261077792889795926105af979501916107648383611225565b909182549160031b1b1916905555610f80565b55610f80565b634e487b7160e01b885260318952602488fd5b634e487b7160e01b875260118852602487fd5b6107ac90610fb9565b6104d3578588610688565b82513d89823e3d90fd5b8780fd5b815162461bcd60e51b81526020818a0152602b60248201527f4d657263757279426964546163546f653a20636f6c6c656374696f6e20646f6560448201526a0e640dcdee840dac2e8c6d60ab1b6064820152608490fd5b8382346102685781600319360112610268577f56b93a8e38195cdaee211df396a77bc4208055a0c0efbf73458ddca9d28094405490516001600160a01b039091168152602090f35b5082903461026857606036600319011261026857610880610ec7565b92610889610ee2565b90610892610ef8565b9033855260209285845260ff858720541615610ad6576001600160a01b03878116875260018552858720549093908416331480610ac3575b15610a5a57836108e5826108df818b9c611726565b94611726565b9116918651946331a9108f60e11b80875282868801528787602481885afa968715610a50578a97610a31575b508189519716837fb514304f90924de53edc4dc0c1d1ce8e8273631e1ebfb8acf104e9dcfee9d2378c80a3865282858701528686602481875afa958615610a275789966109f8575b5087519516827f3c10bd743d673868ce07ec30c1855c1aa2b291ba8a59875598d2aa60a381cbc38a80a3823b156107c1578785936044938593839763dd7a2e8560e01b865285015260248401525af180156109eb579084916109d3575b5050338352828152818320805460ff191690556002905281205580f35b6109dc90610fb9565b6109e75782856109b6565b5050fd5b50505051903d90823e3d90fd5b610a19919650873d8911610a20575b610a118183610fff565b810190611707565b948a610959565b503d610a07565b88513d8b823e3d90fd5b610a49919750883d8a11610a2057610a118183610fff565b958b610911565b89513d8c823e3d90fd5b855162461bcd60e51b8152808401869052603f60248201527f4d657263757279426964546163546f653a206275726e6572206164647265737360448201527f657320646f6573206e6f742062656c6f6e6720746f20746869732067616d65006064820152608490fd5b50838216875233848789205416146108ca565b845162461bcd60e51b8152808301859052602a60248201527f4d657263757279426964546163546f653a206d73672e73656e646572206973206044820152696e6f7420612067616d6560b01b6064820152608490fd5b50823461022a578160031936011261022a5750610b54602092610b4d610ee2565b90356110eb565b90519015158152f35b83823461026857602036600319011261026857602090610b83610b7e610ec7565b610f0e565b549051908152f35b50919034610268576020366003190112610268576001600160a01b039081610bb1610ec7565b16918284528160205284842054163303610c3a57928293828452806020528184206001600160601b0360a01b8154169055610beb33610f0e565b54833b15610c3657602485928385519687948593632d778c2d60e21b85528401525af1908115610c2d5750610c1d5750f35b610c2690610fb9565b61022a5780f35b513d84823e3d90fd5b8480fd5b608490602085519162461bcd60e51b8352820152603460248201527f4d657263757279426964546163546f653a206d73672e73656e646572206973206044820152736e6f7420696e2064656661756c7420717565756560601b6064820152fd5b5090346101d057816003193601126101d05735610cc1610563610cbb610ee2565b836110eb565b82527f56b93a8e38195cdaee211df396a77bc4208055a0c0efbf73458ddca9d2809441602052812080546001600160a01b0319169055806105af33610f0e565b50823461022a5760a036600319011261022a57823567ffffffffffffffff908181168091036101d057602435938285168095036104e15760443590838216809203610c3657606435938416809403610c36576001600160a01b039360843593858516939091908486036107c157610d7733610f0e565b54853b15610e6f578451906306c1d0cf60e51b82528b8201528881602481838a5af18015610e6557610e46575b5090610dd29291610e08979899855193610dbd85610fe3565b84526020840152848301526060820152611253565b94851686526003602052852080546001600160a01b0319169091179055610df881610f47565b54610e0284610f80565b55610f47565b80549068010000000000000000821015610e33578161071d916001610e309594018155611225565b80f35b634e487b7160e01b845260418552602484fd5b90610e089798610e5a610dd2959493610fb9565b989750909192610da4565b85513d8b823e3d90fd5b8880fd5b849084346101d05760203660031901126101d0573563ffffffff60e01b81168091036101d05760209250630271189760e51b8114908115610eb6575b5015158152f35b6301ffc9a760e01b14905083610eaf565b600435906001600160a01b0382168203610edd57565b600080fd5b602435906001600160a01b0382168203610edd57565b604435906001600160a01b0382168203610edd57565b6001600160a01b031660009081527f56b93a8e38195cdaee211df396a77bc4208055a0c0efbf73458ddca9d28094456020526040902090565b6001600160a01b031660009081527f56b93a8e38195cdaee211df396a77bc4208055a0c0efbf73458ddca9d28094436020526040902090565b6001600160a01b031660009081527f56b93a8e38195cdaee211df396a77bc4208055a0c0efbf73458ddca9d28094446020526040902090565b67ffffffffffffffff8111610fcd57604052565b634e487b7160e01b600052604160045260246000fd5b6080810190811067ffffffffffffffff821117610fcd57604052565b90601f8019910116810190811067ffffffffffffffff821117610fcd57604052565b9080601f83011215610edd5781359067ffffffffffffffff8211610fcd578160051b6040519360209361105685840187610fff565b85528380860192820101928311610edd578301905b828210611079575050505090565b8135815290830190830161106b565b67ffffffffffffffff8111610fcd57601f01601f191660200190565b81601f82011215610edd578035906110bb82611088565b926110c96040519485610fff565b82845260208383010111610edd57816000926020809301838601378301015290565b60405163430c208160e01b815233600482015260248101829052916001600160a01b0391906020908490604490829086165afa9283156111ae57600093611170575b50821561113957505090565b9091506000527f56b93a8e38195cdaee211df396a77bc4208055a0c0efbf73458ddca9d28094416020523390604060002054161490565b6020939193813d82116111a6575b8161118b60209383610fff565b81010312610268575190811515820361022a5750913861112d565b3d915061117e565b6040513d6000823e3d90fd5b156111c157565b60405162461bcd60e51b815260206004820152603660248201527f4d65726375727947616d65426173653a2063616c6c6572206973206e6f7420746044820152751bdad95b881bdddb995c881bdc88185c1c1c9bdd995960521b6064820152608490fd5b805482101561123d5760005260206000200190600090565b634e487b7160e01b600052603260045260246000fd5b6000903382526020916001835260018060a01b03926040928484842054166116425767ffffffffffffffff948582511660038114908115611637575b50156115d8578282019086825116600381149081156115cd575b501561156d57858301918783511660038110159081611547575b50156114e657606084019188835116606481101590816114d9575b501561146f57875160b7808201908282108c831117611451579082916117fd8339039088f0801561146557169787518681019063bfa4e24160e01b82528287511660248201528284511660448201528286511660648201528285511660848201523360a48201523060c482015260c48152610100810181811084821117611451578a52518891829190828d5af13d1561144c573d61137b81611088565b906113888b519283610fff565b815288883d92013e5b156114145788875260028652878720945191519351925193881b6fffffffffffffffff00000000000000001691161760809190911b67ffffffffffffffff60801b161760c09190911b6001600160c01b031916179055818152828220805460ff1916600190811790915533835290522080546001600160a01b0319168217905590565b875162461bcd60e51b815260048101879052601160248201527018dc99585d194819d85b594819985a5b19607a1b6044820152606490fd5b611391565b634e487b7160e01b8a52604160045260248afd5b88513d89823e3d90fd5b875162461bcd60e51b815260048101879052603760248201527f4d657263757279426964546163546f65506172616d56657269666965723a206960448201527f6e697469616c42616c616e636520696e636f72726563740000000000000000006064820152608490fd5b61271091501115386112de565b865162461bcd60e51b815260048101869052603460248201527f4d657263757279426964546163546f65506172616d56657269666965723a206c604482015273195b99dd1a151bd5da5b881a5b98dbdc9c9958dd60621b6064820152608490fd5b855183519192508a16908a168082106115655750905b1115386112c3565b90509061155d565b855162461bcd60e51b815260048101859052603360248201527f4d657263757279426964546163546f65506172616d56657269666965723a20676044820152721c9a5912195a59da1d081a5b98dbdc9c9958dd606a1b6064820152608490fd5b6005915014386112a9565b845162461bcd60e51b815260048101849052603260248201527f4d657263757279426964546163546f65506172616d56657269666965723a20676044820152711c9a5915da591d1a081a5b98dbdc9c9958dd60721b6064820152608490fd5b60059150143861128f565b835162461bcd60e51b815260048101839052603b60248201527f4d657263757279426964546163546f653a20612067616d652068617320616c7260448201527f65616479206265656e20637265617465642062792063616c6c657200000000006064820152608490fd5b156116b357565b60405162461bcd60e51b815260206004820152602660248201527f4d657263757279426964546163546f653a206c6f62627920646f6573206e6f7460448201526508195e1a5cdd60d21b6064820152608490fd5b90816020910312610edd57516001600160a01b0381168103610edd5790565b60009291839061173583610f0e565b54926001600160a01b03918216803b156104e1578390602460405180998193632d778c2d60e21b83528960048401525af19586156117a5576040949596611792575b5016815260016020522080546001600160a01b031916905590565b61179e90939193610fb9565b9138611777565b6040513d85823e3d90fd5b6001600160a01b039081169190823b15610edd5760246000928360405195869485936302389a2960e41b85521660048401525af180156111ae576117f15750565b6117fa90610fb9565b56fe60808060405234601457609d908161001a8239f35b600080fdfe60806040523615603a576000368180378080368173e9c5aace65088f875c001aa5f2a23d8e8fbdcc0e5af43d82803e156036573d90f35b3d90fd5b6000368180378080368173e9c5aace65088f875c001aa5f2a23d8e8fbdcc0e5af43d82803e156036573d90f3fea2646970667358221220a8ffbb4e93f5ccbf95f80d0bb7cfa06ea3575652d6e56d1e46c85706a88ed26664736f6c63430008130033a26469706673582212203177686d6dcb179769bcfc94395691d4151a0c4f0da0c97b9c5947df0794851a64736f6c63430008130033",
    "linkReferences": {}
  },
  "methodIdentifiers": {
    "approveForGame(address,uint256,address)": "7cc906a5",
    "burnerAddressToTokenId(address)": "2e0afd12",
    "componentIndex()": "4e7c19db",
    "createLobby(uint64,uint64,uint64,uint64,address)": "04a33abf",
    "createOrJoinDefault(address)": "ab144568",
    "defaultGameQueue(address)": "ae4ea721",
    "gamePerPlayer(address)": "c4453ade",
    "gameToCollection(address)": "74f081ad",
    "handleWinLoss(address,address,address)": "3c2770bf",
    "isApprovedForGame(uint256,address)": "3a7626f4",
    "joinLobby(address,address)": "5bc890fd",
    "onERC1155BatchReceived(address,address,uint256[],uint256[],bytes)": "bc197c81",
    "onERC1155Received(address,address,uint256,uint256,bytes)": "f23a6e61",
    "owner()": "8da5cb5b",
    "paramsPerGame(address)": "b8372413",
    "supportsInterface(bytes4)": "01ffc9a7",
    "transferOwnership(address)": "f2fde38b",
    "unapproveForGame(uint256,address)": "0e1e66c6",
    "withdrawFromQueue(address)": "2093b289"
  },
  "id": 536
}