{
  "abi": [
    {
      "inputs": [],
      "name": "disableReentrancy",
      "outputs": [],
      "stateMutability": "nonpayable",
      "type": "function"
    },
    {
      "inputs": [
        {
          "internalType": "address",
          "name": "target",
          "type": "address"
        },
        {
          "internalType": "bytes",
          "name": "data",
          "type": "bytes"
        }
      ],
      "name": "enableRentrancy",
      "outputs": [],
      "stateMutability": "nonpayable",
      "type": "function"
    },
    {
      "inputs": [],
      "name": "reenter",
      "outputs": [],
      "stateMutability": "nonpayable",
      "type": "function"
    }
  ],
  "bytecode": {
    "object": "0x6080806040523461001657610547908161001c8239f35b600080fdfe604060808152600436101561001357600080fd5b600090813560e01c9081633654421b1461021a578163a0fe97e314610065575063cc23fb1c1461004257600080fd5b34610062578060031936011261006257600160ff19600254161760025580f35b80fd5b823461006257806003193601126100625760025460ff811615610086575080f35b600160ff1991821681176002558254845182549290916001600160a01b03169082866100b1866103cb565b92838352602096878085019983831692836000146101ff575050506001146101a6575b506100e192500383610405565b85519367ffffffffffffffff9285880184811187821017610192578852601e86527f416464726573733a206c6f772d6c6576656c2063616c6c206661696c656400008587015251869182919082855af1913d15610181573d90811161016d576101689596519061015a85601f19601f8401160183610405565b81528681943d92013e61043d565b508080f35b634e487b7160e01b86526041600452602486fd5b50915061016893945060609161043d565b634e487b7160e01b88526041600452602488fd5b80895286915088907fb10e2d527612073b26eecdfd717e6a320cf44b4afac2b0732d9fcbe2b7fa0cf65b8583106101e75750506100e19350820101896100d4565b805483890185015287945088939092019181016101d0565b168a526100e195151560051b85010192508b91506100d49050565b9050346103c757366003190112610062576004356001600160a01b03811691908290036100625760249182359067ffffffffffffffff908183116103c357366023840112156103c35782600401359182116103c357368583850101116103c3576bffffffffffffffffffffffff60a01b84541617835560019161029d83546103cb565b601f8111610361575b508390601f83116001146102e55790849591839495936102d8575b505050600019600383901b1c191690821b17905580f35b01013590503880806102c1565b601f198316957fb10e2d527612073b26eecdfd717e6a320cf44b4afac2b0732d9fcbe2b7fa0cf692865b8881106103495750848697981061032d575b50505050811b01905580f35b60001960f88660031b161c199201013516905538808080610321565b8382018301358555938601936020918201910161030f565b7fb10e2d527612073b26eecdfd717e6a320cf44b4afac2b0732d9fcbe2b7fa0cf6601f840160051c810191602085106103b9575b601f0160051c019084905b8281106103ae5750506102a6565b8681550184906103a0565b9091508190610395565b8380fd5b5080fd5b90600182811c921680156103fb575b60208310146103e557565b634e487b7160e01b600052602260045260246000fd5b91607f16916103da565b90601f8019910116810190811067ffffffffffffffff82111761042757604052565b634e487b7160e01b600052604160045260246000fd5b9192901561049f5750815115610451575090565b3b1561045a5790565b60405162461bcd60e51b815260206004820152601d60248201527f416464726573733a2063616c6c20746f206e6f6e2d636f6e74726163740000006044820152606490fd5b8251909150156104b25750805190602001fd5b6040519062461bcd60e51b82528160208060048301528251908160248401526000935b8285106104f8575050604492506000838284010152601f80199101168101030190fd5b84810182015186860160440152938101938593506104d556fea26469706673582212204afb6d56cac48e07ba70e3a5403cd52ec76805d4eb197c847eb6fb38ef3c9bd464736f6c63430008130033",
    "linkReferences": {}
  },
  "methodIdentifiers": {
    "disableReentrancy()": "cc23fb1c",
    "enableRentrancy(address,bytes)": "3654421b",
    "reenter()": "a0fe97e3"
  },
  "id": 71
}