{
  "abi": [
    {
      "inputs": [
        {
          "internalType": "address",
          "name": "beneficiaryAddress",
          "type": "address"
        },
        {
          "internalType": "uint64",
          "name": "startTimestamp",
          "type": "uint64"
        },
        {
          "internalType": "uint64",
          "name": "durationSeconds",
          "type": "uint64"
        }
      ],
      "stateMutability": "payable",
      "type": "constructor"
    },
    {
      "anonymous": false,
      "inputs": [
        {
          "indexed": true,
          "internalType": "address",
          "name": "token",
          "type": "address"
        },
        {
          "indexed": false,
          "internalType": "uint256",
          "name": "amount",
          "type": "uint256"
        }
      ],
      "name": "ERC20Released",
      "type": "event"
    },
    {
      "anonymous": false,
      "inputs": [
        {
          "indexed": false,
          "internalType": "uint256",
          "name": "amount",
          "type": "uint256"
        }
      ],
      "name": "EtherReleased",
      "type": "event"
    },
    {
      "inputs": [],
      "name": "beneficiary",
      "outputs": [
        {
          "internalType": "address",
          "name": "",
          "type": "address"
        }
      ],
      "stateMutability": "view",
      "type": "function"
    },
    {
      "inputs": [],
      "name": "duration",
      "outputs": [
        {
          "internalType": "uint256",
          "name": "",
          "type": "uint256"
        }
      ],
      "stateMutability": "view",
      "type": "function"
    },
    {
      "inputs": [
        {
          "internalType": "address",
          "name": "token",
          "type": "address"
        }
      ],
      "name": "releasable",
      "outputs": [
        {
          "internalType": "uint256",
          "name": "",
          "type": "uint256"
        }
      ],
      "stateMutability": "view",
      "type": "function"
    },
    {
      "inputs": [],
      "name": "releasable",
      "outputs": [
        {
          "internalType": "uint256",
          "name": "",
          "type": "uint256"
        }
      ],
      "stateMutability": "view",
      "type": "function"
    },
    {
      "inputs": [
        {
          "internalType": "address",
          "name": "token",
          "type": "address"
        }
      ],
      "name": "release",
      "outputs": [],
      "stateMutability": "nonpayable",
      "type": "function"
    },
    {
      "inputs": [],
      "name": "release",
      "outputs": [],
      "stateMutability": "nonpayable",
      "type": "function"
    },
    {
      "inputs": [],
      "name": "released",
      "outputs": [
        {
          "internalType": "uint256",
          "name": "",
          "type": "uint256"
        }
      ],
      "stateMutability": "view",
      "type": "function"
    },
    {
      "inputs": [
        {
          "internalType": "address",
          "name": "token",
          "type": "address"
        }
      ],
      "name": "released",
      "outputs": [
        {
          "internalType": "uint256",
          "name": "",
          "type": "uint256"
        }
      ],
      "stateMutability": "view",
      "type": "function"
    },
    {
      "inputs": [],
      "name": "start",
      "outputs": [
        {
          "internalType": "uint256",
          "name": "",
          "type": "uint256"
        }
      ],
      "stateMutability": "view",
      "type": "function"
    },
    {
      "inputs": [
        {
          "internalType": "uint64",
          "name": "timestamp",
          "type": "uint64"
        }
      ],
      "name": "vestedAmount",
      "outputs": [
        {
          "internalType": "uint256",
          "name": "",
          "type": "uint256"
        }
      ],
      "stateMutability": "view",
      "type": "function"
    },
    {
      "inputs": [
        {
          "internalType": "address",
          "name": "token",
          "type": "address"
        },
        {
          "internalType": "uint64",
          "name": "timestamp",
          "type": "uint64"
        }
      ],
      "name": "vestedAmount",
      "outputs": [
        {
          "internalType": "uint256",
          "name": "",
          "type": "uint256"
        }
      ],
      "stateMutability": "view",
      "type": "function"
    },
    {
      "stateMutability": "payable",
      "type": "receive"
    }
  ],
  "bytecode": {
    "object": "0x60e0601f610a6c38819003918201601f19168301916001600160401b03831184841017610118578084926060946040528339810103126101135780516001600160a01b038116919082810361011357610066604061005f6020850161012e565b930161012e565b92156100bb5760805260a05260c0526040516109299081610143823960805181818161021c0152818161035c0152610411015260a0518181816101090152610736015260c051818181610579015261076b0152f35b60405162461bcd60e51b815260206004820152602a60248201527f56657374696e6757616c6c65743a2062656e6566696369617279206973207a65604482015269726f206164647265737360b01b6064820152608490fd5b600080fd5b634e487b7160e01b600052604160045260246000fd5b51906001600160401b03821682036101135756fe60406080815260049081361015610020575b5050361561001e57600080fd5b005b600091823560e01c9081630a17b06b1461059d5781630fb5a6b414610558578163191655871461038b57816338af3eed14610347578163810ec23b1461030857816386d1a69f146101a55750806396132521146101895780639852595c14610152578063a3f8eace1461012d578063be9a6555146100e95763fbccedae0361001157346100e557816003193601126100e5576100de6020926100d9479154916100d48367ffffffffffffffff42169261064e565b610727565b6105f0565b9051908152f35b5080fd5b50346100e557816003193601126100e5576020905167ffffffffffffffff7f0000000000000000000000000000000000000000000000000000000000000000168152f35b50346100e55760203660031901126100e5576020906100de61014d6105d5565b610613565b50346100e55760203660031901126100e55760209181906001600160a01b036101796105d5565b1681526001845220549051908152f35b50346100e557816003193601126100e557602091549051908152f35b9190503461030457826003193601126103045782546101e06101d9826100d94267ffffffffffffffff166100d4834761064e565b809261064e565b84557fda9d4e5f101b8b9b1c5b76d0c5a9f7923571acfc02376aa076b75a8c080c956b60208351838152a18047106102c15783908190819081907f00000000000000000000000000000000000000000000000000000000000000006001600160a01b03165af161024e6107df565b5015610258578280f35b906020608492519162461bcd60e51b8352820152603a60248201527f416464726573733a20756e61626c6520746f2073656e642076616c75652c207260448201527f6563697069656e74206d617920686176652072657665727465640000000000006064820152fd5b815162461bcd60e51b8152602081850152601d60248201527f416464726573733a20696e73756666696369656e742062616c616e63650000006044820152606490fd5b8280fd5b5050346100e557806003193601126100e5576103226105d5565b6024359267ffffffffffffffff8416840361034457506020926100de91610693565b80fd5b5050346100e557816003193601126100e557517f00000000000000000000000000000000000000000000000000000000000000006001600160a01b03168152602090f35b919050346103045760209081600319360112610554576103a96105d5565b6103b281610613565b9060018060a01b0380911690818752600185528387206103d384825461064e565b9055817fc0e523490dd523c33b1878c9eb14ff46991e3f5b2cd33710918618f2a39cba1b868651868152a28351928584019163a9059cbb60e01b83527f0000000000000000000000000000000000000000000000000000000000000000166024850152604484015260448352608083019267ffffffffffffffff818510818611176105415760c08201908111858210176105415785528584527f5361666545524332303a206c6f772d6c6576656c2063616c6c206661696c656460a0820152516104af9392918891829182855af16104a96107df565b9161081f565b805183811591821561051d575b50509050156104c9578380f35b5162461bcd60e51b815291820152602a60248201527f5361666545524332303a204552433230206f7065726174696f6e20646964206e6044820152691bdd081cdd58d8d9595960b21b606482015260849150fd5b838092935001031261053d57820151801515810361053d578083386104bc565b8480fd5b634e487b7160e01b895260418852602489fd5b8380fd5b5050346100e557816003193601126100e5576020905167ffffffffffffffff7f0000000000000000000000000000000000000000000000000000000000000000168152f35b905034610304576020366003190112610304573567ffffffffffffffff81168103610304576100de906100d46020944790549061064e565b600435906001600160a01b03821682036105eb57565b600080fd5b919082039182116105fd57565b634e487b7160e01b600052601160045260246000fd5b61064b9061062b67ffffffffffffffff421682610693565b6001600160a01b03909116600090815260016020526040902054906105f0565b90565b919082018092116105fd57565b90601f8019910116810190811067ffffffffffffffff82111761067d57604052565b634e487b7160e01b600052604160045260246000fd5b6040516370a0823160e01b8152306004820152906001600160a01b0316602082602481845afa91821561071b576000926106e6575b5061064b92916100d49160005260016020526040600020549061064e565b90916020823d8211610713575b816107006020938361065b565b81010312610344575051906100d46106c8565b3d91506106f3565b6040513d6000823e3d90fd5b67ffffffffffffffff918216917f0000000000000000000000000000000000000000000000000000000000000000811690818410156107695750505050600090565b7f00000000000000000000000000000000000000000000000000000000000000001692610796848361064e565b8111156107a4575050905090565b906107ae916105f0565b908181029181830414901517156105fd5781156107c9570490565b634e487b7160e01b600052601260045260246000fd5b3d1561081a573d9067ffffffffffffffff821161067d576040519161080e601f8201601f19166020018461065b565b82523d6000602084013e565b606090565b919290156108815750815115610833575090565b3b1561083c5790565b60405162461bcd60e51b815260206004820152601d60248201527f416464726573733a2063616c6c20746f206e6f6e2d636f6e74726163740000006044820152606490fd5b8251909150156108945750805190602001fd5b6040519062461bcd60e51b82528160208060048301528251908160248401526000935b8285106108da575050604492506000838284010152601f80199101168101030190fd5b84810182015186860160440152938101938593506108b756fea2646970667358221220fb94a8c2d1d093ebd2b1733bf450fd1ccb19e79f69ef34328db21ec61cc78cf264736f6c63430008130033",
    "linkReferences": {}
  },
  "methodIdentifiers": {
    "beneficiary()": "38af3eed",
    "duration()": "0fb5a6b4",
    "releasable()": "fbccedae",
    "releasable(address)": "a3f8eace",
    "release()": "86d1a69f",
    "release(address)": "19165587",
    "released()": "96132521",
    "released(address)": "9852595c",
    "start()": "be9a6555",
    "vestedAmount(address,uint64)": "810ec23b",
    "vestedAmount(uint64)": "0a17b06b"
  },
  "id": 21
}