{
  "abi": [
    {
      "inputs": [
        {
          "internalType": "string",
          "name": "tokenName",
          "type": "string"
        }
      ],
      "stateMutability": "nonpayable",
      "type": "constructor"
    },
    {
      "inputs": [],
      "name": "ECDSA__InvalidS",
      "type": "error"
    },
    {
      "inputs": [],
      "name": "ECDSA__InvalidSignature",
      "type": "error"
    },
    {
      "inputs": [],
      "name": "ECDSA__InvalidV",
      "type": "error"
    },
    {
      "inputs": [],
      "name": "ERC20Base__ApproveFromZeroAddress",
      "type": "error"
    },
    {
      "inputs": [],
      "name": "ERC20Base__ApproveToZeroAddress",
      "type": "error"
    },
    {
      "inputs": [],
      "name": "ERC20Base__BurnExceedsBalance",
      "type": "error"
    },
    {
      "inputs": [],
      "name": "ERC20Base__BurnFromZeroAddress",
      "type": "error"
    },
    {
      "inputs": [],
      "name": "ERC20Base__InsufficientAllowance",
      "type": "error"
    },
    {
      "inputs": [],
      "name": "ERC20Base__MintToZeroAddress",
      "type": "error"
    },
    {
      "inputs": [],
      "name": "ERC20Base__TransferExceedsBalance",
      "type": "error"
    },
    {
      "inputs": [],
      "name": "ERC20Base__TransferFromZeroAddress",
      "type": "error"
    },
    {
      "inputs": [],
      "name": "ERC20Base__TransferToZeroAddress",
      "type": "error"
    },
    {
      "inputs": [],
      "name": "ERC20Permit__ExpiredDeadline",
      "type": "error"
    },
    {
      "inputs": [],
      "name": "ERC20Permit__InvalidSignature",
      "type": "error"
    },
    {
      "anonymous": false,
      "inputs": [
        {
          "indexed": true,
          "internalType": "address",
          "name": "owner",
          "type": "address"
        },
        {
          "indexed": true,
          "internalType": "address",
          "name": "spender",
          "type": "address"
        },
        {
          "indexed": false,
          "internalType": "uint256",
          "name": "value",
          "type": "uint256"
        }
      ],
      "name": "Approval",
      "type": "event"
    },
    {
      "anonymous": false,
      "inputs": [
        {
          "indexed": true,
          "internalType": "address",
          "name": "from",
          "type": "address"
        },
        {
          "indexed": true,
          "internalType": "address",
          "name": "to",
          "type": "address"
        },
        {
          "indexed": false,
          "internalType": "uint256",
          "name": "value",
          "type": "uint256"
        }
      ],
      "name": "Transfer",
      "type": "event"
    },
    {
      "inputs": [],
      "name": "DOMAIN_SEPARATOR",
      "outputs": [
        {
          "internalType": "bytes32",
          "name": "domainSeparator",
          "type": "bytes32"
        }
      ],
      "stateMutability": "view",
      "type": "function"
    },
    {
      "inputs": [
        {
          "internalType": "address",
          "name": "holder",
          "type": "address"
        },
        {
          "internalType": "address",
          "name": "spender",
          "type": "address"
        }
      ],
      "name": "allowance",
      "outputs": [
        {
          "internalType": "uint256",
          "name": "",
          "type": "uint256"
        }
      ],
      "stateMutability": "view",
      "type": "function"
    },
    {
      "inputs": [
        {
          "internalType": "address",
          "name": "spender",
          "type": "address"
        },
        {
          "internalType": "uint256",
          "name": "amount",
          "type": "uint256"
        }
      ],
      "name": "approve",
      "outputs": [
        {
          "internalType": "bool",
          "name": "",
          "type": "bool"
        }
      ],
      "stateMutability": "nonpayable",
      "type": "function"
    },
    {
      "inputs": [
        {
          "internalType": "address",
          "name": "account",
          "type": "address"
        }
      ],
      "name": "balanceOf",
      "outputs": [
        {
          "internalType": "uint256",
          "name": "",
          "type": "uint256"
        }
      ],
      "stateMutability": "view",
      "type": "function"
    },
    {
      "inputs": [],
      "name": "name",
      "outputs": [
        {
          "internalType": "string",
          "name": "",
          "type": "string"
        }
      ],
      "stateMutability": "view",
      "type": "function"
    },
    {
      "inputs": [
        {
          "internalType": "address",
          "name": "owner",
          "type": "address"
        }
      ],
      "name": "nonces",
      "outputs": [
        {
          "internalType": "uint256",
          "name": "",
          "type": "uint256"
        }
      ],
      "stateMutability": "view",
      "type": "function"
    },
    {
      "inputs": [
        {
          "internalType": "address",
          "name": "owner",
          "type": "address"
        },
        {
          "internalType": "address",
          "name": "spender",
          "type": "address"
        },
        {
          "internalType": "uint256",
          "name": "amount",
          "type": "uint256"
        },
        {
          "internalType": "uint256",
          "name": "deadline",
          "type": "uint256"
        },
        {
          "internalType": "uint8",
          "name": "v",
          "type": "uint8"
        },
        {
          "internalType": "bytes32",
          "name": "r",
          "type": "bytes32"
        },
        {
          "internalType": "bytes32",
          "name": "s",
          "type": "bytes32"
        }
      ],
      "name": "permit",
      "outputs": [],
      "stateMutability": "nonpayable",
      "type": "function"
    },
    {
      "inputs": [
        {
          "internalType": "string",
          "name": "tokenName",
          "type": "string"
        }
      ],
      "name": "setName",
      "outputs": [],
      "stateMutability": "nonpayable",
      "type": "function"
    },
    {
      "inputs": [],
      "name": "totalSupply",
      "outputs": [
        {
          "internalType": "uint256",
          "name": "",
          "type": "uint256"
        }
      ],
      "stateMutability": "view",
      "type": "function"
    },
    {
      "inputs": [
        {
          "internalType": "address",
          "name": "recipient",
          "type": "address"
        },
        {
          "internalType": "uint256",
          "name": "amount",
          "type": "uint256"
        }
      ],
      "name": "transfer",
      "outputs": [
        {
          "internalType": "bool",
          "name": "",
          "type": "bool"
        }
      ],
      "stateMutability": "nonpayable",
      "type": "function"
    },
    {
      "inputs": [
        {
          "internalType": "address",
          "name": "holder",
          "type": "address"
        },
        {
          "internalType": "address",
          "name": "recipient",
          "type": "address"
        },
        {
          "internalType": "uint256",
          "name": "amount",
          "type": "uint256"
        }
      ],
      "name": "transferFrom",
      "outputs": [
        {
          "internalType": "bool",
          "name": "",
          "type": "bool"
        }
      ],
      "stateMutability": "nonpayable",
      "type": "function"
    }
  ],
  "bytecode": {
    "object": "0x608060405234620002345762001017803803806200001d8162000239565b9283398101906020908181840312620002345780516001600160401b039182821162000234570191601f848185011215620002345783518381116200020957601f1994620000718284018716850162000239565b968288528483830101116200023457839060005b8381106200021f57505060009187010152845192831162000209577f2967a798b92539a1b9eefe4d8eb931f96b68d27665e276f1bee2d5db7f743047948554926001938481811c91168015620001fe575b82821014620001e8578381116200019d575b50809285116001146200013457508394509083929160009462000128575b50501b916000199060031b1c19161790555b604051610db79081620002608239f35b01519250388062000106565b9294849081168760005284600020946000905b8883831062000182575050501062000168575b505050811b01905562000118565b015160001960f88460031b161c191690553880806200015a565b85870151885590960195948501948793509081019062000147565b87600052816000208480880160051c820192848910620001de575b0160051c019085905b828110620001d1575050620000e8565b60008155018590620001c1565b92508192620001b8565b634e487b7160e01b600052602260045260246000fd5b90607f1690620000d6565b634e487b7160e01b600052604160045260246000fd5b81810183015189820184015285920162000085565b600080fd5b6040519190601f01601f191682016001600160401b03811183821017620002095760405256fe6080604052600436101561001257600080fd5b60003560e01c806306fdde03146100c7578063095ea7b3146100c257806318160ddd146100bd57806323b872dd146100b85780633644e515146100b357806370a08231146100ae5780637ecebe00146100a9578063a9059cbb146100a4578063c47f00271461009f578063d505accf1461009a5763dd62ed3e1461009557600080fd5b6107c6565b61063d565b6104b2565b61048a565b610467565b61043b565b61031f565b61029a565b61025d565b61022b565b610115565b6020808252825181830181905290939260005b82811061010157505060409293506000838284010152601f8019910116010190565b8181018601518482016040015285016100df565b346101fa576000806003193601126101f7576040519080600080516020610d628339815191529081549061014882610a4a565b808652926001928084169081156101ca5750600114610182575b61017e8661017281880382610a9a565b604051918291826100cc565b0390f35b81529250600080516020610d428339815191525b8284106101b25750505081016020016101728261017e38610162565b80546020858701810191909152909301928101610196565b905086955061017e9693506020925061017294915060ff191682840152151560051b820101929338610162565b80fd5b600080fd5b600435906001600160a01b03821682036101fa57565b602435906001600160a01b03821682036101fa57565b346101fa5760403660031901126101fa5760206102536102496101ff565b602435903361089c565b6040519015158152f35b346101fa5760003660031901126101fa5760207fc991b2e918acaba8e5721668ed0b1982684e5a8692a621bcd2d7ef326bb015b654604051908152f35b346101fa5760603660031901126101fa576102b36101ff565b6102bb610215565b604435906102e3336102cc856107f1565b9060018060a01b0316600052602052604060002090565b549283831161030e576102fc836103029503338361089c565b50610942565b50602060405160018152f35b60405162e14ccf60e11b8152600490fd5b346101fa576000806003193601126101f757468152602090600080516020610d2283398151915282526040812054908115610360575b604051828152602090f35b905060405181600080516020610d6283398151915292835461038181610a4a565b9182855286850195600192838116908160001461041957506001146103d7575b5050505091816103ba61017e95936103d1950382610a9a565b519020906103c6610b94565b805191012090610a06565b38610355565b81529250600080516020610d428339815191525b8284106104065750505081018301816103ba816103d16103a1565b80548585018801529286019281016103eb565b60ff1916885250505050151560051b820184019050816103ba816103d16103a1565b346101fa5760203660031901126101fa57602061045e6104596101ff565b61082a565b54604051908152f35b346101fa5760203660031901126101fa57602061045e6104856101ff565b610863565b346101fa5760403660031901126101fa5760206102536104a86101ff565b6024359033610942565b346101fa576020806003193601126101fa576004359067ffffffffffffffff8083116101fa57366023840112156101fa578260040135908082116101fa5736602483860101116101fa578180602461050a8695610b78565b966105186040519889610a9a565b8288520184870137600093849186010152835190811161063857600080516020610d6283398151915291610555826105508554610a4a565b610cb5565b80601f83116001146105b357508394829394926105a8575b50508160011b916000199060031b1c19161790555b806105a446600052600080516020610d22833981519152602052604060002090565b5580f35b01519050388061056d565b90601f198316956105e1600080516020610d62833981519152600052600080516020610d4283398151915290565b9286905b88821061062057505083600195969710610607575b505050811b019055610582565b015160001960f88460031b161c191690553880806105fa565b806001859682949686015181550195019301906105e5565b610a84565b346101fa5760e03660031901126101fa576106566101ff565b61065e610215565b6044359060643560843560ff811681036101fa574282106107b45760c061071e9261068887610863565b5490604051917f6e71edae12b1b97f4d1f60370fef10105fa2faae0126114a169c64845d6126c98352886020840152866040840152876060840152608083015260a0820152206106ef46600052600080516020610d22833981519152602052604060002090565b54908115610762575b6040519161190160f01b83526002830152602282015260c43591604260a4359220610bdd565b6001600160a01b03848116911603610750578261073d61074e94610863565b6107478154610bc2565b905561089c565b005b604051637570072b60e11b8152600490fd5b905061078b61076f610abc565b6020815191012061077e610b94565b6020815191012090610a06565b90816107ae46600052600080516020610d22833981519152602052604060002090565b556106f8565b60405163384f7ce560e21b8152600490fd5b346101fa5760403660031901126101fa57602061045e6107e46101ff565b6102cc6107ef610215565b915b6001600160a01b031660009081527fc991b2e918acaba8e5721668ed0b1982684e5a8692a621bcd2d7ef326bb015b56020526040902090565b6001600160a01b031660009081527fc991b2e918acaba8e5721668ed0b1982684e5a8692a621bcd2d7ef326bb015b46020526040902090565b6001600160a01b031660009081527fbb9c3660b51e1fafa886fcf600a68efa81371bd50359eccba98f0c4fff2cfeb96020526040902090565b6001600160a01b0380821692919083156109085782169384156108f757806108ea7f8c5be1e5ebec7d5bd14f71427d1e84f3dd0314c0f7b2291e5b200ac8c7c3b925946102cc6020956107f1565b55604051908152a3600190565b6040516262920b60e91b8152600490fd5b604051635a68b7ab60e01b8152600490fd5b634e487b7160e01b600052601160045260246000fd5b9190820180921161093d57565b61091a565b6001600160a01b0380821692919083156109f45782169384156109e2576109688261082a565b548082116109d0577fddf252ad1be2c89b69c2b068fc378daa952ba7f163c4a11628f55a4df523b3ef936109c8936109a5846109ab94039161082a565b5561082a565b6109b6828254610930565b90556040519081529081906020820190565b0390a3600190565b604051637183160b60e01b8152600490fd5b6040516320a2645160e21b8152600490fd5b6040516368551d5f60e01b8152600490fd5b60a091604051917f8b73c3c69bb8fe3d512ecc4cf759cc79239f7b179b0ffacaa9a75d522b39400f8352602083015260408201524660608201523060808201522090565b90600182811c92168015610a7a575b6020831014610a6457565b634e487b7160e01b600052602260045260246000fd5b91607f1691610a59565b634e487b7160e01b600052604160045260246000fd5b90601f8019910116810190811067ffffffffffffffff82111761063857604052565b60405190600082600080516020610d62833981519152918254610ade81610a4a565b80845293600191808316908115610b545750600114610b08575b5050610b0692500383610a9a565b565b60009081529150600080516020610d428339815191525b848310610b395750610b0693505081016020013880610af8565b81935090816020925483858a01015201910190918592610b1f565b91505060209250610b0694915060ff191682840152151560051b8201013880610af8565b67ffffffffffffffff811161063857601f01601f191660200190565b604051906040820182811067ffffffffffffffff8211176106385760405260018252603160f81b6020830152565b600019811461093d5760010190565b6040513d6000823e3d90fd5b9291927f7fffffffffffffffffffffffffffffff5d576e7357a4501ddfe92f46681b20a08311610ca35760ff8216601b8114159081610c97575b50610c8557610c4b600093602095604051948594859094939260ff6060936080840197845216602083015260408201520152565b838052039060015afa15610c80576000516001600160a01b03811615610c6e5790565b6040516347f3b32760e11b8152600490fd5b610bd1565b604051630acd54a960e41b8152600490fd5b601c9150141538610c17565b60405163e4a61add60e01b8152600490fd5b601f8111610cc1575050565b600090600080516020610d628339815191528252600080516020610d42833981519152906020601f850160051c83019410610d17575b601f0160051c01915b828110610d0c57505050565b818155600101610d00565b9092508290610cf756febb9c3660b51e1fafa886fcf600a68efa81371bd50359eccba98f0c4fff2cfebac3d5862a69f8ca70e4828043821a8d13dfd34088ddb52ba52f4c8aedc2ea63b52967a798b92539a1b9eefe4d8eb931f96b68d27665e276f1bee2d5db7f743047a2646970667358221220913bfdc7f726781239235ae5e233180de9c01e19b889a93efc30544cc8bd9cb764736f6c63430008130033",
    "linkReferences": {}
  },
  "methodIdentifiers": {
    "DOMAIN_SEPARATOR()": "3644e515",
    "allowance(address,address)": "dd62ed3e",
    "approve(address,uint256)": "095ea7b3",
    "balanceOf(address)": "70a08231",
    "name()": "06fdde03",
    "nonces(address)": "7ecebe00",
    "permit(address,address,uint256,uint256,uint8,bytes32,bytes32)": "d505accf",
    "setName(string)": "c47f0027",
    "totalSupply()": "18160ddd",
    "transfer(address,uint256)": "a9059cbb",
    "transferFrom(address,address,uint256)": "23b872dd"
  },
  "id": 420
}