{
  "abi": [
    {
      "inputs": [
        {
          "internalType": "contract IVotes",
          "name": "_token",
          "type": "address"
        },
        {
          "internalType": "contract TimelockController",
          "name": "_timelock",
          "type": "address"
        }
      ],
      "stateMutability": "nonpayable",
      "type": "constructor"
    },
    {
      "inputs": [],
      "name": "Empty",
      "type": "error"
    },
    {
      "inputs": [],
      "name": "InvalidShortString",
      "type": "error"
    },
    {
      "inputs": [
        {
          "internalType": "string",
          "name": "str",
          "type": "string"
        }
      ],
      "name": "StringTooLong",
      "type": "error"
    },
    {
      "anonymous": false,
      "inputs": [],
      "name": "EIP712DomainChanged",
      "type": "event"
    },
    {
      "anonymous": false,
      "inputs": [
        {
          "indexed": false,
          "internalType": "uint256",
          "name": "proposalId",
          "type": "uint256"
        }
      ],
      "name": "ProposalCanceled",
      "type": "event"
    },
    {
      "anonymous": false,
      "inputs": [
        {
          "indexed": false,
          "internalType": "uint256",
          "name": "proposalId",
          "type": "uint256"
        },
        {
          "indexed": false,
          "internalType": "address",
          "name": "proposer",
          "type": "address"
        },
        {
          "indexed": false,
          "internalType": "address[]",
          "name": "targets",
          "type": "address[]"
        },
        {
          "indexed": false,
          "internalType": "uint256[]",
          "name": "values",
          "type": "uint256[]"
        },
        {
          "indexed": false,
          "internalType": "string[]",
          "name": "signatures",
          "type": "string[]"
        },
        {
          "indexed": false,
          "internalType": "bytes[]",
          "name": "calldatas",
          "type": "bytes[]"
        },
        {
          "indexed": false,
          "internalType": "uint256",
          "name": "voteStart",
          "type": "uint256"
        },
        {
          "indexed": false,
          "internalType": "uint256",
          "name": "voteEnd",
          "type": "uint256"
        },
        {
          "indexed": false,
          "internalType": "string",
          "name": "description",
          "type": "string"
        }
      ],
      "name": "ProposalCreated",
      "type": "event"
    },
    {
      "anonymous": false,
      "inputs": [
        {
          "indexed": false,
          "internalType": "uint256",
          "name": "proposalId",
          "type": "uint256"
        }
      ],
      "name": "ProposalExecuted",
      "type": "event"
    },
    {
      "anonymous": false,
      "inputs": [
        {
          "indexed": false,
          "internalType": "uint256",
          "name": "proposalId",
          "type": "uint256"
        },
        {
          "indexed": false,
          "internalType": "uint256",
          "name": "eta",
          "type": "uint256"
        }
      ],
      "name": "ProposalQueued",
      "type": "event"
    },
    {
      "anonymous": false,
      "inputs": [
        {
          "indexed": false,
          "internalType": "uint256",
          "name": "oldQuorumNumerator",
          "type": "uint256"
        },
        {
          "indexed": false,
          "internalType": "uint256",
          "name": "newQuorumNumerator",
          "type": "uint256"
        }
      ],
      "name": "QuorumNumeratorUpdated",
      "type": "event"
    },
    {
      "anonymous": false,
      "inputs": [
        {
          "indexed": false,
          "internalType": "address",
          "name": "oldTimelock",
          "type": "address"
        },
        {
          "indexed": false,
          "internalType": "address",
          "name": "newTimelock",
          "type": "address"
        }
      ],
      "name": "TimelockChange",
      "type": "event"
    },
    {
      "anonymous": false,
      "inputs": [
        {
          "indexed": true,
          "internalType": "address",
          "name": "voter",
          "type": "address"
        },
        {
          "indexed": false,
          "internalType": "uint256",
          "name": "proposalId",
          "type": "uint256"
        },
        {
          "indexed": false,
          "internalType": "uint8",
          "name": "support",
          "type": "uint8"
        },
        {
          "indexed": false,
          "internalType": "uint256",
          "name": "weight",
          "type": "uint256"
        },
        {
          "indexed": false,
          "internalType": "string",
          "name": "reason",
          "type": "string"
        }
      ],
      "name": "VoteCast",
      "type": "event"
    },
    {
      "anonymous": false,
      "inputs": [
        {
          "indexed": true,
          "internalType": "address",
          "name": "voter",
          "type": "address"
        },
        {
          "indexed": false,
          "internalType": "uint256",
          "name": "proposalId",
          "type": "uint256"
        },
        {
          "indexed": false,
          "internalType": "uint8",
          "name": "support",
          "type": "uint8"
        },
        {
          "indexed": false,
          "internalType": "uint256",
          "name": "weight",
          "type": "uint256"
        },
        {
          "indexed": false,
          "internalType": "string",
          "name": "reason",
          "type": "string"
        },
        {
          "indexed": false,
          "internalType": "bytes",
          "name": "params",
          "type": "bytes"
        }
      ],
      "name": "VoteCastWithParams",
      "type": "event"
    },
    {
      "inputs": [],
      "name": "BALLOT_TYPEHASH",
      "outputs": [
        {
          "internalType": "bytes32",
          "name": "",
          "type": "bytes32"
        }
      ],
      "stateMutability": "view",
      "type": "function"
    },
    {
      "inputs": [],
      "name": "CLOCK_MODE",
      "outputs": [
        {
          "internalType": "string",
          "name": "",
          "type": "string"
        }
      ],
      "stateMutability": "view",
      "type": "function"
    },
    {
      "inputs": [],
      "name": "COUNTING_MODE",
      "outputs": [
        {
          "internalType": "string",
          "name": "",
          "type": "string"
        }
      ],
      "stateMutability": "pure",
      "type": "function"
    },
    {
      "inputs": [],
      "name": "EXTENDED_BALLOT_TYPEHASH",
      "outputs": [
        {
          "internalType": "bytes32",
          "name": "",
          "type": "bytes32"
        }
      ],
      "stateMutability": "view",
      "type": "function"
    },
    {
      "inputs": [
        {
          "internalType": "uint256",
          "name": "proposalId",
          "type": "uint256"
        }
      ],
      "name": "cancel",
      "outputs": [],
      "stateMutability": "nonpayable",
      "type": "function"
    },
    {
      "inputs": [
        {
          "internalType": "address[]",
          "name": "targets",
          "type": "address[]"
        },
        {
          "internalType": "uint256[]",
          "name": "values",
          "type": "uint256[]"
        },
        {
          "internalType": "bytes[]",
          "name": "calldatas",
          "type": "bytes[]"
        },
        {
          "internalType": "bytes32",
          "name": "descriptionHash",
          "type": "bytes32"
        }
      ],
      "name": "cancel",
      "outputs": [
        {
          "internalType": "uint256",
          "name": "",
          "type": "uint256"
        }
      ],
      "stateMutability": "nonpayable",
      "type": "function"
    },
    {
      "inputs": [
        {
          "internalType": "uint256",
          "name": "proposalId",
          "type": "uint256"
        },
        {
          "internalType": "uint8",
          "name": "support",
          "type": "uint8"
        }
      ],
      "name": "castVote",
      "outputs": [
        {
          "internalType": "uint256",
          "name": "",
          "type": "uint256"
        }
      ],
      "stateMutability": "nonpayable",
      "type": "function"
    },
    {
      "inputs": [
        {
          "internalType": "uint256",
          "name": "proposalId",
          "type": "uint256"
        },
        {
          "internalType": "uint8",
          "name": "support",
          "type": "uint8"
        },
        {
          "internalType": "uint8",
          "name": "v",
          "type": "uint8"
        },
        {
          "internalType": "bytes32",
          "name": "r",
          "type": "bytes32"
        },
        {
          "internalType": "bytes32",
          "name": "s",
          "type": "bytes32"
        }
      ],
      "name": "castVoteBySig",
      "outputs": [
        {
          "internalType": "uint256",
          "name": "",
          "type": "uint256"
        }
      ],
      "stateMutability": "nonpayable",
      "type": "function"
    },
    {
      "inputs": [
        {
          "internalType": "uint256",
          "name": "proposalId",
          "type": "uint256"
        },
        {
          "internalType": "uint8",
          "name": "support",
          "type": "uint8"
        },
        {
          "internalType": "string",
          "name": "reason",
          "type": "string"
        }
      ],
      "name": "castVoteWithReason",
      "outputs": [
        {
          "internalType": "uint256",
          "name": "",
          "type": "uint256"
        }
      ],
      "stateMutability": "nonpayable",
      "type": "function"
    },
    {
      "inputs": [
        {
          "internalType": "uint256",
          "name": "proposalId",
          "type": "uint256"
        },
        {
          "internalType": "uint8",
          "name": "support",
          "type": "uint8"
        },
        {
          "internalType": "string",
          "name": "reason",
          "type": "string"
        },
        {
          "internalType": "bytes",
          "name": "params",
          "type": "bytes"
        }
      ],
      "name": "castVoteWithReasonAndParams",
      "outputs": [
        {
          "internalType": "uint256",
          "name": "",
          "type": "uint256"
        }
      ],
      "stateMutability": "nonpayable",
      "type": "function"
    },
    {
      "inputs": [
        {
          "internalType": "uint256",
          "name": "proposalId",
          "type": "uint256"
        },
        {
          "internalType": "uint8",
          "name": "support",
          "type": "uint8"
        },
        {
          "internalType": "string",
          "name": "reason",
          "type": "string"
        },
        {
          "internalType": "bytes",
          "name": "params",
          "type": "bytes"
        },
        {
          "internalType": "uint8",
          "name": "v",
          "type": "uint8"
        },
        {
          "internalType": "bytes32",
          "name": "r",
          "type": "bytes32"
        },
        {
          "internalType": "bytes32",
          "name": "s",
          "type": "bytes32"
        }
      ],
      "name": "castVoteWithReasonAndParamsBySig",
      "outputs": [
        {
          "internalType": "uint256",
          "name": "",
          "type": "uint256"
        }
      ],
      "stateMutability": "nonpayable",
      "type": "function"
    },
    {
      "inputs": [],
      "name": "clock",
      "outputs": [
        {
          "internalType": "uint48",
          "name": "",
          "type": "uint48"
        }
      ],
      "stateMutability": "view",
      "type": "function"
    },
    {
      "inputs": [],
      "name": "eip712Domain",
      "outputs": [
        {
          "internalType": "bytes1",
          "name": "fields",
          "type": "bytes1"
        },
        {
          "internalType": "string",
          "name": "name",
          "type": "string"
        },
        {
          "internalType": "string",
          "name": "version",
          "type": "string"
        },
        {
          "internalType": "uint256",
          "name": "chainId",
          "type": "uint256"
        },
        {
          "internalType": "address",
          "name": "verifyingContract",
          "type": "address"
        },
        {
          "internalType": "bytes32",
          "name": "salt",
          "type": "bytes32"
        },
        {
          "internalType": "uint256[]",
          "name": "extensions",
          "type": "uint256[]"
        }
      ],
      "stateMutability": "view",
      "type": "function"
    },
    {
      "inputs": [
        {
          "internalType": "address[]",
          "name": "targets",
          "type": "address[]"
        },
        {
          "internalType": "uint256[]",
          "name": "values",
          "type": "uint256[]"
        },
        {
          "internalType": "bytes[]",
          "name": "calldatas",
          "type": "bytes[]"
        },
        {
          "internalType": "bytes32",
          "name": "descriptionHash",
          "type": "bytes32"
        }
      ],
      "name": "execute",
      "outputs": [
        {
          "internalType": "uint256",
          "name": "",
          "type": "uint256"
        }
      ],
      "stateMutability": "payable",
      "type": "function"
    },
    {
      "inputs": [
        {
          "internalType": "uint256",
          "name": "proposalId",
          "type": "uint256"
        }
      ],
      "name": "execute",
      "outputs": [],
      "stateMutability": "payable",
      "type": "function"
    },
    {
      "inputs": [
        {
          "internalType": "uint256",
          "name": "proposalId",
          "type": "uint256"
        }
      ],
      "name": "getActions",
      "outputs": [
        {
          "internalType": "address[]",
          "name": "targets",
          "type": "address[]"
        },
        {
          "internalType": "uint256[]",
          "name": "values",
          "type": "uint256[]"
        },
        {
          "internalType": "string[]",
          "name": "signatures",
          "type": "string[]"
        },
        {
          "internalType": "bytes[]",
          "name": "calldatas",
          "type": "bytes[]"
        }
      ],
      "stateMutability": "view",
      "type": "function"
    },
    {
      "inputs": [
        {
          "internalType": "uint256",
          "name": "proposalId",
          "type": "uint256"
        },
        {
          "internalType": "address",
          "name": "voter",
          "type": "address"
        }
      ],
      "name": "getReceipt",
      "outputs": [
        {
          "components": [
            {
              "internalType": "bool",
              "name": "hasVoted",
              "type": "bool"
            },
            {
              "internalType": "uint8",
              "name": "support",
              "type": "uint8"
            },
            {
              "internalType": "uint96",
              "name": "votes",
              "type": "uint96"
            }
          ],
          "internalType": "struct IGovernorCompatibilityBravo.Receipt",
          "name": "",
          "type": "tuple"
        }
      ],
      "stateMutability": "view",
      "type": "function"
    },
    {
      "inputs": [
        {
          "internalType": "address",
          "name": "account",
          "type": "address"
        },
        {
          "internalType": "uint256",
          "name": "timepoint",
          "type": "uint256"
        }
      ],
      "name": "getVotes",
      "outputs": [
        {
          "internalType": "uint256",
          "name": "",
          "type": "uint256"
        }
      ],
      "stateMutability": "view",
      "type": "function"
    },
    {
      "inputs": [
        {
          "internalType": "address",
          "name": "account",
          "type": "address"
        },
        {
          "internalType": "uint256",
          "name": "timepoint",
          "type": "uint256"
        },
        {
          "internalType": "bytes",
          "name": "params",
          "type": "bytes"
        }
      ],
      "name": "getVotesWithParams",
      "outputs": [
        {
          "internalType": "uint256",
          "name": "",
          "type": "uint256"
        }
      ],
      "stateMutability": "view",
      "type": "function"
    },
    {
      "inputs": [
        {
          "internalType": "uint256",
          "name": "proposalId",
          "type": "uint256"
        },
        {
          "internalType": "address",
          "name": "account",
          "type": "address"
        }
      ],
      "name": "hasVoted",
      "outputs": [
        {
          "internalType": "bool",
          "name": "",
          "type": "bool"
        }
      ],
      "stateMutability": "view",
      "type": "function"
    },
    {
      "inputs": [
        {
          "internalType": "address[]",
          "name": "targets",
          "type": "address[]"
        },
        {
          "internalType": "uint256[]",
          "name": "values",
          "type": "uint256[]"
        },
        {
          "internalType": "bytes[]",
          "name": "calldatas",
          "type": "bytes[]"
        },
        {
          "internalType": "bytes32",
          "name": "descriptionHash",
          "type": "bytes32"
        }
      ],
      "name": "hashProposal",
      "outputs": [
        {
          "internalType": "uint256",
          "name": "",
          "type": "uint256"
        }
      ],
      "stateMutability": "pure",
      "type": "function"
    },
    {
      "inputs": [],
      "name": "name",
      "outputs": [
        {
          "internalType": "string",
          "name": "",
          "type": "string"
        }
      ],
      "stateMutability": "view",
      "type": "function"
    },
    {
      "inputs": [
        {
          "internalType": "address",
          "name": "",
          "type": "address"
        },
        {
          "internalType": "address",
          "name": "",
          "type": "address"
        },
        {
          "internalType": "uint256[]",
          "name": "",
          "type": "uint256[]"
        },
        {
          "internalType": "uint256[]",
          "name": "",
          "type": "uint256[]"
        },
        {
          "internalType": "bytes",
          "name": "",
          "type": "bytes"
        }
      ],
      "name": "onERC1155BatchReceived",
      "outputs": [
        {
          "internalType": "bytes4",
          "name": "",
          "type": "bytes4"
        }
      ],
      "stateMutability": "nonpayable",
      "type": "function"
    },
    {
      "inputs": [
        {
          "internalType": "address",
          "name": "",
          "type": "address"
        },
        {
          "internalType": "address",
          "name": "",
          "type": "address"
        },
        {
          "internalType": "uint256",
          "name": "",
          "type": "uint256"
        },
        {
          "internalType": "uint256",
          "name": "",
          "type": "uint256"
        },
        {
          "internalType": "bytes",
          "name": "",
          "type": "bytes"
        }
      ],
      "name": "onERC1155Received",
      "outputs": [
        {
          "internalType": "bytes4",
          "name": "",
          "type": "bytes4"
        }
      ],
      "stateMutability": "nonpayable",
      "type": "function"
    },
    {
      "inputs": [
        {
          "internalType": "address",
          "name": "",
          "type": "address"
        },
        {
          "internalType": "address",
          "name": "",
          "type": "address"
        },
        {
          "internalType": "uint256",
          "name": "",
          "type": "uint256"
        },
        {
          "internalType": "bytes",
          "name": "",
          "type": "bytes"
        }
      ],
      "name": "onERC721Received",
      "outputs": [
        {
          "internalType": "bytes4",
          "name": "",
          "type": "bytes4"
        }
      ],
      "stateMutability": "nonpayable",
      "type": "function"
    },
    {
      "inputs": [
        {
          "internalType": "uint256",
          "name": "proposalId",
          "type": "uint256"
        }
      ],
      "name": "proposalDeadline",
      "outputs": [
        {
          "internalType": "uint256",
          "name": "",
          "type": "uint256"
        }
      ],
      "stateMutability": "view",
      "type": "function"
    },
    {
      "inputs": [
        {
          "internalType": "uint256",
          "name": "proposalId",
          "type": "uint256"
        }
      ],
      "name": "proposalEta",
      "outputs": [
        {
          "internalType": "uint256",
          "name": "",
          "type": "uint256"
        }
      ],
      "stateMutability": "view",
      "type": "function"
    },
    {
      "inputs": [
        {
          "internalType": "uint256",
          "name": "proposalId",
          "type": "uint256"
        }
      ],
      "name": "proposalProposer",
      "outputs": [
        {
          "internalType": "address",
          "name": "",
          "type": "address"
        }
      ],
      "stateMutability": "view",
      "type": "function"
    },
    {
      "inputs": [
        {
          "internalType": "uint256",
          "name": "proposalId",
          "type": "uint256"
        }
      ],
      "name": "proposalSnapshot",
      "outputs": [
        {
          "internalType": "uint256",
          "name": "",
          "type": "uint256"
        }
      ],
      "stateMutability": "view",
      "type": "function"
    },
    {
      "inputs": [],
      "name": "proposalThreshold",
      "outputs": [
        {
          "internalType": "uint256",
          "name": "",
          "type": "uint256"
        }
      ],
      "stateMutability": "pure",
      "type": "function"
    },
    {
      "inputs": [
        {
          "internalType": "uint256",
          "name": "proposalId",
          "type": "uint256"
        }
      ],
      "name": "proposals",
      "outputs": [
        {
          "internalType": "uint256",
          "name": "id",
          "type": "uint256"
        },
        {
          "internalType": "address",
          "name": "proposer",
          "type": "address"
        },
        {
          "internalType": "uint256",
          "name": "eta",
          "type": "uint256"
        },
        {
          "internalType": "uint256",
          "name": "startBlock",
          "type": "uint256"
        },
        {
          "internalType": "uint256",
          "name": "endBlock",
          "type": "uint256"
        },
        {
          "internalType": "uint256",
          "name": "forVotes",
          "type": "uint256"
        },
        {
          "internalType": "uint256",
          "name": "againstVotes",
          "type": "uint256"
        },
        {
          "internalType": "uint256",
          "name": "abstainVotes",
          "type": "uint256"
        },
        {
          "internalType": "bool",
          "name": "canceled",
          "type": "bool"
        },
        {
          "internalType": "bool",
          "name": "executed",
          "type": "bool"
        }
      ],
      "stateMutability": "view",
      "type": "function"
    },
    {
      "inputs": [
        {
          "internalType": "address[]",
          "name": "targets",
          "type": "address[]"
        },
        {
          "internalType": "uint256[]",
          "name": "values",
          "type": "uint256[]"
        },
        {
          "internalType": "bytes[]",
          "name": "calldatas",
          "type": "bytes[]"
        },
        {
          "internalType": "string",
          "name": "description",
          "type": "string"
        }
      ],
      "name": "propose",
      "outputs": [
        {
          "internalType": "uint256",
          "name": "",
          "type": "uint256"
        }
      ],
      "stateMutability": "nonpayable",
      "type": "function"
    },
    {
      "inputs": [
        {
          "internalType": "address[]",
          "name": "targets",
          "type": "address[]"
        },
        {
          "internalType": "uint256[]",
          "name": "values",
          "type": "uint256[]"
        },
        {
          "internalType": "string[]",
          "name": "signatures",
          "type": "string[]"
        },
        {
          "internalType": "bytes[]",
          "name": "calldatas",
          "type": "bytes[]"
        },
        {
          "internalType": "string",
          "name": "description",
          "type": "string"
        }
      ],
      "name": "propose",
      "outputs": [
        {
          "internalType": "uint256",
          "name": "",
          "type": "uint256"
        }
      ],
      "stateMutability": "nonpayable",
      "type": "function"
    },
    {
      "inputs": [
        {
          "internalType": "address[]",
          "name": "targets",
          "type": "address[]"
        },
        {
          "internalType": "uint256[]",
          "name": "values",
          "type": "uint256[]"
        },
        {
          "internalType": "bytes[]",
          "name": "calldatas",
          "type": "bytes[]"
        },
        {
          "internalType": "bytes32",
          "name": "descriptionHash",
          "type": "bytes32"
        }
      ],
      "name": "queue",
      "outputs": [
        {
          "internalType": "uint256",
          "name": "",
          "type": "uint256"
        }
      ],
      "stateMutability": "nonpayable",
      "type": "function"
    },
    {
      "inputs": [
        {
          "internalType": "uint256",
          "name": "proposalId",
          "type": "uint256"
        }
      ],
      "name": "queue",
      "outputs": [],
      "stateMutability": "nonpayable",
      "type": "function"
    },
    {
      "inputs": [
        {
          "internalType": "uint256",
          "name": "timepoint",
          "type": "uint256"
        }
      ],
      "name": "quorum",
      "outputs": [
        {
          "internalType": "uint256",
          "name": "",
          "type": "uint256"
        }
      ],
      "stateMutability": "view",
      "type": "function"
    },
    {
      "inputs": [],
      "name": "quorumDenominator",
      "outputs": [
        {
          "internalType": "uint256",
          "name": "",
          "type": "uint256"
        }
      ],
      "stateMutability": "view",
      "type": "function"
    },
    {
      "inputs": [
        {
          "internalType": "uint256",
          "name": "timepoint",
          "type": "uint256"
        }
      ],
      "name": "quorumNumerator",
      "outputs": [
        {
          "internalType": "uint256",
          "name": "",
          "type": "uint256"
        }
      ],
      "stateMutability": "view",
      "type": "function"
    },
    {
      "inputs": [],
      "name": "quorumNumerator",
      "outputs": [
        {
          "internalType": "uint256",
          "name": "",
          "type": "uint256"
        }
      ],
      "stateMutability": "view",
      "type": "function"
    },
    {
      "inputs": [],
      "name": "quorumVotes",
      "outputs": [
        {
          "internalType": "uint256",
          "name": "",
          "type": "uint256"
        }
      ],
      "stateMutability": "view",
      "type": "function"
    },
    {
      "inputs": [
        {
          "internalType": "address",
          "name": "target",
          "type": "address"
        },
        {
          "internalType": "uint256",
          "name": "value",
          "type": "uint256"
        },
        {
          "internalType": "bytes",
          "name": "data",
          "type": "bytes"
        }
      ],
      "name": "relay",
      "outputs": [],
      "stateMutability": "payable",
      "type": "function"
    },
    {
      "inputs": [
        {
          "internalType": "uint256",
          "name": "proposalId",
          "type": "uint256"
        }
      ],
      "name": "state",
      "outputs": [
        {
          "internalType": "enum IGovernor.ProposalState",
          "name": "",
          "type": "uint8"
        }
      ],
      "stateMutability": "view",
      "type": "function"
    },
    {
      "inputs": [
        {
          "internalType": "bytes4",
          "name": "interfaceId",
          "type": "bytes4"
        }
      ],
      "name": "supportsInterface",
      "outputs": [
        {
          "internalType": "bool",
          "name": "",
          "type": "bool"
        }
      ],
      "stateMutability": "view",
      "type": "function"
    },
    {
      "inputs": [],
      "name": "timelock",
      "outputs": [
        {
          "internalType": "address",
          "name": "",
          "type": "address"
        }
      ],
      "stateMutability": "view",
      "type": "function"
    },
    {
      "inputs": [],
      "name": "token",
      "outputs": [
        {
          "internalType": "contract IERC5805",
          "name": "",
          "type": "address"
        }
      ],
      "stateMutability": "view",
      "type": "function"
    },
    {
      "inputs": [
        {
          "internalType": "uint256",
          "name": "newQuorumNumerator",
          "type": "uint256"
        }
      ],
      "name": "updateQuorumNumerator",
      "outputs": [],
      "stateMutability": "nonpayable",
      "type": "function"
    },
    {
      "inputs": [
        {
          "internalType": "contract TimelockController",
          "name": "newTimelock",
          "type": "address"
        }
      ],
      "name": "updateTimelock",
      "outputs": [],
      "stateMutability": "nonpayable",
      "type": "function"
    },
    {
      "inputs": [],
      "name": "version",
      "outputs": [
        {
          "internalType": "string",
          "name": "",
          "type": "string"
        }
      ],
      "stateMutability": "view",
      "type": "function"
    },
    {
      "inputs": [],
      "name": "votingDelay",
      "outputs": [
        {
          "internalType": "uint256",
          "name": "",
          "type": "uint256"
        }
      ],
      "stateMutability": "pure",
      "type": "function"
    },
    {
      "inputs": [],
      "name": "votingPeriod",
      "outputs": [
        {
          "internalType": "uint256",
          "name": "",
          "type": "uint256"
        }
      ],
      "stateMutability": "pure",
      "type": "function"
    },
    {
      "stateMutability": "payable",
      "type": "receive"
    }
  ],
  "bytecode": {
    "object": "0x61018060405234620000ad5762000020620000196200014d565b90620001c1565b604051614903908162000d0a82396080518161426f015260a05181614324015260c05181614239015260e051816142be015261010051816142e40152610120518161131b0152610140518161134701526101605181818161148101528181611a9e01528181611b6f01528181611f5101528181612eff01528181612fd6015281816130cc01526133730152f35b600080fd5b634e487b7160e01b600052604160045260246000fd5b604081019081106001600160401b03821117620000e457604052565b620000b2565b60c081019081106001600160401b03821117620000e457604052565b601f909101601f19168101906001600160401b03821190821017620000e457604052565b604051906200013982620000c8565b565b6001600160a01b03811603620000ad57565b6200564d906040823803928382519485926200016a828562000106565b833981010312620000ad57602082519262000185846200013b565b01519162000193836200013b565b9190565b60405190620001a682620000c8565b600a8252565b60405190620001bb82620000c8565b60018252565b90620001399162000294620001d562000197565b602081016926bca3b7bb32b93737b960b11b8152620001f3620001ac565b906020820190603160f81b82526200020b846200092e565b610120526200021a8362000a3c565b6101405283519020918260e05251902080610100524660a0526040519060208201927f8b73c3c69bb8fe3d512ecc4cf759cc79239f7b179b0ffacaa9a75d522b39400f8452604083015260608201524660808201523060a082015260a081526200028481620000ea565b5190206080523060c052620003fb565b6001600160a01b031661016052620002ab620005a1565b620004ee565b90600182811c92168015620002e3575b6020831014620002cd57565b634e487b7160e01b600052602260045260246000fd5b91607f1691620002c1565b601f8111620002fb575050565b6000906002825260208220906020601f850160051c830194106200033c575b601f0160051c01915b8281106200033057505050565b81815560010162000323565b90925082906200031a565b601f811162000354575050565b60009081805260208220906020601f850160051c8301941062000394575b601f0160051c01915b8281106200038857505050565b8181556001016200037b565b909250829062000372565b90601f8211620003ad575050565b60019160009083825260208220906020601f850160051c83019410620003f0575b601f0160051c01915b828110620003e55750505050565b8181558301620003d7565b9092508290620003ce565b80519091906001600160401b038111620000e457620004278162000421600254620002b1565b620002ee565b602080601f83116001146200046657508192936000926200045a575b50508160011b916000199060031b1c191617600255565b01519050388062000443565b6002600052601f198316949091907f405787fa12a823e0f2b7631cc41b3ba8828b3321ca811111fa75cd3aa3bb5ace926000905b878210620004d5575050836001959610620004bb575b505050811b01600255565b015160001960f88460031b161c19169055388080620004b0565b806001859682949686015181550195019301906200049a565b6009547f08f74ea46ef7894f65eabfb5e6e695de773a000b47c529ab559178069b226401604060018060a01b038094169381519084168152846020820152a16001600160a01b03191617600955565b60085468010000000000000000811015620000e45760018101806008558110156200058b5760086000526020600020019063ffffffff81511690602063ffffffff1991015160201b16179055565b634e487b7160e01b600052603260045260246000fd5b600854801590600090821562000672575050620006256000805160206200562d83398151915291600754905b811515908162000669575b506200062a575b6200060c6200060662000600620005f5620006cb565b65ffffffffffff1690565b62000ca3565b62000809565b5050604080519182526004602083015290918291820190565b0390a1565b62000663620006398262000bd1565b6200065d620006476200012a565b600081526001600160e01b039092166020830152565b6200053d565b620005df565b905038620005d8565b600019918183810111620006b75760089052016000805160206200560d83398151915201546000805160206200562d83398151915291620006259160201c90620005cd565b634e487b7160e01b81526011600452602490fd5b610160516040516324776b7d60e21b815290602090829060049082906001600160a01b03165afa809160009162000713575b5090620007105750620007104362000c3b565b90565b6020813d821162000758575b816200072e6020938362000106565b810103126200075457519065ffffffffffff8216820362000751575038620006fd565b80fd5b5080fd5b3d91506200071f565b6000198101919082116200077157565b634e487b7160e01b600052601160045260246000fd5b604080519192919081016001600160401b03811182821017620000e457604052602081935463ffffffff81168352811c910152565b15620007c457565b60405162461bcd60e51b815260206004820152601b60248201527f436865636b706f696e743a2064656372656173696e67206b65797300000000006044820152606490fd5b60085480156200090557620008cd91816200084d620008476200082e60209562000761565b60086000526000805160206200560d8339815191520190565b62000787565b916200085d835163ffffffff1690565b6200087663ffffffff91828416928391161115620007bc565b6200089262000889855163ffffffff1690565b63ffffffff1690565b03620008d35750620008ac6200082e620008bf9262000761565b64040000000063ffffffff825416179055565b01516001600160e01b031690565b90600490565b620008ff9150620008f3620008e76200012a565b63ffffffff9092168252565b6004818501526200053d565b620008bf565b50620009269062000919620008e76200012a565b600460208201526200053d565b600090600490565b9081516020908181106000146200094d57505090620007109062000b54565b6001600160401b038111620000e4576000916200097682620009708554620002b1565b62000347565b80601f8311600114620009b55750829394829392620009a9575b50508160011b916000199060031b1c191617905560ff90565b01519050388062000990565b60008052601f198316957f290decd9548b62a8d60345a988386fc84ba6bc95484008f6362f93160ef3e563929185905b88821062000a235750508360019596971062000a09575b505050811b01905560ff90565b015160001960f88460031b161c19169055388080620009fc565b80600185968294968601518155019501930190620009e5565b90815160209081811060001462000a5b57505090620007109062000b54565b6001600160401b038111620000e45760019162000a848262000a7e8554620002b1565b6200039f565b80601f831160011462000ac357508192939460009262000ab7575b5050600019600383901b1c191690821b17905560ff90565b01519050388062000a9f565b6001600052601f198316959091907fb10e2d527612073b26eecdfd717e6a320cf44b4afac2b0732d9fcbe2b7fa0cf6926000905b88821062000b18575050838596971062000a0957505050811b01905560ff90565b80878596829496860151815501950193019062000af7565b60208151910151906020811062000b45575090565b6000199060200360031b1b1690565b601f81511162000b6f5762000b698162000b30565b90511790565b6040519063305a27a960e01b82528160208060048301528251908160248401526000935b82851062000bb7575050604492506000838284010152601f80199101168101030190fd5b848101820151868601604401529381019385935062000b93565b6001600160e01b039081811162000be6571690565b60405162461bcd60e51b815260206004820152602760248201527f53616665436173743a2076616c756520646f65736e27742066697420696e20326044820152663234206269747360c81b6064820152608490fd5b65ffffffffffff9081811162000c4f571690565b60405162461bcd60e51b815260206004820152602660248201527f53616665436173743a2076616c756520646f65736e27742066697420696e203460448201526538206269747360d01b6064820152608490fd5b63ffffffff9081811162000cb5571690565b60405162461bcd60e51b815260206004820152602660248201527f53616665436173743a2076616c756520646f65736e27742066697420696e203360448201526532206269747360d01b6064820152608490fdfe60806040526004361015610023575b361561001957600080fd5b610021611bb8565b005b60003560e01c8063013cf08b1461034357806301ffc9a71461033e57806302a251a314610339578063034201811461033457806306f3f9e61461032f57806306fdde031461032a578063143489d014610325578063150b7a0214610320578063160cbed71461031b57806324bc1a64146103165780632656227d146103115780632d63f6931461030c5780632fe3e26114610307578063328dd982146103025780633932abb1146102fd5780633bccf4fd146102f85780633e4f49e6146102f357806340e58ee5146102ee57806343859632146102e9578063452115d6146102e45780634bf5d7e9146102df57806354fd4d50146102da57806356781388146102d55780635f398a14146102d057806360c4247f146102cb5780637b3c71d3146102c65780637d5e81e2146102c157806384b0196e146102bc57806391ddadf4146102b757806397c3d334146102b25780639a802a6d146102ad578063a7713a70146102a8578063a890c910146102a3578063ab58fb8e1461029e578063b58131b014610299578063bc197c8114610294578063c01f9e371461028f578063c28bc2fa1461028a578063c59057e414610285578063d33219b414610280578063da95691a1461027b578063dd4e2ba514610276578063ddf0b00914610271578063deaaa7cc1461026c578063e23a9a5214610267578063eb9019d414610262578063f23a6e611461025d578063f8ce560a14610258578063fc0c546a146102535763fe0d94c10361000e57611b9e565b611b59565b611b3b565b611ae2565b611a42565b611976565b61193b565b61191c565b6118be565b611824565b6117fb565b6117df565b6116be565b611686565b6115fa565b6115de565b6115c0565b611514565b6114f9565b611413565b6113f7565b6113cc565b611302565b61127a565b611225565b611207565b611198565b611150565b61110e565b6110de565b6110cb565b611072565b61104a565b61101b565b610f49565b610f2c565b610e8e565b610d86565b610d51565b610d3a565b610d07565b610ce3565b610acb565b610a83565b6109a2565b6107b4565b61072c565b610519565b61044d565b346104485760203660031901126104485760043561036081612c28565b9080600052600360205261044460406000206103936001600160401b03600181845416930154166001600160401b031690565b926103a8816000526006602052604060002090565b80549094906001600160a01b031694600581015460076006830154920154926103d08561345f565b956103da8761100c565b6103e38761100c565b604051998a99600260078a149914978b9895926101209895929b9a9794919b6101408b019c8b5260018060a01b031660208b015260408a01526060890152608088015260a087015260c086015260e085015215156101008401521515910152565b0390f35b600080fd5b346104485760203660031901126104485760043563ffffffff60e01b81168091036104485761044490636e665ced60e01b811490811561049b575b5060405190151581529081906020820190565b63bf26d89760e01b8114915081156104fd575b81156104ec575b81156104db575b81156104ca575b5038610488565b6301ffc9a760e01b149050386104c3565b630271189760e51b811491506104bc565b63288ace0360e11b811491506104b5565b6379dd796f60e01b811491506104ae565b600091031261044857565b3461044857600036600319011261044857602060405161c4e08152f35b6024359060ff8216820361044857565b6044359060ff8216820361044857565b9181601f84011215610448578235916001600160401b038311610448576020838186019501011161044857565b634e487b7160e01b600052604160045260246000fd5b606081019081106001600160401b038211176105b457604052565b610583565b6001600160401b0381116105b457604052565b604081019081106001600160401b038211176105b457604052565b608081019081106001600160401b038211176105b457604052565b602081019081106001600160401b038211176105b457604052565b60c081019081106001600160401b038211176105b457604052565b90601f801991011681019081106001600160401b038211176105b457604052565b60405190610666826105cc565b565b6040519060e082018281106001600160401b038211176105b457604052565b6001600160401b0381116105b457601f01601f191660200190565b9190916106ae81610687565b6106bb6040519182610638565b8093828252821161044857818160009384602080950137010152565b9291926106e382610687565b916106f16040519384610638565b829481845281830111610448578281602093846000960137010152565b9080601f8301121561044857816020610729933591016106d7565b90565b346104485760e036600319011261044857610745610536565b6001600160401b0360443581811161044857610765903690600401610556565b916064359081116104485761077e90369060040161070e565b9260843560ff8116810361044857610444946107a49460c4359460a43594600435611f9d565b6040519081529081906020820190565b3461044857602036600319011261044857600954600435906001600160a01b03166107e03382146121e9565b3003610923575b606481116108ac577f0553476bf02ef2726e8ce5ced78d63e26e602e4a2257b1f559418e24b463399790610819613100565b801515806108a2575b61086b575b610857610848610843610838612eea565b65ffffffffffff1690565b6147eb565b6108518461464b565b90613f64565b5050604080519182526020820192909252a1005b61089d6108778261464b565b610898610882610659565b600081526001600160e01b039092166020830152565b6133f2565b610827565b5060085415610822565b60405162461bcd60e51b815260206004820152604360248201527f476f7665726e6f72566f74657351756f72756d4672616374696f6e3a2071756f60448201527f72756d4e756d657261746f72206f7665722071756f72756d44656e6f6d696e616064820152623a37b960e91b608482015260a490fd5b61092d36366106a2565b602081519101205b8061093e614850565b0361093557506107e7565b60005b83811061095c5750506000910152565b818101518382015260200161094c565b9060209161098581518092818552858086019101610949565b601f01601f1916010190565b90602061072992818152019061096c565b3461044857600080600319360112610a805760405190806002546109c581611c11565b80855291600191808316908115610a5657506001146109fb575b610444856109ef81870382610638565b60405191829182610991565b9250600283527f405787fa12a823e0f2b7631cc41b3ba8828b3321ca811111fa75cd3aa3bb5ace5b828410610a3e5750505081016020016109ef826104446109df565b80546020858701810191909152909301928101610a23565b869550610444969350602092506109ef94915060ff191682840152151560051b82010192936109df565b80fd5b34610448576020366003190112610448576004356000526003602052602060018060a01b0360406000205460401c16604051908152f35b6001600160a01b0381160361044857565b3461044857608036600319011261044857610ae7600435610aba565b610af2602435610aba565b6064356001600160401b03811161044857610b1190369060040161070e565b50604051630a85bd0160e11b8152602090f35b6001600160401b0381116105b45760051b60200190565b81601f8201121561044857803591610b5283610b24565b92610b606040519485610638565b808452602092838086019260051b820101928311610448578301905b828210610b8a575050505090565b8380918335610b9881610aba565b815201910190610b7c565b81601f8201121561044857803591610bba83610b24565b92610bc86040519485610638565b808452602092838086019260051b820101928311610448578301905b828210610bf2575050505090565b81358152908301908301610be4565b9080601f8301121561044857813590610c1982610b24565b92610c276040519485610638565b828452602092838086019160051b8301019280841161044857848301915b848310610c555750505050505090565b82356001600160401b038111610448578691610c768484809489010161070e565b815201920191610c45565b6080600319820112610448576001600160401b03916004358381116104485782610cad91600401610b3b565b926024358181116104485783610cc591600401610ba3565b9260443591821161044857610cdc91600401610c01565b9060643590565b34610448576020610cff610cf636610c81565b92919091612d34565b604051908152f35b34610448576000366003190112610448576020610cff65ffffffffffff610d34610d2f612eea565b612a0f565b16613356565b6020610cff610d4836610c81565b92919091611d05565b3461044857602036600319011261044857600435600052600360205260206001600160401b0360406000205416604051908152f35b346104485760003660031901126104485760206040517fb3b3f3b703cd84ce352197dcff232b1b5d3cfb2025ce47cf04742d0651f1af888152f35b90815180825260208080930193019160005b828110610de1575050505090565b83516001600160a01b031685529381019392810192600101610dd3565b90815180825260208080930193019160005b828110610e1e575050505090565b835185529381019392810192600101610e10565b908082519081815260208091019281808460051b8301019501936000915b848310610e605750505050505090565b9091929394958480610e7e600193601f198682030187528a5161096c565b9801930193019194939290610e50565b34610448576020366003190112610448576004356000526006602052610f026040600020610444610ec1600183016124b7565b91610f1e610ed16002830161250f565b91610f10610eed6004610ee6600385016123da565b93016123da565b93604051978897608089526080890190610dc1565b908782036020890152610dfe565b908582036040870152610e32565b908382036060850152610e32565b34610448576000366003190112610448576020604051611c208152f35b346104485760a0366003190112610448576104446107a4600435610f6b610536565b610fe0610fd8610f79610546565b60405160208101917f150214d74d59b7d1e90c73fc22ef3d991dd0a76b046543d4d80ab92d2a50328f835286604083015260ff8616606083015260608252610fc0826105e7565b610fd36084359360643593519020614210565b614194565b919091614074565b60405192610fed84610602565b60008452612038565b634e487b7160e01b600052602160045260246000fd5b6008111561101657565b610ff6565b346104485760203660031901126104485761103760043561345f565b6040516008821015611016576020918152f35b346104485760203660031901126104485761002161106960043561255e565b92919091613c24565b3461044857604036600319011261044857602060ff6110bf60243561109681610aba565b6004356000526006845260086040600020019060018060a01b0316600052602052604060002090565b54166040519015158152f35b34610448576020610cff61106936610c81565b34610448576000366003190112610448576104446110fa612fc0565b60405191829160208352602083019061096c565b346104485760003660031901126104485761044460405161112e816105cc565b60018152603160f81b602082015260405191829160208352602083019061096c565b34610448576040366003190112610448576020610cff61116e610536565b60405161117a81610602565b600081526040519161118b83610602565b60008352336004356120b4565b34610448576080366003190112610448576111b1610536565b6001600160401b0390604435828111610448576111d2903690600401610556565b9091606435938411610448576111fd610cff936111f5602096369060040161070e565b9336916106d7565b90336004356120b4565b34610448576020366003190112610448576020610cff60043561319b565b346104485760603660031901126104485761123e610536565b6044356001600160401b0381116104485760209161126d611266610cff933690600401610556565b36916106d7565b6040519161118b83610602565b34610448576080366003190112610448576001600160401b03600435818111610448576112ab903690600401610b3b565b90602435818111610448576112c4903690600401610ba3565b91604435828111610448576112dd903690600401610c01565b60643592831161044857610444936112fc6107a494369060040161070e565b926136ee565b346104485760003660031901126104485761139d61133f7f000000000000000000000000000000000000000000000000000000000000000061434a565b61044461136b7f0000000000000000000000000000000000000000000000000000000000000000614441565b6113ab6040519161137b83610602565b60008352604051958695600f60f81b875260e0602088015260e087019061096c565b90858203604087015261096c565b90466060850152306080850152600060a085015283820360c0850152610dfe565b346104485760003660031901126104485760206113e7612eea565b65ffffffffffff60405191168152f35b3461044857600036600319011261044857602060405160648152f35b346104485760603660031901126104485760043561143081610aba565b6044356001600160401b03811161044857604491611454602092369060040161070e565b50604051630748d63560e31b81526001600160a01b039182166004820152602480359082015292839182907f0000000000000000000000000000000000000000000000000000000000000000165afa80156114f457610444916000916114c6575b506040519081529081906020820190565b6114e7915060203d81116114ed575b6114df8183610638565b810190612c0d565b386114b5565b503d6114d5565b612c1c565b34610448576000366003190112610448576020610cff613100565b346104485760203660031901126104485760043561153181610aba565b6009546001600160a01b039190821661154b3382146121e9565b300361159a575b7f08f74ea46ef7894f65eabfb5e6e695de773a000b47c529ab559178069b22640160408360095493169381519084168152846020820152a16001600160a01b03191617600955005b6115a436366106a2565b602081519101205b806115b5614850565b036115ac5750611552565b34610448576020366003190112610448576020610cff600435612c28565b3461044857600036600319011261044857602060405160008152f35b346104485760a036600319011261044857611616600435610aba565b611621602435610aba565b6001600160401b0360443581811161044857611641903690600401610ba3565b506064358181116104485761165a903690600401610ba3565b506084359081116104485761167390369060040161070e565b5060405163bc197c8160e01b8152602090f35b3461044857602036600319011261044857600435600052600360205260206001600160401b0360016040600020015416604051908152f35b6060366003190112610448576004356116d681610aba565b6044356001600160401b038111610448576116f5903690600401610556565b600954909291906001600160a01b03166117103382146121e9565b30036117b9575b6117ae91836040519485938437820190600094859383858095520391602435905af13d156117b2573d61174981610687565b906117576040519283610638565b81523d84602083013e5b6040519161176e83610599565b602883527f476f7665726e6f723a2072656c617920726576657274656420776974686f7574602084015267206d65737361676560c01b6040840152613ed8565b5080f35b6060611761565b6117c336366106a2565b602081519101205b806117d4614850565b036117cb5750611717565b34610448576020610cff6117f236610c81565b92919091611c4b565b34610448576000366003190112610448576009546040516001600160a01b039091168152602090f35b346104485760a0366003190112610448576001600160401b0360048035828111610448576118559036908301610b3b565b6024358381116104485761186c9036908401610ba3565b604435848111610448576118839036908501610c01565b6064358581116104485761189a9036908601610c01565b91608435958611610448576118b86107a4956104449736910161070e565b93612235565b34610448576000366003190112610448576104446040516118de816105cc565b601a81527f737570706f72743d627261766f2671756f72756d3d627261766f000000000000602082015260405191829160208352602083019061096c565b3461044857602036600319011261044857610021610cf660043561255e565b346104485760003660031901126104485760206040517f150214d74d59b7d1e90c73fc22ef3d991dd0a76b046543d4d80ab92d2a50328f8152f35b346104485760408060031936011261044857610444906119dd60243561199b81610aba565b60008380516119a981610599565b82815282602082015201526004356000526006602052600883600020019060018060a01b0316600052602052604060002090565b906001600160601b038151926119f284610599565b5460ff81161515845260ff8160081c16602085015260101c1681830152519182918291909160406001600160601b0381606084019580511515855260ff6020820151166020860152015116910152565b346104485760403660031901126104485760446020600435611a6381610aba565b6000604051611a7181610602565b52604051630748d63560e31b81526001600160a01b039182166004820152602480359082015292839182907f0000000000000000000000000000000000000000000000000000000000000000165afa80156114f457610444916000916114c657506040519081529081906020820190565b346104485760a036600319011261044857611afe600435610aba565b611b09602435610aba565b6084356001600160401b03811161044857611b2890369060040161070e565b5060405163f23a6e6160e01b8152602090f35b34610448576020366003190112610448576020610cff600435613356565b34610448576000366003190112610448576040517f00000000000000000000000000000000000000000000000000000000000000006001600160a01b03168152602090f35b602036600319011261044857610021610d4860043561255e565b6009546001600160a01b03163003611bcc57565b60405162461bcd60e51b815260206004820152601f60248201527f476f7665726e6f723a206d7573742073656e6420746f206578656375746f72006044820152606490fd5b90600182811c92168015611c41575b6020831014611c2b57565b634e487b7160e01b600052602260045260246000fd5b91607f1691611c20565b9290611c9792611ca992604051948592611c87611c74602086019960808b5260a0870190610dc1565b601f199687878303016040880152610dfe565b9085858303016060860152610e32565b90608083015203908101835282610638565b51902090565b15611cb657565b60405162461bcd60e51b815260206004820152602160248201527f476f7665726e6f723a2070726f706f73616c206e6f74207375636365737366756044820152601b60fa1b6064820152608490fd5b93929091611d1582828588611c4b565b92611d1f8461345f565b95600887101561101657611d40600497888114908115611e72575b50611caf565b611d676002611d59876000526003602052604060002090565b01805460ff19166001179055565b6040968751908682527f712ae1383f79ac853f8d882153778e0260ef8f03b504e2866e0593e04d2b291f60208093a16009546001600160a01b039081163003611dc2575b505050611dba94959650613e38565b610729611edf565b91959893979094966000998a5b8551811015611e5957808a8a828f8c8c8c8c611def611e029a3093611ec6565b511614611e07575b505050505050611e9c565b611dcf565b611e16600194611e4e97611ec6565b51858151910120915460801d926005600f9685880b835252205501900b6001600160801b036004549181199060801b16911617600455565b8a8a828f8c8c611df7565b509650979350975050611dba9492508695943880611dab565b60059150611e7f8161100c565b1438611d3a565b634e487b7160e01b600052601160045260246000fd5b6000198114611eab5760010190565b611e86565b634e487b7160e01b600052603260045260246000fd5b8051821015611eda5760209160051b010190565b611eb0565b6009546001600160a01b03163003611ef357565b60045480600f0b9060801d600f0b13611f0857565b6000600455565b906020906000604051611f2181610602565b52604051630748d63560e31b81526001600160a01b039384166004820152602481019190915291829060449082907f0000000000000000000000000000000000000000000000000000000000000000165afa9081156114f457600091611f85575090565b610729915060203d81116114ed576114df8183610638565b949261202a610729986120329493969861126696610fd38a8a8d611fc2368a8c6106d7565b6020815191012090602081519101209060ff6040519360208501957fb3b3f3b703cd84ce352197dcff232b1b5d3cfb2025ce47cf04742d0651f1af8887526040860152166060840152608083015260a082015260a081526120228161061d565b519020614210565b949094614074565b926120b4565b9161072993916040519361204b85610602565b600085526120b4565b93909260ff6120809361072997958752166020860152604085015260a0606085015260a084019061096c565b91608081840391015261096c565b909260ff608093610729969584521660208301526040820152816060820152019061096c565b929190836000526003602052604060002060016120d08661345f565b6120d98161100c565b03612198576121016120f561210792546001600160401b031690565b6001600160401b031690565b8261309b565b9461211486848488612ac6565b805161215c57506121567fb8e138887d0aa13bab447e82de9d5c1777041ecd21ca36ba824ff1e6c07ddda4938660405194859460018060a01b0316978561208e565b0390a290565b612156907fe2babfbac5889a709b63bb7f598b324e08bc5a4fb9ec647fb3cbc9ec07eb8712948760405195869560018060a01b03169886612054565b60405162461bcd60e51b815260206004820152602360248201527f476f7665726e6f723a20766f7465206e6f742063757272656e746c792061637460448201526269766560e81b6064820152608490fd5b156121f057565b60405162461bcd60e51b815260206004820152601860248201527f476f7665726e6f723a206f6e6c79476f7665726e616e636500000000000000006044820152606490fd5b919392938051855103612263578481612258866107299861225d95878933612910565b61232a565b916136ee565b60405162461bcd60e51b815260206004820152602860248201527f476f7665726e6f72427261766f3a20696e76616c6964207369676e61747572656044820152670e640d8cadccee8d60c31b6064820152608490fd5b906122c382610b24565b6122d06040519182610638565b82815280926122e1601f1991610b24565b019060005b8281106122f257505050565b8060606020809385010152016122e6565b6004929163ffffffff60e01b1681526123258251809360208685019101610949565b010190565b919061233681516122b9565b926000805b85518110156123d4578061235261237f9285611ec6565b5151612384576123628186611ec6565b515b61236e8289611ec6565b526123798188611ec6565b50611e9c565b61233b565b61238e8185611ec6565b5180516020918201206123cf906001600160e01b031916916123c16123b3858a611ec6565b516040519485938401612303565b03601f198101835282610638565b612364565b50505050565b908154916123e783610b24565b926040916123f783519586610638565b81855260009081526020808220938291908188015b85841061241c5750505050505050565b815183869289549261242d84611c11565b80825260019480861690811561249b5750600114612463575b50612455816001960382610638565b81520197019301929561240c565b8b8a52838a20955089905b8082106124845750810183019450612455612446565b86548383018601529585019588949091019061246e565b60ff19168584015250151560051b810183019450612455612446565b9060405191828154918282526020928383019160005283600020936000905b8282106124ec5750505061066692500383610638565b85546001600160a01b0316845260019586019588955093810193909101906124d6565b9060405191828154918282526020928383019160005283600020936000905b8282106125445750505061066692500383610638565b85548452600195860195889550938101939091019061252e565b600052600660205260406000209061258d61257b600384016123da565b612587600485016123da565b9061232a565b906009830154906125ac60026125a5600187016124b7565b950161250f565b929190565b8181106125bc575050565b600081556001016125b1565b918181106125d557505050565b61066692600052602060002091820191016125b1565b8151916001600160401b0383116105b457600160401b83116105b457612616838354818555846125c8565b602080910191600052806000209060005b848110612635575050505050565b83518382015592810192600101612627565b9190601f811161265657505050565b610666926000526020600020906020601f840160051c83019310612682575b601f0160051c01906125b1565b9091508190612675565b91909182516001600160401b0381116105b4576126b3816126ad8454611c11565b84612647565b602080601f83116001146126ef5750819293946000926126e4575b50508160011b916000199060031b1c1916179055565b0151905038806126ce565b90601f1983169561270585600052602060002090565b926000905b88821061274257505083600195969710612729575b505050811b019055565b015160001960f88460031b161c1916905538808061271f565b8060018596829496860151815501950193019061270a565b815191600160401b83116105b45781548383558084106127b8575b5061278a602080920192600052602060002090565b6000925b84841061279c575050505050565b600183826127ac8394518661268c565b0192019301929061278e565b6000838152846020822092830192015b8281106127d6575050612775565b806127e360019254611c11565b806127f0575b50016127c8565b601f9081811184146128085750508281555b386127e9565b8361282a9261281c85600052602060002090565b920160051c820191016125b1565b60008181526020812081835555612802565b815191600160401b83116105b457815483835580841061289a575b5061286c602080920192600052602060002090565b6000925b84841061287e575050505050565b6001838261288e8394518661268c565b01920193019290612870565b6000838152846020822092830192015b8281106128b8575050612857565b806128c560019254611c11565b806128d2575b50016128aa565b601f9081811184146128ea5750508281555b386128cb565b836128fe9261281c85600052602060002090565b600081815260208120818355556128e4565b939290918551602080970120956129328761292b878661232a565b8487611c4b565b600052600681526040600020936009850196875415612957575b505050505050505050565b85546001600160a01b0319166001600160a01b03909116178555600191828601908251926001600160401b0384116105b457600160401b84116105b45781906129a5858554818755866125c8565b0191600052806000209060005b8481106129f557505050505050916129e06004926129d76129e69695600285016125eb565b6003830161275a565b0161283c565b5538808080808080808061294c565b83516001600160a01b0316838201559281019285016129b2565b65ffffffffffff9081166000190191908211611eab57565b15612a2e57565b60405162461bcd60e51b815260206004820152602d60248201527f476f7665726e6f72436f6d7061746962696c697479427261766f3a20766f746560448201526c08185b1c9958591e4818d85cdd609a1b6064820152608490fd5b9055565b90611c208201809211611eab57565b9061c4e08201809211611eab57565b9060018201809211611eab57565b91908201809211611eab57565b91612b6a612b02612ae460ff94956000526006602052604060002090565b6001600160a01b039095166000908152600886016020526040902090565b612b1c612b17612b13835460ff1690565b1590565b612a27565b805461ff00600885901b1661ffff19909116176001178155612b3d866146b4565b6dffffffffffffffffffffffff000082549160101b16906dffffffffffffffffffffffff00001916179055565b1680612b8057506006612a899101918254612ab9565b60018103612b9857506005612a899101918254612ab9565b600203612bae576007612a899101918254612ab9565b60405162461bcd60e51b815260206004820152602d60248201527f476f7665726e6f72436f6d7061746962696c697479427261766f3a20696e766160448201526c6c696420766f7465207479706560981b6064820152608490fd5b0390fd5b90816020910312610448575190565b6040513d6000823e3d90fd5b6020612c4960018060a01b036009541692600052600a602052604060002090565b5460246040518094819363d45c443560e01b835260048301525afa9081156114f457600091612c82575b50600181036107295750600090565b612c9a915060203d81116114ed576114df8183610638565b38612c73565b949392612ccc608093612cbe612cda9460a08a5260a08a0190610dc1565b9088820360208a0152610dfe565b908682036040880152610e32565b93600060608201520152565b9192612d1560a094612d07612d23949998979960c0875260c0870190610dc1565b908582036020870152610dfe565b908382036040850152610e32565b946000606083015260808201520152565b92909192612d4482858584611c4b565b93612d626004612d538761345f565b612d5c8161100c565b14611caf565b600954612d7f906001600160a01b03165b6001600160a01b031690565b60405163793d064960e11b815294906020908187600481845afa9687156114f457600097612ecb575b5081604051809263b1c5f42760e01b82528180612dcb8b8a8a8d60048601612ca0565b03915afa9182156114f457600092612eae575b5050612df487600052600a602052604060002090565b55600954612e0a906001600160a01b0316612d73565b90813b156104485760008094612e3788604051988997889687956308f2a0bb60e41b875260048701612ce6565b03925af180156114f4577f9a2e42fd6722813d69113e7d0079d3d940171428df7373df9c7f7617cfda289292612e8f92612e7792612e95575b5042612ab9565b60408051858152602081019290925290918291820190565b0390a190565b80612ea2612ea8926105b9565b8061050e565b38612e70565b612ec49250803d106114ed576114df8183610638565b3880612dde565b612ee3919750823d84116114ed576114df8183610638565b9538612da8565b6040516324776b7d60e21b81526020816004817f00000000000000000000000000000000000000000000000000000000000000006001600160a01b03165afa8091600091612f43575b5090610729575061072943614784565b6020813d8211612f7f575b81612f5b60209383610638565b81010312612f7b57519065ffffffffffff82168203610a80575038612f33565b5080fd5b3d9150612f4e565b60405190612f94826105cc565b601d82527f6d6f64653d626c6f636b6e756d6265722666726f6d3d64656661756c740000006020830152565b604051634bf5d7e960e01b8152600080826004817f00000000000000000000000000000000000000000000000000000000000000006001600160a01b03165afa90918282613018575b50506107295750610729612f87565b909192503d8082843e61302b8184610638565b820191602081840312612f7b578051906001600160401b038211613097570182601f82011215612f7b5780519161306183610687565b9361306f6040519586610638565b83855260208484010111610a8057509061308f9160208085019101610949565b903880613009565b8280fd5b604051630748d63560e31b81526001600160a01b0391821660048201526024810192909252602090829060449082907f0000000000000000000000000000000000000000000000000000000000000000165afa9081156114f457600091611f85575090565b6008546000908061311357505060075490565b80600019810111611eab5760087ff3f7a9fe364faab93b216da50a3214154f22a0a2b415b23a84c8169e8b636ee29252015460201c90565b600019810191908211611eab57565b602719810191908211611eab57565b90604051604081018181106001600160401b038211176105b457604052602081935463ffffffff81168352811c910152565b6008908154801561332d576000198101818111611eab57811115611eda576000928084526131ea7ff3f7a9fe364faab93b216da50a3214154f22a0a2b415b23a84c8169e8b636ee28301613169565b9263ffffffff93818582511611156133175750613206906147eb565b928483600581116132c7575b5092939192918116905b8483106132735750505050801560001461323e57505b6001600160e01b031690565b61326e915061324f6132679161314b565b60086000526000805160206148ae8339815191520190565b5460201c90565b613232565b909192938084169080851860011c8201809211611eab578587528383836000805160206148ae833981519152015416116000146132b55750935b92919061321c565b9493506132c190612aab565b926132ad565b90936132d2826144f9565b8203918211611eab578387526000805160206148ae8339815191528201548316868416101561330657508190935b90613212565b93506133128291612aab565b613300565b602001516001600160e01b031695945050505050565b50505060075490565b8115613340570490565b634e487b7160e01b600052601260045260246000fd5b604051632394e7a360e21b815260048101829052906020826024817f00000000000000000000000000000000000000000000000000000000000000006001600160a01b03165afa9182156114f4576000926133ce575b506133b69061319b565b90818102918183041490151715611eab576064900490565b6133b69192506133eb9060203d81116114ed576114df8183610638565b91906133ac565b60085490600160401b8210156105b4576001820180600855821015611eda576008600052805160209182015190911b63ffffffff191663ffffffff91909116176000805160206148ae83398151915290910155565b90816020910312610448575180151581036104485790565b6134688161357c565b906134728261100c565b600482036135785761348e90600052600a602052604060002090565b5480613498575090565b6009549091506134b0906001600160a01b0316612d73565b604051632ab0f52960e01b81526004810183905260209291908381602481855afa9081156114f45760009161355b575b50156134ee57505050600790565b604051632c258a9f60e11b815260048101929092528290829060249082905afa9182156114f45760009261352e575b50501561352957600590565b600290565b61354d9250803d10613554575b6135458183610638565b810190613447565b388061351d565b503d61353b565b6135729150843d8611613554576135458183610638565b386134e0565b5090565b6002613592826000526003602052604060002090565b015460ff81166136b45760081c60ff166136ae576135cd6120f56135c0836000526003602052604060002090565b546001600160401b031690565b8015613669576135de610838612eea565b80911015613662576136106120f56001613602856000526003602052604060002090565b01546001600160401b031690565b101561365c5761361f816136bb565b9081613636575b501561363157600490565b600390565b613656915060005260066020526040600020600660058201549101541090565b38613626565b50600190565b5050600090565b60405162461bcd60e51b815260206004820152601d60248201527f476f7665726e6f723a20756e6b6e6f776e2070726f706f73616c2069640000006044820152606490fd5b50600290565b5050600790565b60005260066020526040600020600360205260056136e66001600160401b0360406000205416613356565b910154101590565b612e8f7f7d84a6263ae0d98d3329bd7b46bb4e8d6f98cd35a7adb45c274c8b7fd5ebd5e0939461372b818761372381516122b9565b878733612910565b61373d6137388233613ae7565b613865565b613748610838612eea565b9561375b6137558861314b565b33611f0f565b506137c661377183516020850120838888611c4b565b9761377f86518851146138b1565b61378c86518451146138b1565b61379886511515613907565b6137c16001600160401b036137ba6135c08c6000526003602052604060002090565b1615613953565b612a8d565b6137cf81612a9c565b9161384d6137dc8361471c565b61381f6137e88661471c565b6138026137f3610668565b6001600160401b039094168452565b336020840152600060408401526001600160401b03166060830152565b60006080820152600060a0820152600060c08201526138488b6000526003602052604060002090565b6139a9565b61385786516122b9565b604051978897338c8a613a5a565b1561386c57565b60405162461bcd60e51b815260206004820152601d60248201527f476f7665726e6f723a2070726f706f73657220726573747269637465640000006044820152606490fd5b156138b857565b60405162461bcd60e51b815260206004820152602160248201527f476f7665726e6f723a20696e76616c69642070726f706f73616c206c656e67746044820152600d60fb1b6064820152608490fd5b1561390e57565b60405162461bcd60e51b815260206004820152601860248201527f476f7665726e6f723a20656d7074792070726f706f73616c00000000000000006044820152606490fd5b1561395a57565b60405162461bcd60e51b815260206004820152602160248201527f476f7665726e6f723a2070726f706f73616c20616c72656164792065786973746044820152607360f81b6064820152608490fd5b815160208301516040808501516001600160401b039384169290911b68010000000000000000600160e01b0316919091176001600160e01b03199091161782556060830151608084015167ffffffffffffffff191691161760018201556106669190613a3f9060c09060020192613a38613a2660a0830151151590565b859060ff801983541691151516179055565b0151151590565b908054909161ff001990911690151560081b61ff0016179055565b9592613abd94613a93613aa192613aaf956107299d9b9c99958b5260018060a01b031660208b01526101208060408c01528a0190610dc1565b9088820360608a0152610dfe565b908682036080880152610e32565b9084820360a0860152610e32565b9360c083015260e082015261010081840391015261096c565b908151811015611eda570160200190565b815160348110613b9e5760131981840101516001600160a01b0319166b1b91f1b211f2119351b859f160a31b01613b9e5791600092613b258161315a565b915b818310613b42575050506001600160a01b0391821691161490565b909193613b68613b63613b558785613ad6565b516001600160f81b03191690565b613ba6565b919015613b935760041b6010600160a01b031660ff919091161793613b8c90611e9c565b9190613b27565b505050505050600190565b505050600190565b60f81c9081602f1080613c1a575b15613bc657600191602f190160ff1690565b8160401080613c10575b15613be2576001916036190160ff1690565b8160601080613c06575b15613bfe576001916056190160ff1690565b600091508190565b5060678210613bec565b5060478210613bd0565b50603a8210613bb4565b91929092613c3482828686611c4b565b936000948552600660205260018060a01b03604086205416803314908115613e12575b5015613dbd57613c6693611c4b565b90613c708261345f565b600881101561101657806002613c959214159081613da7575b81613d92575b50613e8c565b613cbe6002613cae846000526003602052604060002090565b01805461ff001916610100179055565b6040518281527f789cf55be980739dad1d0699b93b58e806b51c9d96619bfa8fe0a28abaa7b30c90602090a1613cfe82600052600a602052604060002090565b54613d07575090565b600954613d1c906001600160a01b0316612d73565b613d3083600052600a602052604060002090565b54813b156130975760405163c4d252f560e01b815260048101919091529082908290602490829084905af180156114f457613d7f575b50613d7b82600052600a602052604060002090565b5590565b80612ea2613d8c926105b9565b38613d66565b60079150613d9f8161100c565b141538613c8f565b9050613db28161100c565b600681141590613c89565b60405162461bcd60e51b815260206004820152602760248201527f476f7665726e6f72427261766f3a2070726f706f7365722061626f76652074686044820152661c995cda1bdb1960ca1b6064820152608490fd5b613e30915065ffffffffffff613e29610d2f612eea565b1690611f0f565b508438613c57565b919060018060a01b036009541690813b1561044857600093613e706040519687958694859463e38335e560e01b865260048601612ca0565b039134905af180156114f457613e835750565b610666906105b9565b15613e9357565b60405162461bcd60e51b815260206004820152601d60248201527f476f7665726e6f723a2070726f706f73616c206e6f74206163746976650000006044820152606490fd5b90919015613ee4575090565b815115613ef45750805190602001fd5b60405162461bcd60e51b815260206004820152908190612c0990602483019061096c565b15613f1f57565b60405162461bcd60e51b815260206004820152601b60248201527f436865636b706f696e743a2064656372656173696e67206b65797300000000006044820152606490fd5b600854919291801561404057614006918185613f8c613f8761324f60209661314b565b613169565b92613f9b845163ffffffff1690565b613fb263ffffffff91828416928391161115613f18565b613fcc613fc3865163ffffffff1690565b63ffffffff1690565b0361400a5750613fe161324f613ff89361314b565b9063ffffffff82549181199060201b169116179055565b01516001600160e01b031690565b9190565b905061403b915061402861401c610659565b63ffffffff9092168252565b6001600160e01b038716818501526133f2565b613ff8565b506140649061405061401c610659565b6001600160e01b03841660208201526133f2565b60009190565b6005111561101657565b61407d8161406a565b806140855750565b61408e8161406a565b600181036140db5760405162461bcd60e51b815260206004820152601860248201527f45434453413a20696e76616c6964207369676e617475726500000000000000006044820152606490fd5b6140e48161406a565b600281036141315760405162461bcd60e51b815260206004820152601f60248201527f45434453413a20696e76616c6964207369676e6174757265206c656e677468006044820152606490fd5b8061413d60039261406a565b1461414457565b60405162461bcd60e51b815260206004820152602260248201527f45434453413a20696e76616c6964207369676e6174757265202773272076616c604482015261756560f01b6064820152608490fd5b9291907f7fffffffffffffffffffffffffffffff5d576e7357a4501ddfe92f46681b20a083116142045791608094939160ff602094604051948552168484015260408301526060820152600093849182805260015afa156114f45781516001600160a01b0381161561365c579190565b50505050600090600390565b60429061421b614236565b906040519161190160f01b8352600283015260228201522090565b307f00000000000000000000000000000000000000000000000000000000000000006001600160a01b03161480614321575b15614291577f000000000000000000000000000000000000000000000000000000000000000090565b60405160208101907f8b73c3c69bb8fe3d512ecc4cf759cc79239f7b179b0ffacaa9a75d522b39400f82527f000000000000000000000000000000000000000000000000000000000000000060408201527f000000000000000000000000000000000000000000000000000000000000000060608201524660808201523060a082015260a08152611ca98161061d565b507f00000000000000000000000000000000000000000000000000000000000000004614614268565b60ff81146143885760ff811690601f8211614376576040519161436c836105cc565b8252602082015290565b604051632cd44ac360e21b8152600490fd5b5060405160008181549161439b83611c11565b8083529260019081811690811561441f57506001146143c2575b5061072992500382610638565b600080805291507f290decd9548b62a8d60345a988386fc84ba6bc95484008f6362f93160ef3e5635b84831061440457506107299350508101602001386143b5565b819350908160209254838589010152019101909184926143eb565b90506020925061072994915060ff191682840152151560051b820101386143b5565b60ff81146144635760ff811690601f8211614376576040519161436c836105cc565b5060405160008160019182549261447984611c11565b8084529381811690811561441f575060011461449c575061072992500382610638565b600081815291507fb10e2d527612073b26eecdfd717e6a320cf44b4afac2b0732d9fcbe2b7fa0cf65b8483106144de57506107299350508101602001386143b5565b819350908160209254838589010152019101909184926144c5565b801561463357806145cc6145c56145bb6145b16145a761459d61459361458960016107299a6000908b60801c80614627575b508060401c8061461a575b508060201c8061460d575b508060101c80614600575b508060081c806145f3575b508060041c806145e6575b508060021c806145d9575b50821c6145d2575b811c1b614582818b613336565b0160011c90565b614582818a613336565b6145828189613336565b6145828188613336565b6145828187613336565b6145828186613336565b6145828185613336565b8092613336565b90614639565b8101614575565b600291509101903861456d565b6004915091019038614562565b6008915091019038614557565b601091509101903861454c565b6020915091019038614541565b6040915091019038614536565b9150506080903861452b565b50600090565b9080821015614646575090565b905090565b6001600160e01b039081811161465f571690565b60405162461bcd60e51b815260206004820152602760248201527f53616665436173743a2076616c756520646f65736e27742066697420696e20326044820152663234206269747360c81b6064820152608490fd5b6001600160601b03908181116146c8571690565b60405162461bcd60e51b815260206004820152602660248201527f53616665436173743a2076616c756520646f65736e27742066697420696e203960448201526536206269747360d01b6064820152608490fd5b6001600160401b0390818111614730571690565b60405162461bcd60e51b815260206004820152602660248201527f53616665436173743a2076616c756520646f65736e27742066697420696e203660448201526534206269747360d01b6064820152608490fd5b65ffffffffffff90818111614797571690565b60405162461bcd60e51b815260206004820152602660248201527f53616665436173743a2076616c756520646f65736e27742066697420696e203460448201526538206269747360d01b6064820152608490fd5b63ffffffff908181116147fc571690565b60405162461bcd60e51b815260206004820152602660248201527f53616665436173743a2076616c756520646f65736e27742066697420696e203360448201526532206269747360d01b6064820152608490fd5b6004549081600f0b809260801d600f0b131561489b5781600052600560205260406000209160008354935560016001600160801b03196004541691016001600160801b031617600455565b604051631ed9509560e11b8152600490fdfef3f7a9fe364faab93b216da50a3214154f22a0a2b415b23a84c8169e8b636ee3a2646970667358221220a5dedb38f07f262bc2a2d500b35e70c42ba2e62c1254c26d0c9e70f200a94b0e64736f6c63430008130033f3f7a9fe364faab93b216da50a3214154f22a0a2b415b23a84c8169e8b636ee30553476bf02ef2726e8ce5ced78d63e26e602e4a2257b1f559418e24b4633997",
    "linkReferences": {}
  },
  "methodIdentifiers": {
    "BALLOT_TYPEHASH()": "deaaa7cc",
    "CLOCK_MODE()": "4bf5d7e9",
    "COUNTING_MODE()": "dd4e2ba5",
    "EXTENDED_BALLOT_TYPEHASH()": "2fe3e261",
    "cancel(address[],uint256[],bytes[],bytes32)": "452115d6",
    "cancel(uint256)": "40e58ee5",
    "castVote(uint256,uint8)": "56781388",
    "castVoteBySig(uint256,uint8,uint8,bytes32,bytes32)": "3bccf4fd",
    "castVoteWithReason(uint256,uint8,string)": "7b3c71d3",
    "castVoteWithReasonAndParams(uint256,uint8,string,bytes)": "5f398a14",
    "castVoteWithReasonAndParamsBySig(uint256,uint8,string,bytes,uint8,bytes32,bytes32)": "03420181",
    "clock()": "91ddadf4",
    "eip712Domain()": "84b0196e",
    "execute(address[],uint256[],bytes[],bytes32)": "2656227d",
    "execute(uint256)": "fe0d94c1",
    "getActions(uint256)": "328dd982",
    "getReceipt(uint256,address)": "e23a9a52",
    "getVotes(address,uint256)": "eb9019d4",
    "getVotesWithParams(address,uint256,bytes)": "9a802a6d",
    "hasVoted(uint256,address)": "43859632",
    "hashProposal(address[],uint256[],bytes[],bytes32)": "c59057e4",
    "name()": "06fdde03",
    "onERC1155BatchReceived(address,address,uint256[],uint256[],bytes)": "bc197c81",
    "onERC1155Received(address,address,uint256,uint256,bytes)": "f23a6e61",
    "onERC721Received(address,address,uint256,bytes)": "150b7a02",
    "proposalDeadline(uint256)": "c01f9e37",
    "proposalEta(uint256)": "ab58fb8e",
    "proposalProposer(uint256)": "143489d0",
    "proposalSnapshot(uint256)": "2d63f693",
    "proposalThreshold()": "b58131b0",
    "proposals(uint256)": "013cf08b",
    "propose(address[],uint256[],bytes[],string)": "7d5e81e2",
    "propose(address[],uint256[],string[],bytes[],string)": "da95691a",
    "queue(address[],uint256[],bytes[],bytes32)": "160cbed7",
    "queue(uint256)": "ddf0b009",
    "quorum(uint256)": "f8ce560a",
    "quorumDenominator()": "97c3d334",
    "quorumNumerator()": "a7713a70",
    "quorumNumerator(uint256)": "60c4247f",
    "quorumVotes()": "24bc1a64",
    "relay(address,uint256,bytes)": "c28bc2fa",
    "state(uint256)": "3e4f49e6",
    "supportsInterface(bytes4)": "01ffc9a7",
    "timelock()": "d33219b4",
    "token()": "fc0c546a",
    "updateQuorumNumerator(uint256)": "06f3f9e6",
    "updateTimelock(address)": "a890c910",
    "version()": "54fd4d50",
    "votingDelay()": "3932abb1",
    "votingPeriod()": "02a251a3"
  },
  "id": 76
}