{
  "abi": [
    {
      "inputs": [],
      "name": "get",
      "outputs": [
        {
          "internalType": "bool",
          "name": "",
          "type": "bool"
        }
      ],
      "stateMutability": "pure",
      "type": "function"
    },
    {
      "inputs": [
        {
          "internalType": "uint256",
          "name": "_value",
          "type": "uint256"
        },
        {
          "internalType": "string",
          "name": "_text",
          "type": "string"
        },
        {
          "internalType": "uint256[]",
          "name": "_values",
          "type": "uint256[]"
        }
      ],
      "name": "initialize",
      "outputs": [],
      "stateMutability": "nonpayable",
      "type": "function"
    },
    {
      "inputs": [],
      "name": "initializeNonPayable",
      "outputs": [],
      "stateMutability": "nonpayable",
      "type": "function"
    },
    {
      "inputs": [
        {
          "internalType": "uint256",
          "name": "_value",
          "type": "uint256"
        }
      ],
      "name": "initializeNonPayableWithValue",
      "outputs": [],
      "stateMutability": "nonpayable",
      "type": "function"
    },
    {
      "inputs": [],
      "name": "initializePayable",
      "outputs": [],
      "stateMutability": "payable",
      "type": "function"
    },
    {
      "inputs": [
        {
          "internalType": "uint256",
          "name": "_value",
          "type": "uint256"
        }
      ],
      "name": "initializePayableWithValue",
      "outputs": [],
      "stateMutability": "payable",
      "type": "function"
    },
    {
      "inputs": [],
      "name": "reverts",
      "outputs": [],
      "stateMutability": "pure",
      "type": "function"
    },
    {
      "inputs": [],
      "name": "text",
      "outputs": [
        {
          "internalType": "string",
          "name": "",
          "type": "string"
        }
      ],
      "stateMutability": "view",
      "type": "function"
    },
    {
      "inputs": [],
      "name": "value",
      "outputs": [
        {
          "internalType": "uint256",
          "name": "",
          "type": "uint256"
        }
      ],
      "stateMutability": "view",
      "type": "function"
    },
    {
      "inputs": [
        {
          "internalType": "uint256",
          "name": "",
          "type": "uint256"
        }
      ],
      "name": "values",
      "outputs": [
        {
          "internalType": "uint256",
          "name": "",
          "type": "uint256"
        }
      ],
      "stateMutability": "view",
      "type": "function"
    },
    {
      "inputs": [],
      "name": "version",
      "outputs": [
        {
          "internalType": "string",
          "name": "",
          "type": "string"
        }
      ],
      "stateMutability": "pure",
      "type": "function"
    }
  ],
  "bytecode": {
    "object": "0x6080806040523461001657610704908161001c8239f35b600080fdfe60806040908082526004908136101561001757600080fd5b600092833560e01c9182631f1bd6921461052457508163227367d51461050c5781633bccbbc9146104b75781633fa4f2451461049a57816354fd4d50146104355781635e383d21146103e65781636d4ce63c146103ca578163763e2831146103b15781639fba1f9a1461039b578163d31f8b6b146100b5575063e79f5bee1461009f57600080fd5b60203660031901126100b15735815580f35b5080fd5b9050346103935760603660031901126103935760249081359067ffffffffffffffff92838311610397573660238401121561039757828501359484861161027d5782519587602095601f19926101128885601f840116018b610636565b808a5236868284010111610393578086899301838c0137890101526044359086821161038f573660238301121561038f578183013591878311610369578260051b95519261016288880185610636565b83528683018581978301019136831161038b5786899101915b83831061037b5750505050823589558751908782116103695781906001998b6101a48c546105fc565b8c601f8211610312575b5050508891601f841160011461029957508b9261028e575b5050600019600383901b1c191690881b1787555b5194851161027d5768010000000000000000851161027d57505060025483600255808410610247575b509060028552845b838110610216578580f35b82517f405787fa12a823e0f2b7631cc41b3ba8828b3321ca811111fa75cd3aa3bb5ace82015591810191840161020b565b61027790847f405787fa12a823e0f2b7631cc41b3ba8828b3321ca811111fa75cd3aa3bb5ace91820191016106b7565b38610203565b634e487b7160e01b87526041905285fd5b0151905038806101c6565b8b8d528b947fb10e2d527612073b26eecdfd717e6a320cf44b4afac2b0732d9fcbe2b7fa0cf6939291168d5b8b8282106102fc57505084116102e3575b505050811b0187556101da565b015160001960f88460031b161c191690553880806102d6565b8385015186558e979095019493840193016102c5565b61035792527fb10e2d527612073b26eecdfd717e6a320cf44b4afac2b0732d9fcbe2b7fa0cf6601f860160051c8101918c871061035f575b601f0160051c01906106b7565b8b388c6101ae565b909150819061034a565b634e487b7160e01b8a5260418452848afd5b823581529181019189910161017b565b8b80fd5b8880fd5b8280fd5b8580fd5b83806003193601126103ae576064815580f35b80fd5b5050346100b15760203660031901126100b15735815580f35b8390346100b157816003193601126100b1576020905160018152f35b919050346103935760203660031901126103935735600254811015610393576002602093527f405787fa12a823e0f2b7631cc41b3ba8828b3321ca811111fa75cd3aa3bb5ace01549051908152f35b839150346100b157816003193601126100b1578051918183019083821067ffffffffffffffff8311176104875750610483935081526002825261563160f01b6020830152519182918261066e565b0390f35b634e487b7160e01b815260418552602490fd5b8390346100b157816003193601126100b157602091549051908152f35b8284346103ae57806003193601126103ae57506020606492519162461bcd60e51b8352820152601c60248201527f44756d6d79496d706c656d656e746174696f6e207265766572746564000000006044820152fd5b83346103ae57806003193601126103ae57600a815580f35b849134610393578260031936011261039357826001805491610545836105fc565b808652928281169081156105d45750600114610578575b50505061056e82610483940383610636565b519182918261066e565b94508085527fb10e2d527612073b26eecdfd717e6a320cf44b4afac2b0732d9fcbe2b7fa0cf65b8286106105bc5750505061056e826020610483958201019461055c565b8054602087870181019190915290950194810161059f565b61048397508693506020925061056e94915060ff191682840152151560051b8201019461055c565b90600182811c9216801561062c575b602083101461061657565b634e487b7160e01b600052602260045260246000fd5b91607f169161060b565b90601f8019910116810190811067ffffffffffffffff82111761065857604052565b634e487b7160e01b600052604160045260246000fd5b6020808252825181830181905290939260005b8281106106a357505060409293506000838284010152601f8019910116010190565b818101860151848201604001528501610681565b8181106106c2575050565b600081556001016106b756fea2646970667358221220b9c3d98fcb50f518a50c2f06b664657eb45a698935411c0bd179c4502ace02dd64736f6c63430008130033",
    "linkReferences": {}
  },
  "methodIdentifiers": {
    "get()": "6d4ce63c",
    "initialize(uint256,string,uint256[])": "d31f8b6b",
    "initializeNonPayable()": "227367d5",
    "initializeNonPayableWithValue(uint256)": "763e2831",
    "initializePayable()": "9fba1f9a",
    "initializePayableWithValue(uint256)": "e79f5bee",
    "reverts()": "3bccbbc9",
    "text()": "1f1bd692",
    "value()": "3fa4f245",
    "values(uint256)": "5e383d21",
    "version()": "54fd4d50"
  },
  "id": 80
}