{
  "abi": [
    {
      "inputs": [],
      "name": "get",
      "outputs": [
        {
          "internalType": "bool",
          "name": "",
          "type": "bool"
        }
      ],
      "stateMutability": "pure",
      "type": "function"
    },
    {
      "inputs": [
        {
          "internalType": "uint256",
          "name": "_value",
          "type": "uint256"
        },
        {
          "internalType": "string",
          "name": "_text",
          "type": "string"
        },
        {
          "internalType": "uint256[]",
          "name": "_values",
          "type": "uint256[]"
        }
      ],
      "name": "initialize",
      "outputs": [],
      "stateMutability": "nonpayable",
      "type": "function"
    },
    {
      "inputs": [],
      "name": "initializeNonPayable",
      "outputs": [],
      "stateMutability": "nonpayable",
      "type": "function"
    },
    {
      "inputs": [
        {
          "internalType": "uint256",
          "name": "_value",
          "type": "uint256"
        }
      ],
      "name": "initializeNonPayableWithValue",
      "outputs": [],
      "stateMutability": "nonpayable",
      "type": "function"
    },
    {
      "inputs": [],
      "name": "initializePayable",
      "outputs": [],
      "stateMutability": "payable",
      "type": "function"
    },
    {
      "inputs": [
        {
          "internalType": "uint256",
          "name": "_value",
          "type": "uint256"
        }
      ],
      "name": "initializePayableWithValue",
      "outputs": [],
      "stateMutability": "payable",
      "type": "function"
    },
    {
      "inputs": [
        {
          "internalType": "uint256",
          "name": "newVal",
          "type": "uint256"
        }
      ],
      "name": "migrate",
      "outputs": [],
      "stateMutability": "payable",
      "type": "function"
    },
    {
      "inputs": [],
      "name": "reverts",
      "outputs": [],
      "stateMutability": "pure",
      "type": "function"
    },
    {
      "inputs": [],
      "name": "text",
      "outputs": [
        {
          "internalType": "string",
          "name": "",
          "type": "string"
        }
      ],
      "stateMutability": "view",
      "type": "function"
    },
    {
      "inputs": [],
      "name": "value",
      "outputs": [
        {
          "internalType": "uint256",
          "name": "",
          "type": "uint256"
        }
      ],
      "stateMutability": "view",
      "type": "function"
    },
    {
      "inputs": [
        {
          "internalType": "uint256",
          "name": "",
          "type": "uint256"
        }
      ],
      "name": "values",
      "outputs": [
        {
          "internalType": "uint256",
          "name": "",
          "type": "uint256"
        }
      ],
      "stateMutability": "view",
      "type": "function"
    },
    {
      "inputs": [],
      "name": "version",
      "outputs": [
        {
          "internalType": "string",
          "name": "",
          "type": "string"
        }
      ],
      "stateMutability": "pure",
      "type": "function"
    }
  ],
  "bytecode": {
    "object": "0x6080806040523461001657610714908161001c8239f35b600080fdfe6080604081815260048036101561001557600080fd5b600091823560e01c9384631f1bd6921461051b57508363227367d5146105035783633bccbbc9146104af5783633fa4f24514610492578363454b0608146100aa57836354fd4d501461042e5783635e383d21146103e15783636d4ce63c146103c5578363763e2831146103a95783639fba1f9a14610393578363d31f8b6b146100af5750505063e79f5bee146100aa57600080fd5b6106ae565b3461038b57606036600319011261038b5760249081359067ffffffffffffffff9283831161038f573660238401121561038f5782850135948486116102755782519587602095601f199261010a8885601f840116018b61062d565b808a523686828401011161038b578086899301838c013789010152604435908682116103875736602383011215610387578183013591878311610361578260051b95519261015a8888018561062d565b8352868301858197830101913683116103835786899101915b8383106103735750505050823589558751908782116103615781906001998b61019c8c546105f3565b8c601f821161030a575b5050508891601f841160011461029157508b92610286575b5050600019600383901b1c191690881b1787555b51948511610275576801000000000000000085116102755750506002548360025580841061023f575b509060028552845b83811061020e578580f35b82517f405787fa12a823e0f2b7631cc41b3ba8828b3321ca811111fa75cd3aa3bb5ace820155918101918401610203565b61026f90847f405787fa12a823e0f2b7631cc41b3ba8828b3321ca811111fa75cd3aa3bb5ace91820191016106c7565b856101fb565b634e487b7160e01b87526041905285fd5b015190508a806101be565b8b8d528b947fb10e2d527612073b26eecdfd717e6a320cf44b4afac2b0732d9fcbe2b7fa0cf6939291168d5b8b8282106102f457505084116102db575b505050811b0187556101d2565b015160001960f88460031b161c191690558a80806102ce565b8385015186558e979095019493840193016102bd565b61034f92527fb10e2d527612073b26eecdfd717e6a320cf44b4afac2b0732d9fcbe2b7fa0cf6601f860160051c8101918c8710610357575b601f0160051c01906106c7565b8b8d8c6101a6565b9091508190610342565b634e487b7160e01b8a5260418452848afd5b8235815291810191899101610173565b8b80fd5b8880fd5b8280fd5b8580fd5b82806003193601126103a6576064815580f35b80fd5b50346103c15760203660031901126103c15735815580f35b5080fd5b9050346103c157816003193601126103c1576020905160018152f35b903461038b57602036600319011261038b573560025481101561038b576002602093527f405787fa12a823e0f2b7631cc41b3ba8828b3321ca811111fa75cd3aa3bb5ace01549051908152f35b8290346103c157816003193601126103c1578051918183019083821067ffffffffffffffff83111761047f575061047b9350815260028252612b1960f11b60208301525191829182610665565b0390f35b634e487b7160e01b815260418552602490fd5b9050346103c157816003193601126103c157602091549051908152f35b91346103a657806003193601126103a657506020606492519162461bcd60e51b8352820152601c60248201527f44756d6d79496d706c656d656e746174696f6e207265766572746564000000006044820152fd5b82346103a657806003193601126103a657600a815580f35b91503461038b578260031936011261038b5782600180549161053c836105f3565b808652928281169081156105cb575060011461056f575b5050506105658261047b94038361062d565b5191829182610665565b94508085527fb10e2d527612073b26eecdfd717e6a320cf44b4afac2b0732d9fcbe2b7fa0cf65b8286106105b35750505061056582602061047b9582010194610553565b80546020878701810191909152909501948101610596565b61047b97508693506020925061056594915060ff191682840152151560051b82010194610553565b90600182811c92168015610623575b602083101461060d57565b634e487b7160e01b600052602260045260246000fd5b91607f1691610602565b90601f8019910116810190811067ffffffffffffffff82111761064f57604052565b634e487b7160e01b600052604160045260246000fd5b6020808252825181830181905290939260005b82811061069a57505060409293506000838284010152601f8019910116010190565b818101860151848201604001528501610678565b60203660031901126106c257600435600055005b600080fd5b8181106106d2575050565b600081556001016106c756fea2646970667358221220680e4da8ba287d4dcfd10ef9ab9cff141134f3e280022b34bfc73f735cee51bd64736f6c63430008130033",
    "linkReferences": {}
  },
  "methodIdentifiers": {
    "get()": "6d4ce63c",
    "initialize(uint256,string,uint256[])": "d31f8b6b",
    "initializeNonPayable()": "227367d5",
    "initializeNonPayableWithValue(uint256)": "763e2831",
    "initializePayable()": "9fba1f9a",
    "initializePayableWithValue(uint256)": "e79f5bee",
    "migrate(uint256)": "454b0608",
    "reverts()": "3bccbbc9",
    "text()": "1f1bd692",
    "value()": "3fa4f245",
    "values(uint256)": "5e383d21",
    "version()": "54fd4d50"
  },
  "id": 80
}