{
  "abi": [
    {
      "inputs": [
        {
          "internalType": "bool",
          "name": "enableReturn",
          "type": "bool"
        },
        {
          "internalType": "bool",
          "name": "enableApprove",
          "type": "bool"
        }
      ],
      "stateMutability": "nonpayable",
      "type": "constructor"
    },
    {
      "anonymous": false,
      "inputs": [
        {
          "indexed": false,
          "internalType": "address",
          "name": "token",
          "type": "address"
        },
        {
          "indexed": false,
          "internalType": "address",
          "name": "account",
          "type": "address"
        },
        {
          "indexed": false,
          "internalType": "uint256",
          "name": "value",
          "type": "uint256"
        }
      ],
      "name": "BalanceOf",
      "type": "event"
    },
    {
      "anonymous": false,
      "inputs": [
        {
          "indexed": false,
          "internalType": "address",
          "name": "token",
          "type": "address"
        },
        {
          "indexed": false,
          "internalType": "uint256",
          "name": "value",
          "type": "uint256"
        }
      ],
      "name": "TotalSupply",
      "type": "event"
    },
    {
      "inputs": [
        {
          "internalType": "address",
          "name": "",
          "type": "address"
        },
        {
          "internalType": "address",
          "name": "token",
          "type": "address"
        },
        {
          "internalType": "uint256",
          "name": "amount",
          "type": "uint256"
        },
        {
          "internalType": "uint256",
          "name": "fee",
          "type": "uint256"
        },
        {
          "internalType": "bytes",
          "name": "data",
          "type": "bytes"
        }
      ],
      "name": "onFlashLoan",
      "outputs": [
        {
          "internalType": "bytes32",
          "name": "",
          "type": "bytes32"
        }
      ],
      "stateMutability": "nonpayable",
      "type": "function"
    }
  ],
  "bytecode": {
    "object": "0x60c03461007957601f6105f938819003918201601f19168301916001600160401b0383118484101761007e57808492604094855283398101031261007957610052602061004b83610094565b9201610094565b60805260a05260405161055790816100a282396080518161016d015260a051816101980152f35b600080fd5b634e487b7160e01b600052604160045260246000fd5b519081151582036100795756fe6080604081815260048036101561001557600080fd5b600090813560e01c6323e30c8b1461002c57600080fd5b346102755760a0366003190112610275576001600160a01b03908035828116036103f5576024918235908116918282036103f1576044359367ffffffffffffffff6084358181116103ed57366023820112156103ed57808401358281116103e957368482840101116103e9578633036103e9576370a0823160e01b8b5230858c015260209a8b8186818b5afa90811561039057908c918b9161039a575b507f6ff2acfcb07917b1e80e53f0fe390b467b1151d15b38730a6e08397799c05a8b916060918d51918b835230908301528d820152a189516318160ddd60e01b81528b8187818b5afa908115610390578a9161035d575b508a516001600160a01b038816815260208101919091527f7249fd4c03cce09b30a13d77804b198e2647c0ccd59eadf4de4e7c16099badc59080604081015b0390a18061029b575b5050507f00000000000000000000000000000000000000000000000000000000000000006101ee575b50505050507f00000000000000000000000000000000000000000000000000000000000000006000146101e857507f439148f0bbc682ca079e46d6e2c2f0c1e3b820f1a291b069d8882abf8cf18dd9905b51908152f35b906101e2565b606435850180951161028a5750855163095ea7b360e01b81526001600160a01b039092169082019081526020810193909352918591839182908690829060400103925af1801561028057610246575b80808080610191565b8381813d8311610279575b61025b81836103f9565b81010312610275575180151503610272573861023d565b80fd5b5080fd5b503d610251565b83513d84823e3d90fd5b634e487b7160e01b86526011825285fd5b888b6102a683610431565b926102b38d5194856103f9565b80845280878386019601863783010152895192838b019081118482101761034b578a52601e83527f416464726573733a206c6f772d6c6576656c2063616c6c206661696c656400008b8401525161033a92918991829182895af13d15610343573d9061031e82610431565b9161032b8c5193846103f9565b82523d8a8d84013e5b8661044d565b50388080610168565b606090610334565b634e487b7160e01b8a5260418652848afd5b90508b81813d8311610389575b61037481836103f9565b81010312610385575161015f610120565b8980fd5b503d61036a565b8b513d8c823e3d90fd5b82819392503d83116103e2575b6103b181836103f9565b8101031261038557518b907f6ff2acfcb07917b1e80e53f0fe390b467b1151d15b38730a6e08397799c05a8b6100c9565b503d6103a7565b8880fd5b8780fd5b8480fd5b8280fd5b90601f8019910116810190811067ffffffffffffffff82111761041b57604052565b634e487b7160e01b600052604160045260246000fd5b67ffffffffffffffff811161041b57601f01601f191660200190565b919290156104af5750815115610461575090565b3b1561046a5790565b60405162461bcd60e51b815260206004820152601d60248201527f416464726573733a2063616c6c20746f206e6f6e2d636f6e74726163740000006044820152606490fd5b8251909150156104c25750805190602001fd5b6040519062461bcd60e51b82528160208060048301528251908160248401526000935b828510610508575050604492506000838284010152601f80199101168101030190fd5b84810182015186860160440152938101938593506104e556fea264697066735822122063d61b62da6fab3101d806601b3f2690f7a81e94853fe86cfab83c7c96bfd36564736f6c63430008130033",
    "linkReferences": {}
  },
  "methodIdentifiers": {
    "onFlashLoan(address,address,uint256,uint256,bytes)": "23e30c8b"
  },
  "id": 61
}