{
  "abi": [
    {
      "anonymous": false,
      "inputs": [
        {
          "indexed": false,
          "internalType": "uint8",
          "name": "version",
          "type": "uint8"
        }
      ],
      "name": "Initialized",
      "type": "event"
    },
    {
      "inputs": [],
      "name": "initialize",
      "outputs": [],
      "stateMutability": "nonpayable",
      "type": "function"
    },
    {
      "inputs": [
        {
          "internalType": "uint256",
          "name": "_number",
          "type": "uint256"
        }
      ],
      "name": "setValue",
      "outputs": [],
      "stateMutability": "nonpayable",
      "type": "function"
    }
  ],
  "bytecode": {
    "object": "0x608080604052346100165761019a908161001c8239f35b600080fdfe608080604052600436101561001357600080fd5b600090813560e01c8063552410771461014657638129fc1c1461003557600080fd5b34610142578160031936011261014257815460ff8160081c161591828093610135575b801561011e575b156100c5575060ff1981166001178355816100b4575b5061007d5780f35b61ff001981541681557f7f26b83ff96e1f2b6a682f133852f6798a09c465da95921460cefb3847402498602060405160018152a180f35b61ffff191661010117825538610075565b62461bcd60e51b815260206004820152602e60248201527f496e697469616c697a61626c653a20636f6e747261637420697320616c72656160448201526d191e481a5b9a5d1a585b1a5e995960921b6064820152608490fd5b50303b15801561005f5750600160ff83161461005f565b50600160ff831610610058565b5080fd5b82346101615760203660031901126101615760043560015580f35b80fdfea2646970667358221220fa12abdbba16181155bc3b914495ee4257b34f500b5d3b795f0227d960fe6b6364736f6c63430008130033",
    "linkReferences": {}
  },
  "methodIdentifiers": {
    "initialize()": "8129fc1c",
    "setValue(uint256)": "55241077"
  },
  "id": 69
}