{
  "abi": [
    {
      "inputs": [],
      "name": "Pausable__NotPaused",
      "type": "error"
    },
    {
      "inputs": [],
      "name": "Pausable__Paused",
      "type": "error"
    },
    {
      "anonymous": false,
      "inputs": [
        {
          "indexed": false,
          "internalType": "address",
          "name": "account",
          "type": "address"
        }
      ],
      "name": "Paused",
      "type": "event"
    },
    {
      "anonymous": false,
      "inputs": [
        {
          "indexed": false,
          "internalType": "address",
          "name": "account",
          "type": "address"
        }
      ],
      "name": "Unpaused",
      "type": "event"
    },
    {
      "inputs": [],
      "name": "__pause",
      "outputs": [],
      "stateMutability": "nonpayable",
      "type": "function"
    },
    {
      "inputs": [],
      "name": "__paused",
      "outputs": [
        {
          "internalType": "bool",
          "name": "status",
          "type": "bool"
        }
      ],
      "stateMutability": "view",
      "type": "function"
    },
    {
      "inputs": [],
      "name": "__unpause",
      "outputs": [],
      "stateMutability": "nonpayable",
      "type": "function"
    },
    {
      "inputs": [],
      "name": "modifier_whenNotPaused",
      "outputs": [],
      "stateMutability": "nonpayable",
      "type": "function"
    },
    {
      "inputs": [],
      "name": "modifier_whenPaused",
      "outputs": [],
      "stateMutability": "nonpayable",
      "type": "function"
    },
    {
      "inputs": [],
      "name": "paused",
      "outputs": [
        {
          "internalType": "bool",
          "name": "status",
          "type": "bool"
        }
      ],
      "stateMutability": "view",
      "type": "function"
    }
  ],
  "bytecode": {
    "object": "0x6080806040523461001657610250908161001c8239f35b600080fdfe60806040818152600436101561001457600080fd5b600091823560e01c90816326f76fbc14610189575080633203da43146101845780635c975abb14610184578063824c6c4a146101155780638c6d6d7e146100a457639842f5741461006457600080fd5b346100a057816003193601126100a05760ff6000805160206101fb833981519152541615610090575080f35b51632ca4452d60e11b8152600490fd5b5080fd5b50346100a057816003193601126100a0576000805160206101fb833981519152805460ff81166101045760ff19166001179055513381527f62e78cea01bee320cd4e420270b5ea74000d11b0c9f74754ebdbfc544b05a25890602090a180f35b82516302ca8ced60e11b8152600490fd5b50346100a057816003193601126100a0576000805160206101fb833981519152805460ff8116156101735760ff19169055513381527f5db9ee0a495bf2e6ff9c91a7834c1ba4fdd244a5e8aa4e537bd38aeae4b073aa90602090a180f35b8251632ca4452d60e11b8152600490fd5b6101c5565b8390346100a057816003193601126100a05760ff6000805160206101fb83398151915254166101b6575080f35b6302ca8ced60e11b8152600490fd5b346101f55760003660031901126101f557602060ff6000805160206101fb83398151915254166040519015158152f35b600080fdfe68721c0bbf2c02a4d65000340d1370666be06a630022208d4baa9bd7a4b6fea8a2646970667358221220fa42f753d4d2e60d8085f5d223f78d2274949264fa803d96e6a4ddc61cea6afd64736f6c63430008130033",
    "linkReferences": {}
  },
  "methodIdentifiers": {
    "__pause()": "8c6d6d7e",
    "__paused()": "3203da43",
    "__unpause()": "824c6c4a",
    "modifier_whenNotPaused()": "26f76fbc",
    "modifier_whenPaused()": "9842f574",
    "paused()": "5c975abb"
  },
  "id": 346
}