{
  "abi": [
    {
      "inputs": [
        {
          "internalType": "address",
          "name": "admin",
          "type": "address"
        }
      ],
      "stateMutability": "nonpayable",
      "type": "constructor"
    },
    {
      "inputs": [],
      "name": "EnumerableSet__IndexOutOfBounds",
      "type": "error"
    },
    {
      "inputs": [],
      "name": "UintUtils__InsufficientHexLength",
      "type": "error"
    },
    {
      "anonymous": false,
      "inputs": [
        {
          "indexed": true,
          "internalType": "bytes32",
          "name": "role",
          "type": "bytes32"
        },
        {
          "indexed": true,
          "internalType": "bytes32",
          "name": "previousAdminRole",
          "type": "bytes32"
        },
        {
          "indexed": true,
          "internalType": "bytes32",
          "name": "newAdminRole",
          "type": "bytes32"
        }
      ],
      "name": "RoleAdminChanged",
      "type": "event"
    },
    {
      "anonymous": false,
      "inputs": [
        {
          "indexed": true,
          "internalType": "bytes32",
          "name": "role",
          "type": "bytes32"
        },
        {
          "indexed": true,
          "internalType": "address",
          "name": "account",
          "type": "address"
        },
        {
          "indexed": true,
          "internalType": "address",
          "name": "sender",
          "type": "address"
        }
      ],
      "name": "RoleGranted",
      "type": "event"
    },
    {
      "anonymous": false,
      "inputs": [
        {
          "indexed": true,
          "internalType": "bytes32",
          "name": "role",
          "type": "bytes32"
        },
        {
          "indexed": true,
          "internalType": "address",
          "name": "account",
          "type": "address"
        },
        {
          "indexed": true,
          "internalType": "address",
          "name": "sender",
          "type": "address"
        }
      ],
      "name": "RoleRevoked",
      "type": "event"
    },
    {
      "inputs": [
        {
          "internalType": "bytes32",
          "name": "role",
          "type": "bytes32"
        },
        {
          "internalType": "address",
          "name": "account",
          "type": "address"
        }
      ],
      "name": "checkRole",
      "outputs": [],
      "stateMutability": "view",
      "type": "function"
    },
    {
      "inputs": [
        {
          "internalType": "bytes32",
          "name": "role",
          "type": "bytes32"
        }
      ],
      "name": "checkRole",
      "outputs": [],
      "stateMutability": "view",
      "type": "function"
    },
    {
      "inputs": [
        {
          "internalType": "bytes32",
          "name": "role",
          "type": "bytes32"
        }
      ],
      "name": "getRoleAdmin",
      "outputs": [
        {
          "internalType": "bytes32",
          "name": "",
          "type": "bytes32"
        }
      ],
      "stateMutability": "view",
      "type": "function"
    },
    {
      "inputs": [
        {
          "internalType": "bytes32",
          "name": "role",
          "type": "bytes32"
        },
        {
          "internalType": "uint256",
          "name": "index",
          "type": "uint256"
        }
      ],
      "name": "getRoleMember",
      "outputs": [
        {
          "internalType": "address",
          "name": "",
          "type": "address"
        }
      ],
      "stateMutability": "view",
      "type": "function"
    },
    {
      "inputs": [
        {
          "internalType": "bytes32",
          "name": "role",
          "type": "bytes32"
        }
      ],
      "name": "getRoleMemberCount",
      "outputs": [
        {
          "internalType": "uint256",
          "name": "",
          "type": "uint256"
        }
      ],
      "stateMutability": "view",
      "type": "function"
    },
    {
      "inputs": [
        {
          "internalType": "bytes32",
          "name": "role",
          "type": "bytes32"
        },
        {
          "internalType": "address",
          "name": "account",
          "type": "address"
        }
      ],
      "name": "grantRole",
      "outputs": [],
      "stateMutability": "nonpayable",
      "type": "function"
    },
    {
      "inputs": [
        {
          "internalType": "bytes32",
          "name": "role",
          "type": "bytes32"
        },
        {
          "internalType": "address",
          "name": "account",
          "type": "address"
        }
      ],
      "name": "hasRole",
      "outputs": [
        {
          "internalType": "bool",
          "name": "",
          "type": "bool"
        }
      ],
      "stateMutability": "view",
      "type": "function"
    },
    {
      "inputs": [
        {
          "internalType": "bytes32",
          "name": "role",
          "type": "bytes32"
        }
      ],
      "name": "renounceRole",
      "outputs": [],
      "stateMutability": "nonpayable",
      "type": "function"
    },
    {
      "inputs": [
        {
          "internalType": "bytes32",
          "name": "role",
          "type": "bytes32"
        },
        {
          "internalType": "address",
          "name": "account",
          "type": "address"
        }
      ],
      "name": "revokeRole",
      "outputs": [],
      "stateMutability": "nonpayable",
      "type": "function"
    },
    {
      "inputs": [
        {
          "internalType": "bytes32",
          "name": "role",
          "type": "bytes32"
        },
        {
          "internalType": "bytes32",
          "name": "adminRole",
          "type": "bytes32"
        }
      ],
      "name": "setRoleAdmin",
      "outputs": [],
      "stateMutability": "nonpayable",
      "type": "function"
    }
  ],
  "bytecode": {
    "object": "0x60803461014957601f6109df38819003918201601f19168301916001600160401b0383118484101761014e5780849260209460405283398101031261014957516001600160a01b038116908190036101495760008181527f56672a897fec8f593dbda72d8f96ed3062a0fc2846fe0fef1ce1d2d41603db90602081905260408220547f56672a897fec8f593dbda72d8f96ed3062a0fc2846fe0fef1ce1d2d41603db8f90156100e1575b50506040519133917f2f8788117e7eff1d82e926ec794901d17c78024a50270940304540a733656f0d8180a461087a90816101658239f35b80546801000000000000000081101561013557600181018083558110156101215784908285526020852001555490838352602052604082205538806100a9565b634e487b7160e01b84526032600452602484fd5b634e487b7160e01b84526041600452602484fd5b600080fd5b634e487b7160e01b600052604160045260246000fdfe6040608081526004908136101561001557600080fd5b600091823560e01c90816312d9a6ad146103a95781631e4e00911461034b578163248a9ca3146103135781632f2ff15d1461020f5781638bb9c5bf146101f05781639010d07c1461018757816391d148541461012f578163c5b9519014610110578163ca15c873146100d7575063d547741f1461009157600080fd5b346100d35760026100d0916100cb6100a8366103c4565b939092838752600080516020610825833981519152602052862001543390610412565b6106fc565b80f35b5080fd5b90503461010c57602036600319011261010c576020928291358152600080516020610825833981519152845220549051908152f35b8280fd5b8390346100d35760203660031901126100d3576100d090339035610412565b5050346100d35761017e60209282610146366103c4565b908352600080516020610825833981519152865291206001600160a01b03909116600090815260019091016020526040902054151590565b90519015158152f35b90503461010c578160031936011261010c57816024359382358152600080516020610825833981519152602052209081548410156101e257506020926101cc916107e5565b905491519160018060a01b039160031b1c168152f35b825163e637bf3b60e01b8152fd5b8390346100d35760203660031901126100d3576100d0903390356106fc565b90503461010c5761021f366103c4565b909283855260008051602061082583398151915280602052610248600283882001543390610412565b8486526020528085209160018060a01b031692610275848460019160005201602052604060002054151590565b156102a7575b50505033917f2f8788117e7eff1d82e926ec794901d17c78024a50270940304540a733656f0d8480a480f35b8254906801000000000000000082101561030057506102e76102d08260018794018655856107e5565b819391549060031b91821b91600019901b19161790565b905560018254928487520160205284205538808061027b565b634e487b7160e01b875260419052602486fd5b90503461010c57602036600319011261010c578160209360029235815260008051602061082583398151915285522001549051908152f35b90503461010c578160031936011261010c57356002602435928285526000805160206108258339815191526020528420019082825492557fbd79b86ffe0ab8e8776151514217cd7cacd52c909f66475c3af44e129f0b00ff8480a480f35b83346103c1576100d06103bb366103c4565b90610412565b80fd5b60409060031901126103ea57600435906024356001600160a01b03811681036103ea5790565b600080fd5b60005b8381106104025750506000910152565b81810151838201526020016103f2565b6000908082526000805160206108258339815191526020526040926104538484209160018060a01b0316809260019160005201602052604060002054151590565b1561045e5750505050565b91835191606083019367ffffffffffffffff94848110868211176106e8578652602a84526020840191863684378451156106d457603083538451916001928310156106c0576078602187015360295b83811161067057506105e557865190608082018281108882111761065c57885260428252602082019260603685378251156106485760308453825181101561064857607860218401536041905b8082116105f65750506105e5579161057993918793606797985195869361054f60208601997f416363657373436f6e74726f6c3a206163636f756e74200000000000000000008b5251809260378801906103ef565b8401917001034b99036b4b9b9b4b733903937b6329607d1b603784015251809360488401906103ef565b0103602881018452601f199586910116830195838710908711176105d1575084926105c86044959385601f945262461bcd60e51b865260206004870152518092816024880152878701906103ef565b01168101030190fd5b634e487b7160e01b81526041600452602490fd5b865163c913478560e01b8152600490fd5b9091600f81166010811015610634576f181899199a1a9b1b9c1cb0b131b232b360811b901a6106258486610813565b5360041c9160001901906104fa565b634e487b7160e01b88526032600452602488fd5b634e487b7160e01b86526032600452602486fd5b634e487b7160e01b86526041600452602486fd5b90600f811660108110156106ac576f181899199a1a9b1b9c1cb0b131b232b360811b901a61069e8389610813565b5360041c90600019016104ad565b634e487b7160e01b87526032600452602487fd5b634e487b7160e01b85526032600452602485fd5b634e487b7160e01b84526032600452602484fd5b634e487b7160e01b84526041600452602484fd5b90600091808352600080516020610825833981519152602052604083209160018060a01b03169160018101908385528160205260408520549081610765575b5050507ff6391f5c32d9c69d2a47ea670b442974b53935d1edc7fd64eb21e047a839171b339380a4565b6000199161077683835401836107e5565b90549060031b1c8061078d6102d0868501866107e5565b90558752836020526040872055805480156107d1578201916107af83836107e5565b909182549160031b1b191690555582845260205282604081205538808061073b565b634e487b7160e01b87526031600452602487fd5b80548210156107fd5760005260206000200190600090565b634e487b7160e01b600052603260045260246000fd5b9081518110156107fd57016020019056fed3889cc5458b268d0544e5534672df1296288ca3f93cbd39bd6f497a5c622811a2646970667358221220f0554c702693836f105d8f4eb9b1f4699bc196e79136249be3278525aa41c69c64736f6c63430008130033",
    "linkReferences": {}
  },
  "methodIdentifiers": {
    "checkRole(bytes32)": "c5b95190",
    "checkRole(bytes32,address)": "12d9a6ad",
    "getRoleAdmin(bytes32)": "248a9ca3",
    "getRoleMember(bytes32,uint256)": "9010d07c",
    "getRoleMemberCount(bytes32)": "ca15c873",
    "grantRole(bytes32,address)": "2f2ff15d",
    "hasRole(bytes32,address)": "91d14854",
    "renounceRole(bytes32)": "8bb9c5bf",
    "revokeRole(bytes32,address)": "d547741f",
    "setRoleAdmin(bytes32,bytes32)": "1e4e0091"
  },
  "id": 264
}