{
  "abi": [
    {
      "inputs": [],
      "name": "Initializable__AlreadyInitialized",
      "type": "error"
    },
    {
      "anonymous": false,
      "inputs": [
        {
          "indexed": false,
          "internalType": "uint8",
          "name": "version",
          "type": "uint8"
        }
      ],
      "name": "Initialized",
      "type": "event"
    },
    {
      "inputs": [],
      "name": "__getInitializedVersion",
      "outputs": [
        {
          "internalType": "uint8",
          "name": "version",
          "type": "uint8"
        }
      ],
      "stateMutability": "view",
      "type": "function"
    },
    {
      "inputs": [
        {
          "internalType": "uint8",
          "name": "version",
          "type": "uint8"
        }
      ],
      "name": "__setInitializedVersion",
      "outputs": [],
      "stateMutability": "nonpayable",
      "type": "function"
    },
    {
      "inputs": [],
      "name": "modifier_initializer",
      "outputs": [],
      "stateMutability": "nonpayable",
      "type": "function"
    },
    {
      "inputs": [
        {
          "internalType": "uint8",
          "name": "version",
          "type": "uint8"
        }
      ],
      "name": "modifier_reinitializer",
      "outputs": [],
      "stateMutability": "nonpayable",
      "type": "function"
    }
  ],
  "bytecode": {
    "object": "0x608080604052346100165761020d908161001c8239f35b600080fdfe608080604052600436101561001357600080fd5b600090813560e01c9081637533908114610130575080639eff3e6f14610108578063a9ee2d4c1461007e5763f63c68ee1461004d57600080fd5b3461007b57602036600319011261007b5760043560ff81168103610077576100749061016e565b80f35b5080fd5b80fd5b503461007b578060031936011261007b577f58200b7f57da39f2faa846ff29bd836ec3d3f012ed3975da2cd78f1b83b59cf18054600160ff821610156100f65760019060ff19161790557f7f26b83ff96e1f2b6a682f133852f6798a09c465da95921460cefb3847402498602060405160018152a180f35b6040516317456d5560e11b8152600490fd5b503461007b57602036600319011261007b5760043560ff81168103610077576100749061016e565b90503461007757816003193601126100775760209060ff7f58200b7f57da39f2faa846ff29bd836ec3d3f012ed3975da2cd78f1b83b59cf154168152f35b7f58200b7f57da39f2faa846ff29bd836ec3d3f012ed3975da2cd78f1b83b59cf19060ff825491168060ff831610156100f6577f7f26b83ff96e1f2b6a682f133852f6798a09c465da95921460cefb3847402498928160209360ff1916179055604051908152a156fea2646970667358221220d003f939afe0ed3f3aa9e9037d870dd9464ee03a8f77d71d2e67a8a8b84e32a764736f6c63430008130033",
    "linkReferences": {}
  },
  "methodIdentifiers": {
    "__getInitializedVersion()": "75339081",
    "__setInitializedVersion(uint8)": "f63c68ee",
    "modifier_initializer()": "a9ee2d4c",
    "modifier_reinitializer(uint8)": "9eff3e6f"
  },
  "id": 384
}