{
  "abi": [
    {
      "inputs": [
        {
          "internalType": "address",
          "name": "mercuryBaseAddress",
          "type": "address"
        },
        {
          "internalType": "address",
          "name": "deployerAddress",
          "type": "address"
        }
      ],
      "stateMutability": "nonpayable",
      "type": "constructor"
    },
    {
      "anonymous": false,
      "inputs": [
        {
          "indexed": true,
          "internalType": "uint256",
          "name": "tokenId",
          "type": "uint256"
        },
        {
          "indexed": true,
          "internalType": "address",
          "name": "user",
          "type": "address"
        }
      ],
      "name": "LoseGame",
      "type": "event"
    },
    {
      "anonymous": false,
      "inputs": [
        {
          "indexed": true,
          "internalType": "address",
          "name": "previousOwner",
          "type": "address"
        },
        {
          "indexed": true,
          "internalType": "address",
          "name": "newOwner",
          "type": "address"
        }
      ],
      "name": "OwnershipTransferred",
      "type": "event"
    },
    {
      "anonymous": false,
      "inputs": [
        {
          "indexed": true,
          "internalType": "uint256",
          "name": "tokenId",
          "type": "uint256"
        },
        {
          "indexed": true,
          "internalType": "address",
          "name": "user",
          "type": "address"
        }
      ],
      "name": "WinGame",
      "type": "event"
    },
    {
      "inputs": [
        {
          "internalType": "address",
          "name": "to",
          "type": "address"
        },
        {
          "internalType": "uint256",
          "name": "tokenId",
          "type": "uint256"
        }
      ],
      "name": "approveForGame",
      "outputs": [],
      "stateMutability": "nonpayable",
      "type": "function"
    },
    {
      "inputs": [
        {
          "internalType": "address",
          "name": "",
          "type": "address"
        }
      ],
      "name": "burnerAddressToTokenId",
      "outputs": [
        {
          "internalType": "uint256",
          "name": "",
          "type": "uint256"
        }
      ],
      "stateMutability": "view",
      "type": "function"
    },
    {
      "inputs": [
        {
          "internalType": "uint64",
          "name": "gridWidth",
          "type": "uint64"
        },
        {
          "internalType": "uint64",
          "name": "gridHeight",
          "type": "uint64"
        },
        {
          "internalType": "uint64",
          "name": "lengthToWin",
          "type": "uint64"
        },
        {
          "internalType": "uint64",
          "name": "initialBalance",
          "type": "uint64"
        }
      ],
      "name": "createLobby",
      "outputs": [],
      "stateMutability": "nonpayable",
      "type": "function"
    },
    {
      "inputs": [],
      "name": "createOrJoinDefault",
      "outputs": [],
      "stateMutability": "nonpayable",
      "type": "function"
    },
    {
      "inputs": [],
      "name": "defaultGameQueue",
      "outputs": [
        {
          "internalType": "address",
          "name": "",
          "type": "address"
        }
      ],
      "stateMutability": "view",
      "type": "function"
    },
    {
      "inputs": [
        {
          "internalType": "address",
          "name": "",
          "type": "address"
        }
      ],
      "name": "gamePerPlayer",
      "outputs": [
        {
          "internalType": "address",
          "name": "",
          "type": "address"
        }
      ],
      "stateMutability": "view",
      "type": "function"
    },
    {
      "inputs": [
        {
          "internalType": "address",
          "name": "winnerBurner",
          "type": "address"
        },
        {
          "internalType": "address",
          "name": "loserBurner",
          "type": "address"
        }
      ],
      "name": "handleWinLoss",
      "outputs": [],
      "stateMutability": "nonpayable",
      "type": "function"
    },
    {
      "inputs": [
        {
          "internalType": "address",
          "name": "to",
          "type": "address"
        },
        {
          "internalType": "uint256",
          "name": "tokenId",
          "type": "uint256"
        }
      ],
      "name": "isApprovedForGame",
      "outputs": [
        {
          "internalType": "bool",
          "name": "",
          "type": "bool"
        }
      ],
      "stateMutability": "view",
      "type": "function"
    },
    {
      "inputs": [
        {
          "internalType": "address",
          "name": "lobby",
          "type": "address"
        }
      ],
      "name": "joinLobby",
      "outputs": [],
      "stateMutability": "nonpayable",
      "type": "function"
    },
    {
      "inputs": [
        {
          "internalType": "uint256",
          "name": "",
          "type": "uint256"
        }
      ],
      "name": "lobbyGameQueue",
      "outputs": [
        {
          "internalType": "address",
          "name": "",
          "type": "address"
        }
      ],
      "stateMutability": "view",
      "type": "function"
    },
    {
      "inputs": [],
      "name": "owner",
      "outputs": [
        {
          "internalType": "address",
          "name": "",
          "type": "address"
        }
      ],
      "stateMutability": "view",
      "type": "function"
    },
    {
      "inputs": [
        {
          "internalType": "address",
          "name": "",
          "type": "address"
        }
      ],
      "name": "paramsPerGame",
      "outputs": [
        {
          "internalType": "uint64",
          "name": "gridWidth",
          "type": "uint64"
        },
        {
          "internalType": "uint64",
          "name": "gridHeight",
          "type": "uint64"
        },
        {
          "internalType": "uint64",
          "name": "lengthToWin",
          "type": "uint64"
        },
        {
          "internalType": "uint64",
          "name": "initialBalance",
          "type": "uint64"
        }
      ],
      "stateMutability": "view",
      "type": "function"
    },
    {
      "inputs": [
        {
          "internalType": "address",
          "name": "mercuryBaseAddress",
          "type": "address"
        }
      ],
      "name": "registerMercuryBase",
      "outputs": [],
      "stateMutability": "nonpayable",
      "type": "function"
    },
    {
      "inputs": [
        {
          "internalType": "address",
          "name": "deployerAddress",
          "type": "address"
        }
      ],
      "name": "registerMercuryBidTacToeDeployer",
      "outputs": [],
      "stateMutability": "nonpayable",
      "type": "function"
    },
    {
      "inputs": [],
      "name": "renounceOwnership",
      "outputs": [],
      "stateMutability": "nonpayable",
      "type": "function"
    },
    {
      "inputs": [
        {
          "internalType": "address",
          "name": "newOwner",
          "type": "address"
        }
      ],
      "name": "transferOwnership",
      "outputs": [],
      "stateMutability": "nonpayable",
      "type": "function"
    },
    {
      "inputs": [
        {
          "internalType": "uint256",
          "name": "tokenId",
          "type": "uint256"
        }
      ],
      "name": "unapproveForGame",
      "outputs": [],
      "stateMutability": "nonpayable",
      "type": "function"
    },
    {
      "inputs": [],
      "name": "withdrawFromQueue",
      "outputs": [],
      "stateMutability": "nonpayable",
      "type": "function"
    }
  ],
  "bytecode": {
    "object": "0x6080346100c357601f6113ee38819003918201601f19168301916001600160401b038311848410176100c85780849260409485528339810103126100c357610052602061004b836100de565b92016100de565b60008054336001600160a01b0319808316821784556040519590946001600160a01b03949093859391908416907f8be0079c531659141344cd1fd0a4f28419497f9722a3daafe3b4186f6b6457e09080a316836001541617600155169060025416176002556112fb90816100f38239f35b600080fd5b634e487b7160e01b600052604160045260246000fd5b51906001600160a01b03821682036100c35756fe6040608081526004908136101561001557600080fd5b600091823560e01c9081630f5a703014610dc4578163114e00d514610bd6578163238fb042146109195781632e0afd12146108e3578163392a4cd8146108a357816339a0096914610862578163715018a614610808578382637d85924e146107bd575081638d8a7baf1461067c5781638da5cb5b14610654578163ad647d4d1461055f578163b56befe3146104fa578163b83724131461049b578163ba64925314610472578163c058d4a714610226578163c4453ade146101eb578163f2fde38b1461011f575063f9fbd843146100eb57600080fd5b3461011b578060031936011261011b57602090610112610109610e04565b6024359061114c565b90519015158152f35b5080fd5b9050346101e75760203660031901126101e75761013a610e04565b9061014361126d565b6001600160a01b03918216928315610195575050600054826001600160601b0360a01b821617600055167f8be0079c531659141344cd1fd0a4f28419497f9722a3daafe3b4186f6b6457e0600080a380f35b906020608492519162461bcd60e51b8352820152602660248201527f4f776e61626c653a206e6577206f776e657220697320746865207a65726f206160448201526564647265737360d01b6064820152fd5b8280fd5b50503461011b57602036600319011261011b576020916001600160a01b0390829082610215610e04565b168152600685522054169051908152f35b83833461011b576020806003193601126101e757610242610e04565b6001600160a01b038082168086526005845284862054909391929060ff161561042157826001541633875287835285872054813b1561041d57879060248a838a5195869485936306c1d0cf60e51b85528401525af18015610413579087916103fb575b5050826002541690813b156103f75785516393dae5eb60e01b81526001600160a01b039091168189019081523360208201529091879183919082908490829060400103925af180156103ed579086916103d5575b50503385526006815283852080546001600160a01b0319168417905560085460001992908381019081116103c2576103318291610e1a565b90549060031b1c16908487526009835285872054936103728361035387610e1a565b90919082549060031b9160018060a01b03809116831b921b1916179055565b60085480156103af5788995090600994939291019061039082610e1a565b909182549160031b1b1916905560085586525282842055825281205580f35b634e487b7160e01b895260318a52602489fd5b634e487b7160e01b875260118852602487fd5b6103de90610e67565b6103e95784876102f9565b8480fd5b85513d88823e3d90fd5b8680fd5b61040490610e67565b61040f5785886102a5565b8580fd5b86513d89823e3d90fd5b8780fd5b845162461bcd60e51b8152808801839052602560248201527f536b796c6162426964546163546f653a206c6f62627920646f6573206e6f7420604482015264195e1a5cdd60da1b6064820152608490fd5b50503461011b578160031936011261011b57600a5490516001600160a01b039091168152602090f35b50503461011b57602036600319011261011b5760809181906001600160a01b036104c3610e04565b1681526007602052205481519167ffffffffffffffff80831684528083831c16602085015282851c169083015260c01c6060820152f35b919050346101e757806003193601126101e757610515610e04565b916024359261052c610527853361114c565b611203565b8385526003602090815283862080546001600160a01b0319166001600160a01b0390931692831790559085525282205580f35b8391503461011b578160031936011261011b57600a54926001600160a01b0380851633036105f55783946001600160601b0360a01b16600a5560015416913384528060205281842054833b156103e957602485928385519687948593632d778c2d60e21b85528401525af19081156105ec57506105d95750f35b6105e290610e67565b6105e95780f35b80fd5b513d84823e3d90fd5b815162461bcd60e51b8152602081850152603360248201527f536b796c6162426964546163546f653a206d73672e73656e646572206973206e6044820152726f7420696e2064656661756c7420717565756560681b6064820152608490fd5b50503461011b578160031936011261011b57905490516001600160a01b039091168152602090f35b8391503461011b57608036600319011261011b5780359067ffffffffffffffff918281168091036107b857602435928084168094036107b8576044358181168091036107b8576064359182168092036107b8576001543387526020859052878720546001600160a01b039691871690813b156107b4578891602483928c5194859384926306c1d0cf60e51b84528c8401525af180156107aa57908891610796575b50509061074793929188519361073285610e91565b84526020840152878301526060820152610eee565b91600854948591841685526009602052842055680100000000000000008410156107835750610353836001610780949501600855610e1a565b80f35b634e487b7160e01b835260419052602482fd5b61079f90610e67565b6103f757868961071d565b89513d8a823e3d90fd5b8880fd5b600080fd5b929150346108045760203660031901126108045780356107e0610527823361114c565b83526003602090815282842080546001600160a01b03191690553384525281205580f35b5050fd5b83346105e957806003193601126105e95761082161126d565b600080546001600160a01b0319811682556001600160a01b03167f8be0079c531659141344cd1fd0a4f28419497f9722a3daafe3b4186f6b6457e08280a380f35b9050346101e75760203660031901126101e75735916008548310156105e9575061088d602092610e1a565b905491519160018060a01b039160031b1c168152f35b83346105e95760203660031901126105e9576108bd610e04565b6108c561126d565b60018060a01b03166001600160601b0360a01b600154161760015580f35b9050346101e75760203660031901126101e75760209282916001600160a01b0361090b610e04565b168252845220549051908152f35b83833461011b578060031936011261011b57610933610e04565b6024936001600160a01b038535818116939192918482036107b8573387526020946005865260ff878920541615610b82578482168852600686523385888a205416149081610b71575b5015610b09579661099661099088996110bf565b926110bf565b918460015416938751956331a9108f60e11b8088528383890152888886818a5afa978815610aff578b98610ae0575b50818a519816847fb514304f90924de53edc4dc0c1d1ce8e8273631e1ebfb8acf104e9dcfee9d2378d80a38752848288015287878581895afa968715610ad6578a97610aa7575b5088519616847f3c10bd743d673868ce07ec30c1855c1aa2b291ba8a59875598d2aa60a381cbc38b80a3843b156107b45763dd7a2e8560e01b865285015283015284908290604490829084905af18015610a9a57908491610a86575b505033835260058152818320805460ff191690556007905281205580f35b610a8f90610e67565b610804578285610a68565b50505051903d90823e3d90fd5b610ac8919750883d8a11610acf575b610ac08183610ead565b810190610ecf565b958b610a0c565b503d610ab6565b89513d8c823e3d90fd5b610af8919850893d8b11610acf57610ac08183610ead565b968c6109c5565b8a513d8d823e3d90fd5b855162461bcd60e51b8152808401869052603e818a01527f536b796c6162426964546163546f653a206275726e657220616464726573736560448201527f7320646f6573206e6f742062656c6f6e6720746f20746869732067616d6500006064820152608490fd5b88525085872054841633148961097c565b865162461bcd60e51b81528085018790526029818b01527f536b796c6162426964546163546f653a206d73672e73656e646572206973206e6044820152686f7420612067616d6560b81b6064820152608490fd5b9050346101e757826003193601126101e7576001543384526020829052828420546001600160a01b03918591908316803b156101e75760248392875194859384926306c1d0cf60e51b8452898401525af18015610dba57610da7575b50600a928184541615600014610c5957505081546001600160a01b03191633179091555080f35b8483608084600254168451928380926318577e9760e21b82525afa8015610d20578290610d2e575b610c8b9150610eee565b9383600254169084875416823b15610d2a5784516393dae5eb60e01b81526001600160a01b03808916938201938452909116602083015291839183919082908490829060400103925af18015610d2057610d0c575b505081845416855260066020528420906001600160601b0360a01b921682825416179055815416905580f35b610d1590610e67565b6103e9578438610ce0565b83513d84823e3d90fd5b8380fd5b506080813d8211610d9f575b81610d4760809383610ead565b8101031261011b57610c8b90610d956060855192610d6484610e91565b610d6d816110aa565b8452610d7b602082016110aa565b6020850152610d8b8782016110aa565b87850152016110aa565b6060820152610c81565b3d9150610d3a565b610db390949194610e67565b9238610c32565b84513d87823e3d90fd5b83346105e95760203660031901126105e957610dde610e04565b610de661126d565b60018060a01b03166001600160601b0360a01b600254161760025580f35b600435906001600160a01b03821682036107b857565b600854811015610e515760086000527ff3f7a9fe364faab93b216da50a3214154f22a0a2b415b23a84c8169e8b636ee30190600090565b634e487b7160e01b600052603260045260246000fd5b67ffffffffffffffff8111610e7b57604052565b634e487b7160e01b600052604160045260246000fd5b6080810190811067ffffffffffffffff821117610e7b57604052565b90601f8019910116810190811067ffffffffffffffff821117610e7b57604052565b908160209103126107b857516001600160a01b03811681036107b85790565b336000908152600660209081526040808320546001600160a01b039493908516611040578460025416928251946364dcddeb60e01b865267ffffffffffffffff9485825116600488015282820190868251166024890152858301918783511660448a0152848960c4818960608901968d88511660648401523360848401523060a48401525af1988915611036578699611003575b5067ffffffffffffffff60401b899a60069798999a16998a8952600787528989209551169151891b169267ffffffffffffffff60801b905160801b169167ffffffffffffffff60c01b905160c01b1692171717905560058152838320600160ff198254161790553383525220906001600160601b0360a01b82541617905590565b6006969798995061102c67ffffffffffffffff60401b91873d8911610acf57610ac08183610ead565b9998979650610f82565b87513d88823e3d90fd5b815162461bcd60e51b815260048101849052603a60248201527f536b796c6162426964546163546f653a20612067616d652068617320616c726560448201527f616479206265656e20637265617465642062792063616c6c65720000000000006064820152608490fd5b519067ffffffffffffffff821682036107b857565b9060009160018060a01b0380911680845260046020528360408120549260015416803b1561011b578190602460405180988193632d778c2d60e21b83528860048401525af194851561113f576040939495611130575b5090815260066020522080546001600160a01b031916905590565b61113990610e67565b38611115565b50604051903d90823e3d90fd5b60018060a01b038092602082600154169360446040518097819363430c208160e01b835216968760048301528560248301525afa9384156111f7576000946111b9575b50831561119d575b50505090565b9091925060005260036020526040600020541614388080611197565b6020949194813d82116111ef575b816111d460209383610ead565b8101031261011b57519081151582036105e95750923861118f565b3d91506111c7565b6040513d6000823e3d90fd5b1561120a57565b60405162461bcd60e51b815260206004820152603560248201527f536b796c616247616d65426173653a2063616c6c6572206973206e6f7420746f6044820152741ad95b881bdddb995c881bdc88185c1c1c9bdd9959605a1b6064820152608490fd5b6000546001600160a01b0316330361128157565b606460405162461bcd60e51b815260206004820152602060248201527f4f776e61626c653a2063616c6c6572206973206e6f7420746865206f776e65726044820152fdfea2646970667358221220326b2f576e6aaa76038b70481bf9111024bb57c08536b5621942c942b983f7c064736f6c63430008130033",
    "linkReferences": {}
  },
  "methodIdentifiers": {
    "approveForGame(address,uint256)": "b56befe3",
    "burnerAddressToTokenId(address)": "2e0afd12",
    "createLobby(uint64,uint64,uint64,uint64)": "8d8a7baf",
    "createOrJoinDefault()": "114e00d5",
    "defaultGameQueue()": "ba649253",
    "gamePerPlayer(address)": "c4453ade",
    "handleWinLoss(address,address)": "238fb042",
    "isApprovedForGame(address,uint256)": "f9fbd843",
    "joinLobby(address)": "c058d4a7",
    "lobbyGameQueue(uint256)": "39a00969",
    "owner()": "8da5cb5b",
    "paramsPerGame(address)": "b8372413",
    "registerMercuryBase(address)": "392a4cd8",
    "registerMercuryBidTacToeDeployer(address)": "0f5a7030",
    "renounceOwnership()": "715018a6",
    "transferOwnership(address)": "f2fde38b",
    "unapproveForGame(uint256)": "7d85924e",
    "withdrawFromQueue()": "ad647d4d"
  },
  "id": 9
}