{
  "abi": [
    {
      "inputs": [
        {
          "internalType": "address",
          "name": "owner",
          "type": "address"
        }
      ],
      "stateMutability": "nonpayable",
      "type": "constructor"
    },
    {
      "inputs": [],
      "name": "Ownable__NotOwner",
      "type": "error"
    },
    {
      "inputs": [],
      "name": "Ownable__NotTransitiveOwner",
      "type": "error"
    },
    {
      "inputs": [],
      "name": "SafeOwnable__NotNomineeOwner",
      "type": "error"
    },
    {
      "anonymous": false,
      "inputs": [
        {
          "indexed": true,
          "internalType": "address",
          "name": "previousOwner",
          "type": "address"
        },
        {
          "indexed": true,
          "internalType": "address",
          "name": "newOwner",
          "type": "address"
        }
      ],
      "name": "OwnershipTransferred",
      "type": "event"
    },
    {
      "inputs": [],
      "name": "__acceptOwnership",
      "outputs": [],
      "stateMutability": "nonpayable",
      "type": "function"
    },
    {
      "inputs": [],
      "name": "__nomineeOwner",
      "outputs": [
        {
          "internalType": "address",
          "name": "",
          "type": "address"
        }
      ],
      "stateMutability": "view",
      "type": "function"
    },
    {
      "inputs": [],
      "name": "__owner",
      "outputs": [
        {
          "internalType": "address",
          "name": "",
          "type": "address"
        }
      ],
      "stateMutability": "view",
      "type": "function"
    },
    {
      "inputs": [
        {
          "internalType": "address",
          "name": "account",
          "type": "address"
        }
      ],
      "name": "__setNomineeOwner",
      "outputs": [],
      "stateMutability": "nonpayable",
      "type": "function"
    },
    {
      "inputs": [
        {
          "internalType": "address",
          "name": "account",
          "type": "address"
        }
      ],
      "name": "__transferOwnership",
      "outputs": [],
      "stateMutability": "nonpayable",
      "type": "function"
    },
    {
      "inputs": [],
      "name": "acceptOwnership",
      "outputs": [],
      "stateMutability": "nonpayable",
      "type": "function"
    },
    {
      "inputs": [],
      "name": "modifier_onlyNomineeOwner",
      "outputs": [],
      "stateMutability": "nonpayable",
      "type": "function"
    },
    {
      "inputs": [],
      "name": "nomineeOwner",
      "outputs": [
        {
          "internalType": "address",
          "name": "",
          "type": "address"
        }
      ],
      "stateMutability": "view",
      "type": "function"
    },
    {
      "inputs": [],
      "name": "owner",
      "outputs": [
        {
          "internalType": "address",
          "name": "",
          "type": "address"
        }
      ],
      "stateMutability": "view",
      "type": "function"
    },
    {
      "inputs": [
        {
          "internalType": "address",
          "name": "account",
          "type": "address"
        }
      ],
      "name": "transferOwnership",
      "outputs": [],
      "stateMutability": "nonpayable",
      "type": "function"
    }
  ],
  "bytecode": {
    "object": "0x6080346100bc57601f61048538819003918201601f19168301916001600160401b038311848410176100c1578084926020946040528339810103126100bc57516001600160a01b0390818116908190036100bc577f8a22373512790c48b83a1fe2efdd2888d4a917bcdc24d0adf63e60f671680460908154816040519482167f8be0079c531659141344cd1fd0a4f28419497f9722a3daafe3b4186f6b6457e0600080a36001600160a01b0319161790556103ad90816100d88239f35b600080fd5b634e487b7160e01b600052604160045260246000fdfe608060405260048036101561001357600080fd5b600090813560e01c806313effa0f146102985780634dea1a0114610264578063615d27a91461023857806379ba5097146101a1578063891fe55d146101235780638ab5150a146101195780638da5cb5b1461011e57806395468e8e14610119578063f2fde38b146100bf5763fc3a4c431461008d57600080fd5b346100bb5760203660031901126100bb57356001600160a01b03811681036100bb576100b890610309565b80f35b5080fd5b50346100bb5760203660031901126100bb578035906001600160a01b038083168303610115576000805160206103588339815191525416330361010657506100b890610309565b604051632f7a8ee160e01b8152fd5b8380fd5b6102d3565b610298565b823461019e578060031936011261019e57600080516020610358833981519152805490336001600160a01b0383167f8be0079c531659141344cd1fd0a4f28419497f9722a3daafe3b4186f6b6457e08580a36001600160a01b0319918216331790556000805160206103388339815191528054909116905580f35b80fd5b50346100bb57816003193601126100bb57600080516020610338833981519152805490916001600160a01b03919082821633036102295750600080516020610358833981519152805492339084167f8be0079c531659141344cd1fd0a4f28419497f9722a3daafe3b4186f6b6457e08780a36001600160a01b03199283163317905516905580f35b60405163efd1052d60e01b8152fd5b50346100bb5760203660031901126100bb57356001600160a01b03811681036100bb576100b890610309565b50346100bb57816003193601126100bb57600080516020610338833981519152546001600160a01b03163303610229575080f35b346102ce5760003660031901126102ce57600080516020610358833981519152546040516001600160a01b039091168152602090f35b600080fd5b346102ce5760003660031901126102ce57600080516020610338833981519152546040516001600160a01b039091168152602090f35b60008051602061033883398151915280546001600160a01b0319166001600160a01b0390921691909117905556fe24aa1f7b31fd188a8d3ecfb06bc55c806040e59b03bd4396283442fce66178908a22373512790c48b83a1fe2efdd2888d4a917bcdc24d0adf63e60f671680460a26469706673582212209ad6048488caba0a3348685d0a9287e58597037a4b0f8f81a4e6c4cf20b2ec5064736f6c63430008130033",
    "linkReferences": {}
  },
  "methodIdentifiers": {
    "__acceptOwnership()": "891fe55d",
    "__nomineeOwner()": "95468e8e",
    "__owner()": "13effa0f",
    "__setNomineeOwner(address)": "fc3a4c43",
    "__transferOwnership(address)": "615d27a9",
    "acceptOwnership()": "79ba5097",
    "modifier_onlyNomineeOwner()": "4dea1a01",
    "nomineeOwner()": "8ab5150a",
    "owner()": "8da5cb5b",
    "transferOwnership(address)": "f2fde38b"
  },
  "id": 228
}