{
  "abi": [
    {
      "inputs": [
        {
          "internalType": "uint256",
          "name": "",
          "type": "uint256"
        }
      ],
      "name": "bytesMap",
      "outputs": [
        {
          "internalType": "bytes",
          "name": "",
          "type": "bytes"
        }
      ],
      "stateMutability": "view",
      "type": "function"
    },
    {
      "inputs": [
        {
          "internalType": "bytes32",
          "name": "slot",
          "type": "bytes32"
        }
      ],
      "name": "getAddress",
      "outputs": [
        {
          "internalType": "address",
          "name": "",
          "type": "address"
        }
      ],
      "stateMutability": "view",
      "type": "function"
    },
    {
      "inputs": [
        {
          "internalType": "bytes32",
          "name": "slot",
          "type": "bytes32"
        }
      ],
      "name": "getBoolean",
      "outputs": [
        {
          "internalType": "bool",
          "name": "",
          "type": "bool"
        }
      ],
      "stateMutability": "view",
      "type": "function"
    },
    {
      "inputs": [
        {
          "internalType": "bytes32",
          "name": "slot",
          "type": "bytes32"
        }
      ],
      "name": "getBytes",
      "outputs": [
        {
          "internalType": "bytes",
          "name": "",
          "type": "bytes"
        }
      ],
      "stateMutability": "view",
      "type": "function"
    },
    {
      "inputs": [
        {
          "internalType": "bytes32",
          "name": "slot",
          "type": "bytes32"
        }
      ],
      "name": "getBytes32",
      "outputs": [
        {
          "internalType": "bytes32",
          "name": "",
          "type": "bytes32"
        }
      ],
      "stateMutability": "view",
      "type": "function"
    },
    {
      "inputs": [
        {
          "internalType": "uint256",
          "name": "key",
          "type": "uint256"
        }
      ],
      "name": "getBytesStorage",
      "outputs": [
        {
          "internalType": "bytes",
          "name": "",
          "type": "bytes"
        }
      ],
      "stateMutability": "view",
      "type": "function"
    },
    {
      "inputs": [
        {
          "internalType": "bytes32",
          "name": "slot",
          "type": "bytes32"
        }
      ],
      "name": "getString",
      "outputs": [
        {
          "internalType": "string",
          "name": "",
          "type": "string"
        }
      ],
      "stateMutability": "view",
      "type": "function"
    },
    {
      "inputs": [
        {
          "internalType": "uint256",
          "name": "key",
          "type": "uint256"
        }
      ],
      "name": "getStringStorage",
      "outputs": [
        {
          "internalType": "string",
          "name": "",
          "type": "string"
        }
      ],
      "stateMutability": "view",
      "type": "function"
    },
    {
      "inputs": [
        {
          "internalType": "bytes32",
          "name": "slot",
          "type": "bytes32"
        }
      ],
      "name": "getUint256",
      "outputs": [
        {
          "internalType": "uint256",
          "name": "",
          "type": "uint256"
        }
      ],
      "stateMutability": "view",
      "type": "function"
    },
    {
      "inputs": [
        {
          "internalType": "bytes32",
          "name": "slot",
          "type": "bytes32"
        },
        {
          "internalType": "address",
          "name": "value",
          "type": "address"
        }
      ],
      "name": "setAddress",
      "outputs": [],
      "stateMutability": "nonpayable",
      "type": "function"
    },
    {
      "inputs": [
        {
          "internalType": "bytes32",
          "name": "slot",
          "type": "bytes32"
        },
        {
          "internalType": "bool",
          "name": "value",
          "type": "bool"
        }
      ],
      "name": "setBoolean",
      "outputs": [],
      "stateMutability": "nonpayable",
      "type": "function"
    },
    {
      "inputs": [
        {
          "internalType": "bytes32",
          "name": "slot",
          "type": "bytes32"
        },
        {
          "internalType": "bytes",
          "name": "value",
          "type": "bytes"
        }
      ],
      "name": "setBytes",
      "outputs": [],
      "stateMutability": "nonpayable",
      "type": "function"
    },
    {
      "inputs": [
        {
          "internalType": "bytes32",
          "name": "slot",
          "type": "bytes32"
        },
        {
          "internalType": "bytes32",
          "name": "value",
          "type": "bytes32"
        }
      ],
      "name": "setBytes32",
      "outputs": [],
      "stateMutability": "nonpayable",
      "type": "function"
    },
    {
      "inputs": [
        {
          "internalType": "uint256",
          "name": "key",
          "type": "uint256"
        },
        {
          "internalType": "bytes",
          "name": "value",
          "type": "bytes"
        }
      ],
      "name": "setBytesStorage",
      "outputs": [],
      "stateMutability": "nonpayable",
      "type": "function"
    },
    {
      "inputs": [
        {
          "internalType": "bytes32",
          "name": "slot",
          "type": "bytes32"
        },
        {
          "internalType": "string",
          "name": "value",
          "type": "string"
        }
      ],
      "name": "setString",
      "outputs": [],
      "stateMutability": "nonpayable",
      "type": "function"
    },
    {
      "inputs": [
        {
          "internalType": "uint256",
          "name": "key",
          "type": "uint256"
        },
        {
          "internalType": "string",
          "name": "value",
          "type": "string"
        }
      ],
      "name": "setStringStorage",
      "outputs": [],
      "stateMutability": "nonpayable",
      "type": "function"
    },
    {
      "inputs": [
        {
          "internalType": "bytes32",
          "name": "slot",
          "type": "bytes32"
        },
        {
          "internalType": "uint256",
          "name": "value",
          "type": "uint256"
        }
      ],
      "name": "setUint256",
      "outputs": [],
      "stateMutability": "nonpayable",
      "type": "function"
    },
    {
      "inputs": [
        {
          "internalType": "uint256",
          "name": "",
          "type": "uint256"
        }
      ],
      "name": "stringMap",
      "outputs": [
        {
          "internalType": "string",
          "name": "",
          "type": "string"
        }
      ],
      "stateMutability": "view",
      "type": "function"
    }
  ],
  "bytecode": {
    "object": "0x60808060405234610016576107e0908161001c8239f35b600080fdfe60406080815260048036101561001457600080fd5b600091823560e01c80630afb30ba146104e75780631e133d0f1461011a57806321f8a721146104bd5780632e28d0841461041657806333598b00146101b65780633848207a146103f15780633e60bd78146103005780634e91db08146102e75780634f3029c2146102e75780635a46e25d146101d65780636e89955014610200578063986e791a146101925780639b22f343146101d6578063a6ed563e146101b6578063c031a18014610192578063ca446dd91461015a578063df6e58d61461011a5763f8715b3e146100e657600080fd5b346101125736600319011261011657356024358015158091036101125760ff8019835416911617905580f35b8280fd5b5080fd5b50903461011257602036600319011261011257816101569361014392358152806020522061064b565b9051918291602083526020830190610716565b0390f35b50346101125736600319011261011657356024356001600160a01b038116908190036101125781546001600160a01b03191617905580f35b5082346101b35760203660031901126101b35750610143610156923561064b565b80fd5b509034610112576020366003190112610112576020925035549051908152f35b5090346101125760203660031901126101125781610156936101439235815260016020522061064b565b8284346101b357610210366105bf565b909367ffffffffffffffff82116102d45750610236816102308454610611565b84610756565b82601f821160011461026f57839482939492610264575b50508160011b916000199060031b1c191617905580f35b01359050848061024d565b601f198216948385526020918286209286905b8882106102bc575050836001959697106102a2575b505050811b01905580f35b0135600019600384901b60f8161c19169055848080610297565b80600184968294958701358155019501920190610282565b634e487b7160e01b845260419052602483fd5b5034610112573660031901126101165760243590355580f35b5091903461011657610311366105bf565b91845260209484865284209267ffffffffffffffff83116103de57506103418261033b8554610611565b85610756565b8394601f831160011461037c5750938394829394926103715750508160011b916000199060031b1c191617905580f35b01359050388061024d565b90601f198316958486528286209286905b8882106103c6575050836001959697106103ac57505050811b01905580f35b0135600019600384901b60f8161c19169055388080610297565b8060018496829495870135815501950192019061038d565b634e487b7160e01b855260419052602484fd5b5082346101b35760203660031901126101b3575060ff60209235541690519015158152f35b8284346101b357610426366105bf565b909367ffffffffffffffff82116102d45750610446816102308454610611565b82601f8211600114610473578394829394926102645750508160011b916000199060031b1c191617905580f35b601f198216948385526020918286209286905b8882106104a5575050836001959697106102a257505050811b01905580f35b80600184968294958701358155019501920190610486565b50903461011257602036600319011261011257355490516001600160a01b03909116815260209150f35b5034610112576104f6366105bf565b91859391935260019260209184835286209467ffffffffffffffff84116105ac575061052c836105268754610611565b87610756565b8591601f84116001146105665750928293918392879461055b575b50501b916000199060031b1c191617905580f35b013592503880610547565b9183601f1981168789528489209489905b8883831061059257505050106103ac57505050811b01905580f35b868601358855909601959384019387935090810190610577565b634e487b7160e01b875260419052602486fd5b604060031982011261060c576004359160243567ffffffffffffffff9283821161060c578060238301121561060c57816004013593841161060c576024848301011161060c576024019190565b600080fd5b90600182811c92168015610641575b602083101461062b57565b634e487b7160e01b600052602260045260246000fd5b91607f1691610620565b906040519160009080549061065f82610611565b9081865260019283811690816000146106f557506001146106b8575b505050829003601f01601f1916820167ffffffffffffffff8111838210176106a257604052565b634e487b7160e01b600052604160045260246000fd5b9092506000526020918260002091836000935b8385106106e1575050505083010138808061067b565b8054888601830152930192849082016106cb565b92935050506020925060ff191682850152151560051b83010138808061067b565b919082519283825260005b848110610742575050826000602080949584010152601f8019910116010190565b602081830181015184830182015201610721565b90601f811161076457505050565b600091825260208220906020601f850160051c830194106107a0575b601f0160051c01915b82811061079557505050565b818155600101610789565b909250829061078056fea2646970667358221220c54f6aab24679b2cc7225e2c16a8c5131f3688e7282ef88d34d552c5ecb1d49564736f6c63430008130033",
    "linkReferences": {}
  },
  "methodIdentifiers": {
    "bytesMap(uint256)": "5a46e25d",
    "getAddress(bytes32)": "21f8a721",
    "getBoolean(bytes32)": "3848207a",
    "getBytes(bytes32)": "c031a180",
    "getBytes32(bytes32)": "a6ed563e",
    "getBytesStorage(uint256)": "9b22f343",
    "getString(bytes32)": "986e791a",
    "getStringStorage(uint256)": "df6e58d6",
    "getUint256(bytes32)": "33598b00",
    "setAddress(bytes32,address)": "ca446dd9",
    "setBoolean(bytes32,bool)": "f8715b3e",
    "setBytes(bytes32,bytes)": "2e28d084",
    "setBytes32(bytes32,bytes32)": "4e91db08",
    "setBytesStorage(uint256,bytes)": "0afb30ba",
    "setString(bytes32,string)": "6e899550",
    "setStringStorage(uint256,string)": "3e60bd78",
    "setUint256(bytes32,uint256)": "4f3029c2",
    "stringMap(uint256)": "1e133d0f"
  },
  "id": 103
}