{
  "abi": [
    {
      "inputs": [
        {
          "internalType": "bytes32",
          "name": "",
          "type": "bytes32"
        },
        {
          "internalType": "bytes",
          "name": "",
          "type": "bytes"
        }
      ],
      "name": "isValidSignature",
      "outputs": [
        {
          "internalType": "bytes4",
          "name": "",
          "type": "bytes4"
        }
      ],
      "stateMutability": "pure",
      "type": "function"
    }
  ],
  "bytecode": {
    "object": "0x6080806040523461001657610105908161001c8239f35b600080fdfe60806040526004361015601157600080fd5b6000803560e01c631626ba7e14602657600080fd5b3460aa57604036600319011260aa5760243567ffffffffffffffff80821160a6573660238301121560a65781600401359080821160a25760405190601f8301601f19908116603f011682019081118282101760a2576040528181523660248385010111609e57816024602094018483013701015260c3565b8380fd5b60ad565b8280fd5b80fd5b634e487b7160e01b600052604160045260246000fd5b60001960005260206000f3fea2646970667358221220e31dd592d00ef9be921710ac3011c729a7c1f5f3a875b85ef11775fcbfb3dc8364736f6c63430008130033",
    "linkReferences": {}
  },
  "methodIdentifiers": {
    "isValidSignature(bytes32,bytes)": "1626ba7e"
  },
  "id": 82
}