{
  "abi": [
    {
      "inputs": [
        {
          "internalType": "address",
          "name": "originalOwner",
          "type": "address"
        }
      ],
      "stateMutability": "nonpayable",
      "type": "constructor"
    },
    {
      "anonymous": false,
      "inputs": [
        {
          "indexed": true,
          "internalType": "address",
          "name": "previousOwner",
          "type": "address"
        },
        {
          "indexed": true,
          "internalType": "address",
          "name": "newOwner",
          "type": "address"
        }
      ],
      "name": "OwnershipTransferred",
      "type": "event"
    },
    {
      "inputs": [
        {
          "internalType": "bytes32",
          "name": "hash",
          "type": "bytes32"
        },
        {
          "internalType": "bytes",
          "name": "signature",
          "type": "bytes"
        }
      ],
      "name": "isValidSignature",
      "outputs": [
        {
          "internalType": "bytes4",
          "name": "magicValue",
          "type": "bytes4"
        }
      ],
      "stateMutability": "view",
      "type": "function"
    },
    {
      "inputs": [],
      "name": "owner",
      "outputs": [
        {
          "internalType": "address",
          "name": "",
          "type": "address"
        }
      ],
      "stateMutability": "view",
      "type": "function"
    },
    {
      "inputs": [],
      "name": "renounceOwnership",
      "outputs": [],
      "stateMutability": "nonpayable",
      "type": "function"
    },
    {
      "inputs": [
        {
          "internalType": "address",
          "name": "newOwner",
          "type": "address"
        }
      ],
      "name": "transferOwnership",
      "outputs": [],
      "stateMutability": "nonpayable",
      "type": "function"
    }
  ],
  "bytecode": {
    "object": "0x60803461011b57601f61067638819003918201601f19168301916001600160401b038311848410176101205780849260209460405283398101031261011b57516001600160a01b038082169081830361011b5761005b33610136565b339060005416036100d757156100835761007490610136565b6040516104f8908161017e8239f35b60405162461bcd60e51b815260206004820152602660248201527f4f776e61626c653a206e6577206f776e657220697320746865207a65726f206160448201526564647265737360d01b6064820152608490fd5b606460405162461bcd60e51b815260206004820152602060248201527f4f776e61626c653a2063616c6c6572206973206e6f7420746865206f776e65726044820152fd5b600080fd5b634e487b7160e01b600052604160045260246000fd5b600080546001600160a01b039283166001600160a01b03198216811783559216907f8be0079c531659141344cd1fd0a4f28419497f9722a3daafe3b4186f6b6457e09080a356fe608060408181526004908136101561001657600080fd5b600092833560e01c9081631626ba7e146101a557508063715018a6146101485780638da5cb5b1461011c5763f2fde38b1461005057600080fd5b34610118576020366003190112610118576001600160a01b0382358181169391929084900361011457610081610289565b83156100c257505082546001600160a01b0319811683178455167f8be0079c531659141344cd1fd0a4f28419497f9722a3daafe3b4186f6b6457e08380a380f35b906020608492519162461bcd60e51b8352820152602660248201527f4f776e61626c653a206e6577206f776e657220697320746865207a65726f206160448201526564647265737360d01b6064820152fd5b8480fd5b8280fd5b838234610144578160031936011261014457905490516001600160a01b039091168152602090f35b5080fd5b83346101a257806003193601126101a257610161610289565b80546001600160a01b03198116825581906001600160a01b03167f8be0079c531659141344cd1fd0a4f28419497f9722a3daafe3b4186f6b6457e08280a380f35b80fd5b919290503461028557826003193601126102855767ffffffffffffffff60243581811161026e573660238201121561026e57808301359180831161027257601f8301601f19908116603f0116850190811185821017610272578552818452366024838301011161026e57926102389286602084610230956024839b99018387013784010152356103fb565b9190916102e1565b81546001600160a01b039182169116036102685750630b135d3f60e11b905b516001600160e01b03199091168152f35b90610257565b8580fd5b634e487b7160e01b875260418452602487fd5b8380fd5b6000546001600160a01b0316330361029d57565b606460405162461bcd60e51b815260206004820152602060248201527f4f776e61626c653a2063616c6c6572206973206e6f7420746865206f776e65726044820152fd5b60058110156103e557806102f25750565b6001810361033f5760405162461bcd60e51b815260206004820152601860248201527f45434453413a20696e76616c6964207369676e617475726500000000000000006044820152606490fd5b6002810361038c5760405162461bcd60e51b815260206004820152601f60248201527f45434453413a20696e76616c6964207369676e6174757265206c656e677468006044820152606490fd5b60031461039557565b60405162461bcd60e51b815260206004820152602260248201527f45434453413a20696e76616c6964207369676e6174757265202773272076616c604482015261756560f01b6064820152608490fd5b634e487b7160e01b600052602160045260246000fd5b90604181511460001461042957610425916020820151906060604084015193015160001a90610433565b9091565b5050600090600290565b9291907f7fffffffffffffffffffffffffffffff5d576e7357a4501ddfe92f46681b20a083116104b65791608094939160ff602094604051948552168484015260408301526060820152600093849182805260015afa156104a95781516001600160a01b038116156104a3579190565b50600190565b50604051903d90823e3d90fd5b5050505060009060039056fea2646970667358221220b08620b3ec19ed2cdec3087923ec2ac9fbfc02e741bf6ecb2b1480a2d8862e2c64736f6c63430008130033",
    "linkReferences": {}
  },
  "methodIdentifiers": {
    "isValidSignature(bytes32,bytes)": "1626ba7e",
    "owner()": "8da5cb5b",
    "renounceOwnership()": "715018a6",
    "transferOwnership(address)": "f2fde38b"
  },
  "id": 82
}