{
  "abi": [
    {
      "inputs": [
        {
          "internalType": "address",
          "name": "manager",
          "type": "address"
        },
        {
          "internalType": "bytes4",
          "name": "managerSelector",
          "type": "bytes4"
        }
      ],
      "stateMutability": "nonpayable",
      "type": "constructor"
    },
    {
      "inputs": [],
      "name": "ManagedProxy__FetchImplementationFailed",
      "type": "error"
    },
    {
      "inputs": [],
      "name": "Ownable__NotOwner",
      "type": "error"
    },
    {
      "inputs": [],
      "name": "Ownable__NotTransitiveOwner",
      "type": "error"
    },
    {
      "inputs": [],
      "name": "Proxy__ImplementationIsNotContract",
      "type": "error"
    },
    {
      "anonymous": false,
      "inputs": [
        {
          "indexed": true,
          "internalType": "address",
          "name": "previousOwner",
          "type": "address"
        },
        {
          "indexed": true,
          "internalType": "address",
          "name": "newOwner",
          "type": "address"
        }
      ],
      "name": "OwnershipTransferred",
      "type": "event"
    },
    {
      "stateMutability": "payable",
      "type": "fallback"
    },
    {
      "inputs": [],
      "name": "__getImplementation",
      "outputs": [
        {
          "internalType": "address",
          "name": "",
          "type": "address"
        }
      ],
      "stateMutability": "view",
      "type": "function"
    },
    {
      "inputs": [],
      "name": "__getManager",
      "outputs": [
        {
          "internalType": "address",
          "name": "",
          "type": "address"
        }
      ],
      "stateMutability": "view",
      "type": "function"
    },
    {
      "inputs": [],
      "name": "getOwner",
      "outputs": [
        {
          "internalType": "address",
          "name": "",
          "type": "address"
        }
      ],
      "stateMutability": "view",
      "type": "function"
    },
    {
      "inputs": [
        {
          "internalType": "address",
          "name": "owner",
          "type": "address"
        }
      ],
      "name": "setOwner",
      "outputs": [],
      "stateMutability": "nonpayable",
      "type": "function"
    },
    {
      "stateMutability": "payable",
      "type": "receive"
    }
  ],
  "bytecode": {
    "object": "0x60a0346100dd57601f61043538819003918201601f19168301916001600160401b038311848410176100e25780849260409485528339810103126100dd5780516001600160a01b0391828216918290036100dd57602001516001600160e01b0319811681036100dd576080527f8a22373512790c48b83a1fe2efdd2888d4a917bcdc24d0adf63e60f671680460908154816040519482167f8be0079c531659141344cd1fd0a4f28419497f9722a3daafe3b4186f6b6457e0600080a36001600160a01b03191617905561033c90816100f98239608051816102580152f35b600080fd5b634e487b7160e01b600052604160045260246000fdfe60806040526004361015610015575b3661016857005b6000803560e01c90816313af403514610053575080632f8bfdd11461004e578063893d20e81461004e5763d433c57e0361000e5761013b565b6100f3565b346100da5760203660031901126100da57600435610070816100dd565b7f8a22373512790c48b83a1fe2efdd2888d4a917bcdc24d0adf63e60f671680460805490916001600160a01b039081169190829082167f8be0079c531659141344cd1fd0a4f28419497f9722a3daafe3b4186f6b6457e08680a36001600160a01b03191617905580f35b80fd5b6001600160a01b038116036100ee57565b600080fd5b346100ee5760003660031901126100ee577f8a22373512790c48b83a1fe2efdd2888d4a917bcdc24d0adf63e60f671680460546040516001600160a01b039091168152602090f35b346100ee5760003660031901126100ee576020610156610219565b6040516001600160a01b039091168152f35b610170610219565b803b15610196576000808092368280378136915af43d82803e15610192573d90f35b3d90fd5b6040516321f27f0d60e21b8152600490fd5b634e487b7160e01b600052604160045260246000fd5b6040810190811067ffffffffffffffff8211176101da57604052565b6101a8565b90601f8019910116810190811067ffffffffffffffff8211176101da57604052565b908160209103126100ee5751610216816100dd565b90565b60008060018060a01b037f8a22373512790c48b83a1fe2efdd2888d4a917bcdc24d0adf63e60f6716804605416604051602081019063ffffffff60e01b7f000000000000000000000000000000000000000000000000000000000000000016825260048152610287816101be565b51915afa3d156102fe573d9067ffffffffffffffff82116101da57604051916102ba601f8201601f1916602001846101df565b82523d6000602084013e5b156102ec576102e08160208061021694518301019101610201565b6001600160a01b031690565b60405163391aa44560e01b8152600490fd5b6060906102c556fea2646970667358221220ba257edee4e2bfd5e7396d24126327a820821a2804b93adc532edb5b072def4264736f6c63430008130033",
    "linkReferences": {}
  },
  "methodIdentifiers": {
    "__getImplementation()": "d433c57e",
    "__getManager()": "2f8bfdd1",
    "getOwner()": "893d20e8",
    "setOwner(address)": "13af4035"
  },
  "id": 372
}