{
  "abi": [
    {
      "inputs": [],
      "stateMutability": "nonpayable",
      "type": "constructor"
    },
    {
      "inputs": [
        {
          "internalType": "uint256",
          "name": "level",
          "type": "uint256"
        },
        {
          "internalType": "uint256",
          "name": "source",
          "type": "uint256"
        }
      ],
      "name": "getMapID",
      "outputs": [
        {
          "internalType": "uint256",
          "name": "",
          "type": "uint256"
        }
      ],
      "stateMutability": "view",
      "type": "function"
    },
    {
      "inputs": [
        {
          "internalType": "uint256",
          "name": "map_id",
          "type": "uint256"
        },
        {
          "internalType": "uint256",
          "name": "level",
          "type": "uint256"
        },
        {
          "internalType": "uint256",
          "name": "hash",
          "type": "uint256"
        }
      ],
      "name": "verifyMap",
      "outputs": [
        {
          "internalType": "bool",
          "name": "",
          "type": "bool"
        }
      ],
      "stateMutability": "view",
      "type": "function"
    },
    {
      "inputs": [
        {
          "internalType": "uint256",
          "name": "level",
          "type": "uint256"
        },
        {
          "internalType": "uint256",
          "name": "c1",
          "type": "uint256"
        }
      ],
      "name": "verifyMapC1",
      "outputs": [
        {
          "internalType": "bool",
          "name": "",
          "type": "bool"
        }
      ],
      "stateMutability": "pure",
      "type": "function"
    }
  ],
  "bytecode": {
    "object": "0x60808060405234616438577f084c4985f5dec64b2f4c7d64b6476e4623d2d70d0f078490f3995389d5c5d03a6000557f213037fc6b081a20df6cc4f7cddf35b23fcd75937332b48e59ea23c80241940f6001557f110e619ca700da22bf0b14a44c58d617477bdbbaded78c4462caf3bf7043061a6002557f219e6ecf7372bf831f65b719cc4326441b7eb7488b7571d3def639d0743b39246003557f1b5f9405d80407c801cd60e22e74799af966179e7b726e24d1059a8d94aeab3d6004557f1c6848f7181b207eed35e39e2c8b2c0784396ad9daa312a097d023068b63213a6005557f241c4638fcd30d8e73b8250d67955cb1deb28cbbb695806438840d841141d53b6006557f1c464149a05dbca0a4a9b35620da05851459a2a578e185038764a998dc59596d6007557f22457bb32bc181879ef51e8712e1ed543ab74ae364cd952b1e8a8e93e2e2a7a56008557f083ef64ac725ca933ca2d587154920ef056dec7e4bdc96d5850ad5da2c9183276009557f22ae8c0d42902bad56f5935afa5482bf9f8b891ea1a4c49a592568e26b0f6490600a557f2db2627482ec57784f9aad3969a410ba43a546339a3804ef44646db88f057560600b557f198ee8294f187ca1ce98665310ef9d82fae7671ffe383d906aa54014687d32f1600c557f0385c6753b8b05162d359bf2a24e58e3dc3bdffb6c1a44c8a723dcb58aac4571600d557f02a79c06bee35a378836fa82532986a26633f78b5d44a60f0a9a75e14d73c2c3600e557f18f1bc124531c6f95562530cbc3d32457e4b6d995370e298d6721505ddd9b6c1600f557f139fcf9ad94b22863d5d2db6942a76f0e6523601f2afefdda04ed8c6966ff51e6010557f1e8ffc8a2fbe516aa7f09350e80f94eb6f7bf5899177cdd093b07c6e214d64746011557f0d5bd3b2f342bcce1f6f0d658ef3872c5fea6fb0d4867685eccaa963f19dd0e76012557f2fc1303be7a74e3cc1123ee609f632d85f6c16b7a4540ffa66ec61086672b5ce6013557f22a8d2752ff65c3f62571fca84cceffd1afc6c29b0e99327ea79076d17c1a1886014557f1d23718a6e8c813db35fd01c5043f0c1a425ac4f71be378f10ca3a5306774ef26015557f2476517be0d285daad6498abe47664aed86ddccafb27bf81b35ff8cd26305f8b6016557f2522dc658c85334c1fa03707798d8ef5e36a86a3e4d37737ad23b067ce73310d6017557f17800c4c3426b45d8f8e43f4bafecf91640d4f454db683681e2e64c8dd8500256018557f1d4f17c5e27e85f620c3ea6a7615cad764a575226133e7af5b3b3a592a5b47e66019557f2a948b60aa8d9553d2f7f153c65f4961bde63bfa6242c7ce32b3bddeb86a27d9601a557f2a6b0e7e7d1b141cc29d4548fbef6950951d10eec6e2d1ed60e2282768f39932601b557f03a68eebd79c7f39fdca8f3124b9671fbc60962ff428bc78698d5092f4fde7c9601c557f24d85929ebbe93c2e06974e7fad88cd90ec17c58e576b9d3eb04d5c7710c51ea601d557f15acf7ab5eb6674879256f67b8f49f5db00b4fc760d0f05178e2c9623513a5dd601e557f2d169d4aba32335dc018c5872f93eb166485fc87e70bd79c1f917b3190b59434601f557f0ecace6b91f5f08e19f4ccd81f60818d23ac61ab0dc791b9393352eba299ad346020557f2400138cd53836c063d8e3de06aa61939ee35190fcf698399b3ed991a6ade2d86021557f1e40ee42ff8dd4aa472dbad06e09729a6d428e2d7de41b29566f31bfacbf27d86022557f1cb3b247ffb9721a69f5d5ee02a0c69a5846427281fc011f58a586ef56464d156023557f1673dfd672fdfe6c3f0e643995fcc56be9e28b275fdde9b7c62d5df0c119f72e6024557f21c2fc43f594b7ffbfcc73ac6cef4bd4c06059e395452a9d2fb5b7d1752a33d96025557f04fc7170efccf7272dcab43289e6b2d5bdb42208111b643478ad0371d50f69916026557f1502c73ac4f2a9fa4870186155fe1b821ae21913f6f48dd2c9256c0462e5d97c6027557f2b87153f7c703dbcfd9778ff4facd9bd4d86bc50aebbc3746d2bfd031f8d814f6028557f01ed04bef6603420b0cf1381ca44bd5a351271793c4db09f672edb70cac62e826029557f1f0159b3d49c3ec45a7fc0933294777f8f570a4ba31ab7a489ea5a91f2166a79602a557f115533ae57ee9077c50d10d2559cc608fb9df10d6fdd5c857357c5d49b4babce602b557f1612e31518cf3cb8b89fe199641ed1cb0a9b970300cc19fd87c4c550e0936fc9602c557f050b68329ce119372d588d9e6d77f499d5de304b12741e6aeba53120e17f7ae9602d557f06e12e41035bb9a58e139c8279c5d51601374c7496e9dab96231eb8c99d01058602e557f1022e6d920395d7a7f3bf7faa59e64b56b927439458db641eea1d56a918121df602f557f256019cdba18ba55ff5e5727d8f93e3c66820db37511f8412dc2ce951e183e116030557f0a46ecc83ca0e2b120a348b668de82f632a63a571102d61ac6d27835d2e7cf9b6031557f0288e0237ee23009bae683bdc2e216543290960d20a40a46e8c084ddca4f26376032557f08e2acdffcb893164afee9745a223aef9baf321fe2736a986048e36813072c956033557f06e7703c9b1c2d43c83098cbb9fb5e6f90d43e3bfb3e6b22eef4dfbe28291d6b6034557f2452225418f419c53657c123ca13c1eacadcb5c523e5c9078a701cf5c70831eb6035557f0719a67d40c94817a4579fbd5472bc4a5ff98a8dbcb61365a3caf1d36509150f6036557f176f8b1da93e70242ad6253312d14022cf7ea988a0bddc61a183b2e454680d536037557f1d01945fb4445ccbae208182e4f3d9ba016b8b2182bfe656878c2405abec5aef6038557f1d7e9aadd89d28c73b057b033fd9e651387f34eecea81daaf2e05572d0d6d4d66039557f1d2b9c74d4f3e7a249a3937e27b121c1e57105480126549cf55df66200550f34603a557f2eeada7cc3d369cf8ca2fa6f3d9d3e6ef9c0b991b72a969c27ec1ef5a69e875f603b557e5c247d2c4dcb87c4466ac4ed79f363305d901db9e07e3ccc9ebc760d81a4fb603c557f12fa066ebfbd6416641f3d104fa55ddfd8b954730971b04f68785d40d37737d4603d557f3009e224a575e380cee656ddbd42f598e7d5b59af0a78382f63ca3f17bf06bce603e557f2aa0c841e142eaac58d0e59d273291299a971f0c4aa0c78978576efbcad1b335603f557f10bc6f25206410921a495e52084443bc2411cd28b4dc352fec2b8c962814b9676040557f064f6cf3374d63b437dcca1f99f400f5223595fbcea5228bdb581e5f2be3dccb6041557f1f4d6a0669dfcfd8580db1b5a54ebd5c42daa03864ca007a562e9bf1ccf5a4026042557f2663d53d645204068b6da50c6610abfce6e783223a74dc1c4cdd8d032988b3c06043557f2fa33a1a4c4ffebce2b3ab478feeb02ac452d44d666b105b4fec6f94a9abb3406044557f0854b80230e1acbc6419918d628b019341fe277bc6fb81f599d46790b985a7166045557f04b92d12e3c55c93782b0fe7e73249e4600b8d911be42c858ad3fa07727e895d6046557f19ba04325e2661e6ff3953fd6d07c0e131b13d10d4de85125186f5ae20e2a9e96047557f05ea6917ae89e14ff25e41e7288ce1d21bf4c259c19c1e88515454695685e0a76048557f1c5811982fe015006bd18d7aa7661d5303f56d39a6069e7d08cfc49a717922256049557f1289dac524469c976913e1bd54e8698605dd8d555d536b5eb28c46dc360a9076604a557f2e5eacfd6914e92ed45bc661cfc4dbf47e9055045d466d93a716d1711ce84fb5604b557f25d7f6c7b1f464b441076f96f95f3f954cfba8cbfcb0936ec701285af07f1748604c557f0f1cdaf0658528797081408bf7561c742861f2ecddcc9379493ca3b3183d2be0604d557f018097ddea68f0305ef0f5e3a121286b5d5bf83cf7a6edd38bdf9d2045429742604e557f216e08e1cd0aafeddbf62c400980dc2a935da232d90b1f7167d17c9cb7ae1fd7604f557f1f997c0758daaed90386a0b4be5a893066a2cc51b21112ca6948ddb1230965906050557f06c0109656c443b4dbc1141542431f99a41665d265b2c5d2dab76d4a710ecb7b6051557f0a3addfd82a2f19bc6cc9f9b927f113c54f73e7240080ac3afff2d5d5e93cdcb6052557f104dfb64637dfe1c5b207b5ddadce7fe94c20e1ad106e3ed26b5cf9b62d9425b6053557f0e69f03b41379bc12cf8ac52a1c0050156a6626e1095f12a1f5daa9d078823e26054557f15f84dc83d2cd57fe1c0d39f3ce24b67d8923fbc3d776017dda13810f68b76056055557f1bd2b82a94afd06c95e1a8ddb1270b8f1cc2b761f8b0151540d5bac70fd2d9666056557f0c9de42aa6d98216f6c53eed267fd53ebd7eb6b45d73f5ffc0fd77bd41ffb3026057557f0faf76412d7fd54ca8bac18e4913a2c79a169cc1a1698aff9f75e6b41b041fae6058557f0ca6041f45253ccf2fa31103e350a5642695e05dcfbc92fb29933e8cfffe66a86059557f0e3ad2ed4ed24bfb26add712c6a40796924bb9eb60d100e5eefc3a66c2db8280605a557eb29ece3507aeaa28846aad5d10c7f3ae685721b811af1dda292fe32ccf44c1605b557f23c4f2d7817f6e1ef73a3b230ebc2d56a0e20a6f15821fcb79a35fd8f6d8b64b605c557f24cfd17e5fa020fad43fe62ec6eb4a2e48fea7855c2b373db3af59b1fa61b86b605d557f1ef62c483c381c1c17c706f77dd380bd08f2dfb7cabc9555020b4f78e7d9950b605e557f1ae1403ca060011519e24ea39eaeb5fafb94772bfe3ae14e8da15c9914e38502605f557f1bbff876576c6daf2279d2a633b6e6629dc1b8531375d8d5d8e793483b67d19e6060557f0a516ffef68a5284b41fe6fabf9f435161c3e5029be223078b2fb113280512f66061557f27b3eedc3efd8eefa97f6ffc4f0b2b50f5bf77eae36e426c34c822dadc853cef6062557f082b6292b950aa38c06976ccb34f7450b06a4e3c5a7da34366abebedb909a9f16063557f166a6ddd506768a362d49c23ce1f7f6ba88d224c8ddc9e9970f8104ffca856fc6064557f097fd6aa0016a9bd59e61a313d0c48b1a3b7025e2af42ca84f5943b7dbb643376065557f2d6f06a682b528a9570d5468ad00b1abb77186ab8c936e92ceb335455acf929b6066557f1c9bbb580978202e0a9011ac1518dd56d157734caec97f6c42fb42cefdbaeef86067557f157b4f05e7b17c5f9022886ec331685c724e79b286ae45eb1e9a566598f1b4556068557f1c9f3f14c2c82c05532b97ca9c4593d094c245d5ad81e0a0bc57a2bcb7002a966069557f058419ec7bb81df2b8f31f9f32f4922c6c66d259f5b2ca91d523990f6d44b0d6606a557f2ec129fcf781ed366409c1be3622d7b5e5682c6174427034a9bf1e5bdfca5ffa606b557f0acf074f0c0e57536af82562104e0c980553ccb3b40b305b73b7c4a8522ec223606c557f07825a1e8205100f533f19c6acbc5d8473758d22e9ad2e6ef92b8323475c17ca606d557f26c8956fe50bc1dc56fb3656d541e29575bc6a62191fa3f214b9b3cc7ec1d208606e557f059dbeaf2c475f234753d75fa0b63bb13ac933bd4ad3d435573892778debd01a606f557f1e3fc1bfe0554cf083794421523c7c38e1e7c91645820348b964ca2c544e44ae6070557f0b0dcc34de5cff52e13219751fc22e141e7a474e02f0b15ddb07fe282faff3d06071557f08b897d87f4afeaec653aa3f31078a991876bb0d937c86e28fb5bd563d6c2d486072557f19c2f0542da9eac85de1c7ba80e86b2a81954ae47e0a7f7775762efa3d07d77d6073557f16cd66b4f15375eb55b35aefdb36a35a811842f6932103618f99d50fa3979c786074557f055ad711e17b9e6c281a957fc360336a7623b66478471d6e9f2b58fd527714836075557f25a56a38e8f18fe5005b2f36c329a1d615ec174b1885f3800c2e7f5198262a636076557f1e59e5ffdca354a40fb32cb1a6a3b7dac75aaf571239c163eea88a2c881caa5c6077557f21a44f477a6bfd25674aaee468c4324d607d4b5c47b04d0f458ad613532051156078557f22f0394fe08adcb341746cc42f4916d4be8a2ce0849a0d9ff68825411089b5a86079557f09e105759dcd8f7766ff48c0a7493a89e9d62d18260f7f3e25d7c833ca419eb0607a557f1efef4c587ac6712c50614a0b76b2131834594ff66f50ee6c7add2ef31b0b8db607b557f0be43e92ffa43fc07bac82b8eb649c5698d2112205e461cfa35ca9a71ff0569c607c557f1a543ac5db43f4f889ed2313ee94d27f67f99281f0b7b526843b104784151f35607d557f25bf5a3ea988da3ea81a1941a4f72a75b7cdac98baafeb8d7c551e1abccb324f607e557e37e13048205a6dece6a0539967c0ee31280d1d3fdea66c2b7742304ddfe753607f557f180bdd19cdd80fe761a0f9cdd7ebb24ffb8f6110157a357daa42cccf03d6b1bb6080557f11ea42181fec8023e0c4643f965d3fdb331ddd62ac3f34762639fe5b64fa494d6081557f1d46a23f21a1f963e57c3e34d31ab33538330a75234458ffaad882a82fa00c136082557f115b7878698954fe85bb67c4a6466c79ff0c8155c0403d4708cb46f97e1fd3956083557f0553c90db5ee8c353543b71b086d4d94b0d682afd6e01395b1b473b8c85171c06084557f2b01146510debde2f93efa366709ff42c41d6263aa4a703e5760d6b24bb30c6c6085557f1fc6f4f0f0b6f3b8d8ae77c4ebe740804ae708497ba9b7bffa1b6b6d24d87c076086557f13914b5ad08db2dc89c52d515fa3f9860282d5154e3ee1245f3bf1a2ebcd0f736087557f147cd8595dbb36834967bd59f59393dd37dd5d7ac23f9286ddc815c554f179236088557f1ad9fc76e6c7ad8bd88c0d1eb6beed44a1afbb54fe8f760405791ab005d033486089557f0398e268231754950d4478a2ba2d535fb35bf47257c02cb9bf8c085f6a324050608a557f20a5764f55bf383d4a881faf85cc1daf6c646ee02a085c1fbbe89e06e51b4792608b557f1a6b70e9936fd608da93cf43165c216b12e47e9ed473c3cb63e39e4b5c2704f5608c557f0169bade2bb89445944ba1ba0908350a84886a130fd834452ec7cb74fc1f1cea608d557f10503183a1d83b1543c2012867c1326332cef85980d9d65bfaa65791a79ece4a608e557f2a8923361323252722c451f6e21c9757f535b539f0fe7de90475ee347741294e608f557f1ca252a1e48472e13aeb73de471585ed9b4bdc3342583de88d120a5c0a3006486090557f2d6bde628bc14624618c3a03fa360d0bb5243d18bbc978ae8bc977107cce02d36091557f2f53bd71018a28b3969a7d0d4f639c9484a778d7d0ff7c598f257f200afd025f6092557f18dd48503f11221484ef5bcd4938e4dc8ac4d875d12e9bb08a0e69f7b0736ec66093557f138f364ab7bf4d08f5c3e378921970017ef3bdcf222334a994a9fd84a3a613c56094557f19f8a6c47ae2624fb637266d97f5dc938a39c81be4bbaf490a26e8d38828517e6095557f1bd219d0f2bc72249b6a4f659bfb27cef6efa6cb964a9e1ee61963779bb1c7f46096557f1069d2e859e978510b8c7248002129dc83fe3065a5ef07ea1c0e93475b3aa23d6097557f29855dc10499273d4903de9bad631f6ae0edcaca90ea804e20aeb8cb6a186cb36098557f09ae72da3f46d0e11c12469718f7c511a634c8a4cf7acc327ab0537d257f4e986099557f20e3d64426dab4c3b337dacfe3d0f894dadcfbb9adf3fc3715229a999267f6a1609a557f29aa21039e17b3024e739b671fc3e8c62686c00b01c2ecc15d6f015908f43e77609b557f0a47c630814071acaf7a7553b641cfd675ee1b0c3ff1d9d68bd992e1c3e9b21b609c557f1952816b3979f11acbcea7aa67bd2c52aa2aaa2e349d4a1b67b3bf2b374bba76609d557f08576bebae38fdc94674ef18c398ae0f3be54887d1be090f3095802f9d1c8fec609e557f03faa445f142cd0b49a0aad95e1575aade92dee207d17f9c00630c700f9b5e88609f557f012b0c64af37b98f12cf19b7df73bc15f01ac7f8ff48e9857f64ab4ea120629460a0557f128a19ae99aac9a0a27736705f901147f229154111f5bb5449198bc3c1096dd860a1557f1d2d5fa7e0a4990e3883d32ff20d004b23277fd687f078a82c875eca3dafa95960a2557f1fcb788eb6808f6c0d20dcb2e38bfe40de51eabd80e83093120303026b9ec02860a3557f28acba1a74dbc5fe780fbcb0bdc9d91c6d43407418f00dcca8f970c776f4648260a4557f19836e83e82d12485503ce5cfddd80f5947f92ec92306dcae1c87fe6633894fb60a5557f23fe5b8fd63e80624819b6efb9dcea96fe5dcbaaa6b1be86f4d03edb4d6c89c060a6557f294fdad60832f5a2c59d113d4b62267dff0dba5ed948f2233fdff01f0b7b388f60a7557f26a1e99effc28a049f2fb1cbb4b43836eba50240eec05d77800fa29c3c4c92a060a8557f169226a56d8416ed6345c51e387b65e37c55927140835c9097ec6295bbf3cfed60a9557f27244125097ffbe14e7ed7529bd953a641aebd9e9a0ee0fcc4881d501da0724e60aa557f0770479692b3b4e923c910df878524634f2370a95c2f0cc5b0c81ee59e9c431660ab557f0d792c750557bc68d7a8d1990fa934842b85c3734c15eff919b2aceee704646860ac557f08a612a42a5c145f7eaa236e838281fe488b6c2311761ff4dfa1d73503889f2860ad557f05fe00763ffdcf3fff9c63a6fc593411a038eaaec9f542c36ca96bff8238094660ae557f281c05a4966b842e0d327a388fd56b1d8b259c537f8626b13a35b9bf6f3fc97260af557f0ade246d01335107f423e13720767bde70c2248d1c6d183d0373c7ac90e7ad0460b0557f2a74fb09897b3d40601238c5953bb74e367be95cf4bbda74338a43f367f313b560b1557f0a3487231926403aa9493db5c0a2503dbb0b29c8650b1fab5feae4a15937793c60b2557f04c98de2272d181114b3b5ec0a2a7a701f15753ebd4317e9007469e297dcfa4b60b3557f28f7b81e11ab2b05d1a1e9ac40b329632c7a6e912544635c49f9cc21fbff6aa360b4557f214fb263344a847d1501f821932b0856ddd55a6583170cf85a20889273881cb960b5557f01ad9709802a733bd8ae2dc89ee6b6b90f8db8024d8aca1d5ca1ac7353d8786860b6557f21f1bcff669cb7a1468261357d482c7bc51964089c9d070bcd9590b7dfd35e4f60b7557f08da3f0bffbde7912888d5ca1f53605cca2615c413455d27cdb83e3aad52c45560b8557e0264fb1a13b2946988f66da60c448c749344bb6407a15a4abbccbf0e70880f60b9557f159baeb18fc172f88651764b9d3df7f21961c3805e83f8a82ad8184bab8df86560ba557f1440ccc49ebdc605257e136f62bdc3c2bd62be24dfbe31e5329a276153d9d61e60bb557f1887b2f9e648433f59db081d4089b9e82cdda7494d0b7cfaebd531c186b9c57660bc557f2073ff63e52f22abedceb288322b6428cdbae634312fa877e33e300dea1f003a60bd557f1236483bebe4d699e2d85e02777746df107a60ffff51ccb97d82f7d0ab72460d60be557f0c32bed7e9934682863f1a60f16f3ac9962079ffb1f3b89d235836681a3dd17060bf557f1cc7dab681313d3d44ef3e2f5e34d76556d5779e4fedb3ef031ad848bf58a12860c0557f14f10e5b9ec2c42b0828dd1e47947626ada0f0dda940aed3712b80448ebb899c60c1557f21d5c117a830cf25666bcf61ff965914dd25d826f9be39acd88d688fc121cad760c2557f19374bcf60a03e14dd910e1eb7f5325428b8b706c3e7295357ee099a7be5b7d860c3557f2caf5867c8aa639f38a2945619e708f543c8c970938262375f7540305220937060c4557f2a29cfa8007741d62c3d70aa8c88b2a3517b33bea79c7f2d25a9ffa8280ebe6c60c5557f03d06a9075bb6a8d22f26312a13fb1668803970b52027a679969d17099ee7ba460c6557f2c73955297f8bebb3d0ba344a4279dfda044e49afa3309b9294182a46688ea9060c7557f10ff3eb4913bc23583e92a98ac44819f7a7389c2ff886afc83064310dc2a012c60c8557f2ff2a752e4e1e58b98a7cc8115da94344196923a41ed35b3f3fd3016e8e6cdf160c9557f1f12878ef8e137a377602999127547fa136e1653edb7455f402621db55f176bf60ca557f1e6327bab370df2430716df2471d4f107c6f7d19ed3acb222fd3a1d3c4dafb8960cb557f09c8062fd0500c59fc580350184ff76c761b0c0d8558decbb78b4e0288c40af060cc557f26d2fe7933ed3b9c4001004ffdb33b8e9363d3258ab91af53e9bb7f0cc9ccef460cd557f1e9ef14e152894245d7786b2278db004a963cac762842cc5c69470fc3c788c4360ce557f04503ebcd1a3223b69f4c64c515bdd7763113a276019714541a60c70af95c84660cf557f2dbc3a932848d7d235603b2f9fca353819ab4e23ae2bce7b1f36ff66df47cf8e60d0557f27ff1f36050a193007c0f862cc4790e64f273511c3b92938ef6db096a4f1982560d1557f100f77ee07cdc0610a8a434dc8791854365a8a05aca6f83cd584b61f396c8b9560d2557f14e80fd4416da24a3e6f19b1055e2dcff4ab006ae6a52cef23b8cdf149a2261f60d3557f0e24d3cddd09417a7928daf51e61cf203a262443af4013715d5f871f1151db2760d4557f1a8046e15e0aa249ed476b629146d2db9d9a3d48ba6ea9b7ea4db9640e0d6e4560d5557f2177c06d0303bd4827d52b38dc8976f38b3b69c1c9c85ee4c497f15159d98cd460d6557f2564d6d576d826fb771c9dfcca9949f33c38b4d4b5339e507badc0e1479c202e60d7557f2ea5bf92483387751c9851c230d64ca6ab13c40e924dae7a1a883aa754629e8660d8557f2a930af7bb0d5da614b07498db69a73d45926df47e600690c81c67f56048a97f60d9557f2b78e4f892ebbf28e85f90d15effaea2d891cc1183897d05b63e44a9b5e9d74660da557f2bf5b177492d0f0482c0b5c8eb825d618ec07be358f3c007cfc88461f054206a60db557f03cf91736080a9b4f099b363da25c4ffa2353087eb300a53642d887a91bdf9d060dc557f06d649bf42d186a1426f015db7b0d87b2003519e5aa19fe74999b309642b9a0460dd557f114cbe2cf617b3f91961c2de578b60697ffcb19e481943970352755c085683e760de557f30502ee6e8b83fcf59e1afaa5164314e5d17750943e5b63d599ba0196033da6960df557f26219f8de1eb216c3a23ce0fbe6ad56fa0a0379a435ab00c30b1ad7ed1c36e0b60e0557f06695e4e0c797655b4bb23d553e0755a18c8790817bb6bb8908ca7805a371d0560e1557f093a2b663b1f3bd7d3942e0f4a7b6436cc6d2bf15dfa9694f9ebb9958e8b201e60e2557f0388a1d8ef42f13ab03ab4f7c6c45c8177e31fab7a23fb4ead867d17aaa5d2d860e3557f2470f6964d7506095dd87d3d5bf138fe7d031a7dc1f363cf42e0518c85e7925360e4557f06073ed9587ff981a0294e68bb73129a2ca18ca6bebf2a4f0740effe08a7c3e460e5557f0613db443648e3eb2b5531113c35ec3599fd3cce61705ff7c635f43f01c5de3060e6557f04b1e6c1bc27b44d50a9c2be91d40266dd44a3aa92f0bcf50f9888384ac56f2360e7557f12dd326a4362f4f25401bb58c34fd90e9c120a88285fe31d72088a4768f0962760e8557f06407df47d084e3ff0554fd24c9fdbd29ed78761b6bde88eaa2a435ac91019a760e9557f0426c522b222724793eb92768cb20207af2fffa024b1552d5ce6a3b9de3077e660ea557f2e0bcfa24fb3edad25e165fd68a0ec893e7acc255ffab34d23ba9020fb72f9df60eb557f2b66932e6f511080bd5c8d31f314a93c3de1b8c4149be7f4a989686aefcd746360ec557f149afab890df5cdf4366ae79d5f3961eceb1b4a9964f3149e682910194f61e5160ed557f1620aeeff1f1b98083ce07220607c87d850de85186b6a562073883a19d72d96660ee557f03155f539621b5706107e9f0cab0740f91a2897623aa74690cc3ef90459aabb260ef557f069ee4a66f09d9f2ae78b01ca4623cbbc1ef4adb9fb5c54ea1dfc094bbdeacee60f0557f146e7f83b97d2597fb14ec0f478292f6ed4b266bc32ca99eae32b9302a60988960f1557f1d3b35a528cd9e15dda83a5f86ff6e0b0b207580a42bd306bac9e593206b7e2f60f2557f2e79b57f9dfe077e61cd60dea877f898b7b4146fb2e58e5542276a094f1163fc60f3557f134b70bf22f47df01115ada43b34b0111268fb96cc776892eb6a5b47e229a6f960f4557f0cdc2488b79473a3ed5d449130dd6bb3f3295b26b6a627125872c5e2cbf155ac60f5557f2a7418f6a2567cdf3b712fc6fd6930f4ba11626f48e67e962f48e3a76ba217d060f6557f0c2eb197470d8075fb1b248b4d2c4583cf16a3be02888421a8559776138f797960f7557f2e97a942f5756b127091f2685df12b56efa312e76b43b1a85ecd53f2747fe9f160f8557f027ff14f1613037957c367d1b4bb0c323bb5ab2b60a7c4f05add02f4d78784bc60f9557f27c7172ae0c82c41f472eb712a54880deef2b9bc4a6ca9cdc2b9888c052ff5bf60fa557f22557c37123838d7fdfc4e5be01b94086066d92472c88d5430a7523f38484c9160fb557f21f2b0342e35c79e87ea221741931acb186d650d19e9f628bdc8e08edf556e8f60fc557f03d21d628c8edbac8f405e65addea2036c6de3e8de1170de1ea318de768789f560fd557f1c982de76862a3287f1655873a43a7d69f318d1fe0ef4a2090836f487944cd1f60fe557f221b30acd20286e631f4568e463e31768133c57ff442668c44bdf2edcd7ab1c160ff557f0fd02f253da569b831ff6d88973e492803e89ecee6f6e2389a5a1ac9caeb3a15610100557f191834108e749387c544eddec10457353440205ee94950628dcf39f2143abb85610101557f049ba25130780620d4ece7191a381f32531218c3ccd4822c038c00bc77b28fcc610102557f083378de694da256a0dd86872594d28a71e740d5e3b7c36853e821bdaaba71ae610103557f05500040d4a7bc2fc956be70a9758ab8708356fcd6862e95216620602c188cd5610104557f1b2720d9175034f2aafcad42f9f2547f90a88c75ca897ad14aff79804dd38c82610105557f12698b387b908ebfda9b41b4a21a80e88ddd1953cdb9d186901bde008b707db0610106557f0a5a3e51fa19d2dfae944e2b2c481cf239c5e15360b6279eed8eb29e4fccb365610107557f274d42234fd011fad98206d10308cbc9bb70c0c16d70c5e15ee12c6eb08b50c9610108557f1d011f37dbe4bcaca89fc61537e7ce79e5bd16ccd25cfb132d2bbb5a74f25431610109557f1ba415cd2e18bc478d2225ee04282031242d573808795299f2d5a2457491d75f61010a557f0f571a5fb66eafebda5b03f2437044d0f144b02ca5850a36cce8c4c44139536761010b557f09b7a6139b1b930a68bef784e52f8b7babb4eef7f36775c67e353e86efd6c6ab61010c557f275f99cd7578a96f704a3da6d5c1d8c0030939522c255d525398ddb1eabf738e61010d557f0b2502399196dbd1cdaf8e81b5ec59c0bf0bf180dfbb9736695ea10d841a98b861010e557f13a6a4f4a87869c65260a8b748a646b48d697fca0c2a6db37196cd04b996f59361010f557f0bab82f5c55d1f36421fe59e6270e9816cce10749adecd1a6a233dfddee65a54610110557f2e16aff56de77dd0c6c1c6a8640c9d3fbf722fab9f3f8b20617a3a14b7a7909e610111557f2381dfbd75262eb0459e2915b764b46dd5fce98a1fb6520ddae5f8e693b395e0610112557f2fb73734e44d81f1ae5db6ce6b6883e30bfd1f8dae2be7fbb9fe34e0b3663cc7610113557f2ff4a3942b68c6ee6c6b8fb6fdc5b358b3e67f78a9567fee722aa0a1f0cbb4cc610114557f03c3d314a73093c09747100d44881de002c380fd06a2a287a258855daec9b541610115557f218240e9a5458c48fbda418afba99fd7d1d1f0c9606a8e61a863663af2a69b2f610116557f29bb123a35bd3177db52a253fc618d42851c1a1c55cbd607d629108723a4e3a0610117557f04b0e903cf7a7314250b94643f9ae414db63e96350fd57b528a338e27b5841e5610118557f08d5b573f218dacb7f56b7671633043c90100a09cb9a838c3666ee7281faeb4d610119557f0bfaf4cf53d8c4f47d352b22b8651eaaafec09c205aef039c14d4d6723f5ea6c61011a557f24f0a60dddd7aecbbd2a7b9d0e28d560f61ba6b925d636716603f32076bc0ab161011b557f2b865f03b381af268b3a70a3277051847d93eca4126fb07e951b6d78000674dc61011c557f21650a6b82962a1dd23e7886f23196f2adb3bbc8a0318d62908b1c7d9965222861011d557f28e28c87de870f082c13436bdd0439cf42c0bbef24ca4555d7ce904da1bac20961011e557f041f6744008c2dcc51f73bec3a7c03e8177adb98a0aeeb74104d05478d6be8ac61011f557f30106ceb0902d4a8501564b438092499032f86974fd32ab4940aa1f6d8c4fe7c610120557f0b35f685c0027a08fe2f0813a170fbc900e0333a5bb007e2efdf8023c359d93f610121557f0f1d9aa22c22889eeaa98de8399432a475ffd8dce77520e5812b275acf54fc5b610122557f2c6c9ac492983ff86fa22ecbe58ac71eafe98f51177ae6225a77fcbff5f3c56f610123557f0bbd29992edae4246542f661f6c8320c613b8e31a2a48c2e5b07a825feefa247610124557f04f9cfadad1c3f33d519390ccecf2aa2c60a9fce1c3cf58ecf780e1dda07d3cc610125557f1374b35fef9499c6d24a92bb780a50306c4fc710f5312aaa4e70d22c655304b9610126557f2dc823628c9896edb40fdadab1d9e4d96e2409d101816da1fb44e7240c97408c610127557f117ce3ba05365dc3aa501f1f41b4488a13e7a57381167f2d05503985e8a56729610128557f10f9524835742733a3a7c8067721c6ccecc83ca57a0c95151f6e18875d234cdf610129557f2ca05f3e544b0d7ae2b598d2221d9e960d8eb38b12262ef169cc5598a8abed0261012a557f1d09b318decd25115ee61a052069a49b5eeba14dbd38ae2e5a1c25050f42acec61012b557f225951b00b3943299e45d26f5d17ba2b7be84fab4f68a68be269ddf969bd3a0f61012c557f0d56520e7faad4bd5ddf47cf95f8baf39c9c73c1f79308d1eaefe707eae565d861012d557f0da28511e6c5a72b42dbc5206077fbc2adeb96a1010344f93b1afa7984cd481361012e557f26881028b5abb8f968809fab5789fa673cfa554e594a216d4c176165fcdd7d1161012f557f088f00af9ec51826692573daf2703dc379ea70160246547350d61737081d5dfa610130557f2e2a4bd7b56b9f997dcbb9f6b4d31f01ed3ad4b6138231d1b541b2897e469061610131557f1120681a94d2946277ed07c20ebd0801f62e38e23daeac016d861304828838f5610132557f247d69e36ee3f3592a7408066424672baefea1b75a66220d313b4d2a880bcda1610133557f11fb2bf42c76a25a1b5a9fe6cd5dca09d4d48c764bfbd92e2ff4f7b250a4273a610134557f1602c5d7d232a809dc19569e9dfe5c17094f8b7ce57bb4c0f81a8c4b1247aaf3610135557f120bb2144dac802cb864cd11b0280648f71083322223ceb5c5baab7876d32b19610136557f2255e8902560f9fec80779d4ae36f3c9ae71d13ee9bc0c0c680cfcc71dd884cf610137557f036b89d5f0051fcb4fbca487070f665cecd1ca3f440d538b9880b8017f19cc39610138557f1b1738019c2d63d6673b946de8f6a81bfc8320af064e6de763916d52cb36f618610139557f1c806aa333819f540c6bf0bb8591598f4bedad78dbd1fa613fd718afb6b61b7761013a557f11f108de3fc51b4ae820c3ef0392f29b154ce0c8d7d73574bb9637ae2c18141561013b557f1439a36a7949836814c75b5fb68af2998b2a1f7d61739b687933227e2f3c68b561013c557f232ebba9318ae91f33558da2fc5d4cf52ddf3e6ba831d96ae0ec46546776f8dd61013d557f168f543c34e0d054477c6714be779612b3cf59f43a377dcd7388eb3ef96ff41a61013e557f1aabb3d5309b167882f1e679e337ff7511b1d56d906dafd7b5b6ea49df1eb92161013f557ed6b88eb078c28996f2cd676ba3d79ac85a3081f8938837ccfa5dcee54667b5610140557f051f3160a25feaeb305b6a43ae094ba864c6fd32084a9e9971942c33299d9973610141557f037775f89a66eb07884046bb2d05d9adad735a3d775f2bddf14983f798c3d2ea610142557f2631519d30e24895b2ab5ec1941c4b50949be87a2c56ad9879e331050d933933610143557f09a9d05ba3a951c6592c663b33c6daad1bcd853ebd3ae8c4799fdc06743ff3ff610144557f1e0c5c4a51c7eec135bc0cb19ffc140d607495ea0894650cc2e6185a76e49afe610145557f0441d26e82d0f741cb11e37637056ca85f89937fc2fd419565eb77d8d0f67350610146557f2692ea46ce284892a7c8db0dd4452192c25f50be431e74b47616c0a24311e0fd610147557f0e6ed3d8755a953b90b7a8e6c92ca54eb723ccab82e79ec5987fcfc27d31a07a610148557f047b44dc496461e68c20f260df3a811675affa9499ec15472d5387a7b363b5c9610149557f0efdcf9cc877935b94140cfc9776c669f3bd45423b1b2d3e46c7ac7f8513d29d61014a557f16fcf94dbd4a2f9a0dfaf71320c1f24ace0245a99334a98f32048ee12fba656361014b557f17ce805850a8667a23b01d5bc934eeed1c9136d8439475ae9126046dae6abb2e61014c557f1d27687bce814570da3a4c694fa42866c384002d651ef601a337ecf1e618fceb61014d557f1be89fcad30a53b15e6a90f8d845fc433887c7f7330d2c987ef35149276954bb61014e557f14b9e659ce2925c27b75fd44946c2fc6622757375da66eb28bb46e3df1bb34be61014f557f018befe5eb4e73cf75ccf8dbceeb98c459895cd96ce21b1ee1868c4fe7331169610150557f02758b5bf632cf183db9444025ca0862af7cf273363ace8097df67e376428a57610151557f0a73ff479103fe39fa14c66fcde89ac7365dfe53066571298dfe2f27064ecb72610152557f23430c116fd1bfbc05a28b1ef881c27614103c6397190280bf70b5980f3db071610153557f238ce64e2e308aa7edb3f1e68d9f20fdd6497f15006cbbe257f46786a293c39f610154557f2fcea015b88043978674a9ad325dd10a840fdd96322a5c29a988c04d0c46a4f1610155557e5ba9ee9eb5c40d90d440d8d08194c341e5506dff81b5a019ed9a4088adcb8f610156557f2a8fac4cfba6678364aee81235543829347bad93c254c5971a2da100bfd7c27d610157557f0d0f9e805d9fcf5fdf054b38e0837b02eb84be238f34a6bad67ccf28adfcadad610158557f2cdfac480257615b153f51af32d5ee368f609c6fb45c850c5b80992a9ffecace610159557f1255fde44cee9955a15da406968491a82d6cfd7171665930764105bc824fd52d61015a557f0b5eb84bc3676ab97b6b279311984ebe601838ceeee7cad721ddf079ef3e952761015b557f1c176b1c11004d4513a963b3ac72909e9a142ecfc0eb91dcf5ccb1b5612981a461015c557f0676880d68a8f7bcf0c31767fb92e7fcdfe660283a2f1c8d758e25096553f8e561015d557f0f2ffef48b6ba4e4e2f6837915ee034ab21796de30c22db72f97cf895280b1e061015e557f2e968cf3ca293d7342f7eb358774cdc583416934f8d084de8584c6321c08363561015f557f1e4793640e1715b3601dd42e7a2c1689576705b7dba7879b6a612d4041a5ecd1610160557f1e7dad572682a82cd4cdf885c5386089c342f8df54fd19a1c6b958a301ff61ff610161557ee4c7761323a044cb343b538a433d95e4cf963a0461196236ff81c3150da971610162557f20ccba65d76f7ccc9f0915ddaf311eb909f3d1046545c8f8516ace71f0065a00610163557f09da6f4f2aea5c73aa545fd2818316bfee743f1f427d10c9bee08869f9dda113610164557f2dc41a37716f0e6ac1efd4aa257d8eb086ad7cd6423b8014cd8a3668f511e0ba610165557f21f439fbb69f67bf348b8206e6b90fcc49e00bbb7c33670ae0292d0f00497626610166557f2d9e6ba8604e128160c9d5a29dd5fce67db819b600c40a8823493fecc2526dc6610167557f12b1ef058bacc60c477a2225dec9edda7221d606685c6807d12ddef6ce60e256610168557f284f6af8891afca18960682db53939e84cdd3d50e903c61e18212aaf83631758610169557f206ef5833d5bb1a2a6fb52e2cbeb4d5a6967dc8491b7c47954d312a23d1a87fd61016a557f178681b88cb0e5ad8b0fdb6c026baa1c5b4f0d23b71f3a3ac297239501d484bc61016b557f2483d86604691c0e60bd0435784e20a0d178a5431aceac7b3068e96ed3b7271e61016c557f142c9bf8ee05948dc2e6054f8f5cd633193bb0be4ea04be6f36687bc4535b93461016d557f2c23d912d854f03266098da93d7b6d7b75377ba3fd9f92e81e57780e254dbee061016e557f1b8dda4756167fd989d644af21d98bb70219092218e0b82d5246709944645aee61016f557f2d0b3a01a183e19d483ccf57c8730a8897df1ebfa988949cb01c7d875ee1d9db610170557f043a65bc9e04c4746a6bea8aad1b870034f5432cd7a3c24f8ae5a4b724d1f095610171557f10aaf659fc4e3d547ff1d70bc1002a9e7f0d65db963f0a8d2076459bd08a7ba5610172557f191f857838f3293db59d0b308f1c33e3b1f741dadce5df352af912d2f27002de610173557f15a592dfa2e9895e04a871f8d3f9ec528ca8a3c4a1abece4b8aee5203143a524610174557f0603aafc9c99f7abac459abfc49199a2cd033dda029122493cec40058899d0a9610175557f18cb95caec9e0246786bbce9c59c5faa7d51d1582a4400f7989364054e91de26610176557f17291b985c13a19da2639e8ba6535e7479c34567983b7cd4b35bfe60f57d58f5610177557f27f58e4c722930790834380cead8ce858ab9761aab4dad76a785037cfde8b6c7610178557f0aba06dc0894fa82c1afa427519f2bd0510c455c9eebedb9a4f1f8e82689ca88610179557f021bb88cc7bcd0761f1825f93893f1215ffc6c30ccd846cb52de11b6e3fc8c7f61017a557f13e6a8debf94f9c45f3544797346374e4c44a7fe4efc7c543a765908f3df576461017b557f238d2d850c819963dfbb8da7e5f8aed0547de66a632f9b223b6a340b769eb3cb61017c557f0466ef5bbfc492043f1236ca5f0d66b8f5e64f41345312fb9a6827d65d08cddb61017d557f1fc2927eb25dc45efae4d05b8a25ee4afac41d1919c170b40ff1868d9ff49df261017e557f1c42c3de49fd2015db2ec3ca0196d8afdcf0eed294cd9053957bfbdd987e288f61017f557f104082f66ccdf84b5d6ad0ca6f6cbd8a0f89b9a2a8a9c85deb256342c398e54a610180557f28c11a4132a6c2cb331daebba1065bc69666ee6cf10c35e9110a6509a40ee633610181557f272db6ae05e2ca946d84ce34ce471aaca07697f40709efa230b49955193e87a6610182557f28896e9d2241eb521a7fce806cc3683f14315047894f265dccb754fac561ae82610183557f20dbd2d7cc28250df6d9e464ab1771118d86ccdb51935474ea3e4f9af5e6f0fd610184557f04c521dd3a01ac54320dc9bb2a8137f643b88b394fcef949fe837b0a36c7e964610185557f14d78e9040db83cedcdc2490a208f57fd69dbc2cce6b90ac754df77bf71b2e64610186557f0a9cde016fa66aa27de65821467e92364a9d2dc07da6e5d5ccf231b5210b49ad610187557f2887dc81aeaaa1f444e13e9abaf89b8f2551f9d8206a0652b15b084813e0fb97610188557f08066a4ac07e26bd4e01d836c8f2c14dfe7b6bfe4466e84990af4ad7231e3b18610189557f06745afdc83a70b95a5feee38132c09c6fdf08d77647dbd87d323dc27a94f90861018a557f169f144ed9c44fecc220ed9d37dda57e5d890798bf9aa75efa8b908252a7d5c861018b557f301d17837458f4598659c2c72c3e82310909f09ed0b2a63c2562008d3ad5fd0f61018c557f1a010864ce1bff362170c825826b1b8a6c9485c1d1f5c8462ff2be59bdfd0a4561018d557ed9d7a43ce15d65bf466663b868f21d20182ede343d7ec136757e1ff6e6a20461018e557f1a28ce42c4381cf035e9d9e9396b57262c9b377b8c4038f45ff802732c6452aa61018f557f0e53fbede280aef3d2d7e4aa28625223581a7a1324021b4d4b967f04ada01ec0610190557f2b1dd2cee36a9185abf137f117eaa3720a3c5a995260de3c0a268f6deb3e7150610191557f1c6087b1dc31f3b6a01e8a707843dd3a3e8d353c0234f99a098e14045da47861610192557f230472366ce52658a60dc47c99effade025b43ff6d0a169a73738dfcc2cb7755610193557f2cf93b9dfd40345d7f39a358482458a4737fe1e923f0c02f3198e4338108b8d8610194557f20280b82b26817bc393698ff82fa58710916eee6eaae891ee09d28870259b641610195557f156a46e39837aba5df15b212646fa7cd1620e724a975d503e3b08721e154ac5f610196557f18ee5a865967d18e733f1d46860534bfc4f1ac6b4fee49237f5b3bc6bdc4ad3c610197557f19144a45ca9f4ca3e63b20095fa49e71d88e857a82e05808ab15dae5209c794d610198557f1f40c41c3266ea1d245cdf5e79cc486eb29a16404be752086d3028ef80a601dc610199557f2b43eb14f3c886c7ad6e20f8702454c39e3818ae77e4c73ef722994ea597e6ff61019a557f22ce2a4f656103671d322474b39c2534d4c96a5cb8fcb2c6f57b27a14933baf161019b557f01d5a80ac3595a5e00f499c9a787ee7a04b9546167e890a1f8c7ba747aace0c561019c557f0d591b056f51bc959a04fc643b8b8b5ff60f01dbeb0195ba2fb9d0ceae06ef5f61019d557f076b8799ca7eb0e18eb0bf4d0c07256e6ec82c1fb11fe2fbb361da7811d9462d61019e557f26e015f635cec2b7e9782d56d0d3a687aa4bc068cde8ddb93340d3cdbfa8439261019f557f2244e36e657b9e3b3d93998f2233a905c657291fc33ed0700a63662cdbeff5466101a0557f14f8dd31fe0423d150ef7cee9bb771279a5afd65988cfad733984e67417d61da6101a1557f0c4851c50d6bc00e6872c94a2bf184e04f64c18914fdb3fc2b10f9aeba391bfd6101a2557f1ed22ebb8e7ddb7b16af8e6a05e82e1f996421e34b4ab6b10e5a1db89d9dd1ad6101a3557f09ecac1f71f1165a8e0cb42933a2cbcbe1bb671c752818e05c51fb9b74c4c2d36101a4557f2ec6657bab38605aa5d4f1e996b3c70d6c3fd54470b62a48b81a23d4efa511206101a5557f1d5c8a4dd4d2b3ea312965a91459496c40b53c4cdcc71449b56055eae27640846101a6557e3be81805c85bdf6df3f55e93ea10a113f9859916c327cb7bd0de2f9fdb5c796101a7557f29f6d0fd89e21407345b1ac507b749bfcb83c10f3934d133ab520e73fe2d29e56101a8557f06834ca4393b517491e7101567c93d4754a237b99eba99af69c55dcbea2492b26101a9557f10956f2c0fcd1b5930dca8b4730b44b8c258f0693cb7974e94298b86901ed6b66101aa557f16c8424bb61ed6f93f567b918c17c0386155c70181e0b53bcd73bc2339a17e8a6101ab557f2abb647eae0e6936eecd64ba74fb15b2c0568b8ca0d7c54178460be92fd94eee6101ac557f290f661f8bad69e4903219fcc3241a50aa233ff44c1beb50962d05d481d072266101ad557f16a205d61fe91d7fd57a4e3bb8ada0cb14b8effa4933b367cf7a87a5056d8f666101ae557f0de90af49a5969d59d5786a0bad60ff8f53cc6b565dd5b9f4116814a81fd39076101af557f04cd0a09c4fe0b053160bc43da6165d033df70a515d07802756a182ec0cb6c1e6101b0557f214af8d9d202bab5f0a3d57082c93ab49f1793cb6738176ffaa49943c3efb9276101b1557f06b26c9918f2c8f49e793fd9d84ef905b2a8cd127abe7f5a2bcb0a7ff2bff6526101b2557f2bf02f439cd0479cda93b306b523e6362a3ad68565146064d708c251d264a23d6101b3557f273c1730a4d89131a03c431957102fa83f5428b0edc41765e201266421925bf86101b4557f17820566e2130817c22cfa75492affd28b78960531cf2b44a2cd51c621bfa7ae6101b5557f0302cd1ff089d3191b24be780f83a92f9c1bb1bea899c21979b193f19ffbc5476101b6557f0e4150e9593211fa05a3bf8bf690453cabf751d604adea77fe1f985da49017996101b7557f2cf0d4669157c5f5768a41a4bc80b80958d3aedeaf867a682bea9a2d6b8ab0af6101b8557f18a2e57199b728411561b6a449c5de711db477fefac8852ba28c694abeabb8186101b9557f224c99737475386fdc211d957a7737d626b658a5742c9e156e9cc550f53df5786101ba557f129dc293b44f22c2542145ce2750ad266bedead3589b6d4288288d5d18cedb8b6101bb557f1b8e5bb0ba75a90e8b3e9d87f5ee0ed8647d6b0b35e44c6989b3ace5b02f5da76101bc557f060fb4a46587d44657c4c27486f99776b0f9d3cb3af7d72086e01fb812aaa2df6101bd557f2eb8a1acd5d867c7d94ca60f29a351995de195af5504df5422f497dd166ded156101be557f14868cab9d8b8eb405fc40c67b2d56c5fd28a7f80084b7764c04045202f341496101bf557f11d03ece82ec711cdc4a63bc73d65047fe2fe607341767492ae93233e5e206116101c0557f13fb411181f07d04b1a524b1563280f22f7505ec4adf8bbc03736c28b68b3a986101c1557f258bbd645ab6e14dbbb9f36066a44bc5fcafa413e1b1bd41fb0b473b0a9371cf6101c2557f2259701274c02f3883531b8f452cf0238b29da0486ebc1e32249a332c6f5cab56101c3557f27f8594707f0d51b64345c51973d362e110384e3b2eaaefc49268c6a2a1f57726101c4557f17184d201e370d95dd58c0f06d3e31e45dab47dd3c97163e65d81dbed2edca826101c5557f0e64a476a2cc1e5f50fc1df74c80b2bbd00231317d00864b3a3579f865d585706101c6557f2157d59dcc7c6a2fa290a9fea6bf30c17160b86e0564caaae2d00c81cc9fc0d76101c7557f155326223825955f286dc6304f22c08bca1c8411cc7790f0af98fccbebcebc506101c8557f0b24a69fb5914435b4214e03ed173503ec282d333f6df854dc2900da61ce645f6101c9557f14c3f2c2b2597d537db180aafccea6e0ef51d5c9549d82fe14c29c0bbe789bc06101ca557f2b3a89ec09b76d5ebd1b18e4ce864c79549f85f69c7b152b730618cbfcb310c06101cb557f23f97b35801376b238077325e2e3d9deec853ab078cba9d35baacfdab9f267836101cc557f01e00222bbb1c9925ed1aa14eb55589bffccd29f475e278d24a8496b7ff4547c6101cd557f098580b1eabdb1dd95a8c00681e21fbfc279982608f04224979c58c4f245b67c6101ce557f071917902890b80b2e54293ff91289bb67ea3a1816e4cd0275820d8b13a3cb266101cf557f116aaf11ffa0a3a6d85f4868d26cabc305b68773da07182256413b98c7a01ccd6101d0557f09f814720fd035ae9045767bdfb5ca86f6ee072aa7f3a84aa7460603c866d44c6101d1557f111f9d5f2eafcb083780debda8847feff7984cd3782cc7657315768dd7478aa06101d2557f2a5661d6f24ba9fd8a9b57f5e6d692c3a1187a6edf585625a2dd60bed1d187fc6101d3557f1fbbf4f543466bb215320be762d9b8b34b71dc1570b38c042343777305c42a876101d4557f0eaa0b018f1f7cdb96c1a6678982b0192c49b20ee0d2c8d4a3555e5fdde648a16101d5557f1e431d4e0a6d67d6a603b3e5bb4b024222f8be1985d280f9d56d6a94039036386101d6557f18aecb72f6c26dcfbebd32c36a7745c5c70d1e665c9e6fc8d51e02db4d9d20286101d7557f080a5deb3f293eb4af46be19caf8c651fad3a2a18149b91d145eaf23841682f86101d8557f15c3ab99e4ef18921832e355f5e6df3d9ac8c4fbbaff1c33b926e3a513e424866101d9557f0b67d8edad666eaacf115dac5596c91fd7c373f74d4940ff99deeaee8855b4c86101da557f276caba4995f9c8d61a76fd6dc421e8dc86d38ac3ba82f8b61890016bcef77e46101db557f1970a130f0f5c5b94583a1a220cacfa5a4b54ea6f11aa9898a4f5e4cfdf2e6d36101dc557f1b20efb4c8a9aa5506f0f90f9013ef4758c0dcb095650b50361ffcb610b5e68a6101dd557f092b9be6de63646630787fabec0bdc4d7e7e13895bc4834ccc7e0544c11c33656101de557f19c61653cff03b5416bbfe7e524555cded577e60c02b67974a9bf975bc888eb76101df557f2a5eca026be223c72d9e09b0abcdc61bf0fafb7c918968cbd790f0e38d7a6ce16101e0557f1ff3cb88fdbda25742b11e715698c6a3e0b03f9d0ece1414de15653aa192f32d6101e1557f17d54e0fa35ca3530038c0ff8614fe3755970fc54419d5bae3795616aed0e1d46101e2557f25c9629ac3d2163feed98429cfdc625b2aafa063d3f83fceee1a248714ec9f996101e3557f19d4e2b13a5faf4a9e6e3c0ce2f48052fbb9d76af49d310a28252ae912719de36101e4557f2a03d9363a88bd434718466088352cf8ea445189fa0d1d935055eb84f26543be6101e5557f2155a1f65dfe978b71bb91de661402dfe84e610e26d7003b67e6e001a4becce66101e6557f16dfedad9e9ab1ec5658a6706c6c12dbc90d357b8842b3785e6fb2e663f269f56101e7557f210bc7cd62174aa3ebb7dd29e977e04dfcbfec60f15f580792c34db95593f5de6101e8557f2af341fa534f9e9b7008a9befa6ba1f21b560016d059b5ef771e1e1e5196275e6101e9557f183e8abd940d5da1961faaefc43cb3eaa7e02236bb82fb0241ba336315fdfbdf6101ea557f123fac9e4e894e2f94a93cb7e643c97bdee7664a65cd302d2c7d271c406283ba6101eb557f17bd64668aa2f5cf580c74333ea94dbb2f841267679fe9c09e20df942f7c0d776101ec557f0c969ffdfbd666a5b838fded95b5e35e2a4cf7f040f59cbe44b3f4438f53a49d6101ed557f0feb0d52ece6fd866abb6cd722732193096addf1410eb25f08bddc8683bb221a6101ee557f25912cf145e133c9dc8d70ce171cc1b58077bcdda453063b0b700909f4b5e1fd6101ef557f1899efb1e30d8c987ef46702a32ba97dec914e13337c091dee5e3d58b39e18946101f0557f21031cf0354bf92545a35870478458199ccdb8422d76379a829309be768cf0f66101f1557f2e30544011653864d9e2f26ed0b9c0c5a9f4f04b6ec89bc19a50d4a8c2832ffc6101f2557f086d075afd57338e295ebf5b889e439d8f60736f0d6a5eec25eae2c01177eb116101f3557f0c108cf5512c075db28dabb6e2059414c48fa4f5cc259bda65e269926e87c5276101f4557f172c20b2ccc5db840f306b36f97e53f7eb2e98d34cb01ffc0f3696b70af752126101f5557f203a47fcd74874787d67845129f7ba103567127765b74baf0b4df7e73c596f836101f6557f15225b2935ab19a58075507908ff24f525d076d63f0fcb45a208e692ab68c0eb6101f7557f294c3cf09bd220d2dfe37194a675bf8e93aa1d72b197910f98cd79428ac4c4906101f8557f16b04c02b69156e4f76d5cf89fa78c1c39d1b61999882f0e65b4c2410085470b6101f9557f13775ac3f24ea5eb53a256d54356fcec10ff39b9199dea1f5d47f9d9011d04e36101fa557f01314b35b0225d7815668719383de8300c01843329412838f0f5fa21a6af34a96101fb557f2acc94cd6789bca369bdb7a2ae8684f5f5b85ec1a6fe5a45f559e52b74a598956101fc557f07e5e943942c0eb41fea8d21e774bfc7a8ca21e0146e7e838fdd4d8e7ae349da6101fd557f0dd326c91d22922f6a145bc36f70dc5ebdba66685543f85b4eacf71784b433b36101fe557f1043bc3597967de9464f9a5324674833c8ed2138cff87e06be41267846171f3e6101ff557f20147f21694eeb05ecdd613404126fed42eb21ef29edffb8e8841d39ef3e6053610200557f01676f20636861a02f4c225ecf6c14768ce441cd10d3fb446e343997779cb932610201557f1a6a4fe48f20b2e39c3017d9697d7411766c75f39fd0f1c978e41c6405c6a483610202557f2712e69a277f1430acaaba8e04e08c72fe01eefa0af5fff61105b5b754a51ebf610203557f22b5f65318690f55ec595ea320583f5db1ba0b0b3ecf252ac23d6d25bed45257610204557f1d29e31323f0432972188da68657f610ff6bf6f445e4ab241e1881144055f2c7610205557f2c577ab2059855c10c471e122425d00268ac61e465eb8ebb828b79d4931baa11610206557f05d2929588a7bd23c4397bde1c41f1a236212b730b112ebe44fe42da2a686820610207557f0438dbe7afd4f9b7b040a0db805d3050dbb45802aa15e6d77d0e2a7b439294db610208557f0ccb9f25d97c1b33f735995ae5a15325934b6a1804c89edf48ef3140fe05f4ca610209557f084434dc4fca1b338db6cdccd0319ab4d5ef95d439748e2869c171dcb329fc2261020a557f2e340b21da7803516923b5d4b35c74239a93b9fccaade33acc5e8bae917fd3d261020b557f2200e98e829affae0b07ffec58654425b695ff2679a659c4fbcabbc6c6e71c8d61020c557f1a1d19aa21e3694336f2b722f621bfed0df25dadb2a71b9f09570ee48784350c61020d557f0475a0972792c2cb8d0faaedf847767ef1ae4f3b24c40b38f7554ddac907476961020e557f304730cad2c4151300fb6c638523cf5baf68c4effc89dd6d8307bd177b7e583761020f557f2d25e7f16e04b5b06790e6641d61d007d1a1369b0411b16324af0aa94f43e7a8610210557f0a38f6b9122916f66aa7f698dfaab4c88f6b81e25cd95e96d3f9e6cec5529af1610211557f2d0799c215629a950f7ca56f66f8978018c36a3d2568dd0a8953f46017a3fc30610212557f16b3822868f66bfa9db438856ff3812fab464fe70f346bb14d49854f95fded3a610213557f1f750af5e3afea0b2bd6f57c43bcaa4b9da2b5cf593edef1d29a2080e43db683610214557f1e5edcaed9ee5a3b69a1d21a4995aa9fd0e0f9851f05dc0b8f75057053034c0c610215557f049000812016001d4b9ac541f68ed0d8a549c203f84d5013e87dc9e548abcfc3610216557f2dc5315379069e5817562b10cd3513b814755a15ade45726eb3eaf9cb6bd0748610217557f191086277d069a06a82a58e00efe3cc05c2c8100ec73636221a85a9c29d97462610218557f2c6efef812ada95d8f623094cb3c7f4ec2f2660bac28db08b75b0f35b4b0b69b610219557f18002af98401286227cde727f441306328cd4c7845d10ec3f810fc52d0a91e9d61021a557f09709852733ccb56cb0f22e9eb3a7eaef1cd4ce1fe616bbc8aaa306e6b5583ca61021b557f2da02364559955799f1d3c7a29205be4b432fcf6dee73e6d3c1c135a7614846a61021c557f2c011ce1591b1a17653f67e0f9f8fbbccecf1915215e09dc61c6d655e24edda561021d557f18637444766828f9366b7350ed39a04f941a2b1fe12a33b4f0f32188cc40111e61021e557f0a1d3c37caee4ddfc4557a97e59a4d71d45d853eaff99dbefd6646f23de3f02d61021f557f01497e401e5658b0d09e6612521be02026895fc8e23318b1c49d6110c3ccfbc2610220557f0cafe5a548ad3bbf230c6ad9a5dcd891db0f7e1e7402560fdcf53c26fd36aa4a610221557f010673f404996e79cdc87ff127103b8719862fe9623c89618b2402d835b19a76610222557f2fd0075d223edd517910622568656c991bfc8e9c4d34feb339f5cdcbecd6b4d0610223557f1ae4922a0f9b8872b105214a4df86912167c9542344cda1360c9efeb11a52bc0610224557f03cfe5bdb34fcb424af47219dbb42a97c3d139d2a49cb397a6418834bddceece610225557f064f22c473c5abcaf67c70b50854c8de6dc12f406c85323a48ea29ebe6ae2faf610226557f0903057735f09e17b5b108ba7bd2728d3c0227d5baccb9725f15174d65a0f9be610227557f023e0f18f89306e7a467e8ce5cbe1f80fe5fcdb636700f51580e8a7911c2a3ff610228557f0d8db26b133c923e29150b79875d245b36217c44309a081cd757bca3337bab9d610229557f23b0be63b4fbf773a9e9d1c7ecf5fce6a546bc14ccf52af6bdad8daae984e6ab61022a557f2643550012e7ee14c6cf6a975df4a2cd60cc632b4dd43be91ceec79d91b8ca8661022b557f2bc13005193f6f0eee0ba10800fda544b6d2a712050a51d182a7a1aeae4163da61022c557f265faca50048d1e28e0959eee36b84a2d9d933470519d1fe7140d606c71c6d2861022d557f01eb45af913e56f434cbe83a2f6d2c9469e2167371220c369462ef7dddba747361022e557f2eaaffbaa7438283c10097f6106812ef1353b1f62be96e671fc8c24f93e969e761022f557f2ff0baab029ea9d9eea51a776566f30a37b0522ea4df120e7fe0a35e3a280251610230557f2b27c8410743a961748980bd030a47aa3c8481a4dd7614aa10258e66b26bded1610231557f2f38a8c3a8898351dc8cb9328f5ce162f07c6e4728853e30eea2ed2c5cf4dfc7610232557f297bb685f0b5c6b4872ebaf0051a37dfc765d4fb692dab10c860d4f4ddebd21f610233557f0d3326c6d6b3105c61c680050265549f4d733ea462e876fc0e72e3638898e567610234557f0ecfac3489c65c4efbdf58384c485e8c4984a0bf1e9fe2c25fe7091d0f6545b7610235557f27b97a2b1d3ae1ee52f15f2276e279524ab93c46eddeb88cec0aef20067a9534610236557f127436a9d0bdb3a11ccfa713f1ef42aec7c847d49934530b90f87a9df19232b6610237557f25a2397e88d537821686c42e43716e5632f286920f795150149e9637f67e06f6610238557f1d0de70a133ef53d4a17bd9af12903a07550df94297b0fbdbb9fbb85e291f36e610239557f0a2e7fe94dfdbbefe90c79b0a571c9d9a3594083a88ec54000d5d6b8d998529f61023a557f0b91856b80b30d217d8239b3c0e86669c1aef335b54e588144b76bafbfa7b7d261023b557f098cd74ed64ba7d52307820a5ab32cb28a117cc2872634b1795d779117a3e02b61023c557f23f13c978b1bae4c4402c9d5dbafd607a067b5125d77cae14ead6ce8cf8dc10261023d557f0d641852c725ce5c3f636279ecf87a4f481037896177bd78a53935959883308a61023e557f301e5ada1729581c106cb3df39c05e59ac772c9972a95431a9b527938d55de6b61023f557f2d101ad90ff6415e64605e5a200d22d2f971c5d11aff34131f8ac3fdc48b556f610240557f0be610de9edb16fe6559aeef90efb18fe6fbb10db6606e555a11807881e4a807610241557f1feac09b05e904456e935ac5705975f1ea3823c72c7555dc318edc5a28ab1fec610242557f24c5068af589744dce6d4b0b3c16aefcfaabadc9a6de7488d137ada35560c554610243557f0dc19f5b5697950d348bd1c48aeaca8ae6b239643fe6eefe95bd0e6a233d0072610244557f3042c2987f98342ab3f8fadc1345674c58cfe50b6d70986b87697b78632b3e34610245557f2e51eb11a2923d77ab9a89705dfbbae3bd0297fbd8b53fc8a2c7a3d64543e9db610246557f0232579249805dff9a83e0476cecab0020d6a22ea971de3991c6b4745d23b696610247557f11ccf8f02e4083db3d10876b3801388f792240252b5efc3efb9ec8b62fd382db610248557f2789ccc71ab6cb9723924142dc97f96a50172c88c89c2055cc348d85ce7ed01a610249557e369a8a8ab98d37ab1ea4b96c9faab1859675f161abea9aee2ed17c0ef5683561024a557f0826170a108bd90e1f1839267c4c7d022d56a7b79d3982587a33ae5e5924476761024b557f2ca61e8d2c1adafa28f534061204dbcd8837a88190bdcc9952a64a1eb99858cc61024c557f07847547aeb2f8da85dc6ecfeefcab840e817deb53f5099c587b6730a23277da61024d557f071feb376cc97acd35d357da1679c27a039b3aa02be29c1f62cd60891c76f3d261024e557f063e0aae15b45bc362c9c2976319d33eaeff2f0c36b4ecd506e7723e0e4d614361024f557f1ef4b4546a18ed32de0a255c87ad18935e5ff78ced09d06eea5f587677039074610250557f0d7c027e44e7e09a8d024d4ced9f34dabf73979db74b7e2831483e6837bbd4d7610251557f2b69f1a283159734a55e2a7b5da1ed3b2e2424140e9ab3c983c02f27953140ac610252557f1612f66107dd107421280a9247e15671df1c6c2a85dfe1fd4df929a07da74f09610253557f19689384a3cd835229cf0378a946a6920fe162c16d1b33b4f1cbfd320e8bddc1610254557f2549cdb9a91be754499575ac235ae5a9f78fa093aa52ca496528308481951aee610255557f1d521497291eee1ccf8c5f18ccc4ea72935b3101532adc61cdef5d10e5dcb7c7610256557f0d0f50f1718590b680bb7f44eb5168334fe550280033d37a523887d0c0dbace0610257557f109897807571cc2b8823a2373d507830f00b25d6609879d2c67f8896b7a5e543610258557f2577d5a64a804cfa49731ec781ab20d012f9d00ffd4c9277dd60f0bdf5602523610259557f2ef941d0cf257b948d896187bf1f31515f02f54a17da7c9799ac72e519a6cbed61025a557f08665a4ea9b7e58fdba480ccced689f982d691f39a4ecf7e0c29114f306fc6b061025b557f0a0847247ae0756e96374f052b6590563f80ec1d1e73eba5413fd5ab54b83e3161025c557f0a6072092e22c21be98f77c36c7a1c9ba121b09f00d4429621740ed21386d9b461025d557f16464df6e8a2a8ddca60bce6e07770cc9132dde817b6a0a41375c90b4df5297161025e557f0f931ca2cda2716dcd0a8871f77142199373486237fbc7d21e7fc3502be9995861025f557f2188d63bec3c08d62c8767195a5fbdd7db1ca4bdedd8a3ff06361dba72c465f4610260557f148fbd052036aaffd94b17a6e3877c703cab0b4e145001295fb9c51a5bf7d5b2610261557f10a86da3b94672ec3d903ce128c57db5244f9ce9cae4f09fd81a7134092bc713610262557f1303ecec1dd835e728256b1d6f13796f05c13f08c326dcc780e5047caf01d38b610263557f21ba925bfec2b5a289f5fc1cb57bee77c8b93137bb24f56eb5a464cd60564f0b610264557f06335572e9e77dfbc735dc5808c08f714cd54cbae135a400c19d1d789c3ae177610265557f184ea78b3db4f65c6e71e30eb8816a45af1988f1462ce0f0ce2a3168544d86e5610266557f0224a07872a07f929d886a0738776f3555c910213671bf5ac12ec339275becde610267557f2fd658136a31c1ef1d363b179e900d962daeef50a6e9e8035a7501524bec81e2610268557f2198d7ace7ee4a3830c5a201dbb54c950868250a750078d92c8ffc1c03e963c6610269557f199ace7cd0f4d7f3e3821197b5269f6ced8c99cf881ad7529012637fe90b8a6a61026a557f0b22dfe473b555aaa58a6de9e438c5687a96695908ca30a8c484669c18d85dc161026b557f2ae5953855868599e81ad8c23eac3322734d0a4396781b1ef5ff68d3df8beed261026c557f0be83675307e30acf889e18ed53174275060b6bb1b05594cb106fdda20492f1e61026d557f1a3e61f3b0444c891ffb9e622b7310d938d2568156270f0cd8a01dd0683dad7961026e557f2548e18ded3617ee0ebad3dc1521b6f8c36e431023db27743b25af9ecdbb5e6561026f557f07be59cd33993fd96a9d2f30d369b29859db461c75e65bf91257f7d556bbf8c2610270557f287aecdf78f8b0dbb3c44756ba5aec388ac04314dae8158b0d03a2cab7a7f746610271557f09d5a65ffc743dcc8db59f58e00aafefd0f8371d1f070f1cca92b8170be53e02610272557f19bd857438b49b42e00c6b05cd5e2ab74147b10ad41ed55e0a420b9744ff8b98610273557f264899aab89812cde4222380947615f2170f2a7ca01b7ea38253b4a00599b55a610274557f2d90926e652379fc7c0d2660951bd6c1a7b5ae79fe317d0ff4b151cd37cd84ed610275557f30115ba1e1e652aedeef821a3f1ef234fc2dc1a2d3f7934b58440fe8924d4713610276557f222e536ba107becbfbda688578b9f508b4fe9788f8d61e4b25842b6e9044c133610277557f233adc8ad3284013d1b8b1b1560260095db9f7d0e83d39d712b9be4e787696b9610278557f0bd3cdaa8ef019d12ca8b017f90231a68378ab0b665b999b74e7ec9942090df4610279557f2f41665534bbe57556b2201e94fcb304e081130bba4ba47a8cb1261e402da0dd61027a557f1da4fb0078458faf03f1288a253d0ff896049acd1ce2215543560160821c233261027b557f0bb653cc0a1cef84f846e922c39a772b76a7317150defb5a028fc0019357116061027c557f090c3df0ada1bdc46a81a29bac258696a432a86a611fe059468d2d0eb1762a7761027d557f04ead084dbf73ae84fc60c674e668f7b5337788901fcd97ec270486622e2801461027e557f05cf3c3c978be7891e5dbb98434ee2c1d558c7c7b3176b9f15bb9d598785b04761027f557f0bd5b01df252a5a749b9c0246b656dabdcba2b7df1069265a4fee5b574abca02610280557f11db5475c877bb513313bbd5eda2f22c993430ddfc1b81e8b29d306e994c2b46610281557f0b9089180992f5b565e9f06c3ffa6596a802b4e5f01429ef7a204edcd6ae3970610282557f244df0e73d38031b6fd539dc66eeb32b72e1c57cdca5c23b30f8d548d98098df610283557f245c802b594cdfc569572bd3d435b20be585e5ae39f88f68bd3304e0cd55e924610284557f0a3a6309c47177328f8ed2aa99a4ec2cae4cddb93ef7bd03f4799bba44578052610285557f084c2b154655b606d2410cd88ef448919077b907d524bb8aca9e5573ef7f35df610286557f1f73e4b5c017f7a4db51dfc4a4ea5c41f056f4c691ef0b6745672a7a77864172610287557f295c6a9fa6c540d02759f899400ac2f551ca704162338d6ac991d1a0aef5e339610288557f075ee499b316faa8e2adad4ab92a16f97db30ef1370e5b119f85ceaad2461967610289557f2331639970bbae449155a436dd7d8a5af5dfa75b14a1ea637d09ee05d163b15361028a557f0d52f31e5d9f7a20e0c3f0c0a86959d8531da888f51921a492e5fa273a23971961028b557f29b2da634cd03f1fcae3486739720e91cdaf9cbbc7269edab0695d108d2f5a7d61028c557f029819aa0bf35a504b14d76565528b91362f084231a378844465ea767d4f336961028d557f2006c136dac28fc12e4dc07c2db156f9ad315376cde4b37d10671f01cfb34e3a61028e557f2fe51e0d4f91f7dc0c8ee105915678d89553a8da028f5040c147520a3858cac461028f557f1d2ff7aa57f88a80b9d1fbc6e57cfeeb8ec962c468fe2b0209edcc2bed2bafef610290557f1fcb0543fcb61ba4750c32e7929477ba1f3b99a2520bcfff1941da65726acf25610291557f21662c5bb3e15e0c4d2010ea4c25e49486cd8cf02150dcc2af2cca30281d4045610292557f2cb25caa0a22249d13954e77db485533ceb852b598eee3ff20fc0666aa7921ff610293557f1cfcf9557c545e72a182c94d317e9d48ae24c7528ef9fde678903327a9bd6c48610294557f17759a56585078f813f967fce7bd4d904bc69a18f26e50d0d043fff8c61dea8b610295557f2a0c93f9b301407f9734a9f204bd7aba0812b4099c330959715f43e0770e0e4c610296557f13e6cf076e9fc038f9d22a7c856539568e134cae0466ee93dda27c167ad0f4a9610297557f266b75a2feaafdb17b8af92886f023980f07f46d6a7e46dbf196d4614c4fb3f6610298557f0e9b812341e88aa9986248e8d8b8555ae7a9b27482aa8d2f143adcb8a7b155a0610299557f27ca89ed60a023c0d7e6eda1481c5430c0f7dab53fa8ba027c21f4e3ddf9576261029a557f2ce4b233fd4ec699e0dbdd455a3fd5c3ee5d10f5ba84a5ce7c29310dbfd1242161029b557f1b7160ed9bb294aac6f2ba550f9a04c46ddb96558a19d3f913ccfd35333cad7c61029c557f0218b81704db9dec3a345b945c453e0623bc4a28f44c045ddf88ab93d696872561029d557f06183425dd89544f4f6f87dd782685db538df69d705cef568fb70353a83de25661029e557f200786d1134a29ddb1118059b2e2bfb2f525f1971f018f74d0386a6921e7055561029f557f1686e5c35bef17f0e6ffd7da1c359ce3c8eba6fb8ad28510bfb7a786b2ffbf956102a0557f165dbf5d811b376cba366075a59e3881c8f3d075dd705bc7fc70c26e1c468e036102a1557f1a22f4b59892fa57b304a4f5e4100bf261cf3a497c1b6f324c3b9966d19835046102a2557f1da817486ef92d9d8124020bd86fd33af564d096d9fdf9c028cdbf78f02cb3916102a3557f10f32b9b23f9059698a494c04b708378fe028fd080b30bdb730ab6052d6d19dc6102a4557f01391ee5803fb811a0449217a7fa1a0717684633cbf48c8aa527fb496d05ba136102a5557f2c7f22f01a411358080879280f42a01de88bbadd4d4e3f0704b4a6853598f31a6102a6557f1e86de7ddb120eb7d18b98b83e15b5d1471b15df0dc79c826fb249a255676b496102a7557f0674f4651021b66e2cfb21726ffefd2d3d8f961b6b5df8ef71d081332b790b236102a8557f09b7e0702de65ee330719b815da7a0251e96f9c1e544a9bbf4c79975aa9757986102a9557f0dbaec6eeb6448e6ab4bda01b1b8e4bdcad05e28596d5cf14d502368e6fc621f6102aa557f0ed0943ecbba07f8f22cb91fa34d951774d766a43c05a727044f56e62c7d4bdf6102ab557f08c96ec7682f82e3963e5843a7f616cb860c660e07cc5bfecbc4edbebe67bdd16102ac557f2e3247413e46a72ea5610df0e22aab31b706d7d4c7e16eabc79d1ed05e283e566102ad557f20ca0841a536683a1259b28fee6ed1e864412932a44bedc7edd504ab57fe189e6102ae557f1f6ea193ba7afdde2f1a746dbd8886a96b46e558bfd2292ec38e0d74b1431e766102af557f0135c3c85002416ffc9abcc2dfc078fc180fed9ea06df34e3b521e42fdfa1d396102b0557f08154f7f32ffac5727d01e64d21d05ad9a950fe6f4146a1c2e772b153f292e726102b1557f20adf3d14dc49573cc8bcb11062edafdbd281f4dd36644d0015b504e81045aec6102b2557f226d21b858d19e62fb389862fdccfcd8eb41fabbead88e772b6a2827816f0da66102b3557f30032d02a8facdddc83d0d5ef75beeeb485f9c3970076e82fbdf3e8a42ce7b406102b4557f28beb72dff07517309547bdf36d18a70fbf5e0ea42b9526486f8cf17a0773ab76102b5557f204227a6220ca396740c53a9c09053b0284363cc5b3bba795d06c1342c25ad786102b6557f0bdc653e4b321fe88c99c88a23b35cbda9681ffb5935db9eb1b409b9380f51a56102b7557f15ab859fb9abad04371f7140f965f8f86feebd8e86ea0f24ee49bf58e900a8fb6102b8557f221e222df56bea6791a8061541c6cf996622d7f827744484ab2a1ace9b9f3cdc6102b9557f2d1204df4607c7bd43f91474e5a22e94da7b993b626ea11486e70f32417e50876102ba557f18d7c80ca233d3f4ad37562ec1246575f73af69ed9294049dd1782de2094958d6102bb556101ae908161643e8239f35b600080fdfe608080604052600436101561001357600080fd5b600090813560e01c9081632c7bbe881461009557508063315f5e0e146100665763b941032e1461004257600080fd5b3461006357602061005b610055366100bb565b906100d6565b604051908152f35b80fd5b503461006357606036600319011261006357602061008b6044356024356004356100fd565b6040519015158152f35b9050346100b7576020906100b16100ab366100bb565b90610156565b15158152f35b5080fd5b60409060031901126100d1576004359060243590565b600080fd5b600781116100e7575061012c900690565b600c106100f65761012c900690565b6064900690565b906007811161012c575061012c81101561011657541490565b634e487b7160e01b600052603260045260246000fd5b600c106101445761012c808210156101165701541490565b60648110156101165761025801541490565b60078111610165575060021490565b600c106101725760061490565b6011149056fea2646970667358221220d46319bbd76dcff806a3580dd6b2061b4d2b69edaacb88917cdcbc46f5006fa364736f6c63430008130033",
    "linkReferences": {}
  },
  "methodIdentifiers": {
    "getMapID(uint256,uint256)": "b941032e",
    "verifyMap(uint256,uint256,uint256)": "315f5e0e",
    "verifyMapC1(uint256,uint256)": "2c7bbe88"
  },
  "id": 540
}