{
  "abi": [
    {
      "anonymous": false,
      "inputs": [
        {
          "indexed": true,
          "internalType": "address",
          "name": "player",
          "type": "address"
        },
        {
          "indexed": false,
          "internalType": "uint256",
          "name": "hash",
          "type": "uint256"
        }
      ],
      "name": "CommitBid",
      "type": "event"
    },
    {
      "anonymous": false,
      "inputs": [
        {
          "indexed": false,
          "internalType": "uint8",
          "name": "version",
          "type": "uint8"
        }
      ],
      "name": "Initialized",
      "type": "event"
    },
    {
      "anonymous": false,
      "inputs": [
        {
          "indexed": true,
          "internalType": "address",
          "name": "user",
          "type": "address"
        },
        {
          "indexed": false,
          "internalType": "uint256",
          "name": "state",
          "type": "uint256"
        }
      ],
      "name": "LoseGame",
      "type": "event"
    },
    {
      "anonymous": false,
      "inputs": [
        {
          "indexed": true,
          "internalType": "address",
          "name": "player1",
          "type": "address"
        },
        {
          "indexed": true,
          "internalType": "address",
          "name": "player2",
          "type": "address"
        }
      ],
      "name": "ReadyPlayerTwo",
      "type": "event"
    },
    {
      "anonymous": false,
      "inputs": [
        {
          "indexed": true,
          "internalType": "address",
          "name": "player",
          "type": "address"
        },
        {
          "indexed": false,
          "internalType": "uint256",
          "name": "amount",
          "type": "uint256"
        },
        {
          "indexed": false,
          "internalType": "uint256",
          "name": "salt",
          "type": "uint256"
        }
      ],
      "name": "RevealBid",
      "type": "event"
    },
    {
      "anonymous": false,
      "inputs": [
        {
          "indexed": true,
          "internalType": "address",
          "name": "user",
          "type": "address"
        },
        {
          "indexed": false,
          "internalType": "uint256",
          "name": "state",
          "type": "uint256"
        }
      ],
      "name": "WinGame",
      "type": "event"
    },
    {
      "anonymous": false,
      "inputs": [
        {
          "indexed": true,
          "internalType": "address",
          "name": "player",
          "type": "address"
        },
        {
          "indexed": false,
          "internalType": "uint256",
          "name": "grid",
          "type": "uint256"
        }
      ],
      "name": "WinGrid",
      "type": "event"
    },
    {
      "inputs": [
        {
          "internalType": "uint256",
          "name": "",
          "type": "uint256"
        }
      ],
      "name": "allSelectedGrids",
      "outputs": [
        {
          "internalType": "uint256",
          "name": "",
          "type": "uint256"
        }
      ],
      "stateMutability": "view",
      "type": "function"
    },
    {
      "inputs": [
        {
          "internalType": "address",
          "name": "",
          "type": "address"
        }
      ],
      "name": "balances",
      "outputs": [
        {
          "internalType": "uint256",
          "name": "",
          "type": "uint256"
        }
      ],
      "stateMutability": "view",
      "type": "function"
    },
    {
      "inputs": [
        {
          "internalType": "contract MercuryBase",
          "name": "collection",
          "type": "address"
        }
      ],
      "name": "claimTimeoutPenalty",
      "outputs": [],
      "stateMutability": "nonpayable",
      "type": "function"
    },
    {
      "inputs": [
        {
          "internalType": "uint256",
          "name": "hash",
          "type": "uint256"
        }
      ],
      "name": "commitBid",
      "outputs": [],
      "stateMutability": "nonpayable",
      "type": "function"
    },
    {
      "inputs": [],
      "name": "currentSelectedGrid",
      "outputs": [
        {
          "internalType": "uint256",
          "name": "",
          "type": "uint256"
        }
      ],
      "stateMutability": "view",
      "type": "function"
    },
    {
      "inputs": [
        {
          "internalType": "address",
          "name": "",
          "type": "address"
        }
      ],
      "name": "gameStates",
      "outputs": [
        {
          "internalType": "uint256",
          "name": "",
          "type": "uint256"
        }
      ],
      "stateMutability": "view",
      "type": "function"
    },
    {
      "inputs": [],
      "name": "getGrid",
      "outputs": [
        {
          "internalType": "address[]",
          "name": "",
          "type": "address[]"
        }
      ],
      "stateMutability": "view",
      "type": "function"
    },
    {
      "inputs": [
        {
          "internalType": "address",
          "name": "player",
          "type": "address"
        }
      ],
      "name": "getRevealedBids",
      "outputs": [
        {
          "internalType": "uint256[]",
          "name": "",
          "type": "uint256[]"
        }
      ],
      "stateMutability": "view",
      "type": "function"
    },
    {
      "inputs": [],
      "name": "gridHeight",
      "outputs": [
        {
          "internalType": "uint256",
          "name": "",
          "type": "uint256"
        }
      ],
      "stateMutability": "view",
      "type": "function"
    },
    {
      "inputs": [],
      "name": "gridWidth",
      "outputs": [
        {
          "internalType": "uint256",
          "name": "",
          "type": "uint256"
        }
      ],
      "stateMutability": "view",
      "type": "function"
    },
    {
      "inputs": [
        {
          "components": [
            {
              "internalType": "uint64",
              "name": "gridWidth",
              "type": "uint64"
            },
            {
              "internalType": "uint64",
              "name": "gridHeight",
              "type": "uint64"
            },
            {
              "internalType": "uint64",
              "name": "lengthToWin",
              "type": "uint64"
            },
            {
              "internalType": "uint64",
              "name": "initialBalance",
              "type": "uint64"
            }
          ],
          "internalType": "struct MercuryBidTacToe.GameParams",
          "name": "gameParams",
          "type": "tuple"
        },
        {
          "internalType": "address",
          "name": "player",
          "type": "address"
        },
        {
          "internalType": "address",
          "name": "callback",
          "type": "address"
        }
      ],
      "name": "initialize",
      "outputs": [],
      "stateMutability": "nonpayable",
      "type": "function"
    },
    {
      "inputs": [
        {
          "internalType": "address",
          "name": "player",
          "type": "address"
        }
      ],
      "name": "joinGame",
      "outputs": [],
      "stateMutability": "nonpayable",
      "type": "function"
    },
    {
      "inputs": [],
      "name": "lengthToWin",
      "outputs": [
        {
          "internalType": "uint256",
          "name": "",
          "type": "uint256"
        }
      ],
      "stateMutability": "view",
      "type": "function"
    },
    {
      "inputs": [],
      "name": "mercuryBidTacToe",
      "outputs": [
        {
          "internalType": "contract MercuryBidTacToe",
          "name": "",
          "type": "address"
        }
      ],
      "stateMutability": "view",
      "type": "function"
    },
    {
      "inputs": [],
      "name": "nextDrawWinner",
      "outputs": [
        {
          "internalType": "address",
          "name": "",
          "type": "address"
        }
      ],
      "stateMutability": "view",
      "type": "function"
    },
    {
      "inputs": [],
      "name": "player1",
      "outputs": [
        {
          "internalType": "address",
          "name": "",
          "type": "address"
        }
      ],
      "stateMutability": "view",
      "type": "function"
    },
    {
      "inputs": [],
      "name": "player2",
      "outputs": [
        {
          "internalType": "address",
          "name": "",
          "type": "address"
        }
      ],
      "stateMutability": "view",
      "type": "function"
    },
    {
      "inputs": [
        {
          "internalType": "address",
          "name": "",
          "type": "address"
        }
      ],
      "name": "playerEmote",
      "outputs": [
        {
          "internalType": "uint256",
          "name": "",
          "type": "uint256"
        }
      ],
      "stateMutability": "view",
      "type": "function"
    },
    {
      "inputs": [
        {
          "internalType": "address",
          "name": "",
          "type": "address"
        }
      ],
      "name": "playerMessage",
      "outputs": [
        {
          "internalType": "uint256",
          "name": "",
          "type": "uint256"
        }
      ],
      "stateMutability": "view",
      "type": "function"
    },
    {
      "inputs": [
        {
          "internalType": "uint256",
          "name": "bid",
          "type": "uint256"
        },
        {
          "internalType": "uint256",
          "name": "salt",
          "type": "uint256"
        },
        {
          "internalType": "contract MercuryBase",
          "name": "collection",
          "type": "address"
        }
      ],
      "name": "revealBid",
      "outputs": [],
      "stateMutability": "nonpayable",
      "type": "function"
    },
    {
      "inputs": [
        {
          "internalType": "uint256",
          "name": "index",
          "type": "uint256"
        }
      ],
      "name": "setEmote",
      "outputs": [],
      "stateMutability": "nonpayable",
      "type": "function"
    },
    {
      "inputs": [
        {
          "internalType": "uint256",
          "name": "index",
          "type": "uint256"
        }
      ],
      "name": "setMessage",
      "outputs": [],
      "stateMutability": "nonpayable",
      "type": "function"
    },
    {
      "inputs": [
        {
          "internalType": "contract MercuryBase",
          "name": "collection",
          "type": "address"
        }
      ],
      "name": "surrender",
      "outputs": [],
      "stateMutability": "nonpayable",
      "type": "function"
    },
    {
      "inputs": [
        {
          "internalType": "address",
          "name": "",
          "type": "address"
        }
      ],
      "name": "timeouts",
      "outputs": [
        {
          "internalType": "uint256",
          "name": "",
          "type": "uint256"
        }
      ],
      "stateMutability": "view",
      "type": "function"
    }
  ],
  "bytecode": {
    "object": "0x60808060405234610016576122a6908161001c8239f35b600080fdfe608080604052600436101561001357600080fd5b60003560e01c9081630c46c3c614611de757508063108c5e1414611dc9578063134000c014611d135780631f10788a14611cd95780632389a29014611a3a57806327e235e314611a005780632b926184146118695780633193a25f146117b557806338b145df1461179757806359a5f12d1461176e57806368d06f141461174557806375879aa9146109ad5780637e3cef0f1461098f57806380d537a014610946578063878449951461092857806392b5b0dc14610830578063bfa4e24114610468578063d30895e41461043b578063d90f1e7814610401578063db36d0351461022f578063e1a4378e146101d7578063f042886b146101a0578063f6595be7146101665763fbdb5a931461012757600080fd5b34610161576020366003190112610161576001600160a01b03610148611e0b565b16600052600a6020526020604060002054604051908152f35b600080fd5b34610161576020366003190112610161576001600160a01b03610187611e0b565b1660005260096020526020604060002054604051908152f35b3461016157602036600319011261016157600435600854811015610161576101c9602091611e90565b90546040519160031b1c8152f35b346101615760203660031901126101615761020a60018060a01b038060005460101c163314908115610221575b50611f77565b33600052600f602052600435604060002055600080f35b905060015416331482610204565b346101615760208060031936011261016157610249611e0b565b60018060a01b03908160005460101c16331480156103f4575b61026b90611f77565b81610274612180565b16600052600a8352604060002054156103b15781610290612180565b16600052600a83526040600020544211156103615760008051602061223183398151915291923360005260098152600660406000205560405160068152600080516020612211833981519152823392a2836102ea336121a5565b169283918260005260098152600760406000205560405160078152a28260055416803b1561016157600092836064926040519687958694633c2770bf60e01b865233600487015260248601521660448401525af180156103555761034a57005b61035390611e21565b005b6040513d6000823e3d90fd5b60405162461bcd60e51b815260048101849052602260248201527f426964546163546f653a2074696d656f7574206469646e277420706173732079604482015261195d60f21b6064820152608490fd5b6064836040519062461bcd60e51b825280600483015260248201527f426964546163546f653a2074696d656f75742069736e277420646566696e65646044820152fd5b5060015482163314610262565b34610161576020366003190112610161576001600160a01b03610422611e0b565b1660005260106020526020604060002054604051908152f35b346101615760003660031901126101615760005460405160109190911c6001600160a01b03168152602090f35b3461016157366003190160c081126101615760801361016157604051608081018181106001600160401b0382111761073b576040526004356001600160401b0381168103610161578152602435906001600160401b038216820361016157602091828201526044356001600160401b03811681036101615760408201526064356001600160401b03811681036101615760608201526084356001600160a01b03811690036101615760a4356001600160a01b0381168103610161576000549160ff8360081c161592838094610823575b801561080c575b156107b05760ff1981166001176000558361079e575b506000805462010000600160b01b03191660843560101b62010000600160b01b031617905580516001600160401b039081166002819055858301518216600381905560408401519092166004556105ac9190611edf565b6105ce6105b882611ef2565b916105c66040519384611e34565b808352611ef2565b8582019190601f1901368337516001600160401b03811161073b57600160401b9182821161073b576006548260065580831061077a575b50600660005260005b8281106107515750505061062f61062a60025460035490611edf565b611f45565b6000805460101c6001600160a01b03168152600d8752604090208151929091906001600160401b03841161073b57831161073b57869061067484845481865585611f20565b01906000528560002060005b838110610729575050505060606001600160401b039160018060a01b0360005460101c1660005260098652600160406000205501511660018060a01b0360005460101c16600052600b845260406000205560018060a01b03166001600160601b0360a01b60055416176005556106f257005b7f7f26b83ff96e1f2b6a682f133852f6798a09c465da95921460cefb38474024989061ff00196000541660005560405160018152a1005b82518282015591870191600101610680565b634e487b7160e01b600052604160045260246000fd5b81516001600160a01b03166000805160206122518339815191528201559087019060010161060e565b61079890836000805160206122518339815191529182019101611f09565b87610605565b61ffff19166101011760005584610555565b60405162461bcd60e51b815260048101869052602e60248201527f496e697469616c697a61626c653a20636f6e747261637420697320616c72656160448201526d191e481a5b9a5d1a585b1a5e995960921b6064820152608490fd5b50303b15801561053f5750600160ff82161461053f565b50600160ff821610610538565b3461016157602036600319011261016157610849611e0b565b60018060a01b038060005460101c163314801561091b575b61086a90611f77565b610872612180565b816108aa81831692836000526009602052600860406000205583600080516020612211833981519152602060405160088152a26121a5565b1690816000526009602052600960406000205581600080516020612231833981519152602060405160098152a2826005541690813b1561016157600060649281956040519788968795633c2770bf60e01b8752600487015260248601521660448401525af180156103555761034a57005b5060015481163314610861565b34610161576000366003190112610161576020600754604051908152f35b346101615760203660031901126101615761097860018060a01b038060005460101c1633149081156102215750611f77565b336000526010602052600435604060002055600080f35b34610161576000366003190112610161576020600454604051908152f35b34610161576060366003190112610161576044356004356024356001600160a01b0383168303610161576000543360109190911c6001600160a01b0316148015611731575b6109fb90611f77565b3360005260096020526002604060002054036116e0576001600160a01b03610a21612180565b1660005260096020526002604060002054106116865733600052600c60205260406000205460405160208101918483528360408301526040825260608201928284106001600160401b0385111761073b5783604052825190200361164557505033600052600b60205281604060002054106116005733600052600d602052610acd82610ab4604060002060075490611ec7565b90919082549060031b91821b91600019901b1916179055565b33600052600b6020526040600020805490838203918211610d1957553360005260096020526003604060002055600a6020526000604081205560405191825260208201527ff2d9f51aa665799efd537440b7cfbab6ae7881f088ee346ddeab60bdae4f105760403392a26001600160a01b03610b47612180565b166000526009602052600360406000205414610b5f57005b33600052600d602052604060002090610b7b6007548093611ec7565b905460039190911b1c6001600160a01b03610b94612180565b16600052600d602052610bab836040600020611ec7565b90549060031b1c1060001461157e573391610bce610bc7612180565b915b611e55565b81546001600160a01b0386811660039390931b83811b91901b19909116179091556000908152600e6020526040902080546001810191908210610d195755601180546001600160a01b0319166001600160a01b039283161790556007546040518181529093918216907f2723e4f3d344f2b6e4aa882d504b5c087aaa2fafc5a20cf4ee150191f493443390602090a26002549283156111dd578381079384600160ff1b8314600019831416610d19578183059593946000948791905b600081121580611575575b8061156a575b8061155f575b15610d2f57610cbc610bc982610cb7888d611edf565b611fd7565b905460039190911b1c6001600160a01b0316610cd787611e55565b905460039190911b1c6001600160a01b031614610d07575b610cfb610d01916121c8565b986121d6565b97610c8a565b9560018101809111610d195795610cef565b634e487b7160e01b600052601160045260246000fd5b50919495909650600085600090896000985b600081121580611556575b8061154b575b80611540575b15610dcc57610d6f610bc982610cb78f8c90611edf565b905460039190911b1c6001600160a01b0316610d8a8a611e55565b905460039190911b1c6001600160a01b031614610dba575b610dae610db4916121c8565b9b6121f3565b9a610d41565b9860018101809111610d195798610da2565b5092969398610de092969891959a50611fd7565b80600019810111610d1957600454809160001901109586159661139c575b86156111f3575b8615611038575b505050505050600014610eea57506001600160a01b038116600081815260096020908152604091829020600490819055915191825260008051602061221183398151915291a26001600160a01b03610e63826121a5565b16806000526009602052600560406000205580600080516020612231833981519152602060405160058152a26005546001600160a01b0316803b1561016157604051633c2770bf60e01b81526001600160a01b03938416600482015260248101929092529190921660448301526000908290606490829084905af180156103555761034a57005b60018060a01b038216600052600e602052604060002054908160011b9180830460021490151715610d1957600354610f2191611edf565b1015610ff7576001600160a01b038116600081815260096020908152604091829020600a90819055915191825260008051602061221183398151915291a26001600160a01b03610f70826121a5565b16806000526009602052600b604060002055806000805160206122318339815191526020604051600b8152a26005546001600160a01b0316803b1561016157604051633c2770bf60e01b81526001600160a01b03938416600482015260248101929092529190921660448301526000908290606490829084905af180156103555761034a57005b5050611001611fe4565b6000805460101c6001600160a01b039081168252600960205260408083206001908190558054909216835290912055610353612148565b909295509790929593976111dd578597610d1957829795966000965b6000811215806111d4575b806111c9575b806111be575b156110de57611081610bc982610cb7898e611edf565b905460039190911b1c6001600160a01b031661109c88611e55565b905460039190911b1c6001600160a01b0316146110cc575b6110c06110c6916121f3565b996121d6565b98611054565b9660018101809111610d1957966110b4565b5091975091949594966000955b6000811215806111b5575b806111aa575b8061119f575b1561117557611118610bc982610cb7888d611edf565b905460039190911b1c6001600160a01b031661113387611e55565b905460039190911b1c6001600160a01b031614611163575b61115761115d916121d6565b986121f3565b976110eb565b9560018101809111610d19579561114b565b509350946111869294919650611fd7565b6000198101908111610d19571015848080808080610e0c565b506003548912611102565b5060008912156110fc565b508481126110f6565b506003548a1261106b565b5060008a1215611065565b5085811261105f565b634e487b7160e01b600052601260045260246000fd5b9092955097909593976111dd578297610d195785969795976000965b600081121580611393575b80611388575b8061137d575b156112955761123c610bc982610cb7898e611edf565b905460039190911b1c6001600160a01b031661125788611e55565b905460039190911b1c6001600160a01b031614611281575b6110c061127b916121d6565b9861120f565b96600181018111610d19576001019661126f565b5091975091949560009086600091809a6000995b600081121580611374575b80611369575b8061135e575b15611334576112d7610bc9828f8c610cb791611edf565b905460039190911b1c6001600160a01b03166112f28b611e55565b905460039190911b1c6001600160a01b031614611322575b61131661131c916121f3565b9c6121f3565b9b6112a9565b9960018101809111610d19579961130a565b50929698909397949961134992969b50611fd7565b6000198101908111610d195781111595610e05565b506003548d126112c0565b5060008d12156112ba565b508881126112b4565b506003548a12611226565b5060008a1215611220565b5085811261121a565b509194509596949250819486976000965b600081121580611537575b8061152c575b80611521575b15611439576113da610bc982610cb7898e611edf565b905460039190911b1c6001600160a01b03166113f588611e55565b905460039190911b1c6001600160a01b031614611425575b61141961141f916121d6565b996121c8565b986113ad565b96600181018111610d19576001019661140d565b5091975091949560009086600091809a6000995b600081121580611518575b8061150d575b80611502575b156114d85761147b610bc9828f8c610cb791611edf565b905460039190911b1c6001600160a01b03166114968b611e55565b905460039190911b1c6001600160a01b0316146114c6575b6114ba6114c0916121f3565b9c6121c8565b9b61144d565b9960018101809111610d1957996114ae565b5092969890939794996114ed92969b50611fd7565b6000198101908111610d195781111595610dfe565b506003548d12611464565b5060008d121561145e565b50888112611458565b506003548a126113c4565b5060008a12156113be565b508581126113b8565b506003548c12610d58565b5060008c1215610d52565b50878112610d4c565b506003548912610ca1565b506000891215610c9b565b50848112610c95565b33600052600d602052611595826040600020611ec7565b905460039190911b1c6001600160a01b036115ae612180565b16600052600d6020526115c5836040600020611ec7565b90549060031b1c116000146115e7576115dc612180565b91610bce3391611e55565b6011546001600160a01b031691610bce610bc7846121a5565b60405162461bcd60e51b815260206004820152601d60248201527f426964546163546f653a206e6f7420656e6f7567682062616c616e63650000006044820152606490fd5b907f426964546163546f653a20766572696669636174696f6e206661696c6564000060a460649362461bcd60e51b8452602085820152601e60848201520152fd5b60405162461bcd60e51b815260206004820152602c60248201527f426964546163546f653a206f70706f6e656e742067616d65537461746520697360448201526b103632b9b9903a3430b7101960a11b6064820152608490fd5b60405162461bcd60e51b8152602060048201526024808201527f426964546163546f653a20706c617965722067616d655374617465206973206e60448201526337ba101960e11b6064820152608490fd5b506001546001600160a01b031633146109f2565b34610161576000366003190112610161576005546040516001600160a01b039091168152602090f35b34610161576000366003190112610161576001546040516001600160a01b039091168152602090f35b34610161576000366003190112610161576020600254604051908152f35b3461016157602080600319360112610161576001600160a01b036117d7611e0b565b16600052600d8152604060002060405190818382549182815201908192600052846000209060005b8682821061185557868661181582880383611e34565b604051928392818401908285525180915260408401929160005b82811061183e57505050500390f35b83518552869550938101939281019260010161182f565b8354855290930192600192830192016117ff565b3461016157602080600319360112610161576004359060018060a01b038060005460101c16331480156119f3575b6118a090611f77565b80600154161561198f57336000526009825260016040600020540361193e57907f171f1a4cb1853667c00a913d4296a0088e103776dc34072c5f50c71afac8be319133600052600c825283604060002055600982526002604060002055600a825260006040812055611910612180565b1660005260098152600260406000205414611931575b6040519283523392a2005b611939612148565b611926565b60405162461bcd60e51b8152600481018390526024808201527f426964546163546f653a20706c617965722067616d655374617465206973206e6044820152636f74203160e01b6064820152608490fd5b60405162461bcd60e51b815260048101839052603660248201527f426964546163546f653a206269642063616e6e6f7420737461727420756e6c65604482015275737320746865726520617265203220706c617965727360501b6064820152608490fd5b5060015481163314611897565b34610161576020366003190112610161576001600160a01b03611a21611e0b565b16600052600b6020526020604060002054604051908152f35b346101615760208060031936011261016157611a54611e0b565b6001805490926001600160a01b0392838316611c76576000549084169060101c84168114611bf557806001600160601b0360a01b809416178555611aa061062a60025460035490611edf565b90600052600d825260406000208151906001600160401b039283831161073b57600160401b831161073b578490611adc84845481865585611f20565b0190600052836000208760005b848110611be35750915050859150541660005260098252846040600020558360005460101c16600052600b825260406000205484865416600052604060002055611b31611fe4565b611b39612148565b60005490855491604051938401904282526001600160601b0319809160501b1660408601528360601b1660548501526048845260808401918483109083111761073b57859387926040525190201615600014611bd4575060005460101c169060115416176011555b8060005460101c16915416907ff48d21da286e4ddd36a61fadd8719438b040151ddce25de86d07b6e8b9b76dac600080a3005b16906011541617601155611ba1565b86845194019381840155018890611ae9565b60405162461bcd60e51b815260048101839052604d60248201527f426964546163546f653a206d73672e73656e64657220697320706c617965723160448201527f2c2062757420706c6179696e6720616761696e737420796f757273656c66206960648201526c1cc81b9bdd08185b1b1bddd959609a1b608482015260a490fd5b60405162461bcd60e51b815260048101839052603560248201527f426964546163546f653a2063616e6e6f74206a6f696e206265636175736520706044820152746c61796572322065786973747320616c726561647960581b6064820152608490fd5b34610161576020366003190112610161576001600160a01b03611cfa611e0b565b16600052600f6020526020604060002054604051908152f35b3461016157600036600319011261016157604051806006548083526020809301809160066000526000805160206122518339815191529060005b86828210611dac578686611d6382880383611e34565b604051928392818401908285525180915260408401929160005b828110611d8c57505050500390f35b83516001600160a01b031685528695509381019392810192600101611d7d565b83546001600160a01b031685529093019260019283019201611d4d565b34610161576000366003190112610161576020600354604051908152f35b34610161576000366003190112610161576011546001600160a01b03168152602090f35b600435906001600160a01b038216820361016157565b6001600160401b03811161073b57604052565b90601f801991011681019081106001600160401b0382111761073b57604052565b600654811015611e7a5760066000526000805160206122518339815191520190600090565b634e487b7160e01b600052603260045260246000fd5b600854811015611e7a5760086000527ff3f7a9fe364faab93b216da50a3214154f22a0a2b415b23a84c8169e8b636ee30190600090565b8054821015611e7a5760005260206000200190600090565b81810292918115918404141715610d1957565b6001600160401b03811161073b5760051b60200190565b818110611f14575050565b60008155600101611f09565b91818110611f2d57505050565b611f439260005260206000209182019101611f09565b565b90611f4f82611ef2565b611f5c6040519182611e34565b8281528092611f6d601f1991611ef2565b0190602036910137565b15611f7e57565b60405162461bcd60e51b815260206004820152602b60248201527f426964546163546f653a206d73672e73656e646572206973206e6f742061207660448201526a30b634b210383630bcb2b960a91b6064820152608490fd5b91908201809211610d1957565b60008054906001805460018060a01b0393848160101c168452600b602052604084205485831685526040852054906040519260208401946001600160601b0319809260501b16865260601b166034840152604883015260688201524260888201526088815260c081018181106001600160401b03821117612134576040525190209260025493612078600395865490611edf565b90811561212057908392910694600654925b6120ce575b5050508260075560085491600160401b8310156120ba575081610ab491611f43949301600855611e90565b634e487b7160e01b81526041600452602490fd5b816120d887611e55565b905490831b1c161561211b5783860180961161210757828610156120fd575b8361208a565b93945084936120f7565b634e487b7160e01b85526011600452602485fd5b61208f565b634e487b7160e01b85526012600452602485fd5b634e487b7160e01b85526041600452602485fd5b603c4201804211610d195760018060a01b038060005460101c16600052600a6020528160406000205560015416600052604060002055565b6001546001600160a01b039081163381036121a0575060005460101c1690565b905090565b6001546001600160a01b039190821690821681036121a0575060005460101c1690565b9060008212801516610d1957565b6000198082019291600013801591841291821691151617610d1957565b9060018201916000600184129112908015821691151617610d195756fec3ddfee87fb5710a7b651faf1f639b8e507d3f6691d95cd3dab08b6d25b4a9d889a4279dc90c6afd1ae7cac305b1b1ebf01e39fba87eba7cf5cad649ea2906b9f652222313e28459528d920b65115c16c04f3efc82aaedc97be59f3f377c0d3fa264697066735822122077b46756003735f66942a230882694f222423e0c107ec8d52687d81a723f4add64736f6c63430008130033",
    "linkReferences": {}
  },
  "methodIdentifiers": {
    "allSelectedGrids(uint256)": "f042886b",
    "balances(address)": "27e235e3",
    "claimTimeoutPenalty(address)": "db36d035",
    "commitBid(uint256)": "2b926184",
    "currentSelectedGrid()": "87844995",
    "gameStates(address)": "f6595be7",
    "getGrid()": "134000c0",
    "getRevealedBids(address)": "3193a25f",
    "gridHeight()": "108c5e14",
    "gridWidth()": "38b145df",
    "initialize((uint64,uint64,uint64,uint64),address,address)": "bfa4e241",
    "joinGame(address)": "2389a290",
    "lengthToWin()": "7e3cef0f",
    "mercuryBidTacToe()": "68d06f14",
    "nextDrawWinner()": "0c46c3c6",
    "player1()": "d30895e4",
    "player2()": "59a5f12d",
    "playerEmote(address)": "d90f1e78",
    "playerMessage(address)": "1f10788a",
    "revealBid(uint256,uint256,address)": "75879aa9",
    "setEmote(uint256)": "80d537a0",
    "setMessage(uint256)": "e1a4378e",
    "surrender(address)": "92b5b0dc",
    "timeouts(address)": "fbdb5a93"
  },
  "id": 7
}