{
  "abi": [
    {
      "inputs": [],
      "name": "deactivatePilot",
      "outputs": [],
      "stateMutability": "nonpayable",
      "type": "function"
    },
    {
      "inputs": [
        {
          "internalType": "address",
          "name": "owner",
          "type": "address"
        }
      ],
      "name": "getActivePilot",
      "outputs": [
        {
          "components": [
            {
              "internalType": "address",
              "name": "collectionAddress",
              "type": "address"
            },
            {
              "internalType": "uint256",
              "name": "pilotId",
              "type": "uint256"
            }
          ],
          "internalType": "struct LibPilots.Pilot",
          "name": "",
          "type": "tuple"
        }
      ],
      "stateMutability": "view",
      "type": "function"
    },
    {
      "inputs": [
        {
          "internalType": "uint256",
          "name": "index",
          "type": "uint256"
        }
      ],
      "name": "getPilotXPGroup",
      "outputs": [
        {
          "components": [
            {
              "internalType": "address",
              "name": "collectionAddress",
              "type": "address"
            },
            {
              "internalType": "uint256",
              "name": "pilotId",
              "type": "uint256"
            }
          ],
          "internalType": "struct LibPilots.Pilot[]",
          "name": "",
          "type": "tuple[]"
        }
      ],
      "stateMutability": "view",
      "type": "function"
    },
    {
      "inputs": [
        {
          "internalType": "address",
          "name": "player",
          "type": "address"
        },
        {
          "internalType": "uint256",
          "name": "xp",
          "type": "uint256"
        }
      ],
      "name": "pilotGainXP",
      "outputs": [],
      "stateMutability": "nonpayable",
      "type": "function"
    },
    {
      "inputs": [
        {
          "internalType": "contract IERC721",
          "name": "collection",
          "type": "address"
        },
        {
          "internalType": "uint256",
          "name": "tokenId",
          "type": "uint256"
        },
        {
          "internalType": "address",
          "name": "owner",
          "type": "address"
        }
      ],
      "name": "setActivePilot",
      "outputs": [],
      "stateMutability": "nonpayable",
      "type": "function"
    }
  ],
  "bytecode": {
    "object": "0x6080806040523461001657610a9b908161001c8239f35b600080fdfe60806040908082526004918236101561001757600080fd5b600091823560e01c90816327caee581461070f575080632c70118f146106ea5780634a459d3f1461039c5780635697a35d146103575763d491523d1461005c57600080fd5b3461035357806003193601126103535761007461082b565b903383526020917f2fd2a3d94049461da51196e56bcf344b53de42719b0adf4dbc64d04380d8c7fc835260ff8285205416156102f4576100b390610919565b80516001600160a01b0390811660009081527f1feb44f696f13eea9c1b03d01cdc459bae3231789865e78b907fe1a6e735e7ac602052604090209193908185019283518752825283862080549060243582018092116102e15755845181166001600160a01b031660009081527f1feb44f696f13eea9c1b03d01cdc459bae3231789865e78b907fe1a6e735e7ac6020526040902083518752825261015984872054610a24565b946101988282511660018060a01b03166000527f1feb44f696f13eea9c1b03d01cdc459bae3231789865e78b907fe1a6e735e7ae602052604060002090565b8451885283528487205486036101ac578680f35b8587527f1feb44f696f13eea9c1b03d01cdc459bae3231789865e78b907fe1a6e735e7ad8352848720805490680100000000000000008210156102ce57600182018082558210156102bb578899508261027794939261023c928a9b52868c209060011b01906020600191828060a01b038151166bffffffffffffffffffffffff60a01b8554161784550151910155565b51166001600160a01b031660009081527f1feb44f696f13eea9c1b03d01cdc459bae3231789865e78b907fe1a6e735e7ae6020526040902090565b91518652528320557f1feb44f696f13eea9c1b03d01cdc459bae3231789865e78b907fe1a6e735e7af805482116102b3575b8080808086958680f35b5538806102a9565b634e487b7160e01b895260328a52602489fd5b634e487b7160e01b895260418a52602489fd5b634e487b7160e01b885260118952602488fd5b815162461bcd60e51b8152808601849052603360248201527f4d65726375727950696c6f74733a206d73672e73656e646572206973206e6f7460448201527201030903b30b634b21030bb34b0ba34b7b7171606d1b6064820152608490fd5b5080fd5b509034610399576020366003190112610399575061037b61037661082b565b610919565b815181516001600160a01b0316815260209182015191810191909152f35b80fd5b508290346106e65760603660031901126106e6576001600160a01b03823581811692908390036106e2576024926044359084358483168084036106de578289526020957f2fd2a3d94049461da51196e56bcf344b53de42719b0adf4dbc64d04380d8c7fe875260ff868b2054161561067e5785516331a9108f60e11b815289810184905287818a81885afa908115610674579082918c91610657575b501633149182156105e6575b50811561057a575b501561051b576104b792916104a19185519161046783610846565b825286820152610476836108b9565b815181546001600160a01b0319166001600160a01b0391909116178155602090910151600190910155565b6104b26104ad826108b9565b6108f2565b6109b1565b156104c0578480f35b5162461bcd60e51b8152928301526033908201527f4d65726375727950696c6f74733a206f776e657220706172616d657465722069604482015272039903737ba103a37b5b2b71037bbb732b9171606d1b6064820152608490fd5b835162461bcd60e51b81528088018690526034818801527f4d65726375727950696c6f74733a206d73672e73656e646572206973206e6f7460448201527301030b8383937bb32b21037b91037bbb732b917160651b6064820152608490fd5b855163020604bf60e21b8152898101849052915086828981875afa9182156105dc578a926105ad575b501633148961044c565b6105ce919250873d89116105d5575b6105c68183610878565b81019061089a565b908a6105a3565b503d6105bc565b86513d8c823e3d90fd5b90915085519063e985e9c560e01b82528982015233888201528681604481875afa9081156105dc578a9161061d575b50908a610444565b90508681813d8311610650575b6106348183610878565b8101031261064c5751801515810361064c578a610615565b8980fd5b503d61062a565b61066e9150893d8b116105d5576105c68183610878565b8c610438565b87513d8d823e3d90fd5b855162461bcd60e51b8152808a018890526035818a01527f4d65726375727950696c6f74733a20636f6c6c656374696f6e206973206e6f7460448201527401030903b30b634b21031b7b63632b1ba34b7b7171605d1b6064820152608490fd5b8880fd5b8480fd5b8280fd5b8234610399578060031936011261039957806001610707336108b9565b828155015580f35b8491508334610399576020908160031936011261039957833581527f1feb44f696f13eea9c1b03d01cdc459bae3231789865e78b907fe1a6e735e7ad82528481209384549067ffffffffffffffff821161081857508591848261077886899560051b0183610878565b8082528582018094845286842084915b8383106107ef5750505050835194859481860192828752518093528086019493905b8382106107b75786860387f35b9184965082866107df60019496988498516020809160018060a01b0381511684520151910152565b01960192018695949293916107aa565b600289600192610804859c99989a9b9c6108f2565b815201920192019190979695939497610788565b634e487b7160e01b835260419052602482fd5b600435906001600160a01b038216820361084157565b600080fd5b6040810190811067ffffffffffffffff82111761086257604052565b634e487b7160e01b600052604160045260246000fd5b90601f8019910116810190811067ffffffffffffffff82111761086257604052565b9081602091031261084157516001600160a01b03811681036108415790565b6001600160a01b031660009081527f1feb44f696f13eea9c1b03d01cdc459bae3231789865e78b907fe1a6e735e7ab6020526040902090565b906040516108ff81610846565b82546001600160a01b031681526001909201546020830152565b6000602060405161092981610846565b828152015261093e816104b26104ad826108b9565b15610952576104ad61094f916108b9565b90565b60405162461bcd60e51b815260206004820152603160248201527f4d65726375727950696c6f74733a206163746976652070696c6f74206973206e60448201527037ba1037bbb732b210313c9037bbb732b960791b6064820152608490fd5b9060018060a01b0390602080838551169401516024604051809681936331a9108f60e11b835260048301525afa928315610a18576000936109f6575b50811691161490565b82919350610a119060203d81116105d5576105c68183610878565b92906109ed565b6040513d6000823e3d90fd5b9060005b60ff8111610a4b57826001821b11610a61576000198114610a4b57600101610a28565b634e487b7160e01b600052601160045260246000fd5b915056fea264697066735822122082c6209385e32373b85e282dab48b685bc3607b225de5f65f3a6ee7e69d0d03064736f6c63430008130033",
    "linkReferences": {}
  },
  "methodIdentifiers": {
    "deactivatePilot()": "2c70118f",
    "getActivePilot(address)": "5697a35d",
    "getPilotXPGroup(uint256)": "27caee58",
    "pilotGainXP(address,uint256)": "d491523d",
    "setActivePilot(address,uint256,address)": "4a459d3f"
  },
  "id": 30
}