{
  "abi": [
    {
      "anonymous": false,
      "inputs": [
        {
          "indexed": false,
          "internalType": "address",
          "name": "previousAdmin",
          "type": "address"
        },
        {
          "indexed": false,
          "internalType": "address",
          "name": "newAdmin",
          "type": "address"
        }
      ],
      "name": "AdminChanged",
      "type": "event"
    },
    {
      "anonymous": false,
      "inputs": [
        {
          "indexed": true,
          "internalType": "address",
          "name": "beacon",
          "type": "address"
        }
      ],
      "name": "BeaconUpgraded",
      "type": "event"
    },
    {
      "anonymous": false,
      "inputs": [
        {
          "indexed": true,
          "internalType": "address",
          "name": "implementation",
          "type": "address"
        }
      ],
      "name": "Upgraded",
      "type": "event"
    },
    {
      "inputs": [],
      "name": "current",
      "outputs": [
        {
          "internalType": "uint256",
          "name": "",
          "type": "uint256"
        }
      ],
      "stateMutability": "view",
      "type": "function"
    },
    {
      "inputs": [],
      "name": "increment",
      "outputs": [],
      "stateMutability": "nonpayable",
      "type": "function"
    },
    {
      "inputs": [],
      "name": "proxiableUUID",
      "outputs": [
        {
          "internalType": "bytes32",
          "name": "",
          "type": "bytes32"
        }
      ],
      "stateMutability": "view",
      "type": "function"
    },
    {
      "inputs": [
        {
          "internalType": "address",
          "name": "newImplementation",
          "type": "address"
        }
      ],
      "name": "upgradeTo",
      "outputs": [],
      "stateMutability": "nonpayable",
      "type": "function"
    },
    {
      "inputs": [
        {
          "internalType": "address",
          "name": "newImplementation",
          "type": "address"
        },
        {
          "internalType": "bytes",
          "name": "data",
          "type": "bytes"
        }
      ],
      "name": "upgradeToAndCall",
      "outputs": [],
      "stateMutability": "payable",
      "type": "function"
    }
  ],
  "bytecode": {
    "object": "0x60a08060405234610022573060805261054f908161002882396080518160ad0152f35b600080fdfe6080604090808252600436101561001557600080fd5b600091823560e01c9182633659cfe6146101e5575081634f1ef2861461016d57816352d1902d146100995781639fa6a6e314610078575063d09de08a1461005b57600080fd5b346100755780600319360112610075576001815401815580f35b80fd5b905034610095578160031936011261009557602091549051908152f35b5080fd5b8234610075578060031936011261007557507f00000000000000000000000000000000000000000000000000000000000000006001600160a01b0316300361010457602090517f360894a13ba1a3210667c828492db98dca3e2076cc3735a920a3ca505d382bbc8152f35b5162461bcd60e51b815260206004820152603860248201527f555550535570677261646561626c653a206d757374206e6f742062652063616c60448201527f6c6564207468726f7567682064656c656761746563616c6c00000000000000006064820152608490fd5b366003190112905061007557610181610239565b60243567ffffffffffffffff81116101e157366023820112156101e157806004013591836101b66101b185610290565b610254565b92848452366024868301011161009557846101de9560246020930183870137840101526102ac565b80f35b8280fd5b83903461009557602036600319011261009557610200610239565b6020820182811067ffffffffffffffff821117610225576101de9394528382526102ac565b634e487b7160e01b84526041600452602484fd5b600435906001600160a01b038216820361024f57565b600080fd5b6040519190601f01601f1916820167ffffffffffffffff81118382101761027a57604052565b634e487b7160e01b600052604160045260246000fd5b67ffffffffffffffff811161027a57601f01601f191660200190565b919091803b156103ea577f360894a13ba1a3210667c828492db98dca3e2076cc3735a920a3ca505d382bbc80546001600160a01b0319166001600160a01b0383169081179091556000907fbc7cd75a20ee27fd9adebab32041f755214dbc6bffa90cc0225b39da2e5c2d3b8280a28351158015906103e3575b610330575b50509050565b604051916060830183811067ffffffffffffffff8211176103cf57826103bd95968192604052602786527f416464726573733a206c6f772d6c6576656c2064656c65676174652063616c6c6020870152660819985a5b195960ca1b6040870152602081519101845af4903d156103c6573d6103ad6101b182610290565b908152809360203d92013e610445565b5080388061032a565b60609250610445565b634e487b7160e01b83526041600452602483fd5b5080610325565b60405162461bcd60e51b815260206004820152602d60248201527f455243313936373a206e657720696d706c656d656e746174696f6e206973206e60448201526c1bdd08184818dbdb9d1c9858dd609a1b6064820152608490fd5b919290156104a75750815115610459575090565b3b156104625790565b60405162461bcd60e51b815260206004820152601d60248201527f416464726573733a2063616c6c20746f206e6f6e2d636f6e74726163740000006044820152606490fd5b8251909150156104ba5750805190602001fd5b6040519062461bcd60e51b82528160208060048301528251908160248401526000935b828510610500575050604492506000838284010152601f80199101168101030190fd5b84810182015186860160440152938101938593506104dd56fea264697066735822122036b5f0c3df68f5349263e51bcddc22e90b7a86338a72375679e17e60930079e664736f6c63430008130033",
    "linkReferences": {}
  },
  "methodIdentifiers": {
    "current()": "9fa6a6e3",
    "increment()": "d09de08a",
    "proxiableUUID()": "52d1902d",
    "upgradeTo(address)": "3659cfe6",
    "upgradeToAndCall(address,bytes)": "4f1ef286"
  },
  "id": 127
}