{
  "abi": [
    {
      "anonymous": false,
      "inputs": [
        {
          "indexed": false,
          "internalType": "address",
          "name": "previousAdmin",
          "type": "address"
        },
        {
          "indexed": false,
          "internalType": "address",
          "name": "newAdmin",
          "type": "address"
        }
      ],
      "name": "AdminChanged",
      "type": "event"
    },
    {
      "anonymous": false,
      "inputs": [
        {
          "indexed": true,
          "internalType": "address",
          "name": "beacon",
          "type": "address"
        }
      ],
      "name": "BeaconUpgraded",
      "type": "event"
    },
    {
      "anonymous": false,
      "inputs": [
        {
          "indexed": true,
          "internalType": "address",
          "name": "implementation",
          "type": "address"
        }
      ],
      "name": "Upgraded",
      "type": "event"
    },
    {
      "inputs": [],
      "name": "current",
      "outputs": [
        {
          "internalType": "uint256",
          "name": "",
          "type": "uint256"
        }
      ],
      "stateMutability": "view",
      "type": "function"
    },
    {
      "inputs": [],
      "name": "increment",
      "outputs": [],
      "stateMutability": "nonpayable",
      "type": "function"
    },
    {
      "inputs": [],
      "name": "proxiableUUID",
      "outputs": [
        {
          "internalType": "bytes32",
          "name": "",
          "type": "bytes32"
        }
      ],
      "stateMutability": "view",
      "type": "function"
    },
    {
      "inputs": [
        {
          "internalType": "address",
          "name": "newImplementation",
          "type": "address"
        }
      ],
      "name": "upgradeTo",
      "outputs": [],
      "stateMutability": "nonpayable",
      "type": "function"
    },
    {
      "inputs": [
        {
          "internalType": "address",
          "name": "newImplementation",
          "type": "address"
        },
        {
          "internalType": "bytes",
          "name": "data",
          "type": "bytes"
        }
      ],
      "name": "upgradeToAndCall",
      "outputs": [],
      "stateMutability": "payable",
      "type": "function"
    }
  ],
  "bytecode": {
    "object": "0x60a08060405234610030573060805261094d9081610036823960805181818160ac015281816101d301526104800152f35b600080fdfe60406080815260048036101561001457600080fd5b600091823560e01c9182633659cfe6146104595782634f1ef2861461015957826352d1902d14610098575081639fa6a6e314610077575063d09de08a1461005a57600080fd5b346100745780600319360112610074576001815401815580f35b80fd5b905034610094578160031936011261009457602091549051908152f35b5080fd5b8334610074578060031936011261007457507f00000000000000000000000000000000000000000000000000000000000000006001600160a01b031630036100f157602082516000805160206108f88339815191528152f35b6020608492519162461bcd60e51b8352820152603860248201527f555550535570677261646561626c653a206d757374206e6f742062652063616c60448201527f6c6564207468726f7567682064656c656761746563616c6c00000000000000006064820152fd5b9150806003193601126104515761016e610646565b906024359067ffffffffffffffff82116104555736602383011215610455578184013561019a816106b5565b6101a683519182610693565b81815286602094858301933660248284010111610451578060248893018637830101526001600160a01b037f0000000000000000000000000000000000000000000000000000000000000000811690610201308314156106d1565b61021e6000805160206108f8833981519152928284541614610732565b7f4910fdfa16fed3260ed0e7147f7cc6da11a60208b5b9406d12a635614ffd91435460ff161561025b575050505050506102589150610793565b80f35b869293949596169085516352d1902d60e01b815287818a81865afa8a918161041e575b506102dd57865162461bcd60e51b8152808a01899052602e60248201527f45524331393637557067726164653a206e657720696d706c656d656e7461746960448201526d6f6e206973206e6f74205555505360901b6064820152608490fd5b9791929396959497036103c957506102f482610793565b7fbc7cd75a20ee27fd9adebab32041f755214dbc6bffa90cc0225b39da2e5c2d3b8780a2858451158015906103c1575b610332575b50505050505080f35b806103ab9684519661034388610661565b602788527f416464726573733a206c6f772d6c6576656c2064656c65676174652063616c6c87890152660819985a5b195960ca1b868901525190845af4913d156103b7573d61039d610394826106b5565b92519283610693565b81528681943d92013e610823565b50388080808085610329565b5060609250610823565b506001610324565b835162461bcd60e51b8152908101859052602960248201527f45524331393637557067726164653a20756e737570706f727465642070726f786044820152681a58589b195555525160ba1b6064820152608490fd5b9091508881813d831161044a575b6104368183610693565b810103126104465751903861027e565b8a80fd5b503d61042c565b8280fd5b8480fd5b9150346104515760208060031936011261064257610475610646565b916001600160a01b037f000000000000000000000000000000000000000000000000000000000000000081166104ad308214156106d1565b6104ca6000805160206108f8833981519152918383541614610732565b8251908482019282841067ffffffffffffffff85111761062f578385528883527f4910fdfa16fed3260ed0e7147f7cc6da11a60208b5b9406d12a635614ffd91435460ff1615610524575050505050506102589150610793565b869293949596169085516352d1902d60e01b815287818a81865afa8a9181610600575b506105a657865162461bcd60e51b8152808a01899052602e60248201527f45524331393637557067726164653a206e657720696d706c656d656e7461746960448201526d6f6e206973206e6f74205555505360901b6064820152608490fd5b9791929396959497036103c957506105bd82610793565b7fbc7cd75a20ee27fd9adebab32041f755214dbc6bffa90cc0225b39da2e5c2d3b8780a2858451158015906105f9576103325750505050505080f35b5080610324565b9091508881813d8311610628575b6106188183610693565b8101031261044657519038610547565b503d61060e565b634e487b7160e01b895260418852602489fd5b8380fd5b600435906001600160a01b038216820361065c57565b600080fd5b6060810190811067ffffffffffffffff82111761067d57604052565b634e487b7160e01b600052604160045260246000fd5b90601f8019910116810190811067ffffffffffffffff82111761067d57604052565b67ffffffffffffffff811161067d57601f01601f191660200190565b156106d857565b60405162461bcd60e51b815260206004820152602c60248201527f46756e6374696f6e206d7573742062652063616c6c6564207468726f7567682060448201526b19195b1959d85d1958d85b1b60a21b6064820152608490fd5b1561073957565b60405162461bcd60e51b815260206004820152602c60248201527f46756e6374696f6e206d7573742062652063616c6c6564207468726f7567682060448201526b6163746976652070726f787960a01b6064820152608490fd5b803b156107c8576000805160206108f883398151915280546001600160a01b0319166001600160a01b03909216919091179055565b60405162461bcd60e51b815260206004820152602d60248201527f455243313936373a206e657720696d706c656d656e746174696f6e206973206e60448201526c1bdd08184818dbdb9d1c9858dd609a1b6064820152608490fd5b919290156108855750815115610837575090565b3b156108405790565b60405162461bcd60e51b815260206004820152601d60248201527f416464726573733a2063616c6c20746f206e6f6e2d636f6e74726163740000006044820152606490fd5b8251909150156108985750805190602001fd5b6040519062461bcd60e51b82528160208060048301528251908160248401526000935b8285106108de575050604492506000838284010152601f80199101168101030190fd5b84810182015186860160440152938101938593506108bb56fe360894a13ba1a3210667c828492db98dca3e2076cc3735a920a3ca505d382bbca2646970667358221220aaa9dbccc4079b081b236f9f13ca47b4819d410ddbd60c585fd6d56b4e2042f564736f6c63430008130033",
    "linkReferences": {}
  },
  "methodIdentifiers": {
    "current()": "9fa6a6e3",
    "increment()": "d09de08a",
    "proxiableUUID()": "52d1902d",
    "upgradeTo(address)": "3659cfe6",
    "upgradeToAndCall(address,bytes)": "4f1ef286"
  },
  "id": 89
}