{
  "abi": [
    {
      "inputs": [
        {
          "internalType": "address",
          "name": "sender",
          "type": "address"
        },
        {
          "internalType": "address",
          "name": "expected",
          "type": "address"
        }
      ],
      "name": "InvalidCrossChainSender",
      "type": "error"
    },
    {
      "inputs": [],
      "name": "NotCrossChainCall",
      "type": "error"
    },
    {
      "inputs": [],
      "name": "activeOutbox",
      "outputs": [
        {
          "internalType": "address",
          "name": "",
          "type": "address"
        }
      ],
      "stateMutability": "view",
      "type": "function"
    },
    {
      "inputs": [],
      "name": "currentSender",
      "outputs": [
        {
          "internalType": "address",
          "name": "",
          "type": "address"
        }
      ],
      "stateMutability": "view",
      "type": "function"
    },
    {
      "inputs": [],
      "name": "inbox",
      "outputs": [
        {
          "internalType": "address",
          "name": "",
          "type": "address"
        }
      ],
      "stateMutability": "view",
      "type": "function"
    },
    {
      "inputs": [],
      "name": "outbox",
      "outputs": [
        {
          "internalType": "address",
          "name": "",
          "type": "address"
        }
      ],
      "stateMutability": "view",
      "type": "function"
    },
    {
      "inputs": [
        {
          "internalType": "address",
          "name": "target",
          "type": "address"
        },
        {
          "internalType": "bytes",
          "name": "data",
          "type": "bytes"
        },
        {
          "internalType": "address",
          "name": "sender",
          "type": "address"
        }
      ],
      "name": "relayAs",
      "outputs": [],
      "stateMutability": "nonpayable",
      "type": "function"
    }
  ],
  "bytecode": {
    "object": "0x60c080604052346100d8576001600160401b039060c88181019190838311828410176100c257610478823980600092039082f09182156100b5576001600160a01b03928316608052604051906101c9808301918211838310176100a1579082916105408339039082f090811561009557501660a05260405161039a90816100de8239608051816101ee015260a0518161025c0152f35b604051903d90823e3d90fd5b634e487b7160e01b84526041600452602484fd5b50604051903d90823e3d90fd5b634e487b7160e01b600052604160045260246000fd5b600080fdfe60806040908082526004918236101561001757600080fd5b600091823560e01c90816370348f3e1461022257508063ab5d89431461021d578063ce11e6ab1461021d578063fb0e722b146101da5763fb417a5b1461005c57600080fd5b346101d65760603660031901126101d6576001600160a01b03833581811681036101d25760249485359367ffffffffffffffff8086116101ce57366023870112156101ce5785830135938185116101ca57368986890101116101ca57604435968688168098036101c657888a81928254986bffffffffffffffffffffffff60a01b9b8c8b161784558088519384930183378101838152039082855af1913d156101be573d938185116101ac57805194601f19603f81601f840116011686018681108482111761019a57825285523d8a602087013e5b80519586820192831187841017610188575061017c969798999a5052601784527f6c6f772d6c6576656c2063616c6c2072657665727465640000000000000000006020850152610290565b50169082541617815580f35b634e487b7160e01b8b52604190528a8afd5b634e487b7160e01b8c52604188528c8cfd5b634e487b7160e01b8a52604186528a8afd5b606093610131565b8880fd5b8780fd5b8680fd5b8380fd5b5080fd5b50346101d657816003193601126101d657517f00000000000000000000000000000000000000000000000000000000000000006001600160a01b03168152602090f35b610246565b8390346101d657816003193601126101d65790546001600160a01b03168152602090f35b3461028b57600036600319011261028b576040517f00000000000000000000000000000000000000000000000000000000000000006001600160a01b03168152602090f35b600080fd5b919290156102f257508151156102a4575090565b3b156102ad5790565b60405162461bcd60e51b815260206004820152601d60248201527f416464726573733a2063616c6c20746f206e6f6e2d636f6e74726163740000006044820152606490fd5b8251909150156103055750805190602001fd5b6040519062461bcd60e51b82528160208060048301528251908160248401526000935b82851061034b575050604492506000838284010152601f80199101168101030190fd5b848101820151868601604401529381019385935061032856fea2646970667358221220af2cc7ed5c393aac60ae0bdb0bd370e6906cfa3ad4b15b3cffc703d01606e5da64736f6c6343000813003360a08060405234610021573360805260a1908161002782396080518160380152f35b600080fdfe6080806040526004361015601257600080fd5b600090813560e01c63e78cea9214602857600080fd5b34606757816003193601126067577f00000000000000000000000000000000000000000000000000000000000000006001600160a01b03168152602090f35b5080fdfea2646970667358221220f12bc188de0f6077ad563ab1232b6514b33d0498c9f06cdc2b7a0b97abd9d11464736f6c6343000813003360a08060405234610028573360805261019b908161002e8239608051818181604c015260aa0152f35b600080fdfe608080604052600436101561001357600080fd5b600090813560e01c90816380648b021461007e575063e78cea921461003757600080fd5b3461007b578060031936011261007b576040517f00000000000000000000000000000000000000000000000000000000000000006001600160a01b03168152602090f35b80fd5b90503461016157816003193601126101615763381a479f60e11b81526001600160a01b036020826004817f000000000000000000000000000000000000000000000000000000000000000085165afa9182156101565783926100e8575b6020838360405191168152f35b90915060203d811161014f575b601f8101601f1916820167ffffffffffffffff81118382101761013b5760209183916040528101031261013757518181168103610137576020925090386100db565b8280fd5b634e487b7160e01b85526041600452602485fd5b503d6100f5565b6040513d85823e3d90fd5b5080fdfea2646970667358221220be9f29be5c3741f922943c05683423d619c0e1b6df8711e075a345a42e690b0064736f6c63430008130033",
    "linkReferences": {}
  },
  "methodIdentifiers": {
    "activeOutbox()": "ab5d8943",
    "currentSender()": "70348f3e",
    "inbox()": "fb0e722b",
    "outbox()": "ce11e6ab",
    "relayAs(address,bytes,address)": "fb417a5b"
  },
  "id": 109
}