{
  "abi": [
    {
      "inputs": [],
      "name": "ARBSYS",
      "outputs": [
        {
          "internalType": "address",
          "name": "",
          "type": "address"
        }
      ],
      "stateMutability": "view",
      "type": "function"
    }
  ],
  "bytecode": {
    "object": "0x608080604052346018576075908161001e823930815050f35b600080fdfe6080806040526004361015601257600080fd5b60003560e01c63bf0a12cf14602657600080fd5b6000366003190112603a5780606460209252f35b600080fdfea2646970667358221220986b4b23a8190a01f6ab8cbf7ea66f66783e6846cd60836e7748532e07cccf6e64736f6c63430008130033",
    "linkReferences": {}
  },
  "methodIdentifiers": {
    "ARBSYS()": "bf0a12cf"
  },
  "id": 15
}