{
  "abi": [
    {
      "inputs": [],
      "name": "Factory__FailedDeployment",
      "type": "error"
    },
    {
      "inputs": [
        {
          "internalType": "bytes32",
          "name": "initCodeHash",
          "type": "bytes32"
        },
        {
          "internalType": "bytes32",
          "name": "salt",
          "type": "bytes32"
        }
      ],
      "name": "__calculateDeploymentAddress",
      "outputs": [
        {
          "internalType": "address",
          "name": "",
          "type": "address"
        }
      ],
      "stateMutability": "view",
      "type": "function"
    },
    {
      "inputs": [
        {
          "internalType": "bytes",
          "name": "initCode",
          "type": "bytes"
        },
        {
          "internalType": "bytes32",
          "name": "salt",
          "type": "bytes32"
        }
      ],
      "name": "__deploy",
      "outputs": [
        {
          "internalType": "address",
          "name": "deployment",
          "type": "address"
        }
      ],
      "stateMutability": "nonpayable",
      "type": "function"
    },
    {
      "inputs": [
        {
          "internalType": "bytes",
          "name": "initCode",
          "type": "bytes"
        }
      ],
      "name": "__deploy",
      "outputs": [
        {
          "internalType": "address",
          "name": "deployment",
          "type": "address"
        }
      ],
      "stateMutability": "nonpayable",
      "type": "function"
    }
  ],
  "bytecode": {
    "object": "0x6080806040523461001657610215908161001c8239f35b600080fdfe6080604052600436101561001257600080fd5b60003560e01c80630fe8dcf8146100475780633821254b1461004257633be472a71461003d57600080fd5b61018b565b610120565b3461009d57604036600319011261009d576001600160f81b031960a0523060601b60a15260243560b55260043560d552605560805261010060405260805160a0206040516001600160a01b039091168152602090f35b600080fd5b634e487b7160e01b600052604160045260246000fd5b81601f8201121561009d5780359067ffffffffffffffff9283831161011b5760405193601f8401601f19908116603f011685019081118582101761011b576040528284526020838301011161009d57816000926020809301838601378301015290565b6100a2565b3461009d57604036600319011261009d5760043567ffffffffffffffff811161009d576101519036906004016100b8565b80516001600160a01b039160243591906020016000f516801561017957602090604051908152f35b60405163ef35ca1960e01b8152600490fd5b3461009d57602036600319011261009d5760043567ffffffffffffffff811161009d576101bc9036906004016100b8565b80516001600160a01b03916020016000f016801561017957602090604051908152f3fea26469706673582212207d5b0413ab71261e5682c4a8a6fdcfc2d007156537d0bedef9830f362ed8bbd564736f6c63430008130033",
    "linkReferences": {}
  },
  "methodIdentifiers": {
    "__calculateDeploymentAddress(bytes32,bytes32)": "0fe8dcf8",
    "__deploy(bytes)": "3be472a7",
    "__deploy(bytes,bytes32)": "3821254b"
  },
  "id": 306
}