{
  "abi": [
    {
      "inputs": [
        {
          "internalType": "string",
          "name": "name",
          "type": "string"
        },
        {
          "internalType": "string",
          "name": "symbol",
          "type": "string"
        },
        {
          "internalType": "string",
          "name": "baseURI",
          "type": "string"
        }
      ],
      "stateMutability": "nonpayable",
      "type": "constructor"
    },
    {
      "inputs": [],
      "name": "AddressUtils__NotContract",
      "type": "error"
    },
    {
      "inputs": [],
      "name": "ERC165Base__InvalidInterfaceId",
      "type": "error"
    },
    {
      "inputs": [],
      "name": "ERC721Base__BalanceQueryZeroAddress",
      "type": "error"
    },
    {
      "inputs": [],
      "name": "ERC721Base__ERC721ReceiverNotImplemented",
      "type": "error"
    },
    {
      "inputs": [],
      "name": "ERC721Base__InvalidOwner",
      "type": "error"
    },
    {
      "inputs": [],
      "name": "ERC721Base__MintToZeroAddress",
      "type": "error"
    },
    {
      "inputs": [],
      "name": "ERC721Base__NonExistentToken",
      "type": "error"
    },
    {
      "inputs": [],
      "name": "ERC721Base__NotOwnerOrApproved",
      "type": "error"
    },
    {
      "inputs": [],
      "name": "ERC721Base__NotTokenOwner",
      "type": "error"
    },
    {
      "inputs": [],
      "name": "ERC721Base__SelfApproval",
      "type": "error"
    },
    {
      "inputs": [],
      "name": "ERC721Base__TokenAlreadyMinted",
      "type": "error"
    },
    {
      "inputs": [],
      "name": "ERC721Base__TransferToZeroAddress",
      "type": "error"
    },
    {
      "inputs": [],
      "name": "ERC721Metadata__NonExistentToken",
      "type": "error"
    },
    {
      "inputs": [],
      "name": "EnumerableMap__IndexOutOfBounds",
      "type": "error"
    },
    {
      "inputs": [],
      "name": "EnumerableMap__NonExistentKey",
      "type": "error"
    },
    {
      "inputs": [],
      "name": "EnumerableSet__IndexOutOfBounds",
      "type": "error"
    },
    {
      "inputs": [],
      "name": "SolidStateERC721__PayableApproveNotSupported",
      "type": "error"
    },
    {
      "inputs": [],
      "name": "SolidStateERC721__PayableTransferNotSupported",
      "type": "error"
    },
    {
      "anonymous": false,
      "inputs": [
        {
          "indexed": true,
          "internalType": "address",
          "name": "owner",
          "type": "address"
        },
        {
          "indexed": true,
          "internalType": "address",
          "name": "operator",
          "type": "address"
        },
        {
          "indexed": true,
          "internalType": "uint256",
          "name": "tokenId",
          "type": "uint256"
        }
      ],
      "name": "Approval",
      "type": "event"
    },
    {
      "anonymous": false,
      "inputs": [
        {
          "indexed": true,
          "internalType": "address",
          "name": "owner",
          "type": "address"
        },
        {
          "indexed": true,
          "internalType": "address",
          "name": "operator",
          "type": "address"
        },
        {
          "indexed": false,
          "internalType": "bool",
          "name": "approved",
          "type": "bool"
        }
      ],
      "name": "ApprovalForAll",
      "type": "event"
    },
    {
      "anonymous": false,
      "inputs": [
        {
          "indexed": true,
          "internalType": "address",
          "name": "from",
          "type": "address"
        },
        {
          "indexed": true,
          "internalType": "address",
          "name": "to",
          "type": "address"
        },
        {
          "indexed": true,
          "internalType": "uint256",
          "name": "tokenId",
          "type": "uint256"
        }
      ],
      "name": "Transfer",
      "type": "event"
    },
    {
      "inputs": [
        {
          "internalType": "address",
          "name": "operator",
          "type": "address"
        },
        {
          "internalType": "uint256",
          "name": "tokenId",
          "type": "uint256"
        }
      ],
      "name": "approve",
      "outputs": [],
      "stateMutability": "payable",
      "type": "function"
    },
    {
      "inputs": [
        {
          "internalType": "address",
          "name": "account",
          "type": "address"
        }
      ],
      "name": "balanceOf",
      "outputs": [
        {
          "internalType": "uint256",
          "name": "",
          "type": "uint256"
        }
      ],
      "stateMutability": "view",
      "type": "function"
    },
    {
      "inputs": [
        {
          "internalType": "uint256",
          "name": "tokenId",
          "type": "uint256"
        }
      ],
      "name": "burn",
      "outputs": [],
      "stateMutability": "nonpayable",
      "type": "function"
    },
    {
      "inputs": [
        {
          "internalType": "uint256",
          "name": "tokenId",
          "type": "uint256"
        }
      ],
      "name": "getApproved",
      "outputs": [
        {
          "internalType": "address",
          "name": "",
          "type": "address"
        }
      ],
      "stateMutability": "view",
      "type": "function"
    },
    {
      "inputs": [
        {
          "internalType": "address",
          "name": "account",
          "type": "address"
        },
        {
          "internalType": "address",
          "name": "operator",
          "type": "address"
        }
      ],
      "name": "isApprovedForAll",
      "outputs": [
        {
          "internalType": "bool",
          "name": "",
          "type": "bool"
        }
      ],
      "stateMutability": "view",
      "type": "function"
    },
    {
      "inputs": [
        {
          "internalType": "address",
          "name": "account",
          "type": "address"
        },
        {
          "internalType": "uint256",
          "name": "tokenId",
          "type": "uint256"
        }
      ],
      "name": "mint",
      "outputs": [],
      "stateMutability": "nonpayable",
      "type": "function"
    },
    {
      "inputs": [],
      "name": "name",
      "outputs": [
        {
          "internalType": "string",
          "name": "",
          "type": "string"
        }
      ],
      "stateMutability": "view",
      "type": "function"
    },
    {
      "inputs": [
        {
          "internalType": "uint256",
          "name": "tokenId",
          "type": "uint256"
        }
      ],
      "name": "ownerOf",
      "outputs": [
        {
          "internalType": "address",
          "name": "",
          "type": "address"
        }
      ],
      "stateMutability": "view",
      "type": "function"
    },
    {
      "inputs": [
        {
          "internalType": "address",
          "name": "from",
          "type": "address"
        },
        {
          "internalType": "address",
          "name": "to",
          "type": "address"
        },
        {
          "internalType": "uint256",
          "name": "tokenId",
          "type": "uint256"
        }
      ],
      "name": "safeTransferFrom",
      "outputs": [],
      "stateMutability": "payable",
      "type": "function"
    },
    {
      "inputs": [
        {
          "internalType": "address",
          "name": "from",
          "type": "address"
        },
        {
          "internalType": "address",
          "name": "to",
          "type": "address"
        },
        {
          "internalType": "uint256",
          "name": "tokenId",
          "type": "uint256"
        },
        {
          "internalType": "bytes",
          "name": "data",
          "type": "bytes"
        }
      ],
      "name": "safeTransferFrom",
      "outputs": [],
      "stateMutability": "payable",
      "type": "function"
    },
    {
      "inputs": [
        {
          "internalType": "address",
          "name": "operator",
          "type": "address"
        },
        {
          "internalType": "bool",
          "name": "status",
          "type": "bool"
        }
      ],
      "name": "setApprovalForAll",
      "outputs": [],
      "stateMutability": "nonpayable",
      "type": "function"
    },
    {
      "inputs": [
        {
          "internalType": "bytes4",
          "name": "interfaceId",
          "type": "bytes4"
        }
      ],
      "name": "supportsInterface",
      "outputs": [
        {
          "internalType": "bool",
          "name": "",
          "type": "bool"
        }
      ],
      "stateMutability": "view",
      "type": "function"
    },
    {
      "inputs": [],
      "name": "symbol",
      "outputs": [
        {
          "internalType": "string",
          "name": "",
          "type": "string"
        }
      ],
      "stateMutability": "view",
      "type": "function"
    },
    {
      "inputs": [
        {
          "internalType": "uint256",
          "name": "index",
          "type": "uint256"
        }
      ],
      "name": "tokenByIndex",
      "outputs": [
        {
          "internalType": "uint256",
          "name": "",
          "type": "uint256"
        }
      ],
      "stateMutability": "view",
      "type": "function"
    },
    {
      "inputs": [
        {
          "internalType": "address",
          "name": "owner",
          "type": "address"
        },
        {
          "internalType": "uint256",
          "name": "index",
          "type": "uint256"
        }
      ],
      "name": "tokenOfOwnerByIndex",
      "outputs": [
        {
          "internalType": "uint256",
          "name": "",
          "type": "uint256"
        }
      ],
      "stateMutability": "view",
      "type": "function"
    },
    {
      "inputs": [
        {
          "internalType": "uint256",
          "name": "tokenId",
          "type": "uint256"
        }
      ],
      "name": "tokenURI",
      "outputs": [
        {
          "internalType": "string",
          "name": "",
          "type": "string"
        }
      ],
      "stateMutability": "view",
      "type": "function"
    },
    {
      "inputs": [],
      "name": "totalSupply",
      "outputs": [
        {
          "internalType": "uint256",
          "name": "",
          "type": "uint256"
        }
      ],
      "stateMutability": "view",
      "type": "function"
    },
    {
      "inputs": [
        {
          "internalType": "address",
          "name": "from",
          "type": "address"
        },
        {
          "internalType": "address",
          "name": "to",
          "type": "address"
        },
        {
          "internalType": "uint256",
          "name": "tokenId",
          "type": "uint256"
        }
      ],
      "name": "transferFrom",
      "outputs": [],
      "stateMutability": "payable",
      "type": "function"
    }
  ],
  "bytecode": {
    "object": "0x608060405234620005075762001d6e803803806200001d816200050c565b9283398101606082820312620005075781516001600160401b0392908381116200050757826200004f91830162000532565b91602091828101518581116200050757826200006d91830162000532565b916040820151868111620005075762000087920162000532565b9383519181831162000347577f99574a7094154bb123ae6ae102096f0bf9679b85a5cd1e727aaa0ae5f132e6b18054936001968786811c96168015620004fc575b8787101462000326578190601f96878111620004a6575b5087908783116001146200043e5760009262000432575b5050600019600383901b1c191690871b1790555b805182811162000347577f99574a7094154bb123ae6ae102096f0bf9679b85a5cd1e727aaa0ae5f132e6b2918254908782811c9216801562000427575b8783101462000326578186849311620003d1575b50869086831160011462000369576000926200035d575b5050600019600383901b1c191690861b1790555b845190811162000347577f99574a7094154bb123ae6ae102096f0bf9679b85a5cd1e727aaa0ae5f132e6b39182548581811c911680156200033c575b858210146200032657818111620002db575b50839082116001146200026357819060008051602062001d4e833981519152959660009262000257575b5050600019600383901b1c191690851b1790555b6301ffc9a760e01b6000525260406000209060ff199181838254161790556380ac58cd60e01b6000526040600020918254161790556040516117a99081620005a58239f35b015190503880620001fe565b601f1982169583600052846000209660005b818110620002c55750918697918460008051602062001d4e83398151915298959410620002ab575b505050811b01905562000212565b015160001960f88460031b161c191690553880806200029d565b8383015189559787019792860192860162000275565b83600052846000208280850160051c8201928786106200031c575b0160051c019086905b8281106200030f575050620001d4565b60008155018690620002ff565b92508192620002f6565b634e487b7160e01b600052602260045260246000fd5b90607f1690620001c2565b634e487b7160e01b600052604160045260246000fd5b01519050388062000172565b90889350601f1983169185600052886000209260005b8a828210620003ba5750508411620003a0575b505050811b01905562000186565b015160001960f88460031b161c1916905538808062000392565b8385015186558c979095019493840193016200037f565b90915083600052866000208680850160051c8201928986106200041d575b918a91869594930160051c01915b8281106200040d5750506200015b565b600081558594508a9101620003fd565b92508192620003ef565b91607f169162000147565b015190503880620000f6565b90899350601f1983169185600052896000209260005b8b8282106200048f575050841162000475575b505050811b0190556200010a565b015160001960f88460031b161c1916905538808062000467565b8385015186558d9790950194938401930162000454565b90915083600052876000208780850160051c8201928a8610620004f2575b918b91869594930160051c01915b828110620004e2575050620000df565b600081558594508b9101620004d2565b92508192620004c4565b95607f1695620000c8565b600080fd5b6040519190601f01601f191682016001600160401b038111838210176200034757604052565b919080601f84011215620005075782516001600160401b038111620003475760209062000568601f8201601f191683016200050c565b92818452828287010111620005075760005b8181106200059057508260009394955001015290565b85810183015184820184015282016200057a56fe6080604052600436101561001257600080fd5b60003560e01c806301ffc9a71461013757806306fdde0314610132578063081812fc1461012d578063095ea7b31461012857806318160ddd1461012357806323b872dd1461011e5780632f745c591461011957806340c10f191461011457806342842e0e1461010f57806342966c681461010a5780634f6ccce7146101055780636352211e1461010057806370a08231146100fb57806395d89b41146100f6578063a22cb465146100f1578063b88d4fde146100ec578063c87b56dd146100e75763e985e9c5146100e257600080fd5b610af3565b610ac0565b610a3c565b61094c565b610884565b610836565b610818565b6107c6565b610668565b61062e565b610589565b61052f565b6104f4565b610494565b610376565b61031a565b610211565b610153565b6001600160e01b031981160361014e57565b600080fd5b3461014e57602036600319011261014e576004356101708161013c565b63ffffffff60e01b166000527ffc606c433378e3a7e0a6a531deac289b66caa1b4aa8554fd4ab2c6f1570f92d8602052602060ff604060002054166040519015158152f35b60005b8381106101c85750506000910152565b81810151838201526020016101b8565b906020916101f1815180928185528580860191016101b5565b601f01601f1916010190565b90602061020e9281815201906101d8565b90565b3461014e576000806003193601126103175760405190807f99574a7094154bb123ae6ae102096f0bf9679b85a5cd1e727aaa0ae5f132e6b190815490610256826112b8565b808652926001928084169081156102ea5750600114610290575b61028c86610280818803826109fe565b604051918291826101fd565b0390f35b815292507f9da0b376ea5eac987e00ddf645ea1acba63ab64b37f9d745b363c22385ad39cb5b8284106102d25750505081016020016102808261028c38610270565b805460208587018101919091529093019281016102b6565b905086955061028c9693506020925061028094915060ff191682840152151560051b820101929338610270565b80fd5b3461014e57602036600319011261014e576020610338600435610c6c565b6040516001600160a01b039091168152f35b600435906001600160a01b038216820361014e57565b602435906001600160a01b038216820361014e57565b604036600319011261014e5761038a61034a565b6024359061039734611191565b6103a082610ba2565b6001600160a01b03808316929082169183831461048257823314159081610444575b506104325761040b906103ec85600052600080516020611714833981519152602052604060002090565b80546001600160a01b0319166001600160a01b03909216919091179055565b7f8c5be1e5ebec7d5bd14f71427d1e84f3dd0314c0f7b2291e5b200ac8c7c3b925600080a4005b604051632f5de44f60e01b8152600490fd5b61047c91506104716104789161045a3391610b30565b9060018060a01b0316600052602052604060002090565b5460ff1690565b1590565b386103c2565b60405163424a22cb60e01b8152600490fd5b3461014e57600036600319011261014e57602060008051602061173483398151915254604051908152f35b606090600319011261014e576001600160a01b0390600435828116810361014e5791602435908116810361014e579060443590565b6104fd366104bf565b903461051d5761050d8233610fed565b156104325761051b9261105b565b005b6040516322b1813960e01b8152600490fd5b3461014e57604036600319011261014e5761054861034a565b61055460243591610b69565b80548210156105775760209161056991610dad565b90546040519160031b1c8152f35b60405163e637bf3b60e01b8152600490fd5b3461014e57604036600319011261014e576105a261034a565b602435906001600160a01b03811690811561061c576105c083610cb4565b61060a57826105d16105d692610b69565b610dc5565b506105e18183610cea565b5060007fddf252ad1be2c89b69c2b068fc378daa952ba7f163c4a11628f55a4df523b3ef8180a4005b604051630d86bb7b60e31b8152600490fd5b6040516311f2988d60e11b8152600490fd5b610637366104bf565b60405191602083019383851067ffffffffffffffff8611176106635761051b946040526000845261114d565b6109cc565b3461014e57602036600319011261014e5760043561068581610ba2565b90600080928282527f99574a7094154bb123ae6ae102096f0bf9679b85a5cd1e727aaa0ae5f132e6b460205281604081206106c081546112b8565b80610771575b5050506106db836106d683610b69565b610f50565b506106e583610e8b565b5061071a61070a84600052600080516020611714833981519152602052604060002090565b80546001600160a01b0319169055565b6001600160a01b03168282827f8c5be1e5ebec7d5bd14f71427d1e84f3dd0314c0f7b2291e5b200ac8c7c3b9258280a47fddf252ad1be2c89b69c2b068fc378daa952ba7f163c4a11628f55a4df523b3ef8280a480f35b601f81116001146107875750555b8138806106c6565b6107c192506107b1906001601f6107a385600052602060002090565b920160051c8201910161154f565b6000908082528160208120915555565b61077f565b3461014e57602036600319011261014e5760043560008051602061173483398151915254811015610806576107fc602091610c21565b5054604051908152f35b60405163022fd82760e31b8152600490fd5b3461014e57602036600319011261014e576020610338600435610ba2565b3461014e57602036600319011261014e5761084f61034a565b6001600160a01b0381161561087257610869602091610b69565b54604051908152f35b604051630810ff9760e41b8152600490fd5b3461014e576000806003193601126103175760405190807f99574a7094154bb123ae6ae102096f0bf9679b85a5cd1e727aaa0ae5f132e6b2908154906108c9826112b8565b808652926001928084169081156102ea57506001146108f25761028c86610280818803826109fe565b815292507f4d5a81d91ab5d0eb928391f3fb432d708f1a8a13471720d8e842441f4faa79d65b8284106109345750505081016020016102808261028c38610270565b80546020858701810191909152909301928101610918565b3461014e57604036600319011261014e5761096561034a565b60243580151580910361014e576001600160a01b03821691338314610482576109919061045a33610b30565b60ff1981541660ff83161790556040519081527f17307eab39ab6107e8899845ad3d59bd9653f200f220920489ca2b5937696c3160203392a3005b634e487b7160e01b600052604160045260246000fd5b6040810190811067ffffffffffffffff82111761066357604052565b90601f8019910116810190811067ffffffffffffffff82111761066357604052565b67ffffffffffffffff811161066357601f01601f191660200190565b608036600319011261014e57610a5061034a565b610a58610360565b6064359167ffffffffffffffff831161014e573660238401121561014e57826004013591610a8583610a20565b92610a9360405194856109fe565b808452366024828701011161014e57602081600092602461051b980183880137850101526044359161114d565b3461014e57602036600319011261014e5761028c610adf60043561148c565b6040519182916020835260208301906101d8565b3461014e57604036600319011261014e57602060ff610b24610b1361034a565b61045a610b1e610360565b91610b30565b54166040519015158152f35b6001600160a01b031660009081527f3c7bf052874fa81625121783266a03507bd2cd48b16e571c01a04e8dd3fb07aa6020526040902090565b6001600160a01b031660009081527f3c7bf052874fa81625121783266a03507bd2cd48b16e571c01a04e8dd3fb07a86020526040902090565b6000526000805160206117548339815191526020526040600020548015610bf957610bd09060001901610c21565b50600101546001600160a01b03168015610be75790565b604051637e1a7d8b60e01b8152600490fd5b604051633d547ec560e21b8152600490fd5b634e487b7160e01b600052603260045260246000fd5b6000805160206117348339815191528054821015610c675760005260011b7f709a16c9caeafb61409212be896356f281c91d5c5b5cccb959477d20bb6240fb0190600090565b610c0b565b610c7581610cb4565b15610ca257600090815260008051602061171483398151915260205260409020546001600160a01b031690565b60405163c1b843ef60e01b8152600490fd5b600052600080516020611754833981519152602052604060002054151590565b634e487b7160e01b600052600060045260246000fd5b90816000526000805160206117548339815191526020526040600020548015600014610d935750604051610d1d816109e2565b82815260208101918252600080516020611734833981519152908154600160401b81101561066357806001610d5492018455610c21565b919091610d8e57610d8893600191518355519101555491600052600080516020611754833981519152602052604060002090565b55600190565b610cd4565b6001919250610da59060001901610c21565b500155600090565b8054821015610c675760005260206000200190600090565b91906000926001810190826000528160205260406000205415610de757505050565b80919293945054600160401b81101561066357610e25610e0e826001879401855584610dad565b819391549060031b91821b91600019901b19161790565b90555491600052602052604060002055600190565b634e487b7160e01b600052603160045260246000fd5b60008051602061173483398151915280548015610e86576000190190610e7582610c21565b610d8e576001816000809355015555565b610e3a565b60008181526000805160206117548339815191526020526040902054908115610f495760001990610ed8610ecf836000805160206117348339815191525401610c21565b50928401610c21565b939093610d8e57610f108385610d889560009703610f36575b5054600052600080516020611754833981519152602052604060002090565b55610f19610e50565b600052600080516020611754833981519152602052604060002090565b8154815560018083015491015538610ef1565b5050600090565b919060009260009160018201918184528260205260408420549081610f77575b5050505050565b9091929394955060001991610f8f8383540183610dad565b90549060031b1c80610fa6610e0e86850186610dad565b9055865284602052604086205580548015610e8657820191610fc88383610dad565b909182549160031b1b1916905555825260205260408120556001903880808080610f70565b610ff682610cb4565b15610ca25761100482610ba2565b6001600160a01b038281168282168114949091908515611043575b505050821561102d57505090565b60ff92509061045a61103e92610b30565b541690565b6110509192939550610c6c565b16149138808061101f565b61106483610ba2565b6001600160a01b0390811692818316929183850361113b578116938415611129576110a3866105d160009461109d836106d68199610b69565b50610b69565b506110ae8584610cea565b506110d083600052600080516020611714833981519152602052604060002090565b80546001600160a01b03191690557f8c5be1e5ebec7d5bd14f71427d1e84f3dd0314c0f7b2291e5b200ac8c7c3b9258280a47fddf252ad1be2c89b69c2b068fc378daa952ba7f163c4a11628f55a4df523b3ef600080a4565b6040516340311a0960e01b8152600490fd5b604051630f2db4ad60e01b8152600490fd5b9291903461051d5761115f8233610fed565b15610432578361117383836111789761105b565b611223565b1561117f57565b604051639ff10cdd60e01b8152600490fd5b61119757565b60405163b56d7c1b60e01b8152600490fd5b604051906060820182811067ffffffffffffffff82111761066357604052603282527131b2b4bb32b91034b6b83632b6b2b73a32b960711b6040837f4552433732313a207472616e7366657220746f206e6f6e20455243373231526560208201520152565b9081602091031261014e575161020e8161013c565b92813b156112af5761128161128f93611273604051938492630a85bd0160e11b9889602086015233602486015260018060a01b0316604485015260648401526080608484015260a48301906101d8565b03601f1981018352826109fe565b6112896111a9565b9161157c565b6112aa63ffffffff60e01b916020808251830101910161120e565b161490565b50505050600190565b90600182811c921680156112e8575b60208310146112d257565b634e487b7160e01b600052602260045260246000fd5b91607f16916112c7565b604051906000827f99574a7094154bb123ae6ae102096f0bf9679b85a5cd1e727aaa0ae5f132e6b3918254611326816112b8565b808452936001918083169081156113ae5750600114611350575b505061134e925003836109fe565b565b600090815291507f67cc5f5749495f491c1f67fb661125e4e485874b321951d3c0fa07bc42f111ec5b848310611393575061134e93505081016020013880611340565b81935090816020925483858a01015201910190918592611379565b9150506020925061134e94915060ff191682840152151560051b8201013880611340565b90604051918260008254926113e6846112b8565b908184526001948581169081600014611452575060011461140f57505061134e925003836109fe565b9093915060005260209081600020936000915b81831061143a57505061134e93508201013880611340565b85548884018501529485019487945091830191611422565b91505061134e94506020925060ff191682840152151560051b8201013880611340565b90611488602092828151948592016101b5565b0190565b61149861047882610cb4565b61153e576114d76114d2826000527f99574a7094154bb123ae6ae102096f0bf9679b85a5cd1e727aaa0ae5f132e6b4602052604060002090565b6113d2565b6114df6112f2565b918251156000146114f05750905090565b81511561151957506115139161127361020e926040519485936020850190611475565b90611475565b61020e91509161127361152e61151394611648565b6040519485936020850190611475565b604051624705a760e71b8152600490fd5b81811061155a575050565b6000815560010161154f565b634e487b7160e01b600052601160045260246000fd5b9190606092803b156116035781600092918360208194519301915af1913d156115fd57503d916115ab83610a20565b926115b960405194856109fe565b83523d6000602085013e5b156115cd575090565b8151156115dd5750805190602001fd5b60405162461bcd60e51b81529081906115f990600483016101fd565b0390fd5b916115c4565b604051632270d6bf60e21b8152600490fd5b60001981019190821161162457565b611566565b603001908160301161162457565b908151811015610c67570160200190565b80156116f557806000908282935b6116dd575061166483610a20565b9261167260405194856109fe565b80845281601f1961168283610a20565b013660208701375b6116945750505090565b61169d90611615565b90600a906116c86116b86116b2848406611629565b60ff1690565b60f81b6001600160f81b03191690565b841a6116d48487611637565b5304908161168a565b926000198114611624576001600a9101930480611656565b50604051611702816109e2565b60018152600360fc1b60208201529056fe3c7bf052874fa81625121783266a03507bd2cd48b16e571c01a04e8dd3fb07a93c7bf052874fa81625121783266a03507bd2cd48b16e571c01a04e8dd3fb07a63c7bf052874fa81625121783266a03507bd2cd48b16e571c01a04e8dd3fb07a7a2646970667358221220f43948d49ad7f6244d7b86d523e3b1ee526b46843b6397a0997c3f56eb95295f64736f6c63430008130033fc606c433378e3a7e0a6a531deac289b66caa1b4aa8554fd4ab2c6f1570f92d8",
    "linkReferences": {}
  },
  "methodIdentifiers": {
    "approve(address,uint256)": "095ea7b3",
    "balanceOf(address)": "70a08231",
    "burn(uint256)": "42966c68",
    "getApproved(uint256)": "081812fc",
    "isApprovedForAll(address,address)": "e985e9c5",
    "mint(address,uint256)": "40c10f19",
    "name()": "06fdde03",
    "ownerOf(uint256)": "6352211e",
    "safeTransferFrom(address,address,uint256)": "42842e0e",
    "safeTransferFrom(address,address,uint256,bytes)": "b88d4fde",
    "setApprovalForAll(address,bool)": "a22cb465",
    "supportsInterface(bytes4)": "01ffc9a7",
    "symbol()": "95d89b41",
    "tokenByIndex(uint256)": "4f6ccce7",
    "tokenOfOwnerByIndex(address,uint256)": "2f745c59",
    "tokenURI(uint256)": "c87b56dd",
    "totalSupply()": "18160ddd",
    "transferFrom(address,address,uint256)": "23b872dd"
  },
  "id": 440
}