{
  "abi": [
    {
      "inputs": [
        {
          "internalType": "string",
          "name": "baseURI",
          "type": "string"
        }
      ],
      "stateMutability": "nonpayable",
      "type": "constructor"
    },
    {
      "inputs": [],
      "name": "ERC165Base__InvalidInterfaceId",
      "type": "error"
    },
    {
      "anonymous": false,
      "inputs": [
        {
          "indexed": false,
          "internalType": "string",
          "name": "value",
          "type": "string"
        },
        {
          "indexed": true,
          "internalType": "uint256",
          "name": "tokenId",
          "type": "uint256"
        }
      ],
      "name": "URI",
      "type": "event"
    },
    {
      "inputs": [
        {
          "internalType": "bytes4",
          "name": "interfaceId",
          "type": "bytes4"
        }
      ],
      "name": "supportsInterface",
      "outputs": [
        {
          "internalType": "bool",
          "name": "",
          "type": "bool"
        }
      ],
      "stateMutability": "view",
      "type": "function"
    },
    {
      "inputs": [
        {
          "internalType": "uint256",
          "name": "tokenId",
          "type": "uint256"
        }
      ],
      "name": "uri",
      "outputs": [
        {
          "internalType": "string",
          "name": "",
          "type": "string"
        }
      ],
      "stateMutability": "view",
      "type": "function"
    }
  ],
  "bytecode": {
    "object": "0x608060405234610214576107788038038061001981610219565b92833981019060209081818403126102145780516001600160401b0391828211610214570191601f8481850112156102145783518381116101ea57601f199461006782840187168501610219565b9682885284838301011161021457839060005b8381106102005750506000918701015284519283116101ea577f4281b61aefbe70b3d3f684b428efca5f33077bc240e76f2808f9177c307617f4948554926001938481811c911680156101e0575b828210146101ca57838111610184575b5080928511600114610120575083945090839291600094610115575b50501b916000199060031b1c19161790555b604051610539908161023f8239f35b0151925038806100f4565b9294849081168760005284600020946000905b8883831061016a5750505010610151575b505050811b019055610106565b015160001960f88460031b161c19169055388080610144565b858701518855909601959485019487935090810190610133565b87600052816000208480880160051c8201928489106101c1575b0160051c019085905b8281106101b55750506100d8565b600081550185906101a7565b9250819261019e565b634e487b7160e01b600052602260045260246000fd5b90607f16906100c8565b634e487b7160e01b600052604160045260246000fd5b81810183015189820184015285920161007a565b600080fd5b6040519190601f01601f191682016001600160401b038111838210176101ea5760405256fe608080604052600436101561001357600080fd5b600090813560e01c90816301ffc9a7146100875750630e89341c1461003757600080fd5b3461008457602036600319011261008457610053600435610147565b6040805180926020825261007681518092816020860152602086860191016100ec565b601f01601f19168101030190f35b80fd5b9050346100e85760203660031901126100e85760043563ffffffff60e01b81168091036100e45760408360ff92602095527ffc606c433378e3a7e0a6a531deac289b66caa1b4aa8554fd4ab2c6f1570f92d8855220541615158152f35b8280fd5b5080fd5b60005b8381106100ff5750506000910152565b81810151838201526020016100ef565b90601f8019910116810190811067ffffffffffffffff82111761013157604052565b634e487b7160e01b600052604160045260246000fd5b6000908082526020907f4281b61aefbe70b3d3f684b428efca5f33077bc240e76f2808f9177c307617f582526040832060405193809282549260019484861c918686169586156103d6575b88841087146103c257838a52888a01968a9392918a9082156103a4575050600114610366575b506101c59250038761010f565b60405193827f4281b61aefbe70b3d3f684b428efca5f33077bc240e76f2808f9177c307617f49182549485821c9382871696871561035c575b8a8610881461034857858a528a8a01978a95949392918c9082156103265750506001146102cd575b5050506102359250038561010f565b835161024357505050505090565b859293949551151560001461029157509161028e93916102826102739694604051978895518092888801906100ec565b840191518093868401906100ec565b0103808452018261010f565b90565b6102b995935061028e9492506102a6906103fc565b90604051958693518092868601906100ec565b8201610282825180938680850191016100ec565b8152899250907f0d8e6ea8b1f8faf40277fd5ec504900241304ad48b0fd05b7ebcd421842ca6b95b85831061030e5750506102359350820101388080610226565b8054838b018501528994508a939092019181016102f5565b93509450505061023594915060ff19168652151560051b820101388080610226565b634e487b7160e01b83526022600452602483fd5b94607f16946101fe565b915050835286868085208786915b85831061038b5750506101c59350820101386101b8565b80919294505483858d0101520191018790878a93610374565b60ff191689526101c595151560051b85010192503891506101b89050565b634e487b7160e01b86526022600452602486fd5b92607f1692610192565b67ffffffffffffffff811161013157601f01601f191660200190565b80156104d45780816000925b6104ba5750610416826103e0565b91610424604051938461010f565b80835281601f19610434836103e0565b013660208601375b61044557505090565b906000198201908282116104a4578192600a9260309084840682018092116104a4578651111561048e5760f81b6001600160f81b03191660001a908501601f015304908161043c565b634e487b7160e01b600052603260045260246000fd5b634e487b7160e01b600052601160045260246000fd5b909160001981146104a4576001019190600a900480610408565b506040516040810181811067ffffffffffffffff8211176101315760405260018152600360fc1b60208201529056fea264697066735822122029dfae3a52db64a2581e675f3d5d3bbd6a4ad51b8fc95c3106c41f2d0b8c030064736f6c63430008130033",
    "linkReferences": {}
  },
  "methodIdentifiers": {
    "supportsInterface(bytes4)": "01ffc9a7",
    "uri(uint256)": "0e89341c"
  },
  "id": 380
}