{
  "abi": [
    {
      "inputs": [
        {
          "internalType": "address",
          "name": "mercuryBaseAddress",
          "type": "address"
        },
        {
          "internalType": "string",
          "name": "metadataBaseURI",
          "type": "string"
        }
      ],
      "stateMutability": "nonpayable",
      "type": "constructor"
    },
    {
      "anonymous": false,
      "inputs": [
        {
          "indexed": true,
          "internalType": "address",
          "name": "account",
          "type": "address"
        },
        {
          "indexed": true,
          "internalType": "address",
          "name": "operator",
          "type": "address"
        },
        {
          "indexed": false,
          "internalType": "bool",
          "name": "approved",
          "type": "bool"
        }
      ],
      "name": "ApprovalForAll",
      "type": "event"
    },
    {
      "anonymous": false,
      "inputs": [
        {
          "indexed": true,
          "internalType": "address",
          "name": "operator",
          "type": "address"
        },
        {
          "indexed": true,
          "internalType": "address",
          "name": "from",
          "type": "address"
        },
        {
          "indexed": true,
          "internalType": "address",
          "name": "to",
          "type": "address"
        },
        {
          "indexed": false,
          "internalType": "uint256[]",
          "name": "ids",
          "type": "uint256[]"
        },
        {
          "indexed": false,
          "internalType": "uint256[]",
          "name": "values",
          "type": "uint256[]"
        }
      ],
      "name": "TransferBatch",
      "type": "event"
    },
    {
      "anonymous": false,
      "inputs": [
        {
          "indexed": true,
          "internalType": "address",
          "name": "operator",
          "type": "address"
        },
        {
          "indexed": true,
          "internalType": "address",
          "name": "from",
          "type": "address"
        },
        {
          "indexed": true,
          "internalType": "address",
          "name": "to",
          "type": "address"
        },
        {
          "indexed": false,
          "internalType": "uint256",
          "name": "id",
          "type": "uint256"
        },
        {
          "indexed": false,
          "internalType": "uint256",
          "name": "value",
          "type": "uint256"
        }
      ],
      "name": "TransferSingle",
      "type": "event"
    },
    {
      "anonymous": false,
      "inputs": [
        {
          "indexed": false,
          "internalType": "string",
          "name": "value",
          "type": "string"
        },
        {
          "indexed": true,
          "internalType": "uint256",
          "name": "id",
          "type": "uint256"
        }
      ],
      "name": "URI",
      "type": "event"
    },
    {
      "inputs": [
        {
          "internalType": "address",
          "name": "account",
          "type": "address"
        },
        {
          "internalType": "uint256",
          "name": "id",
          "type": "uint256"
        }
      ],
      "name": "balanceOf",
      "outputs": [
        {
          "internalType": "uint256",
          "name": "",
          "type": "uint256"
        }
      ],
      "stateMutability": "view",
      "type": "function"
    },
    {
      "inputs": [
        {
          "internalType": "address[]",
          "name": "accounts",
          "type": "address[]"
        },
        {
          "internalType": "uint256[]",
          "name": "ids",
          "type": "uint256[]"
        }
      ],
      "name": "balanceOfBatch",
      "outputs": [
        {
          "internalType": "uint256[]",
          "name": "",
          "type": "uint256[]"
        }
      ],
      "stateMutability": "view",
      "type": "function"
    },
    {
      "inputs": [
        {
          "internalType": "address",
          "name": "from",
          "type": "address"
        },
        {
          "internalType": "uint256[]",
          "name": "ids",
          "type": "uint256[]"
        },
        {
          "internalType": "uint256[]",
          "name": "amounts",
          "type": "uint256[]"
        }
      ],
      "name": "burn",
      "outputs": [],
      "stateMutability": "nonpayable",
      "type": "function"
    },
    {
      "inputs": [
        {
          "internalType": "address",
          "name": "account",
          "type": "address"
        },
        {
          "internalType": "address",
          "name": "operator",
          "type": "address"
        }
      ],
      "name": "isApprovedForAll",
      "outputs": [
        {
          "internalType": "bool",
          "name": "",
          "type": "bool"
        }
      ],
      "stateMutability": "view",
      "type": "function"
    },
    {
      "inputs": [
        {
          "internalType": "address",
          "name": "account",
          "type": "address"
        },
        {
          "internalType": "uint256",
          "name": "id",
          "type": "uint256"
        },
        {
          "internalType": "uint256",
          "name": "amount",
          "type": "uint256"
        },
        {
          "internalType": "bytes",
          "name": "data",
          "type": "bytes"
        }
      ],
      "name": "mint",
      "outputs": [],
      "stateMutability": "nonpayable",
      "type": "function"
    },
    {
      "inputs": [
        {
          "internalType": "address",
          "name": "to",
          "type": "address"
        },
        {
          "internalType": "uint256[]",
          "name": "ids",
          "type": "uint256[]"
        },
        {
          "internalType": "uint256[]",
          "name": "amounts",
          "type": "uint256[]"
        },
        {
          "internalType": "bytes",
          "name": "data",
          "type": "bytes"
        }
      ],
      "name": "mintBatch",
      "outputs": [],
      "stateMutability": "nonpayable",
      "type": "function"
    },
    {
      "inputs": [
        {
          "internalType": "address",
          "name": "player",
          "type": "address"
        },
        {
          "internalType": "uint256[]",
          "name": "ids",
          "type": "uint256[]"
        }
      ],
      "name": "playTestNuke",
      "outputs": [],
      "stateMutability": "nonpayable",
      "type": "function"
    },
    {
      "inputs": [
        {
          "internalType": "string",
          "name": "metadataURI",
          "type": "string"
        }
      ],
      "name": "registerMetadataURI",
      "outputs": [],
      "stateMutability": "nonpayable",
      "type": "function"
    },
    {
      "inputs": [
        {
          "internalType": "address",
          "name": "from",
          "type": "address"
        },
        {
          "internalType": "address",
          "name": "to",
          "type": "address"
        },
        {
          "internalType": "uint256[]",
          "name": "ids",
          "type": "uint256[]"
        },
        {
          "internalType": "uint256[]",
          "name": "amounts",
          "type": "uint256[]"
        },
        {
          "internalType": "bytes",
          "name": "data",
          "type": "bytes"
        }
      ],
      "name": "safeBatchTransferFrom",
      "outputs": [],
      "stateMutability": "nonpayable",
      "type": "function"
    },
    {
      "inputs": [
        {
          "internalType": "address",
          "name": "from",
          "type": "address"
        },
        {
          "internalType": "address",
          "name": "to",
          "type": "address"
        },
        {
          "internalType": "uint256",
          "name": "id",
          "type": "uint256"
        },
        {
          "internalType": "uint256",
          "name": "amount",
          "type": "uint256"
        },
        {
          "internalType": "bytes",
          "name": "data",
          "type": "bytes"
        }
      ],
      "name": "safeTransferFrom",
      "outputs": [],
      "stateMutability": "nonpayable",
      "type": "function"
    },
    {
      "inputs": [
        {
          "internalType": "address",
          "name": "operator",
          "type": "address"
        },
        {
          "internalType": "bool",
          "name": "approved",
          "type": "bool"
        }
      ],
      "name": "setApprovalForAll",
      "outputs": [],
      "stateMutability": "nonpayable",
      "type": "function"
    },
    {
      "inputs": [
        {
          "internalType": "address",
          "name": "sky",
          "type": "address"
        }
      ],
      "name": "setSky",
      "outputs": [],
      "stateMutability": "nonpayable",
      "type": "function"
    },
    {
      "inputs": [
        {
          "internalType": "bytes4",
          "name": "interfaceId",
          "type": "bytes4"
        }
      ],
      "name": "supportsInterface",
      "outputs": [
        {
          "internalType": "bool",
          "name": "",
          "type": "bool"
        }
      ],
      "stateMutability": "view",
      "type": "function"
    },
    {
      "inputs": [
        {
          "internalType": "uint256",
          "name": "id",
          "type": "uint256"
        }
      ],
      "name": "uri",
      "outputs": [
        {
          "internalType": "string",
          "name": "",
          "type": "string"
        }
      ],
      "stateMutability": "view",
      "type": "function"
    }
  ],
  "bytecode": {
    "object": "0x608060405234620002d65762001a04803803806200001d81620002db565b9283398101604082820312620002d65781516001600160a01b0381169290839003620002d6576020928382015160018060401b0392838211620002d6570192601f90808286011215620002d6578451948486116200025a57601f19956200008a84820188168901620002db565b92818452888284010111620002d657879160005b828110620002c2575050906000918301015260405186810190808210868311176200025a5760009160405252600254926001938481811c91168015620002b7575b88821014620002a15783811162000270575b506000600255600380546001600160a01b03191691909117905580519384116200025a5760049586548481811c911680156200024f575b828210146200023a57838111620001ef575b5080928511600114620001865750839450908392916000946200017a575b50501b916000199060031b1c19161790555b6040516117029081620003028239f35b01519250388062000158565b9294849081168760005284600020946000905b88838310620001d45750505010620001ba575b505050811b0190556200016a565b015160001960f88460031b161c19169055388080620001ac565b85870151885590960195948501948793509081019062000199565b87600052816000208480880160051c82019284891062000230575b0160051c019085905b828110620002235750506200013a565b6000815501859062000213565b925081926200020a565b602288634e487b7160e01b6000525260246000fd5b90607f169062000128565b634e487b7160e01b600052604160045260246000fd5b6002600052848489600020920160051c8201915b82811062000294575050620000f1565b6000815501859062000284565b634e487b7160e01b600052602260045260246000fd5b90607f1690620000df565b81810184015185820185015283016200009e565b600080fd5b6040519190601f01601f191682016001600160401b038111838210176200025a5760405256fe60406080815260048036101561001457600080fd5b600091823560e01c908162fdd58e1461105657816301ffc9a714610fe75781630e89341c14610d745781631f7fdffa14610b355781632eb2c2d614610ac15781633db0f8ab146109845781634e1273f4146107e8578163731133e91461054f578163a22cb4651461046e578163a34e934314610429578163b4d6d660146102f5578163ce9e3cd814610156578163e985e9c514610108575063f242432a146100bb57600080fd5b346101045760a0366003190112610104576100d4611086565b506100dd6110a1565b50608435906001600160401b038211610100576100fc91369101611218565b5080f35b8280fd5b5080fd5b83903461010457806003193601126101045760ff81602093610128611086565b6101306110a1565b6001600160a01b0391821683526001875283832091168252855220549151911615158152f35b8284346102f25760209182600319360112610104576001600160401b0381358181116102ee57366023820112156102ee5761019a90369060248186013591016111e1565b936101a361134e565b84519182116102db576101b68354611314565b601f811161027a575b5080601f83116001146101fa57508394829394926101ef575b50508160011b916000199060031b1c191617905580f35b0151905084806101d8565b838552601f198316957f8a35acfbc15ff81a39ae7d344fd709f28e8600b4aa8c65c6b64bfe7fe36bd19b929186905b88821061026257505083600195969710610249575b505050811b01905580f35b015160001960f88460031b161c1916905584808061023e565b80600185968294968601518155019501930190610229565b8385527f8a35acfbc15ff81a39ae7d344fd709f28e8600b4aa8c65c6b64bfe7fe36bd19b601f840160051c8101918385106102d1575b601f0160051c01905b8181106102c657506101bf565b8581556001016102b9565b90915081906102b0565b634e487b7160e01b845260418352602484fd5b8380fd5b80fd5b905082346102f257816003193601126102f257610310611086565b926024356001600160401b0381116101005784929161033191369101611168565b6003546001600160a01b0394919061034c908616331461126a565b93831693841515835b82518110156104255780858861036e61042094876112ea565b5161038361037c85896112ea565b518b6113d1565b61038c8761153b565b61039582611697565b5061039f81611697565b508389516103ac816110ff565b5281845260208481528985208486528152818a8620546103ce82821015611593565b8487528683528b87208688528352038a86205589519283528201527fc3d58168c5ae7397731d063d5bbf3d657854427343f4c083240f7aacaa2d0f62883392a485855161041a816110ff565b526112c5565b610355565b8480f35b83346102f25760203660031901126102f257610443611086565b61044b61134e565b60018060a01b03166bffffffffffffffffffffffff60a01b600354161760035580f35b905034610100578060031936011261010057610488611086565b906024359182151580930361054b576001600160a01b0316923384146104f75750338452600160205280842083855260205280842060ff1981541660ff8416179055519081527f17307eab39ab6107e8899845ad3d59bd9653f200f220920489ca2b5937696c3160203392a380f35b6020608492519162461bcd60e51b8352820152602960248201527f455243313135353a2073657474696e6720617070726f76616c20737461747573604482015268103337b91039b2b63360b91b6064820152fd5b8480fd5b9050346101005760803660031901126101005761056a611086565b604435846024356064356001600160401b0381116101005761058f9036908801611218565b6003546001600160a01b03906105a8908216331461126a565b85166105b5811515611456565b6105be83611697565b506105c885611697565b5082845260209584875287852082865287528785206105e88782546114ac565b905581858951868152888a8201527fc3d58168c5ae7397731d063d5bbf3d657854427343f4c083240f7aacaa2d0f628b3392a43b610624578380f35b879461066794879489519687958694859363f23a6e6160e01b9b8c865233908601528560248601526044850152606484015260a0608484015260a48301906110da565b03925af18691816107b9575b5061074457505060019061068561160b565b6308c379a014610711575b506106a45750505b38808080848180808380f35b5162461bcd60e51b81529150819061070d90820160809060208152603460208201527f455243313135353a207472616e7366657220746f206e6f6e2d455243313135356040820152732932b1b2b4bb32b91034b6b83632b6b2b73a32b960611b60608201520190565b0390fd5b610719611629565b806107245750610690565b61070d8591855193849362461bcd60e51b855284015260248301906110da565b6001600160e01b03191603905061075c575050610698565b5162461bcd60e51b81529150819061070d90820160809060208152602860208201527f455243313135353a204552433131353552656365697665722072656a656374656040820152676420746f6b656e7360c01b60608201520190565b6107da919250843d86116107e1575b6107d28183611130565b8101906115eb565b9038610673565b503d6107c8565b9190503461010057816003193601126101005780356001600160401b0380821161054b573660238301121561054b57818301359061082582611151565b9261083286519485611130565b82845260209260248486019160051b8301019136831161098057602401905b82821061095d57505050602435908111610959576108729036908501611168565b928251845103610906575081519461088986611151565b9561089686519788611130565b8087526108a5601f1991611151565b0136838801375b82518110156108f0576108eb906108e16001600160a01b036108ce83876112ea565b51166108da83886112ea565b51906113d1565b61041a82896112ea565b6108ac565b84518281528061090281850189611236565b0390f35b60849185519162461bcd60e51b8352820152602960248201527f455243313135353a206163636f756e747320616e6420696473206c656e677468604482015268040dad2e6dac2e8c6d60bb1b6064820152fd5b8580fd5b81356001600160a01b038116810361097c578152908401908401610851565b8980fd5b8880fd5b8284346102f25760603660031901126102f25761099f611086565b926001600160401b03926024358481116102ee576109c09036908301611168565b936044359081116102ee576109d791369101611168565b60035490946001600160a01b03916109f2908316331461126a565b166109fe81151561153b565b610a0b84518651146114b9565b828251610a17816110ff565b52825b8451811015610a7b5780610a31610a7692876112ea565b51610a3c82896112ea565b5190808752602087815286882086895281528688205491610a5f84841015611593565b8852878152868820908689525203848620556112c5565b610a1a565b5091610abe9281947f4a39dc06d4c0dbc64b70af90fd698a233a518aa5d07e595d983b8c0526c8f7fb610ab5888651918291339583611516565b0390a4516110ff565b80f35b5050346101045760a036600319011261010457610adc611086565b50610ae56110a1565b506001600160401b03906044358281116102ee57610b069036908301611168565b506064358281116102ee57610b1e9036908301611168565b50608435918211610100576100fc91369101611218565b8391503461010457600319916080368401126102f257610b53611086565b926001600160401b036024358181116102ee57610b739036908801611168565b9560443582811161054b57610b8b9036908301611168565b9160643590811161054b57610ba39036908301611218565b6003546001600160a01b0390610bbc908216331461126a565b871693610bca851515611456565b610bd789518551146114b9565b855b8951811015610c255780610bf0610c2092876112ea565b51610bfb828d6112ea565b51895260208981528a8a2090898b5252610c198a8a209182546114ac565b90556112c5565b610bd9565b5085989491939297828789517f4a39dc06d4c0dbc64b70af90fd698a233a518aa5d07e595d983b8c0526c8f7fb339180610c608a8d83611516565b0390a43b610c6c578580f35b8795610cbd95610ccc610cad936020978b51998a988997889663bc197c8160e01b9e8f8952339089015288602489015260a0604489015260a4880190611236565b9084878303016064880152611236565b918483030160848501526110da565b03925af1859181610d54575b50610d3e5750506001610ce961160b565b6308c379a014610d07575b6106a45750505b81808281808080808580f35b610d0f611629565b80610d1a5750610cf4565b905061070d91602094505193849362461bcd60e51b855284015260248301906110da565b6001600160e01b0319160361075c575050610cfb565b610d6d91925060203d81116107e1576107d28183611130565b9086610cd8565b8391503461010457602091826003193601126102f257833581817a184f03e93ff9f4daa797ed6e38ed64bf6a1f01000000000000000080821015610fda575b50856d04ee2d6d415b85acef810000000080851015610fcb575b5050662386f26fc1000080841015610fbc575b506305f5e10080841015610fad575b508661271080851015610f9e575b50506064831015610f8e575b600a80931015610f84575b60019283830191846021610e3f610e2a866111c6565b95610e378b519788611130565b8087526111c6565b858b019690601f1901368837850101905b610f55575b50505084519684889594825492610e6b84611314565b938a8382169182600014610f2b575050600114610ec9575b878a6109028b610eba6005858d80610e9f8f8f519384916110b7565b0164173539b7b760d91b815203601a19810187520185611130565b519282849384528301906110da565b899897965082527f8a35acfbc15ff81a39ae7d344fd709f28e8600b4aa8c65c6b64bfe7fe36bd19b5b838310610f1357509596949550508401909201918181610e9f610eba610e83565b8054838c018a015289988b9750909201918101610ef2565b60ff19168a82015285151590950289019094019650859350849250610e9f9150610eba9050610e83565b600019019082906f181899199a1a9b1b9c1cb0b131b232b360811b8282061a835304908582610e505750610e55565b9060010190610e14565b9091606460029104920190610e09565b90919293049201908688610dfd565b60089192930492019087610def565b60109192930492019087610de0565b90919293049201908588610dcd565b8104925084915087610db3565b9190503461010057602036600319011261010057359063ffffffff60e01b82168092036101005760209250636cdb3d1360e11b8214918215611045575b8215611034575b50519015158152f35b6301ffc9a760e01b1491503861102b565b6303a24d0760e21b81149250611024565b83903461010457806003193601126101045760209061107f611076611086565b602435906113d1565b9051908152f35b600435906001600160a01b038216820361109c57565b600080fd5b602435906001600160a01b038216820361109c57565b60005b8381106110ca5750506000910152565b81810151838201526020016110ba565b906020916110f3815180928185528580860191016110b7565b601f01601f1916010190565b602081019081106001600160401b0382111761111a57604052565b634e487b7160e01b600052604160045260246000fd5b90601f801991011681019081106001600160401b0382111761111a57604052565b6001600160401b03811161111a5760051b60200190565b81601f8201121561109c5780359161117f83611151565b9261118d6040519485611130565b808452602092838086019260051b82010192831161109c578301905b8282106111b7575050505090565b813581529083019083016111a9565b6001600160401b03811161111a57601f01601f191660200190565b9291926111ed826111c6565b916111fb6040519384611130565b82948184528183011161109c578281602093846000960137010152565b9080601f8301121561109c57816020611233933591016111e1565b90565b90815180825260208080930193019160005b828110611256575050505090565b835185529381019392810192600101611248565b1561127157565b60405162461bcd60e51b815260206004820152602660248201527f536b796c61625265736f75726365733a206d73672e73656e646572206973206e6044820152656f7420536b7960d01b6064820152608490fd5b60001981146112d45760010190565b634e487b7160e01b600052601160045260246000fd5b80518210156112fe5760209160051b010190565b634e487b7160e01b600052603260045260246000fd5b90600182811c92168015611344575b602083101461132e57565b634e487b7160e01b600052602260045260246000fd5b91607f1691611323565b7fc8fcad8db84d3cc18b4c41d551ea0ee66dd599cde068d998e57d5e09332c1320546001600160a01b0316330361138157565b60405162461bcd60e51b815260206004820152602260248201527f4c69624469616d6f6e643a204d75737420626520636f6e7472616374206f776e60448201526132b960f11b6064820152608490fd5b6001600160a01b03169081156113fe57600052600060205260406000209060005260205260406000205490565b60405162461bcd60e51b815260206004820152602a60248201527f455243313135353a2061646472657373207a65726f206973206e6f742061207660448201526930b634b21037bbb732b960b11b6064820152608490fd5b1561145d57565b60405162461bcd60e51b815260206004820152602160248201527f455243313135353a206d696e7420746f20746865207a65726f206164647265736044820152607360f81b6064820152608490fd5b919082018092116112d457565b156114c057565b60405162461bcd60e51b815260206004820152602860248201527f455243313135353a2069647320616e6420616d6f756e7473206c656e677468206044820152670dad2e6dac2e8c6d60c31b6064820152608490fd5b909161152d61123393604084526040840190611236565b916020818403910152611236565b1561154257565b60405162461bcd60e51b815260206004820152602360248201527f455243313135353a206275726e2066726f6d20746865207a65726f206164647260448201526265737360e81b6064820152608490fd5b1561159a57565b60405162461bcd60e51b8152602060048201526024808201527f455243313135353a206275726e20616d6f756e7420657863656564732062616c604482015263616e636560e01b6064820152608490fd5b9081602091031261109c57516001600160e01b03198116810361109c5790565b60009060033d1161161857565b905060046000803e60005160e01c90565b600060443d1061123357604051600319913d83016004833e81516001600160401b03918282113d6024840111176116865781840194855193841161168e573d85010160208487010111611686575061123392910160200190611130565b949350505050565b50949350505050565b60405190604082018281106001600160401b0382111761111a57604052600182526020820160203682378251156112fe57529056fea2646970667358221220d7ab22b947a2e7fe6d09b120b0d44453db781b87d2d7d3d4f6d84a94b3913d4e64736f6c63430008130033",
    "linkReferences": {}
  },
  "methodIdentifiers": {
    "balanceOf(address,uint256)": "00fdd58e",
    "balanceOfBatch(address[],uint256[])": "4e1273f4",
    "burn(address,uint256[],uint256[])": "3db0f8ab",
    "isApprovedForAll(address,address)": "e985e9c5",
    "mint(address,uint256,uint256,bytes)": "731133e9",
    "mintBatch(address,uint256[],uint256[],bytes)": "1f7fdffa",
    "playTestNuke(address,uint256[])": "b4d6d660",
    "registerMetadataURI(string)": "ce9e3cd8",
    "safeBatchTransferFrom(address,address,uint256[],uint256[],bytes)": "2eb2c2d6",
    "safeTransferFrom(address,address,uint256,uint256,bytes)": "f242432a",
    "setApprovalForAll(address,bool)": "a22cb465",
    "setSky(address)": "a34e9343",
    "supportsInterface(bytes4)": "01ffc9a7",
    "uri(uint256)": "0e89341c"
  },
  "id": 9
}