{
  "abi": [
    {
      "inputs": [
        {
          "internalType": "address",
          "name": "manager",
          "type": "address"
        },
        {
          "internalType": "bytes4",
          "name": "managerSelector",
          "type": "bytes4"
        }
      ],
      "stateMutability": "nonpayable",
      "type": "constructor"
    },
    {
      "inputs": [],
      "name": "ManagedProxy__FetchImplementationFailed",
      "type": "error"
    },
    {
      "inputs": [],
      "name": "Proxy__ImplementationIsNotContract",
      "type": "error"
    },
    {
      "stateMutability": "payable",
      "type": "fallback"
    },
    {
      "inputs": [],
      "name": "__getImplementation",
      "outputs": [
        {
          "internalType": "address",
          "name": "",
          "type": "address"
        }
      ],
      "stateMutability": "view",
      "type": "function"
    },
    {
      "inputs": [
        {
          "internalType": "address",
          "name": "manager",
          "type": "address"
        }
      ],
      "name": "setManager",
      "outputs": [],
      "stateMutability": "nonpayable",
      "type": "function"
    },
    {
      "stateMutability": "payable",
      "type": "receive"
    }
  ],
  "bytecode": {
    "object": "0x60a03461009657601f61032238819003918201601f19168301916001600160401b0383118484101761009b5780849260409485528339810103126100965780516001600160a01b038116919082900361009657602001516001600160e01b03198116810361009657608052600080546001600160a01b03191691909117905560405161027090816100b28239608051816101720152f35b600080fd5b634e487b7160e01b600052604160045260246000fdfe60806040526004361015610015575b366100b857005b6000803560e01c8063d0ebdbe7146100665763d433c57e14610037575061000e565b346100635780600319360112610063576020610051610169565b6040516001600160a01b039091168152f35b80fd5b503461006357602036600319011261006357600435610084816100a2565b81546001600160a01b0319166001600160a01b039190911617815580f35b6001600160a01b038116036100b357565b600080fd5b6100c0610169565b803b156100e6576000808092368280378136915af43d82803e156100e2573d90f35b3d90fd5b6040516321f27f0d60e21b8152600490fd5b634e487b7160e01b600052604160045260246000fd5b6040810190811067ffffffffffffffff82111761012a57604052565b6100f8565b90601f8019910116810190811067ffffffffffffffff82111761012a57604052565b908160209103126100b35751610166816100a2565b90565b600080546040517f00000000000000000000000000000000000000000000000000000000000000006001600160e01b031916602082019081526004825283926001600160a01b0316916101bb8161010e565b51915afa3d15610232573d9067ffffffffffffffff821161012a57604051916101ee601f8201601f19166020018461012f565b82523d6000602084013e5b15610220576102148160208061016694518301019101610151565b6001600160a01b031690565b60405163391aa44560e01b8152600490fd5b6060906101f956fea26469706673582212201bc34c3ddc5148f151d2a229eff4e6856123258b935d13ee66ae3a2853839c2c64736f6c63430008130033",
    "linkReferences": {}
  },
  "methodIdentifiers": {
    "__getImplementation()": "d433c57e",
    "setManager(address)": "d0ebdbe7"
  },
  "id": 370
}