{
  "abi": [
    {
      "inputs": [
        {
          "internalType": "address",
          "name": "mercuryBaseAddress",
          "type": "address"
        },
        {
          "internalType": "address",
          "name": "gameboardTraverseVerifierAddress",
          "type": "address"
        },
        {
          "internalType": "address",
          "name": "computeHashPathDataVerifierAddress",
          "type": "address"
        },
        {
          "internalType": "address",
          "name": "mapHashesAddress",
          "type": "address"
        }
      ],
      "stateMutability": "nonpayable",
      "type": "constructor"
    },
    {
      "inputs": [
        {
          "internalType": "address",
          "name": "burner",
          "type": "address"
        },
        {
          "internalType": "uint256",
          "name": "tokenId",
          "type": "uint256"
        },
        {
          "internalType": "contract MercuryBase",
          "name": "collection",
          "type": "address"
        }
      ],
      "name": "approveForGame",
      "outputs": [],
      "stateMutability": "nonpayable",
      "type": "function"
    },
    {
      "inputs": [
        {
          "internalType": "address",
          "name": "burner",
          "type": "address"
        }
      ],
      "name": "burnerAddressToTokenId",
      "outputs": [
        {
          "internalType": "uint256",
          "name": "",
          "type": "uint256"
        }
      ],
      "stateMutability": "view",
      "type": "function"
    },
    {
      "inputs": [
        {
          "internalType": "uint256",
          "name": "tokenId",
          "type": "uint256"
        },
        {
          "internalType": "contract MercuryBase",
          "name": "collection",
          "type": "address"
        }
      ],
      "name": "claimTimeoutPenalty",
      "outputs": [],
      "stateMutability": "nonpayable",
      "type": "function"
    },
    {
      "inputs": [
        {
          "internalType": "uint256",
          "name": "tokenId",
          "type": "uint256"
        },
        {
          "internalType": "uint256[2]",
          "name": "a",
          "type": "uint256[2]"
        },
        {
          "internalType": "uint256[2][2]",
          "name": "b",
          "type": "uint256[2][2]"
        },
        {
          "internalType": "uint256[2]",
          "name": "c",
          "type": "uint256[2]"
        },
        {
          "internalType": "uint256[9]",
          "name": "input",
          "type": "uint256[9]"
        },
        {
          "internalType": "contract MercuryBase",
          "name": "collection",
          "type": "address"
        }
      ],
      "name": "commitPath",
      "outputs": [],
      "stateMutability": "nonpayable",
      "type": "function"
    },
    {
      "inputs": [
        {
          "internalType": "uint256",
          "name": "",
          "type": "uint256"
        }
      ],
      "name": "committedHash",
      "outputs": [
        {
          "internalType": "bool",
          "name": "first",
          "type": "bool"
        },
        {
          "internalType": "uint256",
          "name": "seed_hash",
          "type": "uint256"
        },
        {
          "internalType": "uint256",
          "name": "time_hash",
          "type": "uint256"
        },
        {
          "internalType": "uint256",
          "name": "path_hash",
          "type": "uint256"
        },
        {
          "internalType": "uint256",
          "name": "used_resources_hash",
          "type": "uint256"
        }
      ],
      "stateMutability": "view",
      "type": "function"
    },
    {
      "inputs": [],
      "name": "componentIndex",
      "outputs": [
        {
          "internalType": "contract ComponentIndex",
          "name": "",
          "type": "address"
        }
      ],
      "stateMutability": "view",
      "type": "function"
    },
    {
      "inputs": [
        {
          "internalType": "uint256",
          "name": "",
          "type": "uint256"
        }
      ],
      "name": "gameState",
      "outputs": [
        {
          "internalType": "uint256",
          "name": "",
          "type": "uint256"
        }
      ],
      "stateMutability": "view",
      "type": "function"
    },
    {
      "inputs": [
        {
          "internalType": "uint256",
          "name": "",
          "type": "uint256"
        }
      ],
      "name": "gameTank",
      "outputs": [
        {
          "internalType": "uint256",
          "name": "fuel",
          "type": "uint256"
        },
        {
          "internalType": "uint256",
          "name": "battery",
          "type": "uint256"
        }
      ],
      "stateMutability": "view",
      "type": "function"
    },
    {
      "inputs": [
        {
          "internalType": "uint256",
          "name": "tokenId",
          "type": "uint256"
        },
        {
          "internalType": "contract MercuryBase",
          "name": "collection",
          "type": "address"
        }
      ],
      "name": "getMap",
      "outputs": [
        {
          "internalType": "uint256",
          "name": "",
          "type": "uint256"
        }
      ],
      "stateMutability": "nonpayable",
      "type": "function"
    },
    {
      "inputs": [
        {
          "internalType": "uint256",
          "name": "tokenId",
          "type": "uint256"
        }
      ],
      "name": "getOpponentFinalTime",
      "outputs": [
        {
          "internalType": "uint256",
          "name": "",
          "type": "uint256"
        }
      ],
      "stateMutability": "view",
      "type": "function"
    },
    {
      "inputs": [
        {
          "internalType": "uint256",
          "name": "tokenId",
          "type": "uint256"
        }
      ],
      "name": "getOpponentPath",
      "outputs": [
        {
          "internalType": "uint256[101]",
          "name": "",
          "type": "uint256[101]"
        }
      ],
      "stateMutability": "view",
      "type": "function"
    },
    {
      "inputs": [
        {
          "internalType": "uint256",
          "name": "tokenId",
          "type": "uint256"
        }
      ],
      "name": "getOpponentUsedResources",
      "outputs": [
        {
          "internalType": "uint256[101]",
          "name": "",
          "type": "uint256[101]"
        }
      ],
      "stateMutability": "view",
      "type": "function"
    },
    {
      "inputs": [
        {
          "internalType": "uint256",
          "name": "tokenId",
          "type": "uint256"
        },
        {
          "internalType": "contract MercuryBase",
          "name": "collection",
          "type": "address"
        }
      ],
      "name": "isApprovedForGame",
      "outputs": [
        {
          "internalType": "bool",
          "name": "",
          "type": "bool"
        }
      ],
      "stateMutability": "view",
      "type": "function"
    },
    {
      "inputs": [
        {
          "internalType": "uint256",
          "name": "tokenId",
          "type": "uint256"
        },
        {
          "internalType": "uint256",
          "name": "fuel",
          "type": "uint256"
        },
        {
          "internalType": "uint256",
          "name": "battery",
          "type": "uint256"
        },
        {
          "internalType": "contract MercuryBase",
          "name": "collection",
          "type": "address"
        }
      ],
      "name": "loadFuelBatteryToGameTank",
      "outputs": [],
      "stateMutability": "nonpayable",
      "type": "function"
    },
    {
      "inputs": [
        {
          "internalType": "uint256",
          "name": "",
          "type": "uint256"
        }
      ],
      "name": "mapId",
      "outputs": [
        {
          "internalType": "uint256",
          "name": "",
          "type": "uint256"
        }
      ],
      "stateMutability": "view",
      "type": "function"
    },
    {
      "inputs": [
        {
          "internalType": "uint256",
          "name": "",
          "type": "uint256"
        }
      ],
      "name": "matchedAviationIDs",
      "outputs": [
        {
          "internalType": "uint256",
          "name": "",
          "type": "uint256"
        }
      ],
      "stateMutability": "view",
      "type": "function"
    },
    {
      "inputs": [
        {
          "internalType": "address",
          "name": "",
          "type": "address"
        },
        {
          "internalType": "address",
          "name": "",
          "type": "address"
        },
        {
          "internalType": "uint256[]",
          "name": "",
          "type": "uint256[]"
        },
        {
          "internalType": "uint256[]",
          "name": "",
          "type": "uint256[]"
        },
        {
          "internalType": "bytes",
          "name": "",
          "type": "bytes"
        }
      ],
      "name": "onERC1155BatchReceived",
      "outputs": [
        {
          "internalType": "bytes4",
          "name": "",
          "type": "bytes4"
        }
      ],
      "stateMutability": "nonpayable",
      "type": "function"
    },
    {
      "inputs": [
        {
          "internalType": "address",
          "name": "",
          "type": "address"
        },
        {
          "internalType": "address",
          "name": "",
          "type": "address"
        },
        {
          "internalType": "uint256",
          "name": "",
          "type": "uint256"
        },
        {
          "internalType": "uint256",
          "name": "",
          "type": "uint256"
        },
        {
          "internalType": "bytes",
          "name": "",
          "type": "bytes"
        }
      ],
      "name": "onERC1155Received",
      "outputs": [
        {
          "internalType": "bytes4",
          "name": "",
          "type": "bytes4"
        }
      ],
      "stateMutability": "nonpayable",
      "type": "function"
    },
    {
      "inputs": [],
      "name": "owner",
      "outputs": [
        {
          "internalType": "address",
          "name": "owner_",
          "type": "address"
        }
      ],
      "stateMutability": "view",
      "type": "function"
    },
    {
      "inputs": [
        {
          "internalType": "uint256",
          "name": "tokenId",
          "type": "uint256"
        },
        {
          "internalType": "contract MercuryBase",
          "name": "collection",
          "type": "address"
        }
      ],
      "name": "postGameCleanUp",
      "outputs": [],
      "stateMutability": "nonpayable",
      "type": "function"
    },
    {
      "inputs": [
        {
          "internalType": "address",
          "name": "gameboardTraverseVerifierAddress",
          "type": "address"
        },
        {
          "internalType": "address",
          "name": "computeHashPathDataVerifierAddress",
          "type": "address"
        },
        {
          "internalType": "address",
          "name": "mapHashesAddress",
          "type": "address"
        }
      ],
      "name": "refreshAddresses",
      "outputs": [],
      "stateMutability": "nonpayable",
      "type": "function"
    },
    {
      "inputs": [
        {
          "internalType": "uint256",
          "name": "tokenId",
          "type": "uint256"
        },
        {
          "internalType": "contract MercuryBase",
          "name": "collection",
          "type": "address"
        }
      ],
      "name": "retreat",
      "outputs": [],
      "stateMutability": "nonpayable",
      "type": "function"
    },
    {
      "inputs": [
        {
          "internalType": "uint256",
          "name": "tokenId",
          "type": "uint256"
        },
        {
          "internalType": "uint256",
          "name": "seed",
          "type": "uint256"
        },
        {
          "internalType": "uint256",
          "name": "time",
          "type": "uint256"
        },
        {
          "internalType": "uint256[2]",
          "name": "pathA",
          "type": "uint256[2]"
        },
        {
          "internalType": "uint256[2][2]",
          "name": "pathB",
          "type": "uint256[2][2]"
        },
        {
          "internalType": "uint256[2]",
          "name": "pathC",
          "type": "uint256[2]"
        },
        {
          "internalType": "uint256[101]",
          "name": "pathInput",
          "type": "uint256[101]"
        },
        {
          "internalType": "uint256[2]",
          "name": "usedResourcesA",
          "type": "uint256[2]"
        },
        {
          "internalType": "uint256[2][2]",
          "name": "usedResourcesB",
          "type": "uint256[2][2]"
        },
        {
          "internalType": "uint256[2]",
          "name": "usedResourcesC",
          "type": "uint256[2]"
        },
        {
          "internalType": "uint256[101]",
          "name": "usedResourcesInput",
          "type": "uint256[101]"
        },
        {
          "internalType": "contract MercuryBase",
          "name": "collection",
          "type": "address"
        }
      ],
      "name": "revealPath",
      "outputs": [],
      "stateMutability": "nonpayable",
      "type": "function"
    },
    {
      "inputs": [
        {
          "internalType": "uint256",
          "name": "tokenId",
          "type": "uint256"
        },
        {
          "internalType": "contract MercuryBase",
          "name": "collection",
          "type": "address"
        }
      ],
      "name": "searchOpponent",
      "outputs": [],
      "stateMutability": "nonpayable",
      "type": "function"
    },
    {
      "inputs": [
        {
          "internalType": "bytes4",
          "name": "interfaceId",
          "type": "bytes4"
        }
      ],
      "name": "supportsInterface",
      "outputs": [
        {
          "internalType": "bool",
          "name": "",
          "type": "bool"
        }
      ],
      "stateMutability": "view",
      "type": "function"
    },
    {
      "inputs": [
        {
          "internalType": "uint256",
          "name": "",
          "type": "uint256"
        }
      ],
      "name": "timeout",
      "outputs": [
        {
          "internalType": "uint256",
          "name": "",
          "type": "uint256"
        }
      ],
      "stateMutability": "view",
      "type": "function"
    },
    {
      "inputs": [
        {
          "internalType": "address",
          "name": "_newOwner",
          "type": "address"
        }
      ],
      "name": "transferOwnership",
      "outputs": [],
      "stateMutability": "nonpayable",
      "type": "function"
    },
    {
      "inputs": [
        {
          "internalType": "uint256",
          "name": "tokenId",
          "type": "uint256"
        },
        {
          "internalType": "contract MercuryBase",
          "name": "collection",
          "type": "address"
        }
      ],
      "name": "unapproveForGame",
      "outputs": [],
      "stateMutability": "nonpayable",
      "type": "function"
    },
    {
      "inputs": [
        {
          "internalType": "uint256",
          "name": "tokenId",
          "type": "uint256"
        },
        {
          "internalType": "contract MercuryBase",
          "name": "collection",
          "type": "address"
        }
      ],
      "name": "withdrawFromQueue",
      "outputs": [],
      "stateMutability": "nonpayable",
      "type": "function"
    }
  ],
  "bytecode": {
    "object": "0x6080346200014157601f6200304938819003918201601f19168301916001600160401b03831184841017620001465780849260809460405283398101031262000141576200004d816200015c565b6200005b602083016200015c565b6200007760606200006f604086016200015c565b94016200015c565b7f56b93a8e38195cdaee211df396a77bc4208055a0c0efbf73458ddca9d28094428054336001600160a01b031980831682179093556040519692956001600160a01b039586949385939192919084167f8be0079c531659141344cd1fd0a4f28419497f9722a3daafe3b4186f6b6457e0600080a3827f56b93a8e38195cdaee211df396a77bc4208055a0c0efbf73458ddca9d2809440911688825416179055168560005416176000551683600154161760015516906002541617600255612ed79081620001728239f35b600080fd5b634e487b7160e01b600052604160045260246000fd5b51906001600160a01b0382168203620001415756fe608080604052600436101561001357600080fd5b600090813560e01c90816301ffc9a71461267d5750806308148f7a14612653578063089bf40a146122aa57806309275d0d14611b555780630e1e66c614611af057806313cbe0c3146117e45780632e0afd12146117b75780633a7626f4146117865780634e0e1a3e1461175c5780634e7c19db14611714578063513858f0146116ab57806355a31b0514611677578063605d17fb146115e457806362061ac11461144e57806362cbe43114611424578063653ec4e5146113fa57806375cc823e146110fd5780637cc906a51461107657806386354bce14610d545780638af01e5b14610d2a5780638da5cb5b14610ce25780638f56cab614610b355780639842091214610abd578063bc197c8114610a2f578063df6fd7f614610342578063e1a9888e146102e6578063e99100b714610251578063f23a6e61146101f65763f2fde38b1461016057600080fd5b346101f35760203660031901126101f3576101796127ce565b7f56b93a8e38195cdaee211df396a77bc4208055a0c0efbf73458ddca9d28094428054916001600160a01b0380841692916101b5338514612a37565b1680936bffffffffffffffffffffffff60a01b161790557f8be0079c531659141344cd1fd0a4f28419497f9722a3daafe3b4186f6b6457e08380a380f35b80fd5b50346101f35760a03660031901126101f3576102106127ce565b506102196126d2565b5060843567ffffffffffffffff811161024d5761023a903690600401612873565b5060405163f23a6e6160e01b8152602090f35b5080fd5b50346101f35760603660031901126101f35761026b6127ce565b6102736126d2565b61027b6126e8565b7fc8fcad8db84d3cc18b4c41d551ea0ee66dd599cde068d998e57d5e09332c1320546001600160a01b039283916102b59083163314612a37565b816bffffffffffffffffffffffff60a01b951685875416178655168360015416176001551690600254161760025580f35b50346101f35760203660031901126101f357604060a091600435815260096020522060ff815416906001810154906002810154600460038301549201549260405194151585526020850152604084015260608301526080820152f35b50346101f357611bc03660031901126101f35736608312156109965760405161036a8161272e565b60a481368211610996576064905b828210610a1f5750503660c3121561099657604051916103978361272e565b826101249236841161099657905b838210610a0557505036610143121561099657604051906103c58261272e565b816101649336851161099657905b8482106109f557505036610183121561099657604051936103f38561274a565b84610e049436861161099657905b8582106109e557505036610e23121561099657604051916104218361272e565b82610e449536871161099657905b8682106109d557505036610e631215610996576040519361044f8561272e565b84610ec49636881161099657905b8782106109bb57505036610ee31215610996576040519261047d8461272e565b83610f049736891161099657905b8882106109ab57505036610f23121561099657604051966104ab8861274a565b87611ba49136831161099657905b82821061099b575050356001600160a01b0381168103610996576104e26104e7916004356128e2565b612a8e565b60043589526004602052610501600360408b205414612b00565b6004358952600660205261051a60408a20541515612c36565b60043589526006602052604089205489526004602052600360408a2054106109475760043589526009602052604089206001015461055a60243580612dc6565b036109015760043589526009602052600260408a20015461057f602435604435612dc6565b036108bb5760043589526009602052600360408a200154885103610875576020906004358a52600982526105bc600460408c200154895114612d1b565b60018060a01b0360015416936105e78a604051958694859463abc84df560e01b865260048601612d72565b0381855afa90811561086a57889161084b575b50156108045784936020936106256040519687958694859463abc84df560e01b865260048601612d72565b03915afa80156107f9576106409185916107ca575b50612d1b565b6040519161064d83612712565b604435835260208301908152604083019182526004358452600660205260408420548452600a602052604084209251835551835b606581106107b457505051825b6065811061079d578360043581526004602052600460408220556007602052806040812055600660205260408120548152600460205260046040822054146106d4575b80f35b6004358152600a6020526040812054806044351060001461072c575061070860043560005260046020526005604060002055565b600435815260066020526106d1604082205460005260046020526006604060002055565b604435148061078a575b156107535761070860043560005260046020526005604060002055565b6006602052610772604082205460005260046020526005604060002055565b6106d160043560005260046020526006604060002055565b50600960205260ff604082205416610736565b60019060208351930192606682860101550161068e565b6001906020835193019282828701015501610681565b6107ec915060203d6020116107f2575b6107e48183612767565b8101906128ca565b3861063a565b503d6107da565b6040513d86823e3d90fd5b60405162461bcd60e51b815260206004820152602b6024820152600080516020612e8283398151915260448201526a103830ba3410383937b7b360a91b6064820152608490fd5b610864915060203d6020116107f2576107e48183612767565b386105fa565b6040513d8a823e3d90fd5b60405162461bcd60e51b815260206004820152602a6024820152600080516020612e82833981519152604482015269040e0c2e8d040d0c2e6d60b31b6064820152608490fd5b60405162461bcd60e51b815260206004820152602a6024820152600080516020612e82833981519152604482015269040e8d2daca40d0c2e6d60b31b6064820152608490fd5b60405162461bcd60e51b815260206004820152602a6024820152600080516020612e82833981519152604482015269040e6cacac840d0c2e6d60b31b6064820152608490fd5b60405162461bcd60e51b81526020600482015260336024820152600080516020612e82833981519152604482015272206f70706f6e656e742067616d65537461746560681b6064820152608490fd5b600080fd5b81358152602091820191016104b9565b813581526020918201910161048b565b60206040916109ca3685612789565b81520191019061045d565b813581526020918201910161042f565b8135815260209182019101610401565b81358152602091820191016103d3565b6020604091610a143685612789565b8152019101906103a5565b8135815260209182019101610378565b50346101f35760a03660031901126101f357610a496127ce565b50610a526126d2565b5067ffffffffffffffff604435818111610ab957610a7490369060040161280c565b50606435818111610ab957610a8d90369060040161280c565b5060843590811161024d57610aa6903690600401612873565b5060405163bc197c8160e01b8152602090f35b8280fd5b50346101f35760208060031936011261024d5760405191610add8361274a565b610ca080933690376004358152600a825260019081604082200160405193849192915b60658310610b22578686610b138161274a565b610b2060405180926127e4565bf35b8354815292840192918401918101610b00565b50346101f35760803660031901126101f3576044356024356064356001600160a01b0381169060043590828103610996576104e2610b7391836128e2565b8085528460209260048452610b8c604083205415612b00565b60405190610b9982612712565b600282526040368684013782610bae83612b4d565b526001610bba83612b70565b52604051610bc781612712565b600281526040368783013786610bdc82612b4d565b5287610be782612b70565b526040516331a9108f60e11b815260048101869052918683602481845afa928315610cd7578593610ca8575b50803b15610c9957610c41938580946040519687958694859363f6573d7b60e01b8552309060048601612bd3565b03925af18015610c9d57610c85575b50928160059452838352610c6960408720918254612c13565b9055845252610c8060016040842001918254612c13565b905580f35b610c8e906126fe565b610c99578438610c50565b8480fd5b6040513d84823e3d90fd5b610cc9919350873d8911610cd0575b610cc18183612767565b810190612b80565b9138610c13565b503d610cb7565b6040513d87823e3d90fd5b50346101f357806003193601126101f3577f56b93a8e38195cdaee211df396a77bc4208055a0c0efbf73458ddca9d2809442546040516001600160a01b039091168152602090f35b50346101f35760203660031901126101f35760406020916004358152600a83522054604051908152f35b50346101f35760403660031901126101f35760043590610d726126d2565b91610d806104e284836128e2565b808252602060048152600193610d9b85604086205414612b00565b828452600682526040842054611015576040516324d6b3c160e11b8152600481018490526001600160a01b039190911694908281602481895afa908115610cd7578591610fe8575b50845260038252836040812055600092853b15610fa557604051632d778c2d60e21b8152600481018290528481602481838b5af18015610cd757610fd5575b50808452600683528360408120556007835283604081205560088352836040812055600983528360046040822082815582858201558260028201558260038201550155600a8352610e8d6040852085815560cb6066820191610e8683878301612daf565b0190612daf565b60405195610e9a87612712565b600287526040368589013784610eaf88612b4d565b5282610eba88612b70565b5260405196610ec888612712565b60028852604036868a0137828652600585526040862054610ee889612b4d565b528286526005855283604087200154610f0089612b70565b526040516331a9108f60e11b8152600481018490528581602481865afa908115610fca578791610fad575b50823b15610fa957918697989187610f5c9894604051998a958694859363fdffdd3b60e01b85523060048601612bd3565b03925af18015610cd75790859291610f8b575b6004945082526005835260408220828155015552604081205580f35b91909293610f98906126fe565b610fa55782918491610f6f565b8380fd5b8680fd5b610fc49150863d8811610cd057610cc18183612767565b38610f2b565b6040513d89823e3d90fd5b610fe1909491946126fe565b9238610e22565b90508281813d831161100e575b610fff8183612767565b81010312610996575138610de3565b503d610ff5565b60405162461bcd60e51b815260048101839052603360248201527f4d65726375727947616d65466c69676874526163653a20616c72656164792068604482015272185cc81b585d18da1959081bdc1c1bdb995b9d606a1b6064820152608490fd5b50346101f35760603660031901126101f3576110906127ce565b6110f9602435916110b06110ab6110a56126e8565b856128e2565b612993565b8284527f56b93a8e38195cdaee211df396a77bc4208055a0c0efbf73458ddca9d28094416020526040842080546001600160a01b0319166001600160a01b0383161790556129fe565b5580f35b50346101f35760403660031901126101f35760043561111a6126d2565b9061112582826128e2565b8015611399575b61113590612a8e565b8083526020906004825261116060408520546005811490811561138e575b8115611383575b50612b00565b8084526004825260408420549260058414938415611378575b506001600160a01b0316803b1561099657604051632d778c2d60e21b81526004810183905260009490858160248183875af1801561136d5761135a575b5082855260068452846040812055600784528460408120556008845284604081205560098452846004604082208281558260018201558260028201558260038201550155600a845261121c6040862086815560cb6066820191610e868360018301612daf565b15611242575b509060049183526005815282600160408220828155015552604081205580f35b6040519061124f82612712565b60028252604036858401378461126483612b4d565b52600161127083612b70565b526040519161127e83612712565b600283526040368685013783865260058552604086205461129e84612b4d565b528386526005855260016040872001546112b784612b70565b526040516331a9108f60e11b8152600481018590528581602481865afa908115610fca57879161133d575b50823b15610fa9579161131193918780946040519687958694859363fdffdd3b60e01b85523060048601612bd3565b03925af180156107f957908491611329575b50611222565b611332906126fe565b610ab9578238611323565b6113549150863d8811610cd057610cc18183612767565b386112e2565b611366909591956126fe565b93386111b6565b6040513d88823e3d90fd5b600614935038611179565b60079150143861115a565b600681149150611153565b506040516331a9108f60e11b8152600481018290526001600160a01b036020826024818785165afa8015610cd7576111359286916113dc575b501615905061112c565b6113f4915060203d8111610cd057610cc18183612767565b386113d2565b50346101f35760203660031901126101f35760406020916004358152600883522054604051908152f35b50346101f35760203660031901126101f35760406020916004358152600683522054604051908152f35b50346101f35760403660031901126101f3576004356114776104e26114716126d2565b836128e2565b8082526020906004825261149060408420541515612b00565b808352600482526114a76005604085205410612b00565b808352600682526114bd60408420541515612c36565b80835260068252604083205483526007825260408320541561158a57808352600682526040832054835260078252604083205442111561152e57908161151160069360005260046020526005604060002055565b8352526106d1604082205460005260046020526006604060002055565b60405162461bcd60e51b815260048101839052602e60248201527f4d65726375727947616d65466c69676874526163653a2074696d656f7574206460448201526d1a591b89dd081c185cdcc81e595d60921b6064820152608490fd5b60405162461bcd60e51b815260048101839052602c60248201527f4d65726375727947616d65466c69676874526163653a2074696d656f7574206960448201526b1cdb89dd081919599a5b995960a21b6064820152608490fd5b50346101f35760403660031901126101f3576004356116076104e26114716126d2565b808252600460205261162860408320546001811490811561166c5750612b00565b808252600660205261163f60408320541515612c36565b815260046020526007604082205560066020526106d1604082205460005260046020526005604060002055565b60029150143861115a565b50346101f35760203660031901126101f3576040809160043581526005602052206001815491015482519182526020820152f35b50346101f35760208060031936011261024d57604051916116cb8361274a565b610ca080933690376004358152600a82526066604082200160405192839192915b606583106116ff578585610b138161274a565b600182819286548152019401920191926116ec565b50346101f357806003193601126101f3577f56b93a8e38195cdaee211df396a77bc4208055a0c0efbf73458ddca9d2809440546040516001600160a01b039091168152602090f35b50346101f35760203660031901126101f35760406020916004358152600483522054604051908152f35b50346101f35760403660031901126101f35760206117ad6117a56126d2565b6004356128e2565b6040519015158152f35b50346101f35760203660031901126101f35760206117db6117d66127ce565b6129fe565b54604051908152f35b50346101f35760403660031901126101f3576004356118016126d2565b9161180f6104e284846128e2565b818152602092600484526118296001604084205414612b00565b82825260069081855261184160408420541515612c36565b838352818552604080842054845260088652832054156118bc5750828252835260408120548152600883526040812054915b6103844201908142116118a8579160409160029382526007865282822055600885528382822055600485522055604051908152f35b634e487b7160e01b83526011600452602483fd5b9083835280855260408320548410600014611a415760018060a01b0390858260025416936024604051809581936324d6b3c160e11b83528a6004840152165afa9081156107f95786908592611a10575b61194f93506040519061191e82612712565b428252878383015287875282526040862054604082015260405180948192635a53025d60e01b835260048301612c95565b038173__$7e0422bcb522121eb2d283265a255f73b6$__5af49182156107f9579086929185926119de575b506044906040519485938492635ca0819760e11b8452600484015260248301525afa908115610c9d5782916119b1575b5091611873565b90508381813d83116119d7575b6119c88183612767565b810103126109965751386119aa565b503d6119be565b8381949293503d8311611a09575b6119f68183612767565b810103126109965790518591604461197a565b503d6119ec565b915082813d8311611a3a575b611a268183612767565b81010312610996578561194f92519161190c565b503d611a1c565b60018060a01b0390858260025416936024604051809581936324d6b3c160e11b83528a6004840152165afa9081156107f95786908592611abf575b61194f935060405190611a8e82612712565b428252878752825260408620548282015286604082015260405180948192635a53025d60e01b835260048301612c95565b915082813d8311611ae9575b611ad58183612767565b81010312610996578561194f925191611a7c565b503d611acb565b50346101f35760403660031901126101f357600435611b136110ab6114716126d2565b81527f56b93a8e38195cdaee211df396a77bc4208055a0c0efbf73458ddca9d28094416020526040812080546001600160a01b0319169055806110f9336129fe565b50346101f3576102603660031901126101f357600435366043121561099657604051611b808161272e565b80606491368311610996576024905b83821061229a57505036608312156109965760405191611bae8361272e565b60e490833683116109965781905b8382106122805750503661010312156109965760405193611bdc8561272e565b846101249336851161099657905b848210612270575050366101431215610fa9576040519367ffffffffffffffff93610120860185811187821017611f5c57604052856102449136831161099657905b8282106122605750506001600160a01b039035818116929083810361099657611cb1918b99611c5f6104e28d94856128e2565b828b52611cca8560209c8d9560048752611c7f6002604084205414612b00565b815260068652611c9460408220541515612c36565b54169160405195869463c542c93b60e01b86526004860190612cc3565b611cc06044998a860190612ceb565b60c4840190612cc3565b898d61010484015b600982106122475750505081610224915afa90811561223c578a9161221f575b50156121df576002541690878952600887526040892054604051906324d6b3c160e11b918281528a60048201528981602481875afa9081156121d4578c916121a7575b508989015190604051926318afaf0760e11b8452600484015260248301528582015288818781875afa90811561208d578b9161218a575b501561212b57888a526005885260408a20546040880151036120e357888a5260058852600160408b200154606088015103612098576040518181528960048201528881602481865afa90811561208d578b91612060575b50600019810190811161204c5760ff811161204c57600160e0890151911b0361200557879060246040518094819382528c60048301525afa8015611ffa5787918a91611fcb575b508361010088015191604051948593849263058f77d160e31b8452600484015260248301525afa90811561086a578891611fae575b5015611f7257505083855260068352604085205485526004835260036040862054141591805190608081015160c060a0830151920151926040519560a087019587871090871117611f5c57600495604052865286860190815260408601918252606086019283526080860193845287895260098752604089209551151560ff80198854169116178655516001860155516002850155516003840155519101556004815260036040842055600781528260408120556006815260408320548352600481526003604084205414611f12578280f35b61012c420191824211611f4857908160079285528282528360408620558452600681526040842054845252604082205538808280f35b634e487b7160e01b84526011600452602484fd5b634e487b7160e01b600052604160045260246000fd5b6220633160e81b608492600080516020612e8283398151915287936040519462461bcd60e51b8652600486015260236024860152840152820152fd5b611fc59150863d88116107f2576107e48183612767565b38611e3f565b82819392503d8311611ff3575b611fe28183612767565b810103126109965786905138611e0a565b503d611fd8565b6040513d8b823e3d90fd5b60405162461bcd60e51b815260048101899052602d6024820152600080516020612e82833981519152818601526c103632bb32b61039b1b0b632b960991b81870152608490fd5b634e487b7160e01b8b52601160045260248bfd5b90508881813d8311612086575b6120778183612767565b81010312610996575138611dc3565b503d61206d565b6040513d8d823e3d90fd5b60405162461bcd60e51b81526004810189905260316024820152600080516020612e828339815191528186015270207374617274696e67206261747465727960781b81870152608490fd5b60405162461bcd60e51b815260048101899052602e6024820152600080516020612e82833981519152818601526d081cdd185c9d1a5b99c8199d595b60921b81870152608490fd5b60405162461bcd60e51b815260048101899052603360248201527f4d65726375727947616d65466c69676874526163653a206d617020686173682081860152721d995c9a599a58d85d1a5bdb8819985a5b1959606a1b81870152608490fd5b6121a19150893d8b116107f2576107e48183612767565b38611d6c565b90508981813d83116121cd575b6121be8183612767565b81010312610996575138611d35565b503d6121b4565b6040513d8e823e3d90fd5b60405162461bcd60e51b81526004810188905260266024820152600080516020612e82833981519152818501526510383937b7b360d11b81860152608490fd5b6122369150883d8a116107f2576107e48183612767565b38611cf2565b6040513d8c823e3d90fd5b825181528d958795509283019260019092019101611cd2565b8135815260209182019101611c2c565b8135815260209182019101611bea565b602060409161228f3685612789565b815201910190611bbc565b8135815260209182019101611b8f565b50346101f35760403660031901126101f3576004356122c76126d2565b906122d56104e283836128e2565b808352602090600482526122ed604085205415612b00565b6040516317886fed60e11b8152600481018290526001600160a01b039384169360249184818481895afa908115610fca578791612636575b506125e357843b156125df576040516306c1d0cf60e51b81526004810184905286818481838a5af18015610fca576125cc575b50604051916324d6b3c160e11b91828452846004850152858483818a5afa801561086a578694899161259d575b50885260038452604088205490816124035750506040518096819382528560048301525afa80156107f95784906123d5575b600493508452600382528060408520555b8352526001604082205580f35b508183813d83116123fc575b6123eb8183612767565b8101031261099657600492516123b7565b503d6123e1565b9091929350604051906331a9108f60e11b808352866004840152878386818c5afa92831561223c578a9361257e575b50604051908152836004820152878186818c5afa801561223c5782918b91612561575b5016911614612512578387526006855280604088205580875283604088205561012c4201908142116124ff579085939291858952600785528160408a205588526007845260408820556040518096819382528560048301525afa80156107f95784906124d1575b600493508452600382528360408120556123c8565b508183813d83116124f8575b6124e78183612767565b8101031261099657600492516124bc565b503d6124dd565b634e487b7160e01b885260116004528288fd5b60405162461bcd60e51b8152600481018690526022818401527f4d65726375727947616d65466c69676874526163653a206e6f20696e2d6669676044820152611a1d60f21b6064820152608490fd5b6125789150893d8b11610cd057610cc18183612767565b38612455565b612596919350883d8a11610cd057610cc18183612767565b9138612432565b85819692503d83116125c5575b6125b48183612767565b810103126109965785935138612385565b503d6125aa565b6125d8909691966126fe565b9438612358565b8580fd5b60405162461bcd60e51b8152600481018590526026818401527f4d65726375727947616d65466c69676874526163653a20746f6b656e206973206044820152651b1bd8dad95960d21b6064820152608490fd5b61264d9150853d87116107f2576107e48183612767565b38612325565b50346101f35760203660031901126101f35760406020916004358152600783522054604051908152f35b90503461024d57602036600319011261024d5760043563ffffffff60e01b8116809103610ab95760209250630271189760e51b81149081156126c1575b5015158152f35b6301ffc9a760e01b149050386126ba565b602435906001600160a01b038216820361099657565b604435906001600160a01b038216820361099657565b67ffffffffffffffff8111611f5c57604052565b6060810190811067ffffffffffffffff821117611f5c57604052565b6040810190811067ffffffffffffffff821117611f5c57604052565b610ca0810190811067ffffffffffffffff821117611f5c57604052565b90601f8019910116810190811067ffffffffffffffff821117611f5c57604052565b9080601f8301121561099657604051916127a28361272e565b82906040810192831161099657905b8282106127be5750505090565b81358152602091820191016127b1565b600435906001600160a01b038216820361099657565b6000915b606583106127f557505050565b6001908251815260208091019201920191906127e8565b9080601f830112156109965781359067ffffffffffffffff8211611f5c578160051b6040519360209361284185840187612767565b85528380860192820101928311610996578301905b828210612864575050505090565b81358152908301908301612856565b81601f820112156109965780359067ffffffffffffffff8211611f5c57604051926128a8601f8401601f191660200185612767565b8284526020838301011161099657816000926020809301838601378301015290565b90816020910312610996575180151581036109965790565b60405163430c208160e01b815233600482015260248101829052916001600160a01b0391906020908490604490829086165afa92831561298757600093612967575b50821561293057505090565b9091506000527f56b93a8e38195cdaee211df396a77bc4208055a0c0efbf73458ddca9d28094416020523390604060002054161490565b61298091935060203d81116107f2576107e48183612767565b9138612924565b6040513d6000823e3d90fd5b1561299a57565b60405162461bcd60e51b815260206004820152603660248201527f4d65726375727947616d65426173653a2063616c6c6572206973206e6f7420746044820152751bdad95b881bdddb995c881bdc88185c1c1c9bdd995960521b6064820152608490fd5b6001600160a01b031660009081527f56b93a8e38195cdaee211df396a77bc4208055a0c0efbf73458ddca9d28094456020526040902090565b15612a3e57565b60405162461bcd60e51b815260206004820152602260248201527f4c69624469616d6f6e643a204d75737420626520636f6e7472616374206f776e60448201526132b960f11b6064820152608490fd5b15612a9557565b60405162461bcd60e51b815260206004820152603c60248201527f4d65726375727947616d65466c69676874526163653a2063616c6c657220697360448201527f206e6f7420746f6b656e206f776e6572206f7220617070726f766564000000006064820152608490fd5b15612b0757565b60405162461bcd60e51b815260206004820152602a6024820152600080516020612e828339815191526044820152692067616d65537461746560b01b6064820152608490fd5b805115612b5a5760200190565b634e487b7160e01b600052603260045260246000fd5b805160011015612b5a5760400190565b9081602091031261099657516001600160a01b03811681036109965790565b90815180825260208080930193019160005b828110612bbf575050505090565b835185529381019392810192600101612bb1565b6001600160a01b03918216815291166020820152608060408201819052612c10939192612c0291840190612b9f565b916060818403910152612b9f565b90565b91908201809211612c2057565b634e487b7160e01b600052601160045260246000fd5b15612c3d57565b60405162461bcd60e51b815260206004820152602a60248201527f4d65726375727947616d65466c69676874526163653a206e6f206d617463686560448201526919081bdc1c1bdb995b9d60b21b6064820152608490fd5b6060810192916000915b60038310612cac57505050565b600190825181526020809101920192019190612c9f565b6000915b60028310612cd457505050565b600190825181526020809101920192019190612cc7565b906000905b60028210612cfd57505050565b6020604082612d0f6001948751612cc3565b01930191019091612cf0565b15612d2257565b60405162461bcd60e51b81526020600482015260346024820152600080516020612e82833981519152604482015273040eae6cac840e4cae6deeae4c6cae640d0c2e6d60631b6064820152608490fd5b612da6612dad94612d9c61010094989795612d9285610da081019b612cc3565b6040850190612ceb565b60c0830190612cc3565b01906127e4565b565b818110612dba575050565b60008155600101612daf565b90604051916040830183811067ffffffffffffffff821117611f5c576040528252602090818301526040519163014cf2b360e51b8352600483016000905b8360028310612e6d57925050508260448173__$bbc8db8f00746e1281b1f7cb2b3b69d744$__5af490811561298757600091612e41575b50905090565b82813d8311612e66575b612e558183612767565b810103126101f35750518038612e3b565b503d612e4b565b806001928551815201930191019091612e0456fe4d65726375727947616d65466c69676874526163653a20696e636f7272656374a2646970667358221220e8bcda804109c00e605dc1b32a6b09204f152255843a4a88786813d4a01c44f064736f6c63430008130033",
    "linkReferences": {
      "contracts/libraries/poseidon.sol": {
        "PoseidonT3": [
          {
            "start": 12169,
            "length": 20
          }
        ],
        "PoseidonT4": [
          {
            "start": 6853,
            "length": 20
          }
        ]
      }
    }
  },
  "methodIdentifiers": {
    "approveForGame(address,uint256,address)": "7cc906a5",
    "burnerAddressToTokenId(address)": "2e0afd12",
    "claimTimeoutPenalty(uint256,address)": "62061ac1",
    "commitPath(uint256,uint256[2],uint256[2][2],uint256[2],uint256[9],address)": "09275d0d",
    "committedHash(uint256)": "e1a9888e",
    "componentIndex()": "4e7c19db",
    "gameState(uint256)": "4e0e1a3e",
    "gameTank(uint256)": "55a31b05",
    "getMap(uint256,address)": "13cbe0c3",
    "getOpponentFinalTime(uint256)": "8af01e5b",
    "getOpponentPath(uint256)": "98420912",
    "getOpponentUsedResources(uint256)": "513858f0",
    "isApprovedForGame(uint256,address)": "3a7626f4",
    "loadFuelBatteryToGameTank(uint256,uint256,uint256,address)": "8f56cab6",
    "mapId(uint256)": "653ec4e5",
    "matchedAviationIDs(uint256)": "62cbe431",
    "onERC1155BatchReceived(address,address,uint256[],uint256[],bytes)": "bc197c81",
    "onERC1155Received(address,address,uint256,uint256,bytes)": "f23a6e61",
    "owner()": "8da5cb5b",
    "postGameCleanUp(uint256,address)": "75cc823e",
    "refreshAddresses(address,address,address)": "e99100b7",
    "retreat(uint256,address)": "605d17fb",
    "revealPath(uint256,uint256,uint256,uint256[2],uint256[2][2],uint256[2],uint256[101],uint256[2],uint256[2][2],uint256[2],uint256[101],address)": "df6fd7f6",
    "searchOpponent(uint256,address)": "089bf40a",
    "supportsInterface(bytes4)": "01ffc9a7",
    "timeout(uint256)": "08148f7a",
    "transferOwnership(address)": "f2fde38b",
    "unapproveForGame(uint256,address)": "0e1e66c6",
    "withdrawFromQueue(uint256,address)": "86354bce"
  },
  "id": 541
}