{
  "abi": [
    {
      "inputs": [],
      "stateMutability": "nonpayable",
      "type": "constructor"
    },
    {
      "inputs": [],
      "name": "ERC1155Base__ArrayLengthMismatch",
      "type": "error"
    },
    {
      "inputs": [],
      "name": "ERC1155Base__BalanceQueryZeroAddress",
      "type": "error"
    },
    {
      "inputs": [],
      "name": "ERC1155Base__BurnExceedsBalance",
      "type": "error"
    },
    {
      "inputs": [],
      "name": "ERC1155Base__BurnFromZeroAddress",
      "type": "error"
    },
    {
      "inputs": [],
      "name": "ERC1155Base__ERC1155ReceiverNotImplemented",
      "type": "error"
    },
    {
      "inputs": [],
      "name": "ERC1155Base__ERC1155ReceiverRejected",
      "type": "error"
    },
    {
      "inputs": [],
      "name": "ERC1155Base__MintToZeroAddress",
      "type": "error"
    },
    {
      "inputs": [],
      "name": "ERC1155Base__NotOwnerOrApproved",
      "type": "error"
    },
    {
      "inputs": [],
      "name": "ERC1155Base__SelfApproval",
      "type": "error"
    },
    {
      "inputs": [],
      "name": "ERC1155Base__TransferExceedsBalance",
      "type": "error"
    },
    {
      "inputs": [],
      "name": "ERC1155Base__TransferToZeroAddress",
      "type": "error"
    },
    {
      "inputs": [],
      "name": "ERC165Base__InvalidInterfaceId",
      "type": "error"
    },
    {
      "inputs": [],
      "name": "EnumerableSet__IndexOutOfBounds",
      "type": "error"
    },
    {
      "anonymous": false,
      "inputs": [
        {
          "indexed": true,
          "internalType": "address",
          "name": "account",
          "type": "address"
        },
        {
          "indexed": true,
          "internalType": "address",
          "name": "operator",
          "type": "address"
        },
        {
          "indexed": false,
          "internalType": "bool",
          "name": "approved",
          "type": "bool"
        }
      ],
      "name": "ApprovalForAll",
      "type": "event"
    },
    {
      "anonymous": false,
      "inputs": [
        {
          "indexed": true,
          "internalType": "address",
          "name": "operator",
          "type": "address"
        },
        {
          "indexed": true,
          "internalType": "address",
          "name": "from",
          "type": "address"
        },
        {
          "indexed": true,
          "internalType": "address",
          "name": "to",
          "type": "address"
        },
        {
          "indexed": false,
          "internalType": "uint256[]",
          "name": "ids",
          "type": "uint256[]"
        },
        {
          "indexed": false,
          "internalType": "uint256[]",
          "name": "values",
          "type": "uint256[]"
        }
      ],
      "name": "TransferBatch",
      "type": "event"
    },
    {
      "anonymous": false,
      "inputs": [
        {
          "indexed": true,
          "internalType": "address",
          "name": "operator",
          "type": "address"
        },
        {
          "indexed": true,
          "internalType": "address",
          "name": "from",
          "type": "address"
        },
        {
          "indexed": true,
          "internalType": "address",
          "name": "to",
          "type": "address"
        },
        {
          "indexed": false,
          "internalType": "uint256",
          "name": "id",
          "type": "uint256"
        },
        {
          "indexed": false,
          "internalType": "uint256",
          "name": "value",
          "type": "uint256"
        }
      ],
      "name": "TransferSingle",
      "type": "event"
    },
    {
      "inputs": [
        {
          "internalType": "address",
          "name": "account",
          "type": "address"
        },
        {
          "internalType": "uint256",
          "name": "id",
          "type": "uint256"
        },
        {
          "internalType": "uint256",
          "name": "amount",
          "type": "uint256"
        }
      ],
      "name": "__burn",
      "outputs": [],
      "stateMutability": "nonpayable",
      "type": "function"
    },
    {
      "inputs": [
        {
          "internalType": "address",
          "name": "account",
          "type": "address"
        },
        {
          "internalType": "uint256",
          "name": "id",
          "type": "uint256"
        },
        {
          "internalType": "uint256",
          "name": "amount",
          "type": "uint256"
        }
      ],
      "name": "__mint",
      "outputs": [],
      "stateMutability": "nonpayable",
      "type": "function"
    },
    {
      "inputs": [
        {
          "internalType": "uint256",
          "name": "id",
          "type": "uint256"
        }
      ],
      "name": "accountsByToken",
      "outputs": [
        {
          "internalType": "address[]",
          "name": "",
          "type": "address[]"
        }
      ],
      "stateMutability": "view",
      "type": "function"
    },
    {
      "inputs": [
        {
          "internalType": "address",
          "name": "account",
          "type": "address"
        },
        {
          "internalType": "uint256",
          "name": "id",
          "type": "uint256"
        }
      ],
      "name": "balanceOf",
      "outputs": [
        {
          "internalType": "uint256",
          "name": "",
          "type": "uint256"
        }
      ],
      "stateMutability": "view",
      "type": "function"
    },
    {
      "inputs": [
        {
          "internalType": "address[]",
          "name": "accounts",
          "type": "address[]"
        },
        {
          "internalType": "uint256[]",
          "name": "ids",
          "type": "uint256[]"
        }
      ],
      "name": "balanceOfBatch",
      "outputs": [
        {
          "internalType": "uint256[]",
          "name": "",
          "type": "uint256[]"
        }
      ],
      "stateMutability": "view",
      "type": "function"
    },
    {
      "inputs": [
        {
          "internalType": "address",
          "name": "account",
          "type": "address"
        },
        {
          "internalType": "address",
          "name": "operator",
          "type": "address"
        }
      ],
      "name": "isApprovedForAll",
      "outputs": [
        {
          "internalType": "bool",
          "name": "",
          "type": "bool"
        }
      ],
      "stateMutability": "view",
      "type": "function"
    },
    {
      "inputs": [
        {
          "internalType": "address",
          "name": "from",
          "type": "address"
        },
        {
          "internalType": "address",
          "name": "to",
          "type": "address"
        },
        {
          "internalType": "uint256[]",
          "name": "ids",
          "type": "uint256[]"
        },
        {
          "internalType": "uint256[]",
          "name": "amounts",
          "type": "uint256[]"
        },
        {
          "internalType": "bytes",
          "name": "data",
          "type": "bytes"
        }
      ],
      "name": "safeBatchTransferFrom",
      "outputs": [],
      "stateMutability": "nonpayable",
      "type": "function"
    },
    {
      "inputs": [
        {
          "internalType": "address",
          "name": "from",
          "type": "address"
        },
        {
          "internalType": "address",
          "name": "to",
          "type": "address"
        },
        {
          "internalType": "uint256",
          "name": "id",
          "type": "uint256"
        },
        {
          "internalType": "uint256",
          "name": "amount",
          "type": "uint256"
        },
        {
          "internalType": "bytes",
          "name": "data",
          "type": "bytes"
        }
      ],
      "name": "safeTransferFrom",
      "outputs": [],
      "stateMutability": "nonpayable",
      "type": "function"
    },
    {
      "inputs": [
        {
          "internalType": "address",
          "name": "operator",
          "type": "address"
        },
        {
          "internalType": "bool",
          "name": "status",
          "type": "bool"
        }
      ],
      "name": "setApprovalForAll",
      "outputs": [],
      "stateMutability": "nonpayable",
      "type": "function"
    },
    {
      "inputs": [
        {
          "internalType": "bytes4",
          "name": "interfaceId",
          "type": "bytes4"
        }
      ],
      "name": "supportsInterface",
      "outputs": [
        {
          "internalType": "bool",
          "name": "",
          "type": "bool"
        }
      ],
      "stateMutability": "view",
      "type": "function"
    },
    {
      "inputs": [
        {
          "internalType": "address",
          "name": "account",
          "type": "address"
        }
      ],
      "name": "tokensByAccount",
      "outputs": [
        {
          "internalType": "uint256[]",
          "name": "",
          "type": "uint256[]"
        }
      ],
      "stateMutability": "view",
      "type": "function"
    },
    {
      "inputs": [
        {
          "internalType": "uint256",
          "name": "id",
          "type": "uint256"
        }
      ],
      "name": "totalHolders",
      "outputs": [
        {
          "internalType": "uint256",
          "name": "",
          "type": "uint256"
        }
      ],
      "stateMutability": "view",
      "type": "function"
    },
    {
      "inputs": [
        {
          "internalType": "uint256",
          "name": "id",
          "type": "uint256"
        }
      ],
      "name": "totalSupply",
      "outputs": [
        {
          "internalType": "uint256",
          "name": "",
          "type": "uint256"
        }
      ],
      "stateMutability": "view",
      "type": "function"
    }
  ],
  "bytecode": {
    "object": "0x608080604052346100a0577ffc606c433378e3a7e0a6a531deac289b66caa1b4aa8554fd4ab2c6f1570f92d86020527f3df35b507c5de77f483b4e9b5c258409299a2e6dc816fa76a389e598628b08a58054600160ff199182168117909255636cdb3d1360e11b6000527fc4fa7de3a4df0d92e714265b62d48380cee39dd7653eba0d3265c599c330a3aa8054909116909117905561176e90816100a68239f35b600080fdfe6080604052600436101561001257600080fd5b60003560e01c8062fdd58e1461113457806301ffc9a7146110d357806313ba55df1461109a5780632eb2c2d614610c685780634e1273f414610af95780636dcfd84114610a1c57806372b0589c1461085857806385bff2e7146107e9578063a22cb4651461074f578063bd85b03914610716578063c12e5c681461052f578063e985e9c5146104e15763f242432a146100aa57600080fd5b346104dc5760a03660031901126104dc576100c3611163565b6100cb611179565b9060843567ffffffffffffffff81116104dc576100ec903690600401611259565b916001600160a01b0390828216331415806104bc575b6104ab578181161561049957610119604435611423565b610124606435611423565b83831684861603610326575b5050604435600052600080516020611719833981519152936020948086526040600020848616600052865260406000205480606435116103145760443560005281875260406000208587166000528752606435900360406000205560443560005285526040600020838316600052855260406000206101b26064358254611416565b905560405160443581526064358682015283831690848616907fc3d58168c5ae7397731d063d5bbf3d657854427343f4c083240f7aacaa2d0f6260403392a4813b6101f957005b84916102449160006040519586809581948363f23a6e6160e01b9b8c85523360048601521660248401526044356044840152606435606484015260a0608484015260a4830190611479565b0393165af1600091816102e5575b506102c25750506001906102646114b9565b6308c379a014610289575b50610277575b005b60405163380147a960e01b8152600490fd5b6102916114d7565b908161029d575061026f565b6102be60405192839262461bcd60e51b845260048401526024830190611479565b0390fd5b6001600160e01b03191614905061027557604051633744db2960e01b8152600490fd5b610306919250843d861161030d575b6102fe81836111c1565b810190611459565b9038610252565b503d6102f4565b60405163119ac6bb60e31b8152600490fd5b9094939291610334846113a3565b9361033e826113a3565b9260005b8851811015610489576103558183611340565b519081610367575b6001915001610342565b610371818b611340565b5184881661044257806000526000805160206116d9833981519152602052604060002061039f848254611416565b90555b8588166103f0576000526000805160206116d9833981519152602052604060002080549283818103116103da5760019303905561035d565b634e487b7160e01b600052601160045260246000fd5b600192506103fe81876113dc565b1561040a575b5061035d565b8061043b916000526000805160206116f98339815191526020526104348988166040600020611590565b5087611590565b5038610404565b8261044d82876113dc565b036103a257806000526000805160206116f98339815191526020526104788886166040600020611627565b50610483818a611627565b506103a2565b5050949550919250503880610130565b60405163f5cadad560e01b8152600490fd5b6040516212efed60e91b8152600490fd5b506104c68361136a565b3360005260205260ff6040600020541615610102565b600080fd5b346104dc5760403660031901126104dc576104fa611163565b61050b610505611179565b9161136a565b9060018060a01b0316600052602052602060ff604060002054166040519015158152f35b346104dc5761053d366112e4565b6001600160a01b038316929091831591826107045761055b82611423565b9461056585611423565b9360006040516105748161118f565b5261057e836113a3565b94600080526020947fb31c2c74f86ca3ce94d901f5f5bbe66f7161eec2f7b5aa0b75a86371436424ec865260005b895181101561067d576105bf8184611340565b5190816105d1575b60019150016105ac565b6105db818c611340565b51851561063957806000526000805160206116d983398151915289526040600020610607848254611416565b90555b6000526000805160206116d9833981519152885260406000209182549081039081116103da57600192556105c7565b82610644828a6113dc565b0361060a57806000526000805160206116f9833981519152895261066c876040600020611627565b50610677818b611627565b5061060a565b8685838b8160005260008051602061171983398151915284526040600020938360005284815260406000205482116106f2576000948486528152604085208281540390556040519283528201527fc3d58168c5ae7397731d063d5bbf3d657854427343f4c083240f7aacaa2d0f6260403392a4005b604051634190713d60e01b8152600490fd5b60405163baa75df760e01b8152600490fd5b346104dc5760203660031901126104dc576004356000526000805160206116d98339815191526020526020604060002054604051908152f35b346104dc5760403660031901126104dc57610768611163565b602435908115158092036104dc576001600160a01b0316903382146107d7576107903361136a565b82600052602052604060002060ff1981541660ff83161790556040519081527f17307eab39ab6107e8899845ad3d59bd9653f200f220920489ca2b5937696c3160203392a3005b604051637b30a93360e11b8152600490fd5b346104dc5760203660031901126104dc5761080a610805611163565b6113a3565b80546108158161130e565b9160005b82811061083a5760405160208082528190610836908201876112b0565b0390f35b8061084760019284611561565b6108518287611340565b5201610819565b346104dc57610866366112e4565b909160006040516108768161118f565b526001600160a01b0381169283159182610a0a5761089382611423565b9461089d85611423565b92600080526020937fb31c2c74f86ca3ce94d901f5f5bbe66f7161eec2f7b5aa0b75a86371436424ec85526108d1846113a3565b9160005b89518110156109a5576108e88184611340565b5190816108fa575b60019150016108d5565b610904818c611340565b51806000526000805160206116d983398151915290818a52604060002061092c858254611416565b90558a1561095457600052885260406000209182549081039081116103da57600192556108f0565b90506001925061096481896113dc565b15610970575b506108f0565b8061099e916000526000805160206116f98339815191528a52610997886040600020611590565b5086611590565b508b61096a565b846000838b8a8284526000805160206117198339815191528152604084208585528152604084206109d7838254611416565b90556040519283528201527fc3d58168c5ae7397731d063d5bbf3d657854427343f4c083240f7aacaa2d0f6260403392a4005b6040516301c8efbf60e11b8152600490fd5b346104dc576020806003193601126104dc576004356000526000805160206116f9833981519152815260406000208054610a55816111e3565b90610a6360405192836111c1565b808252610a6f816111e3565b8285019390601f190136853760005b828110610ad25750505090604051928392818401908285525180915260408401929160005b828110610ab257505050500390f35b83516001600160a01b031685528695509381019392810192600101610aa3565b6001906001600160a01b03610ae78285611561565b16610af28287611340565b5201610a7e565b346104dc5760403660031901126104dc5760043567ffffffffffffffff8082116104dc57366023830112156104dc57816004013590610b37826111e3565b92610b4560405194856111c1565b82845260209260248486019160051b830101913683116104dc57602401905b828210610c49575050506024359081116104dc57610b869036906004016111fb565b918051835103610c3757610b9a815161130e565b9060005b8151811015610c24576001600160a01b039081610bbb8285611340565b511615610c1257600191610bcf8288611340565b516000526000805160206117198339815191528652604060002090610bf48386611340565b51166000528552604060002054610c0b8286611340565b5201610b9e565b60405163db5d879760e01b8152600490fd5b60405184815280610836818701866112b0565b604051633e7e0b6d60e11b8152600490fd5b81356001600160a01b03811681036104dc578152908401908401610b64565b346104dc5760a03660031901126104dc57610c81611163565b610c89611179565b67ffffffffffffffff916044358381116104dc57610cab9036906004016111fb565b6064358481116104dc57610cc39036906004016111fb565b936084359081116104dc57610cdc903690600401611259565b916001600160a01b03918282163314158061107a575b6104ab5782851615610499578051865103610c375782851683831603610f28575b6000935b8151851015610db657610d2a8583611340565b5194610d368189611340565b519086600052600080516020611719833981519152602091818352604060002088881660005283526040600020549081851161031457846001928b60005284865260406000208b8b166000528652036040600020550197600052815260406000209086891660005252610daf6040600020918254611416565b9055610d17565b908684879260405160408152610dcf60408201836112b0565b908082036020820152838616917f4a39dc06d4c0dbc64b70af90fd698a233a518aa5d07e595d983b8c0526c8f7fb858a169280610e0d33948a6112b0565b0390a4833b610e1857005b60405163bc197c8160e01b808252336004830152968316602482015260a060448201529485938492610e4e9060a48501906112b0565b838103600319016064850152610e63916112b0565b828103600319016084840152610e7891611479565b03921691815a602094600091f160009181610f08575b50610ee75750506001610e9f6114b9565b6308c379a014610eb0575b61027757005b610eb86114d7565b80610ec35750610eaa565b60405162461bcd60e51b8152602060048201529081906102be906024830190611479565b6001600160e01b0319161461027557604051633744db2960e01b8152600490fd5b610f2191925060203d811161030d576102fe81836111c1565b9083610e8e565b94909293610f35846113a3565b93610f3f826113a3565b9260005b885181101561106d57610f568183611340565b519081610f68575b6001915001610f43565b610f72818b611340565b5184881661102657806000526000805160206116d98339815191526020526040600020610fa0848254611416565b90555b858816610fdb576000526000805160206116d9833981519152602052604060002080549283818103116103da57600193039055610f5e565b60019250610fe981876113dc565b15610ff5575b50610f5e565b8061101f916000526000805160206116f98339815191526020526104348988166040600020611590565b508a610fef565b8261103182876113dc565b03610fa357806000526000805160206116f983398151915260205261105c8886166040600020611627565b50611067818a611627565b50610fa3565b5096919594509150610d13565b506110848261136a565b3360005260205260ff6040600020541615610cf2565b346104dc5760203660031901126104dc576004356000526000805160206116f98339815191526020526020604060002054604051908152f35b346104dc5760203660031901126104dc5760043563ffffffff60e01b81168091036104dc576000527ffc606c433378e3a7e0a6a531deac289b66caa1b4aa8554fd4ab2c6f1570f92d8602052602060ff604060002054166040519015158152f35b346104dc5760403660031901126104dc57602061115b611152611163565b602435906113dc565b604051908152f35b600435906001600160a01b03821682036104dc57565b602435906001600160a01b03821682036104dc57565b6020810190811067ffffffffffffffff8211176111ab57604052565b634e487b7160e01b600052604160045260246000fd5b90601f8019910116810190811067ffffffffffffffff8211176111ab57604052565b67ffffffffffffffff81116111ab5760051b60200190565b81601f820112156104dc57803591611212836111e3565b9261122060405194856111c1565b808452602092838086019260051b8201019283116104dc578301905b82821061124a575050505090565b8135815290830190830161123c565b81601f820112156104dc5780359067ffffffffffffffff82116111ab576040519261128e601f8401601f1916602001856111c1565b828452602083830101116104dc57816000926020809301838601378301015290565b90815180825260208080930193019160005b8281106112d0575050505090565b8351855293810193928101926001016112c2565b60609060031901126104dc576004356001600160a01b03811681036104dc57906024359060443590565b90611318826111e3565b61132560405191826111c1565b8281528092611336601f19916111e3565b0190602036910137565b80518210156113545760209160051b010190565b634e487b7160e01b600052603260045260246000fd5b6001600160a01b031660009081527f1799cf914cb0cb442ca7c7ac709ee40d0cb89e87351dc08d517fbda27d50c68c6020526040902090565b6001600160a01b031660009081527fb31c2c74f86ca3ce94d901f5f5bbe66f7161eec2f7b5aa0b75a86371436424ec6020526040902090565b6001600160a01b0316908115610c125760005260008051602061171983398151915260205260406000209060005260205260406000205490565b919082018092116103da57565b604051906040820182811067ffffffffffffffff8211176111ab5760405260018252602082016020368237825115611354575290565b908160209103126104dc57516001600160e01b0319811681036104dc5790565b919082519283825260005b8481106114a5575050826000602080949584010152601f8019910116010190565b602081830181015184830182015201611484565b60009060033d116114c657565b905060046000803e60005160e01c90565b600060443d1061153557604051600319913d83016004833e815167ffffffffffffffff918282113d60248401111761153857818401948551938411611540573d850101602084870101116115385750611535929101602001906111c1565b90565b949350505050565b50949350505050565b80548210156113545760005260206000200190600090565b90815481101561157e5761157491611549565b90549060031b1c90565b60405163e637bf3b60e01b8152600490fd5b919091600092600060018301828252806020526040822054156115b4575b50505050565b90919280955054946801000000000000000086101561161357836115fc6115e5886001604098999a01855584611549565b819391549060031b91821b91600019901b19161790565b9055549382526020522055600190388080806115ae565b634e487b7160e01b83526041600452602483fd5b91906000926000916001820191818452826020526040842054908161164e575b5050505050565b90919293949550600019916116668383540183611549565b90549060031b1c8061167d6115e586850186611549565b90558652846020526040862055805480156116c45782019161169f8383611549565b909182549160031b1b1916905555825260205260408120556001903880808080611647565b634e487b7160e01b86526031600452602486fdfeb31c2c74f86ca3ce94d901f5f5bbe66f7161eec2f7b5aa0b75a86371436424eab31c2c74f86ca3ce94d901f5f5bbe66f7161eec2f7b5aa0b75a86371436424eb1799cf914cb0cb442ca7c7ac709ee40d0cb89e87351dc08d517fbda27d50c68ba2646970667358221220d73d977506a4a7b25d6c8fb3aa8ddc7b1ac134cc7b5657c25f838fe783b2d5ac64736f6c63430008130033",
    "linkReferences": {}
  },
  "methodIdentifiers": {
    "__burn(address,uint256,uint256)": "c12e5c68",
    "__mint(address,uint256,uint256)": "72b0589c",
    "accountsByToken(uint256)": "6dcfd841",
    "balanceOf(address,uint256)": "00fdd58e",
    "balanceOfBatch(address[],uint256[])": "4e1273f4",
    "isApprovedForAll(address,address)": "e985e9c5",
    "safeBatchTransferFrom(address,address,uint256[],uint256[],bytes)": "2eb2c2d6",
    "safeTransferFrom(address,address,uint256,uint256,bytes)": "f242432a",
    "setApprovalForAll(address,bool)": "a22cb465",
    "supportsInterface(bytes4)": "01ffc9a7",
    "tokensByAccount(address)": "85bff2e7",
    "totalHolders(uint256)": "13ba55df",
    "totalSupply(uint256)": "bd85b039"
  },
  "id": 375
}