{
  "abi": [
    {
      "inputs": [
        {
          "internalType": "address",
          "name": "asset",
          "type": "address"
        },
        {
          "internalType": "string",
          "name": "name",
          "type": "string"
        },
        {
          "internalType": "string",
          "name": "symbol",
          "type": "string"
        },
        {
          "internalType": "uint8",
          "name": "decimals",
          "type": "uint8"
        }
      ],
      "stateMutability": "nonpayable",
      "type": "constructor"
    },
    {
      "inputs": [],
      "name": "AddressUtils__NotContract",
      "type": "error"
    },
    {
      "inputs": [],
      "name": "ECDSA__InvalidS",
      "type": "error"
    },
    {
      "inputs": [],
      "name": "ECDSA__InvalidSignature",
      "type": "error"
    },
    {
      "inputs": [],
      "name": "ECDSA__InvalidV",
      "type": "error"
    },
    {
      "inputs": [],
      "name": "ERC20Base__ApproveFromZeroAddress",
      "type": "error"
    },
    {
      "inputs": [],
      "name": "ERC20Base__ApproveToZeroAddress",
      "type": "error"
    },
    {
      "inputs": [],
      "name": "ERC20Base__BurnExceedsBalance",
      "type": "error"
    },
    {
      "inputs": [],
      "name": "ERC20Base__BurnFromZeroAddress",
      "type": "error"
    },
    {
      "inputs": [],
      "name": "ERC20Base__InsufficientAllowance",
      "type": "error"
    },
    {
      "inputs": [],
      "name": "ERC20Base__MintToZeroAddress",
      "type": "error"
    },
    {
      "inputs": [],
      "name": "ERC20Base__TransferExceedsBalance",
      "type": "error"
    },
    {
      "inputs": [],
      "name": "ERC20Base__TransferFromZeroAddress",
      "type": "error"
    },
    {
      "inputs": [],
      "name": "ERC20Base__TransferToZeroAddress",
      "type": "error"
    },
    {
      "inputs": [],
      "name": "ERC20Extended__ExcessiveAllowance",
      "type": "error"
    },
    {
      "inputs": [],
      "name": "ERC20Extended__InsufficientAllowance",
      "type": "error"
    },
    {
      "inputs": [],
      "name": "ERC20Permit__ExpiredDeadline",
      "type": "error"
    },
    {
      "inputs": [],
      "name": "ERC20Permit__InvalidSignature",
      "type": "error"
    },
    {
      "inputs": [],
      "name": "ERC4626Base__AllowanceExceeded",
      "type": "error"
    },
    {
      "inputs": [],
      "name": "ERC4626Base__MaximumAmountExceeded",
      "type": "error"
    },
    {
      "inputs": [],
      "name": "SafeERC20__OperationFailed",
      "type": "error"
    },
    {
      "anonymous": false,
      "inputs": [
        {
          "indexed": false,
          "internalType": "address",
          "name": "receiver",
          "type": "address"
        },
        {
          "indexed": false,
          "internalType": "uint256",
          "name": "assetAmount",
          "type": "uint256"
        },
        {
          "indexed": false,
          "internalType": "uint256",
          "name": "shareAmount",
          "type": "uint256"
        }
      ],
      "name": "AfterDepositCheck",
      "type": "event"
    },
    {
      "anonymous": false,
      "inputs": [
        {
          "indexed": true,
          "internalType": "address",
          "name": "owner",
          "type": "address"
        },
        {
          "indexed": true,
          "internalType": "address",
          "name": "spender",
          "type": "address"
        },
        {
          "indexed": false,
          "internalType": "uint256",
          "name": "value",
          "type": "uint256"
        }
      ],
      "name": "Approval",
      "type": "event"
    },
    {
      "anonymous": false,
      "inputs": [
        {
          "indexed": false,
          "internalType": "address",
          "name": "owner",
          "type": "address"
        },
        {
          "indexed": false,
          "internalType": "uint256",
          "name": "assetAmount",
          "type": "uint256"
        },
        {
          "indexed": false,
          "internalType": "uint256",
          "name": "shareAmount",
          "type": "uint256"
        }
      ],
      "name": "BeforeWithdrawCheck",
      "type": "event"
    },
    {
      "anonymous": false,
      "inputs": [
        {
          "indexed": true,
          "internalType": "address",
          "name": "caller",
          "type": "address"
        },
        {
          "indexed": true,
          "internalType": "address",
          "name": "owner",
          "type": "address"
        },
        {
          "indexed": false,
          "internalType": "uint256",
          "name": "assets",
          "type": "uint256"
        },
        {
          "indexed": false,
          "internalType": "uint256",
          "name": "shares",
          "type": "uint256"
        }
      ],
      "name": "Deposit",
      "type": "event"
    },
    {
      "anonymous": false,
      "inputs": [
        {
          "indexed": true,
          "internalType": "address",
          "name": "from",
          "type": "address"
        },
        {
          "indexed": true,
          "internalType": "address",
          "name": "to",
          "type": "address"
        },
        {
          "indexed": false,
          "internalType": "uint256",
          "name": "value",
          "type": "uint256"
        }
      ],
      "name": "Transfer",
      "type": "event"
    },
    {
      "anonymous": false,
      "inputs": [
        {
          "indexed": true,
          "internalType": "address",
          "name": "caller",
          "type": "address"
        },
        {
          "indexed": true,
          "internalType": "address",
          "name": "receiver",
          "type": "address"
        },
        {
          "indexed": true,
          "internalType": "address",
          "name": "owner",
          "type": "address"
        },
        {
          "indexed": false,
          "internalType": "uint256",
          "name": "assets",
          "type": "uint256"
        },
        {
          "indexed": false,
          "internalType": "uint256",
          "name": "shares",
          "type": "uint256"
        }
      ],
      "name": "Withdraw",
      "type": "event"
    },
    {
      "inputs": [],
      "name": "DOMAIN_SEPARATOR",
      "outputs": [
        {
          "internalType": "bytes32",
          "name": "domainSeparator",
          "type": "bytes32"
        }
      ],
      "stateMutability": "view",
      "type": "function"
    },
    {
      "inputs": [
        {
          "internalType": "address",
          "name": "account",
          "type": "address"
        },
        {
          "internalType": "uint256",
          "name": "amount",
          "type": "uint256"
        }
      ],
      "name": "__burn",
      "outputs": [],
      "stateMutability": "nonpayable",
      "type": "function"
    },
    {
      "inputs": [
        {
          "internalType": "address",
          "name": "account",
          "type": "address"
        },
        {
          "internalType": "uint256",
          "name": "amount",
          "type": "uint256"
        }
      ],
      "name": "__mint",
      "outputs": [],
      "stateMutability": "nonpayable",
      "type": "function"
    },
    {
      "inputs": [
        {
          "internalType": "address",
          "name": "holder",
          "type": "address"
        },
        {
          "internalType": "address",
          "name": "spender",
          "type": "address"
        }
      ],
      "name": "allowance",
      "outputs": [
        {
          "internalType": "uint256",
          "name": "",
          "type": "uint256"
        }
      ],
      "stateMutability": "view",
      "type": "function"
    },
    {
      "inputs": [
        {
          "internalType": "address",
          "name": "spender",
          "type": "address"
        },
        {
          "internalType": "uint256",
          "name": "amount",
          "type": "uint256"
        }
      ],
      "name": "approve",
      "outputs": [
        {
          "internalType": "bool",
          "name": "",
          "type": "bool"
        }
      ],
      "stateMutability": "nonpayable",
      "type": "function"
    },
    {
      "inputs": [],
      "name": "asset",
      "outputs": [
        {
          "internalType": "address",
          "name": "",
          "type": "address"
        }
      ],
      "stateMutability": "view",
      "type": "function"
    },
    {
      "inputs": [
        {
          "internalType": "address",
          "name": "account",
          "type": "address"
        }
      ],
      "name": "balanceOf",
      "outputs": [
        {
          "internalType": "uint256",
          "name": "",
          "type": "uint256"
        }
      ],
      "stateMutability": "view",
      "type": "function"
    },
    {
      "inputs": [
        {
          "internalType": "uint256",
          "name": "shareAmount",
          "type": "uint256"
        }
      ],
      "name": "convertToAssets",
      "outputs": [
        {
          "internalType": "uint256",
          "name": "assetAmount",
          "type": "uint256"
        }
      ],
      "stateMutability": "view",
      "type": "function"
    },
    {
      "inputs": [
        {
          "internalType": "uint256",
          "name": "assetAmount",
          "type": "uint256"
        }
      ],
      "name": "convertToShares",
      "outputs": [
        {
          "internalType": "uint256",
          "name": "shareAmount",
          "type": "uint256"
        }
      ],
      "stateMutability": "view",
      "type": "function"
    },
    {
      "inputs": [],
      "name": "decimals",
      "outputs": [
        {
          "internalType": "uint8",
          "name": "",
          "type": "uint8"
        }
      ],
      "stateMutability": "view",
      "type": "function"
    },
    {
      "inputs": [
        {
          "internalType": "address",
          "name": "spender",
          "type": "address"
        },
        {
          "internalType": "uint256",
          "name": "amount",
          "type": "uint256"
        }
      ],
      "name": "decreaseAllowance",
      "outputs": [
        {
          "internalType": "bool",
          "name": "",
          "type": "bool"
        }
      ],
      "stateMutability": "nonpayable",
      "type": "function"
    },
    {
      "inputs": [
        {
          "internalType": "uint256",
          "name": "assetAmount",
          "type": "uint256"
        },
        {
          "internalType": "address",
          "name": "receiver",
          "type": "address"
        }
      ],
      "name": "deposit",
      "outputs": [
        {
          "internalType": "uint256",
          "name": "shareAmount",
          "type": "uint256"
        }
      ],
      "stateMutability": "nonpayable",
      "type": "function"
    },
    {
      "inputs": [
        {
          "internalType": "address",
          "name": "spender",
          "type": "address"
        },
        {
          "internalType": "uint256",
          "name": "amount",
          "type": "uint256"
        }
      ],
      "name": "increaseAllowance",
      "outputs": [
        {
          "internalType": "bool",
          "name": "",
          "type": "bool"
        }
      ],
      "stateMutability": "nonpayable",
      "type": "function"
    },
    {
      "inputs": [
        {
          "internalType": "address",
          "name": "receiver",
          "type": "address"
        }
      ],
      "name": "maxDeposit",
      "outputs": [
        {
          "internalType": "uint256",
          "name": "maxAssets",
          "type": "uint256"
        }
      ],
      "stateMutability": "view",
      "type": "function"
    },
    {
      "inputs": [
        {
          "internalType": "address",
          "name": "receiver",
          "type": "address"
        }
      ],
      "name": "maxMint",
      "outputs": [
        {
          "internalType": "uint256",
          "name": "maxShares",
          "type": "uint256"
        }
      ],
      "stateMutability": "view",
      "type": "function"
    },
    {
      "inputs": [
        {
          "internalType": "address",
          "name": "owner",
          "type": "address"
        }
      ],
      "name": "maxRedeem",
      "outputs": [
        {
          "internalType": "uint256",
          "name": "maxShares",
          "type": "uint256"
        }
      ],
      "stateMutability": "view",
      "type": "function"
    },
    {
      "inputs": [
        {
          "internalType": "address",
          "name": "owner",
          "type": "address"
        }
      ],
      "name": "maxWithdraw",
      "outputs": [
        {
          "internalType": "uint256",
          "name": "maxAssets",
          "type": "uint256"
        }
      ],
      "stateMutability": "view",
      "type": "function"
    },
    {
      "inputs": [
        {
          "internalType": "uint256",
          "name": "shareAmount",
          "type": "uint256"
        },
        {
          "internalType": "address",
          "name": "receiver",
          "type": "address"
        }
      ],
      "name": "mint",
      "outputs": [
        {
          "internalType": "uint256",
          "name": "assetAmount",
          "type": "uint256"
        }
      ],
      "stateMutability": "nonpayable",
      "type": "function"
    },
    {
      "inputs": [],
      "name": "name",
      "outputs": [
        {
          "internalType": "string",
          "name": "",
          "type": "string"
        }
      ],
      "stateMutability": "view",
      "type": "function"
    },
    {
      "inputs": [
        {
          "internalType": "address",
          "name": "owner",
          "type": "address"
        }
      ],
      "name": "nonces",
      "outputs": [
        {
          "internalType": "uint256",
          "name": "",
          "type": "uint256"
        }
      ],
      "stateMutability": "view",
      "type": "function"
    },
    {
      "inputs": [
        {
          "internalType": "address",
          "name": "owner",
          "type": "address"
        },
        {
          "internalType": "address",
          "name": "spender",
          "type": "address"
        },
        {
          "internalType": "uint256",
          "name": "amount",
          "type": "uint256"
        },
        {
          "internalType": "uint256",
          "name": "deadline",
          "type": "uint256"
        },
        {
          "internalType": "uint8",
          "name": "v",
          "type": "uint8"
        },
        {
          "internalType": "bytes32",
          "name": "r",
          "type": "bytes32"
        },
        {
          "internalType": "bytes32",
          "name": "s",
          "type": "bytes32"
        }
      ],
      "name": "permit",
      "outputs": [],
      "stateMutability": "nonpayable",
      "type": "function"
    },
    {
      "inputs": [
        {
          "internalType": "uint256",
          "name": "assetAmount",
          "type": "uint256"
        }
      ],
      "name": "previewDeposit",
      "outputs": [
        {
          "internalType": "uint256",
          "name": "shareAmount",
          "type": "uint256"
        }
      ],
      "stateMutability": "view",
      "type": "function"
    },
    {
      "inputs": [
        {
          "internalType": "uint256",
          "name": "shareAmount",
          "type": "uint256"
        }
      ],
      "name": "previewMint",
      "outputs": [
        {
          "internalType": "uint256",
          "name": "assetAmount",
          "type": "uint256"
        }
      ],
      "stateMutability": "view",
      "type": "function"
    },
    {
      "inputs": [
        {
          "internalType": "uint256",
          "name": "shareAmount",
          "type": "uint256"
        }
      ],
      "name": "previewRedeem",
      "outputs": [
        {
          "internalType": "uint256",
          "name": "assetAmount",
          "type": "uint256"
        }
      ],
      "stateMutability": "view",
      "type": "function"
    },
    {
      "inputs": [
        {
          "internalType": "uint256",
          "name": "assetAmount",
          "type": "uint256"
        }
      ],
      "name": "previewWithdraw",
      "outputs": [
        {
          "internalType": "uint256",
          "name": "shareAmount",
          "type": "uint256"
        }
      ],
      "stateMutability": "view",
      "type": "function"
    },
    {
      "inputs": [
        {
          "internalType": "uint256",
          "name": "shareAmount",
          "type": "uint256"
        },
        {
          "internalType": "address",
          "name": "receiver",
          "type": "address"
        },
        {
          "internalType": "address",
          "name": "owner",
          "type": "address"
        }
      ],
      "name": "redeem",
      "outputs": [
        {
          "internalType": "uint256",
          "name": "assetAmount",
          "type": "uint256"
        }
      ],
      "stateMutability": "nonpayable",
      "type": "function"
    },
    {
      "inputs": [],
      "name": "symbol",
      "outputs": [
        {
          "internalType": "string",
          "name": "",
          "type": "string"
        }
      ],
      "stateMutability": "view",
      "type": "function"
    },
    {
      "inputs": [],
      "name": "totalAssets",
      "outputs": [
        {
          "internalType": "uint256",
          "name": "",
          "type": "uint256"
        }
      ],
      "stateMutability": "view",
      "type": "function"
    },
    {
      "inputs": [],
      "name": "totalSupply",
      "outputs": [
        {
          "internalType": "uint256",
          "name": "",
          "type": "uint256"
        }
      ],
      "stateMutability": "view",
      "type": "function"
    },
    {
      "inputs": [
        {
          "internalType": "address",
          "name": "recipient",
          "type": "address"
        },
        {
          "internalType": "uint256",
          "name": "amount",
          "type": "uint256"
        }
      ],
      "name": "transfer",
      "outputs": [
        {
          "internalType": "bool",
          "name": "",
          "type": "bool"
        }
      ],
      "stateMutability": "nonpayable",
      "type": "function"
    },
    {
      "inputs": [
        {
          "internalType": "address",
          "name": "holder",
          "type": "address"
        },
        {
          "internalType": "address",
          "name": "recipient",
          "type": "address"
        },
        {
          "internalType": "uint256",
          "name": "amount",
          "type": "uint256"
        }
      ],
      "name": "transferFrom",
      "outputs": [
        {
          "internalType": "bool",
          "name": "",
          "type": "bool"
        }
      ],
      "stateMutability": "nonpayable",
      "type": "function"
    },
    {
      "inputs": [
        {
          "internalType": "uint256",
          "name": "assetAmount",
          "type": "uint256"
        },
        {
          "internalType": "address",
          "name": "receiver",
          "type": "address"
        },
        {
          "internalType": "address",
          "name": "owner",
          "type": "address"
        }
      ],
      "name": "withdraw",
      "outputs": [
        {
          "internalType": "uint256",
          "name": "shareAmount",
          "type": "uint256"
        }
      ],
      "stateMutability": "nonpayable",
      "type": "function"
    }
  ],
  "bytecode": {
    "object": "0x608060405234620003d35762001bee803803806200001d81620003d8565b928339810190608081830312620003d35780516001600160a01b0381169290839003620003d35760208281015190926001600160401b0391828111620003d357836200006b918301620003fe565b926040820151838111620003d35760609162000089918401620003fe565b9101519460ff8616809603620003d3577f3410a2fb745bb7b6ca5d9148e66c4e1c7c223203c99ae84528774522cdac606580546001600160a01b0319169091179055825190828211620002e8577f2967a798b92539a1b9eefe4d8eb931f96b68d27665e276f1bee2d5db7f7430478054926001958685811c95168015620003c8575b88861014620002c7578190601f9586811162000372575b5088908683116001146200030a57600092620002fe575b5050600019600383901b1c191690861b1790555b8051928311620002e8577f2967a798b92539a1b9eefe4d8eb931f96b68d27665e276f1bee2d5db7f7430489485548581811c91168015620002dd575b82821014620002c7578381116200027c575b508092841160011462000211575092829391839260009462000205575b50501b916000199060031b1c19161790555b7f2967a798b92539a1b9eefe4d8eb931f96b68d27665e276f1bee2d5db7f7430499060ff1982541617905560405161177d9081620004718239f35b015192503880620001b8565b919083601f1981168760005284600020946000905b8883831062000261575050501062000247575b505050811b019055620001ca565b015160001960f88460031b161c1916905538808062000239565b85870151885590960195948501948793509081019062000226565b86600052816000208480870160051c820192848810620002bd575b0160051c019086905b828110620002b05750506200019b565b60008155018690620002a0565b9250819262000297565b634e487b7160e01b600052602260045260246000fd5b90607f169062000189565b634e487b7160e01b600052604160045260246000fd5b01519050388062000139565b90889350601f19831691856000528a6000209260005b8c8282106200035b575050841162000341575b505050811b0190556200014d565b015160001960f88460031b161c1916905538808062000333565b8385015186558c9790950194938401930162000320565b90915083600052886000208680850160051c8201928b8610620003be575b918a91869594930160051c01915b828110620003ae57505062000122565b600081558594508a91016200039e565b9250819262000390565b94607f16946200010b565b600080fd5b6040519190601f01601f191682016001600160401b03811183821017620002e857604052565b919080601f84011215620003d35782516001600160401b038111620002e85760209062000434601f8201601f19168301620003d8565b92818452828287010111620003d35760005b8181106200045c57508260009394955001015290565b85810183015184820184015282016200044656fe6080604052600436101561001257600080fd5b60003560e01c806301e1d114146101f957806306fdde03146101f457806307a2d13a1461017c578063095ea7b3146101ef5780630a28a477146101a457806318160ddd146101ea57806323b872dd146101e5578063313ce567146101e05780633644e515146101db57806338d52e0f146101d657806339509351146101d15780633dc8ded7146101cc578063402d267d146101955780634cdad5061461017c5780636e553f65146101c757806370a08231146101865780637ecebe00146101c257806394bf804d146101bd57806395d89b41146101b8578063a457c2d7146101b3578063a9059cbb146101ae578063aa82e017146101a9578063b3d7f6b9146101a4578063b460af941461019f578063ba0876521461019a578063c63d75b614610195578063c6e6f5921461017c578063ce96cb7714610190578063d505accf1461018b578063d905777e14610186578063dd62ed3e146101815763ef8b30f71461017c57600080fd5b61036c565b610b84565b6106f7565b6109d9565b6109b8565b61069e565b610980565b61092d565b6103f0565b6108d3565b6108ab565b61087a565b610779565b610746565b610723565b6106c4565b610677565b61060d565b6105c5565b610492565b610452565b61040e565b6101f9565b6103be565b610272565b3461022457600036600319011261022457602060008051602061170883398151915254604051908152f35b600080fd5b6020808252825181830181905290939260005b82811061025e57505060409293506000838284010152601f8019910116010190565b81810186015184820160400152850161023c565b3461022457600080600319360112610369576040519080600080516020611728833981519152549060019180831c9280821692831561035f575b602092838610851461034b57858852602088019490811561032a57506001146102f0575b6102ec876102e081890382610e67565b60405191829182610229565b0390f35b94506102fd939293610dfa565b83861061031957505050910190506102e0826102ec38806102d0565b8054858701529482019481016102fd565b60ff191685525050505090151560051b0190506102e0826102ec38806102d0565b634e487b7160e01b82526022600452602482fd5b93607f16936102ac565b80fd5b3461022457602036600319011261022457602061038a60043561125c565b604051908152f35b600435906001600160a01b038216820361022457565b602435906001600160a01b038216820361022457565b346102245760403660031901126102245760206103e66103dc610392565b6024359033610c5a565b6040519015158152f35b3461022457602036600319011261022457602061038a60043561128a565b346102245760603660031901126102245761044661042a610392565b6104326103a8565b60443591610441833383610dc4565b610d00565b50602060405160018152f35b3461022457600036600319011261022457602060ff7f2967a798b92539a1b9eefe4d8eb931f96b68d27665e276f1bee2d5db7f7430495416604051908152f35b3461022457600080600319360112610369574681526020907fbb9c3660b51e1fafa886fcf600a68efa81371bd50359eccba98f0c4fff2cfeba825260408120549081156104e5575b604051828152602090f35b9050604051908060008051602061172883398151915254600181811c928183169283156105bb575b878510841461034b57848752602087019390811561059c5750600114610566575b505050509181610546610560936102ec950382610e67565b81815191012090610555610fa9565b805191012090610f65565b386104da565b9350610573929192610dfa565b82851061058b575050500181610546816102ec61052e565b805484860152938601938101610573565b60ff1916845250505090151560051b01905081610546816102ec61052e565b93607f169361050d565b34610224576000366003190112610224577f3410a2fb745bb7b6ca5d9148e66c4e1c7c223203c99ae84528774522cdac6065546040516001600160a01b039091168152602090f35b3461022457604036600319011261022457610626610392565b61064a8161063333610baf565b9060018060a01b0316600052602052604060002090565b54906024358201809211610665576020916103e69133610c5a565b60405163d256efb160e01b8152600490fd5b346102245760403660031901126102245761069c610693610392565b602435906110b9565b005b34610224576020366003190112610224576106b7610392565b5060206040516000198152f35b3461022457604036600319011261022457602060043561038a6106e56103a8565b6106ee8361125c565b928391336112ce565b3461022457602036600319011261022457602061071a610715610392565b610be8565b54604051908152f35b3461022457602036600319011261022457602061071a610741610392565b610c21565b3461022457604036600319011261022457602060043561038a6107676103a8565b916107718161128a565b8093336112ce565b34610224576000806003193601126103695760405190807f2967a798b92539a1b9eefe4d8eb931f96b68d27665e276f1bee2d5db7f743048549060019180831c92808216928315610870575b602092838610851461034b57858852602088019490811561032a57506001146107f8576102ec876102e081890382610e67565b7f2967a798b92539a1b9eefe4d8eb931f96b68d27665e276f1bee2d5db7f74304860005294509192917f6626588b54b3522d930e3ee12195d0e9dddbde7c7325b02b73030918affce1c45b83861061085f57505050910190506102e0826102ec38806102d0565b805485870152948201948101610843565b93607f16936107c5565b34610224576040366003190112610224576108a0610896610392565b6024359033610dc4565b602060405160018152f35b346102245760403660031901126102245760206103e66108c9610392565b6024359033610d00565b346102245760403660031901126102245761069c6108ef610392565b60243590611164565b606090600319011261022457600435906001600160a01b03906024358281168103610224579160443590811681036102245790565b346102245761093b366108f8565b909161094f61094983610be8565b5461125c565b811161096e576020928161096561038a9361128a565b93849233611424565b6040516322edc7d760e01b8152600490fd5b346102245761098e366108f8565b9061099882610be8565b54831161096e578261038a916109af60209561125c565b93849133611424565b3461022457602036600319011261022457602061038a610949610715610392565b346102245760e0366003190112610224576109f2610392565b6109fa6103a8565b6044359060643560843560ff8116810361022457428210610b725760c0610acc92610a2487610c21565b5490604051917f6e71edae12b1b97f4d1f60370fef10105fa2faae0126114a169c64845d6126c98352886020840152866040840152876060840152608083015260a082015220610a9d466000527fbb9c3660b51e1fafa886fcf600a68efa81371bd50359eccba98f0c4fff2cfeba602052604060002090565b54908115610b0e575b6040519161190160f01b83526002830152602282015260c43591604260a4359220610fe1565b6001600160a01b03848116911603610afc5782610aeb61069c94610c21565b610af58154610fc6565b9055610c5a565b604051637570072b60e11b8152600490fd5b9050610b37610b1b610e89565b60208151910120610b2a610fa9565b6020815191012090610f65565b9081610b6c466000527fbb9c3660b51e1fafa886fcf600a68efa81371bd50359eccba98f0c4fff2cfeba602052604060002090565b55610aa6565b60405163384f7ce560e21b8152600490fd5b3461022457604036600319011261022457602061071a610ba2610392565b610633610bad6103a8565b915b6001600160a01b031660009081527fc991b2e918acaba8e5721668ed0b1982684e5a8692a621bcd2d7ef326bb015b56020526040902090565b6001600160a01b031660009081527fc991b2e918acaba8e5721668ed0b1982684e5a8692a621bcd2d7ef326bb015b46020526040902090565b6001600160a01b031660009081527fbb9c3660b51e1fafa886fcf600a68efa81371bd50359eccba98f0c4fff2cfeb96020526040902090565b6001600160a01b038082169291908315610cc6578216938415610cb55780610ca87f8c5be1e5ebec7d5bd14f71427d1e84f3dd0314c0f7b2291e5b200ac8c7c3b92594610633602095610baf565b55604051908152a3600190565b6040516262920b60e91b8152600490fd5b604051635a68b7ab60e01b8152600490fd5b634e487b7160e01b600052601160045260246000fd5b91908201809211610cfb57565b610cd8565b6001600160a01b038082169291908315610db2578216938415610da057610d2682610be8565b54808211610d8e577fddf252ad1be2c89b69c2b068fc378daa952ba7f163c4a11628f55a4df523b3ef93610d8693610d6384610d69940391610be8565b55610be8565b610d74828254610cee565b90556040519081529081906020820190565b0390a3600190565b604051637183160b60e01b8152600490fd5b6040516320a2645160e21b8152600490fd5b6040516368551d5f60e01b8152600490fd5b90610dd28161063384610baf565b5492838111610de957610de6930391610c5a565b50565b60405162e14ccf60e11b8152600490fd5b6000805160206117288339815191526000527fc3d5862a69f8ca70e4828043821a8d13dfd34088ddb52ba52f4c8aedc2ea63b590565b634e487b7160e01b600052604160045260246000fd5b6040810190811067ffffffffffffffff821117610e6257604052565b610e30565b90601f8019910116810190811067ffffffffffffffff821117610e6257604052565b6040519060006000805160206117288339815191525490600182811c92818116918215610f5b575b6020918286108414610f4757858852879493602086019392918115610f285750600114610eea575b505050610ee892500383610e67565b565b925093610ef5610dfa565b946000935b828510610f1257505050610ee8935001388080610ed9565b8654858501529586019588955093810193610efa565b92505050610ee89491925060ff19168252151560051b01388080610ed9565b634e487b7160e01b85526022600452602485fd5b93607f1693610eb1565b60a091604051917f8b73c3c69bb8fe3d512ecc4cf759cc79239f7b179b0ffacaa9a75d522b39400f8352602083015260408201524660608201523060808201522090565b60405190610fb682610e46565b60018252603160f81b6020830152565b6000198114610cfb5760010190565b6040513d6000823e3d90fd5b9291927f7fffffffffffffffffffffffffffffff5d576e7357a4501ddfe92f46681b20a083116110a75760ff8216601b811415908161109b575b506110895761104f600093602095604051948594859094939260ff6060936080840197845216602083015260408201520152565b838052039060015afa15611084576000516001600160a01b038116156110725790565b6040516347f3b32760e11b8152600490fd5b610fd5565b604051630acd54a960e41b8152600490fd5b601c915014153861101b565b60405163e4a61add60e01b8152600490fd5b6001600160a01b031690811561115257600080516020611708833981519152805490828201809211610cfb5755816000527fc991b2e918acaba8e5721668ed0b1982684e5a8692a621bcd2d7ef326bb015b46020526040600020805490828201809211610cfb576000927fddf252ad1be2c89b69c2b068fc378daa952ba7f163c4a11628f55a4df523b3ef9260209255604051908152a3565b60405163da007acd60e01b8152600490fd5b6001600160a01b03811690811561121757816000527fc991b2e918acaba8e5721668ed0b1982684e5a8692a621bcd2d7ef326bb015b460205260406000205480841161120557836111b6910391610be8565b55600080516020611708833981519152805490838203918211610cfb576000937fddf252ad1be2c89b69c2b068fc378daa952ba7f163c4a11628f55a4df523b3ef9260209255604051908152a3565b60405163b1d35b2360e01b8152600490fd5b6040516378f1627760e11b8152600490fd5b81810292918115918404141715610cfb57565b8115611246570490565b634e487b7160e01b600052601260045260246000fd5b6000805160206117088339815191525480611275575090565b6112828161128793611229565b61123c565b90565b60008051602061170883398151915254806112a3575090565b90816112ae91611229565b90808201809211610cfb576000198201918211610cfb576112879161123c565b9282611337575b7fdcbc1c05240f31ff3ad067ef1ee35ce4997762752e3a095284754544f4c709d79181611328575b6113088285836113db565b6040805194855260208501929092526001600160a01b03908116941692a3565b61133282826110b9565b6112fd565b7f3410a2fb745bb7b6ca5d9148e66c4e1c7c223203c99ae84528774522cdac6065546040516323b872dd60e01b60208201526001600160a01b03868116602483015230604483015260648083018790528252909116929060a081019080821067ffffffffffffffff831117610e62577fdcbc1c05240f31ff3ad067ef1ee35ce4997762752e3a095284754544f4c709d7946113d4926040526115d8565b91506112d5565b604080516001600160a01b039290921682526020820192909252908101919091527f4b2b61bd7df3c7a53543d1dfa72b0846cc74a6d41362542637b6db5764def58490606090a1565b6001600160a01b038084169581831694939192878603611528575b50604080516001600160a01b0386168152602081018890529081018290527ffbde797d201c681b91056529119e0b02407c7bb96a4a2c75c01fc9667232c8db946114d492917f48076819c189e93f356c200ab71ab37a9a16d8e0659c67618126cb59c6bae66890606090a18180611518575b5050866114d9575b60405193849316968360209093929193604081019481520152565b0390a4565b7f3410a2fb745bb7b6ca5d9148e66c4e1c7c223203c99ae84528774522cdac606554611513908890859087166001600160a01b031661158c565b6114b9565b61152191611164565b38816114b1565b906115368261063387610baf565b549485821161157a576115716114d493837ffbde797d201c681b91056529119e0b02407c7bb96a4a2c75c01fc9667232c8db98039083610c5a565b5094509061143f565b60405163eb7899cf60e01b8152600490fd5b60405163a9059cbb60e01b60208201526001600160a01b039092166024830152604480830193909352918152608081019167ffffffffffffffff831182841017610e6257610ee8926040525b61162191604051916115e983610e46565b60208084527f5361666545524332303a206c6f772d6c6576656c2063616c6c206661696c6564908401526001600160a01b031661165e565b80518061162c575050565b816020918101031261022457602001518015908115036102245761164c57565b6040516306dacbc160e51b8152600490fd5b9190606092803b156116f55781600092918360208194519301915af1913d156116ef57503d9167ffffffffffffffff8311610e6257604051926116ab601f8201601f191660200185610e67565b83523d6000602085013e5b156116bf575090565b8151156116cf5750805190602001fd5b60405162461bcd60e51b81529081906116eb9060048301610229565b0390fd5b916116b6565b604051632270d6bf60e21b8152600490fdfec991b2e918acaba8e5721668ed0b1982684e5a8692a621bcd2d7ef326bb015b62967a798b92539a1b9eefe4d8eb931f96b68d27665e276f1bee2d5db7f743047a2646970667358221220f8bfdcc353a83c4331c21c4c02756c14552cbd04a9218b120ba610ea5cdc12e964736f6c63430008130033",
    "linkReferences": {}
  },
  "methodIdentifiers": {
    "DOMAIN_SEPARATOR()": "3644e515",
    "__burn(address,uint256)": "aa82e017",
    "__mint(address,uint256)": "3dc8ded7",
    "allowance(address,address)": "dd62ed3e",
    "approve(address,uint256)": "095ea7b3",
    "asset()": "38d52e0f",
    "balanceOf(address)": "70a08231",
    "convertToAssets(uint256)": "07a2d13a",
    "convertToShares(uint256)": "c6e6f592",
    "decimals()": "313ce567",
    "decreaseAllowance(address,uint256)": "a457c2d7",
    "deposit(uint256,address)": "6e553f65",
    "increaseAllowance(address,uint256)": "39509351",
    "maxDeposit(address)": "402d267d",
    "maxMint(address)": "c63d75b6",
    "maxRedeem(address)": "d905777e",
    "maxWithdraw(address)": "ce96cb77",
    "mint(uint256,address)": "94bf804d",
    "name()": "06fdde03",
    "nonces(address)": "7ecebe00",
    "permit(address,address,uint256,uint256,uint8,bytes32,bytes32)": "d505accf",
    "previewDeposit(uint256)": "ef8b30f7",
    "previewMint(uint256)": "b3d7f6b9",
    "previewRedeem(uint256)": "4cdad506",
    "previewWithdraw(uint256)": "0a28a477",
    "redeem(uint256,address,address)": "ba087652",
    "symbol()": "95d89b41",
    "totalAssets()": "01e1d114",
    "totalSupply()": "18160ddd",
    "transfer(address,uint256)": "a9059cbb",
    "transferFrom(address,address,uint256)": "23b872dd",
    "withdraw(uint256,address,address)": "b460af94"
  },
  "id": 431
}