{
  "abi": [
    {
      "anonymous": false,
      "inputs": [
        {
          "indexed": false,
          "internalType": "uint8",
          "name": "version",
          "type": "uint8"
        }
      ],
      "name": "Initialized",
      "type": "event"
    },
    {
      "inputs": [
        {
          "internalType": "uint256",
          "name": "value",
          "type": "uint256"
        }
      ],
      "name": "initialize",
      "outputs": [],
      "stateMutability": "payable",
      "type": "function"
    },
    {
      "inputs": [
        {
          "internalType": "uint256",
          "name": "value",
          "type": "uint256"
        },
        {
          "internalType": "uint256",
          "name": "anotherValue",
          "type": "uint256"
        }
      ],
      "name": "migrate",
      "outputs": [],
      "stateMutability": "payable",
      "type": "function"
    },
    {
      "inputs": [],
      "name": "migrate",
      "outputs": [],
      "stateMutability": "payable",
      "type": "function"
    },
    {
      "inputs": [],
      "name": "x",
      "outputs": [
        {
          "internalType": "uint256",
          "name": "",
          "type": "uint256"
        }
      ],
      "stateMutability": "view",
      "type": "function"
    },
    {
      "inputs": [],
      "name": "y",
      "outputs": [
        {
          "internalType": "uint256",
          "name": "",
          "type": "uint256"
        }
      ],
      "stateMutability": "view",
      "type": "function"
    }
  ],
  "bytecode": {
    "object": "0x608080604052346100165761023f908161001c8239f35b600080fdfe60808060405260048036101561001457600080fd5b600091823560e01c9081630c55699c146101ed575080633e54bacb146101be5780638fd3ab801461018d578063a56dfe4a1461016c5763fe4b84df1461005957600080fd5b60203660031901126101685781549060ff8260081c16159182809361015b575b8015610144575b156100e95760ff1981166001178455826100d8575b50356001556100a15780f35b61ff001981541681557f7f26b83ff96e1f2b6a682f133852f6798a09c465da95921460cefb3847402498602060405160018152a180f35b61ffff191661010117835538610095565b60405162461bcd60e51b8152602081840152602e60248201527f496e697469616c697a61626c653a20636f6e747261637420697320616c72656160448201526d191e481a5b9a5d1a585b1a5e995960921b6064820152608490fd5b50303b1580156100805750600160ff821614610080565b50600160ff821610610079565b5080fd5b823461018a578060031936011261018a576020600354604051908152f35b80fd5b508160031936011261016857805460ff81166101ba576001908154600354835560035560ff191617905580f35b8280fd5b5060403660031901126101685760025460ff81166101ba5760019135825560243560035560ff19161760025580f35b8390346101685781600319360112610168576020906001548152f3fea2646970667358221220c32254044fd38c0f7af75c4686f1538d1f70fe158ec8611b81888155c487a23a64736f6c63430008130033",
    "linkReferences": {}
  },
  "methodIdentifiers": {
    "initialize(uint256)": "fe4b84df",
    "migrate()": "8fd3ab80",
    "migrate(uint256,uint256)": "3e54bacb",
    "x()": "0c55699c",
    "y()": "a56dfe4a"
  },
  "id": 102
}