{
  "abi": [
    {
      "inputs": [],
      "name": "getDeadline",
      "outputs": [
        {
          "internalType": "uint64",
          "name": "",
          "type": "uint64"
        }
      ],
      "stateMutability": "view",
      "type": "function"
    },
    {
      "inputs": [],
      "name": "isExpired",
      "outputs": [
        {
          "internalType": "bool",
          "name": "",
          "type": "bool"
        }
      ],
      "stateMutability": "view",
      "type": "function"
    },
    {
      "inputs": [],
      "name": "isPending",
      "outputs": [
        {
          "internalType": "bool",
          "name": "",
          "type": "bool"
        }
      ],
      "stateMutability": "view",
      "type": "function"
    },
    {
      "inputs": [],
      "name": "isStarted",
      "outputs": [
        {
          "internalType": "bool",
          "name": "",
          "type": "bool"
        }
      ],
      "stateMutability": "view",
      "type": "function"
    },
    {
      "inputs": [],
      "name": "isUnset",
      "outputs": [
        {
          "internalType": "bool",
          "name": "",
          "type": "bool"
        }
      ],
      "stateMutability": "view",
      "type": "function"
    },
    {
      "inputs": [],
      "name": "reset",
      "outputs": [],
      "stateMutability": "nonpayable",
      "type": "function"
    },
    {
      "inputs": [
        {
          "internalType": "uint64",
          "name": "timestamp",
          "type": "uint64"
        }
      ],
      "name": "setDeadline",
      "outputs": [],
      "stateMutability": "nonpayable",
      "type": "function"
    }
  ],
  "bytecode": {
    "object": "0x6080806040523461001657610273908161001c8239f35b600080fdfe608060409080825260048036101561001657600080fd5b600092833560e01c9283632260fe3a14610200575082632f13b60c146101a9578263544736e6146101685782635f8d96de146101295782639c30ad7e146100d557508163aebc048314610098575063d826f88f1461007357600080fd5b34610095578060031936011261009557805467ffffffffffffffff1916815580f35b80fd5b9050346100d15760203660031901126100d1573567ffffffffffffffff81168091036100d157815467ffffffffffffffff191617815580f35b5080fd5b8390346100d157816003193601126100d15780519167ffffffffffffffff906020840182811185821017610116576020955083525416809252519042108152f35b634e487b7160e01b825260418652602482fd5b8390346100d157816003193601126100d15780519167ffffffffffffffff90602084018281118582101761011657602095508352541680925251908152f35b8390346100d157816003193601126100d15780519167ffffffffffffffff906020840182811185821017610116576020955083525416809252519015158152f35b8390346100d157816003193601126100d15780519167ffffffffffffffff90602084018281118582101761011657602095508352541680925281151591826101f5575b50519015158152f35b4210159150836101ec565b90843461009557806003193601126100955767ffffffffffffffff9060208401828111858210176101165760209550835254168092525190158152f3fea26469706673582212209af0f40bfe4e3d75158822b905ec5532897f0d98e56238626a8cf16c8163917c64736f6c63430008130033",
    "linkReferences": {}
  },
  "methodIdentifiers": {
    "getDeadline()": "5f8d96de",
    "isExpired()": "2f13b60c",
    "isPending()": "9c30ad7e",
    "isStarted()": "544736e6",
    "isUnset()": "2260fe3a",
    "reset()": "d826f88f",
    "setDeadline(uint64)": "aebc0483"
  },
  "id": 106
}