{
  "abi": [
    {
      "inputs": [
        {
          "internalType": "string",
          "name": "name",
          "type": "string"
        },
        {
          "internalType": "string",
          "name": "symbol",
          "type": "string"
        },
        {
          "internalType": "address[]",
          "name": "delegates",
          "type": "address[]"
        },
        {
          "internalType": "address[]",
          "name": "receivers",
          "type": "address[]"
        },
        {
          "internalType": "uint96[]",
          "name": "amounts",
          "type": "uint96[]"
        }
      ],
      "stateMutability": "nonpayable",
      "type": "constructor"
    },
    {
      "inputs": [],
      "name": "InvalidShortString",
      "type": "error"
    },
    {
      "inputs": [
        {
          "internalType": "string",
          "name": "str",
          "type": "string"
        }
      ],
      "name": "StringTooLong",
      "type": "error"
    },
    {
      "anonymous": false,
      "inputs": [
        {
          "indexed": true,
          "internalType": "address",
          "name": "owner",
          "type": "address"
        },
        {
          "indexed": true,
          "internalType": "address",
          "name": "approved",
          "type": "address"
        },
        {
          "indexed": true,
          "internalType": "uint256",
          "name": "tokenId",
          "type": "uint256"
        }
      ],
      "name": "Approval",
      "type": "event"
    },
    {
      "anonymous": false,
      "inputs": [
        {
          "indexed": true,
          "internalType": "address",
          "name": "owner",
          "type": "address"
        },
        {
          "indexed": true,
          "internalType": "address",
          "name": "operator",
          "type": "address"
        },
        {
          "indexed": false,
          "internalType": "bool",
          "name": "approved",
          "type": "bool"
        }
      ],
      "name": "ApprovalForAll",
      "type": "event"
    },
    {
      "anonymous": false,
      "inputs": [
        {
          "indexed": true,
          "internalType": "uint256",
          "name": "fromTokenId",
          "type": "uint256"
        },
        {
          "indexed": false,
          "internalType": "uint256",
          "name": "toTokenId",
          "type": "uint256"
        },
        {
          "indexed": true,
          "internalType": "address",
          "name": "fromAddress",
          "type": "address"
        },
        {
          "indexed": true,
          "internalType": "address",
          "name": "toAddress",
          "type": "address"
        }
      ],
      "name": "ConsecutiveTransfer",
      "type": "event"
    },
    {
      "anonymous": false,
      "inputs": [
        {
          "indexed": true,
          "internalType": "address",
          "name": "delegator",
          "type": "address"
        },
        {
          "indexed": true,
          "internalType": "address",
          "name": "fromDelegate",
          "type": "address"
        },
        {
          "indexed": true,
          "internalType": "address",
          "name": "toDelegate",
          "type": "address"
        }
      ],
      "name": "DelegateChanged",
      "type": "event"
    },
    {
      "anonymous": false,
      "inputs": [
        {
          "indexed": true,
          "internalType": "address",
          "name": "delegate",
          "type": "address"
        },
        {
          "indexed": false,
          "internalType": "uint256",
          "name": "previousBalance",
          "type": "uint256"
        },
        {
          "indexed": false,
          "internalType": "uint256",
          "name": "newBalance",
          "type": "uint256"
        }
      ],
      "name": "DelegateVotesChanged",
      "type": "event"
    },
    {
      "anonymous": false,
      "inputs": [],
      "name": "EIP712DomainChanged",
      "type": "event"
    },
    {
      "anonymous": false,
      "inputs": [
        {
          "indexed": false,
          "internalType": "address",
          "name": "account",
          "type": "address"
        }
      ],
      "name": "Paused",
      "type": "event"
    },
    {
      "anonymous": false,
      "inputs": [
        {
          "indexed": true,
          "internalType": "address",
          "name": "from",
          "type": "address"
        },
        {
          "indexed": true,
          "internalType": "address",
          "name": "to",
          "type": "address"
        },
        {
          "indexed": true,
          "internalType": "uint256",
          "name": "tokenId",
          "type": "uint256"
        }
      ],
      "name": "Transfer",
      "type": "event"
    },
    {
      "anonymous": false,
      "inputs": [
        {
          "indexed": false,
          "internalType": "address",
          "name": "account",
          "type": "address"
        }
      ],
      "name": "Unpaused",
      "type": "event"
    },
    {
      "inputs": [],
      "name": "CLOCK_MODE",
      "outputs": [
        {
          "internalType": "string",
          "name": "",
          "type": "string"
        }
      ],
      "stateMutability": "view",
      "type": "function"
    },
    {
      "inputs": [],
      "name": "DOMAIN_SEPARATOR",
      "outputs": [
        {
          "internalType": "bytes32",
          "name": "",
          "type": "bytes32"
        }
      ],
      "stateMutability": "view",
      "type": "function"
    },
    {
      "inputs": [
        {
          "internalType": "address",
          "name": "to",
          "type": "address"
        },
        {
          "internalType": "uint256",
          "name": "tokenId",
          "type": "uint256"
        }
      ],
      "name": "approve",
      "outputs": [],
      "stateMutability": "nonpayable",
      "type": "function"
    },
    {
      "inputs": [
        {
          "internalType": "address",
          "name": "owner",
          "type": "address"
        }
      ],
      "name": "balanceOf",
      "outputs": [
        {
          "internalType": "uint256",
          "name": "",
          "type": "uint256"
        }
      ],
      "stateMutability": "view",
      "type": "function"
    },
    {
      "inputs": [],
      "name": "clock",
      "outputs": [
        {
          "internalType": "uint48",
          "name": "",
          "type": "uint48"
        }
      ],
      "stateMutability": "view",
      "type": "function"
    },
    {
      "inputs": [
        {
          "internalType": "address",
          "name": "delegatee",
          "type": "address"
        }
      ],
      "name": "delegate",
      "outputs": [],
      "stateMutability": "nonpayable",
      "type": "function"
    },
    {
      "inputs": [
        {
          "internalType": "address",
          "name": "delegatee",
          "type": "address"
        },
        {
          "internalType": "uint256",
          "name": "nonce",
          "type": "uint256"
        },
        {
          "internalType": "uint256",
          "name": "expiry",
          "type": "uint256"
        },
        {
          "internalType": "uint8",
          "name": "v",
          "type": "uint8"
        },
        {
          "internalType": "bytes32",
          "name": "r",
          "type": "bytes32"
        },
        {
          "internalType": "bytes32",
          "name": "s",
          "type": "bytes32"
        }
      ],
      "name": "delegateBySig",
      "outputs": [],
      "stateMutability": "nonpayable",
      "type": "function"
    },
    {
      "inputs": [
        {
          "internalType": "address",
          "name": "account",
          "type": "address"
        }
      ],
      "name": "delegates",
      "outputs": [
        {
          "internalType": "address",
          "name": "",
          "type": "address"
        }
      ],
      "stateMutability": "view",
      "type": "function"
    },
    {
      "inputs": [],
      "name": "eip712Domain",
      "outputs": [
        {
          "internalType": "bytes1",
          "name": "fields",
          "type": "bytes1"
        },
        {
          "internalType": "string",
          "name": "name",
          "type": "string"
        },
        {
          "internalType": "string",
          "name": "version",
          "type": "string"
        },
        {
          "internalType": "uint256",
          "name": "chainId",
          "type": "uint256"
        },
        {
          "internalType": "address",
          "name": "verifyingContract",
          "type": "address"
        },
        {
          "internalType": "bytes32",
          "name": "salt",
          "type": "bytes32"
        },
        {
          "internalType": "uint256[]",
          "name": "extensions",
          "type": "uint256[]"
        }
      ],
      "stateMutability": "view",
      "type": "function"
    },
    {
      "inputs": [
        {
          "internalType": "uint256",
          "name": "tokenId",
          "type": "uint256"
        }
      ],
      "name": "getApproved",
      "outputs": [
        {
          "internalType": "address",
          "name": "",
          "type": "address"
        }
      ],
      "stateMutability": "view",
      "type": "function"
    },
    {
      "inputs": [
        {
          "internalType": "uint256",
          "name": "timepoint",
          "type": "uint256"
        }
      ],
      "name": "getPastTotalSupply",
      "outputs": [
        {
          "internalType": "uint256",
          "name": "",
          "type": "uint256"
        }
      ],
      "stateMutability": "view",
      "type": "function"
    },
    {
      "inputs": [
        {
          "internalType": "address",
          "name": "account",
          "type": "address"
        },
        {
          "internalType": "uint256",
          "name": "timepoint",
          "type": "uint256"
        }
      ],
      "name": "getPastVotes",
      "outputs": [
        {
          "internalType": "uint256",
          "name": "",
          "type": "uint256"
        }
      ],
      "stateMutability": "view",
      "type": "function"
    },
    {
      "inputs": [
        {
          "internalType": "address",
          "name": "account",
          "type": "address"
        }
      ],
      "name": "getVotes",
      "outputs": [
        {
          "internalType": "uint256",
          "name": "",
          "type": "uint256"
        }
      ],
      "stateMutability": "view",
      "type": "function"
    },
    {
      "inputs": [
        {
          "internalType": "address",
          "name": "owner",
          "type": "address"
        },
        {
          "internalType": "address",
          "name": "operator",
          "type": "address"
        }
      ],
      "name": "isApprovedForAll",
      "outputs": [
        {
          "internalType": "bool",
          "name": "",
          "type": "bool"
        }
      ],
      "stateMutability": "view",
      "type": "function"
    },
    {
      "inputs": [],
      "name": "name",
      "outputs": [
        {
          "internalType": "string",
          "name": "",
          "type": "string"
        }
      ],
      "stateMutability": "view",
      "type": "function"
    },
    {
      "inputs": [
        {
          "internalType": "address",
          "name": "owner",
          "type": "address"
        }
      ],
      "name": "nonces",
      "outputs": [
        {
          "internalType": "uint256",
          "name": "",
          "type": "uint256"
        }
      ],
      "stateMutability": "view",
      "type": "function"
    },
    {
      "inputs": [
        {
          "internalType": "uint256",
          "name": "tokenId",
          "type": "uint256"
        }
      ],
      "name": "ownerOf",
      "outputs": [
        {
          "internalType": "address",
          "name": "",
          "type": "address"
        }
      ],
      "stateMutability": "view",
      "type": "function"
    },
    {
      "inputs": [],
      "name": "paused",
      "outputs": [
        {
          "internalType": "bool",
          "name": "",
          "type": "bool"
        }
      ],
      "stateMutability": "view",
      "type": "function"
    },
    {
      "inputs": [
        {
          "internalType": "address",
          "name": "from",
          "type": "address"
        },
        {
          "internalType": "address",
          "name": "to",
          "type": "address"
        },
        {
          "internalType": "uint256",
          "name": "tokenId",
          "type": "uint256"
        }
      ],
      "name": "safeTransferFrom",
      "outputs": [],
      "stateMutability": "nonpayable",
      "type": "function"
    },
    {
      "inputs": [
        {
          "internalType": "address",
          "name": "from",
          "type": "address"
        },
        {
          "internalType": "address",
          "name": "to",
          "type": "address"
        },
        {
          "internalType": "uint256",
          "name": "tokenId",
          "type": "uint256"
        },
        {
          "internalType": "bytes",
          "name": "data",
          "type": "bytes"
        }
      ],
      "name": "safeTransferFrom",
      "outputs": [],
      "stateMutability": "nonpayable",
      "type": "function"
    },
    {
      "inputs": [
        {
          "internalType": "address",
          "name": "operator",
          "type": "address"
        },
        {
          "internalType": "bool",
          "name": "approved",
          "type": "bool"
        }
      ],
      "name": "setApprovalForAll",
      "outputs": [],
      "stateMutability": "nonpayable",
      "type": "function"
    },
    {
      "inputs": [
        {
          "internalType": "bytes4",
          "name": "interfaceId",
          "type": "bytes4"
        }
      ],
      "name": "supportsInterface",
      "outputs": [
        {
          "internalType": "bool",
          "name": "",
          "type": "bool"
        }
      ],
      "stateMutability": "view",
      "type": "function"
    },
    {
      "inputs": [],
      "name": "symbol",
      "outputs": [
        {
          "internalType": "string",
          "name": "",
          "type": "string"
        }
      ],
      "stateMutability": "view",
      "type": "function"
    },
    {
      "inputs": [
        {
          "internalType": "uint256",
          "name": "tokenId",
          "type": "uint256"
        }
      ],
      "name": "tokenURI",
      "outputs": [
        {
          "internalType": "string",
          "name": "",
          "type": "string"
        }
      ],
      "stateMutability": "view",
      "type": "function"
    },
    {
      "inputs": [
        {
          "internalType": "address",
          "name": "from",
          "type": "address"
        },
        {
          "internalType": "address",
          "name": "to",
          "type": "address"
        },
        {
          "internalType": "uint256",
          "name": "tokenId",
          "type": "uint256"
        }
      ],
      "name": "transferFrom",
      "outputs": [],
      "stateMutability": "nonpayable",
      "type": "function"
    }
  ],
  "bytecode": {
    "object": "0x610160806040523462000118576200438b908138038092620000218262000133565b823960a08282019212620001185780516001600160401b03929083811162000118578162000051918401620001d5565b91610180518481116200011857826200006c918301620001d5565b6101a0518581116200011857836200008691840162000248565b916101c051868111620001185784620000a191830162000248565b936101e0519687116200011857620000c696620000bf9201620002bf565b9362000393565b60405161293d9081620019ee82396080518161237a015260a05181612435015260c05181612344015260e051816123c9015261010051816123ef0152610120518161080d015261014051816108360152f35b600080fd5b634e487b7160e01b600052604160045260246000fd5b601f01601f1916610160908101906001600160401b038211908210176200015957604052565b6200011d565b604081019081106001600160401b038211176200015957604052565b601f909101601f19168101906001600160401b038211908210176200015957604052565b60405190620001ae826200015f565b565b60005b838110620001c45750506000910152565b8181015183820152602001620001b3565b81601f82011215620001185780516001600160401b0381116200015957604051926200020c601f8301601f1916602001856200017b565b8184526020828401011162000118576200022d9160208085019101620001b0565b90565b6001600160401b038111620001595760051b60200190565b81601f820112156200011857805191620002628362000230565b926200027260405194856200017b565b808452602092838086019260051b82010192831162000118578301905b8282106200029e575050505090565b81516001600160a01b0381168103620001185781529083019083016200028f565b81601f820112156200011857805191620002d98362000230565b92620002e960405194856200017b565b808452602092838086019260051b82010192831162000118578301905b82821062000315575050505090565b81516001600160601b03811681036200011857815290830190830162000306565b634e487b7160e01b600052601160045260246000fd5b60001981146200035c5760010190565b62000336565b634e487b7160e01b600052603260045260246000fd5b80518210156200038d5760209160051b010190565b62000362565b929160405193620003a4856200015f565b60019485815260209182820192603160f81b845281519560018060401b0387116200015957600096620003e381620003dd8a54620005e7565b62000624565b82601f8211600114620005575790806200042193928a916200054b575b50600019600383901b1c1916908b1b1788558997969594939291906200078a565b6200043160ff1960085416600855565b6200043c8262001654565b610120526200044b8362001764565b61014052815191012060e052519020610100524660a0526200046c620018e3565b6080523060c05281835b620004f4575b5050905b6200048c575b50505050565b8151811015620004ee5780620004e0620004bc620004af620004e7948662000378565b516001600160a01b031690565b620004d9620004cc848962000378565b516001600160601b031690565b9062000cd4565b506200034c565b8262000480565b62000486565b8192939151811015620005415780620005316200051a620004af62000537948762000378565b6200052a620004af848862000378565b906200087b565b6200034c565b8193929162000476565b819392506200047c565b90508501513862000400565b60008052601f19821692918b917f290decd9548b62a8d60345a988386fc84ba6bc95484008f6362f93160ef3e563908b5b87878210620005d057505082620004219610620005b6575b5050811b0188559089979695949392916200078a565b87015160001960f88460031b161c191690553880620005a0565b828a015184558f9590930192918201910162000588565b90600182811c9216801562000619575b60208310146200060357565b634e487b7160e01b600052602260045260246000fd5b91607f1691620005f7565b601f811162000631575050565b60009081805260208220906020601f850160051c8301941062000671575b601f0160051c01915b8281106200066557505050565b81815560010162000658565b90925082906200064f565b90601f82116200068a575050565b60019160009083825260208220906020601f850160051c83019410620006cd575b601f0160051c01915b828110620006c25750505050565b8181558301620006b4565b9092508290620006ab565b601f8111620006e5575050565b6000906009825260208220906020601f850160051c8301941062000726575b601f0160051c01915b8281106200071a57505050565b8181556001016200070d565b909250829062000704565b601f81116200073e575050565b600090600a825260208220906020601f850160051c830194106200077f575b601f0160051c01915b8281106200077357505050565b81815560010162000766565b90925082906200075d565b80519091906001600160401b0381116200015957600190620007b881620007b28454620005e7565b6200067c565b602080601f8311600114620007f6575081929394600092620007ea575b5050600019600383901b1c191690821b179055565b015190503880620007d5565b6001600052601f198316959091907fb10e2d527612073b26eecdfd717e6a320cf44b4afac2b0732d9fcbe2b7fa0cf6926000905b88821062000863575050838596971062000849575b505050811b019055565b015160001960f88460031b161c191690553880806200083f565b8087859682949686015181550195019301906200082a565b6001600160a01b039081166000818152600b6020526040812080548585166001600160a01b0319821681179092559194919093169290919083827f3134e8a2e6d97e929a7e54011ea5485d7d196dd5f0ba4d4ef95803e8e3fc257f8780a48015620008f85783604091620001ae955260036020522054916200094f565b60405162461bcd60e51b815260206004820152602960248201527f4552433732313a2061646472657373207a65726f206973206e6f7420612076616044820152683634b21037bbb732b960b91b6064820152608490fd5b6001600160a01b0380831693929190811690818514158062000b35575b62000979575b5050505050565b81620009f5575b50508262000991575b808062000972565b6001600160a01b03166000908152600c602052604090206000805160206200436b83398151915291620009d191620009ca90916200194f565b9062000b3f565b604080516001600160e01b039384168152919092166020820152a238808062000989565b6001600160a01b03166000908152600c6020526040902062000a17846200194f565b65ffffffffffff80431162000ae15763ffffffff809143161162000a8d578262000a6062000a6a9362000a5a6000805160206200436b83398151915296620010aa565b620019b9565b9143169062001334565b604080516001600160e01b039384168152919092166020820152a2388062000980565b60405162461bcd60e51b815260206004820152602660248201527f53616665436173743a2076616c756520646f65736e27742066697420696e203360448201526532206269747360d01b6064820152608490fd5b60405162461bcd60e51b815260206004820152602660248201527f53616665436173743a2076616c756520646f65736e27742066697420696e203460448201526538206269747360d01b6064820152608490fd5b508315156200096c565b65ffffffffffff9081431162000ae15763ffffffff809243161162000a8d5762000a6062000b789362000b7283620010aa565b620019d3565b9091565b65ffffffffffff80431162000ae15763ffffffff809143161162000a8d5762000bad62000b789262000b726200106c565b904316620011f9565b65ffffffffffff80431162000ae15763ffffffff809143161162000a8d5762000bad62000b789262000a5a6200106c565b1562000bef57565b60405162461bcd60e51b815260206004820152602b60248201527f455243373231436f6e73656375746976653a206d696e7420746f20746865207a60448201526a65726f206164647265737360a81b6064820152608490fd5b1562000c5057565b60405162461bcd60e51b815260206004820152602260248201527f455243373231436f6e73656375746976653a20626174636820746f6f206c6172604482015261676560f01b6064820152608490fd5b6001600160601b0391821690821601919082116200035c57565b6001600160601b0390811660001901919082116200035c57565b9062000cdf62000e53565b916001600160601b0391808316918262000cfb575b5050505090565b303b62000dc15762000db793600062000d74937fdeaa91b6123d068f5821d0fb0678463d1a8a6079fe8af5de3ce5e896dcf9133d62000dae62000d7a60018060a01b0387169562000d4e87151562000be7565b62000d5e6113888b111562000c48565b8b1697889462000d6d62000e87565b8c62000ca0565b62000cba565b62000d8686826200152e565b505062000d94898862000e2c565b6040516001600160601b0390911681529081906020820190565b0390a462000eed565b3880808062000cf4565b60405162461bcd60e51b815260206004820152603a60248201527f455243373231436f6e73656375746976653a206261746368206d696e74696e6760448201527f207265737472696374656420746f20636f6e7374727563746f720000000000006064820152608490fd5b6001600160a01b0316600090815260036020526040902080549182019182106200035c5755565b62000e5d6200145b565b50906000901562000e8257506001600160601b039081166001019081116200035c5790565b905090565b60ff6008541662000e9457565b60405162461bcd60e51b815260206004820152602b60248201527f4552433732315061757361626c653a20746f6b656e207472616e73666572207760448201526a1a1a5b19481c185d5cd95960aa1b6064820152608490fd5b91909162000f0562000eff836200194f565b62000b7c565b50506001600160a01b039081168015919062000f62908490846200103f575b600b6020527fdf7de25b7f1fd6d0b5205f0e18f1f35bd7b8d84cce336588d184533ce43a6f765460009182526040822054919491821691166200094f565b8162001021575b8162000fff575b5062000f7a575050565b60010362000fa657620001ae908060081c6000526007602052600160ff604060002092161b8154179055565b60405162461bcd60e51b815260206004820152602b60248201527f455243373231436f6e73656375746976653a206261746368206275726e206e6f60448201526a1d081cdd5c1c1bdc9d195960aa1b6064820152608490fd5b90508260081c815260076020526040600160ff85161b91205416153862000f70565b90506001600160601b036200103562000e53565b1683109062000f69565b620010546200104e836200194f565b62000bb6565b505062000f24565b6000198101919082116200035c57565b600d54600090806200107f575050600090565b6000199181838101116200035c57600d9052016000805160206200432b833981519152015460201c90565b805460009181620010bd57505050600090565b6000199282848101116200035c5760209181522001015460201c90565b600d54906801000000000000000082101562000159576001820180600d558210156200038d57600d600052805160209182015190911b63ffffffff191663ffffffff91909116176000805160206200432b83398151915290910155565b908154680100000000000000008110156200015957600181018084558110156200038d57600092835260209283902082519284015190931b63ffffffff191663ffffffff9290921691909117910155565b9060405162001197816200015f565b602081935463ffffffff81168352811c910152565b15620011b457565b60405162461bcd60e51b815260206004820152601b60248201527f436865636b706f696e743a2064656372656173696e67206b65797300000000006044820152606490fd5b600d5491929180156200130557620012c5918185620012416200123b620012226020966200105c565b600d6000526000805160206200432b8339815191520190565b62001188565b9262001251845163ffffffff1690565b6200126a63ffffffff91828416928391161115620011ac565b620012866200127d865163ffffffff1690565b63ffffffff1690565b03620012c95750620012a062001222620012b7936200105c565b9063ffffffff82549181199060201b169116179055565b01516001600160e01b031690565b9190565b9050620012ff9150620012eb620012df6200019f565b63ffffffff9092168252565b6001600160e01b03871681850152620010da565b620012b7565b506200132e9062001319620012df6200019f565b6001600160e01b0384166020820152620010da565b60009190565b909291928382548015156000146200140a57926020929184620013706200123b62001363620012c5986200105c565b8560005260206000200190565b9362001380855163ffffffff1690565b6200139963ffffffff91828416928391161115620011ac565b620013ac6200127d875163ffffffff1690565b03620013d45750620012b792620013c7620012a0926200105c565b9060005260206000200190565b915050620012ff91620013f6620013ea6200019f565b63ffffffff9093168352565b6001600160e01b0388168286015262001137565b50506200132e916200141f620013ea6200019f565b6001600160e01b038516602083015262001137565b9060405162001443816200015f565b91546001600160601b038116835260601c6020830152565b60065480620014705750600090600090600090565b60001981818101116200035c576006600052604051926020929091016000805160206200434b83398151915201620014a8846200015f565b546001600160601b03811680855260609190911c929093018290526001929190565b6006549068010000000000000000821015620001595760018201806006558210156200038d57600660005280516020919091015160601b6001600160601b0319166001600160601b0391909116176000805160206200434b83398151915290910155565b60065491929180156200162b57620012c59181856200157662001570620015576020966200105c565b60066000526000805160206200434b8339815191520190565b62001434565b80519093906001600160601b0380831691620015969116821015620011ac565b84516001600160601b031603620015ec5750620015bb62001557620015de936200105c565b80546001600160601b031660609290921b6001600160601b031916919091179055565b01516001600160a01b031690565b905062001625915062001611620016026200019f565b6001600160601b039092168252565b6001600160a01b03871681850152620014ca565b620015de565b506200132e906200163f620016026200019f565b6001600160a01b0384166020820152620014ca565b908151602080821060001462001672575050906200022d9062001874565b6001600160401b0382116200015957620016998262001693600954620005e7565b620006d8565b80601f8311600114620016d95750819293600092620016cd575b50508160011b916000199060031b1c19161760095560ff90565b015190503880620016b3565b6009600052601f198316949091907f6e1540171b6c0c960b71a7020d9f60077f6af931a8bbf590da0223dacf75c7af926000905b8782106200174b57505083600195961062001731575b505050811b0160095560ff90565b015160001960f88460031b161c1916905538808062001723565b806001859682949686015181550195019301906200170d565b908151602080821060001462001782575050906200022d9062001874565b6001600160401b0382116200015957620017a982620017a3600a54620005e7565b62000731565b80601f8311600114620017e95750819293600092620017dd575b50508160011b916000199060031b1c191617600a5560ff90565b015190503880620017c3565b600a600052601f198316949091907fc65a7bb8d6351c1cf70c95a316cc6a92839c986682d98bc35f958f4883f9d2a8926000905b8782106200185b57505083600195961062001841575b505050811b01600a5560ff90565b015160001960f88460031b161c1916905538808062001833565b806001859682949686015181550195019301906200181d565b601f815111620018a257602081519101516020821062001892571790565b6000198260200360031b1b161790565b6044604051809263305a27a960e01b825260206004830152620018d58151809281602486015260208686019101620001b0565b601f01601f19168101030190fd5b60e051610100516040519060208201927f8b73c3c69bb8fe3d512ecc4cf759cc79239f7b179b0ffacaa9a75d522b39400f8452604083015260608201524660808201523060a082015260a0815260c0810181811060018060401b03821117620001595760405251902090565b6001600160e01b039081811162001964571690565b60405162461bcd60e51b815260206004820152602760248201527f53616665436173743a2076616c756520646f65736e27742066697420696e20326044820152663234206269747360c81b6064820152608490fd5b6001600160e01b03918216908216039081116200035c5790565b6001600160e01b03918216908216019081116200035c579056fe6080604052600436101561001257600080fd5b60003560e01c806301ffc9a7146101a757806306fdde03146101a2578063081812fc1461019d578063095ea7b31461019857806323b872dd146101935780633644e5151461018e5780633a46b1a81461018957806342842e0e146101845780634bf5d7e91461017f578063587cde1e1461017a5780635c19a95c146101755780635c975abb146101705780636352211e1461016b57806370a08231146101665780637ecebe001461016157806384b0196e1461015c5780638e539e8c1461015757806391ddadf41461015257806395d89b411461014d5780639ab24eb014610148578063a22cb46514610143578063b88d4fde1461013e578063c3cda52014610139578063c87b56dd146101345763e985e9c51461012f57600080fd5b610e9d565b610e4b565b610d1c565b610c93565b610aeb565b610aa2565b6109fd565b6109d1565b6108ea565b6107f2565b6107b8565b610795565b610777565b610754565b610732565b6106f7565b610645565b61061d565b61051b565b6104f8565b6104cf565b6103c4565b610368565b610285565b6101c3565b6001600160e01b03198116036101be57565b600080fd5b346101be5760203660031901126101be5760206004356101e2816101ac565b63ffffffff60e01b166380ac58cd60e01b8114908115610220575b811561020f575b506040519015158152f35b6301ffc9a760e01b14905038610204565b635b5e139f60e01b811491506101fd565b919082519283825260005b84811061025d575050826000602080949584010152601f8019910116010190565b60208183018101518483018201520161023c565b906020610282928181520190610231565b90565b346101be5760008060031936011261036557604051908080546102a7816113f6565b8085529160019180831690811561033b57506001146102e1575b6102dd856102d181870382610c46565b60405191829182610271565b0390f35b80809450527f290decd9548b62a8d60345a988386fc84ba6bc95484008f6362f93160ef3e5635b8284106103235750505081016020016102d1826102dd6102c1565b80546020858701810191909152909301928101610308565b8695506102dd969350602092506102d194915060ff191682840152151560051b82010192936102c1565b80fd5b346101be5760203660031901126101be5760206103866004356114a2565b6040516001600160a01b039091168152f35b600435906001600160a01b03821682036101be57565b602435906001600160a01b03821682036101be57565b346101be5760403660031901126101be576103dd610398565b6024356103e9816113d9565b916001600160a01b03808416908216811461044b5761041b9361041691331490811561041d575b50611430565b6117e6565b005b6001600160a01b0316600090815260056020908152604080832033845290915290205460ff16905038610410565b60405162461bcd60e51b815260206004820152602160248201527f4552433732313a20617070726f76616c20746f2063757272656e74206f776e656044820152603960f91b6064820152608490fd5b60609060031901126101be576001600160a01b039060043582811681036101be579160243590811681036101be579060443590565b346101be5761041b6104e03661049a565b916104f36104ee84336115c3565b6114c6565b611695565b346101be5760003660031901126101be576020610513612341565b604051908152f35b346101be5760403660031901126101be57610534610398565b6024359061055365ffffffffffff61054b436127fb565b168310610efa565b6001600160a01b03166000908152600c602052604081209161057490612862565b918054829381600581116105c5575b5090602094610592928461204e565b806105ac5750505b6040516001600160e01b039091168152f35b916105b8849293611c34565b928152200154811c61059a565b946105cf86612640565b8603958611610618576020956105929385875263ffffffff80838a8a20015416908516106000146106065750915b91925094610583565b92915061061290611c43565b906105fd565b611300565b346101be5761041b61062e3661049a565b906040519261063c84610c0e565b60008452611528565b346101be5760003660031901126101be574365ffffffffffff610667436127fb565b16036106b2576102dd60405161067c81610bed565b601d81527f6d6f64653d626c6f636b6e756d6265722666726f6d3d64656661756c74000000602082015260405191829182610271565b60405162461bcd60e51b815260206004820152601860248201527f566f7465733a2062726f6b656e20636c6f636b206d6f646500000000000000006044820152606490fd5b346101be5760203660031901126101be5760206001600160a01b038061071b610398565b16600052600b825260406000205416604051908152f35b346101be5760203660031901126101be5761041b61074e610398565b33610f80565b346101be5760003660031901126101be57602060ff600854166040519015158152f35b346101be5760203660031901126101be5760206103866004356113d9565b346101be5760203660031901126101be5760206105136107b3610398565b611316565b346101be5760203660031901126101be576001600160a01b036107d9610398565b16600052600e6020526020604060002054604051908152f35b346101be576000806003193601126103655761089c906108317f0000000000000000000000000000000000000000000000000000000000000000612481565b61085a7f0000000000000000000000000000000000000000000000000000000000000000612576565b916040519161086883610c0e565b818352604051948594600f60f81b865261088e60209360e08589015260e0880190610231565b908682036040880152610231565b904660608601523060808601528260a086015284820360c08601528080855193848152019401925b8281106108d357505050500390f35b8351855286955093810193928101926001016108c4565b346101be5760203660031901126101be5761092160043561091c65ffffffffffff610914436127fb565b168210610efa565b612862565b600d54906000829160058411610978575b61093c9350611ff0565b60008161095157505060405160008152602090f35b600d61095e602093611c34565b91526000805160206128c88339815191520154811c61059a565b919261098381612640565b81039081116106185761093c93600d835263ffffffff80836000805160206128c8833981519152015416908516106000146109bf575091610932565b9291506109cb90611c43565b90610932565b346101be5760003660031901126101be5760206109ed436127fb565b65ffffffffffff60405191168152f35b346101be576000806003193601126103655760405190806001805491610a22836113f6565b8086529282811690811561033b5750600114610a48576102dd856102d181870382610c46565b92508083527fb10e2d527612073b26eecdfd717e6a320cf44b4afac2b0732d9fcbe2b7fa0cf65b828410610a8a5750505081016020016102d1826102dd6102c1565b80546020858701810191909152909301928101610a6f565b346101be5760203660031901126101be576001600160a01b03610ac3610398565b16600052600c602052602060018060e01b03610ae26040600020611c9b565b16604051908152f35b346101be5760403660031901126101be57610b04610398565b60243580151581036101be576001600160a01b03821691338314610b925781610b4f610b609233600052600560205260406000209060018060a01b0316600052602052604060002090565b9060ff801983541691151516179055565b604051901515815233907f17307eab39ab6107e8899845ad3d59bd9653f200f220920489ca2b5937696c3190602090a3005b60405162461bcd60e51b815260206004820152601960248201527f4552433732313a20617070726f766520746f2063616c6c6572000000000000006044820152606490fd5b634e487b7160e01b600052604160045260246000fd5b6040810190811067ffffffffffffffff821117610c0957604052565b610bd7565b6020810190811067ffffffffffffffff821117610c0957604052565b60c0810190811067ffffffffffffffff821117610c0957604052565b90601f8019910116810190811067ffffffffffffffff821117610c0957604052565b60405190610c7582610bed565b565b67ffffffffffffffff8111610c0957601f01601f191660200190565b346101be5760803660031901126101be57610cac610398565b610cb46103ae565b6064359167ffffffffffffffff83116101be57366023840112156101be57826004013591610ce183610c77565b92610cef6040519485610c46565b80845236602482870101116101be57602081600092602461041b9801838801378501015260443591611528565b346101be5760c03660031901126101be57610d35610398565b6064359060243560443560ff841684036101be57804211610e0657610dd8610e019161041b9560405190610dc082610db26020820195898b8860609194939260808201957fe48329057bfd03d55e49b547132e39cffd9c1820ad7b9d4c5307691425d15adf835260018060a01b0316602083015260408201520152565b03601f198101845283610c46565b610dd360a435936084359351902061245b565b61215b565b6001600160a01b0381166000908152600e60205260409020805460018101909155909214610f3d565b610f80565b60405162461bcd60e51b815260206004820152601860248201527f566f7465733a207369676e6174757265206578706972656400000000000000006044820152606490fd5b346101be5760203660031901126101be57610e6760043561184a565b6000604051610e7581610c0e565b526102dd604051610e8581610c0e565b60008152604051918291602083526020830190610231565b346101be5760403660031901126101be57602060ff610eee610ebd610398565b610ec56103ae565b6001600160a01b0391821660009081526005865260408082209290931681526020919091522090565b54166040519015158152f35b15610f0157565b60405162461bcd60e51b81526020600482015260146024820152730566f7465733a20667574757265206c6f6f6b75760641b6044820152606490fd5b15610f4457565b60405162461bcd60e51b8152602060048201526014602482015273566f7465733a20696e76616c6964206e6f6e636560601b6044820152606490fd5b6001600160a01b038181166000818152600b6020526040812080548685166001600160a01b0319821681179092559095931693610fe6929091869186917f3134e8a2e6d97e929a7e54011ea5485d7d196dd5f0ba4d4ef95803e8e3fc257f9080a4611316565b918381141580611107575b610ffc575b50505050565b8061106d575b508261100f575b80610ff6565b6001600160a01b03166000908152600c602052604090206000805160206128e88339815191529161104a916110449091612792565b90611253565b604080516001600160e01b039384168152919092166020820152a2388080611009565b6001600160a01b0381166000908152600c6020526040902061108e84612792565b6110a765ffffffffffff6110a1436127fb565b16612862565b6001600160e01b039182806110bb86611c9b565b169116900392828411610618576000805160206128e8833981519152936110fe926110e592611f0a565b6040805192851683529316602082015291829190820190565b0390a238611002565b50821515610ff1565b6001600160a01b03808316929190811690818414158061120d575b6111355750505050565b8161119c575b50508161114a575b8080610ff6565b6001600160a01b03166000908152600c602052604090206000805160206128e88339815191529061117a90611215565b604080516001600160e01b039384168152919092166020820152a23880611143565b6001600160a01b03166000908152600c602052604090206111c665ffffffffffff6110a1436127fb565b6001600160e01b0390600019826111dc85611c9b565b160192828411610618576000805160206128e883398151915293611203926110e592611f0a565b0390a2388061113b565b50600161112b565b61122865ffffffffffff6110a1436127fb565b6001600160e01b039060018261123d85611c9b565b16019182116106185761124f92611f0a565b9091565b9061126765ffffffffffff6110a1436127fb565b6001600160e01b0391828061127b86611c9b565b169116019182116106185761124f92611f0a565b6112a265ffffffffffff6110a1436127fb565b6001600160e01b036001816112b5611c51565b16019081116106185761124f91611dec565b6112da65ffffffffffff6110a1436127fb565b6001600160e01b03600019816112ee611c51565b16019081116113005761124f91611dec565b634e487b7160e01b600052601160045260246000fd5b6001600160a01b0316801561133657600052600360205260406000205490565b60405162461bcd60e51b815260206004820152602960248201527f4552433732313a2061646472657373207a65726f206973206e6f7420612076616044820152683634b21037bbb732b960b91b6064820152608490fd5b1561139457565b60405162461bcd60e51b815260206004820152601860248201527f4552433732313a20696e76616c696420746f6b656e20494400000000000000006044820152606490fd5b6113e2906119a1565b6102826001600160a01b038216151561138d565b90600182811c92168015611426575b602083101461141057565b634e487b7160e01b600052602260045260246000fd5b91607f1691611405565b1561143757565b60405162461bcd60e51b815260206004820152603d60248201527f4552433732313a20617070726f76652063616c6c6572206973206e6f7420746f60448201527f6b656e206f776e6572206f7220617070726f76656420666f7220616c6c0000006064820152608490fd5b6114ab8161184a565b6000908152600460205260409020546001600160a01b031690565b156114cd57565b60405162461bcd60e51b815260206004820152602d60248201527f4552433732313a2063616c6c6572206973206e6f7420746f6b656e206f776e6560448201526c1c881bdc88185c1c1c9bdd9959609a1b6064820152608490fd5b9061154c93929161153c6104ee84336115c3565b611547838383611695565b6118de565b1561155357565b60405162461bcd60e51b81528061156c60048201611570565b0390fd5b60809060208152603260208201527f4552433732313a207472616e7366657220746f206e6f6e20455243373231526560408201527131b2b4bb32b91034b6b83632b6b2b73a32b960711b60608201520190565b6001600160a01b03806115d5846113d9565b16928183169284841494851561160b575b505083156115f5575b50505090565b611601919293506114a2565b16143880806115ef565b60009081526005602090815260408083206001600160a01b03949094168352929052205460ff16935038806115e6565b1561164257565b60405162461bcd60e51b815260206004820152602560248201527f4552433732313a207472616e736665722066726f6d20696e636f72726563742060448201526437bbb732b960d91b6064820152608490fd5b906116bb92916116a4836113d9565b6001600160a01b038281169590918216861461163b565b821693841561179557610c759484916116d2611ac2565b6116f4816116ee6116e2866113d9565b6001600160a01b031690565b1461163b565b61171b61170b846000526004602052604060002090565b80546001600160a01b0319169055565b6001600160a01b038481166000908152600360209081526040808320805460001901905592881680835283832080546001019055868352600290915291902080546001600160a01b03191690911790557fddf252ad1be2c89b69c2b068fc378daa952ba7f163c4a11628f55a4df523b3ef600080a4611b27565b60405162461bcd60e51b8152602060048201526024808201527f4552433732313a207472616e7366657220746f20746865207a65726f206164646044820152637265737360e01b6064820152608490fd5b600082815260046020526040902080546001600160a01b0319166001600160a01b0383161790556001600160a01b038061181f846113d9565b169116907f8c5be1e5ebec7d5bd14f71427d1e84f3dd0314c0f7b2291e5b200ac8c7c3b925600080a4565b610c75906001600160a01b0390611860906119a1565b16151561138d565b908160209103126101be5751610282816101ac565b6001600160a01b03918216815291166020820152604081019190915260806060820181905261028292910190610231565b3d156118d9573d906118bf82610c77565b916118cd6040519384610c46565b82523d6000602084013e565b606090565b92909190823b1561199857611911926020926000604051809681958294630a85bd0160e11b9a8b8552336004860161187d565b03926001600160a01b03165af160009181611968575b5061195a576119346118ae565b805190816119555760405162461bcd60e51b81528061156c60048201611570565b602001fd5b6001600160e01b0319161490565b61198a91925060203d8111611991575b6119828183610c46565b810190611868565b9038611927565b503d611978565b50505050600190565b6000818152600260205260408120546001600160a01b03929083168015801590611ab2575b611aab57506119ee8160ff6001918060081c6000526007602052161b60406000205416151590565b156119f95750905090565b600680549182906001600160601b0390811690855b858110611a51575050508203611a245750501690565b9091527ff652222313e28459528d920b65115c16c04f3efc82aaedc97be59f3f377c0d3f015460601c1690565b611a5b868261262b565b90818689528484827ff652222313e28459528d920b65115c16c04f3efc82aaedc97be59f3f377c0d3f01541610600014611aa25750506001810180911115611a0e57611300565b96509050611a0e565b9250505090565b506001600160601b0382116119c6565b60ff60085416611ace57565b60405162461bcd60e51b815260206004820152602b60248201527f4552433732315061757361626c653a20746f6b656e207472616e73666572207760448201526a1a1a5b19481c185d5cd95960aa1b6064820152608490fd5b6001600160a01b039190821690611b6b9083908315611c25575b1680159384611c16575b6000938452600b6020528060408520541691845260408420541690611110565b81611bcc575b5080611ba2575b611b7f5750565b610c75908060081c6000526007602052600160ff604060002092161b8154179055565b50611bc68160ff6001918060081c6000526007602052161b60406000205416151590565b15611b78565b9050611bd66120ac565b50919015611c07575060016001600160601b0380921601908111610618576001600160601b03905b16811038611b71565b6001600160601b039150611bfe565b611c1e6112c7565b5050611b4b565b611c2d61128f565b5050611b41565b60001981019190821161061857565b906001820180921161061857565b600d5460009080611c63575050600090565b8060001981011161061857600d7fd7b6990105719101dabeb77144f2a3385c8033acd3af97e9423a695e81ad1eb49252015460201c90565b805460009181611cad57505050600090565b6000199282848101116106185760209181522001015460201c90565b600d5490600160401b821015610c09576001820180600d55821015611d1e57600d600052805160209182015190911b63ffffffff191663ffffffff91909116176000805160206128c883398151915290910155565b634e487b7160e01b600052603260045260246000fd5b908154600160401b811015610c095760018101808455811015611d1e57600092835260209283902082519284015190931b63ffffffff191663ffffffff9290921691909117910155565b90604051611d8b81610bed565b602081935463ffffffff81168352811c910152565b15611da757565b60405162461bcd60e51b815260206004820152601b60248201527f436865636b706f696e743a2064656372656173696e67206b65797300000000006044820152606490fd5b600d549192918015611ee057611ea6918185611e2c611e27611e0f602096611c34565b600d6000526000805160206128c88339815191520190565b611d7e565b92611e3b845163ffffffff1690565b611e5263ffffffff91828416928391161115611da0565b611e6c611e63865163ffffffff1690565b63ffffffff1690565b03611eaa5750611e81611e0f611e9893611c34565b9063ffffffff82549181199060201b169116179055565b01516001600160e01b031690565b9190565b9050611edb9150611ec8611ebc610c68565b63ffffffff9092168252565b6001600160e01b03871681850152611cc9565b611e98565b50611f0490611ef0611ebc610c68565b6001600160e01b0384166020820152611cc9565b60009190565b90929192838254801515600014611fcb57926020929184611f40611e27611f33611ea698611c34565b8560005260206000200190565b93611f4f855163ffffffff1690565b611f6663ffffffff91828416928391161115611da0565b611f77611e63875163ffffffff1690565b03611f9a5750611e9892611f8d611e8192611c34565b9060005260206000200190565b915050611edb91611fb8611fac610c68565b63ffffffff9093168352565b6001600160e01b03881682860152611d34565b5050611f0491611fdc611fac610c68565b6001600160e01b0385166020830152611d34565b828210611ffc57505090565b9091612008818461262b565b90600d60005263ffffffff80836000805160206128c88339815191520154169084161060001461203b5750915b90611ff0565b9250600181018091111561203557611300565b905b83831061205d5750505090565b90919261206a818561262b565b9081602060008681528263ffffffff9283922001541690851610600014612096575050925b9190612050565b6001919550809250018091111561208f57611300565b600654806120c05750600090600090600090565b90816000198101116106185760209060066000527ff652222313e28459528d920b65115c16c04f3efc82aaedc97be59f3f377c0d3e6040519361210285610bed565b0154926001600160601b0384169384825260601c92839101526001929190565b6040519061212f82610bed565b60208083523683820137565b8115612145570490565b634e487b7160e01b600052601260045260246000fd5b91610282939161216a936122b2565b919091612192565b6005111561217c57565b634e487b7160e01b600052602160045260246000fd5b61219b81612172565b806121a35750565b6121ac81612172565b600181036121f95760405162461bcd60e51b815260206004820152601860248201527f45434453413a20696e76616c6964207369676e617475726500000000000000006044820152606490fd5b61220281612172565b6002810361224f5760405162461bcd60e51b815260206004820152601f60248201527f45434453413a20696e76616c6964207369676e6174757265206c656e677468006044820152606490fd5b8061225b600392612172565b1461226257565b60405162461bcd60e51b815260206004820152602260248201527f45434453413a20696e76616c6964207369676e6174757265202773272076616c604482015261756560f01b6064820152608490fd5b9291907f7fffffffffffffffffffffffffffffff5d576e7357a4501ddfe92f46681b20a083116123355791608094939160ff602094604051948552168484015260408301526060820152600093849182805260015afa156123285781516001600160a01b03811615612322579190565b50600190565b50604051903d90823e3d90fd5b50505050600090600390565b307f00000000000000000000000000000000000000000000000000000000000000006001600160a01b03161480612432575b1561239c577f000000000000000000000000000000000000000000000000000000000000000090565b60405160208101907f8b73c3c69bb8fe3d512ecc4cf759cc79239f7b179b0ffacaa9a75d522b39400f82527f000000000000000000000000000000000000000000000000000000000000000060408201527f000000000000000000000000000000000000000000000000000000000000000060608201524660808201523060a082015260a0815261242c81610c2a565b51902090565b507f00000000000000000000000000000000000000000000000000000000000000004614612373565b604290612466612341565b906040519161190160f01b8352600283015260228201522090565b60ff81146124bb5760ff811690601f82116124a95761249e612122565b918252602082015290565b604051632cd44ac360e21b8152600490fd5b506040516009548160006124ce836113f6565b8083529260019081811690811561255457506001146124f5575b5061028292500382610c46565b6009600090815291507f6e1540171b6c0c960b71a7020d9f60077f6af931a8bbf590da0223dacf75c7af5b84831061253957506102829350508101602001386124e8565b81935090816020925483858901015201910190918492612520565b90506020925061028294915060ff191682840152151560051b820101386124e8565b60ff81146125935760ff811690601f82116124a95761249e612122565b50604051600a548160006125a6836113f6565b8083529260019081811690811561255457506001146125cc575061028292500382610c46565b600a600090815291507fc65a7bb8d6351c1cf70c95a316cc6a92839c986682d98bc35f958f4883f9d2a85b84831061261057506102829350508101602001386124e8565b819350908160209254838589010152019101909184926125f7565b90808216911860011c81018091116106185790565b801561277a578061271361270c6127026126f86126ee6126e46126da6126d060016102829a6000908b60801c8061276e575b508060401c80612761575b508060201c80612754575b508060101c80612747575b508060081c8061273a575b508060041c8061272d575b508060021c80612720575b50821c612719575b811c1b6126c9818b61213b565b0160011c90565b6126c9818a61213b565b6126c9818961213b565b6126c9818861213b565b6126c9818761213b565b6126c9818661213b565b6126c9818561213b565b809261213b565b90612780565b81016126bc565b60029150910190386126b4565b60049150910190386126a9565b600891509101903861269e565b6010915091019038612693565b6020915091019038612688565b604091509101903861267d565b91505060809038612672565b50600090565b908082101561278d575090565b905090565b6001600160e01b03908181116127a6571690565b60405162461bcd60e51b815260206004820152602760248201527f53616665436173743a2076616c756520646f65736e27742066697420696e20326044820152663234206269747360c81b6064820152608490fd5b65ffffffffffff9081811161280e571690565b60405162461bcd60e51b815260206004820152602660248201527f53616665436173743a2076616c756520646f65736e27742066697420696e203460448201526538206269747360d01b6064820152608490fd5b63ffffffff90818111612873571690565b60405162461bcd60e51b815260206004820152602660248201527f53616665436173743a2076616c756520646f65736e27742066697420696e203360448201526532206269747360d01b6064820152608490fdfed7b6990105719101dabeb77144f2a3385c8033acd3af97e9423a695e81ad1eb5dec2bacdd2f05b59de34da9b523dff8be42e5e38e818c82fdb0bae774387a724a2646970667358221220ca3a5dafae8ca6075b4ad6d65fcca4751826df9e9c2b3abecef53db78c44ac5964736f6c63430008130033d7b6990105719101dabeb77144f2a3385c8033acd3af97e9423a695e81ad1eb5f652222313e28459528d920b65115c16c04f3efc82aaedc97be59f3f377c0d3fdec2bacdd2f05b59de34da9b523dff8be42e5e38e818c82fdb0bae774387a724",
    "linkReferences": {}
  },
  "methodIdentifiers": {
    "CLOCK_MODE()": "4bf5d7e9",
    "DOMAIN_SEPARATOR()": "3644e515",
    "approve(address,uint256)": "095ea7b3",
    "balanceOf(address)": "70a08231",
    "clock()": "91ddadf4",
    "delegate(address)": "5c19a95c",
    "delegateBySig(address,uint256,uint256,uint8,bytes32,bytes32)": "c3cda520",
    "delegates(address)": "587cde1e",
    "eip712Domain()": "84b0196e",
    "getApproved(uint256)": "081812fc",
    "getPastTotalSupply(uint256)": "8e539e8c",
    "getPastVotes(address,uint256)": "3a46b1a8",
    "getVotes(address)": "9ab24eb0",
    "isApprovedForAll(address,address)": "e985e9c5",
    "name()": "06fdde03",
    "nonces(address)": "7ecebe00",
    "ownerOf(uint256)": "6352211e",
    "paused()": "5c975abb",
    "safeTransferFrom(address,address,uint256)": "42842e0e",
    "safeTransferFrom(address,address,uint256,bytes)": "b88d4fde",
    "setApprovalForAll(address,bool)": "a22cb465",
    "supportsInterface(bytes4)": "01ffc9a7",
    "symbol()": "95d89b41",
    "tokenURI(uint256)": "c87b56dd",
    "transferFrom(address,address,uint256)": "23b872dd"
  },
  "id": 102
}