{
  "abi": [
    {
      "inputs": [
        {
          "internalType": "uint256[2]",
          "name": "a",
          "type": "uint256[2]"
        },
        {
          "internalType": "uint256[2][2]",
          "name": "b",
          "type": "uint256[2][2]"
        },
        {
          "internalType": "uint256[2]",
          "name": "c",
          "type": "uint256[2]"
        },
        {
          "internalType": "uint256[101]",
          "name": "input",
          "type": "uint256[101]"
        }
      ],
      "name": "verifyProof",
      "outputs": [
        {
          "internalType": "bool",
          "name": "r",
          "type": "bool"
        }
      ],
      "stateMutability": "view",
      "type": "function"
    }
  ],
  "bytecode": {
    "object": "0x6080806040523461001657613df0908161001c8239f35b600080fdfe604060808152600436101561001357600080fd5b6000803560e01c63abc84df51461002957600080fd5b346100be57610da03660031901126100be576100443661011c565b9036606312156100be576100566100d7565b908160c4913683116100be57506044905b8282106100a5576100a18661009087876100803661015e565b9061008a366101dc565b92610a90565b905190151581529081906020820190565b0390f35b602086916100b3368561019c565b815201910190610067565b80fd5b634e487b7160e01b600052604160045260246000fd5b604051906040820182811067ffffffffffffffff8211176100f757604052565b6100c1565b6040519060a0820182811067ffffffffffffffff8211176100f757604052565b80602312156101595761012d6100d7565b90816044918211610159576004905b8282106101495750505090565b813581526020918201910161013c565b600080fd5b8060e312156101595761016f6100d7565b90816101049182116101595760c4905b82821061018c5750505090565b813581526020918201910161017f565b9080601f83011215610159576101b06100d7565b80926040810192831161015957905b8282106101cc5750505090565b81358152602091820191016101bf565b8061012312156101595760405190610ca0820182811067ffffffffffffffff8211176100f75760405281610da491821161015957610104905b8282106102225750505090565b8135815260209182019101610215565b604051906020820182811067ffffffffffffffff8211176100f7576040526020368337565b61025f6100d7565b906102686100d7565b604036823782526102776100d7565b60403682376020830152565b604051906060820182811067ffffffffffffffff8211176100f757604052816102aa6100d7565b600081526000602082015281526102bf610257565b602082015260406102ce6100d7565b9160008352600060208401520152565b634e487b7160e01b600052603260045260246000fd5b67ffffffffffffffff81116100f75760051b60200190565b60405190610cc0820182811067ffffffffffffffff8211176100f75760405260658252610ca0366020840137565b90610344826102f4565b60405190601f1990601f018116820167ffffffffffffffff8111838210176100f75760405283825261037682946102f4565b0190602036910137565b634e487b7160e01b600052601160045260246000fd5b60001981146103a55760010190565b610380565b9060658110156103bb5760051b0190565b6102de565b8051156103bb5760200190565b8051600110156103bb5760400190565b8051600210156103bb5760600190565b8051600310156103bb5760800190565b8051600410156103bb5760a00190565b8051600510156103bb5760c00190565b8051600610156103bb5760e00190565b8051600710156103bb576101000190565b8051600810156103bb576101200190565b8051600910156103bb576101400190565b8051600a10156103bb576101600190565b8051600b10156103bb576101800190565b8051600c10156103bb576101a00190565b8051600d10156103bb576101c00190565b8051600e10156103bb576101e00190565b8051600f10156103bb576102000190565b8051601010156103bb576102200190565b8051601110156103bb576102400190565b8051601210156103bb576102600190565b8051601310156103bb576102800190565b8051601410156103bb576102a00190565b8051601510156103bb576102c00190565b8051601610156103bb576102e00190565b8051601710156103bb576103000190565b8051601810156103bb576103200190565b8051601910156103bb576103400190565b8051601a10156103bb576103600190565b8051601b10156103bb576103800190565b8051601c10156103bb576103a00190565b8051601d10156103bb576103c00190565b8051601e10156103bb576103e00190565b8051601f10156103bb576104000190565b8051602010156103bb576104200190565b8051602110156103bb576104400190565b8051602210156103bb576104600190565b8051602310156103bb576104800190565b8051602410156103bb576104a00190565b8051602510156103bb576104c00190565b8051602610156103bb576104e00190565b8051602710156103bb576105000190565b8051602810156103bb576105200190565b8051602910156103bb576105400190565b8051602a10156103bb576105600190565b8051602b10156103bb576105800190565b8051602c10156103bb576105a00190565b8051602d10156103bb576105c00190565b8051602e10156103bb576105e00190565b8051602f10156103bb576106000190565b8051603010156103bb576106200190565b8051603110156103bb576106400190565b8051603210156103bb576106600190565b8051603310156103bb576106800190565b8051603410156103bb576106a00190565b8051603510156103bb576106c00190565b8051603610156103bb576106e00190565b8051603710156103bb576107000190565b8051603810156103bb576107200190565b8051603910156103bb576107400190565b8051603a10156103bb576107600190565b8051603b10156103bb576107800190565b8051603c10156103bb576107a00190565b8051603d10156103bb576107c00190565b8051603e10156103bb576107e00190565b8051603f10156103bb576108000190565b8051604010156103bb576108200190565b8051604110156103bb576108400190565b8051604210156103bb576108600190565b8051604310156103bb576108800190565b8051604410156103bb576108a00190565b8051604510156103bb576108c00190565b8051604610156103bb576108e00190565b8051604710156103bb576109000190565b8051604810156103bb576109200190565b8051604910156103bb576109400190565b8051604a10156103bb576109600190565b8051604b10156103bb576109800190565b8051604c10156103bb576109a00190565b8051604d10156103bb576109c00190565b8051604e10156103bb576109e00190565b8051604f10156103bb57610a000190565b8051605010156103bb57610a200190565b8051605110156103bb57610a400190565b8051605210156103bb57610a600190565b8051605310156103bb57610a800190565b8051605410156103bb57610aa00190565b8051605510156103bb57610ac00190565b8051605610156103bb57610ae00190565b8051605710156103bb57610b000190565b8051605810156103bb57610b200190565b8051605910156103bb57610b400190565b8051605a10156103bb57610b600190565b8051605b10156103bb57610b800190565b8051605c10156103bb57610ba00190565b8051605d10156103bb57610bc00190565b8051605e10156103bb57610be00190565b8051605f10156103bb57610c000190565b8051606010156103bb57610c200190565b8051606110156103bb57610c400190565b8051606210156103bb57610c600190565b8051606310156103bb57610c800190565b8051606410156103bb57610ca00190565b8051606510156103bb57610cc00190565b80518210156103bb5760209160051b010190565b92919092610a9c610283565b938151602080930151610aad6100d7565b918252838201528552610abe6100d7565b908051518252610acf815160200190565b5183830152610aee83610ae06100d7565b920180515183525160200190565b5183820152610afb6100d7565b918252828201528185015280825192015190610b156100d7565b9283528201526040830152610b2861030c565b9060005b60658110610b4e57505090610b4091610c45565b610b4957600190565b600090565b80610b5c610b6d92846103aa565b51610b678286610a7c565b52610396565b610b2c565b90600182018092116103a557565b90600282018092116103a557565b90600382018092116103a557565b90600482018092116103a557565b90600582018092116103a557565b15610bbf57565b60405162461bcd60e51b81526020600482015260126024820152711d995c9a599a595c8b5898590b5a5b9c1d5d60721b6044820152606490fd5b15610c0057565b60405162461bcd60e51b815260206004820152601f60248201527f76657269666965722d6774652d736e61726b2d7363616c61722d6669656c64006044820152606490fd5b919091610c50610e5a565b91610c5b8251610b72565b90610c6d608085019283515114610bb8565b610c756100d7565b6000815260006020820152946000955b8451871015610d0557610cf9610cff91610cca7f30644e72e131a029b85045b68181585d2833e84879b9709143e1f593f0000001610cc38b8a610a7c565b5110610bf9565b610cf3610ce18751610cdb8c610b72565b90610a7c565b51610cec8b8a610a7c565b5190613a7a565b90613a0d565b96610396565b95610c85565b610d5795929650610d539450610d1f610d269294516103c0565b5190613a0d565b91610d318151613984565b9260208201518351602085015191606060408088015196015196015196613adb565b1590565b610d6057600090565b600190565b6040519060a0820182811067ffffffffffffffff8211176100f7576040526060608083610d906100d7565b60008152600060208201528152610da5610257565b6020820152610db2610257565b6040820152610dbf610257565b838201520152565b60405190610ce0820182811067ffffffffffffffff8211176100f75760405260668252600082815b610cc08110610dfd57505050565b602090610e086100d7565b848152828581830152828501015201610def565b610e246100fc565b6004815290600082815b60808110610e3b57505050565b602090610e466100d7565b848152828581830152828501015201610e2e565b610e62610d65565b90613981610e6e6100d7565b7f13d7c88398ef42f1df7754fbba96afe6f40f2e0f13624822b6439a27ea24073a81526020907f29d34469db013c7469277cb3d550a43548f269db63eb765fc4f2694729392c72828201528452610ec36100d7565b7f173acb72e964a2625967f8b8b4203223586d5a3d9ecf2948739075266306ed2a81527f189feeb2ec9e5c4aa8d08c6d5c2038a52b000b6fd516ca3e6af2f4d48af3728682820152610f136100d7565b7f16e6a702dd6c788f6c6e4d714122f5524ca6f22d164f6c052e8546394df1750881527f012b963d3c911503efd1a39882cc13c8099855c0fe98bce27a0246c121a8114f83820152610f636100d7565b9182528282015281850152610f766100d7565b7f198e9393920d483a7260bfb731fb5d25f1aa493335a9e71297e485b7aef312c281527f1800deef121f1e76426a00665e5c4479674322d4f75edadd46debd5cd992f6ed82820152610fc66100d7565b7f090689d0585ff075ec9e99ad690c3395bc4b313370b38ef355acdadcd122975b81527f12c85ea5db8c6deb4aab71808dcb408fe3d1e7690c43d37b4ce6cc0166fa7daa838201526110166100d7565b91825282820152604085015261102a6100d7565b7f23e7662006c4af5451734166d4790dec08947409e514963f7652fbeeb2de669181527f2be1118e2aef015fe02a34ddf809200a408b5b846f22272c1c6de97917a8b83f8282015261107a6100d7565b7f0dab304acd172e16aa39955640fb6e0a158e9ef9e02ffe92406d8939f6e46eee81527f0c8097bf437fac32d2e481ea6a96ebf1664ce1cca48c2298b8266b2884590558838201526110ca6100d7565b9182528282015260608501526110de610dc7565b6080850190815261114a6110f06100d7565b7f1b760e04c7174dbadcf1117a64ba95643a29860661b18490b4002810a6447ee481527f0b0af4e31356a456ba54fe6df00eb78ccf6d061da2185f1ccbed61458c323a4284820152825190611144826103c0565b526103c0565b506111b06111566100d7565b7f1c8facfb5fe5775e40352a7e135319e0f4848e3ed4216cfa473e6b84b6d0bece81527f038a8f376a04e6e6baa23983d5962916dfccc16bde8e40d77dee160f1ff5317c848201528251906111aa826103cd565b526103cd565b506112156111bc6100d7565b7ec28f3a699c74452fe157c8f5cb8bb5b0d9eeb3c712b2442a17a1d520bd0d7281527f0e30cd214e704c6ec0d7ef5d7229bb95140b9aa98adc0445d788ee5f7e8b0eea8482015282519061120f826103dd565b526103dd565b5061127b6112216100d7565b7f29fc5e63f73dde16c23467681dd723d0af4c4b8b524259d47c478df8342e2c3281527f01e51f13d7e6c1b58204aa02714de0e17605cb20c45bf8bb3531972b4a2320f784820152825190611275826103ed565b526103ed565b506112e16112876100d7565b7f1a03497d3bfbc5e9d48a1366caa7d6f4462fe9edd5c996e1297b14ae712074d481527f1be1845c47627c9bcbd77d4dfc5d6a7ca6c7899b07402674b451384acad964cf848201528251906112db826103fd565b526103fd565b506113476112ed6100d7565b7f12372692c718c5e4c215da2dff8429fc390271e4176673ac62baf720f66f818b81527f1aa8f31d0b05173093d75d45554f63da145efb0353c71161cc409dc61448797d848201528251906113418261040d565b5261040d565b506113ad6113536100d7565b7f2af453790428c1ae401a36cfae35593a7e36b5b01bb844b7d3d213fac9bf079481527f29ae5e625ac717419ce4e6b6fa43b7141af47a3447871cab918af58115491330848201528251906113a78261041d565b5261041d565b506114136113b96100d7565b7f1e642d3336def63e62e8068b6e2633895586414af1bdd2bccc4a2964b23c363a81527f2faa9d0ceb5aeb7c4d940c5a0de82854397d080bb93f36335b7964996cfa58d18482015282519061140d8261042d565b5261042d565b5061147961141f6100d7565b7f1d2358ad2504832c19a110f6e1c9423548be48fdcc31092cadba95cb9614917581527f08a5232f51cc660b56a131c47d839fdbf5370597f9e13770b0cdf98df23a90aa848201528251906114738261043e565b5261043e565b506114df6114856100d7565b7f01c0153efce1391c0b69a64e8a6eeb3d69664f59a027e6736dcc9cd9aa2c0e5f81527f2ae3bcab954723c2dec180d4ffa9caaea1d4acfaac7dfef8dc7a04c60fc5696a848201528251906114d98261044f565b5261044f565b506115456114eb6100d7565b7f0c1ae9c9ed9933f321e8f65fed6b0bf72a49f59132b381a14e0049ffe3fa327f81527f1633d30a0018b6d7dc5c4b413014f990ccdf4168e2ee0343a4802b30d0739dd48482015282519061153f82610460565b52610460565b506115ab6115516100d7565b7f18f1f7a29254cd358dff08dd0db1ae35f464e36b9a7038e28036131ed7ce0a2781527f0bb7e61ac388904e4638a17fe2315440a38b72c1b3479a6b968d0228ff1870c6848201528251906115a582610471565b52610471565b506116116115b76100d7565b7f0116bf4b6d69b006677020c62993e085011dd2e29e6508391966bf1d2d4f3b5881527f0a94bd4bcd0895fea0e2e9723f00b75f4914ad91f03e67bc6affe3aa260f55348482015282519061160b82610482565b52610482565b5061167761161d6100d7565b7f0a39c30aa17a243ee2a4f0fb5b8cca0695a9c4f61601ccd5de2d5db6ceb6842a81527f265f57b087db72b9bf27132bbc6ec7bfb68523683d9bda96a988251c75810d8e8482015282519061167182610493565b52610493565b506116dd6116836100d7565b7f010c3afd19e7bad3fb0ca4816d8886c67a0b85fefe3bf7c29cae90e49973406c81527f25d96b95a6b0aef5b3b2adba2dce99a2a2cb658315fdbf84f014f65f288cf69b848201528251906116d7826104a4565b526104a4565b506117436116e96100d7565b7f29a673add037c10a067e6580c524d374d2e4931afbf7e6a2520f1953d29030be81527f050b8fc1b639b97704c6ea09532c4ef210dc0a992e8e52e58d15a510127550ff8482015282519061173d826104b5565b526104b5565b506117a961174f6100d7565b7f12579d1562dba03ec7b241a2d5695a79fa3cb2b364ead9214cd819670de8794481527f1716c7ac84191ee8effc563be5e2cc69e7920d0f1dc113b72dbc21f6d44411bf848201528251906117a3826104c6565b526104c6565b5061180f6117b56100d7565b7f1e3daa6c392916b4184f21f33bd0252d9ff667c2271989adcccdcd95c41c8f3d81527f2ce28a4b45a60341e79ee6f834a85575a077e065be05d74d8f53963e69c0da5284820152825190611809826104d7565b526104d7565b5061187561181b6100d7565b7f0bda10f61367b81b6fad50c30087f5932744f7e54ce5f7a21b4a82046303a5ba81527f0ca2295796c32e3c045bffeaca2b448a73becd96847ecc507db0031dc3dcd9408482015282519061186f826104e8565b526104e8565b506118db6118816100d7565b7f05e6b76827126e0f909babb4d8c2629fdca081576db29b147440bc7d7c2722fe81527f1734b18edd2aaf07bbb594769cc68729a3f9412c1f6d60840969c189d9799827848201528251906118d5826104f9565b526104f9565b506119416118e76100d7565b7f2885e6caeb3e171185abe18eaf51c1709a9e8dd789e2e6c7bd15ea978e9a1ebb81527f01a5b15c9ce27d836be05b3f33bad46826c6daf32d77db00a5214830148750498482015282519061193b8261050a565b5261050a565b506119a761194d6100d7565b7f0f381843abc08143aead95a3c009b79749d180eef52ee3a57ae1a258afe8b49581527f07bd367d39e28dc2cc2a7217e725653fbb9816e748c0686a0ad433f53514768c848201528251906119a18261051b565b5261051b565b50611a0d6119b36100d7565b7f1c1c84198aed346e3ae4074a88c126b71d89c0cd2e45a6bbdde8c05e38fcde9381527f18246746bf0faf00eabcb9b2d759f1b3f066fec47d80e5ec530140f81a5244b984820152825190611a078261052c565b5261052c565b50611a73611a196100d7565b7f13163792ad90cabd8ba933c5d0d45b422fbf3b06da4ebab6d0d8697c565b85e181527f06588c2a7ae9ce64cf35c084247933aaf05527aba078f22d2fac1f837a2c6be184820152825190611a6d8261053d565b5261053d565b50611ad9611a7f6100d7565b7f24723d31344527a5837a99853a1df8ebbbc8c0f349568af98952ff2787a31e6181527f2f934772655e0680595ad47fa26ec5323288b826a4e8bd461e243a0bd813c90a84820152825190611ad38261054e565b5261054e565b50611b3f611ae56100d7565b7f084012820f41ca99d37dc63dda793481b40c8642bc3204e56b703906ab19b89c81527f0e2380439471f682db62d0036f0d5bdbe55612d7149c8a0ae7228d31b4c3351484820152825190611b398261055f565b5261055f565b50611ba5611b4b6100d7565b7f128054427ae8bc3bd5522a9a5d715d777a6a6767fb61db991a642c33591f32e181527f06147576b591073489bf99e1a6980e562c126ba18f30059af22ea2946ec0a16284820152825190611b9f82610570565b52610570565b50611c0b611bb16100d7565b7f2df15435fc86a928d2c759450cf820d8f34f82f4fec375b7c8d295859741969b81527f170d5f24da6b22454c41877f3df76fdf5b94e82073fe2ec4b1c660a1f549724e84820152825190611c0582610581565b52610581565b50611c71611c176100d7565b7f084cb7d47f5c9708c6e4a422c5b5195072e4d258a50bc599c2406b10c7bba5ff81527f1cd268f856b9171580cceb0b720c83d6a2b1137fae34d30fb2aed6339c22fa8c84820152825190611c6b82610592565b52610592565b50611cd7611c7d6100d7565b7f01653d24b7161cf60679a96ed657ef2257d144f790351b437bf86d99708cc80781527f1a75ef2e8424eb36a2d402a4403567171b28b774a1effdc66f2edf96280f037b84820152825190611cd1826105a3565b526105a3565b50611d3d611ce36100d7565b7f06b7b5399e382f573136b07a6158545767ebc24e4feb6eff8a593a5cc2820fb781527f248b364713d47de15880194a6d09764a3102c8e6c150b857e6fbf9d4c69cf67084820152825190611d37826105b4565b526105b4565b50611da3611d496100d7565b7f1a2603c84b9b312f5b43de8005d576dd0def4aafd5c1c5456d31ed50f58c0fcc81527f179fb598c6d67ec5b9d08fbe2a17bf71bd7530f8ba799abe96c02bbeafe9c8ab84820152825190611d9d826105c5565b526105c5565b50611e09611daf6100d7565b7f27a11b25bf32208c3adcd96af2ce6e0b128309932fab50de6a0d875adf06c36a81527f09594f75881a2db2407701372d9a3028d12d2bd09648e6e6fdc52074803a81bb84820152825190611e03826105d6565b526105d6565b50611e6f611e156100d7565b7f0d79b1d1ba84909af5c3ff078867122b894f5ee2200a91aa42515ed445b0534581527f05935af0931d1868eb8c3ffb6e7c7825f5a78b27d963af225abe426bc525a10a84820152825190611e69826105e7565b526105e7565b50611ed5611e7b6100d7565b7f12da0d304eb7d754d81ca903c71cb35448050dfc40094d25b05545eb0335d4d281527f29efa2d47b05369b314da488aedc398ffecad5cfc86356f7ff20b2616cab843884820152825190611ecf826105f8565b526105f8565b50611f3b611ee16100d7565b7f200eec5c18c2a9afab4c3fce4e61c5842ded1ea1ea2a43f1502a8db05c9585f181527f06bef0e6000aa5ee740140cc691ac83b2df024a454554883fd2673e6ce0d63fd84820152825190611f3582610609565b52610609565b50611fa1611f476100d7565b7f1a4092a331ba6328a3eb18c14371f99784d7aec87e2ddcb270021f0244f9430d81527f2da76d882a016038e6876883fd90e8c738fde23a41448d0b22d1c822a23cd50c84820152825190611f9b8261061a565b5261061a565b50612007611fad6100d7565b7f1591fb203bae98cd51f1d6e2c0b2b123304f9c02b8cbdac05defd44fdb90029581527f1ec627fe3a55b48cb6891181c3d666cf7e22040d41abdccf7ee7ff51bb07b8d6848201528251906120018261062b565b5261062b565b5061206d6120136100d7565b7f02f8899b12b7d723c10b31175be8094ebf931671da866b2269d4228e4d1b7c3881527f060844031341cec0b1d5f9a013ae9c2c6b37573f0b5e91e9954b51cd152cd1f7848201528251906120678261063c565b5261063c565b506120d36120796100d7565b7f295d2d868827b80f7cbe7937824bf949e43746aef4c4a612c417ab9fc317f6b381527f29755a122fc34ad41dbc1b3dc5acab1bed257d3120f474a72cc7d0c708f626bc848201528251906120cd8261064d565b5261064d565b506121396120df6100d7565b7f21c3f2e6a09f9d7d3a269db75e04672ec33243103a4b5e6217b52c513b97fe9b81527f2fa954fae0f3d6748f373ea980f7fc2f03043018aef0a804945067c868242985848201528251906121338261065e565b5261065e565b5061219f6121456100d7565b7f20685d29d6081071ed85c910687f8c5b1234d2365c6b2e2e7ec1f13efcce2df281527f25d55bee26359e1374347bcb4c00ed4ecb79b45fd79edbd928231d8544ba271a848201528251906121998261066f565b5261066f565b506122056121ab6100d7565b7f11ef43f8235c556f24af3a58043db6bfbd82b2d9ca626af6621252c8e069503181527f1fbca25e244354370887b47074411ac62d0637f14fc05bcf6f82140df5714d88848201528251906121ff82610680565b52610680565b5061226b6122116100d7565b7f2d16fdc30ebade08b2a0227ac1c01ccc271d318e89f1a34a614819292e9cadba81527f2d17d88f330775208aaef1b87c35041e32e603c4684fdca2d7ad978eab2189b98482015282519061226582610691565b52610691565b506122d16122776100d7565b7f1781093c5fb4c57fa845edf2236fd70058163f70b028ed685b6b39af22d8a63881527f26e0166c2f4a32700ea416686c946cfead237299b837e2944368116ed92559db848201528251906122cb826106a2565b526106a2565b506123376122dd6100d7565b7f113cd5d40b20900376341b67099431fb6c6bec9c44bdd21b340722e9cf6dec7681527f1b71ba9781154c93b8b0744bc02fd6f27b4f121507f7736cd736be71974bd5bc84820152825190612331826106b3565b526106b3565b5061239d6123436100d7565b7f30042f79ffc57845d377505a89fc431377e4dc75d587db71ada87f3eaa3147c381527f068f689dba7fd740463fb1ee53ea25b06f266e1f49e137b5ad8bcf9c9235baba84820152825190612397826106c4565b526106c4565b506124036123a96100d7565b7f301a6643dd70e42f07df6b2aa0a6065b781043d2520df8564879bb7a6f64c7ab81527f304c115848ef8df70836a0a103e5620a1bcfe0c86f14300e1f19149172842cc2848201528251906123fd826106d5565b526106d5565b5061246861240f6100d7565b7ee281dc6e508a5c4de29419ceca51878267044cd9d2abd7d7aadd8c188b0ac481527f2508b99705fb4f1209533f7c2c6599d2f5b435803a54540d3228617ae1c4fd8384820152825190612462826106e6565b526106e6565b506124ce6124746100d7565b7f0d8628a33b0fbeecc5c1aa24a5618846607b9a93e9db72b53fd9b96247e72bae81527f025741f4d2f277dafa6443127c0303e6a773b74c483b98d52549268e4d82fba4848201528251906124c8826106f7565b526106f7565b506125346124da6100d7565b7f0e3677158a12074f7b18697a3d2a05e78fba9f7afd3073540ffad60fa9667caa81527f1b84ec82aec2b38371b38961b56aa70a3044fae5051c2e5eaebf2d941abe90958482015282519061252e82610708565b52610708565b5061259a6125406100d7565b7f2ae8445acae6c67149f9af5d1c84c18c20375aaf6a50b39f5d5bebf51dead4d381527f0a8ae9d136af690eebb7d468daa290cf3b83eb75bb8deeda4ab5b47153940fa28482015282519061259482610719565b52610719565b506126006125a66100d7565b7f1faed80aa0e07f3cc2cff4716221722144bac26edbf0995b6cbf6c239e9201fe81527f27b8df598bfedaab0657211fa51394c1a308917d2b8fc4ce8752e7a4650626af848201528251906125fa8261072a565b5261072a565b5061266661260c6100d7565b7f17aa15fdc5b72b45a025c00ce553cd22227e70a7ba386dc5a6494597498a23d481527f0f646e939d97eb8598b21472e4e197ba86ec43a95e043a4d07b079c7c155d52a848201528251906126608261073b565b5261073b565b506126cc6126726100d7565b7f0aec69f57694af2ddd90b649dbef0bf6e27cf473f19fada2629e34a424ca17c281527f0682db90ae0b230686021ed80fda1fb1547d63296b5211ed928ea81a3ef98b1d848201528251906126c68261074c565b5261074c565b506127326126d86100d7565b7f1fab4e6c0619af1759b6dae7a06974f355b8239c8a2f169dc78688a68b31fbbf81527f11150cb054169e5014b44ca2f4f35eb98e1a8a0e797bbdd46fd4987109f77be68482015282519061272c8261075d565b5261075d565b5061279861273e6100d7565b7f156b1b33e6fd97ac418ee074c8279e5d570cd9630e323893ba282596d382469681527f1ca1089d47fd571b2735073d16ab5d7cbbf676acbd2c36931a98a7de5012fcfd848201528251906127928261076e565b5261076e565b506127fe6127a46100d7565b7f21fd6a20abb42bd8ef7d28097a7df4b3701bb139419c8a5d7f5e94eaa256322c81527f1b0464f664e188b2e970e75a1d0895be04df59c5ef4455600bec08c6ea09007c848201528251906127f88261077f565b5261077f565b5061286461280a6100d7565b7f0ef76855eafa36647fde2d518dfd005a200fe07c9e2d4c3d83b653297755e5a381527f05b3a5457d77a33f7dfd0f595bb0eb169e89de43817d21f74bc301b87afab22f8482015282519061285e82610790565b52610790565b506128ca6128706100d7565b7f1ef62368d26cf22d6b22c7c8df1a29af9877431a1f607eba4c0fb9f5bd583d1981527f13b985111dce56ef4f6f767170006372062374be9a8776b259bde545574c7d81848201528251906128c4826107a1565b526107a1565b506129306128d66100d7565b7f2cb43898c70e26299b4fb32cbdc9cec731abe06d0c273668eaa8bd1240481ff381527f04d5ad4644ccc0885c89d10c0788eb8d0fcfec7170bf7e8baf44444fc8fffe918482015282519061292a826107b2565b526107b2565b5061299661293c6100d7565b7f2c992ca2e0077e0b0159b337866af15c2e48e193a0e137c1a736729b22e6243a81527f17f3c56940a49dc566945344149a834d6ad05a128095e9405fba06870918b65384820152825190612990826107c3565b526107c3565b506129fc6129a26100d7565b7f074406e73338ac06a7c28bddf7604fdc57d9e9e71b48f763350e9fc9de07a2b681527f2773f5117f5161597a1cc73cd7f5ce023f38e283bf3dcf71d05687959ff9154b848201528251906129f6826107d4565b526107d4565b50612a62612a086100d7565b7f15991d5b7476f8154d094f17c23e488bd8f3f5797f8981c3e167a56868ae923381527f29b9eb334b428f7cfe6654948bec86607abe5a653b526514de8fb233069b08a784820152825190612a5c826107e5565b526107e5565b50612ac8612a6e6100d7565b7f11fcb31f9c75a018d3ef65fa2065edae9eb47e765a62203a34a733b7538e698b81527f305586916a39e67791fadaa78724478715aef4449e0ad243d4110eef64c12cd784820152825190612ac2826107f6565b526107f6565b50612b2e612ad46100d7565b7f11e455c72c719e547cc89d99c58d63a7e2684477ded1c70729565e31003944a281527f279d9eee4e75bae997a2377186a5f0c8ae23d703c085b7f40e16e95fc1dd85d684820152825190612b2882610807565b52610807565b50612b94612b3a6100d7565b7f269265b85bf4f46c40d817b093b5b386f1523161538ab0ef232b06ec813bb40981527f1ee9ef9f5b9e85d24ca72981108348e5d1a4b21293a27dcd646b048d23ebc8ff84820152825190612b8e82610818565b52610818565b50612bf9612ba06100d7565b7e90dd2bd936c6ba13718dfa1a7aa90071b45be99c405a68a54efd7987c3c67b81527f297a5780599fae7ff0fe28ddc17a3c36b2bc6cd858dbe7abce2eb6daf8266ee984820152825190612bf382610829565b52610829565b50612c5f612c056100d7565b7f2e77d711b335d82e4894ba248720e745d70f125dad806258ee69d628bd99cc1181527f07146108a441a9ea44b8b679dbf789b37869b73e154ac2fe6cda5a859de37f5e84820152825190612c598261083a565b5261083a565b50612cc5612c6b6100d7565b7f2b046c61789fd70884db255d6513131fc5292b4c5963c01d0c64692b0961c7eb81527f029312dc6e1ce3b2dd90dc0579fa8a8e9d4f3039e6044d4d57a5f48a01132d5d84820152825190612cbf8261084b565b5261084b565b50612d2b612cd16100d7565b7f2f92b74e2814c9300940f33dbe120a25fdf0d592f54a36ac042d134a53bb762f81527f285c3db6029ec2a9c8e00080f7d838ec60944bbabe0019da9b9952ee00071e3b84820152825190612d258261085c565b5261085c565b50612d91612d376100d7565b7f0f5e0655bdda5021b2539b7b1ab5c21ad5a56782a1093306691668c652e9a95d81527f2192f11d03951e4a2c24832d5de906111f94ff8b2113936145ae34e46855dfac84820152825190612d8b8261086d565b5261086d565b50612df7612d9d6100d7565b7f10138dc39d0b67455dbcd78d301a6526e5f0464cde233b655f04db981a1755b581527f1857a87e83938334771c4da9f2f801d38f759ff3480de181c3465ddde35190bf84820152825190612df18261087e565b5261087e565b50612e5d612e036100d7565b7f1124f8b8f632af91ca54737d74581ff3497eab6ed6e817474eaee4888164248681527f12c49214a6c82d6dc37440d0dc46a9e1fdf5f3ab8c937478daee5b647d6322f184820152825190612e578261088f565b5261088f565b50612ec3612e696100d7565b7f173227c0d3eec03e8c2f8010e84832c77b3d74f6c8b4590342d907f8d4ad724581527f1823e91c5ad95f940e54f2f84ef9f1074dd860e8fcbbd3df65f236c9fe506da084820152825190612ebd826108a0565b526108a0565b50612f29612ecf6100d7565b7f11f6e8f8de12e1cbf1283b1d5dbea299e2ab79247ba45dbb6f9109a7c46be1c381527f0957367ad3d7e96b5aad01f5121329af20e78e6bacb75cf01e0b089bf8a8202e84820152825190612f23826108b1565b526108b1565b50612f8f612f356100d7565b7f169228c88cceacda8043f144d9d3b7f15f0ac54ff3dec62e026315fafc67186881527f082afc75ff7637f55b90da8c44e0289b18e8e89e57bcbf5f42ab4ecf9b489f8b84820152825190612f89826108c2565b526108c2565b50612ff5612f9b6100d7565b7f1ebd52d461cbdfaa532fcaec1d90add16553ac6e847236a7fa79a77cf760b3d381527f0d3057ca64d19393e918e1470a0d11f43320fa3fc1f221ad2bfc0c980cc3368684820152825190612fef826108d3565b526108d3565b5061305b6130016100d7565b7f0875fee6e466fc0fa926f488cfc2171cc72778e6e179a0480d2c2a05d959975881527f2fa135f4ac2feb59176f03a7db4d6979859efdcde236232d3b4d05f85dd1813484820152825190613055826108e4565b526108e4565b506130c16130676100d7565b7f161d14ae925beac4aa84db9f5e253de4078c53d92f4f622c111984e0969f7c2381527f29abc482bd93ceb14d418ff0241bd0b6407e33c59e0078291c4718fee31197d1848201528251906130bb826108f5565b526108f5565b506131276130cd6100d7565b7f212ab8a7b51a0ae191757aac53fbe2845a178f7e663c04a364d4c57eb508459481527f2270e753ad65cddb3d615ced437919a92d04e803a5ad9416a536e3c70d94cf298482015282519061312182610906565b52610906565b5061318d6131336100d7565b7f04e2708ea802d0b85160699830490637ca2441238d0c19d9d1ee429499fa951681527f15eafec09fbdfae260e9c4b583f319efc5e6deeab7c3b514e8a76a72e1e998e18482015282519061318782610917565b52610917565b506131f36131996100d7565b7f263a9eb4149d720d164baeb97f734c7cb4aa5394951f13ecd14ab853ca5de9fa81527f17c51df17c5808105b11772b74ea5d30785ab78cd3bd461abc74b3a0540b53d1848201528251906131ed82610928565b52610928565b506132596131ff6100d7565b7f1d616a8d030dabfd6777c2cf47a4b5be344e85e698b90be5d0246628a838574781527f1b1a7bad1a69fddaff745cce673ded8a769ee23207dffdcd4806f4ceef19fcc38482015282519061325382610939565b52610939565b506132bf6132656100d7565b7f03856e7ff7034f30a0e2612239676eaf8fcce9ab4c87220a9cbf2c28ffe121a881527f06e9b525c1b44d17326b5ba5eeae7c335409ad0f4d42077d79ee96f5512dc058848201528251906132b98261094a565b5261094a565b506133256132cb6100d7565b7f01a0126915fc5f699152630986711127a9986caf5e0e5ca02c4e6405169d2b0d81527f285bab15193910f6e0488a0dedb00d21737e1e4312d2259074f092a8ed6b61b18482015282519061331f8261095b565b5261095b565b5061338b6133316100d7565b7f146eda228ddd0d419448d863d8ea890b26ec6d7358ab432288095a668130562281527f020cb45fd981c963a467a70c88aa57a8a80851da2f271c8af9bf7d3960f8875f848201528251906133858261096c565b5261096c565b506133f16133976100d7565b7f20615fbf835576a74db41f77b51b078eb0302d00fa0088c9e07703c909fda89b81527f1b1e81d94622271f0be722a6a40fe9a2dd8d73b15893242a151d11032d203e67848201528251906133eb8261097d565b5261097d565b506134576133fd6100d7565b7f0e248b43448f8047ec66e03d9837c66cf7a18af3fdb0de80aef4301f1239be5981527f196df195cab68225261fcc4f34676b78a571fce50b1d2be51000713901c97f35848201528251906134518261098e565b5261098e565b506134bd6134636100d7565b7f183379ea4895d13f86079c78976f7beaf9adb2f6a50deb139d95dbe5ee94ff9281527f0c96055c2a9bfb5b6830fde9f349e3099e7fa2e39981934be9467d1df44cba8c848201528251906134b78261099f565b5261099f565b506135236134c96100d7565b7f0cc5eaacf5c25758e50749c6d4ce9ab618dc1122405cfd9aa452568b997ce23981527f1bb5b3ff46a1c439467d769e6139e242d40a691cbcecff5a0dd8c45d43da72128482015282519061351d826109b0565b526109b0565b5061358961352f6100d7565b7f0b9d771d822c9c1c7f6e4a19510472ec2f023586f08ed49bdb38b505322ae82681527f252ac2a8a2af413c4f335de50d4c5b544059155017de826d931b71f2a99021ca84820152825190613583826109c1565b526109c1565b506135ef6135956100d7565b7f153af73959ef5483d4b93bbf2e5a28be491c30ddd38d09a189b9b65220c0aa1d81527f1617c55e72468eb163c214ac825e1b22f87c8ae33c05fb4b356fabdefbfbef08848201528251906135e9826109d2565b526109d2565b506136556135fb6100d7565b7f0319d3567eee8c36050bd709b39180fcf8285f5ba779c87ad128cc9c08a4b2f781527f010d4a18b0a8ccc992f09aeba832b7d12694c5674c55060909a16cdbf5874cbf8482015282519061364f826109e3565b526109e3565b506136bb6136616100d7565b7f225025b25c5e202c80d76f78623c7e1a9eafc7153630a3c15a1ef6a3b4aa3eb581527f0d73d2b7a468d662accccfb146d8e44767125bb7a24e7cf42cdcaffdd9145a9d848201528251906136b5826109f4565b526109f4565b506137216136c76100d7565b7f0b8f560ea7fc49d8b55a181b9548ce18c6eef3dc134a4ccd54fcafbfb923438a81527f257b0344d345d7dc825ca0a26416b20b178ac9e5ca920c9db078757a0ae22e608482015282519061371b82610a05565b52610a05565b5061378761372d6100d7565b7f17961e952bb5c0a0392687c55ace2d70281f02645440cff75de176e01f5b807b81527f25e77e9edd24abe40d1b9850785f3640a5b02a7c962d05ba69518037465e46078482015282519061378182610a16565b52610a16565b506137ed6137936100d7565b7f08de328141ff01b9b355492321fba5e077a5e6577bbefa398b59143c1eb6f46f81527f269f59688c39035e3b45180b52559abca84e9540716a92de92de3f37d366aa22848201528251906137e782610a27565b52610a27565b506138536137f96100d7565b7f14caaaec0963da382c1708afb1a606c571315f7588abd2c1452085e8e28cb20581527f211b1fd98db9fa124111f252f775e2529f27e60c750331729214c8dad0c121778482015282519061384d82610a38565b52610a38565b506138b961385f6100d7565b7f279745e1a28ac67eae0c17cf3e50df471726e62e0b62192494da98d0c3e356d681527f088211f23250f0fe194fa4a725dbc107267ec2376d78573aaf26268f38220a87848201528251906138b382610a49565b52610a49565b5061391f6138c56100d7565b7f065bd8450fb60296175697d08d3dea5237eb03d0dd9d74fe117b4d65cc64450581527f1d6a786753ddb6926c58aadc9c6586bd06eaa39b64d7b4d2b5d13933be1eb9048482015282519061391982610a5a565b52610a5a565b507f24e873b395c17261b45f50791247b1f1d243a23245c7e644d2e86fc12070f4996139496100d7565b927f18dd8ead1330906a538c79bf4db13e37e86bbaa62d709272e391ff33cd11e5a48452830152519061397b82610a6b565b52610a6b565b50565b600060206139906100d7565b828152015280511580613a01575b6139ea5760208151917f30644e72e131a029b85045b68181585d97816a916871ca8d3c208c16d87cfd4791829101510681039081116103a5576139df6100d7565b918252602082015290565b506139f36100d7565b600081526000602082015290565b5060208101511561399e565b9190613a176100d7565b60008152600060208201528093604051608081019181831067ffffffffffffffff8411176100f7576060946020809260c0956040526080368637805185520151828401528051604084015201518482015260066107cf195a01fa15613a7857565bfe5b9190613a846100d7565b60008152600060208201528093604051606081019381851067ffffffffffffffff8611176100f7576020608093606096604052863685378051845201516020830152604082015260076107cf195a01fa15613a7857565b97969394929195613aea610e1c565b95613af36100fc565b976004895260005b60808110613bb15750613bae999a613b12896103c0565b52613b1c886103c0565b50613b26886103cd565b52613b30876103cd565b50613b3a876103dd565b52613b44866103dd565b50613b4e866103ed565b52613b58856103ed565b50613b62866103c0565b52613b6c856103c0565b50613b76856103cd565b52613b80846103cd565b50613b8a846103dd565b52613b94836103dd565b50613b9e836103ed565b52613ba8826103ed565b50613c67565b90565b602090613bbc610257565b82828d01015201613afb565b15613bcf57565b60405162461bcd60e51b81526020600482015260166024820152751c185a5c9a5b99cb5b195b99dd1a1ccb59985a5b195960521b6044820152606490fd5b906006820291808304600614901517156103a557565b15613c2a57565b60405162461bcd60e51b81526020600482015260156024820152741c185a5c9a5b99cb5bdc18dbd9194b59985a5b1959605a1b6044820152606490fd5b613c748151835114613bc8565b8051613c7f81613c0d565b92613c898461033a565b9260005b838110613ccb57505050506020918291613ca5610232565b93849260051b910160086107cf195a01fa8015613a7857613cc590613c23565b51151590565b80613cd9613db59284610a7c565b5151613ced613ce783613c0d565b88610a7c565b52613da0602080613cfe8487610a7c565b510151613d1b613d15613d1086613c0d565b610b72565b8a610a7c565b52613d268387610a7c565b515151613d3d613d15613d3886613c0d565b610b80565b52613d53613d4b8488610a7c565b515160200190565b51613d68613d15613d6386613c0d565b610b8e565b5280613d748488610a7c565b51015151613d8c613d15613d8786613c0d565b610b9c565b52613d978387610a7c565b51015160200190565b51610b67613ce7613db084613c0d565b610baa565b613c8d56fea2646970667358221220eeb4d98de880d1ab9b17dec548487d46583d3c0e65f32eb7e17d4e342796e27264736f6c63430008130033",
    "linkReferences": {}
  },
  "methodIdentifiers": {
    "verifyProof(uint256[2],uint256[2][2],uint256[2],uint256[101])": "abc84df5"
  },
  "id": 6
}