{
  "abi": [
    {
      "inputs": [],
      "stateMutability": "nonpayable",
      "type": "constructor"
    },
    {
      "inputs": [],
      "name": "AddressUtils__NotContract",
      "type": "error"
    },
    {
      "inputs": [],
      "name": "ERC165Base__InvalidInterfaceId",
      "type": "error"
    },
    {
      "inputs": [],
      "name": "ERC721Base__BalanceQueryZeroAddress",
      "type": "error"
    },
    {
      "inputs": [],
      "name": "ERC721Base__ERC721ReceiverNotImplemented",
      "type": "error"
    },
    {
      "inputs": [],
      "name": "ERC721Base__InvalidOwner",
      "type": "error"
    },
    {
      "inputs": [],
      "name": "ERC721Base__MintToZeroAddress",
      "type": "error"
    },
    {
      "inputs": [],
      "name": "ERC721Base__NonExistentToken",
      "type": "error"
    },
    {
      "inputs": [],
      "name": "ERC721Base__NotOwnerOrApproved",
      "type": "error"
    },
    {
      "inputs": [],
      "name": "ERC721Base__NotTokenOwner",
      "type": "error"
    },
    {
      "inputs": [],
      "name": "ERC721Base__SelfApproval",
      "type": "error"
    },
    {
      "inputs": [],
      "name": "ERC721Base__TokenAlreadyMinted",
      "type": "error"
    },
    {
      "inputs": [],
      "name": "ERC721Base__TransferToZeroAddress",
      "type": "error"
    },
    {
      "inputs": [],
      "name": "EnumerableMap__NonExistentKey",
      "type": "error"
    },
    {
      "anonymous": false,
      "inputs": [
        {
          "indexed": true,
          "internalType": "address",
          "name": "owner",
          "type": "address"
        },
        {
          "indexed": true,
          "internalType": "address",
          "name": "operator",
          "type": "address"
        },
        {
          "indexed": true,
          "internalType": "uint256",
          "name": "tokenId",
          "type": "uint256"
        }
      ],
      "name": "Approval",
      "type": "event"
    },
    {
      "anonymous": false,
      "inputs": [
        {
          "indexed": true,
          "internalType": "address",
          "name": "owner",
          "type": "address"
        },
        {
          "indexed": true,
          "internalType": "address",
          "name": "operator",
          "type": "address"
        },
        {
          "indexed": false,
          "internalType": "bool",
          "name": "approved",
          "type": "bool"
        }
      ],
      "name": "ApprovalForAll",
      "type": "event"
    },
    {
      "anonymous": false,
      "inputs": [
        {
          "indexed": true,
          "internalType": "address",
          "name": "from",
          "type": "address"
        },
        {
          "indexed": true,
          "internalType": "address",
          "name": "to",
          "type": "address"
        },
        {
          "indexed": true,
          "internalType": "uint256",
          "name": "tokenId",
          "type": "uint256"
        }
      ],
      "name": "Transfer",
      "type": "event"
    },
    {
      "inputs": [
        {
          "internalType": "address",
          "name": "operator",
          "type": "address"
        },
        {
          "internalType": "uint256",
          "name": "tokenId",
          "type": "uint256"
        }
      ],
      "name": "approve",
      "outputs": [],
      "stateMutability": "payable",
      "type": "function"
    },
    {
      "inputs": [
        {
          "internalType": "address",
          "name": "account",
          "type": "address"
        }
      ],
      "name": "balanceOf",
      "outputs": [
        {
          "internalType": "uint256",
          "name": "",
          "type": "uint256"
        }
      ],
      "stateMutability": "view",
      "type": "function"
    },
    {
      "inputs": [
        {
          "internalType": "uint256",
          "name": "tokenId",
          "type": "uint256"
        }
      ],
      "name": "burn",
      "outputs": [],
      "stateMutability": "nonpayable",
      "type": "function"
    },
    {
      "inputs": [
        {
          "internalType": "address",
          "name": "from",
          "type": "address"
        },
        {
          "internalType": "address",
          "name": "to",
          "type": "address"
        },
        {
          "internalType": "uint256",
          "name": "tokenId",
          "type": "uint256"
        },
        {
          "internalType": "bytes",
          "name": "data",
          "type": "bytes"
        }
      ],
      "name": "checkOnERC721Received",
      "outputs": [
        {
          "internalType": "bool",
          "name": "",
          "type": "bool"
        }
      ],
      "stateMutability": "nonpayable",
      "type": "function"
    },
    {
      "inputs": [
        {
          "internalType": "uint256",
          "name": "tokenId",
          "type": "uint256"
        }
      ],
      "name": "getApproved",
      "outputs": [
        {
          "internalType": "address",
          "name": "",
          "type": "address"
        }
      ],
      "stateMutability": "view",
      "type": "function"
    },
    {
      "inputs": [
        {
          "internalType": "address",
          "name": "account",
          "type": "address"
        },
        {
          "internalType": "address",
          "name": "operator",
          "type": "address"
        }
      ],
      "name": "isApprovedForAll",
      "outputs": [
        {
          "internalType": "bool",
          "name": "",
          "type": "bool"
        }
      ],
      "stateMutability": "view",
      "type": "function"
    },
    {
      "inputs": [
        {
          "internalType": "address",
          "name": "spender",
          "type": "address"
        },
        {
          "internalType": "uint256",
          "name": "tokenId",
          "type": "uint256"
        }
      ],
      "name": "isApprovedOrOwner",
      "outputs": [
        {
          "internalType": "bool",
          "name": "",
          "type": "bool"
        }
      ],
      "stateMutability": "view",
      "type": "function"
    },
    {
      "inputs": [
        {
          "internalType": "address",
          "name": "account",
          "type": "address"
        },
        {
          "internalType": "uint256",
          "name": "tokenId",
          "type": "uint256"
        }
      ],
      "name": "mint",
      "outputs": [],
      "stateMutability": "nonpayable",
      "type": "function"
    },
    {
      "inputs": [
        {
          "internalType": "uint256",
          "name": "tokenId",
          "type": "uint256"
        }
      ],
      "name": "ownerOf",
      "outputs": [
        {
          "internalType": "address",
          "name": "",
          "type": "address"
        }
      ],
      "stateMutability": "view",
      "type": "function"
    },
    {
      "inputs": [
        {
          "internalType": "address",
          "name": "account",
          "type": "address"
        },
        {
          "internalType": "uint256",
          "name": "tokenId",
          "type": "uint256"
        },
        {
          "internalType": "bytes",
          "name": "data",
          "type": "bytes"
        }
      ],
      "name": "safeMint",
      "outputs": [],
      "stateMutability": "nonpayable",
      "type": "function"
    },
    {
      "inputs": [
        {
          "internalType": "address",
          "name": "account",
          "type": "address"
        },
        {
          "internalType": "uint256",
          "name": "tokenId",
          "type": "uint256"
        }
      ],
      "name": "safeMint",
      "outputs": [],
      "stateMutability": "nonpayable",
      "type": "function"
    },
    {
      "inputs": [
        {
          "internalType": "address",
          "name": "from",
          "type": "address"
        },
        {
          "internalType": "address",
          "name": "to",
          "type": "address"
        },
        {
          "internalType": "uint256",
          "name": "tokenId",
          "type": "uint256"
        },
        {
          "internalType": "bytes",
          "name": "data",
          "type": "bytes"
        }
      ],
      "name": "safeTransfer",
      "outputs": [],
      "stateMutability": "nonpayable",
      "type": "function"
    },
    {
      "inputs": [
        {
          "internalType": "address",
          "name": "from",
          "type": "address"
        },
        {
          "internalType": "address",
          "name": "to",
          "type": "address"
        },
        {
          "internalType": "uint256",
          "name": "tokenId",
          "type": "uint256"
        }
      ],
      "name": "safeTransferFrom",
      "outputs": [],
      "stateMutability": "payable",
      "type": "function"
    },
    {
      "inputs": [
        {
          "internalType": "address",
          "name": "from",
          "type": "address"
        },
        {
          "internalType": "address",
          "name": "to",
          "type": "address"
        },
        {
          "internalType": "uint256",
          "name": "tokenId",
          "type": "uint256"
        },
        {
          "internalType": "bytes",
          "name": "data",
          "type": "bytes"
        }
      ],
      "name": "safeTransferFrom",
      "outputs": [],
      "stateMutability": "payable",
      "type": "function"
    },
    {
      "inputs": [
        {
          "internalType": "address",
          "name": "operator",
          "type": "address"
        },
        {
          "internalType": "bool",
          "name": "status",
          "type": "bool"
        }
      ],
      "name": "setApprovalForAll",
      "outputs": [],
      "stateMutability": "nonpayable",
      "type": "function"
    },
    {
      "inputs": [
        {
          "internalType": "bytes4",
          "name": "interfaceId",
          "type": "bytes4"
        }
      ],
      "name": "supportsInterface",
      "outputs": [
        {
          "internalType": "bool",
          "name": "",
          "type": "bool"
        }
      ],
      "stateMutability": "view",
      "type": "function"
    },
    {
      "inputs": [
        {
          "internalType": "address",
          "name": "from",
          "type": "address"
        },
        {
          "internalType": "address",
          "name": "to",
          "type": "address"
        },
        {
          "internalType": "uint256",
          "name": "tokenId",
          "type": "uint256"
        }
      ],
      "name": "transfer",
      "outputs": [],
      "stateMutability": "nonpayable",
      "type": "function"
    },
    {
      "inputs": [
        {
          "internalType": "address",
          "name": "from",
          "type": "address"
        },
        {
          "internalType": "address",
          "name": "to",
          "type": "address"
        },
        {
          "internalType": "uint256",
          "name": "tokenId",
          "type": "uint256"
        }
      ],
      "name": "transferFrom",
      "outputs": [],
      "stateMutability": "payable",
      "type": "function"
    }
  ],
  "bytecode": {
    "object": "0x608080604052346100a0577ffc606c433378e3a7e0a6a531deac289b66caa1b4aa8554fd4ab2c6f1570f92d86020527f3df35b507c5de77f483b4e9b5c258409299a2e6dc816fa76a389e598628b08a58054600160ff1991821681179092556380ac58cd60e01b6000527fb43d465fbb3235c742b9e3b9cd01a3d83e69b74bddf80a5fe3ab089283d1af918054909116909117905561138690816100a68239f35b600080fdfe6080604052600436101561001257600080fd5b60003560e01c806301ffc9a714610137578063081812fc14610132578063095ea7b31461012d57806323b872dd1461012857806340c10f191461012357806342842e0e1461011e57806342966c6814610119578063430c2081146101145780636352211e1461010f57806370a082311461010a57806376b82a91146101055780638832e6e314610100578063a1448194146100fb578063a22cb465146100f6578063b63485cc146100f1578063b88d4fde146100ec578063beabacc8146100e75763e985e9c5146100e257600080fd5b6108c8565b6108b1565b61089c565b610880565b6106d1565b61069b565b610651565b6105f8565b61057c565b61055e565b61052d565b6103c1565b61039e565b610379565b610355565b610211565b6101b5565b610153565b6001600160e01b031981160361014e57565b600080fd5b3461014e57602036600319011261014e576004356101708161013c565b63ffffffff60e01b166000527ffc606c433378e3a7e0a6a531deac289b66caa1b4aa8554fd4ab2c6f1570f92d8602052602060ff604060002054166040519015158152f35b3461014e57602036600319011261014e5760206101d3600435610a74565b6040516001600160a01b039091168152f35b600435906001600160a01b038216820361014e57565b602435906001600160a01b038216820361014e57565b604036600319011261014e576102256101e5565b6024359061023282610977565b6001600160a01b03808316929082169183831461030e578233141590816102d6575b506102c45761029d9061027e856000526000805160206112d1833981519152602052604060002090565b80546001600160a01b0319166001600160a01b03909216919091179055565b7f8c5be1e5ebec7d5bd14f71427d1e84f3dd0314c0f7b2291e5b200ac8c7c3b925600080a4005b604051632f5de44f60e01b8152600490fd5b610308915061030260ff916102eb3391610905565b9060018060a01b0316600052602052604060002090565b54161590565b38610254565b60405163424a22cb60e01b8152600490fd5b606090600319011261014e576001600160a01b0390600435828116810361014e5791602435908116810361014e579060443590565b61035e36610320565b906103698233610ad7565b156102c45761037792610b60565b005b3461014e57604036600319011261014e576103776103956101e5565b6024359061103a565b6103776103aa36610320565b90604051926103b884610788565b60008452610e4a565b3461014e57602036600319011261014e576004356103de81610977565b906103e88261093e565b600181019260009384928484528160205260408420548061048a575b50505061041083611161565b50610445610435846000526000805160206112d1833981519152602052604060002090565b80546001600160a01b0319169055565b6001600160a01b03168282827f8c5be1e5ebec7d5bd14f71427d1e84f3dd0314c0f7b2291e5b200ac8c7c3b9258280a46000805160206113318339815191528280a480f35b909193506000199061049f8284540184610db5565b90549060031b1c806104cd6104b685850187610db5565b819391549060031b91821b91600019901b19161790565b9055875284602052604087205581548015610528578694859361051f938893019061050d6104fb8383610db5565b81929154906000199060031b1b191690565b90555590600052602052604060002090565b55388080610404565b610e34565b3461014e57604036600319011261014e57602061055461054b6101e5565b60243590610ad7565b6040519015158152f35b3461014e57602036600319011261014e5760206101d3600435610977565b3461014e57602036600319011261014e576105956101e5565b6001600160a01b038116156105b8576105af60209161093e565b54604051908152f35b604051630810ff9760e41b8152600490fd5b9181601f8401121561014e5782359167ffffffffffffffff831161014e576020838186019501011161014e57565b3461014e57608036600319011261014e576106116101e5565b6106196101fb565b6064359167ffffffffffffffff831161014e576106476106406103779436906004016105ca565b36916107e2565b9160443591610e67565b3461014e57606036600319011261014e5761066a6101e5565b6044359067ffffffffffffffff821161014e576106916106406103779336906004016105ca565b9060243590611116565b3461014e57604036600319011261014e576103776106b76101e5565b604051906106c482610788565b6000825260243590611116565b3461014e57604036600319011261014e576106ea6101e5565b60243580151580910361014e576001600160a01b0382169133831461030e57610716906102eb33610905565b60ff1981541660ff83161790556040519081527f17307eab39ab6107e8899845ad3d59bd9653f200f220920489ca2b5937696c3160203392a3005b634e487b7160e01b600052604160045260246000fd5b6040810190811067ffffffffffffffff82111761078357604052565b610751565b6020810190811067ffffffffffffffff82111761078357604052565b90601f8019910116810190811067ffffffffffffffff82111761078357604052565b67ffffffffffffffff811161078357601f01601f191660200190565b9291926107ee826107c6565b916107fc60405193846107a4565b82948184528183011161014e578281602093846000960137010152565b90608060031983011261014e576001600160a01b0391600435838116810361014e5792602435908116810361014e5791604435916064359067ffffffffffffffff821161014e578060238301121561014e5781602461087d936004013591016107e2565b90565b3461014e57602061055461089336610819565b92919091610fe1565b6103776108a836610819565b92919091610e4a565b3461014e576103776108c236610320565b91610b60565b3461014e57604036600319011261014e57602060ff6108f96108e86101e5565b6102eb6108f36101fb565b91610905565b54166040519015158152f35b6001600160a01b031660009081527f3c7bf052874fa81625121783266a03507bd2cd48b16e571c01a04e8dd3fb07aa6020526040902090565b6001600160a01b031660009081527f3c7bf052874fa81625121783266a03507bd2cd48b16e571c01a04e8dd3fb07a86020526040902090565b6000526000805160206113118339815191526020526040600020548015610a0657600019016000805160206112f18339815191528054821015610a015760005260011b7f709a16c9caeafb61409212be896356f281c91d5c5b5cccb959477d20bb6240fc01546001600160a01b031680156109ef5790565b604051637e1a7d8b60e01b8152600490fd5b610a18565b604051633d547ec560e21b8152600490fd5b634e487b7160e01b600052603260045260246000fd5b6000805160206112f18339815191528054821015610a015760005260011b7f709a16c9caeafb61409212be896356f281c91d5c5b5cccb959477d20bb6240fb0190600090565b610a9881600052600080516020611311833981519152602052604060002054151590565b15610ac55760009081526000805160206112d183398151915260205260409020546001600160a01b031690565b60405163c1b843ef60e01b8152600490fd5b610afb82600052600080516020611311833981519152602052604060002054151590565b15610ac557610b0982610977565b6001600160a01b038281168282168114949091908515610b48575b5050508215610b3257505090565b60ff9250906102eb610b4392610905565b541690565b610b559192939550610a74565b161491388080610b24565b90610b6a83610977565b6001600160a01b038381169291811690838203610cca578216938415610cb857610b94869161093e565b9160018301926000938385528060205260408520549182610c2e575b5050508290610bd683610bd16000805160206113318339815191529761093e565b610dcd565b50610be18784610cf2565b50610c06610435846000526000805160206112d1833981519152602052604060002090565b7f8c5be1e5ebec7d5bd14f71427d1e84f3dd0314c0f7b2291e5b200ac8c7c3b9258280a480a4565b90929195935060001995610c458783540183610db5565b90549060031b1c80610c5c6104b68a850186610db5565b90558652836020526040862055805495861561052857610bd18a958795610bd69488946000805160206113318339815191529b0190610c9e6104fb8383610db5565b905555838752602052856040812055975050829350610bb0565b6040516340311a0960e01b8152600490fd5b604051630f2db4ad60e01b8152600490fd5b634e487b7160e01b600052600060045260246000fd5b90816000526000805160206113118339815191526020526040600020548015600014610d9b5750604051610d2581610767565b828152602081019182526000805160206112f1833981519152908154600160401b81101561078357806001610d5c92018455610a2e565b919091610d9657610d9093600191518355519101555491600052600080516020611311833981519152602052604060002090565b55600190565b610cdc565b6001919250610dad9060001901610a2e565b500155600090565b8054821015610a015760005260206000200190600090565b9190600092610dec828260019160005201602052604060002054151590565b15610df5575050565b80919293505490600160401b8210156107835782610e1d6104b6846001809601855584610db5565b905580549260005201602052604060002055600190565b634e487b7160e01b600052603160045260246000fd5b929190610e578233610ad7565b156102c457610e6593610e67565b565b90610e7e939291610e79838383610b60565b610fe1565b15610e8557565b604051639ff10cdd60e01b8152600490fd5b919082519283825260005b848110610ec3575050826000602080949584010152601f8019910116010190565b602081830181015184830182015201610ea2565b604051906060820182811067ffffffffffffffff82111761078357604052603282527131b2b4bb32b91034b6b83632b6b2b73a32b960711b6040837f4552433732313a207472616e7366657220746f206e6f6e20455243373231526560208201520152565b9081602091031261014e575161087d8161013c565b919091803b15610fd957610f9d610fab610fb993604051928391630a85bd0160e11b978860208501523360248501526000604485015260648401526080608484015260a4830190610e97565b03601f1981018352826107a4565b610fb3610ed7565b91611237565b610fd463ffffffff60e01b9160208082518301019101610f3c565b161490565b505050600190565b92813b1561103157610fab610fb993610f9d604051938492630a85bd0160e11b9889602086015233602486015260018060a01b0316604485015260648401526080608484015260a4830190610e97565b50505050600190565b6001600160a01b0381169081156111045761106f83600052600080516020611311833981519152602052604060002054151590565b6110f25761107c9061093e565b6000838152600182016020526040902054156110b5575b5061109e8183610cf2565b5060006000805160206113318339815191528180a4565b8054600160401b811015610783576110d76104b6826001879401855584610db5565b90556001815491846000520160205260406000205538611093565b604051630d86bb7b60e31b8152600490fd5b6040516311f2988d60e11b8152600490fd5b90610e7e9291611126828261103a565b610f51565b6000805160206112f18339815191528054801561052857600019019061115082610a2e565b610d96576001816000809355015555565b6000818152600080516020611311833981519152602052604090205490811561121f57600019906111ae6111a5836000805160206112f18339815191525401610a2e565b50928401610a2e565b939093610d96576111e68385610d90956000970361120c575b5054600052600080516020611311833981519152602052604060002090565b556111ef61112b565b600052600080516020611311833981519152602052604060002090565b81548155600180830154910155386111c7565b5050600090565b90602061087d928181520190610e97565b9190606092803b156112be5781600092918360208194519301915af1913d156112b857503d91611266836107c6565b9261127460405194856107a4565b83523d6000602085013e5b15611288575090565b8151156112985750805190602001fd5b60405162461bcd60e51b81529081906112b49060048301611226565b0390fd5b9161127f565b604051632270d6bf60e21b8152600490fdfe3c7bf052874fa81625121783266a03507bd2cd48b16e571c01a04e8dd3fb07a93c7bf052874fa81625121783266a03507bd2cd48b16e571c01a04e8dd3fb07a63c7bf052874fa81625121783266a03507bd2cd48b16e571c01a04e8dd3fb07a7ddf252ad1be2c89b69c2b068fc378daa952ba7f163c4a11628f55a4df523b3efa264697066735822122021eee3c48d726c7a31f71a8b460a3df8d30eb96581be271b4e7f0a5e562709d964736f6c63430008130033",
    "linkReferences": {}
  },
  "methodIdentifiers": {
    "approve(address,uint256)": "095ea7b3",
    "balanceOf(address)": "70a08231",
    "burn(uint256)": "42966c68",
    "checkOnERC721Received(address,address,uint256,bytes)": "b63485cc",
    "getApproved(uint256)": "081812fc",
    "isApprovedForAll(address,address)": "e985e9c5",
    "isApprovedOrOwner(address,uint256)": "430c2081",
    "mint(address,uint256)": "40c10f19",
    "ownerOf(uint256)": "6352211e",
    "safeMint(address,uint256)": "a1448194",
    "safeMint(address,uint256,bytes)": "8832e6e3",
    "safeTransfer(address,address,uint256,bytes)": "76b82a91",
    "safeTransferFrom(address,address,uint256)": "42842e0e",
    "safeTransferFrom(address,address,uint256,bytes)": "b88d4fde",
    "setApprovalForAll(address,bool)": "a22cb465",
    "supportsInterface(bytes4)": "01ffc9a7",
    "transfer(address,address,uint256)": "beabacc8",
    "transferFrom(address,address,uint256)": "23b872dd"
  },
  "id": 493
}