{
  "abi": [
    {
      "inputs": [
        {
          "internalType": "address",
          "name": "trustedForwarder",
          "type": "address"
        }
      ],
      "stateMutability": "nonpayable",
      "type": "constructor"
    },
    {
      "anonymous": false,
      "inputs": [
        {
          "indexed": false,
          "internalType": "bytes",
          "name": "data",
          "type": "bytes"
        },
        {
          "indexed": false,
          "internalType": "uint256",
          "name": "integerValue",
          "type": "uint256"
        },
        {
          "indexed": false,
          "internalType": "string",
          "name": "stringValue",
          "type": "string"
        }
      ],
      "name": "Data",
      "type": "event"
    },
    {
      "anonymous": false,
      "inputs": [
        {
          "indexed": false,
          "internalType": "address",
          "name": "sender",
          "type": "address"
        }
      ],
      "name": "Sender",
      "type": "event"
    },
    {
      "inputs": [
        {
          "internalType": "address",
          "name": "forwarder",
          "type": "address"
        }
      ],
      "name": "isTrustedForwarder",
      "outputs": [
        {
          "internalType": "bool",
          "name": "",
          "type": "bool"
        }
      ],
      "stateMutability": "view",
      "type": "function"
    },
    {
      "inputs": [
        {
          "internalType": "uint256",
          "name": "integerValue",
          "type": "uint256"
        },
        {
          "internalType": "string",
          "name": "stringValue",
          "type": "string"
        }
      ],
      "name": "msgData",
      "outputs": [],
      "stateMutability": "nonpayable",
      "type": "function"
    },
    {
      "inputs": [],
      "name": "msgSender",
      "outputs": [],
      "stateMutability": "nonpayable",
      "type": "function"
    }
  ],
  "bytecode": {
    "object": "0x60a0346100ae57601f61040838819003918201601f19168301916001600160401b038311848410176100b3578084926020946040528339810103126100ae57516001600160a01b039081811681036100ae577fd6558c3ed910d959271054471fd1c326679d9fece99c5091b00ed89627cf2bfc916020916080526100816100c9565b60405191168152a160405161031a90816100ee823960805181818160cb0152818161024701526102870152f35b600080fd5b634e487b7160e01b600052604160045260246000fd5b608051336001600160a01b03909116036100e95736601319013560601c90565b339056fe608060408181526004918236101561001657600080fd5b600092833560e01c918263376bf262146100f857508163572b6c0514610099575063d737d0c71461004657600080fd5b3461009557816003193601126100955760207fd6558c3ed910d959271054471fd1c326679d9fece99c5091b00ed89627cf2bfc91610082610244565b90516001600160a01b039091168152a180f35b5080fd5b9050346100f45760203660031901126100f4576001600160a01b0391903582811691908290036100f0576020935051917f000000000000000000000000000000000000000000000000000000000000000016148152f35b8380fd5b8280fd5b849184346100f057806003193601126100f0576024359267ffffffffffffffff91828511610240573660238601121561024057848401359083821161022d57601f1993601f83018516603f01851684019081118482101761021a57815281835286366024848901011161021757601f9683602494602095869301838801378501015283610183610284565b8084999299519960608b528160608c015260808b0137896080828b0101520116860194358287015260808686030190860152815191826080860152865b83811061020357877faf235354a0a47c91ee171961326335cb2d1a8e55b8a89859b0e61eb049e50ea08860a0818a8a601f8b88868286010152011601030190a180f35b81810183015186820160a0015282016101c0565b80fd5b634e487b7160e01b885260418652602488fd5b634e487b7160e01b875260418552602487fd5b8580fd5b337f00000000000000000000000000000000000000000000000000000000000000006001600160a01b0316036102805736601319013560601c90565b3390565b337f00000000000000000000000000000000000000000000000000000000000000006001600160a01b0316036102dd576013193601903682116102c75760009190565b634e487b7160e01b600052601160045260246000fd5b600090369056fea2646970667358221220d03926a37a7c9563ac96139eec540132883b6449f50087ec3e1866ff5005359764736f6c63430008130033",
    "linkReferences": {}
  },
  "methodIdentifiers": {
    "isTrustedForwarder(address)": "572b6c05",
    "msgData(uint256,string)": "376bf262",
    "msgSender()": "d737d0c7"
  },
  "id": 89
}