{
  "abi": [
    {
      "inputs": [],
      "name": "Factory__FailedDeployment",
      "type": "error"
    },
    {
      "inputs": [
        {
          "internalType": "address",
          "name": "target",
          "type": "address"
        },
        {
          "internalType": "bytes32",
          "name": "salt",
          "type": "bytes32"
        }
      ],
      "name": "__calculateMinimalProxyDeploymentAddress",
      "outputs": [
        {
          "internalType": "address",
          "name": "",
          "type": "address"
        }
      ],
      "stateMutability": "view",
      "type": "function"
    },
    {
      "inputs": [
        {
          "internalType": "address",
          "name": "target",
          "type": "address"
        },
        {
          "internalType": "bytes32",
          "name": "salt",
          "type": "bytes32"
        }
      ],
      "name": "__deployMinimalProxy",
      "outputs": [
        {
          "internalType": "address",
          "name": "minimalProxy",
          "type": "address"
        }
      ],
      "stateMutability": "nonpayable",
      "type": "function"
    },
    {
      "inputs": [
        {
          "internalType": "address",
          "name": "target",
          "type": "address"
        }
      ],
      "name": "__deployMinimalProxy",
      "outputs": [
        {
          "internalType": "address",
          "name": "minimalProxy",
          "type": "address"
        }
      ],
      "stateMutability": "nonpayable",
      "type": "function"
    },
    {
      "inputs": [
        {
          "internalType": "address",
          "name": "target",
          "type": "address"
        }
      ],
      "name": "__generateMinimalProxyInitCode",
      "outputs": [
        {
          "internalType": "bytes",
          "name": "",
          "type": "bytes"
        }
      ],
      "stateMutability": "pure",
      "type": "function"
    }
  ],
  "bytecode": {
    "object": "0x6080806040523461001657610338908161001c8239f35b600080fdfe6080604052600436101561001257600080fd5b60003560e01c80633ddc4e811461005757806366b778a21461005257806385ef401b1461004d5763f354c3cf1461004857600080fd5b6101e1565b61018f565b6100e6565b346100a55761006f610068366100c0565b919061023c565b80516001600160a01b0392916020016000f516801561009357602090604051908152f35b60405163ef35ca1960e01b8152600490fd5b600080fd5b600435906001600160a01b03821682036100a557565b60409060031901126100a5576004356001600160a01b03811681036100a5579060243590565b346100a5576100f7610068366100c0565b6020815191012060405190602082019260ff60f81b84523060601b60218401526035830152605582015260558152608081019080821067ffffffffffffffff831117610156576040829052519091206001600160a01b03168152602090f35b634e487b7160e01b600052604160045260246000fd5b60005b83811061017f5750506000910152565b818101518382015260200161016f565b346100a55760203660031901126100a5576101b06101ab6100aa565b61023c565b604080518092602082526101d3815180928160208601526020868601910161016c565b601f01601f19168101030190f35b346100a55760203660031901126100a5576101fd6101ab6100aa565b80516001600160a01b03916020016000f016801561009357602090604051908152f35b6040810190811067ffffffffffffffff82111761015657604052565b6040516102af9161024c82610220565b601482526020820190733d602d80600a3d3981f3363d3d373d3d3d363d7360601b82526102d760405161027e81610220565b600f815260208101936e5af43d82803e903d91602b57fd5bf360881b8552604051968796518092602089019061016c565b8501926bffffffffffffffffffffffff199060601b166020840152518093603484019061016c565b01036014810182526053601f19910116810181811067ffffffffffffffff821117610156576040529056fea2646970667358221220b81d62aec45a2367edc7f66ea039c80d7e7ad755257a4e1c81c2c67519428ade64736f6c63430008130033",
    "linkReferences": {}
  },
  "methodIdentifiers": {
    "__calculateMinimalProxyDeploymentAddress(address,bytes32)": "66b778a2",
    "__deployMinimalProxy(address)": "f354c3cf",
    "__deployMinimalProxy(address,bytes32)": "3ddc4e81",
    "__generateMinimalProxyInitCode(address)": "85ef401b"
  },
  "id": 311
}