{
  "abi": [
    {
      "inputs": [],
      "stateMutability": "nonpayable",
      "type": "constructor"
    },
    {
      "inputs": [],
      "name": "ERC165Base__InvalidInterfaceId",
      "type": "error"
    },
    {
      "inputs": [
        {
          "internalType": "bytes4",
          "name": "interfaceId",
          "type": "bytes4"
        },
        {
          "internalType": "bool",
          "name": "status",
          "type": "bool"
        }
      ],
      "name": "__setSupportsInterface",
      "outputs": [],
      "stateMutability": "nonpayable",
      "type": "function"
    },
    {
      "inputs": [
        {
          "internalType": "bytes4",
          "name": "interfaceId",
          "type": "bytes4"
        }
      ],
      "name": "__supportsInterface",
      "outputs": [
        {
          "internalType": "bool",
          "name": "",
          "type": "bool"
        }
      ],
      "stateMutability": "view",
      "type": "function"
    },
    {
      "inputs": [
        {
          "internalType": "bytes4",
          "name": "interfaceId",
          "type": "bytes4"
        }
      ],
      "name": "supportsInterface",
      "outputs": [
        {
          "internalType": "bool",
          "name": "",
          "type": "bool"
        }
      ],
      "stateMutability": "view",
      "type": "function"
    }
  ],
  "bytecode": {
    "object": "0x60808060405234610071576301ffc9a760e01b6000527ffc606c433378e3a7e0a6a531deac289b66caa1b4aa8554fd4ab2c6f1570f92d86020527f3df35b507c5de77f483b4e9b5c258409299a2e6dc816fa76a389e598628b08a5805460ff1916600117905561018390816100778239f35b600080fdfe6080604052600436101561001257600080fd5b6000803560e01c90816301ffc9a7146100405781632ffc961c14610045575063bde4faf31461004057600080fd5b6100ee565b346100cf5760403660031901126100cf5761005e6100d2565b602435908115158092036100cb576001600160e01b03199081169081146100b95782527ffc606c433378e3a7e0a6a531deac289b66caa1b4aa8554fd4ab2c6f1570f92d8602052604082209060ff8019835416911617905580f35b60405163b0a19dd560e01b8152600490fd5b8280fd5b80fd5b600435906001600160e01b0319821682036100e957565b600080fd5b346100e95760203660031901126100e9576001600160e01b03196101106100d2565b166000527ffc606c433378e3a7e0a6a531deac289b66caa1b4aa8554fd4ab2c6f1570f92d8602052602060ff604060002054166040519015158152f3fea2646970667358221220a8302dbd41b3a99c2af57ec6d23f2d06070ccadcc9d0ae7fee4701e9068f3f8a64736f6c63430008130033",
    "linkReferences": {}
  },
  "methodIdentifiers": {
    "__setSupportsInterface(bytes4,bool)": "2ffc961c",
    "__supportsInterface(bytes4)": "bde4faf3",
    "supportsInterface(bytes4)": "01ffc9a7"
  },
  "id": 286
}