{
  "abi": [
    {
      "inputs": [],
      "stateMutability": "nonpayable",
      "type": "constructor"
    },
    {
      "inputs": [],
      "name": "InvalidShortString",
      "type": "error"
    },
    {
      "inputs": [
        {
          "internalType": "string",
          "name": "str",
          "type": "string"
        }
      ],
      "name": "StringTooLong",
      "type": "error"
    },
    {
      "anonymous": false,
      "inputs": [
        {
          "indexed": true,
          "internalType": "address",
          "name": "owner",
          "type": "address"
        },
        {
          "indexed": true,
          "internalType": "address",
          "name": "spender",
          "type": "address"
        },
        {
          "indexed": false,
          "internalType": "uint256",
          "name": "value",
          "type": "uint256"
        }
      ],
      "name": "Approval",
      "type": "event"
    },
    {
      "anonymous": false,
      "inputs": [
        {
          "indexed": true,
          "internalType": "address",
          "name": "delegator",
          "type": "address"
        },
        {
          "indexed": true,
          "internalType": "address",
          "name": "fromDelegate",
          "type": "address"
        },
        {
          "indexed": true,
          "internalType": "address",
          "name": "toDelegate",
          "type": "address"
        }
      ],
      "name": "DelegateChanged",
      "type": "event"
    },
    {
      "anonymous": false,
      "inputs": [
        {
          "indexed": true,
          "internalType": "address",
          "name": "delegate",
          "type": "address"
        },
        {
          "indexed": false,
          "internalType": "uint256",
          "name": "previousBalance",
          "type": "uint256"
        },
        {
          "indexed": false,
          "internalType": "uint256",
          "name": "newBalance",
          "type": "uint256"
        }
      ],
      "name": "DelegateVotesChanged",
      "type": "event"
    },
    {
      "anonymous": false,
      "inputs": [],
      "name": "EIP712DomainChanged",
      "type": "event"
    },
    {
      "anonymous": false,
      "inputs": [
        {
          "indexed": true,
          "internalType": "address",
          "name": "from",
          "type": "address"
        },
        {
          "indexed": true,
          "internalType": "address",
          "name": "to",
          "type": "address"
        },
        {
          "indexed": false,
          "internalType": "uint256",
          "name": "value",
          "type": "uint256"
        }
      ],
      "name": "Transfer",
      "type": "event"
    },
    {
      "inputs": [],
      "name": "CLOCK_MODE",
      "outputs": [
        {
          "internalType": "string",
          "name": "",
          "type": "string"
        }
      ],
      "stateMutability": "view",
      "type": "function"
    },
    {
      "inputs": [],
      "name": "DOMAIN_SEPARATOR",
      "outputs": [
        {
          "internalType": "bytes32",
          "name": "",
          "type": "bytes32"
        }
      ],
      "stateMutability": "view",
      "type": "function"
    },
    {
      "inputs": [
        {
          "internalType": "address",
          "name": "owner",
          "type": "address"
        },
        {
          "internalType": "address",
          "name": "spender",
          "type": "address"
        }
      ],
      "name": "allowance",
      "outputs": [
        {
          "internalType": "uint256",
          "name": "",
          "type": "uint256"
        }
      ],
      "stateMutability": "view",
      "type": "function"
    },
    {
      "inputs": [
        {
          "internalType": "address",
          "name": "spender",
          "type": "address"
        },
        {
          "internalType": "uint256",
          "name": "amount",
          "type": "uint256"
        }
      ],
      "name": "approve",
      "outputs": [
        {
          "internalType": "bool",
          "name": "",
          "type": "bool"
        }
      ],
      "stateMutability": "nonpayable",
      "type": "function"
    },
    {
      "inputs": [
        {
          "internalType": "address",
          "name": "account",
          "type": "address"
        }
      ],
      "name": "balanceOf",
      "outputs": [
        {
          "internalType": "uint256",
          "name": "",
          "type": "uint256"
        }
      ],
      "stateMutability": "view",
      "type": "function"
    },
    {
      "inputs": [
        {
          "internalType": "address",
          "name": "account",
          "type": "address"
        },
        {
          "internalType": "uint32",
          "name": "pos",
          "type": "uint32"
        }
      ],
      "name": "checkpoints",
      "outputs": [
        {
          "components": [
            {
              "internalType": "uint32",
              "name": "fromBlock",
              "type": "uint32"
            },
            {
              "internalType": "uint224",
              "name": "votes",
              "type": "uint224"
            }
          ],
          "internalType": "struct ERC20Votes.Checkpoint",
          "name": "",
          "type": "tuple"
        }
      ],
      "stateMutability": "view",
      "type": "function"
    },
    {
      "inputs": [],
      "name": "clock",
      "outputs": [
        {
          "internalType": "uint48",
          "name": "",
          "type": "uint48"
        }
      ],
      "stateMutability": "view",
      "type": "function"
    },
    {
      "inputs": [],
      "name": "decimals",
      "outputs": [
        {
          "internalType": "uint8",
          "name": "",
          "type": "uint8"
        }
      ],
      "stateMutability": "view",
      "type": "function"
    },
    {
      "inputs": [
        {
          "internalType": "address",
          "name": "spender",
          "type": "address"
        },
        {
          "internalType": "uint256",
          "name": "subtractedValue",
          "type": "uint256"
        }
      ],
      "name": "decreaseAllowance",
      "outputs": [
        {
          "internalType": "bool",
          "name": "",
          "type": "bool"
        }
      ],
      "stateMutability": "nonpayable",
      "type": "function"
    },
    {
      "inputs": [
        {
          "internalType": "address",
          "name": "delegatee",
          "type": "address"
        }
      ],
      "name": "delegate",
      "outputs": [],
      "stateMutability": "nonpayable",
      "type": "function"
    },
    {
      "inputs": [
        {
          "internalType": "address",
          "name": "delegatee",
          "type": "address"
        },
        {
          "internalType": "uint256",
          "name": "nonce",
          "type": "uint256"
        },
        {
          "internalType": "uint256",
          "name": "expiry",
          "type": "uint256"
        },
        {
          "internalType": "uint8",
          "name": "v",
          "type": "uint8"
        },
        {
          "internalType": "bytes32",
          "name": "r",
          "type": "bytes32"
        },
        {
          "internalType": "bytes32",
          "name": "s",
          "type": "bytes32"
        }
      ],
      "name": "delegateBySig",
      "outputs": [],
      "stateMutability": "nonpayable",
      "type": "function"
    },
    {
      "inputs": [
        {
          "internalType": "address",
          "name": "account",
          "type": "address"
        }
      ],
      "name": "delegates",
      "outputs": [
        {
          "internalType": "address",
          "name": "",
          "type": "address"
        }
      ],
      "stateMutability": "view",
      "type": "function"
    },
    {
      "inputs": [],
      "name": "eip712Domain",
      "outputs": [
        {
          "internalType": "bytes1",
          "name": "fields",
          "type": "bytes1"
        },
        {
          "internalType": "string",
          "name": "name",
          "type": "string"
        },
        {
          "internalType": "string",
          "name": "version",
          "type": "string"
        },
        {
          "internalType": "uint256",
          "name": "chainId",
          "type": "uint256"
        },
        {
          "internalType": "address",
          "name": "verifyingContract",
          "type": "address"
        },
        {
          "internalType": "bytes32",
          "name": "salt",
          "type": "bytes32"
        },
        {
          "internalType": "uint256[]",
          "name": "extensions",
          "type": "uint256[]"
        }
      ],
      "stateMutability": "view",
      "type": "function"
    },
    {
      "inputs": [
        {
          "internalType": "uint256",
          "name": "timepoint",
          "type": "uint256"
        }
      ],
      "name": "getPastTotalSupply",
      "outputs": [
        {
          "internalType": "uint256",
          "name": "",
          "type": "uint256"
        }
      ],
      "stateMutability": "view",
      "type": "function"
    },
    {
      "inputs": [
        {
          "internalType": "address",
          "name": "account",
          "type": "address"
        },
        {
          "internalType": "uint256",
          "name": "timepoint",
          "type": "uint256"
        }
      ],
      "name": "getPastVotes",
      "outputs": [
        {
          "internalType": "uint256",
          "name": "",
          "type": "uint256"
        }
      ],
      "stateMutability": "view",
      "type": "function"
    },
    {
      "inputs": [
        {
          "internalType": "address",
          "name": "account",
          "type": "address"
        }
      ],
      "name": "getVotes",
      "outputs": [
        {
          "internalType": "uint256",
          "name": "",
          "type": "uint256"
        }
      ],
      "stateMutability": "view",
      "type": "function"
    },
    {
      "inputs": [
        {
          "internalType": "address",
          "name": "spender",
          "type": "address"
        },
        {
          "internalType": "uint256",
          "name": "addedValue",
          "type": "uint256"
        }
      ],
      "name": "increaseAllowance",
      "outputs": [
        {
          "internalType": "bool",
          "name": "",
          "type": "bool"
        }
      ],
      "stateMutability": "nonpayable",
      "type": "function"
    },
    {
      "inputs": [],
      "name": "name",
      "outputs": [
        {
          "internalType": "string",
          "name": "",
          "type": "string"
        }
      ],
      "stateMutability": "view",
      "type": "function"
    },
    {
      "inputs": [
        {
          "internalType": "address",
          "name": "owner",
          "type": "address"
        }
      ],
      "name": "nonces",
      "outputs": [
        {
          "internalType": "uint256",
          "name": "",
          "type": "uint256"
        }
      ],
      "stateMutability": "view",
      "type": "function"
    },
    {
      "inputs": [
        {
          "internalType": "address",
          "name": "account",
          "type": "address"
        }
      ],
      "name": "numCheckpoints",
      "outputs": [
        {
          "internalType": "uint32",
          "name": "",
          "type": "uint32"
        }
      ],
      "stateMutability": "view",
      "type": "function"
    },
    {
      "inputs": [
        {
          "internalType": "address",
          "name": "owner",
          "type": "address"
        },
        {
          "internalType": "address",
          "name": "spender",
          "type": "address"
        },
        {
          "internalType": "uint256",
          "name": "value",
          "type": "uint256"
        },
        {
          "internalType": "uint256",
          "name": "deadline",
          "type": "uint256"
        },
        {
          "internalType": "uint8",
          "name": "v",
          "type": "uint8"
        },
        {
          "internalType": "bytes32",
          "name": "r",
          "type": "bytes32"
        },
        {
          "internalType": "bytes32",
          "name": "s",
          "type": "bytes32"
        }
      ],
      "name": "permit",
      "outputs": [],
      "stateMutability": "nonpayable",
      "type": "function"
    },
    {
      "inputs": [],
      "name": "symbol",
      "outputs": [
        {
          "internalType": "string",
          "name": "",
          "type": "string"
        }
      ],
      "stateMutability": "view",
      "type": "function"
    },
    {
      "inputs": [],
      "name": "totalSupply",
      "outputs": [
        {
          "internalType": "uint256",
          "name": "",
          "type": "uint256"
        }
      ],
      "stateMutability": "view",
      "type": "function"
    },
    {
      "inputs": [
        {
          "internalType": "address",
          "name": "to",
          "type": "address"
        },
        {
          "internalType": "uint256",
          "name": "amount",
          "type": "uint256"
        }
      ],
      "name": "transfer",
      "outputs": [
        {
          "internalType": "bool",
          "name": "",
          "type": "bool"
        }
      ],
      "stateMutability": "nonpayable",
      "type": "function"
    },
    {
      "inputs": [
        {
          "internalType": "address",
          "name": "from",
          "type": "address"
        },
        {
          "internalType": "address",
          "name": "to",
          "type": "address"
        },
        {
          "internalType": "uint256",
          "name": "amount",
          "type": "uint256"
        }
      ],
      "name": "transferFrom",
      "outputs": [
        {
          "internalType": "bool",
          "name": "",
          "type": "bool"
        }
      ],
      "stateMutability": "nonpayable",
      "type": "function"
    }
  ],
  "bytecode": {
    "object": "0x6101606040818152346200042057620000188262000425565b600782526020918281016626bcaa37b5b2b760c91b8082528351906200003e8262000425565b6007825285820152835194620000548662000425565b600394858752624d544b60e81b82880152805192620000738462000425565b6001808552603160f81b84860190815282516001600160401b0399919391908a811162000320578154928484811c9416801562000415575b88851014620003ff578190601f94858111620003a9575b508890858311600114620003425760009262000336575b505060001982841b1c191690841b1781555b8a51918a8311620003205760049b8c548581811c9116801562000315575b898210146200030057828111620002b5575b50879184116001146200024a579383949184926000956200023e575b50501b92600019911b1c19161788555b620001528662000441565b94610120958652620001648562000605565b96610140978852519020938460e05251902096610100978089524660a0528251938401947f8b73c3c69bb8fe3d512ecc4cf759cc79239f7b179b0ffacaa9a75d522b39400f86528385015260608401524660808401523060a084015260a0835260c0830196838810908811176200022957508590525190206080523060c0526120a09384620007be853960805184611ada015260a05184611b95015260c05184611aa4015260e05184611b2901525183611b4f015251826108040152518161082d0152f35b604190634e487b7160e01b6000525260246000fd5b01519350388062000137565b9190601f198416928d60005284896000209460005b8b898383106200029d575050501062000282575b50505050811b01885562000147565b01519060f884600019921b161c191690553880808062000273565b8686015189559097019694850194889350016200025f565b8d600052886000208380870160051c8201928b8810620002f6575b0160051c019086905b828110620002e95750506200011b565b60008155018690620002d9565b92508192620002d0565b60228e634e487b7160e01b6000525260246000fd5b90607f169062000109565b634e487b7160e01b600052604160045260246000fd5b015190503880620000d9565b90869350601f19831691856000528a6000209260005b8c82821062000392575050841162000379575b505050811b018155620000eb565b015160001983861b60f8161c191690553880806200036b565b8385015186558a9790950194938401930162000358565b90915083600052886000208580850160051c8201928b8610620003f5575b918891869594930160051c01915b828110620003e5575050620000c2565b60008155859450889101620003d5565b92508192620003c7565b634e487b7160e01b600052602260045260246000fd5b93607f1693620000ab565b600080fd5b604081019081106001600160401b038211176200032057604052565b80516020919082811015620004e0575090601f8251116200047f57808251920151908083106200047057501790565b82600019910360031b1b161790565b90604051809263305a27a960e01b82528060048301528251908160248401526000935b828510620004c6575050604492506000838284010152601f80199101168101030190fd5b8481018201518686016044015293810193859350620004a2565b6001600160401b03811162000320576005928354926001938481811c91168015620005fa575b83821014620003ff57601f8111620005c3575b5081601f84116001146200055957509282939183926000946200054d575b50501b916000199060031b1c191617905560ff90565b01519250388062000537565b919083601f1981168760005284600020946000905b88838310620005a857505050106200058e575b505050811b01905560ff90565b015160001960f88460031b161c1916905538808062000581565b8587015188559096019594850194879350908101906200056e565b8560005284601f846000209201871c820191601f8601881c015b828110620005ed57505062000519565b60008155018590620005dd565b90607f169062000506565b805160209081811015620006935750601f8251116200063257808251920151908083106200047057501790565b90604051809263305a27a960e01b82528060048301528251908160248401526000935b82851062000679575050604492506000838284010152601f80199101168101030190fd5b848101820151868601604401529381019385935062000655565b906001600160401b0382116200032057600654926001938481811c91168015620007b2575b83821014620003ff57601f811162000778575b5081601f84116001146200070c575092829391839260009462000700575b50501b916000199060031b1c19161760065560ff90565b015192503880620006e9565b919083601f198116600660005284600020946000905b888383106200075d575050501062000743575b505050811b0160065560ff90565b015160001960f88460031b161c1916905538808062000735565b85870151885590960195948501948793509081019062000722565b600660005284601f84600020920160051c820191601f860160051c015b828110620007a5575050620006cb565b6000815501859062000795565b90607f1690620006b856fe6080604052600436101561001257600080fd5b60003560e01c806306fdde03146101a7578063095ea7b3146101a257806318160ddd1461019d57806323b872dd14610198578063313ce567146101935780633644e5151461018e57806339509351146101895780633a46b1a8146101845780634bf5d7e91461017f578063587cde1e1461017a5780635c19a95c146101755780636fcfff451461017057806370a082311461016b5780637ecebe001461016657806384b0196e146101615780638e539e8c1461015c57806391ddadf41461015757806395d89b41146101525780639ab24eb01461014d578063a457c2d714610148578063a9059cbb14610143578063c3cda5201461013e578063d505accf14610139578063dd62ed3e146101345763f1127ed81461012f57600080fd5b610f2c565b610ed4565b610d8e565b610c63565b610c1d565b610b6f565b610b0d565b610a66565b610a3a565b6108e1565b6107e9565b6107af565b610775565b61072d565b610709565b6106ce565b61061c565b6104c7565b61046f565b61044c565b610430565b610365565b610347565b610316565b610200565b919082519283825260005b8481106101d8575050826000602080949584010152601f8019910116010190565b6020818301810151848301820152016101b7565b9060206101fd9281815201906101ac565b90565b346102e5576000806003193601126102e257604051908060035461022381610fb3565b808552916001918083169081156102b8575060011461025d575b6102598561024d8187038261105c565b604051918291826101ec565b0390f35b9250600383527fc2575a0e9e593c00f959f8c92f12db2869c3395a3b0502d05e2516446f71f85b5b8284106102a057505050810160200161024d8261025961023d565b80546020858701810191909152909301928101610285565b8695506102599693506020925061024d94915060ff191682840152151560051b820101929361023d565b80fd5b600080fd5b600435906001600160a01b03821682036102e557565b602435906001600160a01b03821682036102e557565b346102e55760403660031901126102e55761033c6103326102ea565b6024359033611263565b602060405160018152f35b346102e55760003660031901126102e5576020600254604051908152f35b346102e55760603660031901126102e55761037e6102ea565b610386610300565b6001600160a01b0382166000908152600160209081526040808320338452909152902060443591905492600184016103cf575b6103c39350611155565b60405160018152602090f35b8284106103eb576103e6836103c395033383611263565b6103b9565b60405162461bcd60e51b815260206004820152601d60248201527f45524332303a20696e73756666696369656e7420616c6c6f77616e63650000006044820152606490fd5b346102e55760003660031901126102e557602060405160128152f35b346102e55760003660031901126102e5576020610467611aa1565b604051908152f35b346102e55760403660031901126102e5576104886102ea565b3360009081526001602090815260408083206001600160a01b038516845290915290205460243581018091116104c25761033c9133611263565b61107e565b346102e55760403660031901126102e5576104e06102ea565b602435906104ff65ffffffffffff6104f743611f84565b16831061143c565b6001600160a01b03166000908152600a60205260408120805492909183600581116105cb575b50905b8382106105765750508161054f575050602060005b6040516001600160e01b039091168152f35b61056a61057191602093600019019060005260206000200190565b5460201c90565b61053d565b90926105828185611db4565b90818363ffffffff6105a861059e848960005260206000200190565b5463ffffffff1690565b1611156105b9575050925b90610528565b9094506105c69150611094565b6105b3565b806105db6105e192969396611dc9565b90611488565b908263ffffffff6105fc61059e858860005260206000200190565b16111561060c5750925b38610525565b935061061790611094565b610606565b346102e55760003660031901126102e5574365ffffffffffff61063e43611f84565b16036106895761025960405161065381611003565b601d81527f6d6f64653d626c6f636b6e756d6265722666726f6d3d64656661756c740000006020820152604051918291826101ec565b60405162461bcd60e51b815260206004820152601d60248201527f4552433230566f7465733a2062726f6b656e20636c6f636b206d6f64650000006044820152606490fd5b346102e55760203660031901126102e55760206001600160a01b03806106f26102ea565b166000526009825260406000205416604051908152f35b346102e55760203660031901126102e55761072b6107256102ea565b33611513565b005b346102e55760203660031901126102e5576001600160a01b0361074e6102ea565b16600052600a6020526020610767604060002054611feb565b63ffffffff60405191168152f35b346102e55760203660031901126102e5576001600160a01b036107966102ea565b1660005260006020526020604060002054604051908152f35b346102e55760203660031901126102e5576001600160a01b036107d06102ea565b1660005260076020526020604060002054604051908152f35b346102e5576000806003193601126102e257610893906108287f0000000000000000000000000000000000000000000000000000000000000000611be1565b6108517f0000000000000000000000000000000000000000000000000000000000000000611cda565b916040519161085f83611024565b818352604051948594600f60f81b865261088560209360e08589015260e08801906101ac565b9086820360408801526101ac565b904660608601523060808601528260a086015284820360c08601528080855193848152019401925b8281106108ca57505050500390f35b8351855286955093810193928101926001016108bb565b346102e55760203660031901126102e55760043561091065ffffffffffff61090843611f84565b16821061143c565b600b5490600082600581116109d3575b50905b82821061097057828061093d575060405160008152602090f35b600b600052602090610571907f0175b7a638427703f0dbe7bb9bbf987a2551717b34e79f33b5b1008d1fa01db80161056a565b909161097c8184611db4565b600b600052908263ffffffff6109b37f0175b7a638427703f0dbe7bb9bbf987a2551717b34e79f33b5b1008d1fa01db9850161059e565b1611156109c35750915b90610923565b92506109ce90611094565b6109bd565b806105db6109e392959395611dc9565b600b600052908263ffffffff610a1a7f0175b7a638427703f0dbe7bb9bbf987a2551717b34e79f33b5b1008d1fa01db9850161059e565b161115610a2a5750915b38610920565b9250610a3590611094565b610a24565b346102e55760003660031901126102e5576020610a5643611f84565b65ffffffffffff60405191168152f35b346102e5576000806003193601126102e2576040519080600454610a8981610fb3565b808552916001918083169081156102b85750600114610ab2576102598561024d8187038261105c565b9250600483527f8a35acfbc15ff81a39ae7d344fd709f28e8600b4aa8c65c6b64bfe7fe36bd19b5b828410610af557505050810160200161024d8261025961023d565b80546020858701810191909152909301928101610ada565b346102e55760203660031901126102e5576001600160a01b03610b2e6102ea565b16600052600a602052604060002080548015600014610b5557505060405160008152602090f35b602091610b669160001901906113ec565b5054811c61053d565b346102e55760403660031901126102e557610b886102ea565b60243590336000526001602052610bb58160406000209060018060a01b0316600052602052604060002090565b5491808310610bca576103c392039033611263565b60405162461bcd60e51b815260206004820152602560248201527f45524332303a2064656372656173656420616c6c6f77616e63652062656c6f77604482015264207a65726f60d81b6064820152608490fd5b346102e55760403660031901126102e55761033c610c396102ea565b6024359033611155565b6064359060ff821682036102e557565b6084359060ff821682036102e557565b346102e55760c03660031901126102e557610c7c6102ea565b60443590602435610c8b610c43565b92804211610d4957610d1b610d449161072b9560405190610d0382610cf56020820195898b8860609194939260808201957fe48329057bfd03d55e49b547132e39cffd9c1820ad7b9d4c5307691425d15adf835260018060a01b0316602083015260408201520152565b03601f19810184528361105c565b610d1660a4359360843593519020611bbb565b6118bb565b6001600160a01b0381166000908152600760205260409020805460018101909155909214611495565b611513565b60405162461bcd60e51b815260206004820152601d60248201527f4552433230566f7465733a207369676e617475726520657870697265640000006044820152606490fd5b346102e55760e03660031901126102e557610da76102ea565b610daf610300565b6044359060643592610dbf610c53565b93804211610e8f57610e77610e8a91610cf561072b97610e64610dfd8760018060a01b03166000526007602052604060002090815491600183019055565b604080517f6e71edae12b1b97f4d1f60370fef10105fa2faae0126114a169c64845d6126c9602082019081526001600160a01b03808c1693830193909352918b166060820152608081018c905260a081019290925260c082019590955292839060e0820190565b610d1660c4359360a43593519020611bbb565b6001600160a01b03838116911614611393565b611263565b60405162461bcd60e51b815260206004820152601d60248201527f45524332305065726d69743a206578706972656420646561646c696e650000006044820152606490fd5b346102e55760403660031901126102e5576020610f23610ef26102ea565b610efa610300565b6001600160a01b0391821660009081526001855260408082209290931681526020919091522090565b54604051908152f35b346102e55760403660031901126102e557610f456102ea565b63ffffffff60243581811681036102e557610f8f610f9591604094600060208751610f6f81611003565b82815201526001600160a01b03166000908152600a6020528590206113ec565b5061141a565b8251815190921682526020908101516001600160e01b031690820152f35b90600182811c92168015610fe3575b6020831014610fcd57565b634e487b7160e01b600052602260045260246000fd5b91607f1691610fc2565b634e487b7160e01b600052604160045260246000fd5b6040810190811067ffffffffffffffff82111761101f57604052565b610fed565b6020810190811067ffffffffffffffff82111761101f57604052565b60c0810190811067ffffffffffffffff82111761101f57604052565b90601f8019910116810190811067ffffffffffffffff82111761101f57604052565b634e487b7160e01b600052601160045260246000fd5b90600182018092116104c257565b156110a957565b60405162461bcd60e51b815260206004820152602360248201527f45524332303a207472616e7366657220746f20746865207a65726f206164647260448201526265737360e81b6064820152608490fd5b1561110157565b60405162461bcd60e51b815260206004820152602660248201527f45524332303a207472616e7366657220616d6f756e7420657863656564732062604482015265616c616e636560d01b6064820152608490fd5b6001600160a01b0392919083811680156112105761120e9483169061117b8215156110a2565b6001600160a01b03831660009081526020819052604090208590546111a2828210156110fa565b036111bf8460018060a01b03166000526000602052604060002090565b556001600160a01b0384166000908152602081815260409182902080548801905590518681527fddf252ad1be2c89b69c2b068fc378daa952ba7f163c4a11628f55a4df523b3ef9190a36114e1565b565b60405162461bcd60e51b815260206004820152602560248201527f45524332303a207472616e736665722066726f6d20746865207a65726f206164604482015264647265737360d81b6064820152608490fd5b6001600160a01b0380821692919083156113425782169384156112f257806112dc7f8c5be1e5ebec7d5bd14f71427d1e84f3dd0314c0f7b2291e5b200ac8c7c3b925946112c56112ed9560018060a01b03166000526001602052604060002090565b9060018060a01b0316600052602052604060002090565b556040519081529081906020820190565b0390a3565b60405162461bcd60e51b815260206004820152602260248201527f45524332303a20617070726f766520746f20746865207a65726f206164647265604482015261737360f01b6064820152608490fd5b60405162461bcd60e51b8152602060048201526024808201527f45524332303a20617070726f76652066726f6d20746865207a65726f206164646044820152637265737360e01b6064820152608490fd5b1561139a57565b60405162461bcd60e51b815260206004820152601e60248201527f45524332305065726d69743a20696e76616c6964207369676e617475726500006044820152606490fd5b6040519061120e82611003565b80548210156114045760005260206000200190600090565b634e487b7160e01b600052603260045260246000fd5b9060405161142781611003565b602081935463ffffffff81168352811c910152565b1561144357565b60405162461bcd60e51b815260206004820152601960248201527f4552433230566f7465733a20667574757265206c6f6f6b7570000000000000006044820152606490fd5b919082039182116104c257565b1561149c57565b60405162461bcd60e51b815260206004820152601960248201527f4552433230566f7465733a20696e76616c6964206e6f6e6365000000000000006044820152606490fd5b6001600160a01b0390811660009081526009602052604080822054938316825290205461120e93929082169116611587565b61120e9160018060a01b038092166000928184526009602052806040852054168092856020527f3134e8a2e6d97e929a7e54011ea5485d7d196dd5f0ba4d4ef95803e8e3fc257f60408720549660096020526040812094871694856bffffffffffffffffffffffff60a01b82541617905580a45b6001600160a01b0380831693929116808414158061179a575b6115ab575b50505050565b80611619575b50826115be575b806115a5565b6001600160a01b03166000908152600a602052604090207fdec2bacdd2f05b59de34da9b523dff8be42e5e38e818c82fdb0bae774387a7249161160091611802565b60408051928352602083019190915290a23880806115b8565b80600052600a6020527fdec2bacdd2f05b59de34da9b523dff8be42e5e38e818c82fdb0bae774387a72460406000208054801591826000146117775761165d6113df565b6000815260006020820152915b6020830151611689906001600160e01b03165b6001600160e01b031690565b926116948985612050565b94159081611754575b50156116f2576116c56116dc926116b386611f1b565b92600019019060005260206000200190565b9063ffffffff82549181199060201b169116179055565b604080519182526020820192909252a2386115b1565b5061174f9061171661171161170643611f84565b65ffffffffffff1690565b611feb565b9061174a61172386611f1b565b61173a61172e6113df565b63ffffffff9095168552565b6001600160e01b03166020840152565b6117a3565b6116dc565b5163ffffffff16905063ffffffff61176e61170643611f84565b9116143861169d565b61179461178f60001984018360005260206000200190565b61141a565b9161166a565b508215156115a0565b80546801000000000000000081101561101f576117c5916001820181556113ec565b6117ec57815160209283015190921b63ffffffff191663ffffffff92909216919091179055565b634e487b7160e01b600052600060045260246000fd5b90918154918215928360001461189e5761181a6113df565b60008152600060208201525b602081015161184890611841906001600160e01b031661167d565b968761205d565b9415908161187b575b5015611867576116c561120e926116b386611f1b565b5061120e9061171661171161170643611f84565b5163ffffffff16905063ffffffff61189561170643611f84565b91161438611851565b6118b661178f60001983018460005260206000200190565b611826565b916101fd93916118ca93611a12565b9190916118f2565b600511156118dc57565b634e487b7160e01b600052602160045260246000fd5b6118fb816118d2565b806119035750565b61190c816118d2565b600181036119595760405162461bcd60e51b815260206004820152601860248201527f45434453413a20696e76616c6964207369676e617475726500000000000000006044820152606490fd5b611962816118d2565b600281036119af5760405162461bcd60e51b815260206004820152601f60248201527f45434453413a20696e76616c6964207369676e6174757265206c656e677468006044820152606490fd5b806119bb6003926118d2565b146119c257565b60405162461bcd60e51b815260206004820152602260248201527f45434453413a20696e76616c6964207369676e6174757265202773272076616c604482015261756560f01b6064820152608490fd5b9291907f7fffffffffffffffffffffffffffffff5d576e7357a4501ddfe92f46681b20a08311611a955791608094939160ff602094604051948552168484015260408301526060820152600093849182805260015afa15611a885781516001600160a01b03811615611a82579190565b50600190565b50604051903d90823e3d90fd5b50505050600090600390565b307f00000000000000000000000000000000000000000000000000000000000000006001600160a01b03161480611b92575b15611afc577f000000000000000000000000000000000000000000000000000000000000000090565b60405160208101907f8b73c3c69bb8fe3d512ecc4cf759cc79239f7b179b0ffacaa9a75d522b39400f82527f000000000000000000000000000000000000000000000000000000000000000060408201527f000000000000000000000000000000000000000000000000000000000000000060608201524660808201523060a082015260a08152611b8c81611040565b51902090565b507f00000000000000000000000000000000000000000000000000000000000000004614611ad3565b604290611bc6611aa1565b906040519161190160f01b8352600283015260228201522090565b60ff8114611c1f5760ff811690601f8211611c0d5760405191611c0383611003565b8252602082015290565b604051632cd44ac360e21b8152600490fd5b50604051600554816000611c3283610fb3565b80835292600190818116908115611cb85750600114611c59575b506101fd9250038261105c565b6005600090815291507f036b6384b5eca791c62761152d0c79bb0604c104a5fb6f4eb0703f3154bb3db05b848310611c9d57506101fd935050810160200138611c4c565b81935090816020925483858901015201910190918492611c84565b9050602092506101fd94915060ff191682840152151560051b82010138611c4c565b60ff8114611cfc5760ff811690601f8211611c0d5760405191611c0383611003565b50604051600654816000611d0f83610fb3565b80835292600190818116908115611cb85750600114611d3557506101fd9250038261105c565b6006600090815291507ff652222313e28459528d920b65115c16c04f3efc82aaedc97be59f3f377c0d3f5b848310611d7957506101fd935050810160200138611c4c565b81935090816020925483858901015201910190918492611d60565b8115611d9e570490565b634e487b7160e01b600052601260045260246000fd5b90808216911860011c81018091116104c25790565b8015611f035780611e9c611e95611e8b611e81611e77611e6d611e63611e5960016101fd9a6000908b60801c80611ef7575b508060401c80611eea575b508060201c80611edd575b508060101c80611ed0575b508060081c80611ec3575b508060041c80611eb6575b508060021c80611ea9575b50821c611ea2575b811c1b611e52818b611d94565b0160011c90565b611e52818a611d94565b611e528189611d94565b611e528188611d94565b611e528187611d94565b611e528186611d94565b611e528185611d94565b8092611d94565b90611f09565b8101611e45565b6002915091019038611e3d565b6004915091019038611e32565b6008915091019038611e27565b6010915091019038611e1c565b6020915091019038611e11565b6040915091019038611e06565b91505060809038611dfb565b50600090565b9080821015611f16575090565b905090565b6001600160e01b0390818111611f2f571690565b60405162461bcd60e51b815260206004820152602760248201527f53616665436173743a2076616c756520646f65736e27742066697420696e20326044820152663234206269747360c81b6064820152608490fd5b65ffffffffffff90818111611f97571690565b60405162461bcd60e51b815260206004820152602660248201527f53616665436173743a2076616c756520646f65736e27742066697420696e203460448201526538206269747360d01b6064820152608490fd5b63ffffffff90818111611ffc571690565b60405162461bcd60e51b815260206004820152602660248201527f53616665436173743a2076616c756520646f65736e27742066697420696e203360448201526532206269747360d01b6064820152608490fd5b9081039081116104c25790565b9081018091116104c2579056fea26469706673582212209ce42e1329f4b90d08d83fdd676799f4bcf92087c40179b167f1849835e7bab464736f6c63430008130033",
    "linkReferences": {}
  },
  "methodIdentifiers": {
    "CLOCK_MODE()": "4bf5d7e9",
    "DOMAIN_SEPARATOR()": "3644e515",
    "allowance(address,address)": "dd62ed3e",
    "approve(address,uint256)": "095ea7b3",
    "balanceOf(address)": "70a08231",
    "checkpoints(address,uint32)": "f1127ed8",
    "clock()": "91ddadf4",
    "decimals()": "313ce567",
    "decreaseAllowance(address,uint256)": "a457c2d7",
    "delegate(address)": "5c19a95c",
    "delegateBySig(address,uint256,uint256,uint8,bytes32,bytes32)": "c3cda520",
    "delegates(address)": "587cde1e",
    "eip712Domain()": "84b0196e",
    "getPastTotalSupply(uint256)": "8e539e8c",
    "getPastVotes(address,uint256)": "3a46b1a8",
    "getVotes(address)": "9ab24eb0",
    "increaseAllowance(address,uint256)": "39509351",
    "name()": "06fdde03",
    "nonces(address)": "7ecebe00",
    "numCheckpoints(address)": "6fcfff45",
    "permit(address,address,uint256,uint256,uint8,bytes32,bytes32)": "d505accf",
    "symbol()": "95d89b41",
    "totalSupply()": "18160ddd",
    "transfer(address,uint256)": "a9059cbb",
    "transferFrom(address,address,uint256)": "23b872dd"
  },
  "id": 113
}